S01700004C6F526146756F746153616D706C652E737265633E
S21400000088160020BD000000958A0100958C01002E
S214000010958C0100958C0100958C0100958C010053
S214000020000000000000000000000000958C0100A9
S214000030958C010000000000958C0100A9130100BA
S21400004061880100D57B0100557C010061880100B4
S214000050CD780100597801003D7901006D790100E5
S2140000600D7C010075210100F9080020817C01004B
S2140000701D85010000000000000000001D85010035
S21400008001000000B0000000020000009000000028
S21400009000000020000000200000104000000203C6
S2140000A000000020880A0020400400000000010331
S2140000B0A0160020385500200000000310B500F000
S2140000C02FF817F09DFAFEE7F8B5060000240C2777
S2140000D0124D2B68A34204D80024AB68A3420ED866
S2140000E0F8BD3A0062436B689B185A7AB24204D154
S2140000F005CB0021121A19F035FD0134E8E7EB684C
S21400010022019B185A7BB24205D118685A68996832
S214000110121A19F090FD0134DFE7C0468000000097
S21400012073B5344A344B00209A6017F03FFA18F043
S21400013027FC6B460024DE1D34700120337818F04F
S2140001406BFDEFF31081012585F310882B4B2C48AF
S2140001509A6802409A609A6881F3108829490A686A
S214000160D207D20F32700A68D207D20F32700A68EE
S214000170D207D20F3270EFF3108185F310888022F9
S2140001809868520502439A609B6881F3108828009D
S21400019018F01CFD280017F009FA41F200011A4B6E
S2140001A01A4A9C801A801A4A20009A60194ADA6015
S2140001B0194A51849D80FFF787FF18F0CDFB18F091
S2140001C029FC022017F0F2F92800FFF77DFF134DF7
S2140001D0134BED1AAD10AC4205DB18F0E5FC002021
S2140001E018F05AFD73BD0E4AA3009B181B6898476B
S2140001F00134F0E70000000000ED00E0FC6F044072
S214000200FFFFFFEF00080440000D004000A5FFFFC1
S214000210880E002088160020FE6000401CBF0100EB
S20800022018BF0100FD
S208000400FFFFFFFFF7
S208000404DFAFFFFF63
S214000440BFF34F8F034B044ADA60BFF34F8FC046AB
S214000450FDE7C04600ED00E00400FA0510B500F028
S214000460BFFC00220321044800F052FC08B9FFF745
S214000470E7FFFF2010BDC04680510020431E5918DC
S214000480094B70B51C000025FF3465711D00060C75
S214000490FE3580B26E82FC336881D2B2080C89B217
S2140004A058626983627570BD00C07E4013B51049FE
S2140004B001900B6B5B0612D57F240E4B5A7D2240B3
S2140004C05A7500225A7501900B6B5B06D80F002BED
S2140004D008DA019B2BB1019B013B0193F4E7019BDA
S2140004E00BB9142016BD019B013B0193E1E7C04602
S2140004F0FCC07E40FFC07E404143032903D98908E3
S21400050001390029FCD1704740F28013A521064A24
S214000510D150C243054BD2B258705A7058705B78AF
S214000520834200D1C046704700C07E40FFC07E4078
S214000530F7B544F60033070043F6B0760F4C0820B4
S214000540A55B0193FFF7E0FF1020B968FFF7D4FF23
S2140005500B4BADB2A353A35B1BB9012D07D00020F4
S214000560FEBD019B3BB1019B013B0193F3E743F6C4
S214000570C873E554F3E71420F2E7C04600C07E4097
S21400058000AAFFFF030000223C3310B51A7043F6A2
S214000590B073074A0400D35A0BB900F0BFFA012221
S2140005A0044B20009A6200229A62FFF7C1FF10BD3A
S2140005B000C07E40FCC07E40F8B50500080016006E
S2140005C01F00FFF773FF0400142804D12800FFF76C
S2140005D0D9FF2000F8BD40F2F0133400044AD35887
S2140005E01C401E42F5D02800FFF7CCFF3C00F0E789
S2140005F000C07E40002310B5934200D110BDCC5CF5
S214000600C4540133F8E737B5104A114901900B6B13
S2140006101B0613D540F2DC137F25D4582C40D4504B
S2140006200024D45001900B6B1B06D80F002B08DA61
S214000630019B2BB1019B013B0193F4E7019B0BB996
S21400064014203EBD019B013B0193E0E700C07E40C5
S214000650FCC07E40F7B5114D04002B00C66A876AC1
S214000660FE33320C5A82B2B239005A8101A80422F3
S214000670FFF7C0FF236B0437013B23636B469A8862
S2140006802B000436FC33A762E6625A636A46D288B9
S214000690FF35DA6381236B75F7BDC04600C07E4028
S2140006A043F6C873002270B50A4D0400EA54436846
S2140006B01A781AB11120185600F0A2FB43F6B07350
S2140006C0054A0220EA52FFF71FFF0320A168FFF742
S2140006D013FF70BD00C07E4001AAFFFFF8B580235F
S2140006E0C26A0400DB029A4214D2036900218363C3
S2140006F0036B00269B080363FFF7D2FF00258027C5
S214000700174BFF025D71236BE3B935BB2000FFF783
S2140007100FFF22E043681E781EB1030004223C331C
S2140007201A7063692000A36300F0F8F9E6E700F0AA
S21400073051F90EE0182312222000A16BFFF73CFFB0
S2140007400500E0E74DB9E36A2000BB42EFD2FFF7B1
S21400075081FF002EEED0122363632800F8BDC0464A
S214000760FFC07E40F8B514000F00050000211E00F3
S214000770FFF796FF210083223800FFF77FFE033441
S214000780A969A40840F2F813102228006143FFF775
S21400079013FF38B9044B2800DB6A1B07DB0F3370E6
S2140007A0FFF7C6FEF8BDC046FCC07E40F8B51D008B
S2140007B00F00002104001600FFF772FF29008422B4
S2140007C038007143FFF75AFEE16919231122200011
S2140007D07143FFF7F1FE10B92000FFF7A9FEF8BD40
S2140007E070B50500406AFFF70EFF0400142804D118
S2140007F02800FFF7C7FE200070BD40F2F013064A3F
S214000800D258DF3B1400FF3B1C401A42F3D02800AE
S214000810FFF7B8FE1824EEE700C07E40F7B50D00DF
S2140008200021009001922C00FFF73AFF8327012257
S214000830184B5A71019B184ACBB94FF6FF73536396
S214000840D36340F2DC13154A0098D750FFF7C8FF71
S2140008500023104A06000137537110B90434872F5D
S214000860E5D10098FFF764FE06B13000FEBD617862
S214000870237809020B435363631B0C2B06D1EB7BD7
S214000880A97B1B020B4301990B43D9E7E178A378B8
S2140008900902F9E7FFC07E40FCC07E4000C07E40F3
S2140008A070B540F2D01340F2C8160E4C0E4D82B909
S2140008B0A259E358D20ADB0AC00AD202C90ADB02EE
S2140008C0104319436863E96340F2DC138222E25066
S2140008D070BDA259E3586A63044A13400343EB63AE
S2140008E0F2E7C04600C07E40FCC07E40FF7FFFFFB0
S2140008F0F8B516000C0000210500FFF7D1FE8EB1FA
S214000900032340F2D8122340C0240E489B0181588E
S214000910A1430024194381502800FFF709FE04B1C3
S2140009202000F8BD01221000074FA04331007A7165
S214000930C003FFF7B5FF2800FFF752FF7E710400E3
S214000940EAE7C04600C07E40FFC07E40F8B50D0016
S214000950002104001700FFF7A3FE0123094E28001C
S214000960737100223900FFF79BFF2000FFF738FF66
S2140009700023050073712000FFF7DAFD05B128009B
S214000980F8BDC046FFC07E4043F6B073044A002060
S214000990D35A812213405A1E93410B707047C046AB
S2140009A000C07E40062070470A0010B5034B11CBEE
S2140009B011C2034B11CB11C2002010BD3CBE01007A
S2140009C024BE0100062070470620704706207047A8
S2140009D006207047C36A0D4A10B59A180133C362E1
S2140009E0036B816A013B0363094B4C1C846218004D
S2140009F0140CFE3092B2448242811A000978FC320E
S214000A0051638122FF335A7510BDC0460000F0BD09
S214000A1000C07E40002310B50360436811201856BE
S214000A200300213301D000F0EBF9002010BD0620B2
S214000A30704700002D4B70B519682D4D0B00020055
S214000A40286A2C4C4001400F8340C3402A48D3609C
S214000A50834207D8A34205D02848834202D02848BC
S214000A60834240D1286A274D4001400F8140C14053
S214000A7025481B18B3FBF4F0AB4202D90123034010
S214000A80C018214BD060C918B1FBF4F140F2835373
S214000A9006204B43B3FBF0F3136140F276334B432F
S214000AA0B3FBF0F3536158234B43B3FBF0F393616E
S214000AB0164B91604B43B3FBF0F3D361144B4B439F
S214000AC0B3FBF0F31362134B4B43B3FBF0F35362E9
S214000AD0114B1A78012A01D1002070BD01221A702C
S214000AE0FFF70AFDF8E740F2F610F6E74853002055
S214000AF000E0014040420F00FF083D0080841E00D9
S214000B00C0C62D003F8AF7013F420F00B86A0500B5
S214000B10C0B0070068ED220090C07E4043F6B07378
S214000B2010B504000A4A0B49D15281680620FFF727
S214000B30E3FC1020FFF7E8FC0320A168FFF7DCFCCD
S214000B4063681A781AB11120185600F051F910BDD2
S214000B5000C07E4080AAFFFF10B5FFF713FD0020FF
S214000B6010BD000070B50400FFF7D8FFE3683F2013
S214000B7040F2D81209491F2B0BD9203B5B081F33C4
S214000B808D58034085432B4320008B50FFF7D0FC45
S214000B9070BD1F25013B2B408D58F3E700C07E40FB
S214000BA00A7810B50B00040041602AB1112022001B
S214000BB0097C185600F02CF9230000223C33200054
S214000BC01A70FFF737FF28B92000FFF7CBFF08B9E8
S214000BD0014B236010BDC0464E45504F10B5040073
S214000BE0FFF728FF10B92000FFF7BCFF10BD70B557
S214000BF0040000253C342570C26281620363FFF75F
S214000C006DFD70BDF7B51E0003003C330193002355
S214000C101700019A0400137080230D00DB0299422E
S214000C2008D233003A00FFF79DFD050040BB0025C3
S214000C302800FEBDFFF772FF134B8322E818390029
S214000C40FFF71CFC63681B783BB10523019A137001
S214000C50033B3370A369A363E9E7A16940F2F81385
S214000C60102220007943FFF7A7FC050040B9074B88
S214000C702000DB6A1B07DB0F3370FFF759FCD6E753
S214000C802000FFF77FFCD3E70000F0BDFCC07E40ED
S214000C90F8B5070000233C373B70802305000C00A6
S214000CA01600DB02994208D2C90A40F60003C902C0
S214000CB0FFF77CFD04002000F8BDFFF72FFF114B67
S214000CC0A00A8002C0188422A8622E63B102FFF731
S214000CD0D5FB6B681B786BB9296A11222800714313
S214000CE01933FFF769FC04000028E4D12800FFF759
S214000CF01FFCE0E701233B7010336B632B6A002474
S214000D00AB63D8E70000F0BD10B5FFF787FD10BD58
S214000D1010B509B9012312B1FFF7EAFD0300180068
S214000D2010BD10B5FFF712FE10BD002210B5110061
S214000D30FFF70CFE10BD000030B585B0EFF303845E
S214000D40103C64B2200000F043F81D4BA400E458A9
S214000D50A06BFFF7ABFB142808D040F2F013194A3B
S214000D60616BD2580B001340114212D02000FFF7DF
S214000D7009FC0723200001AD2B70FFF7D9FB626842
S214000D805368A3B1D26828000392002202929847C3
S214000D900DE022003C321278012AEBD0042A08D15A
S214000DA0226B0123002AE5D02000FFF713FE05B0D2
S214000DB030BD054BDB6A1B07DB0F0233DAE7C046A4
S214000DC0F852002000C07E40FCC07E4000000000BC
S214000DD001B40248844601BC604700BFD58A0100C2
S214000DE001B40248844601BC604700BFA940000029
S214000DF001B40248844601BC604700BF698B01000D
S214000E0001B40248844601BC604700BF798B0100EC
S214000E1001B40248844601BC604700BF158B010040
S214000E20141F00204C200020FF010100382007007E
S214000E303C93030001010081828001848583028740
S214000E408886038A8B890408078D0100010000004C
S214000E50000000000000000000000000000000008D
S214000E60FFFFFFFFFFFFFFFF440003EB0000000053
S214000E70030000004C5300203C0A00200000000045
S214000E804C530020B45300201C54002000000000E7
S214000E90000000000000000000000000000000004D
S214000EA0000000000000000000000000000000003D
S214000EB0000000000000000000000000000000002D
S20C000EC0000000000000000025
S214000EC830B51D00836949005B690400C95A2220B1
S214000ED831B1E0680B18095A002004332960136002
S214000EE830BD030070B5002504000833DB6F0560CD
S214000EF89A6818685269904728006560A56070BDB2
S214000F080A2370B58360036C010001330364030091
S214000F180833DC6FC268A36820685D684031082320
S214000F28A84770BD41B1436813B14368022B03D18B
S214000F3804234360033B836070470000F0B585B028
S214000F48019300238377030008330400D86F83686F
S214000F580068DD6802AB0733A8470500E0B906005D
S214000F68A37F104F33B901210136080017F058FD4A
S214000F78BE42F5D1230058331A7801990A70BE424A
S214000F880DD01A78022A07D01A78032A04D040F21D
S214000F98F4151B7859342370280005B0F0BD1425C5
S214000FA8FAE7C04640420F000223F0B5060085B0B7
S214000FB802AAD371C268040015004BF6AD678836DE
S214000FC8336801919B180835436163699D421BD2BB
S214000FD8019BB3B102AB0422290020000733FFF7B8
S214000FE8ADFFA0B902ABDB79022B0DD0A16933683F
S214000FF8CA6828880A3252009B1A834209D22120DE
S21400100803E0A36E9D42F1D10020A566256105B0D8
S214001018F0BD0322EB1D1B1893435A88BA42EED143
S2140010281A884869E1685200691A11521A881D1D03
S214001038E265CAE710B50400436E0021C360836901
S2140010481A6958690132520018F088FD00212000FC
S214001058FFF7AAFF10BDF8B5040003258369490009
S2140010685869626E435A26699B18E3671B88221DD7
S2140010780B33AB43D367E2689B19B71A4752210074
S2140010888831096800205218934205D92000FFF7D6
S214001098D1FF01236560A360F8BD0000030070B5AA
S2140010A80026083386770400D86F836800689B6834
S2140010B89847050048B1280070BD0121080017F0C0
S2140010C8AFFC0A4B01369E420DD0A37F002BF4D00E
S2140010D8230058331A78002AEDD01B78593440F28A
S2140010E8F4152370E7E71425E5E7C04640420F00ED
S2140010F8F8B5436804000020032B22D0261DF56FA0
S214001108202D00D9202527001F372A003800E16F38
S21400111818F08DFD0623A36023000833D86F390026
S214001128836822695B6800689C462B006746B84758
S21400113823695B192361E36F5B19E367F36F5B1B36
S214001148F367F8BD10B504008369616F1A69013149
S214001158914200D9002161675A694800825A002ADC
S214001168F3D0236F8B4207D02000FFF774FF10B927
S2140011782000FFF7BDFF10BD23692000A367FFF717
S214001188BFFEF8E7F7B50400019308000223A56937
S21400119811002E6963602066984207D000216B69AB
S2140011A84A009A5A12B901318E42F9D2230088337E
S2140011B8E7681A68BB189C462B68AD685D196545D4
S2140011C800D06346D2186766E36062618E4215D324
S2140011D8083323618BB223676367022805D1200092
S2140011E8089B019A00F00EF8FEBD2000FFF733FFBB
S2140011F80028F9D12000FFF77BFFF5E72000FFF76E
S2140012087FFEF1E773B51C000326150002690B3450
S214001218A418B4434669B44214D804005034218054
S2140012280100060048310B80C3684A36D31A33805B
S2140012380223C5648360606B836800685C68042367
S214001248A04776BD0A00009302212B00FFF79AFFFD
S214001258F7E770B50500FFF7D5FF04000100280082
S214001268FFF760FE200070BD8369F0B51A690500B7
S214001278013258695200002185B018F06FFC00232F
S2140012884FF6FF72AB77EA65EB600193AB6901999D
S2140012985A68914201D300243BE02F008837019A10
S2140012A83E681B685643F61802AB08223100280031
S2140012B80733FFF743FE040058BB02ABDB79022B6B
S2140012C814D102AB310028003A680733FFF736FE20
S2140012D80400F0B902ABDB79032B43D13A68920AD3
S2140012E831002800FFF7DAFE040011E04BF6AD6285
S2140012F8F3889342F2D1E96899B33A6830680B6884
S214001308920A9842ECD92800FFF7C8FE0400EE605F
S21400131844B3EB684BBBAB6929001A689B688831F5
S214001328D2182B0009680833521AEA609CBB224977
S2140013382C64D9872900D86FAC77836840315C68FD
S21400134800680823A047040028BBAB7F33BB0121F5
S214001358080017F065FB194B01349C42F5D114249C
S21400136826E0EE60019B01338FE7212C0ED1012683
S214001378002301212800AB83FFF716FE040021286E
S21400138816D0A8B92EB90123AB6011E084B900269F
S214001398EEE721240CE0212C0AD1E8E72B0058338D
S2140013A81A78012AF3D040F2F4141B7859352B70BA
S2140013B8200005B0F0BDC046ADBEFFFF40420F009E
S2140013C8002370B58360836905009A681968920AD5
S2140013D8FFF764FE040018B92800FFF745FF04006D
S2140013E828002100FFF79EFD200070BDF7B54D6868
S2140013F88A680700B2FBF5F204000B6A81611B6875
S21400140888300837FB6702602548002260646065FC
S2140014182000244D903025658D69C9692264A26430
S214001428E26481602100943105600A609A6803CB03
S21400143812689047060008BBA0602000FFF714FF5C
S214001448050021281CD13300320031002000009608
S214001458FFF798FE050058B9A368012B1AD001219A
S214001468080017F0DDFA104B01359D42F4D114251B
S214001478FB6F2E009A681868526990473000FEBDC8
S2140014880028F5D1E3681B68236400236360074BD4
S2140014982360F3E76368042BF4D140F2F415E7E71A
S2140014A80000ADBEFFFFADBE404B4C004545565252
S2140014B8F0B584680023250087B000930378583574
S2140014C82B70A3681BB90133A37707B0F0BD2B7840
S2140014D8012B00D0DCE0A0680238082800D9B3E069
S2140014E817F0E2FB058B359FB8B2B2B2C00023698D
S2140014F80325043301932361230048331B88E76CD4
S2140015081A002A40A56002922B420AD1A560220042
S21400151839000832D06F82685568019A0068A84773
S21400152839E0032B0FD826008C3604220021300021
S21400153818F014FB39003000029A18F078FB3700D0
S2140015480423A560E3E70422AB43A260DFE7230099
S21400155848331E882500032733008C35BB430422F6
S21400156800212800A760019318F0F8FA3200019BC2
S214001578E16C3A40C918280018F059FB2269019B0B
S21400158829009A1823000833D86F226183680068F8
S2140015985E680423B04701002000FFF7C3FCA36879
S2140015A8012B00D091E7230090331A68002A00D157
S2140015B88BE76368002B00D084E0A368013B591EC4
S2140015C88B41DBB204A90B702300943498331B6854
S2140015D820684B60002877D003780093436803930D
S2140015E8030060C960C390472368002B00D16CE7EE
S2140015F8009A1A70039A5A6067E7230048331B88D4
S21400160821695A189B0700D00A1D0523A3602300EA
S21400161821000833D86F2261836850315D6804233F
S2140016287CE72300210050331A882369E2650433D7
S21400163823614A310888A169520049695052626894
S21400164822B90132A260A3660020A4E72000FFF7B3
S21400165879FDA0E7231DDB6F2000002BF7D0FFF7EE
S21400166847FD98E7230088331A68E368616E9B187D
S214001678636100232377A36F920A23610B23A36079
S21400168823000833D86F836800689B68984782E70A
S2140016982B7823B9009B63600123A360D4E76368B3
S2140016A80098022B05D1A3680B2B02D02000FFF769
S2140016B8C1FC23002A7859331A7004236360033B5D
S2140016C8A36068E763687CE708008CE710B516F047
S2140016D8EBFA10BD70B5040048B1002039B11025EA
S2140016E820002A0018F0A3FA0120B034256070BD47
S2140016F8F0B58FB007000C0016000021102202A8D3
S21400170818F02CFA1022002106A818F027FA102242
S21400171800210AA818F022FA002016F0D5FA0023AD
S21400172800900193A30705D02100102206A818F000
S2140017387EFA06AC3D00BB0700D002AD3300B033DE
S2140017481B68182B1AD1310068460AAA16F0BEFA8A
S21400175820B904222900200016F0BAFA16F0B9FAC1
S2140017680300002043B902AB9D4204D11022290091
S214001778380018F05CFA01200FB0F0BD202B0ED10F
S214001788320069460AAB01A816F012FB20B90422FB
S2140017982900200016F02AFB16F064FBE0E732006A
S2140017A869460AAB01A816F097FA20B90422290060
S2140017B8200016F0AFFA16F0E9FAD1E784460800DA
S2140017C86146FFE71FB517F025FD002801D4002164
S2140017D8C8421FBD10B517F0B3FC4042013010BD1B
S2140017E810B517F017FD002801DB002010BD0120FA
S2140017F810BDC04610B517F00DFD002801DD00200D
S21400180810BD012010BDC04610B517F0C1FC002859
S21400181801DC002010BD012010BDC04610B517F031
S214001828B7FC002801DA002010BD012010BDC04614
S214001838094B10B50400186818B1036A0BB918F0FC
S21400184845F80020132C06D8044BE400E35801336F
S21400185801D0024BE01810BD380A0020985400202A
S214001868F8B5040018F0DAF9132605000027301C2E
S214001878391CABBE061C2E602000F8BD10B5431CF4
S21400188801D1FFF7EDFF10BDF7B50C001600FFF706
S214001898CFFF050038B918F0C1F909230360012401
S2140018A864422000FEBD022E03D918F0B7F91623AD
S2140018B8F4E7012E12D14368E418F6D46F462B6875
S2140018C80A2600937C60301C391CABBE061C300010
S2140018D8FFF7D4FF0028E2DB6C60E2E70368022E1D
S2140018E8ECD16F4600930A36301C391CABBE061C7A
S2140018F83000FFF7C3FF24180130DFD1CFE710B55B
S214001908FFF7C2FF10BD37B50224019001AD201CB9
S214001918291CABBE041C2000FFF7B0FF3EBD00002C
S21400192870B50500FFF784FF040030B918F076F9A3
S214001938092303600120404270BD013D012D09D8EE
S214001948094B9A681B699A4204D101235B420360DB
S2140019580020F1E72068FFF7D6FF0028ECD1012326
S2140019685B422360E8E7C0469854002070B50C0038
S214001978FFF75EFF050030B918F050F90923036039
S2140019880120404270BD42F2000362680C261343F1
S214001998636040F20043A364301C291CABBE051CE0
S2140019A82800FFF76BFF431CEAD020610020E9E718
S2140019B870B50C00050058220021200018F0CEF85B
S2140019C828002100FFF7D2FF70BD70B5FFF730FF83
S2140019D80924050020B918F021F90460002070BD1C
S2140019E8201C291CABBE041C2000012CF7D018F0C4
S2140019F815F9132504000026281C311CABBE051C4F
S214001A082560EBE700000000000000000000000072
S214001A1800000000000000000000000000000000B9
S214001A2800000000000000000000000000000000A9
S214001A380000000000000000000000000000000099
S214001A480000000000000000000000000000000089
S214003FF8000000000000000040F2084040F20843BD
S214004008C0F20000C0F2000310B5834205D040F2AB
S2140040180003C0F2000303B1984710BD40F2084001
S21400402840F20843C0F20000C0F200031B1A9A10C0
S214004038D90F8918491010B529B140F20003C0F20B
S214004048000303B1984710BD10B541F2A064C2F250
S2140040580004237873B9FFF7CFFF40F20003C0F2DD
S21400406800032BB140F20840C0F2000000E000BF99
S2140040780123237010BDC04640F20003C0F20003BF
S21400408810B54BB141F2A46140F20840C2F20001FB
S214004098C0F2000000E000BFFFF7C0FF10BDC0463A
S2140040A810B5054C23782BB90449054816F0E4F8F2
S2140040B80123237010BDC046BC16002028BB010093
S2140040C88051002037B56B46C40AE402DD1D2B007C
S2140040D840F600022100064816F0DEF830B92A78C5
S2140040E8012A03D12100024816F0DEF83EBDC0467C
S2140040F880510020F8B5032540F60007FFF7D0FFEB
S21400410872B6BFF34F8FBFF36F8F104E3068FFF74E
S214004118D9FF040030B940F600030D4932680D484F
S21400412816F0B2F862B6BFF34F8FBFF36F8F2CB995
S2140041383A000748316815F003FD28B1013DEDB295
S214004148002DDBD1FF20F8BD2000FCE7C0160020BC
S214004158C4160020805100200122064B524210B59A
S21400416800211A600448413215F0F8FC0022034B7F
S2140041781A7010BDC0160020C81E0020C41E0020DD
S21400418830B5084D04002B78FF20072B09D88C4241
S21400419807D20548DA00145012180020013351607F
S2140041A82B7030BDC41E0020C81E00200139091817
S2140041B830B50400FF208C4206D80A4B0A4A187805
S2140041C80023984201D1002030BD15688D4202D8E0
S2140041D85568A54203D20133DBB20832F1E7FF2067
S2140041E8F2E7C046C41E0020C81E0020F0B585B001
S2140041F80F00FF24009002920393CAB1C1B1FFF7E3
S214004208D5FFA8B9009B2C4EDD0A3368ED025A1C70
S21400421819D0AB420FD1002400254CB9DFB93DB107
S214004228039B2BB9FFF766FF012304005B4233604C
S214004238200005B0F0BDFFF75DFF01235B420400D8
S21400424833600028E8D140F6000229001B4815F024
S214004258EEFC3560DFE740F60001009B164A5B057A
S2140042685B0D181D8018FA183D008A4200D9CD1A31
S2140042782A00029915F0DBFC009B7F1B5B19009354
S214004288029B5B190293009BDB0ADB020193019AEF
S21400429833689342C2D0FFF72DFF040047B140F6BB
S2140042A800020648019915F0C2FC019B3360B3E78B
S2140042B801235B420193F8E7C0160020C4160020CD
S2140042C8F7B505000E000E480E490192FDF78EF868
S2140042D8040060B90C4F320038702900019B08486A
S2140042E8FCF7B7FF040010B93B78002BFCD0044855
S2140042F8FCF7F7FD044363425C41E0B2FEBDC046EE
S214004308A44F002098BA0100091F0020F7B507003F
S2140043180E00104810491500FDF768F8040078B933
S2140043286B4639000B4801AAFCF7CAFD040038B9E9
S214004338009BAB420CD32A003000019915F077FC9D
S2140043480448FCF7CEFD044363425C41E0B2FEBD80
S2140043580324F5E7A44F002098BA010010B50949D0
S2140043680948FDF743F8040020B901000648FDF7A0
S21400437827F804000448FCF7B4FD2043434258419C
S214004388C0B210BD98BA0100A44F00200122014B0C
S2140043981A707047091F0020F7B505000E000E4872
S2140043A80E490192FDF722F8040060B90C4F32005E
S2140043B838702900019B0848FCF74BFF040010B929
S2140043C83B78002BFCD00448FCF78BFD0443634283
S2140043D85C41E0B2FEBDC046A4500020E0BA010031
S2140043E8081F0020F7B507000E00104810491500F2
S2140043F8FCF7FCFF040078B96B4639000B4801AAA5
S214004408FCF75EFD040038B9009BAB420CD32A00CB
S2140044183000019915F00BFC0448FCF762FD0443D4
S21400442863425C41E0B2FEBD0324F5E7A4500020D9
S214004438E0BA010010B50A490A48FCF7D7FF04009D
S21400444808B10E2804D100210648FCF7B9FF04007D
S2140044580448FCF746FD204343425841C0B210BD0D
S214004468E0BA0100A45000200122014B1A707047E0
S214004478081F00200022034B9A560AB901321A7008
S2140044887047C046101F0020034B00201A780AB158
S214004498187001307047C046441F0020024B187839
S2140044A8431E9841C0B27047441F002010B5034B06
S2140044B81B689B780BB115F03BFA10BDE00900208D
S2140044C870B52C4B04001B785BB283B12A4800F009
S2140044D8C3FA60B9284800F01BFB050040B1082C59
S2140044E805D1254800F0DFFA2000FFF7DFFF70BD92
S2140044F82300613B192B06D8203CE4B221001E4855
S21400450800F017FB30E00A2C06D00D2C1AD0082C29
S21400451823D0202CEBD0F1E72100174800F009FB48
S2140045282000164CFFF7C2FF2378002BDFD0124876
S21400453800F0B9FA104800F0B6FA0122104B2570C0
S2140045481A70D4E721000C4800F0F3FA2000FFF7B1
S214004558ADFF0122094B1A70C9E7074800F0CFFAE9
S21400456828B9054800F09FFA2000FFF79FFF0022B1
S214004578024BF0E7101F0020381F00200A1F0020FB
S214004588441F00200320024B1B6818567047C0467D
S214004598E009002010B50A4C2368DB7813B10948F7
S2140045A80DF08BFE142223689988074B4A431B6834
S2140045B89B1818690DF081FE04480DF07EFE10BDAC
S2140045C8E0090020C0A201000C1F002044A301003F
S2140045D810B50E4B1B685C78082C16D0DB7813B128
S2140045E80B480DF06AFE230034B10123042C03D0D7
S2140045F80333072C00D1023B064ADB009B18586899
S2140046080DF05BFE02480DF058FE10BDE0090020D4
S214004618C0A2010074AA010010B502480DF04DFEB4
S21400462810BDC046C0A2010010B51C00094B1A6098
S21400463870B100290CDD0A000100074800F001FAF5
S214004648064A074BD4801A600023136000F0A6F8C9
S21400465810BDC0460C1F0020381F0020141F002065
S214004668E00900200022024B1B681A807047C046EB
S214004678E009002083B270B50400064D012B04D86B
S214004688FFF7F0FF2B68DC7070BD40F200422B6825
S2140046981A80F9E7E009002040F20142014B1B6846
S2140046A81A807047E009002070B5284800F0D4F951
S2140046B820B10220264B1B68187070BD234800F0F6
S2140046C816FAFFF7E9FF214800F019FA040058B96E
S2140046D81E4800F0CBF91F4BE3181B785BB28342E9
S2140046E80FD10134042CF3D1FFF772FF174800F0FE
S2140046F802FA164800F0ACF90020154B1B6818564D
S214004708DBE7E4B2124B022C04D0032C19D1FFF7D6
S214004718A9FFE9E72B2807D00C4800F0E2F90100CA
S2140047280D4800F07CF9DFE71B680848DD880B4B6E
S2140047381C6800F0D6F929000200200000F0C0F836
S214004748D2E700221B681A70CEE7C046381F002042
S214004758E0090020A4AA010094AA01000C1F00206A
S214004768014B1B6818707047E0090020014B1B6856
S21400477818787047E0090020014B1B68587070478E
S214004788E0090020014B1B6898807047E00900206C
S214004798014B1B6898887047E009002010B5054B48
S2140047A8186800F0DEF914220349044800F052FAAB
S2140047B810BDC046E4090020451F00205C1F0020ED
S2140047C810B5024B186800F0FEF910BDE409002089
S2140047D8002370B50360013B0B80074B0500186883
S2140047E80C0000F0C9F930B143682B600822835EDC
S2140047F8238000F017FA70BDE409002010B5044BBA
S214004808186800F0B9F900B910BD00F00BFAF6E721
S214004818E4090020C0B20300303BDBB2092B01D804
S21400482858B270470300413B052B02D8373840B2D0
S214004838F7E701204042F4E7002310B5C2560AB94C
S21400484818B210BD5C1C8A42FAD02300F6E70000B6
S214004858F7B50022040003000191009200269E5737
S2140048688EB9009B9E420CDA20000199FFF7E4FF00
S214004878124F051E13DC386800F0A5F908B1FFF7DB
S214004888BDFF0020FEBD019A964202D001229A562C
S2140048981AB9009A013252B200920133DEE70023B9
S2140048A8235400F099F9013605814460010001356A
S2140048B8386800F079F9641976B2D2E7E40900207E
S2140048C8F0B5050085B0012016000391FFF748FFF4
S2140048D80420FFF751FF00230193019B039A93429C
S2140048E801DB05B0F0BDAC89002C3DD022003100BC
S2140048F8286915F03BF9029038BB6B460027988864
S2140049083419FFF73FFFE7573D2F07D03F2F31D029
S214004918002F43D00220FFF723FF16E00123E356BB
S2140049289BB12C21601CFFF793FF0520FFF718FFAB
S2140049382B6843B13000984704000298FFF710FF31
S2140049482000FFF719FFFFF759FFFFF70FFF0028B2
S214004958C7D0FFF70BFF0528C3D0FFF707FF0228CD
S21400496802D10138FFF7FCFE019B143501331BB258
S2140049780193B2E7647864B2002CE6D10520FFF70D
S214004988EFFE6B68002BE0D0300098470700200049
S214004998FFF7E6FE3800FFF7EFFED6E70520FFF73D
S2140049A8DFFEAB68002BD0D03000984704003800F4
S2140049B8FFF7D6FE2000EEE7C3B21A00303A012011
S2140049C8092A06D900200522413BDBB29A4240411B
S2140049D8C0B2704770B505000E0000242B5720B2F1
S2140049E803B970BDB342FCD01800FFF7E5FF0134E9
S2140049F80028F3D109204042F3E710B50400FFF77A
S214004A08E9FF012804D100202056FFF703FF10BD58
S214004A18431C01DA40B2FAE701204042F7E710B536
S214004A2804000023E3564BB100228A569A4206D168
S214004A38481C0021FFF7E1FF6368984710BD08345B
S214004A48EFE720B1002382800360C380816070474F
S214004A5808B1002303607047030000202BB106202E
S214004A681856013843425841C0B2704770B5050021
S214004A78C0B10023C45E0222835E0020A34211D088
S214004A882800FFF7E9FF04216B5E013494FBF3F17D
S214004A9802004B43A968E31AC85CCC181BB202B9DB
S214004AA822702B8070BD70B50400C8B10223C55EA5
S214004AB80022835E0020AB4212D02000FFF7CCFF16
S214004AC80300002063B9A268505D53550222A35E16
S214004AD80421625E013B93FBF2F14A439B1A638012
S214004AE870BD18B10022835E8068C018704708B190
S214004AF801238371704708B1002383717047002231
S214004B08835E0222805E181A43425841C0B270473C
S214004B180222835E0421425E013393FBF2F14A438C
S214004B289B1A0022805E1BB2C01A43425841C0B28C
S214004B38704770B504000D0090B1FFF7E9FF78B92B
S214004B482000FFF789FF58B90222A35E0421625E9F
S214004B58013393FBF2F14A439B1AA2686380D5544B
S214004B6870BD002303607047006820B1030000682A
S214004B780028FBD1180070470300006808B10268D7
S214004B881A60704703682BB18B4204D10B68036028
S214004B9800230B6070471A001B68002BFAD0994256
S214004BA8F9D10B681360F3E770B505000C00FFF742
S214004BB8E9FF002328002360FFF7D6FF08B92C601A
S214004BC870BD0460FCE70368002003B97047013035
S214004BD81B6800B2F9E70000F0B5104B1B785BB213
S214004BE81800B3B100200E4A0823D15E814210DDBA
S214004BF855680A23D65E2B0010685C1B24B2A642B2
S214004C0807DD0027DF575C1C27B90139118101220F
S214004C181A70F0BD23000C30EFE7C0465C20002079
S214004C285020002010B570B1094A0A23D45E00232C
S214004C3811689C4207DD814206D111890131118134
S214004C4800215268D15410BD01331BB20C31F0E775
S214004C5850200020002310B5074CE35653B9002A0D
S214004C6808DD38B131B1054B186059601A815A8190
S214004C780123237010BDC0465C2000205020002071
S214004C8810B50CF0D9FC10BD37B506AC2478079DD6
S214004C98009401950CF0D6FC37BD10B50CF0DAFC84
S214004CA810BD10B50CF0ECFC10BD000082B013B5BA
S214004CB8C918059305AB9C88A21840F2E73493B24E
S214004CC812B2A24203DD054A01319B181AB20160EE
S214004CD8828016BC08BC02B01847C04618FCFFFF06
S214004CE882B013B5C91A059305AB9B88D21A93B23E
S214004CF814B2120404D540F2E8329B1801391CB2EB
S214004D080160848016BC08BC02B018471FB5002393
S214004D18009002AC03A801910293A3800DF006FA56
S214004D28009BA288181A6B469B889B1A9AB219B2DF
S214004D381B0404D540F2E833D218013811B2024BEE
S214004D48186099801FBDC0466020002013B5002358
S214004D586A46040001A8938000930DF0E7F90A4B11
S214004D6840F2E7311A689B8880186A4692889B1832
S214004D789AB21BB28B4203DD044B0130D3181BB228
S214004D882060A380200016BD6020002018FCFFFFCE
S214004D9837B500236D46040001A80093AB800DF0DC
S214004DA8C5F92300009006CD06C320003EBD0000CE
S214004DB80C4B13B51A689B88801AC91A8BB20CB2AA
S214004DC8090404D540F2E8329B1801381CB240F2B8
S214004DD8E8320023002113F0A5FF2200E31780180D
S214004DE859411CBD6020002070B51500190040F21E
S214004DF8E83200230400280013F074FF40F2E8317C
S214004E080A4A4143136892881B1840F2E730521941
S214004E18521A91B212B2824203DD054A01338A1849
S214004E2812B220002360A28070BDC0466020002019
S214004E3818FCFFFF020010B5014B12CB12C210BDC2
S214004E48602000200022054B10B5040000681A7088
S214004E580DF06BF920600DF015F910BD6C200020E0
S214004E680023036043600372C1600361704700005B
S214004E7870B5124C236843B1002201251A601A72D5
S214004E880023206858B903B1206070BDC1682B00A4
S214004E98026911B122608847F2E71000F2E702685B
S214004EA8002AF3D03BB9037A002BEED10123037214
S214004EB8FFF7C8FFE9E72060F5E7C046682000204E
S214004EC8F7B52F4D040001A80CF04EFA2A78531CAB
S214004ED8DBB22B700AB90CF06BFA2A4E01A80CF05C
S214004EE848FA336803B16CB901A80CF03DFA2B7880
S214004EF8013BDBB22B700BB90CF06EFA01A80CF074
S214004F0838FAF7BDA3422ED1237A13B30DF0DCF896
S214004F182768002433688C4619691C72A9B13A00C0
S214004F28316023003E002700644502D1824200D942
S214004F380600921BBB4116000B6808009B190B6005
S214004F4801230B72FFF77EFFCEE731600CF0D4FE2C
S214004F58CAE723692BB1216833601A6852181A60A9
S214004F68C2E73360C0E71A001B69002BBCD09C421E
S214004F78F9D1236921681361002BEED1B4E7C04646
S214004F887834002068200020054B1B680BB91800F1
S214004F987047834201D01B69F8E70120F8E7C0464E
S214004FA868200020F0B587B0040005A80CF0DCF9EE
S214004FB840490A78531CDBB20B700AB90CF0F8F9B2
S214004FC805A80CF0D6F924B12000FFF7DDFF009005
S214004FD878B105A80CF0C8F9364A1378013BDBB25D
S214004FE813700BB90CF0F8F905A80CF0C2F907B065
S214004FF8F0BD6368304D23602968009B237239B979
S21400500821610123200023722C60FFF71BFFE0E7D5
S214005018087AF0B10DF058F82B68009F1E683B0020
S2140050283200B94202D1864200D90200B61A9F4120
S21400503800960197019B26682F6813B9009BB34218
S2140050480BD927B1009B9E1B00233E603B7227614D
S214005058D7E70B6801900093ECE73D692DB9009BF4
S214005068F61A26603C612561B3E728680199009A1C
S214005078019B8018594109B9864208D2009B009ABC
S214005088F31A23602B689B189B1B2B60EAE72B6997
S21400509823B9361A26602C6123619AE71A682F000E
S2140050A80292002203921D00029A039B009001912F
S2140050B8DFE7C046783400206820002070B50D0071
S2140050C80400FFF7FDFE2560656070BD10B50CF0A6
S2140050D8FBFE10BD10B50DF013F810BD70470000AC
S2140050E8F7B50D0000240190CAB10F4F260097FBB4
S2140050F8F2F78C4215D801D1874212D83A0033000D
S2140051082900019813F0EEFD04003A003300290048
S214005118019813F0E7FD1A43531E9A41A41820007D
S214005128FEBD0024F1E7C04640420F0010B54478A3
S2140051381CB9013444700DF039F810BD10B50DF0E7
S2140051483FF810BD10B50DF059F810BD154B00B559
S214005158185C0A2823D813F0A7FD1E161612060D8B
S21400516822221A161200002001230B398B424041D6
S214005178C0B203E00C394B425941C8B200BD00200A
S21400518802230A39F2E7002003230939EEE7002054
S21400519804230839EAE7002005230739E6E7002054
S2140051A8ECE7C04664AB0100014B18887047C04660
S2140051B89A210020002010B501F090FC034B1B68D4
S2140051C813B15B6803B1984710BDC0469421002010
S2140051D8002010B501F082FC034B1B6813B1DB6896
S2140051E803B1984710BDC0469421002010B501F0C1
S2140051F811F903000020082B01D8014AD05C10BD25
S214005208B3AA010010B5054B04005B7B0BB102F096
S21400521811F8200001F048FA10BDC0469C21002075
S21400522810B50CF059FC10BD10B50CF0F9FB10BD0C
S21400523810B5044B5A7B012312B101F089FF030015
S214005248180010BD9C21002010B5042001F092FC27
S2140052580220FFF715FD0BF055FD10BD10B5034BEA
S214005268987A01F03BFC0BF07DFD10BD9C210020D8
S21400527810B501F065FD10BD012310B511B10CF095
S214005288D9FB0023180010BD012310B511B10CF08E
S21400529879FB0023180010BD40F28010002310B5DB
S2140052A81A00010001F0CDF901F064FD10BD000000
S2140052B870B540F2E8360E4B05005B7B0C00564393
S2140052C883B9280001F0F0F920000CF0A5FC01F0E5
S2140052D85FFD31000748FFF7F1FE0648FFF762FE5C
S2140052E8002070BDC0B202F011FA0028E9D0F8E735
S2140052F89C2100208420002010B501F00FFB10BD73
S21400530810B50CF095FC0D23012800D00A3B1800B8
S21400531810BD000010B572B6BFF34F8FBFF36F8F86
S2140053280CF034F90122044B1A7062B6BFF34F8FA3
S214005338BFF36F8F10BDC046AC210020F0B585B016
S21400534872B6BFF34F8FBFF36F8F0022654E337868
S2140053583270DBB262B6BFF34F8FBFF36F8F002B8E
S21400536800D19FE001F07DF904004FF6FF7001F0D0
S214005378ACFB72B6BFF34F8FBFF36F8F0CF0A6FC73
S2140053880500012802D10CF001F9357062B6BFF3AA
S2140053984F8FBFF36F8F4023012523400193019A57
S2140053A8514B1A802C420BD05048FFF789FD280035
S2140053B801F036F84E4B1B6813B11B6803B19847CB
S2140053C802252C4244D04B4B1F78A7B94A48FFF712
S2140053D877FD012001F024F8390040F602100CF0A1
S2140053E81FFB40F644100CF077FB0543E9B240F685
S2140053F844100CF015FB02ABDF1DFF2239003F48B6
S21400540801F0C2FA3E4801F0D3FA019B13B13D4BB6
S2140054181B7A7BB1364B1B6863B19D6855B1384A19
S21400542839781378002B41D10823D3560620125E0C
S2140054383248A8472F4B1B7853B100F0EBFF0528DE
S21400544806D1304B587A002835D0002001F05AFC97
S214005458019B2BB1264B1B6813B11B6903B19847F8
S21400546823060AD5012000F0DBFF214B1B6823B179
S2140054789B6913B1E005C00F9847A4050FD500F047
S214005488C9FF04281AD11948FFF71AFD012000F0B1
S214005498C7FF174B1B6813B15B6803B19847002317
S2140054A8114A13803078C0B205B0F0BD1223D35627
S2140054B81020125EBCE701F0D3FBC9E700F0AAFF94
S2140054C80528ECD10B4B1B782BB90B48FFF7F8FCDB
S2140054D8012000F0A5FF064B1B68002BDFD0DB6819
S2140054E8DBE7C046AC2100209A210020842000205B
S2140054F894210020C822002070200020AD21002022
S214005508AC2200209C21002010B5002001F032FBC0
S2140055180220FFF7B5FB0BF00DFC10BD70B50F4B66
S21400552806005B7B0C00150093B9300001F0BCF850
S21400553820000CF071FB01F039FC40F2E831084815
S2140055486943FFF7BBFD0648FFF72CFD002070BD3A
S214005558C0B202F0D9F80028E7D0F8E79C2100206E
S2140055688420002010B500F055FF0400082809D153
S2140055780022074B5A701A7001F026FC20000BF028
S21400558809FC10BD0028F9D101F0A8FAF6E7C046D4
S2140055989821002010B501F00BF810BD02001F205E
S2140055A85AB1012308490868824207D988688242A6
S2140055B804D8054ADB009B18187970470133083170
S2140055C8172BF0D11F20F8E770AB010010B50A4B77
S2140055D8012807D1094AC73311700948197001F024
S2140055E831F910BD1A00BF321278002AF9D1034AE1
S2140055F8C0331170F1E7C04698200020E809002063
S2140056085021002070B51C4B05005B7B0C00012068
S2140056181BB1280001F0BAFF50BB4DB3002340F27F
S21400562801211A00080001F00CF801F071F8134B7C
S21400563801281ED1C7331C70114801F003F9002257
S2140056482100280001F004FB0E4B0F481968FFF7ED
S21400565835FD0D48FFF7A6FC01F05AF8060001F0E4
S214005668C3FB230001002A0030000BF09FFA00203D
S21400567870BDC033DFE7C0469C210020982000207C
S21400568850210020D022002084200020002340F251
S214005698422110B504001A00080000F0D2FF34B109
S2140056A80A482100FFF70AFD0848FFF77BFC084B6D
S2140056B81B7833B1402000F0BBFF002001F022FB2E
S2140056C810BD044B18688001F8E7C046702000201B
S2140056D8C8220020CC22002070B51B4D04006B7B2E
S2140056E833B96A7A4AB12000FFF7D0FF002003E0FA
S2140056F801F0FCFF0028F4D070BD40F242211300F0
S214005708080000F09EFF34B110482100FFF7D6FCD1
S2140057180E48FFF747FC0E4E33788BB1402000F05A
S21400572887FF002001F09CFA00F0F2FF050001F068
S2140057385BFB22000100337828000BF08FFAD5E7D0
S214005748044B18688001EDE79C210020702000209B
S214005758C8220020CC220020F7B507000C00002540
S214005768C9B3364E01A80BF0FFFD3278531CDBB2E6
S21400577833700AB90BF01CFE01A80BF0FAFD092FCE
S21400578836D8380013F090FA050A292D31393F43E8
S214005798475322782A4B1A7001250FE01625042253
S2140057A8210001A814F043FA019A264B1968914281
S2140057B841D0013DADB20833002DF7D101A80BF05A
S2140057C8D3FD3378013BDBB233700BB90BF004FE24
S2140057D801A80BF0CEFD2800FEBD2278184B1A72E1
S2140057E8DAE72278164B5A72D6E723782F2B01D998
S2140057F80025E3E7124AD372CEE723782F2BF7D893
S2140058080F4A1373C8E722780D4B5A73C4E72278F9
S2140058180B4B9A72C0E70A4D23784FF6FF70AF7BA2
S214005828AB7301F0FBFA0028B6D1AF73E0E7227835
S214005838034BDA73B0E7024B5A60ADE778340020C2
S2140058489C21002070AB0100F7B507000C0000266D
S21400585879B3254D01A80BF087FD2A78531CDBB2D7
S2140058682B700AB90BF0A4FD01A80BF082FD0026E8
S214005878092F11D8380013F017FA05091E21242716
S2140058882A2D3033194B1B78237004E0042220009D
S214005898174914F0CCF9012601A80BF065FD2B7802
S2140058A8013BDBB22B700BB90BF096FD01A80BF091
S2140058B860FD3000FEBD0D4B1B7AE5E70B4B5B7AAF
S2140058C8E2E70A4BDB7ADFE7084B1B7BDCE7074B94
S2140058D85B7BD9E7054B9B7AD6E7044B9B7BD3E7E4
S2140058E8024BDB7BD0E7C046783400209C210020A2
S2140058F8A021002010B504000B4B1870587000F05B
S21400590815F854B1342140F240700CF089F844215F
S21400591840F241700CF084F810BD142140F240703B
S2140059280CF07EF82421F3E798210020012010B51A
S21400593800F0E0FE044B18785A78824202D058707D
S214005948FFF7D8FF10BDC0469821002010B50128E3
S21400595806D0002000F0CEFE0022034B5A7010BD81
S214005968FFF7E4FFFBE7C04698210020F0B59BB0A0
S214005978119320AB0B9204CB0D911B8814920C93B9
S21400598822AB1F8823AB1B780EAA0E9324AB1B787A
S2140059980500129325AB1B780F9326AB1B7815933F
S2140059A827AB1B78169349239B18DB7F13934D234D
S2140059B89B18DB7F10938B4B5B7BBBB1109B0B9AC2
S2140059C80993139B00B20893169B02970793159B9F
S2140059D806930F9B0593129B04930E9B03930C9BB5
S2140059E80193149B0093119B01F02CFC109A7E4B9C
S2140059F81A70534253410E9A5B421F40FF2302B16E
S214005A08129B7A4A1370F5B1012D00D179E0109BEC
S214005A1828000993139B0B9A0893169B0D990793D6
S214005A28159B029706930F9B0593129B04930E9B58
S214005A3803930C9B0193149B0093119B0BF098F80F
S214005A4800201BB0F0BD6A4C280000F04FFD230074
S214005A58E8331D7023000B9AEC331A6023000B22E0
S214005A68F4330D981A70FFF799FD2300F533187074
S214005A7823002200B8331D700C9BBA32DB0013805B
S214005A88230041F60402BC331A802300BE332200EA
S214005A981D7001230E99BF325940117022005349D8
S214005AA8C032097811700F9A02B1F1332200C13260
S214005AB8137023000122C233E8341A70FFF7CEFBB6
S214005AC82078431E9841C0B2FFF740FF200000F040
S214005AD875FE484800F0B6FE0822474918A814F094
S214005AE8A6F818A800F0BDFC40F2FF1000F0E2FC93
S214005AF841F640737B430B9AB3FBF2F33F4A1360BD
S214005B0885E73B4C002000F0F1FC2300E8331D70CD
S214005B182C226B469B181E782300F8330D9A1E70AD
S214005B28374B10009B5C0B99053E1793FFF70EFB4F
S214005B380C9B012E06D86B460C9A1B8E0C2A00D29C
S214005B480C239BB222001799F93211702200119982
S214005B58FA3211702200FB32107001222549260005
S214005B680A702200C432138023000E9AC6331A70B5
S214005B7823001E4AC7331278C9361A7023000F9AB4
S214005B88C8331A70139BE8343370FFF767FB207826
S214005B98431E9841C0B2FFF7D9FE200000F00EFE63
S214005BA8144800F04FFEF8B200F0A9FC337804243D
S214005BB840F23670012B10D10BF08EFFA043C1B215
S214005BC840F236700BF02CFF7B427B410D4A5B425D
S214005BD813404FF6FF729B1890E70BF07DFF0443C7
S214005BE8E1B2EDE79C210020C8220020E809002049
S214005BF89820002050210020B8AC0100CC220020BC
S214005C0864AB01000100FFFFF0B599B00B931EAB23
S214005C18109204CB0F911B780C92119320AB1F881F
S214005C2821AB1B7805000D9322AB1B780E9323AB94
S214005C381B78139324AB1B78149325AB1B7812930D
S214005C48764B5B7BA3B1269B00920893129B109A17
S214005C580793149B00B20693139B029705930E9B1B
S214005C6804930D9B0393119B01930B9B01F012FB6E
S214005C784DB1012D58D040F689000BF02DFF0421B8
S214005C880143C9B2A6E0664C0C9A2300E8331D709F
S214005C982300EC331A6023000B22F4330B981A7097
S214005CA8FFF77CFC2300F53318702300109AF033B6
S214005CB81A6023002200B8331D70BA32FB00138026
S214005CC8230041F60402BC331A802300BE332200A8
S214005CD81D7001230D99BF32594011700E9A02B1FA
S214005CE8F1332200C132137023000122C233E83494
S214005CF81A70FFF7B3FA2078431E9841C0B2FFF730
S214005D0825FE200000F05AFD464800F09BFD0822BC
S214005D18454916A813F08BFF16A800F0A2FB40F220
S214005D28FF1000F0C7FBA6E73D4C30222300E833FF
S214005D381D706B469B181E782300F8330B9A1E704E
S214005D483A4B10009B5C0C99053E1593FFF7FEF93D
S214005D583B00012E03D80C2F00D20C239BB2260042
S214005D68159AF936327022001199FA32117022000B
S214005D78FB32107001222B490A702200C4321380AD
S214005D8823000D9AC6331A702300294AC73312789F
S214005D981A7023000E9AC8331A702300129AC93351
S214005DA8E8341A70FFF75AFA2078431E9841C0B2B2
S214005DB8FFF7CCFD200000F001FD1A4800F042FD78
S214005DC83378062B00D056E740F689000BF084FEA1
S214005DD8FB21014040F689000BF022FE0F980BF0DD
S214005DE81BFF269A134B28001A60129B08920793EB
S214005DF8149B109A0693139B0F9905930E9B029774
S214005E0804930D9B0393119B01930C9B00930B9B90
S214005E180AF0BCFE002019B0F0BDC0469C21002048
S214005E289820002050210020B8AC010064AB010087
S214005E38E8090020D022002010B5FFF777FD0023E0
S214005E481A001900180000F0FCFB00F027FF10BD30
S214005E58F0B58BB0099106920593322B00D9B2E0C3
S214005E685B4C2600F536337808932300F9331D7803
S214005E7800231A001900180000F0E3FB00F048FCA5
S214005E880790012859D1534B5E683EB933005249F2
S214005E98DA0052181168A9424BD156682700002527
S214005EA8FFF7DCF90020FFF751FDE83730003D70BA
S214005EB8FFF774FB2300F5331870380000F07EFCFB
S214005EC82000B830057000F0BDFC40F2E833059AB3
S214005ED809985A430592FFF795F9404800F0C0FE26
S214005EE80CF02FF9050028000CF02FF90028FAD03E
S214005EF800F014FD069B0500002798422FDA0CF0E8
S214005F0820F9070000F00AFD069B0500984225DAEE
S214005F1838000CF01AF96B469B8A9842F2D300F0C8
S214005F28FDFC069B05000127834200DC0027FFB224
S214005F3815E001330A2BAAD1B0E7FFF78FF9254BF6
S214005F48586848B125000023E8352B70FFF726FB74
S214005F583070280000F032FC0026B6E70027FFF76E
S214005F687DF9079B012B1FD1FFF7E0FC23002000DB
S214005F78089AF5331A70079BE830037000F01EFC89
S214005F882000079BB830037000F05CFC059B3200CD
S214005F980193069B0020009309992B0002970AF0AC
S214005FA8A7FD38000BB0F0BD0A4B5B68002BEDD0A0
S214005FB82300089A2000F5331A700023E83003708F
S214005FC800F0FCFBE2E7002635003700DEE7C046B7
S214005FD8982000209C21002014AB0100FFFFFF0042
S214005FE8F0B5514C87B0260005900391F536337806
S214005FF802932300F9331B780493322900D991E0E1
S21400600800231A001900180000F01BFB00F080FBA4
S214006018464F0190012864D17D6845B92B00444954
S214006028DA00521811680498814256D1556800263D
S214006038FFF714F90020FFF789FC3E4B28001E7076
S214006048FFF7ACFA2300F53318703A4800F0B6FBB1
S2140060582000B830067000F0F5FB0598FFF7D2F878
S2140060687B7A3548002B4CD000F04CFE40F2E836E0
S214006078039B5E430CF065F8050028000CF065F8F5
S2140060880028FAD00CF05DF82C4D039000F046FC82
S2140060982B1C854200DA031C03981DB20CF055F839
S2140060A8B3B29842F2D3FFF7D9F8019B012B2BD154
S2140060B8FFF73CFC23002000029AF5331A70019B78
S2140060C8E830037000F07AFB2000019BB8300370BC
S2140060D800F0B8FB280007B0F0BD01330A2B9ED1AC
S2140060E8A5E7FFF7BBF878680028B6D02500002398
S2140060F8E8352B70FFF752FA3070280000F05EFB88
S214006108ABE700F0ADFDB1E77B68002BE2D02300DB
S214006118029A2000F5331A700023E830037000F066
S2140061284DFBD7E7054DD5E7982000209C21002099
S21400613814AB010080210020FFFFFF000080FFFF56
S214006148F0B585B015000AAA17880BAA0191117830
S2140061580CAA14780DAA127848B1012814D0012583
S214006168002040190138B0FBF5F005B0F0BD01235A
S21400617840F2E8304B40FB185200DB001219183387
S214006188D2009B185843ECE7043302936B1F012B8D
S21400619804D83B1C0C2F00D20C239FB21201E4003B
S2140061A8A4184A4251411423AE0049420B40A41B8E
S2140061B8E418AB1E0393062D07D929000198083466
S2140061C8FEF7C4FF08B1AB1E9E00E343DB171C4076
S2140061D8A419013C94FBF6F6029B7343DA191300E4
S2140061E80E33062D00D9023B084A0199525C0A2A4A
S2140061F80AD803999B0001338B4040F2E830584395
S214006208034B9200D558ACE7FFDEC04664AB0100EE
S214006218BCAA010030B585B00400092240F29F20D0
S21400622801A90BF007FC6B461D79002301A8AB42B9
S21400623814D1032B10D869465A1C0A716A465B00AB
S214006248210A0532D1546A460632D45440F29F20B9
S214006258092201A90BF096FB05B030BD0100427873
S21400626889781202521802309442F5D00133DBB214
S214006278DDE70000030000200A2B01D8014AD05CA5
S2140062887047C046A8AA0100F0B504000E0085B005
S21400629818B30020012C51D1294D2B00F93318785A
S2140062A8FFF7E8FF01002800C83000782B002A0016
S2140062B8471EB841FA33F8321B7812780390280044
S2140062C80296C6300078C435461EB041019028882C
S2140062D800902000FFF734FF30E0194B1A00EC322C
S2140062E815681A00C13212780296013A511E8A4180
S2140062F803921A00BF321278BA3351424A410192C9
S2140063081B882A00DB08009301000300FFF718FF2C
S21400631841F65732012395420FD840F6B732DB18BC
S21400632895420AD840F2CF720133954205D840F21A
S214006338E7320433954200D9023B181805B0F0BD81
S2140063489820002010B5074C10220021200013F0DA
S21400635805FC0BF06DFC10B91323E372237300F0F1
S21400636849FD10BD9C21002010B50024214B186063
S214006378214B22485C701C7000F0D6FB200000F011
S214006388ADFB012000F0E7F82100200000F0ACFA91
S2140063982000042100F0C2F94FF6FF712300220006
S2140063A8080000F04EF940F6AC00FFF733FF40F661
S2140063B88900FFF72FFFFFF7C5FF1148FEF780FD9E
S2140063C81048FEF77DFD10490D48FEF749FD0F49B8
S2140063D80C48FEF745FD0E4B1C7000F043FB80B2E0
S2140063E8033400B904004FF6FF7000F017FD2000D4
S2140063F810BDC04694210020982100201D5300009F
S2140064088420002070200020BD510000D9510000D3
S214006418AC210020014B18787047C046E9090020D7
S214006428014B18707047C046E909002010B5084BA4
S2140064381A78082A08D840F24113D340DB0703D558
S2140064480BF0D4F90BF0FAFB0BF0C6F910BDC046FA
S214006458E909002010B50A00010000200BF046FBF1
S21400646810BD10B5010040F2C06008220BF08AFA91
S214006478002010BD07B5064B01A91B7840BA088056
S21400648823B9022240F2BC600BF07CFA07BDC04676
S214006498E122002007B5064B01A91B7840BA088000
S2140064A823B9022240F2BE600BF06CFA07BDC04664
S2140064B8E122002010B50C4B04001B789BB940F273
S2140064C8B8600BF009FB01220100230A9143134030
S2140064D8C9B240F2B86019430BF0A2FA40F2B960AC
S2140064E8E1B20BF09DFA10BDE122002007B56B461D
S2140064F8D91D087001229F200BF0B0F907BD73B5AF
S214006508031C0400F82804D94AF6C043C0F2010365
S2140065181B780133DBB25B100025DEB21F2B02DDD1
S2140065280336B608013532006B0001339A40130073
S2140065386A46D3716B460122A020D91D0BF08EF94E
S21400654844B16B46F600A919C9B240F20670D97173
S2140065580BF066FA73BD07B56B46D91D08700122A5
S21400656896200BF07BF907BD07B56A46031CD11DBC
S21400657858069A06C00FD20F520180011043DA0758
S214006588D20F1043DA06D20F120110431A07D20FA1
S214006598D20010435A07D20F9B079200DB0F104316
S2140065A85B0018430870012289200BF057F907BDD5
S2140065B807B5104B01A9984206D90F4B0B8002224B
S2140065C898200BF04BF907BD0C4B984201D90C4BA1
S2140065D8F4E70C4B984201D90B4BEFE70B4B98426C
S2140065E801D90B4BEAE70B4B9842E8D946F66B7392
S2140065F8E4E7C04600E9A435E1E9FFFF80F8A932E0
S214006608D7DBFFFF8044E52DC1C5FFFF000B6B1BE2
S2140066187581FFFF40FC541913B501AC20706170FA
S214006628A270210004229520E3700BF017F913BD21
S21400663807B56B46D91D0870012293200BF00EF99A
S21400664807BD13B56C4652BAA280082240BA49BAAA
S214006658208061805BBA69461000E3800BF0FEF884
S21400666813BD13B501AC0222210012200BF03EF92F
S214006678208840BA80B216BD07B56B46D91D08708B
S21400668801229D200BF0EAF807BD07B50B0007228C
S21400669801A910401A0C08704A705BBA04229720A9
S2140066A84B800BF0DBF807BD37B5104B104D186064
S2140066B82B7804001BB9FFF77BFF01232B7043F6EA
S2140066C80951B4FBF1F20B0041F684605343E31A18
S2140066D89B031B18B3FBF1F392039B181BBA042207
S2140066E8862001A901930BF0B9F837BDD8220020FF
S2140066F8D422002007B56B46D91D044B08701870C5
S21400670801228A200BF0AAF807BDC046E122002025
S214006718014B18787047C046E122002037B50400C0
S2140067280D000BF07FFA0200012826D10300002195
S2140067380F2C08D10620FFF76FFF231C5AB20E2A2B
S2140067480CDD0E230AE00420FFF766FF231C113435
S214006758F4DA4AF6C143C0F201031B7818215CB28A
S21400676840F6E7000BF05CF96B4602228E2001A982
S2140067785D711C710BF072F837BD40F6D8000BF04F
S214006788ABF91E210143C9B240F6D8000BF048F910
S2140067980123002207210420FFF73EFF231C0934AB
S2140067A807DA4AF6C243C0F201031B7838215CB206
S2140067B8D6E75AB2162AF9DD1623F7E713B504000A
S2140067C808220021684613F0C9F91C4B20781B786C
S2140067D8834201D0FFF78EFF237813B1012B28D010
S2140067E813BD6268164B6946B3FBF2F343F60950CD
S2140067F81A0C0A701A0A4A708B70237BA268CB7030
S214006808637B0B71B2FBF0F103004B43D31A41F6DE
S21400681884629B039B18B3FBF0F389035B186946F5
S2140068281A0C4A7108225BBACB808B200BF016F83C
S214006838D6E72369042269460093F6E7E12200209A
S2140068480000093D30B5040085B001AD09220021DD
S214006858280013F083F9224B20781B78834201D056
S214006868FFF748FF23781BB1012B2BD005B030BDAE
S214006878637AF12B1AD14FF6FF70FFF7FBFD48F24B
S2140068880500FFF707FE02236288A18852BA2A800D
S214006898227A6980AA710922E188EB71A980A37A15
S2140068A82B7229008C200AF0D9FFDFE7F22BEBD1F8
S2140068B841F60F50FFF7DEFD41F22100FFF7EAFD33
S2140068C80623E1E7A389074A5BBA2B80A37B1370EC
S2140068D8AB70E37B0622EB70238AAB80E1E7C04609
S2140068E8E1220020E022002007B56B461871597196
S2140068F802228F2001A90AF0B1FF07BD002110B5BA
S2140069080A00C0200AF0F2FF0721021143100A40CD
S2140069180B4012015800104310BD000013B501AC1F
S2140069280122210015200AF0E1FF064B22781B7889
S21400693852085BB29B1A181C803301DA4FF6807037
S21400694800B216BD9C21002037B505000C000222B7
S214006958132001A90AF0CAFF094B1B78012B0CD19A
S214006968084B1B78012B08D140F202700BF0B4F8E4
S2140069786B4628705B79237037BD6B461879F7E746
S214006988E1220020E0220020F7B56B460C00DF1D50
S2140069980500390020001600FFF7D6FF22780120F0
S2140069A8B24204D8387829000BF0E8F80020FEBD7B
S2140069B837B5040001AD0322290014200AF096FF1B
S2140069C8254B1B7823704BB1012B24D01B220021AA
S2140069D8601C13F0C3F80F2323701BE000222B78EB
S2140069E823711E4B9A566B7892B25B08D31A191C01
S2140069F81BB2803301DA4FF680712181AB785B08D1
S214006A08D31A1A1C1BB2803301DA4FF680720023A1
S214006A18E280E36037BD0022104B9A562B7892B27C
S214006A285B08D31A191C1BB2803301DA4FF6807143
S214006A3801232182EB5602339B10A374AB785B08C4
S214006A48D31A1A1C1BB2803301DA4FF68072044B35
S214006A58A2821B68A361DDE7E12200209C210020BA
S214006A68DC220020002313B501AC210002221720E7
S214006A7823800AF03BFF012362785110100019406A
S214006A889940184008439110194089000843D110CE
S214006A981940C9000843111119400901084351114A
S214006AA81940921149011A4008439201104322786E
S214006AB813401B02184316BD002307B5022201A97E
S214006AC807200B800AF0CAFE07BD07B5022201A9F7
S214006AD840BA088010000AF0C1FE07BD07B56B462D
S214006AE8D8710E48FEF7ECF90D48FEF7E9F96B4643
S214006AF80122D91D80200AF0B1FE6B46DA79094BCF
S214006B084AB9013220201A70FFF792FD4FF6FF703F
S214006B18FFF7DBFF07BD02221A70F7E78420002084
S214006B2870200020E909002010B504000AF03EFE97
S214006B3820000AF01BFE0AF059FE0020FFF7CEFFE1
S214006B480AF022FE0BF07AF80120FFF795FD0122E5
S214006B58044B1A700023044A1370044A1370044A3C
S214006B68136010BDE9090020E1220020D42200208D
S214006B78D822002013B5041CFFF7C0FE602303408C
S214006B88202B02D00020FFF7A9FF0BF097F86B46E2
S214006B98A207D91D6307DB0FD20F52009B001343D1
S214006BA8E207D20F1343842001220B700AF056FE28
S214006BB804210B00074A2340214202D00023137009
S214006BC813BD08211170044A1370044A1360044A5E
S214006BD8F5E7C046E9090020D4220020D822002084
S214006BE8E122002037B50BF023F888B96B4601225E
S214006BF8D91D80300A70074D0AF030FE064B40F665
S214006C081110E97A5C6CA04740F61210297BA04761
S214006C1837BDC0469C21002028AC010013B50422CD
S214006C280400094B09481A70FEF74AF9FFF7DAFF1D
S214006C3801A9230C0B700322230A83204B708C7047
S214006C480AF00CFE13BDC046E9090020702000209B
S214006C5810B51400FFF7FEFB2000FFF7DFFF10BD9E
S214006C68052213B504000B4B0B481A70FEF728F9DB
S214006C78942140F6AC000AF0D3FEFFF7B3FF01A953
S214006C88230C0B700322230A82204B708C700AF0A8
S214006C98E5FD13BDE909002084200020F0B540F684
S214006CA8E206002785B0300003970AF015FFFE219C
S214006CB840F6E5050140040030000AF0B1FE280061
S214006CC80AF00AFF7F210190014028000AF0A8FE7A
S214006CD80B48FFF7C5FF042203A940F619000AF07F
S214006CE8A9FE3800FFF7FAFE210030000AF098FEE9
S214006CF8280001990AF094FE039805B0F0BDC04636
S214006D08FFFFFF00052213B504000B4B0B481A7053
S214006D18FEF7D6F8962140F6AC000AF081FEFFF79B
S214006D2861FF01A9230C0B700322230A82204B70F3
S214006D388C700AF093FD13BDE9090020842000201A
S214006D4837B505000C00FFF74DFF6A462B0C13708D
S214006D582B0A5370230C64BA9570D37094806946D6
S214006D68062294200AF07AFD0622014B1A7037BDD7
S214006D78E909002010B5FFF735FF0022C5201100ED
S214006D880AF06CFD0722014B1A7010BDE9090020B5
S214006D9810B5FFF727FF0022D12011000AF05EFD8C
S214006DA80422014B1A7010BDE909002010B5FFF740
S214006DB819FF0022D22011000AF050FD0422014BD0
S214006DC81A7010BDE909002010B50120FFF754FC21
S214006DD80AF0DAFC0120FFF7BEFB0122014B1A700D
S214006DE810BDC046E9090020014B18687047C04628
S214006DF8D8220020024B1B780BB9024AD381704771
S214006E08E22200209C210020030000200A2B04D840
S214006E1840F27D60D840012318407047F7B5294BEB
S214006E2805009E7B3000FFF7EFFF0190002846D054
S214006E380027254C1422390024482770676012F072
S214006E488DFE18223900224812F088FE2148037861
S214006E5823B1230046331B78B34230D02300463391
S214006E6800221E700023A263E3630023A11D2200F4
S214006E78CB8780214732117022004832137040F2C7
S214006E88013C1A00144923640F78B7420ED1012733
S214006E983D420BD00B2A08D8104FD300D951DB1926
S214006EA8674601329F80019BD2B26D080C4F2C3189
S214006EB8B942E9D10BB14834227001230370019816
S214006EC8FEBDC0469C210020E8220020F0220020BB
S214006ED804230020E2220020C4AC0100382300204E
S214006EE8C0B101004A425141094A4942114042F2A2
S214006EF8107289180300C8430A2B07D8054AD35CC2
S214006F08054A9B009B58C81803B9C8437047C04633
S214006F18F0D8FFFF64AB0100E8AA010010B5040032
S214006F2808002CB1012C09D12100FFF7DBFF10BDAA
S214006F38500042F210729B18C018F8E70120404231
S214006F48F5E70000F7B51B4ACE00B2181279030021
S214006F580120D2B100229C5EDD68844216D1002151
S214006F689868FFF7BFFF134B134A9B5940F20C0C67
S214006F782A331B781049DB009A5C5B1801920022C2
S214006F88019ED1B28E4203D80420FEBD5868EAE7B7
S214006F98614651435F687E18795EA14205D17168E3
S214006FA8A94202D1B168814201D00132E8E7002047
S214006FB8EBE7C04638230020C0B1010003000D48A7
S214006FC8D200125830B5546802209C4211D89568F1
S214006FD89D420ED3D2681B1BB3FBF2F454431D1B11
S214006FE8A34206D12800012A03D08A42924152427F
S214006FF8500030BD38230020044BC900CB585B69CD
S21400700883428041404200017047C0463823002032
S214007018F8B51A4C0020236C63B3A31DDB8F184DFC
S214007028DB005B59188B28B3FEF750F80023226C58
S21400703806000F00A06BE16B80185941022200235E
S21400704812184B41BB4216D801D1B24213D80222BD
S2140070585242D317121A8B4192197B410634E18F9C
S2140070680120C9006958098B0BB9914200D8002045
S214007078800180B2F8BD00220023EFE7E822002056
S214007088382300200300002082B00190D1B142F2DC
S2140070980F7291420CD840F2E73291420AD9013277
S2140070A842F210700192019A401AB0FBF2F058436F
S2140070B802B0704764226329F2D80A220929EFD859
S2140070C80122EDE70121FBE7F8B51F4C0020236CF1
S2140070D8ABB3A31DDB8F1D4DDB005B59188D70B35A
S2140070E8FDF7F4FFA66BE76B0B0002001900236C94
S2140070F810009C461A000023B6185F41022200239F
S21400710892197B418B421BD801D1824218D80222A1
S2140071185242D317921BBB4112184B4116001F0050
S2140071280634E38F6046DB00EB58198DFFF7AAFF9D
S21400713801230FB9B04200D80023580180B2F8BD29
S21400714800260027ECE7C046E82200203823002067
S214007158124AF0B513000400463319784832104B2B
S2140071681278DD7B0F4B0639D200C9B2D21893428B
S21400717801D10020F0BD012905D825B918682A30A4
S2140071880078022808D0187930B11E687768A742B8
S21400719802D8B668A642EDD20833E8E7E82200200F
S2140071A89C2100203823002073B5204D060001A836
S2140071B80C000AF0D9F82A78531CDBB22B700AB9EF
S2140071C80AF0F6F801A80AF0D4F8701E042809D8C0
S2140071D811F06AFD03161A212800502221001448CF
S2140071E812F025FD01A80AF0BFF82B78013BDBB2A8
S2140071F82B700BB90AF0F0F801A80AF0BAF873BDBC
S21400720822780B4B1A70EDE7094B083307CC07C3F7
S21400721806CC06C3E6E7064B1C3307CC07C307CCE9
S21400722807C3DFE72268024B5A60DBE778340020A2
S214007238E822002007B5019001A90520FFF7B4FF52
S21400724800200EBDF0B506000D008BB0019311AB03
S2140072581B880092029313AB1B781222039315AB7C
S2140072681F7804AB0021981D12F078FC009B05AC33
S2140072780793019B21002373029B0320E381039B52
S2140072882680069523746774FFF78EFF00200BB0E0
S214007298F0BD0000F0B50C00060015008DB0019397
S2140072A812AB04CB00211B780292039314AB1B8805
S2140072B81522049315AB1B78059316AB1F7806ABFF
S2140072C8D81C12F04BFC06AB1E809C70019B039AE0
S2140072D80893029B0420099306AB1A74049A1900B3
S2140072E85A82059A5F751A750795FFF75DFF0020A5
S2140072F8024B47331C700DB0F0BDC046E822002094
S21400730873B5214D060001A80C000AF02DF82A785E
S214007318531CDBB22B700AB90AF04AF801A80AF027
S21400732828F8701E042809D811F0BEFC03161A2285
S2140073382A0050222000154912F079FC01A80AF00C
S21400734813F82B78013BDBB22B700BB90AF044F824
S21400735801A80AF00EF873BD0C4B1B782370EDE7F6
S21400736822000A4B083343CB43C203CB03C2E5E7EC
S2140073782200064B1C3343CB43C213CB13C2DDE7B4
S214007388024B5B682360D9E778340020E8220020A7
S214007398F0B59BB014AD1822040000210EA812F018
S2140073A8DDFB29000420FFF7ABFF05200CA9FFF73B
S2140073B8A7FF0023EE5EA968EB6830006A68FFF74F
S2140073C8ADFDF3B202936D4B08905B6A21000298FC
S2140073D898476B4B049048331B786A4E0793684B64
S2140073E846331B78063BDBB20593674BDB7B06937D
S2140073F80C9B03930EAB0193002300936B461F78F8
S214007408079BBB4200D8A2E0059B012B07D8069B2A
S2140074182BB933682A331B78022B00D1A0E03379C6
S214007428002B00D19CE03A0008990398FFF7C6FDA8
S214007438019B3900099028001C88FFF783FD099BEB
S2140074483900034304981C43FFF7D6FDA4B2019BFA
S2140074580443A4B21C80002C00D081E0FFF734FE61
S2140074680400FFF7D5FD009B04435B00180001935A
S21400747810230AA9A4B2C9180C52DCBB0099414BC8
S214007488CE009A5940F2E733D2699A4232D93B4A3B
S2140074980DA9D56F0120A8470AA903312000A847DF
S2140074A8384B364A9959956F24310120A847354BF1
S2140074B8711DC9182000A84740F2E831314B9A5987
S2140074C8D3692020125EB3FBF1F32C499BB20E69F8
S2140074D802980399B04706000DA90120A8470AA9F3
S2140074E820000331A8472EB91022802301980AA944
S2140074F88A181352009B0EAA5B009B5A13BBFDF713
S214007508E5FD1F4B049A9863D9631A640633DF8730
S214007518009B1C4ADB00D35814A91B7C8878897802
S2140075281A1C49B25BB28B4200DD021C0021144BC8
S21400753850B247335956814202D01A700AF06CFB93
S214007548002006E06022134212D11B0613D4FF2740
S2140075586520FF2318403B401B0218431BB0F0BDB4
S214007568009B083601330093019B0233019345E7DD
S214007578FF276620EDE7FF276720EAE728AC01002B
S214007588E8220020382300209C21002037B56B46CF
S214007598DD1C02200C002900FFF7B2FE2B78032022
S2140075A81BB92000FFF7F4FEC0B23EBDF0B599B097
S2140075B8182200210DAC12A812F0D0FA21000320E0
S2140075C8FFF79EFE05200CA9FFF79AFE0022A35E91
S2140075D8019303BB63680393404B00271A004832A5
S2140075E81278463309921B783D4D063BDBB205936D
S2140075F83C4BDB7B06930C9B079312AB0293099BD1
S214007608BB4210D1FF276420FF2318403B401B02D3
S214007618184319B0F0BD002361681A000198FFF7F7
S2140076287DFC0390D8E7059B012B0DD8069B5BB91C
S2140076382B682A331B78022B06D1029B01370233AC
S214007648FFB208350293DAE72B79002BF5D03A001B
S21400765803990798FFF7B2FC029B1B881843029B06
S21400766884B21C80002CE8D12B681F4A2A331E7867
S214007678F600B35CB118019A04932300012A25D1B9
S21400768821000E98FFF72EFC40F20C0C0F9B089377
S214007698154BF3180499E2B28A42CED26246624388
S2140076A85E68B118B25E012A06D14A68089E9642FC
S2140076B802D18A6882420ED00134EBE70C20584388
S2140076C84A680133825E0198904204D00498DAB280
S2140076D89042F3D8B1E7002096E7C046E82200209B
S2140076E8382300209C210020C0B1010013B56B464A
S2140076F8DC1C02202100FFF703FE2378032013B9C1
S214007708FFF754FFC0B216BD03207047032070472A
S214007718F8B52E4C01252300220046331978483246
S2140077282B4B1278DE7B2B4B0639D200C9B2D21807
S214007738934205D1002D46D1236C83B90020F8BDAD
S214007748012905D826B918682A300078022804D0F6
S214007758187947427841404205400833E8E7FDF784
S214007768B5FC0222002306000F00A06BE16B12187E
S2140077784B419F4202D823D1964221D90222524237
S214007788D317121A8B41B6185F41256C0634E38F5F
S214007798104ADB00D4582800218DFFF773FC218B94
S2140077A80200814200D90A00002328000021801820
S2140077B85941B94202D8C1D1B042BFD9801BBEE7F1
S2140077C800260027E1E701204042B8E7E82200202B
S2140077D89C210020382300200821084A93788B43F0
S2140077E893708022064B520599680A439A60802255
S2140077F8996812060A439A607047C04600100D4002
S214007808FC6F044010B5040010220021B1300AF0C5
S214007818EBFD23000021D433B022200019600AF0C3
S214007828E3FD10BD10B5F9F755FF10BD0300F0B520
S214007838D433040018680E00150087B0A0B31023D0
S2140078481B1A1F000093934200D917002300C13368
S214007858BAB21818310001930AF0B1FD2200D432EA
S2140078681368FB1813600F2B28D9009BAB4225D250
S2140078782000B13003001A78197C4A401A70019A21
S21400788801339A42F7D1244A24499368F6190B40E3
S2140078989360936801005B005B0893602200F9F729
S2140078A827FFFFF799FFED1B2000C130102D07D8E2
S2140078B83100AAB2D4340AF082FD256007B0F0BDC4
S2140078C82700B1373B00009600991A7809784A4095
S2140078D81A70009A0133013200929842F4D11022AD
S2140078E8390002A80AF06BFD0B4A0C49936810365B
S2140078F80B409360936802A95B005B0893600800DE
S2140079082200F9F7F5FEFFF767FF1022380002A9F4
S2140079180AF055FD103DC7E7FC6F0440FFFFFFEF78
S214007928F0B50C008BB05E4D10220021019002A825
S2140079380AF05AFDAB685B4A02A91340AB60AB6815
S21400794822005B005B080800AB60F9F7D1FEFFF782
S21400795843FF02AB1A7800217F2A49D918785A784B
S2140079684000D209024301311A7001330F29F5D1BC
S21400797802ABDA7B792352005B4253402700D437A8
S2140079883868DBB202AAD37310283FD12300200040
S214007998C133D13019781678013271401970013325
S2140079A89842F7D121002000B1310B00C1301A7877
S2140079B81E7C72401A7001338342F8D106A8102242
S2140079C80AF0FDFCAB68374A06A91340AB60AB6803
S2140079D822005B005B08AB600198F9F789FEFFF7A9
S2140079E8FBFE1022002102A80AF0FEFC0BB0F0BD38
S2140079F818785A784000D209024301311A700133C8
S214007A080F29F5D102ABDB7B5B00B7E7002200212C
S214007A1802AB9A568A4234DA1E785A787600D20929
S214007A28324301311A7001330F29F5D102ABDA7BE4
S214007A38792352005B425340DBB202AAD3738022FA
S214007A482318C1331A70431C00260093102B01D844
S214007A580F36361AC23032000021201812F07EF88F
S214007A68009B2000F61823003E60C13302AAD130DE
S214007A781978167801327140197001338342F7D1AC
S214007A8890E71E785A787600D209324301311A7088
S214007A9801330F29F5D102ABDB7B5B00CCE7C04690
S214007AA8FC6F0440FFFFFFEF7047000070B5002230
S214007AB81124084D23005343EE5C864205D100206E
S214007AC8054A20339B180B6070BD0132142AF1D189
S214007AD80320F9E7BC2300209C230020F0B5BFB0A4
S214007AE806000D0017000224019309B3449BFBB15E
S214007AF808A8FFF787FE019803A9FFF7D7FF040039
S214007B08B0B9039908A80131FFF78CFE26B11022F8
S214007B18310008A8FFF78AFE3A00290008A8FFF7F0
S214007B2885FE08A904A8FFF7FBFE049B449A136089
S214007B3820003FB0F0BD00007FB50026334C05009E
S214007B4810220021684612F009F8631CDE7723002D
S214007B58012231331A702300921842331A70230018
S214007B68053253331A702300013264331A70230027
S214007B78013275331A702300763286331A70230062
S214007B88013297331A7023000132A8331A70230083
S214007B980132B9331A7023000132CA331A7023002F
S214007BA80132DB331A7023000132EC331A702300DB
S214007BB80132FD331A7023000132FF33DA7340F2C4
S214007BC81F130132E25411330132E25411330132E9
S214007BD8E25411330132E25411330132E254694659
S214007BE80B487C3A0AF0EBFB1022310020000AF022
S214007BF8FBFB1022310007480AF0F6FB05B9064DD4
S214007C080020064B1D6004B070BDC0469C230020B3
S214007C1800250020AC230020B17A0000982300201D
S214007C28010010B5022029B1034840F274120AF088
S214007C38C6FB002010BDC0469C23002040F27413EB
S214007C48036001487047C0469C23002013B5040013
S214007C5803207E2B04D8049800902000FFF73EFFF0
S214007C6816BD30B585B01C0008AB05001B78022091
S214007C7861B10020039003A800902800FFF72EFFAC
S214007C8820B90398001B431E9841C0B205B030BD0A
S214007C98F0B5B1B00F001400022500900193C8B1EA
S214007CA8019BBBB10F23033519401F4212D1B022E6
S214007CB803A80AF099FB200002A9FFF7F7FE0500C3
S214007CC840B9029903A80131F9F704FD3E00B81B34
S214007CD8C0B216B9280031B0F0BD114C114AA368DD
S214007CE8103E1340A360A36803AA5B005B08A3606A
S214007CF8009BB6B21918019B1818F9F7F9FC082169
S214007D08094A93788B4393708022A36852051343DD
S214007D18A3608023A2681B061343A360D7E7C04668
S214007D28FC6F0440FFFFFFEF00100D407FB50023F7
S214007D3811220D001A4914005C430E5D86422AD1B2
S214007D48184B80382134C0B21022174EE418092880
S214007D5819D840F24923C340DB0714D500216846EA
S214007D6811F0FCFE6B467F2210212800FFF790FFDB
S214007D7810220500694620000AF021FB3368984760
S214007D88280004B070BD290020000AF018FB3368EC
S214007D9898470025F4E70133142BCCD10325EFE7E9
S214007DA8BC2300209C23002098230020022310B523
S214007DB811B1FFF7BBFF0300180010BD7FB50D001B
S214007DC816001C000220B1B110220021684611F0EE
S214007DD8C5FE7F2C04D1022332009A43032052B1F9
S214007DE86B46320010212800FFF752FF18B9694683
S214007DF82000FFF79BFF04B070BD0000010010B51F
S214007E08022039B1044810220AF0D9FA034B1B683D
S214007E189847002010BDC0469C23002098230020C9
S214007E28004870479C230020010010B5022039B195
S214007E38044810220AF0C3FA034B1B689847002030
S214007E4810BDC046AC230020982300200048704789
S214007E58AC23002003000020082B04D82230FF3073
S214007E68D840012318407047030007B50800052BC3
S214007E7807D0082B08D053B900F0E0F90190019814
S214007E880EBD01F07FFAF9E701F0C2FFF6E700231E
S214007E980193F4E7030010B50800052B05D0082B5E
S214007EA806D00BB900F054FA10BD01F0D1FAFBE782
S214007EB802F01EF8F8E7030010B50800052B05D0F9
S214007EC8082B06D00BB900F067FA10BD01F0D4FAFB
S214007ED8FBE702F021F8F8E7030010B50800052BC9
S214007EE805D0082B06D00BB900F068FA10BD01F0D3
S214007EF8D5FAFBE702F022F8F8E7020010B508000A
S214007F08052A08D0082A09D0002312B900F02AFB4F
S214007F180300180010BD01F071FBF9E702F0F4F851
S214007F28F6E710B5040008001100052C08D0082C48
S214007F3809D0002314B900F01BFB0300180010BD7D
S214007F4801F064FBF9E702F0E7F8F6E7030010B57E
S214007F580800052B05D0082B06D00BB900F0EAFE62
S214007F6810BD01F0C3FEFBE702F008F9F8E70200CF
S214007F7810B50800052A08D0082A09D0002312B927
S214007F8800F038FB0300180010BD01F069FBF9E7A4
S214007F9802F01CF9F6E710B50400080011001A00F4
S214007FA8029B052C05D0082C06D00CB900F036FB31
S214007FB810BD01F069FBFBE702F03EF9F8E710B5E3
S214007FC8040008001100052C08D0082C09D000234E
S214007FD814B900F073FB0300180010BD01F09CFBF9
S214007FE8F9E702F065F9F6E770B505000800110034
S214007FF81A00052D08D0082D09D0002415B900F060
S214008008C7FB0400200070BD01F0F0FBF9E702F0A2
S21400801897F9F6E773B5079E0500080011001A00E1
S214008028069B052D09D0082D0BD000241DB90096F7
S21400803800F036FC0400200076BD009601F05EFCD9
S214008048F8E7009602F002FAF4E7020010B5080016
S214008058052A08D0082A09D0002312B900F0CAFC5D
S2140080680300180010BD01F0E1FCF9E702F0C6FABB
