S02500004C6F726157616E507269766174654C6F5261436F6D626F53616D706C652E73726563B0
S214000000A84C0020550200009D6C0100556E0100B2
S214000010556E0100556E0100556E0100556E0100CB
S214000020000000000000000000000000556E010007
S214000030556E010000000000556E01001907010012
S21400004000000000000000009163010000000000B6
S21400005000000000000000000000000091630100A6
S214000060000000000000000000000000DD68010045
S214000070000000000000000000000000000000007B
S2140000800000000000000000A96001000000000061
S214000090000000000000000000000000000000005B
S2140000A0000000000000000000000000000000004B
S2140000B000000000355E01000000000000000000A7
S2140000C000000000DD12010000000000000000003B
S2140000D0000000000000000000000000615B01005E
S20C0000E0C95A01000D5B010086
S2140000E8010000001801000002000000F8000000EF
S2140000F800400020004000200000104000000203DE
S21400010800400020A4400020400400000000010336
S214000118C04C0020DC6F00200000000330B585B01E
S2140001280400092240F29F2001A910F0F0FD6B465A
S2140001381D79002301A8AB4214D1032B10D86946B9
S2140001485A1C0A716A465B00210A0532D1546A466F
S2140001580632D45440F29F20092201A910F0BAFDB5
S21400016805B030BD01004278897812025218023074
S2140001789442F5D00133DBB2DDE710B5074C102208
S2140001880021200017F004FE10F00EFE10B913230D
S214000198E372237302F000FF10BDC046704F0020C4
S2140001A810B50024214B1860214B22485C701C7047
S2140001B802F08CFD200002F063FD012002F09DFA9B
S2140001C82100200002F062FC2000042102F078FBE7
S2140001D84FF6FF7123002200080002F004FB40F6E9
S2140001E8AC00FFF79BFF40F68900FFF797FFFFF785
S2140001F8C4FF114800F0CEFF104800F0CBFF1049AE
S2140002080D4800F097FF0F490C4800F093FF0E4B7F
S2140002181C7002F0F9FC80B2033400B904004FF6F3
S214000228FF7002F0CDFE200010BDC046684F0020CB
S2140002386C4F0020F1150000584E0020444E002058
S21400024891140000AD140000804F002010B500F097
S2140002582FF814F0F1FDFEE7F8B5060000240C2789
S214000268124D2B68A34204D80024AB68A3420ED8CC
S214000278F8BD3A0062436B689B185A7AB24204D1BA
S21400028805CB0021121A17F083FD0134E8E7EB6866
S21400029822019B185A7BB24205D118685A68996899
S2140002A8121A17F0DEFD0134DFE7C046E80000004A
S2140002B870B50025154B164A00209A6014F0A8FD64
S2140002C816F054FC012014F0A3FD0020FFF7C4FF2D
S2140002D816F0D8FB16F0AEFC022014F099FD0120AB
S2140002E8FFF7BAFF0B4C0C4BE41AA410A54205DB2B
S2140002F816F046FD002016F0ABFD70BD064AAB00B2
S2140003089B181B6898470135F0E7C04600ED00E0EB
S2100003180000000000AE0100FCAD01007B
S208000400FFFFFFFFF7
S208000404F7AFC1FF89
S214000440E84C0020204E0020FF0100000B000000BA
S2140004500000000000000000010000003820070037
S2140004603C9303000101008182800184858302871A
S2140004708886038A8B890408078D01000100000026
S214000480FFFF208B010000000000000003000000BA
S214000490F06D00205840002000000000F06D0020A5
S2140004A0586E0020C06E0020000000000000000013
S2140004B00000000000000000000000000000000037
S2140004C00000000000000000000000000000000027
S2140004D00000000000000000000000000000000017
S2080004E00000000013
S2140004E844F2A40044F2A403C2F20000C2F20003DD
S2140004F810B5834205D040F20003C0F2000303B1F2
S214000508984710BD44F2A40044F2A403C2F20000C7
S214000518C2F200031B1A9A10D90F8918491010B591
S21400052829B140F20003C0F2000303B1984710BD9A
S21400053810B544F6C044C2F20004237873B9FFF736
S214000548CFFF40F20003C0F200032BB140F2084090
S214000558C0F2000000E000BF0123237010BDC046B3
S21400056840F20003C0F2000310B54BB144F6C44194
S21400057840F20840C2F20001C0F2000000E000BFEE
S214000588FFF7C0FF10BDC046F7B505000E000E48C1
S2140005980E49019215F070F8040060B90C4F32004D
S2140005A838702900019B084814F099FF040010B918
S2140005B83B78002BFCD0044814F0DAFD0443634271
S2140005C85C41E0B2FEBDC0461C6B002044A9010099
S2140005D8DD4C0020F7B507000E001048104915003E
S2140005E815F04AF8040078B96B4639000B4801AA9A
S2140005F814F0ADFD040038B9009BAB420CD32A00BA
S2140006083000019917F02DFC044814F0B1FD04439E
S21400061863425C41E0B2FEBD0324F5E71C6B002094
S21400062844A9010010B50949094815F025F8040041
S21400063820B90100064815F009F80400044814F02B
S21400064897FD204343425841C0B210BD44A901005B
S2140006581C6B00200122014B1A707047DD4C0020ED
S214000668F7B505000E000E480E49019215F004F87D
S214000678040060B90C4F320038702900019B084806
S21400068814F02DFF040010B93B78002BFCD004486A
S21400069814F06EFD044363425C41E0B2FEBDC04602
S2140006A81C6C00208CA90100DC4C0020F7B5070064
S2140006B80E0010481049150014F0DEFF040078B943
S2140006C86B4639000B4801AA14F041FD040038B9FE
S2140006D8009BAB420CD32A003000019917F0C1FBEF
S2140006E8044814F045FD044363425C41E0B2FEBD95
S2140006F80324F5E71C6C00208CA9010010B50A49F4
S2140007080A4814F0B9FF040008B10E2804D10021E5
S214000718064814F09BFF0400044814F029FD204303
S21400072843425841C0B210BD8CA901001C6C002081
S2140007380122014B1A707047DC4C00200022034B44
S2140007489A560AB901321A707047C046E44C00201F
S2140007580022014B1A707047E44C0020034B00201F
S2140007681A780AB1187001307047C046184D002034
S214000778024B1878431E9841C0B27047184D0020A7
S21400078810B5034B1B689B780BB117F0EBF910BD3F
S2140007980040002070B52C4B04001B785BB283B178
S2140007A82A4800F0C3FA60B9284800F01BFB050089
S2140007B840B1082C05D1254800F0DFFA2000FFF7E5
S2140007C8DFFF70BD2300613B192B06D8203CE4B23E
S2140007D821001E4800F017FB30E00A2C06D00D2C2E
S2140007E81AD0082C23D0202CEBD0F1E7210017488C
S2140007F800F009FB2000164CFFF7C2FF2378002BF9
S214000808DFD0124800F0B9FA104800F0B6FA012214
S214000818104B25701A70D4E721000C4800F0F3FA44
S2140008282000FFF7ADFF0122094B1A70C9E70748F9
S21400083800F0CFFA28B9054800F09FFA2000FFF725
S2140008489FFF0022024BF0E7E44C00200C4D0020EE
S214000858DE4C0020184D00200320024B1B6818565B
S2140008687047C0460040002010B50A4C2368DB7865
S21400087813B1094810F0DBFD142223689988074B4A
S2140008884A431B689B18186910F0D1FD044810F0FD
S214000898CEFD10BD0040002084860100E04C0020FC
S2140008A8A188010010B50E4B1B685C78082C16D082
S2140008B8DB7813B10B4810F0BAFD230034B10123DE
S2140008C8042C03D00333072C00D1023B064ADB0076
S2140008D89B18586810F0ABFD024810F0A8FD10BD34
S2140008E80040002084860100C092010010B502482E
S2140008F810F09DFD10BDC0468486010010B51C0092
S214000908094B1A6070B100290CDD0A00010007487F
S21400091800F001FA064A074BD4801A6000231360D9
S21400092800F0A6F810BDC046E04C00200C4D002094
S214000938E84C0020004000200022024B1B681A806A
S2140009487047C0460040002083B270B50400064DCC
S214000958012B04D8FFF7F0FF2B68DC7070BD40F25F
S21400096800422B681A80F9E70040002040F2014256
S214000978014B1B681A8070470040002070B5284855
S21400098800F0D4F920B10220264B1B68187070BD01
S214000998234800F016FAFFF7E9FF214800F019FA95
S2140009A8040058B91E4800F0CBF91F4BE3181B7813
S2140009B85BB283420FD10134042CF3D1FFF772FFE8
S2140009C8174800F002FA164800F0ACF90020154B5C
S2140009D81B681856DBE7E4B2124B022C04D0032C33
S2140009E819D1FFF7A9FFE9E72B2807D00C4800F034
S2140009F8E2F901000D4800F07CF9DFE71B680848BB
S214000A08DD880B4B1C6800F0D6F929000200200090
S214000A1800F0C0F8D2E700221B681A70CEE7C0467E
S214000A280C4D002000400020F0920100E0920100EA
S214000A38E04C0020014B1B681870704700400020EF
S214000A48014B1B681878704700400020014B1B6854
S214000A585870704700400020014B1B68988070470C
S214000A6800400020014B1B68988870470040002013
S214000A7810B5054B186800F0DEF91422034904483F
S214000A8800F052FA10BDC04604400020194D002060
S214000A98304D002010B5024B186800F0FEF910BD66
S214000AA804400020002370B50360013B0B80074B11
S214000AB8050018680C0000F0C9F930B143682B60CF
S214000AC80822835E238000F017FA70BD04400020D9
S214000AD810B5044B186800F0B9F900B910BD00F05D
S214000AE80BFAF6E704400020C0B20300303BDBB246
S214000AF8092B01D858B270470300413B052B02D892
S214000B08373840B2F7E701204042F4E7002310B533
S214000B18C2560AB918B210BD5C1C8A42FAD0230025
S214000B28F6E70000F7B500220400030001910092E2
S214000B3800269E578EB9009B9E420CDA200001992B
S214000B48FFF7E4FF124F051E13DC386800F0A5F91E
S214000B5808B1FFF7BDFF0020FEBD019A964202D0FD
S214000B6801229A561AB9009A013252B200920133FB
S214000B78DEE70023235400F099F901360581446026
S214000B8801000135386800F079F9641976B2D2E7C1
S214000B9804400020F0B5050085B00120160003913A
S214000BA8FFF748FF0420FFF751FF00230193019B3E
S214000BB8039A934201DB05B0F0BDAC89002C3DD00A
S214000BC822003100286917F0EBF8029038BB6B4614
S214000BD8002798883419FFF73FFFE7573D2F07D0BF
S214000BE83F2F31D0002F43D00220FFF723FF16E017
S214000BF80123E3569BB12C21601CFFF793FF0520C9
S214000C08FFF718FF2B6843B1300098470400029896
S214000C18FFF710FF2000FFF719FFFFF759FFFFF750
S214000C280FFF0028C7D0FFF70BFF0528C3D0FFF734
S214000C3807FF022802D10138FFF7FCFE019B143596
S214000C4801331BB20193B2E7647864B2002CE6D194
S214000C580520FFF7EFFE6B68002BE0D030009847C2
S214000C6807002000FFF7E6FE3800FFF7EFFED6E79E
S214000C780520FFF7DFFEAB68002BD0D03000984782
S214000C8804003800FFF7D6FE2000EEE7C3B21A00CD
S214000C98303A0120092A06D900200522413BDBB25A
S214000CA89A424041C0B2704770B505000E00002455
S214000CB82B5720B203B970BDB342FCD01800FFF71B
S214000CC8E5FF01340028F3D109204042F3E710B5C8
S214000CD80400FFF7E9FF012804D100202056FFF79B
S214000CE803FF10BD431C01DA40B2FAE70120404278
S214000CF8F7E710B504000023E3564BB100228A56E6
S214000D089A4206D1481C0021FFF7E1FF636898471E
S214000D1810BD0834EFE720B1002382800360C3804B
S214000D288160704708B10023036070470300002005
S214000D382BB106201856013843425841C0B27047B6
S214000D4870B50500C0B10023C45E0222835E002091
S214000D58A34211D02800FFF7E9FF04216B5E013497
S214000D6894FBF3F102004B43A968E31AC85CCC185D
S214000D781BB202B922702B8070BD70B50400C8B1D2
S214000D880223C55E0022835E0020AB4212D02000FC
S214000D98FFF7CCFF0300002063B9A268505D5355E7
S214000DA80222A35E0421625E013B93FBF2F14A43F2
S214000DB89B1A638070BD18B10022835E8068C018D5
S214000DC8704708B101238371704708B10023837107
S214000DD870470022835E0222805E181A43425841FA
S214000DE8C0B270470222835E0421425E013393FB41
S214000DF8F2F14A439B1A0022805E1BB2C01A434295
S214000E085841C0B2704770B504000D0090B1FFF7A6
S214000E18E9FF78B92000FFF789FF58B90222A35ED8
S214000E280421625E013393FBF2F14A439B1AA268DF
S214000E386380D55470BD002303607047006820B1F6
S214000E48030000680028FBD11800704703000068FC
S214000E5808B102681A60704703682BB18B4204D148
S214000E680B68036000230B6070471A001B68002B92
S214000E78FAD09942F9D10B681360F3E770B505000C
S214000E880C00FFF7E9FF002328002360FFF7D6FFD2
S214000E9808B92C6070BD0460FCE70368002003B93D
S214000EA8704701301B6800B2F9E70000F0B5104B38
S214000EB81B785BB21800B3B100200E4A0823D15E37
S214000EC8814210DD55680A23D65E2B0010685C1B2D
S214000ED824B2A64207DD0027DF575C1C27B9013974
S214000EE8118101221A70F0BD23000C30EFE7C046CE
S214000EF8304E0020244E002010B570B1094A0A234F
S214000F08D45E002311689C4207DD814206D1118910
S214000F180131118100215268D15410BD01331BB232
S214000F280C31F0E7244E0020002310B5074CE3569A
S214000F3853B9002A08DD38B131B1054B186059603D
S214000F481A815A810123237010BDC046304E0020F6
S214000F58244E002010B50FF015FD10BD37B506ACB1
S214000F682478079D009401950FF012FD37BD10B543
S214000F780FF016FD10BD10B50FF028FD10BD0000CF
S214000F8882B013B5C918059305AB9C88A21840F221
S214000F98E73493B212B2A24203DD054A01319B1828
S214000FA81AB20160828016BC08BC02B01847C04658
S214000FB818FCFFFF82B013B5C91A059305AB9B88CA
S214000FC8D21A93B214B2120404D540F2E8329B182F
S214000FD801391CB20160848016BC08BC02B01847F0
S214000FE81FB50023009002AC03A801910293A380CA
S214000FF80FF0DCFF009BA288181A6B469B889B1A8A
S2140010089AB219B21B0404D540F2E833D218013854
S21400101811B2024B186099801FBDC046344E00209E
S21400102813B500236A46040001A8938000930FF0C6
S214001038BDFF0A4B40F2E7311A689B8880186A465B
S21400104892889B189AB21BB28B4203DD044B013080
S214001058D3181BB22060A380200016BD344E002093
S21400106818FCFFFF37B500236D46040001A800935F
S214001078AB800FF09BFF2300009006CD06C3200030
S2140010883EBD00000C4B13B51A689B88801AC91A17
S2140010988BB20CB2090404D540F2E8329B1801382A
S2140010A81CB240F2E8320023002115F055FF22005A
S2140010B8E317801859411CBD344E002070B5150042
S2140010C8190040F2E83200230400280015F024FF37
S2140010D840F2E8310A4A4143136892881B1840F2E6
S2140010E8E7305219521A91B212B2824203DD054A0B
S2140010F801338A1812B220002360A28070BDC04651
S214001108344E002018FCFFFF020010B5014B12CB2E
S21400111812C210BD344E00200022054B10B5040044
S21400112800681A700FF096FE206010F067F810BD81
S214001138404E00200023036043600372C1600361D1
S2140011487047000070B5124C236843B10022012591
S2140011581A601A720023206858B903B1206070BD5F
S214001168C1682B00026911B122608847F2E71000B7
S214001178F2E70268002AF3D03BB9037A002BEED1D7
S21400118801230372FFF7C8FFE9E72060F5E7C046CA
S2140011983C4E0020F7B52F4D040001A80FF09CFA2E
S2140011A82A78531CDBB22B700AB90FF0B9FA2A4E0C
S2140011B801A80FF096FA336803B16CB901A80FF0CE
S2140011C88BFA2B78013BDBB22B700BB90FF0B8FA11
S2140011D801A80FF086FAF7BDA3422ED1237A13B3DF
S2140011E80FF004FF2768002433688C4619691C72C0
S2140011F8A9B13A00316023003E002700644502D1B9
S214001208824200D90600921BBB4116000B680800F4
S2140012189B190B6001230B72FFF77EFFCEE7316048
S2140012280FF046FECAE723692BB1216833601A68B7
S21400123852181A60C2E73360C0E71A001B69002B11
S214001248BCD09C42F9D1236921681361002BEED1EA
S214001258B4E7C046806600203C4E0020054B1B685D
S2140012680BB918007047834201D01B69F8E70120C4
S214001278F8E7C0463C4E0020F0B587B0040005A845
S2140012880FF02AFA40490A78531CDBB20B700AB9E9
S2140012980FF046FA05A80FF024FA24B12000FFF74D
S2140012A8DDFF009078B105A80FF016FA364A1378D5
S2140012B8013BDBB213700BB90FF042FA05A80FF02A
S2140012C810FA07B0F0BD6368304D23602968009BAC
S2140012D8237239B921610123200023722C60FFF79D
S2140012E81BFFE0E7087AF0B10FF080FE2B68009F3E
S2140012F81E683B003200B94202D1864200D902007D
S214001308B61A9F4100960197019B26682F6813B965
S214001318009BB3420BD927B1009B9E1B00233E605F
S2140013283B722761D7E70B6801900093ECE73D69AD
S2140013382DB9009BF61A26603C612561B3E728683C
S2140013480199009A019B8018594109B9864208D22A
S214001358009B009AF31A23602B689B189B1B2B6034
S214001368EAE72B6923B9361A26602C6123619AE7C7
S2140013781A682F000292002203921D00029A039B0D
S21400138800900191DFE7C046806600203C4E0020B2
S21400139870B50D000400FFF7FDFE2560656070BDA2
S2140013A810B50FF0FFFD10BD10B50FF00AFE10BD0A
S2140013B870470000F7B50D0000240190CAB10F4F22
S2140013C8260097FBF2F78C4215D801D1874212D82F
S2140013D83A0033002900019815F09EFD04003A00F3
S2140013E833002900019815F097FD1A43531E9A41B9
S2140013F8A4182000FEBD0024F1E7C04640420F00B6
S21400140810B544781CB9013444700FF089FF10BD3C
S21400141810B50FF08FFF10BD10B50FF0A9FF10BD67
S214001428154B00B5185C0A2823D815F01DFD1E16A6
S2140014381612060D22221A161200002001230B3956
S2140014488B424041C0B203E00C394B425941C8B206
S21400145800BD002002230A39F2E7002003230939D9
S214001468EEE7002004230839EAE7002005230739B9
S214001478E6E70020ECE7C046B0930100014B188869
S2140014887047C0466E4F0020002010B501F0F8FBEC
S214001498034B1B6813B15B6803B1984710BDC04681
S2140014A8684F0020002010B501F0EAFB034B1B68CC
S2140014B813B1DB6803B1984710BDC046684F0020DB
S2140014C8012310B511B10FF022FC0023180010BD3F
S2140014D8012310B511B10FF0FDFB0023180010BD55
S2140014E810B50FF061FC0D23012800D00A3B180048
S2140014F810BD000010B501F05FF803000020082BAF
S21400150801D8014AD05C10BDFF92010010B5054B0A
S21400151804005B7B0BB101F05FFF200001F096F939
S21400152810BDC046704F002010B50FF004FC10BD6B
S21400153810B50FF0E3FB10BD10B5044B5A7B012322
S21400154812B101F0D7FE0300180010BD704F00203E
S21400155810B5042001F0E0FB0220FFF7FBFC0EF0BC
S21400156867FD10BD10B5034B987A01F089FB0EF0A5
S21400157897FD10BD704F002010B501F0B3FC10BDEC
S21400158840F28010002310B51A00010001F02BF974
S21400159801F0C2FC10BD000070B540F2E8360E4BF4
S2140015A805005B7B0C00564383B9280001F04EF912
S2140015B820000FF0EDFB01F0BDFC31000748FFF7F7
S2140015C8E7FE0648FFF758FE002070BDC0B202F0DE
S2140015D86FF90028E9D0F8E7704F0020584E002031
S2140015E810B501F06DFA10BD10B572B6BFF34F8F87
S2140015F8BFF36F8F0FF064F90122044B1A7062B6BE
S214001608BFF34F8FBFF36F8F10BDC046804F0020CB
S214001618F0B585B072B6BFF34F8FBFF36F8F002259
S214001628654E33783270DBB262B6BFF34F8FBFF3C6
S2140016386F8F002B00D19FE001F0E5F804004FF60D
S214001648FF7001F014FB72B6BFF34F8FBFF36F8FB6
S2140016580FF0F8FB0500012802D10FF031F93570BC
S21400166862B6BFF34F8FBFF36F8F40230125234029
S2140016780193019A514B1A802C420BD05048FFF721
S21400168889FD280000F09EFF4E4B1B6813B11B68AF
S21400169803B1984702252C4244D04B4B1F78A7B974
S2140016A84A48FFF777FD012000F08CFF390040F626
S2140016B802100FF023FB40F644100FF03CFB0543E6
S2140016C8E9B240F644100FF019FB02ABDF1DFF220B
S2140016D839003F4801F02AFA3E4801F03BFA019BE0
S2140016E813B13D4B1B7A7BB1364B1B6863B19D68C3
S2140016F855B1384A39781378002B41D10823D35688
S2140017080620125E3248A8472F4B1B7853B100F0CC
S21400171853FF052806D1304B587A002835D00020CC
S21400172801F0C2FB019B2BB1264B1B6813B11B694A
S21400173803B1984723060AD5012000F043FF214B42
S2140017481B6823B19B6913B1E005C00F9847A40531
S2140017580FD500F031FF04281AD11948FFF71AFDF3
S214001768012000F02FFF174B1B6813B15B6803B10D
S21400177898470023114A13803078C0B205B0F0BDF0
S2140017881223D3561020125EBCE701F03BFBC9E7D4
S21400179800F012FF0528ECD10B4B1B782BB90B4831
S2140017A8FFF7F8FC012000F00DFF064B1B68002B26
S2140017B8DFD0DB68DBE7C046804F00206E4F002096
S2140017C8584E0020684F00209C500020444E0020B1
S2140017D8814F002080500020704F002010B5002058
S2140017E801F09AFA0220FFF7B5FB0EF03DFC10BD9B
S2140017F870B50F4B06005B7B0C00150093B93000E4
S21400180801F024F820000FF0C3FA01F0A1FB40F223
S214001818E83108486943FFF7BBFD0648FFF72CFD8B
S214001828002070BDC0B202F041F80028E7D0F8E703
S214001838704F0020584E002010B500F0BDFE040082
S214001848082809D10022074B5A701A7001F08EFB3F
S21400185820000EF03FFC10BD0028F9D101F010FA68
S214001868F6E7C0466C4F002010B500F073FF10BDB9
S21400187802001F205AB1012308490868824207D986
S2140018888868824204D8054ADB009B181879704796
S21400189801330831172BF0D11F20F8E7BC9301005D
S2140018A810B50A4B012807D1094AC73311700948F1
S2140018B8197001F099F810BD1A00BF321278002A84
S2140018C8F9D1034AC0331170F1E7C0466C4E0020C8
S2140018D808400020244F002070B51C4B05005B7B99
S2140018E80C0001201BB1280001F022FF50BB4DB3AD
S2140018F8002340F201211A00080000F074FF00F0EF
S214001908D9FF134B01281ED1C7331C70114801F0AC
S2140019186BF800222100280001F06CFA0E4B0F48E5
S2140019281968FFF735FD0D48FFF7A6FC00F0C2FF63
S214001938060001F02BFB230001002A0030000EF001
S214001948C3FA002070BDC033DFE7C046704F0020E2
S2140019586C4E0020244F0020A4500020584E002033
S214001968002340F2422110B504001A00080000F0D7
S2140019783AFF34B10A482100FFF70AFD0848FFF786
S2140019887BFC084B1B7833B1402000F023FF002077
S21400199801F08AFA10BD044B18688001F8E7C046C3
S2140019A8444E00209C500020A050002070B51B4DCF
S2140019B804006B7B33B96A7A4AB12000FFF7D0FF80
S2140019C8002003E001F064FF0028F4D070BD40F268
S2140019D842211300080000F006FF34B11048210029
S2140019E8FFF7D6FC0E48FFF747FC0E4E33788BB150
S2140019F8402000F0EFFE002001F004FA00F05AFF45
S214001A08050001F0C3FA22000100337828000EF022
S214001A18B7FAD5E7044B18688001EDE7704F002049
S214001A28444E00209C500020A0500020F7B5070028
S214001A380C000025C9B3364E01A80EF04DFE3278CC
S214001A48531CDBB233700AB90EF06AFE01A80EF01A
S214001A5848FE092F36D8380015F006FA050A292D4B
S214001A6831393F43475322782A4B1A7001250FE035
S214001A7816250422210001A816F0F3F9019A264B30
S214001A881968914241D0013DADB20833002DF7D117
S214001A9801A80EF021FE3378013BDBB233700BB998
S214001AA80EF04EFE01A80EF01CFE2800FEBD2278A1
S214001AB8184B1A72DAE72278164B5A72D6E723784A
S214001AC82F2B01D90025E3E7124AD372CEE72378F5
S214001AD82F2BF7D80F4A1373C8E722780D4B5A7383
S214001AE8C4E722780B4B9A72C0E70A4D23784FF664
S214001AF8FF70AF7BAB7301F063FA0028B6D1AF7303
S214001B08E0E72278034BDA73B0E7024B5A60ADE79A
S214001B1880660020704F0020BC930100F7B50700D0
S214001B280C00002679B3254D01A80EF0D5FD2A78BD
S214001B38531CDBB22B700AB90EF0F2FD01A80EF0AA
S214001B48D0FD0026092F11D8380015F08DF90509A3
S214001B581E2124272A2D3033194B1B78237004E0C6
S214001B6804222000174916F07CF9012601A80EF079
S214001B78B3FD2B78013BDBB22B700BB90EF0E0FD02
S214001B8801A80EF0AEFD3000FEBD0D4B1B7AE5E752
S214001B980B4B5B7AE2E70A4BDB7ADFE7084B1B7BEB
S214001BA8DCE7074B5B7BD9E7054B9B7AD6E7044B0C
S214001BB89B7BD3E7024BDB7BD0E7C04680660020E2
S214001BC8704F0020744F002010B504000B4B18709F
S214001BD8587000F015F854B1342140F240700FF0F8
S214001BE88DF8442140F241700FF088F810BD14219A
S214001BF840F240700FF082F82421F3E76C4F002083
S214001C08012010B500F048FE044B18785A78824236
S214001C1802D05870FFF7D8FF10BDC0466C4F0020A2
S214001C2810B5012806D0002000F036FE0022034B2F
S214001C385A7010BDFFF7E4FFFBE7C0466C4F002064
S214001C48F0B59BB0119320AB0B9204CB0D911B887B
S214001C5814920C9322AB1F8823AB1B780EAA0E9304
S214001C6824AB1B780500129325AB1B780F9326AB85
S214001C781B78159327AB1B78169349239B18DB7F95
S214001C8813934D239B18DB7F10938B4B5B7BBBB169
S214001C98109B0B9A0993139B00B20893169B029706
S214001CA80793159B06930F9B0593129B04930E9B15
S214001CB803930C9B0193149B0093119B01F094FBD8
S214001CC8109A7E4B1A70534253410E9A5B421F403D
S214001CD8FF2302B1129B7A4A1370F5B1012D00D189
S214001CE879E0109B28000993139B0B9A0893169B80
S214001CF80D990793159B029706930F9B0593129BC6
S214001D0804930E9B03930C9B0193149B0093119BC7
S214001D180EF0B2F800201BB0F0BD6A4C280000F0A8
S214001D28B7FC2300E8331D7023000B9AEC331A60C7
S214001D3823000B22F4330D981A70FFF799FD230041
S214001D48F533187023002200B8331D700C9BBA3286
S214001D58DB001380230041F60402BC331A802300FC
S214001D68BE3322001D7001230E99BF3259401170F0
S214001D7822005349C032097811700F9A02B1F13324
S214001D882200C132137023000122C233E8341A70CD
S214001D98FFF7E8FB2078431E9841C0B2FFF740FFE4
S214001DA8200000F0DDFD484800F01EFE08224749E6
S214001DB818A816F056F818A800F025FC40F2FF10F0
S214001DC800F04AFC41F640737B430B9AB3FBF2F3F0
S214001DD83F4A136085E73B4C002000F059FC23007F
S214001DE8E8331D702C226B469B181E782300F833A8
S214001DF80D9A1E70374B10009B5C0B99053E179387
S214001E08FFF70EFB0C9B012E06D86B460C9A1B8E12
S214001E180C2A00D20C239BB222001799F9321170B3
S214001E2822001199FA3211702200FB32107001223A
S214001E38254926000A702200C432138023000E9A11
S214001E48C6331A7023001E4AC7331278C9361A706A
S214001E5823000F9AC8331A70139BE8343370FFF7C1
S214001E6881FB2078431E9841C0B2FFF7D9FE2000B8
S214001E7800F076FD144800F0B7FDF8B200F011FC4B
S214001E883378042440F23670012B10D10EF053FF3D
S214001E98A043C1B240F236700EF030FF7B427B4161
S214001EA80D4A5B4213404FF6FF729B1890E70EF000
S214001EB842FF0443E1B2EDE7704F00209C5000203B
S214001EC8084000206C4E0020244F00200495010096
S214001ED8A0500020B09301000100FFFFF0B599B0B4
S214001EE80B931EAB109204CB0F911B780C92119398
S214001EF820AB1F8821AB1B7805000D9322AB1B78FF
S214001F080E9323AB1B78139324AB1B78149325AB43
S214001F181B781293764B5B7BA3B1269B00920893A3
S214001F28129B109A0793149B00B20693139B029772
S214001F3805930E9B04930D9B0393119B01930B9B98
S214001F4801F07AFA4DB1012D58D040F689000EF00E
S214001F58F2FE04210143C9B2A6E0664C0C9A23009F
S214001F68E8331D702300EC331A6023000B22F43389
S214001F780B981A70FFF77CFC2300F53318702300C3
S214001F88109AF0331A6023002200B8331D70BA3254
S214001F98FB001380230041F60402BC331A8023009A
S214001FA8BE3322001D7001230D99BF3259401170AF
S214001FB80E9A02B1F1332200C132137023000122B7
S214001FC8C233E8341A70FFF7CDFA2078431E9841DA
S214001FD8C0B2FFF725FE200000F0C2FC464800F01D
S214001FE803FD0822454916A815F03BFF16A800F081
S214001FF80AFB40F2FF1000F02FFBA6E73D4C30220C
S2140020082300E8331D706B469B181E782300F833B0
S2140020180B9A1E703A4B10009B5C0C99053E159364
S214002028FFF7FEF93B00012E03D80C2F00D20C2335
S2140020389BB22600159AF936327022001199FA32A8
S21400204811702200FB32107001222B490A70220000
S214002058C432138023000D9AC6331A702300294A07
S214002068C73312781A7023000E9AC8331A702300E2
S214002078129AC933E8341A70FFF774FA2078431EA8
S2140020889841C0B2FFF7CCFD200000F069FC1A4862
S21400209800F0AAFC3378062B00D056E740F68900F5
S2140020A80EF049FEFB21014040F689000EF026FEA0
S2140020B80F980EF06DFE269A134B28001A60129B96
S2140020C808920793149B109A0693139B0F990593EF
S2140020D80E9B029704930D9B0393119B01930C9BF5
S2140020E800930B9B0DF0DAFE002019B0F0BDC04639
S2140020F8704F00206C4E0020244F002004950100ED
S214002108B093010008400020A450002010B5FFF747
S21400211877FD00231A001900180000F064FB00F091
S2140021288FFE10BDF0B58BB0099106920593322B41
S21400213800D9B2E05B4C2600F536337808932300C6
S214002148F9331D7800231A001900180000F04BFB1D
S21400215800F0B0FB0790012859D1534B5E683EB992
S21400216833005249DA0052181168A9424BD1566812
S21400217827000025FFF7F6F90020FFF751FDE8379E
S21400218830003D70FFF774FB2300F53318703800F5
S21400219800F0E6FB2000B830057000F025FC40F2A1
S2140021A8E833059A09985A430592FFF7AFF940486D
S2140021B800F028FE0EF050FE050028000EF052FE35
S2140021C80028FAD000F07CFC069B05000027984201
S2140021D82FDA0EF041FE070000F072FC069B0500A1
S2140021E8984225DA38000EF03DFE6B469B8A9842E8
S2140021F8F2D300F065FC069B05000127834200DC4D
S2140022080027FFB215E001330A2BAAD1B0E7FFF783
S214002218A9F9254B586848B125000023E8352B70E6
S214002228FFF726FB3070280000F09AFB0026B6E77A
S2140022380027FFF797F9079B012B1FD1FFF7E0FC54
S21400224823002000089AF5331A70079BE8300370BD
S21400225800F086FB2000079BB830037000F0C4FB34
S214002268059B32000193069B0020009309992B00DA
S21400227802970DF0BDFD38000BB0F0BD0A4B5B6849
S214002288002BEDD02300089A2000F5331A7000239F
S214002298E830037000F064FBE2E7002635003700FC
S2140022A8DEE7C0466C4E0020704F002060930100A9
S2140022B8FFFFFF00F0B5514C87B02600059003914C
S2140022C8F536337802932300F9331B7804933229C2
S2140022D800D991E000231A001900180000F083FACC
S2140022E800F0E8FA464F0190012864D17D6845B9A8
S2140022F82B004449DA00521811680498814256D1D6
S21400230855680026FFF72EF90020FFF789FC3E4B9C
S21400231828001E70FFF7ACFA2300F53318703A4809
S21400232800F01EFB2000B830067000F05DFB059834
S214002338FFF7ECF87B7A3548002B4CD000F0B4FD5C
S21400234840F2E836039B5E430EF086FD0500280043
S2140023580EF088FD0028FAD00EF07EFD2C4D039076
S21400236800F0AEFB2B1C854200DA031C03981DB256
S2140023780EF078FDB3B29842F2D3FFF7F3F8019B5C
S214002388012B2BD1FFF73CFC23002000029AF533E3
S2140023981A70019BE830037000F0E2FA2000019BF7
S2140023A8B830037000F020FB280007B0F0BD0133FA
S2140023B80A2B9ED1A5E7FFF7D5F878680028B6D08F
S2140023C825000023E8352B70FFF752FA30702800F6
S2140023D800F0C6FAABE700F015FDB1E77B68002B06
S2140023E8E2D02300029A2000F5331A700023E83062
S2140023F8037000F0B5FAD7E7054DD5E76C4E002018
S214002408704F002060930100544F0020FFFFFF002C
S2140024180080FFFFF0B585B015000AAA17880BAA3A
S214002428019111780CAA14780DAA127848B10128DF
S21400243814D00125002040190138B0FBF5F005B08E
S214002448F0BD012340F2E8304B40FB185200DB0099
S21400245812191833D2009B185843ECE7043302933A
S2140024686B1F012B04D83B1C0C2F00D20C239FB2E9
S2140024781201E400A4184A4251411423AE0049420E
S2140024880B40A41BE418AB1E0393062D07D929009E
S21400249801980834FEF7C4FF08B1AB1E9E00E3435C
S2140024A8DB171C40A419013C94FBF6F6029B734309
S2140024B8DA1913000E33062D00D9023B084A019993
S2140024C8525C0A2A0AD803999B0001338B4040F2D3
S2140024D8E8305843034B9200D558ACE7FFDEC046B9
S2140024E8B093010008930100030000200A2B01D8CE
S2140024F8014AD05C7047C046F4920100F0B504006B
S2140025080E0085B018B30020012C51D1294D2B00A0
S214002518F9331878FFF7E8FF01002800C83000787C
S2140025282B002A00471EB841FA33F8321B78127877
S214002538039028000296C6300078C435461EB0417F
S2140025480190288800902000FFF764FF30E0194BC0
S2140025581A00EC3215681A00C13212780296013A4F
S214002568511E8A4103921A00BF321278BA3351427A
S2140025784A4101921B882A00DB08009301000300E9
S214002588FFF748FF41F65732012395420FD840F629
S214002598B732DB1895420AD840F2CF72013395421B
S2140025A805D840F2E7320433954200D9023B1818A2
S2140025B805B0F0BD6C4E0020014B18787047C04639
S2140025C809400020014B18707047C046094000209B
S2140025D810B5084B1A78082A08D840F24113D34099
S2140025E8DB0703D50EF042FB0EF0E4FB0EF034FBDF
S2140025F810BDC0460940002010B50A0001000020A2
S2140026080EF0A2FB10BD10B5010040F2C060082213
S2140026180EF060FB002010BD07B5064B01A91B781D
S21400262840BA088023B9022240F2BC600EF052FB82
S21400263807BDC046B550002007B5064B01A91B7854
S21400264840BA088023B9022240F2BE600EF042FB70
S21400265807BDC046B550002010B50C4B04001B78CB
S2140026689BB940F2B8600EF066FB01220100230A0F
S21400267891431340C9B240F2B86019430EF03EFBCE
S21400268840F2B960E1B20EF039FB10BDB55000203B
S21400269807B56B46D91D087001229F200EF0F2FA86
S2140026A807BD73B5031C0400F82804D949F20C5377
S2140026B8C0F201031B780133DBB25B100025DEB2E3
S2140026C81F2B02DD0336B608013532006B000133D6
S2140026D89A4013006A46D3716B460122A020D91D82
S2140026E80EF0D0FA44B16B46F600A919C9B240F20A
S2140026F80670D9710EF002FB73BD07B56B46D91D7F
S2140027080870012296200EF0BDFA07BD07B56A4686
S214002718031CD11D58069A06C00FD20F520180011D
S2140027281043DA07D20F1043DA06D20F120110430D
S2140027381A07D20FD20010435A07D20F9B079200EF
S214002748DB0F10435B0018430870012289200EF047
S21400275899FA07BD07B5104B01A9984206D90F4B41
S2140027680B80022298200EF08DFA07BD0C4B98427B
S21400277801D90C4BF4E70C4B984201D90B4BEFE709
S2140027880B4B984201D90B4BEAE70B4B9842E8D91A
S21400279846F66B73E4E7C04600E9A435E1E9FFFFB7
S2140027A880F8A932D7DBFFFF8044E52DC1C5FFFFBF
S2140027B8000B6B1B7581FFFF40FC541913B501AC69
S2140027C820706170A270210004229520E3700EF03C
S2140027D859FA13BD07B56B46D91D08700122932018
S2140027E80EF050FA07BD13B56C4652BAA2800822FE
S2140027F840BA49BA208061805BBA69461000E38017
S2140028080EF040FA13BD13B501AC022221001220C7
S2140028180EF04DFA208840BA80B216BD07B56B4652
S214002828D91D087001229D200EF02CFA07BD07B5A9
S2140028380B00072201A910401A0C08704A705BBAF0
S214002848042297204B800EF01DFA07BD37B5104BB3
S214002858104D18602B7804001BB9FFF77BFF012387
S2140028682B7043F60951B4FBF1F20B0041F6846075
S2140028785343E31A9B031B18B3FBF1F392039B180D
S2140028881BBA0422862001A901930EF0FBF937BD76
S214002898AC500020A850002007B56B46D91D044B45
S2140028A80870187001228A200EF0ECF907BDC046A1
S2140028B8B5500020014B18787047C046B550002028
S2140028C837B504000D000EF069FA0200012826D17B
S2140028D8030000210F2C08D10620FFF76FFF231CEA
S2140028E85AB20E2A0CDD0E230AE00420FFF766FF14
S2140028F8231C1134F4DA49F20D53C0F201031B7895
S21400290818215CB240F6E7000EF0F8F96B46022292
S2140029188E2001A95D711C710EF0B4F937BD40F622
S214002928D8000EF008FA1E210143C9B240F6D800B6
S2140029380EF0E4F90123002207210420FFF73EFFEA
S214002948231C093407DA49F20E53C0F201031B7838
S21400295838215CB2D6E75AB2162AF9DD1623F7E70D
S21400296813B5040008220021684615F011FA1C4B1E
S21400297820781B78834201D0FFF78EFF237813B1A7
S214002988012B28D013BD6268164B6946B3FBF2F3D9
S21400299843F609501A0C0A701A0A4A708B70237B81
S2140029A8A268CB70637B0B71B2FBF0F103004B435C
S2140029B8D31A41F684629B039B18B3FBF0F3890392
S2140029C85B1869461A0C4A7108225BBACB808B20C2
S2140029D80EF058F9D6E72369042269460093F6E70D
S2140029E8B55000200000093D30B5040085B001ADA3
S2140029F809220021280015F0CBF9224B20781B78F5
S214002A08834201D0FFF748FF23781BB1012B2BD058
S214002A1805B030BD637AF12B1AD14FF6FF70FFF779
S214002A28FBFD48F20500FFF707FE02236288A1882F
S214002A3852BA2A80227A6980AA710922E188EB7143
S214002A48A980A37A2B7229008C200EF01BF9DFE7E9
S214002A58F22BEBD141F60F50FFF7DEFD41F22100D5
S214002A68FFF7EAFD0623E1E7A389074A5BBA2B804E
S214002A78A37B1370AB70E37B0622EB70238AAB80D4
S214002A88E1E7C046B5500020B450002007B56B46B5
S214002A981871597102228F2001A90EF0F3F807BDAC
S214002AA8002110B50A00C0200EF001F90721021116
S214002AB843100A400B4012015800104310BD000096
S214002AC813B501AC0122210015200EF0F0F8064BD4
S214002AD822781B7852085BB29B1A181C803301DADE
S214002AE84FF6807000B216BD704F002037B505004F
S214002AF80C000222132001A90EF0D9F8094B1B7806
S214002B08012B0CD1084B1B78012B08D140F2027020
S214002B180EF011F96B4628705B79237037BD6B464B
S214002B281879F7E7B5500020B4500020F7B56B4683
S214002B380C00DF1D0500390020001600FFF7D6FF41
S214002B4822780120B24204D8387829000EF00EF90F
S214002B580020FEBD37B5040001AD0322290014206D
S214002B680EF0A5F8254B1B7823704BB1012B24D00B
S214002B781B220021601C15F00BF90F2323701BE0A5
S214002B8800222B7823711E4B9A566B7892B25B08FC
S214002B98D31A191C1BB2803301DA4FF680712181D3
S214002BA8AB785B08D31A1A1C1BB2803301DA4FF6CF
S214002BB880720023E280E36037BD0022104B9A56ED
S214002BC82B7892B25B08D31A191C1BB2803301DA31
S214002BD84FF6807101232182EB5602339B10A374B3
S214002BE8AB785B08D31A1A1C1BB2803301DA4FF68F
S214002BF88072044BA2821B68A361DDE7B5500020F3
S214002C08704F0020B0500020002313B501AC2100FF
S214002C180222172023800EF04AF80123627851100A
S214002C28100019409940184008439110194089002F
S214002C380843D1101940C900084311111940090169
S214002C48084351111940921149011A40084392014C
S214002C581043227813401B02184316BD002307B5FD
S214002C68022201A907200B800EF00CF807BD07B555
S214002C78022201A940BA088010000EF003F807BD2A
S214002C8807B56B46D8710E48FEF784FA0D48FEF76E
S214002C9881FA6B460122D91D80200DF0F3FF6B46A2
S214002CA8DA79094B4AB9013220201A70FFF792FDEB
S214002CB84FF6FF70FFF7DBFF07BD02221A70F7E733
S214002CC8584E0020444E00200940002010B504004D
S214002CD80DF0ACFF20000DF089FF0DF0C7FF0020B7
S214002CE8FFF7CEFF0DF090FF0EF064F80120FFF717
S214002CF895FD0122044B1A700023044A1370044AF7
S214002D081370044A136010BD09400020B550002017
S214002D18A8500020AC50002013B5041CFFF7C0FED6
S214002D2860230340202B02D00020FFF7A9FF0EF0F7
S214002D3881F86B46A207D91D6307DB0FD20F520036
S214002D489B001343E207D20F1343842001220B7023
S214002D580DF098FF04210B00074A2340214202D0B9
S214002D680023137013BD08211170044A1370044A17
S214002D781360044AF5E7C04609400020A850002022
S214002D88AC500020B550002037B50EF00DF888B9C5
S214002D986B460122D91D80300A70074D0DF072FF70
S214002DA8064B40F61110E97A5C6CA04740F6121004
S214002DB8297BA04737BDC046704F00207494010099
S214002DC813B504220400094B09481A70FEF7E2F905
S214002DD8FFF7DAFF01A9230C0B700322230A8320CE
S214002DE84B708C700DF04EFF13BDC0460940002096
S214002DF8444E002010B51400FFF7FEFB2000FFF736
S214002E08DFFF10BD052213B504000B4B0B481A70E4
S214002E18FEF7C0F9942140F6AC000DF06FFFFFF7FF
S214002E28B3FF01A9230C0B700322230A82204B70E0
S214002E388C700DF027FF13BD09400020584E002067
S214002E48F0B540F6E206002785B0300003970DF08F
S214002E5872FFFE2140F6E5050140040030000DF043
S214002E684DFF28000DF067FF7F21019001402800E4
S214002E780DF044FF0B48FFF7C5FF042203A940F6F0
S214002E8819000DF044FF3800FFF7FAFE2100300065
S214002E980DF034FF280001990DF030FF039805B0B7
S214002EA8F0BDC046FFFFFF00052213B504000B4B1C
S214002EB80B481A70FEF76EF9962140F6AC000DF036
S214002EC81DFFFFF761FF01A9230C0B700322230ADD
S214002ED882204B708C700DF0D5FE13BD0940002083
S214002EE8584E002037B505000C00FFF74DFF6A4620
S214002EF82B0C13702B0A5370230C64BA9570D3707E
S214002F0894806946062294200DF0BCFE0622014BEA
S214002F181A7037BD0940002010B5FFF735FF0022AC
S214002F28C52011000DF0AEFE0722014B1A7010BD29
S214002F380940002010B5FFF727FF0022D120110016
S214002F480DF0A0FE0422014B1A7010BD09400020A7
S214002F5810B5FFF719FF0022D22011000DF092FEDF
S214002F680422014B1A7010BD0940002010B501203C
S214002F78FFF754FC0DF048FE0120FFF7BEFB0122C8
S214002F88014B1A7010BDC04609400020014B186856
S214002F987047C046AC500020024B1B780BB9024A5B
S214002FA8D3817047B6500020704F002003000020E1
S214002FB80A2B04D840F27D60D84001231840704799
S214002FC8F7B5294B05009E7B3000FFF7EFFF019011
S214002FD8002846D00027254C14223900244827709C
S214002FE8676014F0D5FE18223900224814F0D0FE87
S214002FF82148037823B1230046331B78B34230D0E8
S2140030082300463300221E700023A263E3630023D6
S214003018A11D2200CB87802147321170220048323A
S214003028137040F2013C1A00144923640F78B74223
S2140030380ED101273D420BD00B2A08D8104FD300DB
S214003048D951DB19674601329F80019BD2B26D08C1
S2140030580C4F2C31B942E9D10BB148342270012308
S21400306803700198FEBDC046704F0020B85000207F
S214003078C0500020D4500020B65000201095010003
S214003088085100200C9A01004A425141094A494217
S214003098114042F2107289180300C8430A2B07D859
S2140030A8054AD35C054A9B009B58C81803B9C84311
S2140030B87047C046F0D8FFFFB09301003493010074
S2140030C810B5040008002CB1012C09D12100FFF727
S2140030D8DBFF10BD500042F210729B18C018F8E7CC
S2140030E801204042F5E70000F7B51B4ACE00B218AB
S2140030F8127903000120D2B100229C5EDD6884426A
S21400310816D100219868FFF7BFFF134B134A9B5947
S21400311840F20C0C2A331B781049DB009A5C5B18CB
S21400312801920022019ED1B28E4203D80420FEBD31
S2140031385868EAE7614651435F687E18795EA1429F
S21400314805D17168A94202D1B168814201D0013225
S214003158E8E70020EBE7C046085100200C9A01007B
S21400316803000D48D200125830B5546802209C421D
S21400317811D895689D420ED3D2681B1BB3FBF2F498
S21400318854431D1BA34206D12800012A03D08A42B5
S21400319892415242500030BD08510020044BC900ED
S2140031A8CB585B6983428041404200017047C04665
S2140031B808510020F8B51A4C0020236C63B3A31DF1
S2140031C8DB8F184DDB005B59188B28B3FEF7E8F841
S2140031D80023226C06000F00A06BE16B8018594193
S2140031E80222002312184B41BB4216D801D1B24224
S2140031F813D802225242D317121A8B4192197B41D6
S2140032080634E18F0120C9006958098B0BB9914231
S21400321800D80020800180B2F8BD00220023EFE726
S214003228B8500020085100200300002082B001900A
S214003238D1B142F20F7291420CD840F2E732914275
S2140032480AD9013242F210700192019A401AB0FB74
S214003258F2F0584302B0704764226329F2D80A2273
S2140032680929EFD80122EDE70121FBE7F8B51F4C45
S2140032780020236CABB3A31DDB8F1D4DDB005B5911
S214003288188D70B3FEF78CF8A66BE76B0B00020080
S2140032981900236C10009C461A000023B6185F41DC
S2140032A80222002392197B418B421BD801D182420D
S2140032B818D802225242D317921BBB4112184B4110
S2140032C816001F000634E38F6046DB00EB58198DA6
S2140032D8FFF7AAFF01230FB9B04200D80023580110
S2140032E880B2F8BD00260027ECE7C046B85000209C
S2140032F808510020124AF0B5130004004633197826
S2140033084832104B1278DD7B0F4B0639D200C9B213
S214003318D218934201D10020F0BD012905D825B95D
S21400332818682A300078022808D0187930B11E6844
S2140033387768A74202D8B668A642EDD20833E8E70F
S214003348B8500020704F00200851002073B5204D5B
S214003358060001A80C000DF0BFF92A78531CDBB252
S2140033682B700AB90DF0DCF901A80DF0BAF9701E39
S214003378042809D813F078FD03161A2128005022CD
S2140033882100144814F06DFD01A80DF0A5F92B785E
S214003398013BDBB22B700BB90DF0D2F901A80DF08A
S2140033A8A0F973BD22780B4B1A70EDE7094B08336A
S2140033B807CC07C306CC06C3E6E7064B1C3307CC88
S2140033C807C307CC07C3DFE72268024B5A60DBE770
S2140033D880660020B850002007B5019001A9052096
S2140033E8FFF7B4FF00200EBDF0B506000D008BB049
S2140033F8019311AB1B880092029313AB1B78122221
S214003408039315AB1F7804AB0021981D14F0C0FC7D
S214003418009B05AC0793019B21002373029B0320A6
S214003428E381039B2680069523746774FFF78EFF57
S21400343800200BB0F0BD0000F0B50C00060015002B
S2140034488DB0019312AB04CB00211B780292039334
S21400345814AB1B881522049315AB1B78059316AB83
S2140034681F7806ABD81C14F093FC06AB1E809C7025
S214003478019B039A0893029B0420099306AB1A74CF
S214003488049A19005A82059A5F751A750795FFF708
S2140034985DFF0020024B47331C700DB0F0BDC046E0
S2140034A8B850002073B5214D060001A80C000DF099
S2140034B813F92A78531CDBB22B700AB90DF030F9D1
S2140034C801A80DF00EF9701E042809D813F0CCFCDC
S2140034D803161A222A0050222000154914F0C1FCAF
S2140034E801A80DF0F9F82B78013BDBB22B700BB96D
S2140034F80DF026F901A80DF0F4F873BD0C4B1B78F7
S2140035082370EDE722000A4B083343CB43C203CBB4
S21400351803C2E5E72200064B1C3343CB43C213CB5A
S21400352813C2DDE7024B5B682360D9E7806600209C
S214003538B8500020F0B59BB014AD18220400002146
S2140035480EA814F025FC29000420FFF7ABFF052081
S2140035580CA9FFF7A7FF0023EE5EA968EB6830000A
S2140035686A68FFF7ADFDF3B202936D4B08905B6A8D
S2140035782100029898476B4B049048331B786A4E94
S2140035880793684B46331B78063BDBB20593674BBD
S214003598DB7B06930C9B03930EAB019300230093EF
S2140035A86B461F78079BBB4200D8A2E0059B012B01
S2140035B807D8069B2BB933682A331B78022B00D111
S2140035C8A0E03379002B00D19CE03A0008990398D4
S2140035D8FFF7C6FD019B3900099028001C88FFF7F5
S2140035E883FD099B3900034304981C43FFF7D6FD67
S2140035F8A4B2019B0443A4B21C80002C00D081E036
S214003608FFF734FE0400FFF7D5FD009B04435B007C
S2140036181800019310230AA9A4B2C9180C52DCBBDF
S2140036280099414BCE009A5940F2E733D2699A4244
S21400363832D93B4A0DA9D56F0120A8470AA90331FC
S2140036482000A847384B364A9959956F24310120EF
S214003658A847354B711DC9182000A84740F2E83125
S214003668314B9A59D3692020125EB3FBF1F32C49EB
S2140036789BB20E6902980399B04706000DA901206F
S214003688A8470AA920000331A8472EB9102280238C
S21400369801980AA98A181352009B0EAA5B009B5A27
S2140036A813BBFDF77DFE1F4B049A9863D9631A6413
S2140036B80633DF87009B1C4ADB00D35814A91B7C03
S2140036C8887889781A1C49B25BB28B4200DD021CE6
S2140036D80021144B50B247335956814202D01A7013
S2140036E80DF056FB002006E06022134212D11B069E
S2140036F813D4FF276520FF2318403B401B021843BE
S2140037081BB0F0BD009B083601330093019B0233C3
S214003718019345E7FF276620EDE7FF276720EAE7DE
S21400372874940100B850002008510020704F002003
S21400373837B56B46DD1C02200C002900FFF7B2FEE9
S2140037482B7803201BB92000FFF7F4FEC0B23EBD5D
S214003758F0B599B0182200210DAC12A814F018FB89
S21400376821000320FFF79EFE05200CA9FFF79AFE0E
S2140037780022A35E019303BB63680393404B0027B4
S2140037881A0048321278463309921B783D4D063B9C
S214003798DBB205933C4BDB7B06930C9B079312AB83
S2140037A80293099BBB4210D1FF276420FF231840D1
S2140037B83B401B02184319B0F0BD002361681A008D
S2140037C80198FFF77DFC0390D8E7059B012B0DD8E1
S2140037D8069B5BB92B682A331B78022B06D1029B03
S2140037E801370233FFB208350293DAE72B79002B4C
S2140037F8F5D03A0003990798FFF7B2FC029B1B889E
S2140038081843029B84B21C80002CE8D12B681F4A00
S2140038182A331E78F600B35CB118019A0493230085
S214003828012A25D121000E98FFF72EFC40F20C0C39
S2140038380F9B0893154BF3180499E2B28A42CED22E
S214003848624662435E68B118B25E012A06D14A68CB
S214003858089E964202D18A6882420ED00134EBE76F
S2140038680C2058434A680133825E0198904204D07F
S2140038780498DAB29042F3D8B1E7002096E7C0463B
S214003888B850002008510020704F00200C9A010004
S21400389813B56B46DC1C02202100FFF703FE2378D5
S2140038A8032013B9FFF754FFC0B216BD03207047B4
S2140038B803207047F8B52E4C012523002200463316
S2140038C8197848322B4B1278DE7B2B4B0639D20000
S2140038D8C9B2D218934205D1002D46D1236C83B9BC
S2140038E80020F8BD012905D826B918682A300078BE
S2140038F8022804D0187947427841404205400833E8
S214003908E8E7FDF74DFD0222002306000F00A06B36
S214003918E16B12184B419F4202D823D1964221D917
S21400392802225242D317121A8B41B6185F41256CF1
S2140039380634E38F104ADB00D4582800218DFFF7A1
S21400394873FC218B0200814200D90A00002328005C
S214003958002180185941B94202D8C1D1B042BFD916
S214003968801BBEE700260027E1E701204042B8E7B3
S214003978B8500020704F002008510020034B10B5A7
S2140039881B6D13B11B6803B1984710BD8C510020FE
S21400399810B5034C246D14B1A46804B1A04710BD3B
S2140039A88C510020034B10B51B6D13B15B6803B137
S2140039B8984710BD8C510020034B10B51B6D13B1F2
S2140039C81B6903B1984710BD8C510020034B10B5F6
S2140039D81B6D13B1DB6803B1984710BD8C510020EE
S2140039E802000220012A0AD8110012318140044B35
S2140039F80130C95819B10020196554331A70704738
S214003A088C510020F8B505000F000224012821D8A3
S214003A1801B31148114B0360114B8360114B0361CE
S214003A28114B4360114BC360114B1B689847040049
S214003A3880B924220F4B6E421640F6183000390023
S214003A480DF077FD2B000B4A12339B0028009E5082
S214003A58FFF7C6FF2000F8BD685100208539000032
S214003A6899390000C1390000AD390000D539000089
S214003A78749401008C510020F0B50B27002491B0F7
S214003A88039302ABFF1805001000160002913C7065
S214003A9814F0F0F9039B01300693169B05960993DC
S214003AA80123089007970A93189B9C422CD2189BD0
S214003AB81F1B08AB132F16D9179A009312190192D9
S214003AC828000322029905AB00F0F6F818B1012089
S214003AD8404211B0F0BD0B2202ABD2181378143452
S214003AE801331370E0E70BAE009303222800029917
S214003AF8019605AB00F0E0F80028E8D1179B3A00DD
S214003B083100181914F0ADF90020E2E770B500246A
S214003B189C4200D170BD0D5D165D7540055501349B
S214003B28F6E710B50C22002114F032F910BD00009B
S214003B3810B540B1036833B11B78052B03D1406834
S214003B4800F08EF910BD0148FCE7C04600AFFFFF45
S214003B5810B540B1036833B11B78052B03D1406814
S214003B6800F00CFF10BD0148FCE7C04600AFFFFFA1
S214003B7810B540B1036833B11B78052B03D14068F4
S214003B8800F037FF10BD0148FCE7C04600AFFFFF56
S214003B9810B530B1036823B1836813B1FFF7D8FFB7
S214003BA810BD0148FCE7C04600AFFFFFF0B50400B3
S214003BB80E0087B000B30368F3B18568E5B101A9C4
S214003BC89F78FFF7D5FFA8B92000FFF7B1FF88B99F
S214003BD8236820009A78E919FFF7BAFF50B92368D6
S214003BE820005A7801A9FFF7B3FF18B93100200062
S214003BF8FFF7BEFF07B0F0BD0048FBE700AFFFFFCA
S214003C0810B50A00002114F0C3F810BDF0B589B04D
S214003C1805001600019100284AD00368002B47D0FB
S214003C288268002A44D09B78B34214D2FFF780FFFC
S214003C380400B0BB320028000199FFF789FF040092
S214003C4878BB280003A9FFF793FF040048BB2B683E
S214003C585E7803AB01932B68AF689A7836213800F4
S214003C68BC1814F095F82B685C219A78200014F09C
S214003C788FF8330039003800019AFFF747FF210014
S214003C8820003300019AFFF741FF2800FFF750FF96
S214003C98040030B92B68390028009A78FFF758FFD7
S214003CA80400142103A8FFF7ABFF200009B0F0BDFD
S214003CB8004CFAE700AFFFFFF0B50D000400BDB0FA
S214003CC802A800920193FFF72CFF194B2A00210047
S214003CD805AF1CAE02A8039704960293FFF796FF5B
S214003CE804000500D0B138005C21FFF789FF3000DA
S214003CF88021FFF785FF02A80C21FFF781FF20002F
S214003D083DB0F0BD429A0199AB00D258C95802A8F6
S214003D18FFF73EFF04000028E5D10135009BAB42C3
S214003D28F0D1439902A8FFF741FF0400DBE7C0463D
S214003D381C9B01000200405C5118CB780006184313
S214003D484B781B0418438B781B0218437047030EE6
S214003D588B548918030C4B70030A8B70C870704715
S214003D6870B51D001B23D841084E059B049C9B1963
S214003D78C01823686A40C0180B68134002226B40BC
S214003D88C01820600B68D3410B6070BD9979825AC1
S214003D985A400B6830B55A401B23D841064D049B41
S214003DA8039C5B19C018236812189B18022223600C
S214003DB80B68D3410B6030BDA1EBD96EF0B51B265E
S214003DC8F0410A4F069E059CF6190D68801926686C
S214003DD880192E00164333402A4013430222C01887
S214003DE820600B68D3410B60F0BDC046DCBC1B8F5F
S214003DF85A400B6830B55A401B23D841064D049BE1
S214003E08039C5B19C018236812189B1802222360AB
S214003E180B68D3410B6030BDD6C162CA030070B5CB
S214003E280F260500C41E083B344033403540A40026
S214003E389B005B586458AD004D195C402B680E38E3
S214003E485C401F2330408000405860401060D841D6
S214003E58286070BD10B510B15C21FFF7D1FE10BD0B
S214003E6803000020064A18609A60064A5860DA601E
S214003E78054A1A61054A5A61054A9A617047C0465A
S214003E880123456789ABCDEFFEDCBA98765432102D
S214003E98F0E1D2C3F0B50D00ADB0039000212800C4
S214003EA8FFF748FF0421070017902800FFF742FF96
S214003EB80821060018902800FFF73CFF0C21040094
S214003EC819902800FFF736FF102107901A9028004F
S214003ED8FFF730FF142108901B902800FFF72AFFF1
S214003EE8182109901C902800FFF724FF1C210A902F
S214003EF81D902800FFF71EFF20210B901E9028001B
S214003F08FFF718FF24210C901F902800FFF712FFD8
S214003F1828210D9020902800FFF70CFF2C210E90EA
S214003F2821902800FFF706FF30210F9022902800E6
S214003F38FFF700FF3421109023902800FFF7FAFEC1
S214003F483821119024902800FFF7F4FE3C211290A7
S214003F5825902800FFF7EEFE039B13909B6826909B
S214003F6805932793039B28A9DB6814932893039B40
S214003F781B6904932993039B5B6906932A93039B07
S214003F88049A9B69059815932B932BAB019700937E
S214003F98069BFFF7E5FE289D2AAB2A002B9801967C
S214003FA8009327A9049BFFF7DBFE279E019429AC04
S214003FB82B0032002A982BA90094FFF7D1FE079B06
S214003FC82B9D019328AB2A00299800932AA9330031
S214003FD8FFF7C6FE089B2A9E019327AB32002100F6
S214003FE8289800932B00FFF7BBFE099B299D019399
S214003FF82BAB2A002798009328A93300FFF7B0FEBA
S2140040080A9B289E01932AAB32002B98009327A977
S2140040182B00FFF7A5FE279D0B9B2A002A980193E5
S2140040282BA933000094FFF79BFE0C9B2B9E019355
S21400403828AB3200299800932AA92B00FFF790FE98
S2140040480D9B2A9D019327AB2A00210028980093F0
S2140040583300FFF785FE0E9B299E01932BAB32009B
S2140040682798009328A92B00FFF77AFE0F9B289D18
S21400407801932AAB2A002B98009327A93300FFF751
S2140040886FFE279E109B32002A9801932BA92B00BF
S2140040980094FFF765FE119B2B9D019328AB2A0021
S2140040A8299800932AA93300FFF75AFE129B2A9EE6
S2140040B8019327AB32002100289800932B00FFF7C6
S2140040C84FFE139B299D01932BAB2A00279800933C
S2140040D828A93300FFF744FE16AA17A910202B9E1E
S2140040E8289FFFF79BFE2AAB3A000190009330000A
S2140040F82B0027A9FFF734FE16AA17A911202A9D18
S214004108279E289FFFF78AFE3B00320001902BA9C6
S21400411828000094FFF724FE16AA17A91220299D46
S2140041282B9E279FFFF77AFE28AB3200019000935C
S21400413828003B002AA9FFF713FE16AA17A9132082
S214004148289D2A9E2B9FFFF769FE27AB3200210089
S2140041580190009328003B00FFF702FE16AA17A955
S2140041681420279D299E2A9FFFF758FE2BAB320066
S2140041780190009328003B0028A9FFF709FE16AA1D
S21400418817A915202B9D289E299FFFF747FE2AABC7
S21400419832000190009328003B0027A9FFF7F8FD9E
S2140041A816AA17A916202A9D279E289FFFF736FECF
S2140041B83B00320001902BA928000094FFF7E8FD89
S2140041C816AA17A91720299D2B9E279FFFF726FEBC
S2140041D828AB32000190009328003B002AA9FFF77D
S2140041E8D7FD16AA17A91820289D2A9E2B9FFFF7E9
S2140041F815FE27AB320021000190009328003B00F3
S214004208FFF7C6FD16AA17A91920279D299E2A9FDB
S214004218FFF704FE2BAB32000190009328003B000A
S21400422828A9FFF7B5FD16AA17A91A202B9D289EC0
S214004238299FFFF7F3FD2AAB320001900093280070
S2140042483B0027A9FFF7A4FD16AA17A91B202A9D3D
S214004258279E289FFFF7E2FD3B00320001902BA91E
S21400426828000094FFF794FD16AA17A91C20299D7C
S2140042782B9E279FFFF7D2FD28AB320001900093B4
S21400428828003B002AA9FFF783FD16AA17A91D20B8
S214004298289D2A9E2B9FFFF7C1FD27AB32002100E1
S2140042A80190009328003B00FFF772FD16AA17A995
S2140042B81E20279D299E2A9FFFF7B0FD2BAB3200B4
S2140042C80190009328003B0028A9FFF761FD16AA75
S2140042D817A91F202B9D289E299FFFF79FFD2AAB15
S2140042E832000190009328003B0027A9FFF750FDF5
S2140042F816AA17A920202A9D279E289FFFF78EFD1D
S2140043083B00320001902BA928000094FFF740FDDF
S21400431816AA17A92120299D2B9E279FFFF77EFD09
S21400432828AB32000190009328003B002AA9FFF72B
S2140043382FFD16AA17A92220289D2A9E2B9FFFF735
S2140043486DFD27AB320021000190009328003B004A
S214004358FFF71EFD16AA17A92320279D299E2A9F28
S214004368FFF75CFD2BAB32000190009328003B0062
S21400437828A9FFF70DFD16AA17A924202B9D289E0D
S214004388299FFFF74BFD2AAB3200019000932800C7
S2140043983B0027A9FFF7FCFC16AA17A925202A9D8B
S2140043A8279E289FFFF73AFD3B00320001902BA975
S2140043B828000094FFF7ECFC16AA17A92620299DCA
S2140043C82B9E279FFFF72AFD28AB3200019000930B
S2140043D828003B002AA9FFF7DBFC16AA17A9272006
S2140043E8289D2A9E2B9FFFF719FD27AB3200210038
S2140043F80190009328003B00FFF7CAFC16AA17A9ED
S2140044082820279D299E2A9FFFF708FD2BAB320000
S2140044180190009328003B0028A9FFF7CFFC16AAB6
S21400442817A929202B9D289E299FFFF7F7FC2AAB62
S21400443832000190009328003B0027A9FFF7BEFC36
S21400444816AA17A92A202A9D279E289FFFF7E6FC6A
S2140044583B00320001902BA928000094FFF7AEFC21
S21400446816AA17A92B20299D2B9E279FFFF7D6FC57
S21400447828AB32000190009328003B002AA9FFF7DA
S2140044889DFC16AA17A92C20289D2A9E2B9FFFF76D
S214004498C5FC27AB320021000190009328003B00A2
S2140044A8FFF78CFC16AA17A92D20279D299E2A9F60
S2140044B8FFF7B4FC2BAB32000190009328003B00BA
S2140044C828A9FFF77BFC16AA17A92E202B9D289E45
S2140044D8299FFFF7A3FC2AAB32000190009328001F
S2140044E83B0027A9FFF76AFC16AA17A92F202A9DC2
S2140044F8279E289FFFF792FC3B00320001902BA9CD
S21400450828000094FFF75AFC16AA17A93020299D00
S2140045182B9E279FFFF782FC28AB32000190009362
S21400452828003B002AA9FFF749FC16AA17A931203C
S214004538289D2A9E2B9FFFF771FC27AB320021008F
S2140045480190009328003B00FFF738FC16AA17A92D
S2140045583220279D299E2A9FFFF760FC2BAB32004E
S2140045680190009328003B0028A9FFF727FC16AA0D
S21400457817A933202B9D289E299FFFF74FFC2AABAF
S21400458832000190009328003B0027A9FFF716FC8D
S21400459816AA17A934202A9D279E289FFFF73EFCB7
S2140045A83B00320001902BA928000094FFF706FC78
S2140045B816AA17A93520299D2B9E279FFFF72EFCA4
S2140045C828AB32000190009328003B002AA9FFF789
S2140045D8F5FB16AA17A93620289D2A9E2B9FFFF7BB
S2140045E81DFC27AB320021000190009328003B00F9
S2140045F8FFF7E4FB16AA17A93720279D299E2A9FAE
S214004608FFF70CFC2BAB32000190009328003B0010
S21400461828A9FFF7D3FB16AA17A938202B9D289E92
S214004628299FFFF7FBFB2AAB320001900093280076
S2140046383B0027A9FFF7C2FB16AA17A939202A9D0F
S214004648279E289FFFF7EAFB3B00320001902BA924
S21400465828000094FFF7B2FB16AA17A93A20299D4E
S2140046682B9E279FFFF7DAFB28AB320001900093BA
S21400467828003B002AA9FFF7A1FB16AA17A93B208A
S214004688289D2A9E2B9FFFF7C9FB27AB32002100E7
S2140046980190009328003B00FFF790FB16AA17A985
S2140046A83C20279D299E2A9FFFF7B8FB2BAB32009C
S2140046B80190009328003B0028A9FFF799FB16AA4B
S2140046C817A93D202B9D289E299FFFF7A7FB2AABFD
S2140046D832000190009328003B0027A9FFF788FBCB
S2140046E816AA17A93E202A9D279E289FFFF796FB05
S2140046F83B00320001902BA928000094FFF778FBB6
S21400470816AA17A93F20299D2B9E279FFFF786FBF1
S21400471828AB32000190009328003B002AA9FFF737
S21400472867FB16AA17A94020289D2A9E2B9FFFF7ED
S21400473875FB27AB320021000190009328003B0050
S214004748FFF756FB16AA17A94120279D299E2A9FE0
S214004758FFF764FB2BAB32000190009328003B0068
S21400476828A9FFF745FB16AA17A942202B9D289EC5
S214004778299FFFF753FB2AAB3200019000932800CD
S2140047883B0027A9FFF734FB16AA17A943202A9D42
S214004798279E289FFFF742FB3B00320001902BA97B
S2140047A828000094FFF724FB16AA17A94420299D81
S2140047B82B9E279FFFF732FB28AB32000190009311
S2140047C828003B002AA9FFF713FB16AA17A94520BD
S2140047D8289D2A9E2B9FFFF721FB27AB320021003E
S2140047E80190009328003B00FFF702FB16AA17A9C2
S2140047F84620279D299E2A9FFFF710FB2BAB3200E9
S2140048080190009328003B0028A9FFF7F1FA16AAA2
S21400481817A947202B9D289E299FFFF7FFFA2AAB4A
S21400482832000190009328003B0027A9FFF7E0FA22
S21400483816AA17A948202A9D279E289FFFF7EEFA52
S2140048483B00320001902BA928000094FFF7D0FA0D
S21400485816AA17A94920299D2B9E279FFFF7DEFA3F
S21400486828AB32000190009328003B002AA9FFF7E6
S214004878BFFA16AA17A94A20289D2A9E2B9FFFF73B
S214004888CDFA27AB320021000190009328003B00A8
S214004898FFF7AEFA16AA17A94B20279D299E2A9F2E
S2140048A8FFF7BCFA2BAB32000190009328003B00C0
S2140048B828A9FFF79DFA16AA17A94C202B9D289E13
S2140048C8299FFFF7ABFA2AAB320001900093280025
S2140048D83B0027A9FFF78CFA16AA17A94D202A9D90
S2140048E8279E289FFFF79AFA3B00320001902BA9D3
S2140048F828000094FFF77CFA16AA17A94E20299DCF
S2140049082B9E279FFFF78AFA28AB32000190009368
S21400491828003B002AA9FFF76BFA16AA17A94F200A
S214004928289D2A9E2B9FFFF779FA27AB3200210095
S2140049380190009328003B00FFF75AFA059A279B38
S21400494816A89B18039A58219360149A289B9B18BC
S214004958039AD360049A299B9B18039A1361069AB4
S2140049682A9B9B18039A5361159A2B9B9B18039AAC
S2140049789361FFF745F900202DB0F0BDF7B50400A8
S214004988160000919AB33F2503681D409B180360E4
S214004998934202D2436801334360B5B140277F1B78
S2140049A8BE4212D323001C3300993A0058190193CB
S2140049B813F057FA20000199FFF76CFAC0B9761978
S2140049C80500009B403EDB190093370004E02000FA
S2140049D8FFF760FA60B9403F009B9919C91B3F2F43
S2140049E8F5D827B11C343A00601913F03AFA0020BB
S2140049F8FEBDF8B504003F22270003680E001340EA
S214004A08581C4132E3181A771C37382837D8002143
S214004A18483A121A381813F0BBF9256860686B0F05
S214004A28C000184338223900FFF791F9E8003C2205
S214004A383900FFF78CF939002000FFF72BFA05003C
S214004A48C0B902003100A068FFF781F904223100DE
S214004A58E068FFF77CF9082231002069FFF777F94C
S214004A680C2231006069FFF772F910223100A06944
S214004A78FFF76DF92000FFF7EDF92800F8BD402292
S214004A880021121A381813F083F939002000FFF7AE
S214004A9801FA05000028EDD1010038223800BAE7EF
S214004AA840F2E41201230249885C03438B547047A2
S214004AB8E451002040F2E41202230249885C0343D2
S214004AC88B547047E451002010B5204C23006A33FD
S214004AD81A7823004433187852070138520F0828EA
S214004AE812D812F0C1F91C1C05121416181A2B003D
S214004AF80023012A15D0032A20D00021443414228A
S214004B08134821700CF02AFD10BD0223F1E7032399
S214004B18EFE70523EDE70623EBE70723E9E704239A
S214004B28E7E70C49A26E0A400B498A42E5D040F2F4
S214004B3870120A48A35463689847DEE740F26C137D
S214004B48E35C002BD9D00548E368F5E7E45100207C
S214004B5850530020FF0080001100800054530020AE
S214004B68F0B585B06B466A46164C9F1DA61C3900E4
S214004B78F07F03AB073202F0F9F90D25E8B9631C9C
S214004B88F17FD87F02AA02F007FA0500C0B9230011
S214004B983A7848331A706A462300D27950331A7026
S214004BA8039B094A6365029B0849E364E31CDB7FB1
S214004BB858342370F07F02F00DFA280005B0F0BDD7
S214004BC80E25FAE7E4510020405200203D5200200E
S214004BD8F0B50E270F221A4D87B06F44AE1C390069
S214004BE8F07F05AB6A4402F0C1F90D2418BB6B1CB4
S214004BF8F17FD87F04AA02F0CFF90400F0B940F29A
S214004C0880133A780621EA546B46DA7B40F288131A
S214004C18EA54059A0433EA50049A083BEA50094ACB
S214004C28F07F0092AA6A084B02F0F2F922000749C0
S214004C38F07F02F0CFF9200007B0F0BD0E24FAE7A7
S214004C48E45100208453002080530020885300201D
S214004C5810B5074C02F0D8F8230068331A780549CF
S214004C68054801F085FF10B902234434237010BDAF
S214004C78E45100204E5200202C52002070B50B4DF7
S214004C882B1DDC7F6CB102F0BFF80121084801F04B
S214004C98DDFF040008B102F093F8042320002B700F
S214004CA870BD02F08DF80323F8E7C046E4510020F3
S214004CB864530020094B1A78092A04D0042A02D023
S214004CC80E221A7070470B221A701A006A3212786F
S214004CD89206F7D505224433F3E7C046E451002090
S214004CE8F0B587B0060004240391002800D18CE0B4
S214004CF80368002B00D188E04368002B00D184E0CD
S214004D088368002B00D180E0C368002B7DD0036940
S214004D18002B7AD00A2978D83D4D023C2B78042BF4
S214004D2873D840F21022002128000CF017FC01F07E
S214004D38B3FE0400002868D105AF3900039802F0D6
S214004D488FF80400002860D100F04CFF02F022FA29
S214004D582B00039A40331A70310014222D480CF0A9
S214004D68E8FB2D4E282230002C490CF0E2FB3B884D
S214004D7838785BBA2B840223FB56EA1C284FD37775
S214004D884036284A33703900274BAE1C039202F08F
S214004D98EDF86B1CD87F254AF17F02F0FDF8244910
S214004DA8244AF07F02F016F940F280133A78224837
S214004DB8EA54EA6C0433EA50039B1A7840F28813E4
S214004DC8EA546A6D0433EA5002F014F91B4AF07F7D
S214004DD800921B4B0621AA6A02F01AF9002219490A
S214004DE8F07F02F0F7F840F2E4130022164817495D
S214004DF8EA54FCF79FF916481649FCF79BF901F0A8
S214004E080BF801F0DDFF01232B70200007B0F0BD82
S214004E18E4510020E8510020FC510020209B0100AE
S214004E282C520020345200203852002030520020E5
S214004E383D52002040520020745300208453002026
S214004E488053002088530020CC530020A94A000035
S214004E58E0530020BD4A000070B501240A4D2E78A4
S214004E68A6420DD101F048FE2B003C33187802F01C
S214004E785DF8FFF703FF040020B9300000F0EAFFF2
S214004E88200070BD2E70FBE7E451002010B50B4CD7
S214004E982078042804D811F0E7FF0E07030705005A
S214004EA8022010BD01F08CFF01230020237000F0C3
S214004EB8D1FF0020F5E70120F3E7C046E4510020C3
S214004EC8F0B5BA4E9FB03378022B7AD910AD01F000
S214004ED82FFF280001F034FF2B784BB3DB0605D5EF
S214004EE83378062B00D16EE00E23337004222B781D
S214004EF8134205D03178062900D189E00A3232708B
S214004F081B0708D53378092B00D187E0042B00D17E
S214004F1884E00E23337010AD2C78A30701D5FFF775
S214004F28C9FEE40701D5FFF7C5FE280001F052F8D0
S214004F389F4F10AC20000BF0CFFB3A78531CDBB227
S214004F483B700AB90BF0ECFB20000BF0CAFB40F2F2
S214004F58E41300222000F55CF2540BF0BDFB3B780E
S214004F68013BDBB23B700BB90BF0EAFB20000BF001
S214004F78B8FB002D00D1FBE2EB0705D53378082BEC
S214004F8800D1C9E20E2333703278AD0700D4EFE2C1
S214004F980E230C2A00D0D4E2FFF75AFE0623002878
S214004FA800D0C4E2337073695BB13378033B012BDE
S214004FB807D811A802F0CCF918B920707369200038
S214004FC898471FB0F0BD3300032244331A7001F02F
S214004FD809FF40F2A013F7580BF0E6FE40F2D6336E
S214004FE8FC18012801D00A33FC18FCF7D9F9AA687E
S214004FF8EB68801A9941211ACB436E4CDB1719408F
S2140050082000FCF7C5F92000FCF736F908236CE702
S21400501807213170310044310A7071E740F2A81355
S21400502812AAF25040F2AC1240F2B0172B690021D7
S214005038B350AB8AAC3AF3555F4BFF3A180005936A
S2140050480CF08CFA40F2C4122B690024B35040F2DC
S214005058C813B13A2100F45458480433FF3AF450C0
S2140050680CF07CFA01F0ACFE0A231725337002AB6D
S214005078ED18B31C22002900D87F01F0ABFF04000E
S214005088F0BB4F4BF25D2878039340F2C41340F20E
S214005098AC11F3584B4F4C4D029301970095059B66
S2140050A8715801F094FA040050BB40F2C813F35C40
S2140050B82900009340F2C4133A000598F35800F00C
S2140050C8CFFE424D08222900380012F053FEB0B930
S2140050D840F2B1130722F35C1340032B18D140F2B9
S2140050E8C413F15808780238052800D98DE011F065
S2140050F8CFFE71009000BE00C400ED000601132428
S21400510840F2B1125F21B35C0B40B3540B233370EB
S214005118330044331A78032A0DD1AF32FF32B25C1B
S2140051287F2A06D832006A321278920601D50522FE
S2140051381A70FFF7C9FC002C00D06EE140F2B113DC
S214005148F25CAB3BFF3B1340032B00D005E1CA33B0
S214005158FF33F358002B00D1FFE01B78042B00D157
S214005168D3E0062B00D15EE1022B00D0F5E0164D09
S2140051780CA9280002F0C7F8002800D0EDE02900A6
S214005188124A13480CAB01F072F9002800D0E4E08C
S2140051982100280002F05CF801212800494202F0AC
S2140051A87AF83300012244331A70D6E0E45100201E
S2140051B880660020CC53002095530020B45300206E
S2140051C8AC5300209E53002096530020FC5100202C
S2140051D84C52002033002C331B78B3B140F2C8136E
S2140051E8F35C102B11D91022013108A80CF0A1F994
S2140051F810210CA800F0F8FD002329000093D248DF
S21400520808AB0CAA00F0A2FD58B340F2CC1300225B
S2140052182BE040F2C813F35C102BF6D9013108A82E
S21400522810220CF086F9C84F0CA9380002F047F88F
S2140052380028EAD101232900009338000CAB08AAFD
S21400524800F084FD05000028DFD10100380001F0D9
S214005258FFFF01213800494202F01DF840F274139E
S214005268F55440F2C413F2580833F25050E740F2AF
S214005278C813F35C002BF4D1C7E740F2C813F35CFD
S214005288052BC2D90CAD0522013128000CF051F9C6
S21400529840F275122B789B069B16B35440F2761391
S2140052A86A78F254E9782A79AB78090212040B4333
S2140052B813433200FC32D3671BB1A44A0A3B93421D
S2140052C8A3D840F274130022F254CAE740F2C81377
S2140052D8F35C032B99D90CAD0322280001310CF09E
S2140052E828F96B78AA781B02120413432A7813430A
S2140052F8002BB6D0954A0A3B9342B2D985E740F2CE
S214005308C813F35C002BDCD17FE70CAD2C701307B9
S21400531801D502232B70920604D580232A785B4297
S21400532813432B7008228A49874812F023FD00246D
S21400533800B9B46B40F2A813F358864A1B7C019454
S2140053480295F41CE47F804964B283485BB20094FB
S21400535801F0C9F8002800D123E740F2B114335D04
S21400536810AD5A07520F012A76D0032A00D196E0CC
S2140053783400443423780BBB734B1800059301F0B4
S214005388E9FA2378D3B940F2B112B25C920615D581
S21400539803AA13700122704F029301936D4B1100FC
S2140053A800933800059B00F059FF38B9330059338D
S2140053B83A781B789A4201D8012323703300443385
S2140053C81B78012B29D101F00DFD330040F2C014E3
S2140053D868331B785C4342F6E073E41842F21073B5
S2140053E894FBF3F40BF0E0FC012800D191E040F2C6
S2140053F8DF331C1BFBF7D4FFAA68EB68801A9941B9
S214005408211ACB43554CDB1719402000FBF7C0FF89
S2140054182000FBF731FF0C2333700122002150488F
S2140054280CF09CF877E50CAB1C70110701D502212F
S2140054381970920604D58022197852420A431A70C7
S214005448444C41492200444801F0A7F8002884D17A
S21400545801232C34237080E740F2D01100207054CA
S2140054683949D530FF30315040F2C41170581431E4
S21400547870501039705C14317054E88A02317052DA
S214005488287E02317054D809DB08134040F2E21235
S21400549801317054B3543348B368984768E740F20C
S2140054A8CC13F358002B00D162E740F2C413F1582E
S2140054B80B78022B21D0062B00D059E70CAF38000A
S2140054C801310CF036F87B78BA781B023F78120464
S2140054D813431F43022240F2D0131B49F2542248BA
S2140054E806320CF026F840F2DC1340F2E012F750D1
S2140054F8335D1B07DB0FB35408E0002240F2D013DD
S2140055081149F254184808320CF013F81548336954
S214005518C3E740F2D5336CE701F076FC0021134868
S21400552801F094FB002800D02CE509232BE5102871
S21400553803D01138431E9841C31D320044321370FD
S214005548072333701EE0C04696530020F5FF01007F
S21400555814520020FC5100204C520020E05300203A
S21400556895530020B4530020B853002064530020FD
S21400557832780E2A00D916E546F68043D340DB0774
S21400558800D410E5330044331B780BB1FFF79CFAC0
S21400559840F2CC130022F250FFF770FB03E5C0463A
S2140055A873B504230D0091B11A4C033B227872B1EF
S2140055B8073307280BD811F057FC040C10121416E2
S2140055C8191C0822144928000BF0B3FF0023180002
S2140055D876BD0134E37F2B70F8E70234FAE703342C
S2140055E8F8E70434F6E72C342378F4E70C220B4962
S2140055F8E9E701AE3100012001F086FA0300002831
S214005608E5D123003C3332781978914200D01A70DD
S2140056183C34E9E7E4510020FC51002014520020F5
S214005628F7B504000E0000295AD0304D2B78002B11
S21400563858D0042B03D9062842D0022412E00728A3
S21400564852D811F011FC040A111A1C393D400822E0
S214005658274831000BF06DFF0DE02B1DDB7F022481
S214005668013533B12000FEBD2B1DDB7F002BF9D1A1
S21400567802353378EB770024F4E70335F9E70B783F
S2140056887BB933782F1DFB772B78022BF3D9FFF7DE
S214005698F5FA04000028E5D00023FB77FFF7EEFABA
S2140056A8E0E7FFF795FA04000028DBD1FFF758FA81
S2140056B804000028E5D0D5E70B782C352B70DAE700
S2140056C80C220C48C5E7337801A901200B7001F0BD
S2140056D835FA04000028C5D133783C352B70C1E76D
S2140056E80424BFE70124BDE70824BBE7E4510020F3
S2140056F8FC5100201452002037B505000424A8B138
S2140057080B48033C007888B1013404280ED8069864
S2140057180090280001F0D8FC040038B9280001F0F1
S21400572865F8040010B1280001F018FD20003EBD01
S214005738E45100200B4B10B51B780400012053B130
S2140057480018042B07D83CB1200001F007FD200004
S21400575801F06CF8002010BD01F012FD01F034F8DD
S214005768F8E7C046E4510020F0B50500042487B0E9
S214005778002800D180E04A4E013C3378022B7BD9C2
S214005788042B02D9013C0A2B76D1330044331B780C
S2140057980224002B70D1FFF7E3F90400B8B9FFF72D
S2140057A817FA040098B933780A2B4ED10822280035
S2140057B83C4912F0DFFA023448B917276F4438001C
S2140057C8297B2A7C00F03AFD0400002844D02B7C74
S2140057D85B075ED43378002C51D122000A2B04D103
S2140057E8A833FF33F45CA406E20F78212B7C03ACC5
S2140057F88B43287BA9682B742B4F23702B4B029066
S2140058080191009301212B00380000F027FD0400C9
S214005818002834D13A000F3A3978127833780434AD
S21400582891422CD80122243F3A70E9897232FF321D
S214005838B1520A2B19D0FFF70BFA0400F8B93378DF
S2140058480A2B18D00623337015E0280001F0A6FCB2
S21400585804000028B1D0BAE7330059331C783B78E7
S2140058689C42A4416442A400B1E740F2E413022437
S214005878F35C234203D10024200007B0F0BD3300B8
S214005888002244331A7033780A2BF5D0FFF7F6F95E
S214005898F2E7002CF0D1280000F0D8FF0400EBE770
S2140058A8E4510020965300204C520020FC51002062
S2140058B8F0B50700042489B0002879D0994D013C3A
S2140058C82B78022B74D9FFF74BF9040000286FD108
S2140058D8FFF77EF9040000286AD13C78012C00D135
S2140058E86BE0022C00D1B6E0002C00D017E12B7834
S2140058F8042B02D902340A2B5AD12B0044331B78C6
S2140059080224002B54D13E1D300001F047FC3B7B9F
S21400591804005B0700D5FAE02B78D8B90A2B04D127
S214005928A833FF33EC5CA406E40F102104A800F0AB
S2140059385BFA7D4F00943A0031007C4804AB00F0D7
S2140059485DFD040030B92B780A2B10D0FFF780F9DC
S214005958B8B10400002340F26C12AB542A0044325B
S21400596813702B780A2B23D0FFF788F920E040F233
S214005978E413EA5CE33BFF3B1A421CD12C37013B9D
S2140059883B7004A9300001F0ACFC40F26C13012215
S214005998EA5400220433EA543100043308326448D7
S2140059A8EA540BF0C6FD2B780A2B01D006232B7081
S2140059B8200009B0F0BD1C00CCE72B78042B02D9D8
