S0160000465755706461746553616D706C652E73726563AC
S214002000880F002091000000A9C10300A518000059
S214002010A5180000A5180000A5180000A5180000C7
S214002020000000000000000000000000A5180000EE
S214002030A518000000000000A5180000370E0000DC
S214002040191800001F0F00000000000019180000FB
S2080020509D160000D4
S214002054010000008400000002000000640000008C
S21400206400000020000000200000104000000203D2
S2140020740000002088070020400400000000010340
S2140020849C0F0020A42300200000000310B500F0DD
S2140020942FF801F09FF9FEE7F8B5060000240C2798
S2140020A4124D2B68A34204D80024AB68A3420ED872
S2140020B4F8BD3A0062436B689B185A7AB24204D160
S2140020C405CB0021121A01F035FC0134E8E7EB6871
S2140020D422019B185A7BB24205D118685A6899683F
S2140020E4121A01F02FFC0134DFE7C046540000004A
S2140020F473B5344A344B00209A6001F057F93BF02C
S214002104C7FF6B460024DE1D3470012033783CF094
S214002114CDF8EFF31081012585F310882B4B2C485E
S2140021249A6802409A609A6881F3108829490A6876
S214002134D207D20F32700A68D207D20F32700A68FA
S214002144D207D20F3270EFF3108185F31088802205
S2140021549868520502439A609B6881F310882800A9
S2140021643CF07EF8280001F021F941F200011A4BF8
S2140021741A4A9C801A801A4A20009A60194ADA6021
S214002184194A51849D80FFF787FF3BF06DFF3BF0B3
S214002194C9FF022001F00AF92800FFF77DFF134D5E
S2140021A4134BED1AAD10AC4205DB3CF047F80020AB
S2140021B401F078FB73BD0E4AA3009B181B68984772
S2140021C40134F0E70000000000ED00E0FC6F04407E
S2140021D4FFFFFFEF00080440000D004000A5FFFFCE
S2140021E488070020880F0020FE600040141A0000B4
S2080021F4101A0000B8
S208002400FFFFFFFFD7
S208002404DFAFFFFF43
S214002440BFF34F8F034B044ADA60BFF34F8FC0468B
S214002450FDE7C04600ED00E00400FA0510B500F008
S2140024607BFB00220221044800F06BFB08B9FFF753
S214002470E7FFFF2010BDC046C4210020431E5918A8
S214002480094B70B51C000025FF3465711D00060C55
S214002490FE3580B26E82FC336881D2B2080C89B2F7
S2140024A058626983627570BD00C07E4013B51049DE
S2140024B001900B6B5B0612D57F240E4B5A7D224093
S2140024C05A7500225A7501900B6B5B06D80F002BCD
S2140024D008DA019B2BB1019B013B0193F4E7019BBA
S2140024E00BB9142016BD019B013B0193E1E7C046E2
S2140024F0FCC07E40FFC07E404143032903D98908C3
S21400250001390029FCD1704740F28013A521064A04
S214002510D150C243054BD2B258705A7058705B788F
S214002520834200D1C046704700C07E40FFC07E4058
S214002530F7B544F60033070043F6B0760F4C082094
S214002540A55B0193FFF7E0FF1020B968FFF7D4FF03
S2140025500B4BADB2A353A35B1BB9012D07D00020D4
S214002560FEBD019B3BB1019B013B0193F3E743F6A4
S214002570C873E554F3E71420F2E7C04600C07E4077
S21400258000AAFFFF030000223C3310B51A7043F682
S214002590B073074A0400D35A0BB900F04DFA012273
S2140025A0044B20009A6200229A62FFF7C1FF10BD1A
S2140025B000C07E40FCC07E40F8B50500080016004E
S2140025C01F00FFF773FF0400142804D12800FFF74C
S2140025D0D9FF2000F8BD40F2F0133400044AD35867
S2140025E01C401E42F5D02800FFF7CCFF3C00F0E769
S2140025F000C07E40002310B5934200D110BDCC5CD5
S214002600C4540133F8E737B5104A114901900B6BF3
S2140026101B0613D540F2DC137F25D4582C40D4502B
S2140026200024D45001900B6B1B06D80F002B08DA41
S214002630019B2BB1019B013B0193F4E7019B0BB976
S21400264014203EBD019B013B0193E0E700C07E40A5
S214002650FCC07E40F7B5114D04002B00C66A876AA1
S214002660FE33320C5A82B2B239005A8101A80422D3
S214002670FFF7C0FF236B0437013B23636B469A8842
S2140026802B000436FC33A762E6625A636A46D28899
S214002690FF35DA6381236B75F7BDC04600C07E4008
S2140026A043F6C872002110B50400064B0220995468
S2140026B00549183A9952FFF727FF0320A168FFF74C
S2140026C01BFF10BD00C07E4001AAFFFF8023C26A28
S2140026D070B5DB0204009A4207D2036B02699B08BE
S2140026E0002182630363FFF7DBFF002580260E4B85
S2140026F0F6025D71236B83B10DB1280070BDE36AED
S214002700B34202D22000FFF7A5FF182312222000B2
S214002710A16BFFF751FF0500ECE7002DEDD120007F
S214002720FFF706FFE9E7C046FFC07E40F8B5140095
S2140027300F00050000211E00FFF7B2FF21008322D4
S2140027403800FFF79BFE0334A969A40840F2F8138B
S214002750102228006143FFF72FFF38B9044B2800EA
S214002760DB6A1B07DB0F3370FFF7E2FEF8BDC046DF
S214002770FCC07E40F8B51D000F00002104001600C6
S214002780FFF78EFF2900842238007143FFF776FE9C
S214002790E1691923112220007143FFF70DFF10B9DC
S2140027A02000FFF7C5FEF8BD70B50500406AFFF7CC
S2140027B02AFF0400142804D12800FFF7E3FE2000B7
S2140027C070BD40F2F013064AD258DF3B1400FF3BC0
S2140027D01C401A42F3D02800FFF7D4FE1824EEE778
S2140027E000C07E40F7B50D000021009001922C003D
S2140027F0FFF756FF83270122184B5A71019B184A90
S214002800CBB94FF6FF735363D36340F2DC13154A1C
S2140028100098D750FFF7C8FF0023104A060001377C
S214002820537110B90434872FE5D10098FFF780FE66
S21400283006B13000FEBD6178237809020B4353636E
S214002840631B0C2B06D1EB7BA97B1B020B43019968
S2140028500B43D9E7E178A3780902F9E7FFC07E4089
S214002860FCC07E4000C07E4070B540F2D01340F2FF
S214002870C8160E4C0E4D82B9A259E358D20ADB0A8E
S214002880C00AD202C90ADB02104319436863E9632F
S21400289040F2DC138222E25070BDA259E3586A630C
S2140028A0044A13400343EB63F2E7C04600C07E4091
S2140028B0FCC07E40FF7FFFFFF8B516000C0000212D
S2140028C00500FFF7EDFE8EB1032340F2D812234039
S2140028D0C0240E489B018158A1430024194381500F
S2140028E02800FFF725FE04B12000F8BD01221000E5
S2140028F0074FA04331007A71C003FFF7B5FF2800E9
S214002900FFF752FF7E710400EAE7C04600C07E4033
S214002910FFC07E40F8B50D00002104001700FFF749
S214002920BFFE0123094E2800737100223900FFF70D
S2140029309BFF2000FFF738FF00230500737120007F
S214002940FFF7F6FD05B12800F8BDC046FFC07E4083
S2140029502D4B70B519682D4D0B000200286A2C4CC3
S2140029604001400F8340C3402A48D360834207D8C3
S214002970A34205D02848834202D02848834240D14B
S214002980286A274D4001400F8140C14025481B184A
S214002990B3FBF4F0AB4202D901230340C018214B2D
S2140029A0D060C918B1FBF4F140F2835306204B43C4
S2140029B0B3FBF0F3136140F276334B43B3FBF0F313
S2140029C0536158234B43B3FBF0F39361164B91606E
S2140029D04B43B3FBF0F3D361144B4B43B3FBF0F321
S2140029E01362134B4B43B3FBF0F35362114B1A784D
S2140029F0012A01D1002070BD01221A70FFF77CFD6C
S214002A00F8E740F2F610F6E76822002000E0014002
S214002A1040420F00FF083D0080841E00C0C62D0007
S214002A203F8AF7013F420F00B86A0500C0B00700B2
S214002A3068ED220090C07E4043F6B07310B50400E7
S214002A40074A0849D15281680620FFF755FD102035
S214002A50FFF75AFD0320A168FFF74EFD10BDC046E4
S214002A6000C07E4080AAFFFF70B50400FFF7E4FFB9
S214002A70E3683F2040F2D81209491F2B0BD9203BB0
S214002A805B081F338D58034085432B4320008B5033
S214002A90FFF74EFD70BD1F25013B2B408D58F3E719
S214002AA000C07E400A7810B50B00040041602AB1D1
S214002AB011202200097C185600F056F82300002248
S214002AC03C3320001A70FFF743FF28B92000FFF7B9
S214002AD0CBFF08B9014B236010BDC0464E45504F92
S214002AE070B5040000253C342570C2628162036321
S214002AF0FFF7ECFD70BD70B5002405003C30047097
S214002B008020C002814207D22800FFF70FFE040093
S214002B1010B12800FFF736FD200070BD030010B589
S214002B20040000203C33187080231630DB029942E4
S214002B3006D2C90A40F600032000C902FFF71AFEB3
S214002B4010BD10B509B9012312B1FFF7B5FE030099
S214002B50180010BD0000000001B40248844601BC05
S214002B60604700BF710C000001B40248844601BCF7
S214002B70604700BF05C203003C07002000000000BD
S214002B806C220020D42200203C23002000000000FD
S214002B900000000000000000000000000000000030
S214002BA00000000000000000000000000000000020
S214002BB00000000000000000000000000000000010
S20C002BC0000000000000000008
S214002BC840F2084040F20843C0F20000C0F200039A
S214002BD810B5834205D040F20003C0F2000303B1EB
S214002BE8984710BD40F2084040F20843C0F2000083
S214002BF8C0F200031B1A9A10D90F8918491010B58D
S214002C0829B140F20003C0F2000303B1984710BD93
S214002C1810B540F69C74C2F20004237873B9FFF727
S214002C28CFFF40F20003C0F200032BB140F2084089
S214002C38C0F2000000E000BF0123237010BDC046AC
S214002C4840F20003C0F2000310B54BB140F6A07185
S214002C5840F20840C2F20001C0F2000000E000BFE7
S214002C68FFF7C0FF10BDC04610B5054C23782BB93A
S214002C780449054800F088FE0123237010BDC046AD
S214002C88B80F00200CC30300C421002037B56B46DC
S214002C98C40AE402DD1D2B0040F6000221000648A7
S214002CA800F082FE30B92A78012A03D121000248B2
S214002CB800F062FE3EBDC046C42100200122064B3D
S214002CC8524210B500211A600448413200F030FE26
S214002CD80022034B1A7010BDBC0F0020C41700203A
S214002CE8C017002030B5084D04002B78FF20072BAE
S214002CF809D88C4207D20548DA001450121800206A
S214002D08013351602B7030BDC0170020C417002057
S214002D180139091830B50400FF208C4206D80A4B42
S214002D280A4A18780023984201D1002030BD156859
S214002D388D4202D85568A54203D20133DBB2083269
S214002D48F1E7FF20F2E7C046C0170020C4170020AE
S214002D58F0B585B005000C00029203931AB9FF2659
S214002D68300005B0F0BD0029F9D0FFF7D1FF060006
S214002D780028F4D16B1E1F4FEA0A1B19D202DB0A81
S214002D883A60DB029A42EAD122001B48029900F018
S214002D98D7FD03230193FFF767FF72B6BFF34F8F84
S214002DA8BFF36F8F039B012B1DD023002A00124907
S214002DB8124800F0D9FD002062B6BFF34F8FBFF36C
S214002DC86F8F28B922002900029800F0A3FD30B1C1
S214002DD8019B013BDBB20193002BDCD1FF260123CC
S214002DE85B423B60BCE73868FFF750FF0028DCD042
S214002DF8E2E7C046BC0F0020C00F0020C421002018
S214002E0810B50400FFF730FF72B6BFF34F8FBFF35D
S214002E186F8FE00AC002FFF739FF62B6BFF34F8F25
S214002E28BFF36F8F431E98414042C0B210BD704733
S214002E3810B50249024800F015FB10BD20C3030078
S214002E480422002037B5EFF31080012383F310889F
S214002E58244B196819B9244AD1704031D1701A68C0
S214002E6801321A6080F31088002501241F49204883
S214002E7800F036FC002204211D4800F0BDFC40F29C
S214002E88E83140F2DC503BF055F90121184800F0D3
S214002E987FFC0221164800F07BFC164B64421D6638
S214002EA8154B1D6000F030F800F02FF829002300BD
S214002EB8220012480194009400F028F8104B2900CC
S214002EC81868022240F20043806800F020F82900C3
S214002ED8230022000B4800F01CF8FFF7A9FF00F0BB
S214002EE819F837BD44220020000D044000C3030033
S214002EF8B421002000080440C0080440B018002090
S214002F0838070020041800207047704770470020D4
S214002F187047704770477047F8B506680500002E7A
S214002F2832D0F26834683379A41801220B349443FB
S214002F387279D31A5A425341DEB214481022070057
S214002F480021043F00F0F4FC3C60DEB92378A11CA5
S214002F583B7163787B7133000A78BE689A40083301
S214002F6832430131BA60202BF6D10022A11D0B781E
S214002F78FE689340083233430131FB60202AF6D1BD
S214002F880A343C612F60F8BD014CD6E76421002066
S214002F982C800200F0B58BB0FFF754FF0023824A5E
S214002FA81370814B1F78072F0AD8380000F07AFC78
S214002FB809005900C800E1001C01E601EC01EF0118
S214002FC8FEE7FFF77BFE41F6FF710020FFF78AFE5B
S214002FD8A020764901268002FFF784FEF02076427C
S214002FE831008002FFF77EFE9822714B92021A602B
S214002FF89A2292025A609C2292029A609E22002589
S21400300803276C4B92021A60089609969E23EC00DA
S2140030189B02E4180822200008A900F07BFC90B167
S2140030280022654B65491A600E80208862889042A7
S21400303809D16268013206D11C60ABB2B3FBF7F265
S2140030487A439B1A0B8040F2001301359D42DDD16E
S214003058594B1B681BB99E208002FFF7D1FE01233F
S2140030689DE7574C2C220021200000F061FCA0238D
S2140030789B021B78534901932370534B534A1B7882
S21400308863700B00524D01311B78C800401983400D
S2140030986068034363609142F3D14E4A0B004E4882
S2140030A801311D78CB001B189D40A3681D43A56001
S2140030B89142F3D120000B78202223734B780E30F0
S2140030C802316373454E00F03BFC454B023D3460CD
S2140030D89D4201D9062362E7019B002BFAD0002304
S2140030E843F6FF750893336808A81B78BB420BD2D3
S2140030F8FFF712FF089B3B4A1B689B1832689268CA
S2140031089342E7D102234AE7FFF706FF089A30689A
S2140031189168D36814790078CB18013B8442D9D1DA
S2140031285279BA42D6D141F6FF72934205D9A942DE
S214003138D0D9982292029342CCD20137FFB2D2E776
S2140031480022264BA024196813008868A40283422C
S21400315807D10B8AC8891B0403439A42BAD10323B2
S2140031681DE71D000C3D1F2D01D91D5D52190133A9
S214003178EDE7114D2B68A3B1104A188812880C4940
S21400318892005258012340F60001C002FFF7E0FD06
S214003198040008B1072302E79E208002FFF730FEEE
S2140031A82C600423FBE6C046A8210020FFBF0300CE
S2140031B854210020502100204C21002048210020C6
S2140031C878210020028002000180020006800200AA
S2140031D8E8FFEBFF0A800200C8FFEBFF742100201F
S2140031E8FE3F01000080FDFF002307A80793FFF7B6
S2140031F893FE41F6FF72079B9C68944201D8013201
S214003208A418DA681B699E26049300230192B60266
S2140032180293E30ADB02190040F600025D480593B4
S21400322800F08EFB00232500039340F60002019B66
S2140032386805400DC318019F934200D9171A554BCD
S2140032483A00C018049900F07BFB40F600039F4242
S21400325801D101230393019BDB1B0193002B68D04C
S214003268049BED19DB190493039B33BB029B4A4866
S2140032789F0040F600010123464A3858FFF768FDCC
S214003288002887D13300A02208339202934205D93A
S2140032989E209E268002FFF7B3FDB602E40A06AB20
S2140032A8A4B21C815C8104210023300008AAFFF721
S2140032B84FFD002800D06DE70436012340F60001D4
S2140032C8344A0598FFF744FD002800D062E7039BC0
S2140032D89BB9324B042109933000039B09AAFFF7D8
S2140032E837FD002800D055E7029B04360133DBB2D1
S2140032F80293022B01D9039B0293079BBBB941F6A5
S214003308FF7407A8FFF708FE07998B68A34202D840
S21400331842F200029B180A69C868D21A1818834233
S21400332825D14A790B799A42EBD3052337E62C0048
S2140033386FE7079B5A791B799A4215D207A8FFF7B9
S214003348EBFD41F6FF72079B9D68954201D8013256
S214003358AD18DA681B690192059A0493EB0ADB023A
S2140033689A4200D161E77FE7019B07937CE79E5C62
S2140033781D78AE4200D00DE70133D0E700F0ECFA36
S214003388FF2800D00DE6A5E600F0E6FA09E600F00C
S21400339803FBFEE7481900205421002055555555D3
S2140033A810B5FFF7F7FD10BD10B518B90122054B8B
S2140033B81A7010BD0228FCD1034B0448596800F067
S2140033C84BF9F6E790C07E40F4C20300AC2100201B
S2140033D810B5FFF7E5FF002010BD000070B504002B
S2140033E801203AF061FF194A1378DB06DD0F002B3F
S2140033F8FADB207802000300E0B12B00144903280A
S21400340812D12269134B1A605042424140F2002002
S214003418E37DA57D5B0013430A5A520A52022A43EB
S2140034280A52207D0C4A107040F2A012A0688850FC
S21400343848F20002094992B28A81094ADBB20120A1
S21400344813703AF00BFF002070BDC046AAE001409A
S2140034580060004098E0014094E0014000E0014030
S21400346892E0014010B5040008006160FFF7B6FF5F
S21400347808B9014B236010BD4D504C52EFF3108035
S214003488012383F31088064B196819B9054AD170C9
S2140034984031D1701A6801321A6080F3108870477C
S2140034A844220020000D0440EFF31081012383F32B
S2140034B81088074B1A6812B11A68013A1A601A6817
S2140034C81AB9044BDA708032DA7081F310887047C4
S2140034D844220020000D04400300002018607047B6
S2140034E80B0A1B01C9B25B1803499B005B580020F6
S2140034F89B07DB0F1370704700080440034B090A4C
S2140035084901C9184B680020138070470000044022
S2140035180548090A49010918180090430004134091
S21400352803438B6000207047000004400123C8B2A4
S214003538834000209BB20AB918001300044A090AFF
S2140035484901000418438918886000207047C0465F
S214003558000004400648090A49010918180010B571
S2140035680C6810402043934398430860002010BD21
S21400357800000440044B090A4901C9184B6800209A
S2140035881B0C13807047C0460000044008480B0A0E
S2140035985B011B1858680123C9B28B40000C99B20E
S2140035A803405B1A59424B41002013707047C046CF
S2140035B8000004400548090A490109181800904304
S2140035C8000413400343CB6000207047000004400B
S2140035D810B501240B0AC9B28C4007485B011B18BA
S2140035E8D9682004012A04D1814321430020D960E8
S2140035F810BDA1430143F9E700000440030A70B573
S214003608C0B2084D1B01CA0307D51A189200AE5857
S214003618054C26400C40AE50AC501B189B00E95099
S21400362870BDC04600080440FFFFFEFF70B50500E9
S2140036380024FFF723FF2B88A34202D8FFF734FFA6
S21400364870BD6B68E2009B18988819680134FFF70C
S214003658D5FFA4B2EFE7000010B5034B03600800DF
S214003668FFF7E4FF002010BD54524F5010B5080075
S214003678FFF7DCFF002010BD70B515000C00FFF743
S214003688FDFE29002000FFF7B9FFFFF70DFF002019
S21400369870BD000073B5EFF30384103C0E4B64B2A4
S2140036A8A200D5580D4A6B790126D35C9B079B0F61
S2140036B8032B03D020003AF093FD0026AB682BB10D
S2140036C86A7968460192EA680092984716B120001F
S2140036D83AF086FD73BDC0464822002000600040D0
S2140036E8054A030010600A6882604A68C2600020C3
S2140036F8024A58601A6070470C220020434743006D
S214003708034B8000C35819701A788A42FCD1704758
S21400371820C6030048F2000110B5154B154A1B7861
S2140037281268DBB28A4210D113490978E1B113490D
S2140037380978C9B112490978B1B1EE21C90508421C
S21400374812D104203AF072FC10BD1BB10D4B184084
S214003758984204D10C4B9A4201D80320F2E70B4B4F
S2140037689A42F1D80120EDE7002BEFD1F5E7C046E5
S21400377840E001406822002036E0014038E0014081
S21400378832E001400404000480841E0000366E0106
S21400379810B50C0000203AF087FD01212000FFF745
S2140037A8AFFF00203AF05AFD01203AF07DFD044BA9
S2140037B8186AFFF7AFFF01203AF050FD002010BD51
S2140037C800E0014010B501203AF06EFD00203AF006
S2140037D82DFC00203AF068FD10BD000010B5002052
S2140037E83AF03CFD034B186AFFF794FF01203AF0C5
S2140037F835FD10BD00E0014010B50C00FFF7E2FFF4
S21400380820000021FFF77CFFFFF7E8FF002010BD2F
S214003818F0B587B0EFF30384103C64B220003AF0AA
S214003828DFFC1D4BA400E458A368227B1D00083566
S2140038380AB10C331D0062682B781278DBB29C46FE
S214003848012A05D1F4222A70E53A93439C462B7048
S21400385863690193BBB1A069D8B103AB1900020034
S214003868C8CAC8C163469B0601D500230371E3692D
S2140038780360019B9847A36913B103AA51CA51C3B1
S2140038882B78DBB29C460F22634613402B7007B09A
S214003898F0BD03A8E6E7C0464822002000BE7047F1
S2140038A87047000003B47146490840004900095AA9
S2140038B849008E4403BC7047F0B54FF6FF75040008
S2140038C8CE462C40474615400E002900994680B53E
S2140038D8130C0700000C61434543584363430C0C24
S2140038E85B19E4188C46A54203D980235B029846E8
S2140038F84044230C61461B184FF6FF7008404946A3
S21400390856437943240489192018C918C0BCB946F7
S214003918B046F0BD30B500240139A24201D10020DE
S21400392805E0035D01340D5DAB42F6D0581B30BD93
S21400393803008218934200D1704719700133F9E7E3
S214003948002310B59A4200D110BDCC5CC454013394
S214003958F8E700000000000001B40248844601BCF5
S214003968604700BF1D00002001B40248844601BC21
S214003978604700BFA106002001B40248844601BC87
S214003988604700BFDD06002001B40248844601BC3B
S214003998604700BF6506002001B40248844601BCA3
S2140039A8604700BF0100002001B40248844601BCFD
S2140039B8604700BFB70600204275696C74207769B7
S2140039C874682052656E6573617320416476616E13
S2140039D863656420466C657869626C6520536F661B
S2140039E87477617265205061636B616765207665E0
S2140039F87273696F6E20362E322E3000362E322EB7
S20C003A08300000000000020679
S208003A10490C000058
S208003A14190C000084
S20C003FF800800200FFBF030079
S21403C000094B1A7882420DD0084A12781AB90849A1
S21403C0100A78D207FCD51A78D206FCD418701A7898
S21403C020D206FCD47047C046A0E0014036E001408B
S21403C0303CE0014010B50C4B042808D11A78D20610
S21403C040FCD401221A701A78D206FCD410BD1A78D2
S21403C050D206D10F002AFADB19701A78002AFCD10F
S21403C060FFF7CEFFF2E7C046AAE00140064B0749BA
S21403C070DA1DD27F1B6A920052585B015B0FDA40CF
S21403C0801300034A1360704700E00140880F002046
S21403C0906822002040F2FE3370B5184A184C012679
S21403C0A0E25243F6C873174A0025D654164B174A6E
S21403C0B0DD601A60164A1D615A6048F200029A60F3
S21403C0C0FFF7D4FF40F280432800E654FFF798FFBB
S21403C0D0104B114A1D701378DB07FCD500220F4B5B
S21403C0E023620F4BDA77FFF7C1FF0120FFF7A2FFAA
S21403C0F040F2FE330B4AE25270BDC04603A5FFFF73
S21403C10000E0014000C07E40880F00200048E801A0
S21403C11000127A0036E001403CE0014002020002D1
S21403C12007E0014000A5FFFF0022014B1A7070478D
S21403C1302840044001380028FCD170474143174B80
S21403C14070B540F2E83208001E680C000023002198
S21403C150C5F7B6FB124D134AB5FBF6F559B9B0FB56
S21403C160F5F00423964200D90233B0FBF3F008B18E
S21403C170FFF7E0FF70BD0423964200D902335D4308
S21403C18040F2E832B4FBF5F000230021C5F798FB34
S21403C1900029ECD001204042EAE7C046682200208E
S21403C1A000CA9A3B0048E801F8B540F24013002461
S21403C1B001270A4E0A4A758CD35A1D402B00E340CA
S21403C1C03B4206D0074AA3009B181B680BB1E0B29C
S21403C1D0984701340D2CF1D17586F8BDFE600040FA
S21403C1E00060004010220020044BC0308000C2587C
S21403C1F003490A40C250C3587047C0460060004017
S21403C200FFFFFEFFF7B5FF27019283080A4A0326BE
S21403C2109B009B183A0040F200350640F600890161
S21403C220B2403940B1405C59800094430C435C51A2
S21403C230019A024B1A50F7BD00E100E048220020A5
S21403C24000230648064A9A18117819B11A00C03214
S21403C250920011500133052BF4D170470060004063
S21403C260E4C5030030B5EFF31082012383F310888F
S21403C27098400B49435A1BB10B5A013B9BB20B52D6
S21403C2800B5A53B940F2FE31064C074B655A185AFF
S21403C290064B2B4383439BB2635282F3108830BD15
S21403C2A05C22002000E0014034C6030000A5FFFF27
S21403C2B070B5EFF31081012383F3108898400A4A80
S21403C2C0835A53B940F2FE34084D094E2B5B865B06
S21403C2D033434AF2005633432B53135A01339BB26C
S21403C2E0135281F3108870BD5C22002000E00140E9
S21403C2F034C60300AC21002040C30300ECC5030092
S21403C3000000000000000000000000000000000025
S21403C310000000000000000000000000FFDF000037
S21403C32002000000000000000000003000000000D3
S21403C33000000000000000000000000000000000F5
S21403C340530000004CC3030000000000050000007B
S21403C35000000000000000000100000000000000D4
S21403C36002000000000000000300000000000000C0
S21403C37004000000040000000500000004000000A4
S21403C3800600000004000000070000000400000090
S21403C39008000000040000000A000000040000007B
S21403C3A00B000000040000000C0000000400000066
S21403C3B00D000000040000000E0000000040000016
S21403C3C00F0000000000010400010000000001044B
S21403C3D00101000000000104020100000400000047
S21403C3E00301000004000000040100000400000034
S21403C3F00501000004000000060100000400000020
S21403C400070100000000010008010000050000000D
S21403C41009010000044000000A010000004000007B
S21403C4200B010000040000000C01000005000000E2
S21403C4300D010000040000000E01000004000000CF
S21403C4400F010000000000000002000000000000D2
S21403C45001020000000001050202000000000105C1
S21403C46003020000040000000402000000000000B5
S21403C470050200000400000006020000040000009D
S21403C4800702000004000000080200000400000089
S21403C4900C020000040000000D0200000000010072
S21403C4A00003000005000000010300000500000073
S21403C4B00203000004000000030300000400000061
S21403C4C0040300000400000005030000040000004D
S21403C4D0060300000400000007030000000000003D
S21403C4E000040000040000000104000004400000F3
S21403C4F0020400000400000003040000040000001F
S21403C500040400000400000005040000040000000A
S21403C51006040000000000000704000000000000FE
S21403C52008040000044000000904000004000000A2
S21403C5300A040000040000000B04000004000000CE
S21403C5400C040000040000000D04000004000000BA
S21403C5500E040000040000000F04000004000000A6
S21403C56000050000000000000105000000000000B8
S21403C570020500000400000003050000040000009C
S21403C5800405000004000000050500000400000088
S21403C590000600000400000001060000040000007E
S21403C5A0020600000400000003060000040000006A
S21403C5B0080600000400000009060000040000004E
S21403C5C00A0600000400000008070000040000003C
S21403C5D00E07000004000000080800000400000026
S21403C5E0090800000503001116000000611600008C
S21403C5F0E114000075160000811600009515000072
S21403C600D9150000E9140000351500005D1500007B
S21403C6107D150000BD150000051500001915000066
S21403C62036E0014038E0014090E4014032E001404A
S21203C63080E401400100020008001000200014
S20803C640F8B5C0463B
S20803C644F8B5C04637
S8040000916A
