S0190000507269766174654C6F526153616D706C652E7372656360
S1130000880C0020BD000000F5C30000F5C5000009
S1130010F5C50000F5C50000F5C50000F5C50000F4
S1130020000000000000000000000000F5C5000012
S1130030F5C5000000000000F5C500007D73000058
S1130040C1C100005DAF0000DDAF0000C1C1000010
S113005055AC0000E1AB0000C5AC0000F5AC0000FD
S113006095AF00000181000035BE000009B000001A
S1130070A5B800000000000000000000A5B80000C2
S113008001000000B0000000020000009000000029
S113009000000020000000200000104000000203C7
S11300A00000002084000020400400000000010340
S11300B0A00C0020D01E00200000000310B500F0AA
S11300C02FF809F0E3FFFEE7F8B5060000240C273B
S11300D0124D2B68A34204D80024AB68A3420ED867
S11300E0F8BD3A0062436B689B185A7AB24204D155
S11300F005CB0021121A0CF09BFC0134E8E7EB68F5
S113010022019B185A7BB24205D118685A68996833
S1130110121A0CF0F6FC0134DFE7C0468000000040
S113012073B5344A344B00209A6009F085FF0CF013
S1130130D7F86B460024DE1D3470012033780CF0B0
S11301401BFAEFF31081012585F310882B4B2C4803
S11301509A6802409A609A6881F3108829490A686B
S1130160D207D20F32700A68D207D20F32700A68EF
S1130170D207D20F3270EFF3108185F310888022FA
S11301809868520502439A609B6881F3108828009E
S11301900CF0CCF9280009F04FFF41F200011A4B92
S11301A01A4A9C801A801A4A20009A60194ADA6016
S11301B0194A51849D80FFF787FF0CF07DF80CF0FD
S11301C0D9F8022009F038FF2800FFF77DFF134D0E
S11301D0134BED1AAD10AC4205DB0CF095F9002081
S11301E00CF00AFA73BD0E4AA3009B181B689847CB
S11301F00134F0E70000000000ED00E0FC6F044073
S1130200FFFFFFEF00080440000D004000A5FFFFC2
S113021088040020880C0020FE60004090EE00005E
S10702208CEE00005C
S1070400FFFFFFFFF8
S1070404DFAFFFFF64
S1130440C80C0020000E0020FF0100000B0000007B
S11304500000000000000000010000000100000096
S1130460FFFF440003EB0000000000000300000055
S1130470E41C00203800002000000000E41C0020E0
S11304804C1D0020B41D00200000000000000000EE
S11304900000000000000000000000000000000058
S11304A00000000000000000000000000000000048
S11304B00000000000000000000000000000000038
S10704C00000000034
S11304C840F2840040F28403C2F20000C2F2000346
S11304D810B5834205D040F20003C0F2000303B113
S11304E8984710BD40F2840040F28403C2F2000031
S11304F8C2F200031B1A9A10D90F8918491010B5B3
S113050829B140F20003C0F2000303B1984710BDBB
S113051810B540F6A044C2F20004237873B9FFF77B
S1130528CFFF40F20003C0F200032BB140F20840B1
S1130538C0F2000000E000BF0123237010BDC046D4
S113054840F20003C0F2000310B54BB140F6A441D9
S113055840F20840C2F20001C0F2000000E000BF0F
S1130568FFF7C0FF10BDC04610B5094909480AF095
S113057823F8040020B9010006480AF007F804002B
S1130588044809F095FD204343425841C0B210BDC8
S113059820EA00007C1900200122014B1A707047E0
S11305A8BD0C0020F7B505000E000E480E49019257
S11305B80AF002F8040060B90C4F320038702900C0
S11305C8019B084809F02BFF040010B93B78002B65
S11305D8FCD0044809F06CFD044363425C41E0B27A
S11305E8FEBDC0467C1A002068EA0000BC0C00204E
S11305F8F7B507000E0010481049150009F0DCFF94
S1130608040078B96B4639000B4801AA09F03FFD8C
S1130618040038B9009BAB420CD32A00300001997E
S11306280CF06BFA044809F043FD044363425C414F
S1130638E0B2FEBD0324F5E77C1A002068EA000056
S113064810B50A490A4809F0B7FF040008B10E2892
S113065804D10021064809F099FF0400044809F070
S113066827FD204343425841C0B210BD68EA000048
S11306787C1A00200122014B1A707047BC0C002020
S11306880022034B9A560AB901321A707047C046C1
S1130698C40C00200022014B1A707047C40C0020BF
S11306A8034B00201A780AB1187001307047C0460D
S11306B8F80C0020024B1878431E9841C0B27047CA
S11306C8F80C002010B5034B1B689B780BB10CF099
S11306D895F810BD0000002070B52C4B04001B7861
S11306E85BB283B12A4800F0C3FA60B9284800F025
S11306F81BFB050040B1082C05D1254800F0DFFAA2
S11307082000FFF7DFFF70BD2300613B192B06D8DB
S1130718203CE4B221001E4800F017FB30E00A2C0C
S113072806D00D2C1AD0082C23D0202CEBD0F1E7BE
S11307382100174800F009FB2000164CFFF7C2FF00
S11307482378002BDFD0124800F0B9FA104800F0E3
S1130758B6FA0122104B25701A70D4E721000C4810
S113076800F0F3FA2000FFF7ADFF0122094B1A70DD
S1130778C9E7074800F0CFFA28B9054800F09FFAFE
S11307882000FFF79FFF0022024BF0E7C40C002073
S1130798EC0C0020BE0C0020F80C00200320024BB7
S11307A81B6818567047C0460000002010B50A4C54
S11307B82368DB7813B1094807F045FD1422236840
S11307C89988074B4A431B689B18186907F03BFD37
S11307D8044807F038FD10BD000000201CD30000B9
S11307E8C00C00201FD3000010B50E4B1B685C78AA
S11307F8082C16D0DB7813B10B4807F024FD23002E
S113080834B10123042C03D00333072C00D1023B59
S1130818064ADB009B18586807F015FD024807F0E4
S113082812FD10BD000000201CD30000B0D9000048
S113083810B5024807F007FD10BDC0461CD30000E0
S113084810B51C00094B1A6070B100290CDD0A00B0
S11308580100074800F001FA064A074BD4801A60E1
S11308680023136000F0A6F810BDC046C00C002099
S1130878EC0C0020C80C0020000000200022024BD1
S11308881B681A807047C0460000002083B270B508
S11308980400064D012B04D8FFF7F0FF2B68DC7029
S11308A870BD40F200422B681A80F9E7000000206E
S11308B840F20142014B1B681A8070470000002077
S11308C870B5284800F0D4F920B10220264B1B68E3
S11308D8187070BD234800F016FAFFF7E9FF2148A5
S11308E800F019FA040058B91E4800F0CBF91F4B60
S11308F8E3181B785BB283420FD10134042CF3D183
S1130908FFF772FF174800F002FA164800F0ACF936
S11309180020154B1B681856DBE7E4B2124B022C77
S113092804D0032C19D1FFF7A9FFE9E72B2807D036
S11309380C4800F0E2F901000D4800F07CF9DFE70B
S11309481B680848DD880B4B1C6800F0D6F92900A1
S11309580200200000F0C0F8D2E700221B681A70D9
S1130968CEE7C046EC0C002000000020E0D90000CF
S1130978D0D90000C00C0020014B1B6818707047C8
S113098800000020014B1B68187870470000002005
S1130998014B1B685870704700000020014B1B680E
S11309A89880704700000020014B1B6898887047A6
S11309B80000002010B5054B186800F0DEF9142279
S11309C80349044800F052FA10BDC0460400002050
S11309D8F90C0020100D002010B5024B186800F027
S11309E8FEF910BD04000020002370B50360013B2C
S11309F80B80074B050018680C0000F0C9F930B1EA
S1130A0843682B600822835E238000F017FA70BDC8
S1130A180400002010B5044B186800F0B9F900B9B7
S1130A2810BD00F00BFAF6E704000020C0B2030082
S1130A38303BDBB2092B01D858B270470300413B65
S1130A48052B02D8373840B2F7E701204042F4E7D3
S1130A58002310B5C2560AB918B210BD5C1C8A42EC
S1130A68FAD02300F6E70000F7B5002204000300DB
S1130A780191009200269E578EB9009B9E420CDA83
S1130A8820000199FFF7E4FF124F051E13DC3868B4
S1130A9800F0A5F908B1FFF7BDFF0020FEBD019ADB
S1130AA8964202D001229A561AB9009A013252B2D9
S1130AB800920133DEE70023235400F099F901364C
S1130AC80581446001000135386800F079F964193A
S1130AD876B2D2E704000020F0B5050085B0012005
S1130AE816000391FFF748FF0420FFF751FF002386
S1130AF80193019B039A934201DB05B0F0BDAC89D5
S1130B08002C3DD02200310028690BF095FF02909B
S1130B1838BB6B46002798883419FFF73FFFE7571F
S1130B283D2F07D03F2F31D0002F43D00220FFF7AD
S1130B3823FF16E00123E3569BB12C21601CFFF729
S1130B4893FF0520FFF718FF2B6843B1300098473F
S1130B5804000298FFF710FF2000FFF719FFFFF7C2
S1130B6859FFFFF70FFF0028C7D0FFF70BFF052831
S1130B78C3D0FFF707FF022802D10138FFF7FCFEB4
S1130B88019B143501331BB20193B2E7647864B254
S1130B98002CE6D10520FFF7EFFE6B68002BE0D0B0
S1130BA83000984707002000FFF7E6FE3800FFF7FB
S1130BB8EFFED6E70520FFF7DFFEAB68002BD0D0A9
S1130BC83000984704003800FFF7D6FE2000EEE70F
S1130BD8C3B21A00303A0120092A06D90020052296
S1130BE8413BDBB29A424041C0B2704770B5050040
S1130BF80E0000242B5720B203B970BDB342FCD0B9
S1130C081800FFF7E5FF01340028F3D1092040421A
S1130C18F3E710B50400FFF7E9FF012804D1002029
S1130C282056FFF703FF10BD431C01DA40B2FAE770
S1130C3801204042F7E710B504000023E3564BB106
S1130C4800228A569A4206D1481C0021FFF7E1FF88
S1130C586368984710BD0834EFE720B10023828009
S1130C680360C3808160704708B100230360704744
S1130C78030000202BB1062018560138434258417E
S1130C88C0B2704770B50500C0B10023C45E02222B
S1130C98835E0020A34211D02800FFF7E9FF042156
S1130CA86B5E013494FBF3F102004B43A968E31A29
S1130CB8C85CCC181BB202B922702B8070BD70B509
S1130CC80400C8B10223C55E0022835E0020AB4243
S1130CD812D02000FFF7CCFF0300002063B9A268FC
S1130CE8505D53550222A35E0421625E013B93FBCF
S1130CF8F2F14A439B1A638070BD18B10022835EE7
S1130D088068C018704708B101238371704708B11F
S1130D180023837170470022835E0222805E181AC2
S1130D2843425841C0B270470222835E0421425EA6
S1130D38013393FBF2F14A439B1A0022805E1BB2F3
S1130D48C01A43425841C0B2704770B504000D0040
S1130D5890B1FFF7E9FF78B92000FFF789FF58B988
S1130D680222A35E0421625E013393FBF2F14A433B
S1130D789B1AA2686380D55470BD00230360704732
S1130D88006820B1030000680028FBD118007047F0
S1130D980300006808B102681A60704703682BB141
S1130DA88B4204D10B68036000230B6070471A0060
S1130DB81B68002BFAD09942F9D10B681360F3E74A
S1130DC870B505000C00FFF7E9FF00232800236035
S1130DD8FFF7D6FF08B92C6070BD0460FCE7036810
S1130DE8002003B9704701301B6800B2F9E700001E
S1130DF8F0B5104B1B785BB21800B3B100200E4A53
S1130E080823D15E814210DD55680A23D65E2B0083
S1130E1810685C1B24B2A64207DD0027DF575C1C60
S1130E2827B90139118101221A70F0BD23000C3051
S1130E38EFE7C046100E0020040E002010B570B174
S1130E48094A0A23D45E002311689C4207DD8142C3
S1130E5806D111890131118100215268D15410BD84
S1130E6801331BB20C31F0E7040E0020002310B547
S1130E78074CE35653B9002A08DD38B131B1054BA4
S1130E88186059601A815A810123237010BDC04625
S1130E98100E0020040E002010B506F0B3FB10BDA0
S1130EA837B506AC2478079D0094019506F0B0FB8D
S1130EB837BD10B506F0B4FB10BD10B506F0C6FB7F
S1130EC810BD00000022054B10B5040000681A701C
S1130ED807F0FCF8206007F0BBF810BD180E0020DE
S1130EE80023036043600372C1600361704700001C
S1130EF870B5124C236843B1002201251A601A7296
S1130F080023206858B903B1206070BDC1682B0064
S1130F18026911B122608847F2E71000F2E702681B
S1130F28002AF3D03BB9037A002BEED101230372D4
S1130F38FFF7C8FFE9E72060F5E7C046140E002074
S1130F48F7B52F4D040001A806F0F8F92A78531CC8
S1130F58DBB22B700AB906F013FA2A4E01A806F080
S1130F68F2F9336803B16CB901A806F0E7F92B78F4
S1130F78013BDBB22B700BB906F016FA01A806F098
S1130F88E2F9F7BDA3422ED1237A13B307F082F80E
S1130F982768002433688C4619691C72A9B13A0081
S1130FA8316023003E002700644502D1824200D903
S1130FB80600921BBB4116000B6808009B190B60C6
S1130FC801230B72FFF77EFFCEE7316006F07AFE4D
S1130FD8CAE723692BB1216833601A6852181A606A
S1130FE8C2E73360C0E71A001B69002BBCD09C42DF
S1130FF8F9D1236921681361002BEED1B4E7C04607
S11310084C150020140E0020054B1B680BB9180062
S11310187047834201D01B69F8E70120F8E7C0460E
S1131028140E0020F0B587B0040005A806F086F970
S113103840490A78531CDBB20B700AB906F0A0F9D0
S113104805A806F080F924B12000FFF7DDFF009021
S113105878B105A806F072F9364A1378013BDBB279
S113106813700BB906F0A0F905A806F06CF907B0DF
S1131078F0BD6368304D23602968009B237239B939
S113108821610123200023722C60FFF71BFFE0E796
S1131098087AF0B106F0FEFF2B68009F1E683B003B
S11310A83200B94202D1864200D90200B61A9F41E1
S11310B800960197019B26682F6813B9009BB342D9
S11310C80BD927B1009B9E1B00233E603B7227610E
S11310D8D7E70B6801900093ECE73D692DB9009BB5
S11310E8F61A26603C612561B3E728680199009ADD
S11310F8019B8018594109B9864208D2009B009A7D
S1131108F31A23602B689B189B1B2B60EAE72B6957
S113111823B9361A26602C6123619AE71A682F00CE
S11311280292002203921D00029A039B00900191EF
S1131138DFE7C0464C150020140E002070B50D00E2
S11311480400FFF7FDFE2560656070BD10B506F06C
S1131158A1FE10BD10B544781CB90134447006F0E2
S1131168EBFF10BD10B506F0F1FF10BD10B507F088
S11311780BF810BD154B00B5185C0A2823D80BF0E2
S113118839FA1E161612060D22221A16120000200B
S113119801230B398B424041C0B203E00C394B4266
S11311A85941C8B200BD002002230A39F2E70020E1
S11311B803230939EEE7002004230839EAE700206D
S11311C805230739E6E70020ECE7C046A0DA00006B
S11311D8014B18887047C046460F002010B5024BD3
S11311E8987A01F019FC10BD480F0020002010B5B2
S11311F801F012FC034B1B6813B15B6803B19847F9
S113120810BDC046400F0020002010B501F004FCBA
S1131218034B1B6813B1DB6803B1984710BDC04684
S1131228400F002010B501F093F803000020082BAC
S113123801D8014AD05C10BDEFD9000010B5054BA8
S113124804005B7B0BB101F08DFF200001F0CAF9AB
S113125810BDC046480F002010B506F023FC10BD91
S113126810B506F0C3FB10BD10B5044B5A7B01231F
S113127812B101F005FF0300180010BD480F00204B
S113128810B5042001F014FC0220FFF705FE10BD80
S113129810B5002001F00CFC0220FFF7FDFD10BD85
S11312A810B501F0EBFC10BD012310B511B106F027
S11312B8A7FB0023180010BD012310B511B106F0D7
S11312C847FB0023180010BD40F28010002310B51E
S11312D81A00010001F053F901F0EAFC10BD000006
S11312E870B540F2E8360E4B05005B7B0C005643A4
S11312F883B9280001F076F9200006F073FC01F0A8
S1131308E5FC31000748FFF719FF0648FFF78AFE96
S1131318002070BDC0B202F091F90028E9D0F8E7C6
S1131328480F0020300E002010B501F095FA10BDCA
S113133810B506F063FC0D23012800D00A3B180001
S113134810BD000010B572B6BFF34F8FBFF36F8F97
S113135806F004F90122044B1A7062B6BFF34F8FEA
S1131368BFF36F8F10BDC046580F0020F0B585B08D
S113137872B6BFF34F8FBFF36F8F0022654E337879
S11313883270DBB262B6BFF34F8FBFF36F8F002B9F
S113139800D19FE001F003F904004FF6FF7001F05B
S11313A832FB72B6BFF34F8FBFF36F8F06F074FC36
S11313B80500012802D106F0D1F8357062B6BFF3F2
S11313C84F8FBFF36F8F4023012523400193019A68
S11313D8514B1A802C420BD05048FFF7B1FD28001E
S11313E800F0BCFF4E4B1B6813B11B6803B1984750
S11313F802252C4244D04B4B1F78A7B94A48FFF723
S11314089FFD012000F0AAFF390040F6021006F003
S1131418EDFA40F6441006F045FB0543E9B240F600
S1131428441006F0E3FA02ABDF1DFF2239003F48FF
S113143801F048FA3E4801F059FA019B13B13D4BBB
S11314481B7A7BB1364B1B6863B19D6855B1384A2A
S113145839781378002B41D10823D3560620125E1D
S11314683248A8472F4B1B7853B100F071FF052869
S113147806D1304B587A002835D0002001F0E0FB23
S1131488019B2BB1264B1B6813B11B6903B1984709
S113149823060AD5012000F061FF214B1B6823B104
S11314A89B6913B1E005C00F9847A4050FD500F058
S11314B84FFF04281AD11948FFF742FD012000F014
S11314C84DFF174B1B6813B15B6803B198470023A2
S11314D8114A13803078C0B205B0F0BD1223D35638
S11314E81020125EBCE701F059FBC9E700F030FF99
S11314F80528ECD10B4B1B782BB90B48FFF720FDC3
S1131508012000F02BFF064B1B68002BDFD0DB68A3
S1131518DBE7C046580F0020460F0020300E00209D
S1131528400F0020741000201C0E0020590F0020CA
S113153858100020480F002070B50F4B06005B7B45
S11315480C00150093B9300001F04CF8200006F0A7
S113155849FB01F0C9FB40F2E83108486943FFF749
S1131568EDFD0648FFF75EFD002070BDC0B202F035
S113157863F80028E7D0F8E7480F0020300E002071
S113158810B500F0B3FF10BD02001F205AB10123AB
S113159808490868824207D98868824204D8054AFB
S11315A8DB009B181879704701330831172BF0D1E9
S11315B81F20F8E7ACDA000010B50A4B012807D160
S11315C8094AC73311700948197001F0D9F810BDD8
S11315D81A00BF321278002AF9D1034AC0331170B5
S11315E8F1E7C046440E002008000020FC0E00204D
S11315F870B5164B05005B7B0C0001201BB128005D
S113160801F05CFFF8B9F5B1002340F201211A009A
S1131618080000F0B4FF01F019F80D4B012813D1AC
S1131628C7331C700B4801F0ABF8002221002800D6
S113163801F0ACFA084B09481968FFF77FFD074821
S1131648FFF7F0FC002070BDC033EAE7480F002024
S1131658440E0020FC0E00207C100020300E0020D8
S1131668002340F2422110B504001A00080000F0DB
S113167886FF34B10A482100FFF760FD0848FFF7E8
S1131688D1FC084B1B7833B1402000F06FFF0020D9
S113169801F0D6FA10BD044B18688001F8E7C0467B
S11316A81C0E0020741000207810002070B5164D10
S11316B804006B7B33B96A7A4AB12000FFF7D0FF84
S11316C8002003E001F0AAFF0028F4D070BD40F226
S11316D842211300080000F052FF34B10B482100E6
S11316E8FFF72CFD0948FFF79DFC094B1B7833B124
S11316F8402000F03BFF002001F050FAE0E7054BE2
S113170818688001F8E7C046480F00201C0E002026
S11317187410002078100020F7B507000C0000258D
S1131728C9B3364E01A805F009FE3278531CDBB262
S113173833700AB905F024FE01A805F004FE092F48
S113174836D838000AF056FF050A292D31393F43A7
S1131758475322782A4B1A7001250FE016250422D4
S1131768210001A80BF0C9F9019A264B1968914286
S113177841D0013DADB20833002DF7D101A805F0E1
S1131788DDFD3378013BDBB233700BB905F00CFE99
S113179801A805F0D8FD2800FEBD2278184B1A725E
S11317A8DAE72278164B5A72D6E723782F2B01D919
S11317B80025E3E7124AD372CEE723782F2BF7D814
S11317C80F4A1373C8E722780D4B5A73C4E722787B
S11317D80B4B9A72C0E70A4D23784FF6FF70AF7B24
S11317E8AB7301F0B3FA0028B6D1AF73E0E72278FF
S11317F8034BDA73B0E7024B5A60ADE74C1500208F
S1131808480F0020ACDA0000F7B507000C000026EA
S113181879B3254D01A805F091FD2A78531CDBB254
S11318282B700AB905F0ACFD01A805F08CFD002663
S1131838092F11D838000AF0DDFE05091E212427D6
S11318482A2D3033194B1B78237004E0042220001E
S113185817490BF052F9012601A805F06FFD2B7802
S1131868013BDBB22B700BB905F09EFD01A805F016
S11318786AFD3000FEBD0D4B1B7AE5E70B4B5B7A26
S1131888E2E70A4BDB7ADFE7084B1B7BDCE7074B15
S11318985B7BD9E7054B9B7AD6E7044B9B7BD3E765
S11318A8024BDB7BD0E7C0464C150020480F0020D4
S11318B84C0F002010B500F04BFD082806D100227B
S11318C8054B5A701A7001F01DFA10BD0028FCD19E
S11318D801F0A2F8F9E7C046440F002010B504004F
S11318E80B4B1870587000F015F854B1342140F2BD
S11318F8407006F07BF8442140F2417006F076F817
S113190810BD142140F2407006F070F82421F3E76A
S1131918440F0020012010B500F08AFE044B18780B
S11319285A78824202D05870FFF7D8FF10BDC046DB
S1131938440F002010B5012806D0002000F078FEDE
S11319480022034B5A7010BDFFF7E4FFFBE7C046C3
S1131958440F0020F0B50600492095B010931AAB47
S1131968150004CB0C911B8821A90B931CAB1F8871
S11319781DAB1B7809780D931EAB1B780E931FAB18
S11319881B780F9320AB1B789C4608ABC018C07F0C
S113199811904D20C018C47F7B48407BA8B1119B8F
S11319A807910893634606930F9B009205930E9B39
S11319B82A0004930D9B0C9903930B9B30B201935B
S11319C80994109B029701F0D5FB704B1C7063427D
S11319D85C410D9B644227400BB9FF330E936C4B5B
S11319E80E9A1A7026B1012E5ED0002015B0F0BDF3
S11319F8684C300000F018FD2300E8331E70230003
S1131A08EC331D6023000B22F4330C981A70FFF793
S1131A18BBFD2300F53318702300B8331E700B9BED
S1131A280D99DA002300BA331A80230041F6040220
S1131A38BC331A802300BE3322001E700123BF3238
S1131A485940117022005249C032097811700F9A16
S1131A5802B1F1332200C132137023000122C233D0
S1131A68E8341A70FFF7BAFB2078431E9841C0B2D5
S1131A78FFF760FF200000F03FFE474800F080FEBB
S1131A880822464912A80BF038F812A800F087FC7F
S1131A9840F2FF1000F0ACFC41F640737B43B3FB0B
S1131AA8F5F33F4A1360A0E73A4C002000F0BCFC71
S1131AB82300E8331E702300EEB2F8330C9A1E702C
S1131AC8384B29009B5C1000053E0E93FFF752FB30
S1131AD8012E07D86B460B9A9B8D0C2A00D20C2337
S1131AE89BB20B9323000E9AF9331A702300109AB1
S1131AF8FA331A7023002500FB3318700123B83514
S1131B082B7023000B9AC4331A8023000D9AC63312
S1131B181A7023001E4AC733127826001A7023004D
S1131B280F9AC8331A70119BE834C9363370FFF71B
S1131B3855FB2078431E9841C0B2FFF7FBFE2000F6
S1131B4800F0DAFD280000F01BFEF8B200F075FC86
S1131B583378042440F23670012B10D105F0A2FF2B
S1131B68A043C1B240F2367005F040FF7B427B418E
S1131B780D4A5B4213404FF6FF729B1891E705F03C
S1131B8891FF0443E1B2EDE7480F002074100020F0
S1131B9808000020440E0020FC0E0020F4DB0000A6
S1131BA878100020A0DA00000100FFFFF0B595B01E
S1131BB80B931AAB20CB0E911B7821A910931CAB65
S1131BC81F881DAB1B7809780C931EAB1B781191E9
S1131BD86C490F920D93497B1FAB20AA06001B7812
S1131BE8127899B105930D9B229904930C9B089143
S1131BF803931199109B0791069201930F9A0B9BDB
S1131C080E9900B20297009501F0DCFA4EB1012E4C
S1131C1857D040F6890005F045FF04210143C9B2B5
S1131C28A3E0594C0B222300E8331E702300EC3345
S1131C381D6023000B98F4331A70FFF7A5FC2300EA
S1131C48F533187023000F9AF0331A602300B83361
S1131C581E702300FF00BA331F80230041F60402DC
S1131C68BC331A802300BE3322001E7001230C9952
S1131C78BF32594011700D9A02B1F1332200C132BA
S1131C88137023000122C233E8341A70FFF7A6FA4E
S1131C982078431E9841C0B2FFF74CFE200000F0A4
S1131CA82BFD3A4800F06CFD0822394912A80AF0C5
S1131CB824FF12A800F073FB40F2FF1000F098FB19
S1131CC8A7E7314C0B9A2300E8331E702300EEB2C9
S1131CD8F8331E702F4B29009B5C1000053E0F93B0
S1131CE8FFF748FA012E04D83B1C0C2F00D20C2312
S1131CF89FB225000F9BF9352B702300109AFA33F5
S1131D081A7023002600FB3318700123B836337089
S1131D182300C4331F8023000C9AC6331A7023008F
S1131D281D4AC73312781A7023000D9AC8331A70E3
S1131D382300119AC933E8341A70FFF74FFA207850
S1131D48431E9841C0B2FFF7F5FD200000F0D4FC13
S1131D58300000F015FD2B78062B00D059E740F62B
S1131D68890005F09FFEFB21014040F6890005F03B
S1131D783DFE0E9805F036FF0020084B229A1A60A3
S1131D8815B0F0BD480F0020440E0020FC0E0020C2
S1131D98F4DB0000A0DA0000080000207C1000201A
S1131DA810B5FFF7B7FD00231A001900180000F05A
S1131DB8E6FB00F011FF10BDF0B587B000250591D2
S1131DC802920493322B5DD84E4B4F4C1B782A0059
S1131DD803932300F933290028001E782B0000F010
S1131DE8CEFB00F033FC494F0190012851D17D68A6
S1131DF83DB92B004649DA0052181168B14244D162
S1131E0855680026FFF7EAF90020FFF793FD414BD8
S1131E1828001E70FFF7B8FB2300F53318703D48FF
S1131E2800F06AFC2000B830067000F0A9FC0598A0
S1131E38FFF704FA384800F0B1FE06F048F9050047
S1131E48280006F048F90028FAD000F005FD029BA6
S1131E5898422EDB0025FFF7C1F9019B012B43D1E2
S1131E68FFF758FD23002000039AF5331A70019BED
S1131E78E830037000F040FC2000019BB830037088
S1131E8800F07EFC280007B0F0BD01330A2BB1D165
S1131E98B7E7FFF7A3F978680028C8D02600E83622
S1131EA83570FFF771FB174B1870300000F024FCF5
S1131EB8BDE740F2E835049B5D4306F008F90600E7
S1131EC800F0CAFC029B9842C4DA300006F003F919
S1131ED8ABB29842F4D300F0BFFC029B01258342C5
S1131EE800DC0025EDB2B6E77B68002BCAD02300DE
S1131EF8039A2000F5331A700023E830037000F0C9
S1131F08FBFBBFE7390F0020440E0020480F0020D8
S1131F1850DA00002C0F0020FFFFFF00F0B5514CF1
S1131F2887B0260005900391F53633780293230091
S1131F38F9331B780493322900D991E000231A005D
S1131F481900180000F01BFB00F080FB464F0190BD
S1131F58012864D17D6845B92B004449DA00521838
S1131F6811680498814256D155680026FFF736F95E
S1131F780020FFF7DFFC3E4B28001E70FFF704FB30
S1131F882300F53318703A4800F0B6FB2000B83047
S1131F98067000F0F5FB0598FFF750F97B7A354891
S1131FA8002B4CD000F04CFE40F2E836039B5E4315
S1131FB806F08DF80500280006F08DF80028FAD000
S1131FC806F085F82C4D039000F046FC2B1C854246
S1131FD800DA031C03981DB206F07DF8B3B29842E8
S1131FE8F2D3FFF7FBF8019B012B2BD1FFF792FCEF
S1131FF823002000029AF5331A70019BE83003701D
S113200800F07AFB2000019BB830037000F0B8FBA5
S1132018280007B0F0BD01330A2B9ED1A5E7FFF7CE
S1132028DDF878680028B6D025000023E8352B7041
S1132038FFF7AAFA3070280000F05EFBABE700F067
S1132048ADFDB1E77B68002BE2D02300029A2000A3
S1132058F5331A700023E830037000F04DFBD7E71E
S1132068054DD5E7440E0020480F002050DA000043
S11320782C0F0020FFFFFF000080FFFFF0B585B0A4
S113208815000AAA17880BAA019111780CAA1478CA
S11320980DAA127848B1012814D00125002040194E
S11320A80138B0FBF5F005B0F0BD012340F2E8308B
S11320B84B40FB185200DB0012191833D2009B184E
S11320C85843ECE7043302936B1F012B04D83B1CE1
S11320D80C2F00D20C239FB21201E400A4184A4228
S11320E851411423AE0049420B40A41BE418AB1E13
S11320F80393062D07D9290001980834FFF73AF805
S113210808B1AB1E9E00E343DB171C40A419013C35
S113211894FBF6F6029B7343DA1913000E33062D6B
S113212800D9023B084A0199525C0A2A0AD8039941
S11321389B0001338B4040F2E8305843034B920034
S1132148D558ACE7FFDEC046A0DA0000F8D9000095
S113215830B585B00400092240F29F2001A905F09A
S11321684FFC6B461D79002301A8AB4214D1032B05
S113217810D869465A1C0A716A465B00210A05325E
S1132188D1546A460632D45440F29F20092201A948
S113219805F0DEFB05B030BD0100427889781202F3
S11321A8521802309442F5D00133DBB2DDE7000067
S11321B8030000200A2B01D8014AD05C7047C046AE
S11321C8E4D90000F0B504000E0085B018B300206F
S11321D8012C51D1294D2B00F9331878FFF7E8FF6A
S11321E801002800C83000782B002A00471EB84197
S11321F8FA33F8321B781278039028000296C63016
S11322080078C435461EB04101902888009020000B
S1132218FFF734FF30E0194B1A00EC3215681A0046
S1132228C13212780296013A511E8A4103921A0069
S1132238BF321278BA3351424A4101921B882A00AC
S1132248DB08009301000300FFF718FF41F657323B
S1132258012395420FD840F6B732DB1895420AD8C5
S113226840F2CF720133954205D840F2E732043385
S1132278954200D9023B181805B0F0BD440E002061
S113228810B5074C1022002120000AF0CDFB05F000
S1132298B5FC10B91323E372237300F043FD10BD9A
S11322A8480F002010B50024214B1860214B224808
S11322B85C701C7000F0D6FB200000F0ADFB012020
S11322C800F0E7F82100200000F0ACFA2000042117
S11322D800F0C2F94FF6FF7123002200080000F055
S11322E84EF940F6AC00FFF733FF40F68900FFF7DC
S11322F82FFFFFF7C5FF1148FEF722FE1048FEF72F
S11323081FFE10490D48FEF7EBFD0F490C48FEF778
S1132318E7FD0E4B1C7000F043FB80B2033400B998
S113232804004FF6FF7000F011FD200010BDC046F8
S1132338400F0020440F00204D130000300E0020F1
S11323481C0E0020F511000011120000580F002087
S1132358014B18787047C04609000020014B1870DB
S11323687047C0460900002010B5084B1A78082A9F
S113237808D840F24113D340DB0703D505F01CFA13
S113238805F042FC05F00EFA10BDC0460900002015
S113239810B50A000100002005F08EFB10BD10B531
S11323A8010040F2C060082205F0D2FA002010BDF6
S11323B807B5064B01A91B7840BA088023B9022245
S11323C840F2BC6005F0C4FA07BDC0468D10002079
S11323D807B5064B01A91B7840BA088023B9022225
S11323E840F2BE6005F0B4FA07BDC0468D10002067
S11323F810B50C4B04001B789BB940F2B86005F08B
S113240851FB01220100230A91431340C9B240F24F
S1132418B860194305F0EAFA40F2B960E1B205F090
S1132428E5FA10BD8D10002007B56B46D91D08705C
S113243801229F2005F0F8F907BD73B5031C0400B9
S1132448F82804D94DF6FC33C0F200031B78013395
S1132458DBB25B100025DEB21F2B02DD0336B608A3
S1132468013532006B0001339A4013006A46D37178
S11324786B460122A020D91D05F0D6F944B16B465C
S1132488F600A919C9B240F20670D97105F0AEFA7E
S113249873BD07B56B46D91D08700122962005F057
S11324A8C3F907BD07B56A46031CD11D58069A0629
S11324B8C00FD20F520180011043DA07D20F104324
S11324C8DA06D20F120110431A07D20FD2001043B2
S11324D85A07D20F9B079200DB0F10435B00184387
S11324E808700122892005F09FF907BD07B5104B34
S11324F801A9984206D90F4B0B800222982005F0B7
S113250893F907BD0C4B984201D90C4BF4E70C4BDB
S1132518984201D90B4BEFE70B4B984201D90B4B6F
S1132528EAE70B4B9842E8D946F66B73E4E7C046F2
S113253800E9A435E1E9FFFF80F8A932D7DBFFFF02
S11325488044E52DC1C5FFFF000B6B1B7581FFFFA0
S113255840FC541913B501AC20706170A2702100BD
S113256804229520E37005F05FF913BD07B56B46A7
S1132578D91D08700122932005F056F907BD13B53B
S11325886C4652BAA280082240BA49BA20806180B7
S11325985BBA69461000E38005F046F913BD13B52C
S11325A801AC02222100122005F086F9208840BAE5
S11325B880B216BD07B56B46D91D087001229D204F
S11325C805F032F907BD07B50B00072201A9104031
S11325D81A0C08704A705BBA042297204B8005F0E5
S11325E823F907BD37B5104B104D18602B7804003C
S11325F81BB9FFF77BFF01232B7043F60951B4FB8A
S1132608F1F20B0041F684605343E31A9B031B1851
S1132618B3FBF1F392039B181BBA0422862001A989
S1132628019305F001F937BD8410002080100020C3
S113263807B56B46D91D044B0870187001228A200F
S113264805F0F2F807BDC0468D100020014B18783C
S11326587047C0468D10002037B504000D0005F002
S1132668C7FA0200012826D1030000210F2C08D143
S11326780620FFF76FFF231C5AB20E2A0CDD0E2327
S11326880AE00420FFF766FF231C1134F4DA4DF640
S1132698FD33C0F200031B7818215CB240F6E70052
S11326A805F0A4F96B4602228E2001A95D711C7104
S11326B805F0BAF837BD40F6D80005F0F3F91E2145
S11326C80143C9B240F6D80005F090F9012300226D
S11326D807210420FFF73EFF231C093407DA4DF6CF
S11326E8FE33C0F200031B7838215CB2D6E75AB235
S11326F8162AF9DD1623F7E713B50400082200218A
S113270868460AF091F91C4B20781B78834201D063
S1132718FFF78EFF237813B1012B28D013BD62680D
S1132728164B6946B3FBF2F343F609501A0C0A70C8
S11327381A0A4A708B70237BA268CB70637B0B7177
S1132748B2FBF0F103004B43D31A41F684629B03B6
S11327589B18B3FBF0F389035B1869461A0C4A719A
S113276808225BBACB808B2005F05EF8D6E7236994
S1132778042269460093F6E78D1000200000093D05
S113278830B5040085B001AD0922002128000AF003
S11327984BF9224B20781B78834201D0FFF748FF7E
S11327A823781BB1012B2BD005B030BD637AF12BF4
S11327B81AD14FF6FF70FFF7FBFD48F20500FFF74B
S11327C807FE02236288A18852BA2A80227A698085
S11327D8AA710922E188EB71A980A37A2B722900D6
S11327E88C2005F021F8DFE7F22BEBD141F60F50EE
S11327F8FFF7DEFD41F22100FFF7EAFD0623E1E7DA
S1132808A389074A5BBA2B80A37B1370AB70E37B65
S11328180622EB70238AAB80E1E7C0468D100020C6
S11328288C10002007B56B461871597102228F204D
S113283801A904F0F9FF07BD002110B50A00C02062
S113284805F03AF80721021143100A400B4012011F
S11328585800104310BD000013B501AC012221003B
S1132868152005F029F8064B22781B7852085BB22C
S11328789B1A181C803301DA4FF6807000B216BD1B
S1132888480F002037B505000C000222132001A9C7
S113289805F012F8094B1B78012B0CD1084B1B7857
S11328A8012B08D140F2027005F0FCF86B46287041
S11328B85B79237037BD6B461879F7E78D100020D4
S11328C88C100020F7B56B460C00DF1D050039009D
S11328D820001600FFF7D6FF22780120B24204D860
S11328E83878290005F030F90020FEBD37B504001A
S11328F801AD03222900142004F0DEFF254B1B78C8
S113290823704BB1012B24D01B220021601C0AF038
S11329188BF80F2323701BE000222B7823711E4BA6
S11329289A566B7892B25B08D31A191C1BB280337F
S113293801DA4FF680712181AB785B08D31A1A1C2F
S11329481BB2803301DA4FF680720023E280E36021
S113295837BD0022104B9A562B7892B25B08D31AD3
S1132968191C1BB2803301DA4FF6807101232182CE
S1132978EB5602339B10A374AB785B08D31A1A1C6A
S11329881BB2803301DA4FF68072044BA2821B68B3
S1132998A361DDE78D100020480F00208810002077
S11329A8002313B501AC210002221720238004F070
S11329B883FF012362785110100019409940184090
S11329C808439110194089000843D1101940C900DF
S11329D80843111119400901084351111940921172
S11329E849011A40084392011043227813401B02FC
S11329F8184316BD002307B5022201A907200B803E
S1132A0804F012FF07BD07B5022201A940BA0880E5
S1132A18100004F009FF07BD07B56B46D8710E48CE
S1132A28FEF78EFA0D48FEF78BFA6B460122D91D84
S1132A38802004F0F9FE6B46DA79094B4AB9013271
S1132A4820201A70FFF792FD4FF6FF70FFF7DBFFA7
S1132A5807BD02221A70F7E7300E00201C0E002072
S1132A680900002010B5040004F086FE200004F0DC
S1132A7863FE04F0A1FE0020FFF7CEFF04F06AFE17
S1132A8805F0C2F80120FFF795FD0122044B1A70E6
S1132A980023044A1370044A1370044A136010BDD7
S1132AA8090000208D1000208010002084100020D0
S1132AB813B5041CFFF7C0FE60230340202B02D08B
S1132AC80020FFF7A9FF05F0DFF86B46A207D91D20
S1132AD86307DB0FD20F52009B001343E207D20FA8
S1132AE81343842001220B7004F09EFE04210B0082
S1132AF8074A2340214202D00023137013BD082142
S1132B081170044A1370044A1360044AF5E7C04676
S1132B180900002080100020841000208D1000205F
S1132B2837B505F06BF888B96B460122D91D80309A
S1132B380A70074D04F078FE064B40F61110E97A46
S1132B485C6CA04740F61210297BA04737BDC046ED
S1132B58480F002064DB000013B504220400094B6D
S1132B6809481A70FEF7ECF9FFF7DAFF01A9230CFC
S1132B780B700322230A83204B708C7004F054FEDC
S1132B8813BDC046090000201C0E002010B5140017
S1132B98FFF7FEFB2000FFF7DFFF10BD052213B58A
S1132BA804000B4B0B481A70FEF7CAF9942140F63F
S1132BB8AC0004F01BFFFFF7B3FF01A9230C0B7053
S1132BC80322230A82204B708C7004F02DFE13BD5F
S1132BD809000020300E0020F0B540F6E206002778
S1132BE885B03000039704F05DFFFE2140F6E5054B
S1132BF801400400300004F0F9FE280004F052FFFC
S1132C087F2101900140280004F0F0FE0B48FFF7F3
S1132C18C5FF042203A940F6190004F0F1FE3800A8
S1132C28FFF7FAFE2100300004F0E0FE28000199C5
S1132C3804F0DCFE039805B0F0BDC046FFFFFF00BA
S1132C48052213B504000B4B0B481A70FEF778F9EC
S1132C58962140F6AC0004F0C9FEFFF761FF01A914
S1132C68230C0B700322230A82204B708C7004F00F
S1132C78DBFD13BD09000020300E002037B5050028
S1132C880C00FFF74DFF6A462B0C13702B0A537088
S1132C98230C64BA9570D3709480694606229420F4
S1132CA804F0C2FD0622014B1A7037BD090000204A
S1132CB810B5FFF735FF0022C520110004F0B4FD5C
S1132CC80722014B1A7010BD0900002010B5FFF748
S1132CD827FF0022D120110004F0A6FD0422014B95
S1132CE81A7010BD0900002010B5FFF719FF002263
S1132CF8D220110004F098FD0422014B1A7010BD73
S1132D080900002010B50120FFF754FC04F022FD4F
S1132D180120FFF7BEFB0122014B1A7010BDC0460B
S1132D2809000020024B1B780BB9024AD381704773
S1132D388E100020480F0020030000200A2B04D81E
S1132D4840F27D60D840012318407047F7B5294BFD
S1132D5805009E7B3000FFF7EFFF0190002846D066
S1132D680027254C1422390024482770676009F08D
S1132D785BFE18223900224809F056FE21480378E0
S1132D8823B1230046331B78B34230D023004633A3
S1132D9800221E700023A263E3630023A11D220006
S1132DA8CB8780214732117022004832137040F2D9
S1132DB8013C1A00144923640F78B7420ED1012745
S1132DC83D420BD00B2A08D8104FD300D951DB1938
S1132DD8674601329F80019BD2B26D080C4F2C319B
S1132DE8B942E9D10BB14834227001230370019828
S1132DF8FEBDC046480F0020901000209810002007
S1132E08AC1000208E10002000DC0000E010002030
S1132E18FCE000004A425141094A4942114042F249
S1132E28107289180300C8430A2B07D8054AD35CD3
S1132E38054A9B009B58C81803B9C8437047C04645
S1132E48F0D8FFFFA0DA000024DA000010B504006F
S1132E5808002CB1012C09D12100FFF7DBFF10BDBC
S1132E68500042F210729B18C018F8E70120404243
S1132E78F5E70000F7B51B4ACE00B2181279030033
S1132E880120D2B100229C5EDD68844216D1002163
S1132E989868FFF7BFFF134B134A9B5940F20C0C79
S1132EA82A331B781049DB009A5C5B1801920022D4
S1132EB8019ED1B28E4203D80420FEBD5868EAE7C9
S1132EC8614651435F687E18795EA14205D17168F5
S1132ED8A94202D1B168814201D00132E8E7002059
S1132EE8EBE7C046E0100020FCE0000003000D48BA
S1132EF8D200125830B5546802209C4211D8956803
S1132F089D420ED3D2681B1BB3FBF2F454431D1B22
S1132F18A34206D12800012A03D08A429241524290
S1132F28500030BDE0100020044BC900CB585B6949
S1132F3883428041404200017047C046E0100020AF
S1132F48F8B51A4C0020236C63B3A31DDB8F184D0E
S1132F58DB005B59188B28B3FEF7F8F80023226CC2
S1132F6806000F00A06BE16B801859410222002370
S1132F7812184B41BB4216D801D1B24213D80222CF
S1132F885242D317121A8B4192197B410634E18FAE
S1132F980120C9006958098B0BB9914200D8002057
S1132FA8800180B2F8BD00220023EFE790100020D2
S1132FB8E01000200300002082B00190D1B142F259
S1132FC80F7291420CD840F2E73291420AD9013289
S1132FD842F210700192019A401AB0FBF2F0584381
S1132FE802B0704764226329F2D80A220929EFD86B
S1132FF80122EDE70121FBE7F8B51F4C0020236C03
S1133008ABB3A31DDB8F1D4DDB005B59188D70B36B
S1133018FEF79CF8A66BE76B0B0002001900236C03
S113302810009C461A000023B6185F4102220023B0
S113303892197B418B421BD801D1824218D80222B3
S11330485242D317921BBB4112184B4116001F0062
S11330580634E38F6046DB00EB58198DFFF7AAFFAF
S113306801230FB9B04200D80023580180B2F8BD3B
S113307800260027ECE7C04690100020E01000204E
S1133088124AF0B513000400463319784832104B3D
S11330981278DD7B0F4B0639D200C9B2D21893429D
S11330A801D10020F0BD012905D825B918682A30B6
S11330B80078022808D0187930B11E687768A742CA
S11330C802D8B668A642EDD20833E8E7901000208B
S11330D8480F0020E010002073B5204D060001A819
S11330E80C0004F02BF92A78531CDBB22B700AB9B4
S11330F804F046F901A804F026F9701E042809D83A
S113310809F078FA03161A212800502221001448DD
S113311809F0F3FC01A804F011F92B78013BDBB2A8
S11331282B700BB904F040F901A804F00CF973BD35
S113313822780B4B1A70EDE7094B083307CC07C309
S113314806CC06C3E6E7064B1C3307CC07C307CCFB
S113315807C3DFE72268024B5A60DBE74C150020FF
S11331689010002007B5019001A90520FFF7B4FFCE
S113317800200EBDF0B506000D008BB0019311AB15
S11331881B880092029313AB1B781222039315AB8E
S11331981F7804AB0021981D09F046FC009B05AC80
S11331A80793019B21002373029B0320E381039B64
S11331B82680069523746774FFF78EFF00200BB0F2
S11331C8F0BD0000F0B50C00060015008DB00193A9
S11331D812AB04CB00211B780292039314AB1B8817
S11331E81522049315AB1B78059316AB1F7806AB11
S11331F8D81C09F019FC06AB1E809C70019B039A2D
S11332080893029B0420099306AB1A74049A1900C4
S11332185A82059A5F751A750795FFF75DFF0020B6
S1133228024B47331C700DB0F0BDC046901000200F
S113323873B5214D060001A80C0004F07FF82A7824
S1133248531CDBB22B700AB904F09AF801A804F0F5
S11332587AF8701E042809D809F0CCF903161A2242
S11332682A0050222000154909F047FC01A804F05F
S113327865F82B78013BDBB22B700BB904F094F89A
S113328801A804F060F873BD0C4B1B782370EDE7BC
S113329822000A4B083343CB43C203CB03C2E5E7FE
S11332A82200064B1C3343CB43C213CB13C2DDE7C6
S11332B8024B5B682360D9E74C150020901000206E
S11332C8F0B59BB014AD1822040000210EA809F033
S11332D8ABFB29000420FFF7ABFF05200CA9FFF77F
S11332E8A7FF0023EE5EA968EB6830006A68FFF761
S11332F8ADFDF3B202936D4B08905B6A210002980E
S113330898476B4B049048331B786A4E0793684B75
S113331846331B78063BDBB20593674BDB7B06938E
S11333280C9B03930EAB0193002300936B461F7809
S1133338079BBB4200D8A2E0059B012B07D8069B3C
S11333482BB933682A331B78022B00D1A0E03379D8
S1133358002B00D19CE03A0008990398FFF7C6FDBA
S1133368019B3900099028001C88FFF783FD099BFD
S11333783900034304981C43FFF7D6FDA4B2019B0C
S11333880443A4B21C80002C00D081E0FFF734FE73
S11333980400FFF7D5FD009B04435B00180001936C
S11333A810230AA9A4B2C9180C52DCBB0099414BDA
S11333B8CE009A5940F2E733D2699A4232D93B4A4D
S11333C80DA9D56F0120A8470AA903312000A847F1
S11333D8384B364A9959956F24310120A847354B03
S11333E8711DC9182000A84740F2E831314B9A5999
S11333F8D3692020125EB3FBF1F32C499BB20E690A
S113340802980399B04706000DA90120A8470AA904
S113341820000331A8472EB91022802301980AA955
S11334288A181352009B0EAA5B009B5A13BBFDF724
S11334388DFE1F4B049A9863D9631A640633DF8799
S1133448009B1C4ADB00D35814A91B7C8878897814
S11334581A1C49B25BB28B4200DD021C0021144BDA
S113346850B247335956814202D01A7004F0BAFB5D
S1133478002006E06022134212D11B0613D4FF2752
S11334886520FF2318403B401B0218431BB0F0BDC6
S1133498009B083601330093019B0233019345E7EF
S11334A8FF276620EDE7FF276720EAE764DB0000D3
S11334B890100020E0100020480F002037B56B461C
S11334C8DD1C02200C002900FFF7B2FE2B78032034
S11334D81BB92000FFF7F4FEC0B23EBDF0B599B0A9
S11334E8182200210DAC12A809F09EFA210003202D
S11334F8FFF79EFE05200CA9FFF79AFE0022A35EA3
S1133508019303BB63680393404B00271A004832B6
S11335181278463309921B783D4D063BDBB205937E
S11335283C4BDB7B06930C9B079312AB0293099BE2
S1133538BB4210D1FF276420FF2318403B401B02E5
S1133548184319B0F0BD002361681A000198FFF709
S11335587DFC0390D8E7059B012B0DD8069B5BB92E
S11335682B682A331B78022B06D1029B01370233BE
S1133578FFB208350293DAE72B79002BF5D03A002D
S113358803990798FFF7B2FC029B1B881843029B18
S113359884B21C80002CE8D12B681F4A2A331E7879
S11335A8F600B35CB118019A04932300012A25D1CB
S11335B821000E98FFF72EFC40F20C0C0F9B089389
S11335C8154BF3180499E2B28A42CED2624662439A
S11335D85E68B118B25E012A06D14A68089E96420E
S11335E802D18A6882420ED00134EBE70C2058439A
S11335F84A680133825E0198904204D00498DAB292
S11336089042F3D8B1E7002096E7C0469010002016
S1133618E0100020480F0020FCE0000013B56B46C2
S1133628DC1C02202100FFF703FE2378032013B9D2
S1133638FFF754FFC0B216BD03207047032070473C
S1133648F8B52E4C01252300220046331978483258
S11336582B4B1278DE7B2B4B0639D200C9B2D21819
S1133668934205D1002D46D1236C83B90020F8BDBF
S1133678012905D826B918682A300078022804D008
S1133688187947427841404205400833E8E7FDF796
S11336985DFD0222002306000F00A06BE16B1218E7
S11336A84B419F4202D823D1964221D90222524249
S11336B8D317121A8B41B6185F41256C0634E38F71
S11336C8104ADB00D4582800218DFFF773FC218BA6
S11336D80200814200D90A00002328000021801832
S11336E85941B94202D8C1D1B042BFD9801BBEE703
S11336F800260027E1E701204042B8E790100020A7
S1133708480F0020E0100020F0B50B27002491B0EA
S1133718039302ABFF1805001000160002913C70D9
S113372809F0F4F9039B01300693169B0596099357
S11337380123089007970A93189B9C422CD2189B44
S11337481F1B08AB132F16D9179A0093121901924D
S113375828000322029905AB00F0F6F818B10120FD
S1133768404211B0F0BD0B2202ABD21813781434C6
S113377801331370E0E70BAE00930322280002998B
S1133788019605AB00F0E0F80028E8D1179B3A0051
S11337983100181909F0B1F90020E2E770B50024E6
S11337A89C4200D170BD0D5D165D75400555013410
S11337B8F6E710B50C22002109F036F910BD000017
S11337C810B540B1036833B11B78052B03D14068A9
S11337D800F08EF910BD0148FCE7C04600AFFFFFBA
S11337E810B540B1036833B11B78052B03D1406889
S11337F800F00CFF10BD0148FCE7C04600AFFFFF16
S113380810B540B1036833B11B78052B03D1406868
S113381800F037FF10BD0148FCE7C04600AFFFFFCA
S113382810B530B1036823B1836813B1FFF7D8FF2B
S113383810BD0148FCE7C04600AFFFFFF0B5040027
S11338480E0087B000B30368F3B18568E5B101A938
S11338589F78FFF7D5FFA8B92000FFF7B1FF88B913
S1133868236820009A78E919FFF7BAFF50B923684A
S113387820005A7801A9FFF7B3FF18B931002000D6
S1133888FFF7BEFF07B0F0BD0048FBE700AFFFFF3E
S113389810B50A00002109F0C7F810BDF0B589B0C9
S11338A805001600019100284AD00368002B47D070
S11338B88268002A44D09B78B34214D2FFF780FF71
S11338C80400B0BB320028000199FFF789FF040007
S11338D878BB280003A9FFF793FF040048BB2B68B3
S11338E85E7803AB01932B68AF689A783621380069
S11338F8BC1809F099F82B685C219A78200009F023
S113390893F8330039003800019AFFF747FF210084
S113391820003300019AFFF741FF2800FFF750FF0A
S1133928040030B92B68390028009A78FFF758FF4B
S11339380400142103A8FFF7ABFF200009B0F0BD71
S1133948004CFAE700AFFFFFF0B50D000400BDB06E
S113395802A800920193FFF72CFF194B2A002100BB
S113396805AF1CAE02A8039704960293FFF796FFCF
S113397804000500D0B138005C21FFF789FF30004E
S11339888021FFF785FF02A80C21FFF781FF2000A3
S11339983DB0F0BD429A0199AB00D258C95802A86B
S11339A8FFF73EFF04000028E5D10135009BAB4238
S11339B8F0D1439902A8FFF741FF0400DBE7C046B2
S11339C80CE200000200405C5118CB780006184352
S11339D84B781B0418438B781B0218437047030E5B
S11339E88B548918030C4B70030A8B70C87070478A
S11339F870B51D001B23D841084E059B049C9B19D8
S1133A08C01823686A40C0180B68134002226B4030
S1133A18C01820600B68D3410B6070BD9979825A35
S1133A285A400B6830B55A401B23D841064D049BB5
S1133A38039C5B19C018236812189B180222236080
S1133A480B68D3410B6030BDA1EBD96EF0B51B26D2
S1133A58F0410A4F069E059CF6190D6880192668E0
S1133A6880192E00164333402A4013430222C018FB
S1133A7820600B68D3410B60F0BDC046DCBC1B8FD3
S1133A885A400B6830B55A401B23D841064D049B55
S1133A98039C5B19C018236812189B180222236020
S1133AA80B68D3410B6030BDD6C162CA030070B540
S1133AB80F260500C41E083B344033403540A4009B
S1133AC89B005B586458AD004D195C402B680E3858
S1133AD85C401F2330408000405860401060D8414B
S1133AE8286070BD10B510B15C21FFF7D1FE10BD80
S1133AF803000020064A18609A60064A5860DA6093
S1133B08054A1A61054A5A61054A9A617047C046CE
S1133B180123456789ABCDEFFEDCBA9876543210A1
S1133B28F0E1D2C3F0B50D00ADB003900021280038
S1133B38FFF748FF0421070017902800FFF742FF0A
S1133B480821060018902800FFF73CFF0C21040008
S1133B5819902800FFF736FF102107901A902800C3
S1133B68FFF730FF142108901B902800FFF72AFF65
S1133B78182109901C902800FFF724FF1C210A90A3
S1133B881D902800FFF71EFF20210B901E9028008F
S1133B98FFF718FF24210C901F902800FFF712FF4D
S1133BA828210D9020902800FFF70CFF2C210E905F
S1133BB821902800FFF706FF30210F90229028005B
S1133BC8FFF700FF3421109023902800FFF7FAFE36
S1133BD83821119024902800FFF7F4FE3C2112901C
S1133BE825902800FFF7EEFE039B13909B68269010
S1133BF805932793039B28A9DB6814932893039BB5
S1133C081B6904932993039B5B6906932A93039B7B
S1133C18049A9B69059815932B932BAB01970093F2
S1133C28069BFFF7E5FE289D2AAB2A002B980196F0
S1133C38009327A9049BFFF7DBFE279E019429AC78
S1133C482B0032002A982BA90094FFF7D1FE079B7A
S1133C582B9D019328AB2A00299800932AA93300A5
S1133C68FFF7C6FE089B2A9E019327AB320021006A
S1133C78289800932B00FFF7BBFE099B299D01930D
S1133C882BAB2A002798009328A93300FFF7B0FE2E
S1133C980A9B289E01932AAB32002B98009327A9EC
S1133CA82B00FFF7A5FE279D0B9B2A002A9801935A
S1133CB82BA933000094FFF79BFE0C9B2B9E0193CA
S1133CC828AB3200299800932AA92B00FFF790FE0D
S1133CD80D9B2A9D019327AB2A0021002898009365
S1133CE83300FFF785FE0E9B299E01932BAB320010
S1133CF82798009328A92B00FFF77AFE0F9B289D8D
S1133D0801932AAB2A002B98009327A93300FFF7C5
S1133D186FFE279E109B32002A9801932BA92B0033
S1133D280094FFF765FE119B2B9D019328AB2A0095
S1133D38299800932AA93300FFF75AFE129B2A9E5A
S1133D48019327AB32002100289800932B00FFF73A
S1133D584FFE139B299D01932BAB2A0027980093B0
S1133D6828A93300FFF744FE16AA17A910202B9E92
S1133D78289FFFF79BFE2AAB3A000190009330007E
S1133D882B0027A9FFF734FE16AA17A911202A9D8C
S1133D98279E289FFFF78AFE3B00320001902BA93B
S1133DA828000094FFF724FE16AA17A91220299DBB
S1133DB82B9E279FFFF77AFE28AB320001900093D1
S1133DC828003B002AA9FFF713FE16AA17A91320F7
S1133DD8289D2A9E2B9FFFF769FE27AB32002100FE
S1133DE80190009328003B00FFF702FE16AA17A9CA
S1133DF81420279D299E2A9FFFF758FE2BAB3200DB
S1133E080190009328003B0028A9FFF709FE16AA91
S1133E1817A915202B9D289E299FFFF747FE2AAB3B
S1133E2832000190009328003B0027A9FFF7F8FD12
S1133E3816AA17A916202A9D279E289FFFF736FE43
S1133E483B00320001902BA928000094FFF7E8FDFD
S1133E5816AA17A91720299D2B9E279FFFF726FE30
S1133E6828AB32000190009328003B002AA9FFF7F1
S1133E78D7FD16AA17A91820289D2A9E2B9FFFF75D
S1133E8815FE27AB320021000190009328003B0067
S1133E98FFF7C6FD16AA17A91920279D299E2A9F50
S1133EA8FFF704FE2BAB32000190009328003B007F
S1133EB828A9FFF7B5FD16AA17A91A202B9D289E35
S1133EC8299FFFF7F3FD2AAB3200019000932800E5
S1133ED83B0027A9FFF7A4FD16AA17A91B202A9DB2
S1133EE8279E289FFFF7E2FD3B00320001902BA993
S1133EF828000094FFF794FD16AA17A91C20299DF1
S1133F082B9E279FFFF7D2FD28AB32000190009328
S1133F1828003B002AA9FFF783FD16AA17A91D202C
S1133F28289D2A9E2B9FFFF7C1FD27AB3200210055
S1133F380190009328003B00FFF772FD16AA17A909
S1133F481E20279D299E2A9FFFF7B0FD2BAB320028
S1133F580190009328003B0028A9FFF761FD16AAE9
S1133F6817A91F202B9D289E299FFFF79FFD2AAB89
S1133F7832000190009328003B0027A9FFF750FD69
S1133F8816AA17A920202A9D279E289FFFF78EFD91
S1133F983B00320001902BA928000094FFF740FD54
S1133FA816AA17A92120299D2B9E279FFFF77EFD7E
S1133FB828AB32000190009328003B002AA9FFF7A0
S1133FC82FFD16AA17A92220289D2A9E2B9FFFF7AA
S1133FD86DFD27AB320021000190009328003B00BF
S1133FE8FFF71EFD16AA17A92320279D299E2A9F9D
S1133FF8FFF75CFD2BAB32000190009328003B00D7
S113400828A9FFF70DFD16AA17A924202B9D289E81
S1134018299FFFF74BFD2AAB32000190009328003B
S11340283B0027A9FFF7FCFC16AA17A925202A9DFF
S1134038279E289FFFF73AFD3B00320001902BA9E9
S113404828000094FFF7ECFC16AA17A92620299D3E
S11340582B9E279FFFF72AFD28AB3200019000937F
S113406828003B002AA9FFF7DBFC16AA17A927207A
S1134078289D2A9E2B9FFFF719FD27AB32002100AC
S11340880190009328003B00FFF7CAFC16AA17A961
S11340982820279D299E2A9FFFF708FD2BAB320075
S11340A80190009328003B0028A9FFF7CFFC16AA2B
S11340B817A929202B9D289E299FFFF7F7FC2AABD7
S11340C832000190009328003B0027A9FFF7BEFCAB
S11340D816AA17A92A202A9D279E289FFFF7E6FCDF
S11340E83B00320001902BA928000094FFF7AEFC96
S11340F816AA17A92B20299D2B9E279FFFF7D6FCCC
S113410828AB32000190009328003B002AA9FFF74E
S11341189DFC16AA17A92C20289D2A9E2B9FFFF7E1
S1134128C5FC27AB320021000190009328003B0016
S1134138FFF78CFC16AA17A92D20279D299E2A9FD4
S1134148FFF7B4FC2BAB32000190009328003B002E
S113415828A9FFF77BFC16AA17A92E202B9D289EB9
S1134168299FFFF7A3FC2AAB320001900093280093
S11341783B0027A9FFF76AFC16AA17A92F202A9D36
S1134188279E289FFFF792FC3B00320001902BA941
S113419828000094FFF75AFC16AA17A93020299D75
S11341A82B9E279FFFF782FC28AB320001900093D7
S11341B828003B002AA9FFF749FC16AA17A93120B1
S11341C8289D2A9E2B9FFFF771FC27AB3200210004
S11341D80190009328003B00FFF738FC16AA17A9A2
S11341E83220279D299E2A9FFFF760FC2BAB3200C3
S11341F80190009328003B0028A9FFF727FC16AA82
S113420817A933202B9D289E299FFFF74FFC2AAB23
S113421832000190009328003B0027A9FFF716FC01
S113422816AA17A934202A9D279E289FFFF73EFC2B
S11342383B00320001902BA928000094FFF706FCEC
S113424816AA17A93520299D2B9E279FFFF72EFC18
S113425828AB32000190009328003B002AA9FFF7FD
S1134268F5FB16AA17A93620289D2A9E2B9FFFF72F
S11342781DFC27AB320021000190009328003B006D
S1134288FFF7E4FB16AA17A93720279D299E2A9F22
S1134298FFF70CFC2BAB32000190009328003B0085
S11342A828A9FFF7D3FB16AA17A938202B9D289E07
S11342B8299FFFF7FBFB2AAB3200019000932800EB
S11342C83B0027A9FFF7C2FB16AA17A939202A9D84
S11342D8279E289FFFF7EAFB3B00320001902BA999
S11342E828000094FFF7B2FB16AA17A93A20299DC3
S11342F82B9E279FFFF7DAFB28AB3200019000932F
S113430828003B002AA9FFF7A1FB16AA17A93B20FE
S1134318289D2A9E2B9FFFF7C9FB27AB320021005B
S11343280190009328003B00FFF790FB16AA17A9F9
S11343383C20279D299E2A9FFFF7B8FB2BAB320010
S11343480190009328003B0028A9FFF799FB16AABF
S113435817A93D202B9D289E299FFFF7A7FB2AAB71
S113436832000190009328003B0027A9FFF788FB3F
S113437816AA17A93E202A9D279E289FFFF796FB79
S11343883B00320001902BA928000094FFF778FB2A
S113439816AA17A93F20299D2B9E279FFFF786FB66
S11343A828AB32000190009328003B002AA9FFF7AC
S11343B867FB16AA17A94020289D2A9E2B9FFFF762
S11343C875FB27AB320021000190009328003B00C5
S11343D8FFF756FB16AA17A94120279D299E2A9F55
S11343E8FFF764FB2BAB32000190009328003B00DD
S11343F828A9FFF745FB16AA17A942202B9D289E3A
S1134408299FFFF753FB2AAB320001900093280041
S11344183B0027A9FFF734FB16AA17A943202A9DB6
S1134428279E289FFFF742FB3B00320001902BA9EF
S113443828000094FFF724FB16AA17A94420299DF5
S11344482B9E279FFFF732FB28AB32000190009385
S113445828003B002AA9FFF713FB16AA17A9452031
S1134468289D2A9E2B9FFFF721FB27AB32002100B2
S11344780190009328003B00FFF702FB16AA17A936
S11344884620279D299E2A9FFFF710FB2BAB32005D
S11344980190009328003B0028A9FFF7F1FA16AA17
S11344A817A947202B9D289E299FFFF7FFFA2AABBF
S11344B832000190009328003B0027A9FFF7E0FA97
S11344C816AA17A948202A9D279E289FFFF7EEFAC7
S11344D83B00320001902BA928000094FFF7D0FA82
S11344E816AA17A94920299D2B9E279FFFF7DEFAB4
S11344F828AB32000190009328003B002AA9FFF75B
S1134508BFFA16AA17A94A20289D2A9E2B9FFFF7AF
S1134518CDFA27AB320021000190009328003B001C
S1134528FFF7AEFA16AA17A94B20279D299E2A9FA2
S1134538FFF7BCFA2BAB32000190009328003B0034
S113454828A9FFF79DFA16AA17A94C202B9D289E87
S1134558299FFFF7ABFA2AAB320001900093280099
S11345683B0027A9FFF78CFA16AA17A94D202A9D04
S1134578279E289FFFF79AFA3B00320001902BA947
S113458828000094FFF77CFA16AA17A94E20299D43
S11345982B9E279FFFF78AFA28AB320001900093DD
S11345A828003B002AA9FFF76BFA16AA17A94F207F
S11345B8289D2A9E2B9FFFF779FA27AB320021000A
S11345C80190009328003B00FFF75AFA059A279BAD
S11345D816A89B18039A58219360149A289B9B1831
S11345E8039AD360049A299B9B18039A1361069A29
S11345F82A9B9B18039A5361159A2B9B9B18039A21
S11346089361FFF745F900202DB0F0BDF7B504001C
S1134618160000919AB33F2503681D409B18036058
S1134628934202D2436801334360B5B140277F1BEC
S1134638BE4212D323001C3300993A00581901933F
S113464808F05BFA20000199FFF76CFAC0B97619F3
S11346580500009B403EDB190093370004E020006E
S1134668FFF760FA60B9403F009B9919C91B3F2FB7
S1134678F5D827B11C343A00601908F03EFA002036
S1134688FEBDF8B504003F22270003680E0013405E
S1134698581C4132E3181A771C37382837D80021B8
S11346A8483A121A381808F0BFF9256860686B0F81
S11346B8C000184338223900FFF791F9E8003C227A
S11346C83900FFF78CF939002000FFF72BFA0500B1
S11346D8C0B902003100A068FFF781F90422310053
S11346E8E068FFF77CF9082231002069FFF777F9C1
S11346F80C2231006069FFF772F910223100A069B9
S1134708FFF76DF92000FFF7EDF92800F8BD402206
S11347180021121A381808F087F939002000FFF729
S113472801FA05000028EDD1010038223800BAE763
S113473840F2E41201230249885C03438B54704716
S11347484011002040F2E41202230249885C03432A
S11347588B5470474011002010B5204C23006A3355
S11347681A7823004433187852070138520F08285E
S113477812D807F03FFF1C1C05121416181A2B0038
S11347880023012A15D0032A20D0002144341422FE
S11347981348217003F0CBFD10BD0223F1E7032376
S11347A8EFE70523EDE70623EBE70723E9E704230F
S11347B8E7E70C49A26E0A400B498A42E5D040F269
S11347C870120A48A35463689847DEE740F26C13F2
S11347D8E35C002BD9D00548E368F5E740110020D5
S11347E8AC120020FF00800011008000B0120020ED
S11347F8F0B585B06B466A46164C9F1DA61C390059
S1134808F07F03AB073202F013FA0D25E8B9631CF5
S1134818F17FD87F02AA02F021FA0500C0B923006B
S11348283A7848331A706A462300D27950331A709A
S1134838039B094A6365029B0849E364E31CDB7F25
S113484858342370F07F02F027FA280005B0F0BD31
S11348580E25FAE7401100209C1100209911002030
S1134868F0B50E270F221A4D87B06F44AE1C3900DD
S1134878F07F05AB6A4402F0DBF90D2418BB6B1C0E
S1134888F17FD87F04AA02F0E9F90400F0B940F2F4
S113489880133A780621EA546B46DA7B40F288138F
S11348A8EA54059A0433EA50049A083BEA50094A40
S11348B8F07F0092AA6A084B02F00CFA220007491A
S11348C8F07F02F0E9F9200007B0F0BD0E24FAE702
S11348D840110020E0120020DC120020E412002025
S11348E810B5074C02F0F2F8230068331A7805492A
S11348F8054801F09FFF10B902234434237010BD0A
S113490840110020AA1100208811002070B50B4D19
S11349182B1DDC7F6CB102F0D9F80121084801F0A5
S1134928F7FF040008B102F0ADF8042320002B704F
S113493870BD02F0A7F80323F8E7C0464011002031
S1134948C0120020094B1A78092A04D0042A02D07C
S11349580E221A7070470B221A701A006A321278E3
S11349689206F7D505224433F3E7C04640110020E8
S1134978F0B587B0060004240391002800D18CE028
S11349880368002B00D188E04368002B00D184E041
S11349988368002B00D180E0C368002B7DD00369B5
S11349A8002B7AD00A2978D83D4D023C2B78042B69
S11349B873D840F210220021280003F0B8FC01F05B
S11349C8D5FE0400002868D105AF3900039802F029
S11349D8A9F80400002860D100F04CFF02F03CFA6A
S11349E82B00039A40331A70310014222D4803F027
S11349F889FC2D4E282230002C4903F083FC3B8887
S1134A0838785BBA2B840223FB56EA1C284FD377E9
S1134A184036284A33703900274BAE1C039202F003
S1134A2807F96B1CD87F254AF17F02F017F924494E
S1134A38244AF07F02F030F940F280133A78224891
S1134A48EA54EA6C0433EA50039B1A7840F2881358
S1134A58EA546A6D0433EA5002F02EF91B4AF07FD7
S1134A6800921B4B0621AA6A02F034F90022194964
S1134A78F07F02F011F940F2E413002216481749B6
S1134A88EA54FCF72DFA16481649FCF729FA01F0FE
S1134A982DF801F0F7FF01232B70200007B0F0BDBB
S1134AA840110020441100205811002010E2000099
S1134AB88811002090110020941100208C110020EE
S1134AC8991100209C110020D0120020E01200202F
S1134AD8DC120020E41200202813002039470000CB
S1134AE83C1300204D47000070B501240A4D2E7870
S1134AF8A6420DD101F068FE2B003C33187802F071
S1134B0877F8FFF703FF040020B9300001F00CF830
S1134B18200070BD2E70FBE74011002010B50B4C2F
S1134B282078042804D807F065FD0E07030705005C
S1134B38022010BD01F0A6FF01230020237000F01D
S1134B48F3FF0020F5E70120F3E7C04640110020F9
S1134B58F0B5BA4E9FB03378022B7AD910AD01F074
S1134B6849FF280001F04EFF2B784BB3DB0605D52F
S1134B783378062B00D16EE00E23337004222B7891
S1134B88134205D03178062900D189E00A323270FF
S1134B981B0708D53378092B00D187E0042B00D1F3
S1134BA884E00E23337010AD2C78A30701D5FFF7EA
S1134BB8C9FEE40701D5FFF7C5FE280001F074F823
S1134BC89F4F10AC200002F0B9FB3A78531CDBB2BB
S1134BD83B700AB902F0D4FB200002F0B4FB40F2A7
S1134BE8E41300222000F55CF25402F0A7FB3B78A2
S1134BF8013BDBB23B700BB902F0D6FB200002F09C
S1134C08A2FB002D00D1FBE2EB0705D53378082B76
S1134C1800D1C9E20E2333703278AD0700D4EFE235
S1134C280E230C2A00D0D4E2FFF75AFE06230028EC
S1134C3800D0C4E2337073695BB13378033B012B52
S1134C4807D811A802F0E6F918B920707369200092
S1134C5898471FB0F0BD3300032244331A7001F0A3
S1134C6823FF40F2A013F75802F0C8FF40F2D433F0
S1134C78FC18012801D00A33FC18FCF767FAAA6863
S1134C88EB68801A9941211ACB436E4CDB17194003
S1134C982000FCF753FA2000FCF7C4F908236CE75A
S1134CA807213170310044310A7071E740F2A813CA
S1134CB812AAF25040F2AC1240F2B0172B6900214C
S1134CC8B350AB8AAC3AF3555F4BFF3A18000593DF
S1134CD803F02DFB40F2C4122B690024B35040F2B8
S1134CE8C813B13A2100F45458480433FF3AF45035
S1134CF803F01DFB01F0C6FE0A231725337002AB2F
S1134D08ED18B31C22002900D87F01F0C5FF040068
S1134D18F0BB4F4BF25D2878039340F2C41340F282
S1134D28AC11F3584B4F4C4D029301970095059BDA
S1134D38715801F0B6FA040050BB40F2C813F35C92
S1134D482900009340F2C4133A000598F35800F080
S1134D58F1FE424D08222900380007F057FEB0B989
S1134D6840F2B1130722F35C1340032B18D140F22D
S1134D78C413F15808780238052800D98DE007F0E3
S1134D8843FC71009000BE00C400ED00060113242A
S1134D9840F2B1125F21B35C0B40B3540B23337060
S1134DA8330044331A78032A0DD1AF32FF32B25C90
S1134DB87F2A06D832006A321278920601D5052273
S1134DC81A70FFF7C9FC002C00D06EE140F2B11351
S1134DD8F25CAB3BFF3B1340032B00D005E1CA3325
S1134DE8FF33F358002B00D1FFE01B78042B00D1CC
S1134DF8D3E0062B00D15EE1022B00D0F5E0164D7E
S1134E080CA9280002F0E1F8002800D0EDE0290000
S1134E18124A13480CAB01F094F9002800D0E4E0DE
S1134E282100280002F076F801212800494202F006
S1134E3894F83300012244331A70D6E0401100205C
S1134E484C15002028130020F11200201013002014
S1134E5808130020FA120020F21200205811002032
S1134E68A811002033002C331B78B3B140F2C813C7
S1134E78F35C102B11D91022013108A803F042FA6F
S1134E8810210CA800F01AFE002329000093D24830
S1134E9808AB0CAA00F0C4FD58B340F2CC130022AE
S1134EA82BE040F2C813F35C102BF6D9013108A8A3
S1134EB8102203F027FAC84F0CA9380002F061F851
S1134EC80028EAD101232900009338000CAB08AA72
S1134ED800F0A6FD05000028DFD10100380002F02B
S1134EE819F801213800494202F037F840F27413E6
S1134EF8F55440F2C413F2580833F25050E740F224
S1134F08C813F35C002BF4D1C7E740F2C813F35C71
S1134F18052BC2D90CAD05220131280003F0F2F9A2
S1134F2840F275122B789B069B16B35440F2761305
S1134F386A78F254E9782A79AB78090212040B43A7
S1134F4813433200FC32D3671BB1A44A0A3B934291
S1134F58A3D840F274130022F254CAE740F2C813EB
S1134F68F35C032B99D90CAD03222800013103F01B
S1134F78C9F96B78AA781B02120413432A781343DD
S1134F88002BB6D0954A0A3B9342B2D985E740F242
S1134F98C813F35C002BDCD17FE70CAD2C7013072E
S1134FA801D502232B70920604D580232A785B420C
S1134FB813432B7008228A49874807F027FD0024E9
S1134FC800B9B46B40F2A813F358864A1B7C0194C9
S1134FD80295F41CE47F804964B283485BB2009470
S1134FE801F0EBF8002800D123E740F2B114335D57
S1134FF810AD5A07520F012A76D0032A00D196E041
S11350083400443423780BBB734B1800059301F028
S11350180BFB2378D3B940F2B112B25C920615D5D2
S113502803AA13700122704F029301936D4B110070
S113503800933800059B00F07BFF38B933005933DF
S11350483A781B789A4201D80123237033004433F9
S11350581B78012B29D101F027FD330040F24024AD
S113506868331B785C4343F2D473E41842F2107338
S113507894FBF3F402F0C2FD012800D191E040F260
S1135088DD331C1BFCF762F8AA68EB68801A9941A7
S1135098211ACB43554CDB1719402000FCF74EF876
S11350A82000FBF7BFFF0C23337001220021504876
S11350B803F03DF977E50CAB1C70110701D502210B
S11350C81970920604D58022197852420A431A703C
S11350D8444C41492200444801F0C9F8002884D1CD
S11350E801232C34237080E740F2D011002070543F
S11350F83949D530FF30315040F2C4117058143159
S113510870501039705C14317054E88A023170524E
S1135118287E02317054D809DB08134040F2E212A9
S113512801317054B3543348B368984768E740F280
S1135138CC13F358002B00D162E740F2C413F158A2
S11351480B78022B21D0062B00D059E70CAF38007E
S1135158013103F0D7F87B78BA781B023F78120440
S113516813431F43022240F2D0131B49F25422482E
S1135178063203F0C7F840F2DC1340F2E012F750AD
S1135188335D1B07DB0FB35408E0002240F2D01351
S11351981149F2541848083203F0B4F81548336931
S11351A8C3E740F2D3336CE701F090FC00211348C5
S11351B801F0AEFB002800D02CE509232BE51028CC
S11351C803D01138431E9841C31D32004432137072
S11351D8072333701EE0C046F2120020F5FF0100D9
S11351E87011002058110020A81100203C13002041
S11351F8F11200201013002014130020C012002004
S113520832780E2A00D916E546F68043D340DB07E8
S113521800D410E5330044331B780BB1FFF79CFA34
S113522840F2CC130022F250FFF770FB03E5C046AE
S113523873B504230D0091B11A4C033B227872B163
S1135248073307280BD807F0D5F9040C10121416E5
S1135258191C08221449280003F054F800231800E4
S113526876BD0134E37F2B70F8E70234FAE70334A0
S1135278F8E70434F6E72C342378F4E70C220B49D6
S1135288E9E701AE3100012001F0A0FA030000288B
S1135298E5D123003C3332781978914200D01A7052
S11352A83C34E9E740110020581100207011002017
S11352B8F7B504000E0000295AD0304D2B78002B86
S11352C858D0042B03D9062842D0022412E0072818
S11352D852D807F08FF9040A111A1C393D400822E4
S11352E82748310003F00EF80DE02B1DDB7F022464
S11352F8013533B12000FEBD2B1DDB7F002BF9D116
S113530802353378EB770024F4E70335F9E70B78B3
S11353187BB933782F1DFB772B78022BF3D9FFF752
S1135328F5FA04000028E5D00023FB77FFF7EEFA2E
S1135338E0E7FFF795FA04000028DBD1FFF758FAF5
S113534804000028E5D0D5E70B782C352B70DAE774
S11353580C220C48C5E7337801A901200B7001F031
S11353684FFA04000028C5D133783C352B70C1E7C7
S11353780424BFE70124BDE70824BBE7401100204B
S1135388581100207011002037B505000424A8B175
S11353980B48033C007888B1013404280ED80698D9
S11353A80090280001F0F2FC040038B9280001F04C
S11353B887F8040010B1280001F032FD20003EBD3A
S11353C8401100200B4B10B51B780400012053B189
S11353D80018042B07D83CB1200001F021FD20005F
S11353E801F08EF8002010BD01F02CFD01F056F8F4
S11353F8F8E7C04640110020F0B50500042487B042
S1135408002800D180E04A4E013C3378022B7BD936
S1135418042B02D9013C0A2B76D1330044331B7880
S11354280224002B70D1FFF7E3F90400B8B9FFF7A1
S113543817FA040098B933780A2B4ED108222800A9
S11354483C4907F0E3FA023448B917276F44380097
S1135458297B2A7C00F05CFD0400002844D02B7CC6
S11354685B075ED43378002C51D122000A2B04D177
S1135478A833FF33F45CA406E20F78212B7C03AC39
S11354888B43287BA9682B742B4F23702B4B0290DA
S11354980191009301212B00380000F049FD04001C
S11354A8002834D13A000F3A397812783378043422
S11354B891422CD80122243F3A70E9897232FF3292
S11354C8B1520A2B19D0FFF70BFA0400F8B9337854
S11354D80A2B18D00623337015E0280001F0C0FC0D
S11354E804000028B1D0BAE7330059331C783B785C
S11354F89C42A4416442A400B1E740F2E4130224AC
S1135508F35C234203D10024200007B0F0BD33002C
S1135518002244331A7033780A2BF5D0FFF7F6F9D2
S1135528F2E7002CF0D1280000F0FAFF0400EBE7C2
S113553840110020F2120020A81100205811002068
S1135548F0B50700042489B0002879D0994D013CAE
S11355582B78022B74D9FFF74BF9040000286FD17C
S1135568FFF77EF9040000286AD13C78012C00D1A9
S11355786BE0022C00D1B6E0002C00D017E12B78A8
S1135588042B02D902340A2B5AD12B0044331B783A
S11355980224002B54D13E1D300001F061FC3B7BFA
S11355A804005B0700D5FAE02B78D8B90A2B04D19C
S11355B8A833FF33EC5CA406E40F102104A800F020
S11355C87DFA7D4F00943A0031007C4804AB00F02A
S11355D87FFD040030B92B780A2B10D0FFF780F92F
S11355E8B8B10400002340F26C12AB542A004432D0
S11355F813702B780A2B23D0FFF788F920E040F2A8
S1135608E413EA5CE33BFF3B1A421CD12C37013B11
S11356183B7004A9300001F0C6FC40F26C1301226F
S1135628EA5400220433EA5431000433083264484B
S1135638EA5402F067FE2B780A2B01D006232B705C
S1135648200009B0F0BD1C00CCE72B78042B02D94C
S113565802240A2BF4D12B0044331B780224002B98
S1135668EED13B1D1800029301F0FAFB3B7B0400CA
S11356785B0700D593E02A780028B3D103000A2AEF
S113568804D1B233FF33EB5C9B06DB0F4A4E0C3775
S113569832004A480299009700F073FD040000287C
S11356A8A0D12B780A2B13D0FFF71AF9040000288D
S11356B898D1012340F26C12AB540432AB54043237
S11356C8AB542B780A2B01D006232B700024B7E7A0
S11356D840F2E4130224EB5C234200D082E7012366
S11356E82C363370E5E72B78042B01D90A2BA7D184
S11356F82B0044331B78002BA2D13B1D18000393C5
S113570801F0AEFB060038B93B692BB12D4E0A3BBC
S11357189E42B6417642B6003B7B5B073ED42B786B
S113572876BB0A2B04D1A833FF33EE5CB606F60F1A
S1135738214B009602933B000C3301931F483B69AD
S1135748029A039900F072FD0600C8B92B780A2B57
S11357580BD0FFF7C5F8060090B940F26C1201238C
S11357680221AB540432A954A9E740F2E413EB5CD8
S11357789B0704D40122029B2C331A70EDE7260000
S1135788002340F26C12AB542A00443213702B7875
S11357980A2B01D0FFF7BAF8340051E73400002C83
S11357A800D04DE7380000F0F5FE040048E708246F
S11357B846E7C0464011002058110020A8110020D7
S11357C8B5120020F5FF010070B50F4D02242B78A7
S11357D8032B14D872B6BFF34F8FBFF36F8F01F04A
S11357E845F940F2E413EC5C40000443E4B244B9E4
S11357F801F0CAFE62B6BFF34F8FBFF36F8F20006C
S113580870BD0224F6E7C04640110020030010B51D
S1135818080011001BB1012B04D0142010BD01F0A5
S113582828FBFBE701F037FBF8E7F0B506000C00AE
S113583815001F00BBB009B91420CAB904A801F0A7
S11358482BFC390004A801F037FC26B110223100E2
S113585804A801F035FC2A00210004A801F030FC5A
S1135868684604A901F0A6FC0020009A409B1A602F
S11358783BB0F0BD00207047F0B5BDB01C0042AB92
S11358881E78019204230AB11EB9002318003DB002
S1135898F0BD0423002CF9D003AAFFF7B7FF0500D5
S11358A803000028F2D10123152007AF3B7002AB97
S11358B8C0180822019902F02EFD1D2002ABC01861
S11358C8042243A902F01EFD01237D73BD730193D5
S11358D8232202AB9B18019A0BAF1A7000211022E5
S11358E83800244D02F023FDB02200210FA802F055
S11358F81EFD03A90FA804F0D3FFAB681E4A07A92D
S11359081340AB60AB680FAA5B005B08AB60380060
S113591804F0D4FF0821194A013E9378F6B28B4368
S113592893708023AA685B051343AB608023AA683D
S11359381B061343AB6023783A7853402370621CE8
S1135948AEB1210014001031A14209D02278787830
S1135958013E4240F6B2227001370134002EF3D1E1
S1135968019B0133DBB20193002EB1D18DE7140002
S1135978F6E7C046FC6F0440FFFFFFEF00100D4040
S113598837B506AC2478079D00940195FFF774FF9A
S11359983EBDF0B58FB00393160014AB06AA1F786A
S11359A8FFF734FF040010BB492321200AAD2B70F4
S11359B802ABC0180822310002F0ADFC292002AB6A
S11359C8C018042215A902F09DFC05AB6C73AC73D6
S11359D8EF733A0000932800039906ABFFF725FFFD
S11359E8040020B9169B13B1059B169A1360200076
S11359F80FB0F0BD70B588B0140004AA1E000C9D49
S1135A08FFF704FF50B903AB00933200210004AB45
S1135A18FFF70BFF10B90DB1039B2B6008B070BDE5
S1135A28F0B5A5B005932AAB1B7804000E00170047
S1135A3804250793E0B3DAB3059BCBB309A901F0B6
S1135A4818FA0500A0BB079B06940BB1069626001E
S1135A581922194911A807F050F83100082218A88A
S1135A6802F050FC082206991AA802F04BFC1022F6
S1135A7839001CA802F046FC1022059920A802F05F
S1135A8841FC102130230DAE11AA02910093019616
S1135A9818AB09A8FDF738FE0599200001F083FA30
S1135AA83900200001F0A3FA3100200001F005FAC2
S1135AB8280025B0F0BDC0462BD3000070B5050002
S1135AC80C0084B1084B013C5B699847E4B2287028
S1135AD84CB12B1D0135000A9D42F2D0013CE4B2C1
S1135AE82870002CF6D170BD64DB000070B5064C3C
S1135AF825783DB908222900200002F018FC01236A
S1135B086560237070BDC04650130020CC231B066B
S1135B181840014B5860704750130020014B5868D7
S1135B287047C04650130020014B58707047C04658
S1135B3850130020F0B585B001930AAB1E784B4B87
S1135B4800925A7805000C00002A00D186E05B68B0
S1135B58002B00DB82E002ABDF1D012201003800CC
S1135B6802F0D0FB424802F06EFB424802F06BFBA5
S1135B78414802F068FB0221387802F06EFB3F4886
S1135B8802F061FB3E4802F05EFB287801214007E1
S1135B98400F02F062FB3B4802F055FB3A4802F022
S1135BA852FB287800220121C00902F06AFB35481B
S1135BB802F049FB354802F046FB287800228006AB
S1135BC80121C00F02F05DFB2E4802F03CFB304877
S1135BD802F039FB2878002200070121C00F02F0E7
S1135BE850FB244802F02FFB25002A4802F02BFB27
S1135BF8083520780221013402F02FFBAC42F8D199
S1135C081C4802F020FB244802F01DFB009C2500E0
S1135C18083520780221013402F01FFBAC42F8D188
S1135C28144802F010FB1D4802F00DFB002203216A
S1135C38300002F026FB1A4802F005FB0D4802F07A
S1135C4802FB184802F0FFFA019CA619B44207D1D6
S1135C58084802F0F8FA074802F0F5FA05B0F0BD72
S1135C682078022102F0F9FA0134EFE750130020FA
S1135C7844D300001CD300004ED3000062D30000BC
S1135C8866D3000073D3000076D300007BD30000F2
S1135C987FD3000084D3000096D30000A8D300006B
S1135CA8BAD30000C0D3000010B51E4B04005A78C4
S1135CB8BAB35B685B0034D5037893B31A4802F02F
S1135CC8C2FA2378DB0605D5184802F0BCFA18484E
S1135CD802F0B9FA23785B0705D5164802F0B3FA3F
S1135CE8134802F0B0FA23781B0705D5124802F0CE
S1135CF8AAFA0F4802F0A7FA23789B0705D50F489C
S1135D0802F0A1FA0A4802F09EFA2378DB0705D5C7
S1135D180B4802F098FA064802F095FA044802F093
S1135D2892FA10BD50130020D2D30000E2D3000031
S1135D381CD30000EDD30000FBD3000006D4000000
S1135D4812D4000010B52C4B04005A78002A4CD009
S1135D585B685B0149D5294802F075FA284802F0C6
S1135D6872FA284802F06FFA2378012B3ED12648AC
S1135D7802F069FA224802F066FA244802F063FA4B
S1135D8800220A21606802F07CFA1D4802F05BFADE
S1135D981F4802F058FA00220A21207A02F071FA08
S1135DA8174802F050FA1B4802F04DFA00220A2163
S1135DB8E06802F066FA124802F045FA164802F062
S1135DC842FA00220A21607C02F05BFA0C4802F0D5
S1135DD83AFA124802F037FA1020002220560A2113
S1135DE802F04FFA064802F02EFA10BD022B01D138
S1135DF80B48BDE70B48BBE75013002020D4000034
S1135E081CD300002FD4000042D400004FD400005B
S1135E1862D4000075D4000088D400009BD400002C
S1135E2847D400004BD4000070B52D4B04005A78B9
S1135E380D00002A4CD05B681B0149D5294802F0A3
S1135E4802FA294802F0FFF9284802F0FCF92378FD
S1135E58012B3ED1264802F0F6F9234802F0F3F963
S1135E68244802F0F0F900220A21606802F009FAD5
S1135E781D4802F0E8F9204802F0E5F900220A2159
S1135E88207A02F0FEF9184802F0DDF91B4802F006
S1135E98DAF900220A21E06802F0F3F9124802F064
S1135EA8D2F90534164802F0CEF900220A21E07F1F
S1135EB802F0E7F90C4802F0C6F9124802F0C3F9F7
S1135EC8280000220A2102F0DCF9074802F0BBF995
S1135ED870BD022B01D10C48BDE70C48BBE7C04696
S1135EE850130020AED400001CD300002FD40000AF
