S01200004C6F526153616D706C652E7372656342
S1130000804C0020493800000D1100009B110000B5
S11300109B1100009B1100009B1100009B1100002C
S11300200000000000000000000000009B11000020
S11300309B110000000000009B11000081090000DA
S113004000000000000000007D0E00000000000021
S1130050000000007D0E0000000000000000000011
S1130060000000000000000000000000657B0000AC
S1130070000000000000000000000000000000007C
S11300800000000000000000350D0000000000002A
S1130090ED0D0000000000000000000071370000BA
S11300A00000000000000000000000009D0D0000A2
S11300B000000000BD0C0000000000000000000073
S10B00C000000000817400003F
S11300C810B5094C1022002120000BF0E1FB074B6E
S11300D81B7813B91333E3722373054B1B780BB9DD
S11300E80633A37310BDC046805D0020685C002001
S11300F8505C002030B585B00400092240F29F20EE
S113010801A904F021FD6B461D79002301A8AB4227
S113011814D1032B10D869465A1C0A716A465B002D
S1130128210A0532D1546A460632D45440F29F203B
S1130138092201A904F010FC05B030BD0100427881
S113014889781202521802309442F5D00133DBB296
S1130158DDE7F7B50025614B614C1860614B40F24F
S1130168E8310A205D701D7003F022FC0023E05E74
S1130178290008F0E5FE40F2E831142003F018FCE9
S11301880023E05E012108F0DBFE40F2E8310A209A
S113019803F00EFC544C554B0122A36040F2053386
S11301A8A380534B02210520E560DA70220000F099
S11301B8B5FF04204F4B2360205607F073FC04F06E
S11301C8DFFA280005F088FA4B4B1B78012B01D184
S11301D804F0A6FB494B01210020185E012508F014
S11301E8AFFE6B460024D91C2A009D200D7004F034
S11301F8EDFA434B20001D70424B434F1C70434B98
S1130208434E1C70434B1C6005F066FA6B462A008B
S1130218991C96200D7004F0D9FA6B4602229C8032
S11302288F2001A904F0D2FA2000042104F0AAFCCA
S11302384FF6FF71080008F091FC40F6AC00FFF798
S113024859FF40F68900FFF755FFFFF739FF3800DB
S113025804F054FF300004F051FF2F4B0222FB60DE
S11302682E4B01A9F3602E4B17201C706B469C8003
S11302783C607C603C723C6134607460347234610C
S113028804F038FC6B465A790334511013002940A2
S1130298A9402B400B439110294089000B43D110EE
S11302A82940C9000B431111294009010B4351117D
S11302B82940921149012A4092010B4313436A468B
S11302C812792A401202134303B91C00154B9B7B75
S11302D8062B01D108F02EFB2000FEBDBC5D0020DA
S11302E87C5C0020B95D00206C5C0020951A00003D
S11302F80060004055434900685C0020545C0020BD
S1130308074000207D5D0020A45D00207C5D002066
S1130318905D0020785D0020415700005D57000083
S10B0328B85D0020805D002097
S1070400FFFFFFFFF8
S1070404F7AFC1FF8A
S1130440010000000101FF01804D002000100100A7
S11304508182800184858302878886038A8B89044C
S113046008078D000000000003000000CC6100209C
S11304703440002000000000CC61002034620020E1
S11304809C6200200000000000000000000000004A
S11304900000000000000000000000000000000058
S11304A00000000000000000000000000000000048
S11304B00000000000000000000000000000000038
S11304C044F2800044F28003C2F20000C2F200034E
S11304D010B5834205D040F20003C0F2000303B11B
S11304E0984710BD44F2800044F28003C2F2000039
S11304F0C2F200031B1A9A10D90F8918491010B5BB
S113050029B140F20003C0F2000303B1984710BDC3
S113051010B544F69844C2F20004237873B9FFF787
S1130520CFFF40F20003C0F200032BB140F20840B9
S1130530C0F2000000E000BF0123237010BDC046DC
S113054040F20003C0F2000310B54BB144F69C41E5
S113055040F20840C2F20001C0F2000000E000BF17
S1130560FFF7C0FF10BDC0460122014B1A7070474F
S1130570FD5D00200122014B1A707047FC5D0020D4
S1130580064B82B21B68012A03D80022D8701A8055
S1130590704740F200421A80FAE7C0460840002043
S11305A00020044B1B6803B9704701301B6800B27C
S11305B0F9E7C0467C4D002010B570B1094A0A2302
S11305C0D45E002311689C4207DD814206D1118963
S11305D00131118100215268D15410BD01331BB285
S11305E00C31F0E7EC5D0020002210B50260013A06
S11305F00A80074A0300106840B104681460426826
S11306001A600822835E0B80FFF7D6FF10BDC04638
S11306107C4D002002001F205AB1012308490868BC
S1130620824207D98868824204D8054ADB009B18B5
S11306301879704701330831172BF0D11F20F8E7E0
S113064020D90000034B00201B78082B01D8024A54
S1130650D05C70470740002014D90000F0B5144B5B
S113066004005A7B012072B1124ADD7B110048322A
S1130670463109781278104B0639D200C9B2D21823
S1130680934201D10020F0BD012905D825B918688D
S11306902A300078022808D0187930B11E687768AB
S11306A0BC4202D3B668B442EDD90833E8E7C04689
S11306B0805D0020B85B0020A45B0020154B00B5D2
S11306C0185C0A2823D80BF05FFD1E161612060DBF
S11306D022221A161200002001230B398B424041BA
S11306E0C0B203E00C394B425941C8B200BD0020EE
S11306F002230A39F2E7002003230939EEE7002038
S113070004230839EAE7002005230739E6E7002037
S1130710ECE7C046B8D80000014B18887047C046C3
S1130720A05B00204A425141094A4942114042F229
S1130730107289180300C8430A2B07D8054AD35CF2
S1130740054A9B009B58C81803B9C8437047C04664
S1130750F0D8FFFFB8D8000034D8000003000D48DB
S1130760D200125830B5546802209C4211D89568C2
S11307709D420ED3D2681B1BB3FBF2F454431D1BE2
S1130780A34206D12800012A03D08A429241524250
S1130790500030BDA45B00200300002082B0019013
S11307A0D1B142F20F7291420CD840F2E732914239
S11307B00AD9013242F210700192019A401AB0FB38
S11307C0F2F0584302B0704764226329F2D80A2237
S11307D00929EFD80122EDE70121FBE7F0B5059CDB
S11307E01D0008283FD1081C0D2900DD0D20224FD3
S11307F0224EBC4643B2607098008159012761457E
S113080004D01F4FC9194F4279414F001D49A770A9
S1130810C95C1D4B8B40315840F2E830B3FBF1F119
S1130820131F4B4368431B185B001BB1481EC318BE
S1130830B3FBF1F39A4200D21A000B005343880031
S113084000210BB101335908431A40F2E83101D5B4
S11308500E481B1893FBF1F3E3603F2A04D8531CA2
S1130860FE221340A360F0BDF8210B00F72AF9D84B
S1130870073213000B40F5E790D00300E4D70000E3
S1130880E05EF8FF24D8000040420F0019FCFFFF8F
S1130890094B1A78012318001A420BD1074A110098
S11308A0FC31896C31B940F28A23D05C0138431E93
S11308B09841C0B27047C046C8530020D0530020AE
S11308C00423024A11780B4313707047A453002089
S11308D00123024A11780B4313707047A45300207C
S11308E040F28823044AD35C23B10223034A1178DB
S11308F00B4313707047C046D0530020A45300200C
S113090040F28C23044AD3581A780023082A01D1D0
S1130910024B1B5CD8B27047D0530020D4D70000E0
S1130920044B10B5FC331B6D13B1DB6803B198475E
S113093010BDC046D0530020082310B5034A1178D7
S11309400B431370FFF7ECFF10BDC046C8530020E3
S1130950042310B5034A11780B431370FFF7E0FF2B
S113096010BDC046C8530020022310B5034A1178B5
S11309700B431370FFF7D4FF10BDC046C8530020CB
S1130980704700000379012B01D1014A13707047AD
S1130990FC510020002382B00193054BDB88C01A70
S11309A01E2380B243430193019880B202B0704782
S11309B0FE260A4010B5042401210748074B82791A
S11309C01975A243827100220020197000211A6156
S11309D09860D9609A8310BD00380A40C05D002039
S11309E00200811C002010B51378000184B21800A5
S11309F03038C0B2092805D918006138052806D84E
S1130A00573BD8B2013220439142EDD110BD1800BA
S1130A104138052801D8373BF3E74FF6FF70F5E777
S1130A20F0B500230500CC5CA446260934006746D3
S1130A3030349F2F00D907340F262C70CC5C3440FF
S1130A4026003036092C01D93734260001339CB2F4
S1130A506E7002359442E6D30023520092B283545E
S1130A60F0BDF0B587B003900191029213B9042050
S1130A7007B0F0BD019A54009C42F8DB00252E001B
S1130A80E41A24B205AFD4B9029A6B1C525D1DB2AC
S1130A903A700024029B6A1C5B5715B238007B70C5
S1130AA0FFF79EFF4FF6FF739842E0D0039B9855E3
S1130AB00136019B36B2B342E5DC0020D8E730238F
S1130AC0A4B23B70012CE4D0023C302324B2E5E70D
S1130AD00420704713B5FFF763FDC0B2012801D0AD
S1130AE0042016BD6B469C1C210001A8FFF77CFD69
S1130AF00023E25E012AF3D1019B1B785BB2302B09
S1130B0005D10022044B3F3300201A70E9E7312B52
S1130B10E6D1014B3F33F7E794510020042070479E
S1130B2030B585B0FFF73CFDC0B2042401281AD1CA
S1130B306B469D1D290002A8FFF756FD2B8803ADC7
S1130B4021002800029AFFF78CFF040058B96B7843
S1130B502A781B0412061A43AB781B021343EA7863
S1130B601343024A1360200005B030BD145C00201A
S1130B70030030B541180A2400208B4200D130BD57
S1130B8000229A566043303AD5B20133092D01D878
S1130B901018F2E701204042F1E7000013B5FFF717
S1130BA0FFFCC0B2012801D0042016BD6B469C1C7A
S1130BB0210001A8FFF718FD0023E15E0129F3D10C
S1130BC00198FFF7D5FFC0B208B10128ECD1024B60
S1130BD03C3318700020E8E79451002013B5FFF768
S1130BE0DFFCC0B2012801D0042016BD6B469C1C5A
S1130BF0210001A8FFF7F8FC0023E15E0329F3DCE0
S1130C00002301981AB2914212DCC9B20029EBD038
S1130C10FFF7AEFF431E9BB2DF2BE5D8C0B2431EE5
S1130C20DBB2DF2B02D8054B3D3318700020DCE724
S1130C30C25C0133303A092AE4D9D5E79451002043
S1130C40704700207047704770470000502210B56D
S1130C50034904480BF0DBF80322034B1A7110BD5F
S1130C6044D6000094510020E8500020024B18782C
S1130C7043425841C0B27047E451002002001B2394
S1130C80C0094042184052005040C0B270470A2385
S1130C9070B58360036C01000133036403000833FF
S1130CA0DC6FC268A36820685D6840310823A847E8
S1130CB070BDEFF30380103840B2704730B585B093
S1130CC0FFF7F7FF124B8000C5586A68D36959785B
S1130CD0002304391C00022905D8137C0D495B004C
S1130CE05B5A02349BB2E96879B12D6901A8047199
S1130CF00195022C07D1127C064C90325200125BF3
S1130D00120401329B188360884705B030BDC04689
S1130D10C04D002000260A401FB5436A4BB18468C9
S1130D202478029169460A71826A009468460392A3
S1130D3098471FBDF8B5FFF7BCFF174B8000C0589C
S1130D40437CC6685B00F6183500FE356C8A8369FF
S1130D50A4B29BB18268D26882B90178426959B160
S1130D60178801315218013B3780426183610BB906
S1130D7001339C436C82F8BD1778F2E7002343618A
S1130D8001331C42F5D16B8899B2002BF2D10222B7
S1130D90FFF7C2FFEEE7C046C04D002010B5FFF7D5
S1130DA088FF114B8000C058437CC2680133DBB21A
S1130DB05B00995A036A89B223B90422C361FFF71D
S1130DC0ABFF10BD0278C36952B119800233016AC6
S1130DD0C361013901620029F3D10122C161EEE747
S1130DE01970C3690133F2E7C04D002070B5FFF7F5
S1130DF060FF114B8000C0580126437CC468013356
S1130E00DBB25B00E4182188FE34628889B21300E7
S1130E1095B23340324207D102231D4209D1DB1877
S1130E2010221D4201D170BD20226381FFF774FF9F
S1130E30F9E70822F9E7C046C04D002043688268FC
S1130E401B785B009B5A02699BB20AB181695354B7
S1130E5083690133836170470123C8B28340002052
S1130E609BB20AB918001300034A090A49018918F8
S1130E70088100204B81704700000A4007B5FFF746
S1130E8018FF064B8000C3583BB19A682AB15979C0
S1130E90DB68684601910093904707BDC04D002070
S1130EA040F21A23044A0020D35A812213405A1EC6
S1130EB093410B707047C04600C07E4006207047C7
S1130EC006207047062070470620704706207047AA
S1130ED00A0010B5034B11CB11C2034B11CB11C245
S1130EE0002010BD3CD5000034D50000062070471A
S1130EF0062070470620704706207047062070477A
S1130F00C36A0D4A10B59A180133C362036B816A30
S1130F10013B0363094B4C1C84621800140CFE3023
S1130F2092B2448242811A000978FC3251638122D0
S1130F30FF335A7510BDC0460000F0BD00C07E40AE
S1130F404143032903D9890801390029FCD1704799
S1130F50254A03001268254810B5254982420BD85A
S1130F608A4209D02348824206D02348824203D0D1
S1130F7040F2F610DA6010BD2048214C1218B2FB82
S1130F80F1F10800A24202D901200840081840F2F9
S1130F908352D86006204A43B2FBF0F21A6140F251
S1130FA076324A43B2FBF0F25A6158224A43B2FB0A
S1130FB0F0F29A61134A99604A43B2FBF0F2DA61A3
S1130FC0114A4A43B2FBF0F21A62104A4A43B2FB96
S1130FD0F0F25A620E4B1A78012A03D001221A70D9
S1130FE0FFF7AEFF0020C6E7BC4D0020FF083D0020
S1130FF040420F0080841E00C0C62D003F420F00F7
S11310003F8AF701B86A0500C0B0070068ED220006
S113101090C07E4044F6003313B5A522019340F2FC
S11310208013F7210F4CE2500F4B9D3A5A705970C0
S11310305A705B78934200D1C04681681020FFF754
S11310407FFF40F21A22094BA352A35A98B203B964
S113105016BD019B1BB1019B013B0193F5E71420D5
S1131060F6E7C04600C07E40FFC07E4000AAFFFFF6
S113107013B5104901900B6B5B0612D57F240E4B00
S11310805A7D22405A7500225A7501900B6B5B06FB
S1131090D80F002B08DA019B2BB1019B013B019374
S11310A0F4E7019B0BB9142016BD019B013B01938E
S11310B0E1E7C046FCC07E40FFC07E4040F623020C
S11310C00F4B995C0F4A890709D540F622015B5CF6
S11310D01BB193680C4A136070471369FAE740F632
S11310E02001595C890705D540F61901595C5368FC
S11310F0CB40EFE740F61801595C1368F8E7C046A7
S113110000E00140804C0020BC4D0020044940F226
S113111040100A00FE32538C095A0B405386704724
S113112000600040F7B5FF27019283080A4A0326AE
S11311309B009B183A0040F200350640F6008901F6
S1131140B2403940B1405C59800094430C435C5137
S1131150019A024B1A50F7BD00E100E0C04D002097
S11311601F22430910401E3A8240044920339B0049
S11311705A50BFF34F8FBFF36F8F704700E100E009
S1131180002310B50360436811201856030021336F
S113119001D0FFF7E5FF002010BD00BE704700003E
S11311A010B5034B1B689B780BB10AF015FE10BDFC
S11311B008400020F0B50A0085B020B1012839D0DC
S11311C0002005B0F0BD4B490B00EC331C680B004C
S11311D0BA3318880B00BF331B78C1315D1EAB4195
S11311E00978C00801391B18481E81414900891833
S11311F0DB001833C900591840F2E8334B43621E30
S11312009B1841F65732B3FBF4F3012094420FD8F4
S113121040F6B732001894420AD840F2CF72013037
S1131220944205D840F2E7320430944200D902389F
S1131230C018C6E72F4B00201900F9310978019036
S11312400A2902D82C48415C01911900F8310E7822
S11312501900C43118000F881900FA331B78C631FD
S11312600433C830097804780393731F012B04D81E
S11312703B1C0C2F00D20C239FB2631E9C41D20056
S11312802401A4184A4251411423B50049420B4099
S1131290641BE418B31E0293062E07D9310001988B
S11312A00834FFF70BFA08B1B31E9D00E343DB17C4
S11312B01C406419013C94FBF5F5039B6B43DA195C
S11312C013000E33062E00D9023B0C4A0199525CDE
S11312D00A2A0ED80A49920052589B0002990133F7
S11312E08B4040F2E8305843531EC018B0FBF2F074
S11312F067E7FFDE7C5C002080D80000B8D80000DF
S11313008CD80000F7B500921A000B320192032624
S11313100269019DC468AD18B5434669B54214D845
S1131320050050352980010048310B800300141B4F
S11313304A331C8002238360009BC364686B836808
S113134000685C680423A047FEBD02224260026676
S113135002008832156886692A199446B76832688B
S1131360D719BC4500D0624644663469AD18C260E2
S11313704561A14205D8083202618AB20267426718
S1131380C5E7FFF784FCDFE710B5094B012806D158
S1131390084AC7331170197007F07AFB10BD1A00A0
S11313A0BF321278002AF9D1024AC0331170F2E731
S11313B07C5C00200640002010B5044B1420185E0D
S11313C007F0B4FD0128F8D010BDC0467C5C0020B5
S11313D0010010B580B90948094A121A0AF05CFAEA
S11313E00848094A0949121A0AF011FD0848094A2D
S11313F00949121A0AF00BFD10BDC046984C002092
S1131400B86300200040002000400020000010408D
S113141000400020804000204004000007B56B46D7
S1131420D87107330121180007F048FD07BD0000FB
S1131430030070B572B6BFF34F8FBFF36F8F00799F
S1131440082809D888B3013807282ED80AF09CFE4A
S1131450706E2D0D2D2D2D0B0300EF22103B13422A
S113146001D0402821D1334B53E09C68324B1B7888
S11314705BB2D3B10623314AD356012B15D00223D4
S1131480D05E0023D15E0425525F431C93FBF2F52A
S11314906A439B1A1BB2E4B28B420CD1082C04D1D0
S11314A007F0FCFB2000FFF77BFE62B6BFF34F8F13
S11314B0BFF36F8F70BD2300613B192B05D8203C0F
S11314C0E4B2200007F0A6FB29E00A2C06D00D2C7C
S11314D018D0082C1FD0202CE7D0F2E7200007F00A
S11314E099FB2000164CFFF75BFE2378002BDCD021
S11314F007F0D4FB07F0D2FB0122124B1A70002331
S11315002370D2E7200007F085FB2000FFF748FE98
S11315100B4B012208E0884204D007F0BFFB2000F7
S1131520FFF73EFE0022064B1A70BEE7064BF0E7BB
S1131530064BEEE730520020F4510020E851002021
S1131540E5510020E4510020F551002031520020E3
S113155013B5FFF725F8C0B2012812D16B469C1CC5
S1131560210001A8FFF740F821780423019849B12C
S1131570FFF7FEFAC0B20423012803D1073008F0B4
S11315809DF90023180016BD13B5FFF709F8C0B282
S1131590012801D0042016BD6B469C1C210001A823
S11315A0FFF722F80022A35E012BF3D1019A1278EF
S11315B052B2312AEED1064A917A9372012901D1AD
S11315C00020E8E7034A137107F0A8FEF8E7C046D5
S11315D094510020E850002010B586B0FEF7E0FFDB
S11315E0C0B20424012810D16B469C1C210001A820
S11315F0FEF7FAFF23881021019A02A8FFF731FAB7
S1131600040010B902A807F045FC200006B010BD84
S113161010B5044B186820B102681A60FEF7CCFFBD
S1131620F7E710BD7C4D0020002310B55200CC5AC2
S1131630C45202339342FAD110BD000070B50C00BD
S1131640002608282CD10D6825B1280006F064FD79
S1131650012825D023794BB10026012B20D1F5B1E7
S1131660062229000F48FFF7DFFF18E00E4C25B1D2
S1131670062229002000FFF7D7FF40F280220B4BFF
S1131680995C99520021023299520623A189228839
S1131690013B0A40DBB2A2810234002BF6D10126C1
S11316A0300070BDF8580020E0580020805600201B
S11316B010B50400FEF7D2FF68B1074B074AE318E0
S11316C00020934207D8064AB3FBF2F14A439B1A1F
S11316D05A425341D8B210BD608FF7C8401640003B
S11316E0C0270900002300B508280CD1501F052885
S11316F016D80AF049FD030A0D1512120A780421BE
S113170091425B41DBB2180000BD0A780521F7E77E
S11317100A780023083AD2B2F8E70A780E21EFE7F4
S11317200023F0E740F28C23054AD358E0331B78BA
S1131730022B00D0062340F2882153547047C04640
S1131740D0530020F0B585B0FEF77CFF0138C0B25D
S113175001283AD940F28C261D4C1E4FA559290068
S11317602A002B00FF31497EF03228781278EC33BE
S1131770009749B21B680397FFF730F840F2F2175D
S11317800223E355B333FF33EA5C00253F33E254CD
S1131790023BE55404F07EFA03F0EEFFA359E13373
S11317A0187803F01FF9A3591B78082B0DD103985F
S11317B006F048FC48B1280004F0C4FC40F2882339
S11317C0E25DE25408B106F013FC05B0F0BDC0467A
S11317D0D0530020B0550020F8B540F28C23344992
S11317E00200CB581C00E034207818B102284FD0F6
S11317F00320F8BD42B91A000D331532FF32FF330E
S113180003CB03C20020F4E70220012AF1D0013007
S1131810022AEED1227008000C00E130CD34FF30F2
S1131820FF34E0CCE0C060CC60C040F2F2100A5457
S11318301A000020503254782CB31478022C22D190
S113184024221C0042439A18106EFC34A0616432B6
S11318501278FF335A7640F211228C5C313A8C5460
S1131860043288509A7F40F2F013CA5403220233A0
S1131870CA540022013BCA5440F210230022CA5425
S1131880FFF760FFBEE7013024320428D3D1F3E729
S11318903AB9227003F070FF04F0A4FAFFF742FF94
S11318A0B0E7012AA5D00320022AA2D1AAE7C046A4
S11318B0D0530020002330B50360CD5CDC00A5408C
S11318C0046801332C430460DCB2A242F5D830BD75
S11318D003000020112B03D80248D84001231840EC
S11318E07047C0462007020070B50C4CE268137DB7
S11318F02BB115006368A46810359C4200D170BDFB
S11319001E788E4205D0AB4201D11300F5E70433B3
S1131910F3E7012258709A70F1E7C0469053002013
S113192070B50B49CA684B68147D507564B11400D6
S1131930012589681034DE78587006B99D70A34279
S113194003D113009942F6D170BD0433FAE7C046BF
S1131950905300200B4A30B553689168D268140044
S11319601034994204D100235A1E9341D8B230BD99
S11319701D788542F8D0A34201D00433F1E7130067
S1131980EFE7C04690530020EFF31080012383F368
S11319901088064B196819B9054A11704031117045
S11319A01A6801321A6080F3108870478052002050
S11319B040030A40EFF31083036072B6704710B51A
S11319C02120FFF7CDFB1D20FFF7CAFB10BD70B52A
S11319D00D0014002800A1B207F070FA0028F9D114
S11319E0200070BD114BF7B518780D0091B2C140BD
S11319F000270F4C0F4E0191802027708002377012
S1131A00217859B10199DD61196294B22800A1B21B
S1131A1007F054FA0028F9D12000FEBD31780029DE
S1131A20EAD101380028EBD1E6E7C0460452002091
S1131A303152002030520020054B012800D118609B
S1131A401A68D20702D51A68104318607047C04656
S1131A507C520020044B10B51B68DB0702D5022022
S1131A60FFF7EAFF10BDC0467C52002010B572B6E5
S1131A70BFF34F8FBFF36F8FFFF7ECFF0122044BCF
S1131A801A7062B6BFF34F8FBFF36F8F10BDC0469D
S1131A90B85D002010B5FFF7E9FF10BD034B01202E
S1131AA01B6810B503B1984710BDC0460052002012
S1131AB010B504000020205600B910BDFFF7AEFC9D
S1131AC00134F7E710B50A4B1C68E37813B10948F1
S1131AD0FFF7EEFF1422A188074B4A431B689B18AB
S1131AE01869FFF7E5FF0548FFF7E2FF10BDC046A0
S1131AF00840002000CD0000F85D0020D9CE000091
S1131B0010B50248FFF7D4FF10BDC04600CD000059
S1131B1010B50400FFF7D6FF0448FFF7C9FF200003
S1131B20FFF7C6FFFFF7ECFF10BDC04603CD000072
S1131B3010B530B1152805D8034B8000C058FFF705
S1131B40E7FF10BD0148FAE724D7000005CD0000E7
S1131B5010B5074B3C331B7823B10420012B05D16E
S1131B60044800E00448FFF7D3FF002010BDC0463E
S1131B709451002027CD000014CD0000062310B599
S1131B8088B001AC2000237007F040FA029B0422C5
S1131B901BBA694620000093FEF742FF2000FFF7BE
S1131BA0B7FF002008B010BD052310B588B001AC04
S1131BB02000237007F02AFA6946029B20001A0CC1
S1131BC00A701A0A4A7003228B70FEF729FF20005C
S1131BD0FFF79EFF002008B010BD000010B5054BB4
S1131BE004209B7A012B03D10348FFF791FF0020C7
S1131BF010BDC0469451002038CD000000B589B016
S1131C0000236A4601A8137107F000FA6B461B7A99
S1131C102BB90748FFF77CFF002009B000BD012B5A
S1131C2001D10448F6E70420022BF6D10248F1E77B
S1131C303FCD000049CD000053CD000010B5054B49
S1131C4004201B7A082B03D10348FFF761FF00200F
S1131C5010BDC046945100205DCD000000B589B090
S1131C6004236A4601A8137107F0D0F96B461B7A66
S1131C702BB10448FFF74CFF002009B000BD024817
S1131C80F8E7C04665CD000073CD000010B5074BE2
S1131C903F331B7823B90648FFF73AFF002010BDF5
S1131CA00420012BFBD10348F6E7C04694510020E1
S1131CB082CD000092CD000000B589B043236A466E
S1131CC001A8137107F0A2F96B461B7A012B05D109
S1131CD00548FFF71DFF002009B000BD0420002BBC
S1131CE0FAD10248F5E7C046A1CD0000B2CD00000C
S1131CF01FB5074B04221B6869461BBA01A8009351
S1131D00FEF78EFE01A8FFF703FF002005B000BD1B
S1131D10145C002000B589B06A464B2301A81371F6
S1131D2007F074F96B466A461B8969465BBA1380EF
S1131D3001A80222FEF774FE01A8FFF7E9FE0020C5
S1131D4009B000BD4C2310B588B001AC200023704D
S1131D5007F05CF96946029B20001A0C0A701A0A03
S1131D604A7003228B70FEF75BFE2000FFF7D0FE63
S1131D70002008B010BD522310B588B001AC20007B
S1131D80237007F043F9029B04221BBA6946200022
S1131D900093FEF745FE2000FFF7BAFE002008B0CE
S1131DA010BD532310B588B001AC2000237007F098
S1131DB02DF9029B04221BBA694620000093FEF70A
S1131DC02FFE2000FFF7A4FE002008B010BD000085
S1131DD0124B10B51B88012B08D0114B114A1B68FC
S1131DE012889A80037813B1012B0ED010BD43786A
S1131DF01BB90D48FFF78CFEF8E7102B03D80B4AEC
S1131E009B009858F6E70A48F4E743781BB903792E
S1131E100BB10848EEE70848ECE7C046F65000204E
S1131E2008400020F4500020E7CE0000B8D600009F
S1131E30C4CD0000DECD0000EBCD000013B5FEF7ED
S1131E40AFFBC0B2012834D16B469C1C210001A811
S1131E50FEF7CAFB0023E15E01292AD10198FEF7AF
S1131E6087FEC4B2012C1CD9072C22D11248FFF7DB
S1131E701FFEFFF745FE072C05D109F03BFB09F0D7
S1131E8025FBFEF7E3FE72B6BFF34F8FBFF36F8FF0
S1131E90BFF34F8F094B0A4ADA60BFF34F8FC04636
S1131EA0FDE7002CE2D1074B187A07F007FD20006C
S1131EB016BD0424FBE7C046E7CE000000ED00E0B9
S1131EC00400FA0594510020F8B506000C000F2711
S1131ED04D1EAD003000E8403840092808D83030A5
S1131EE0013CE4B2FFF79AFA043D002CF2D1F8BDAC
S1131EF03730F5E710B5FFF7E5FD0948FFF7D8FDE2
S1131F0002210420FFF7E0FF0648FFF7D1FD9020EF
S1131F100221FFF7D9FFFFF7F3FD002010BDC046F3
S1131F20F2CD000057D10000F7B505000E00019274
S1131F30002803DA2D20FFF771FA6D4201230A22EB
S1131F401C00B34204D101260A27002C04DCF7BD8F
S1131F5001335443DBB2F4E7012C00D1002695FB96
S1131F60F4F292FBF7F37B43D31A00936B46187891
S1131F70012E0DD160B9019B13B11800FFF74EFA81
S1131F80FF22009B1340634394FBF7F4ED1ADCE754
S1131F90303040B2FFF742FA0026F1E770B50D0089
S1131FA00400FFF78FFD0548FFF782FD290000229A
S1131FB02000FFF7B9FFFFF7A3FD70BD03CD0000BC
S1131FC0272310B588B001AC2000237007F01EF859
S1131FD00298052180B2FFF7E1FF002008B010BD90
S1131FE000B589B06A462D2301A8137107F00EF8D5
S1131FF06B460221187AFFF7D1FF002009B000BD1B
S113200010B5044B03213D331878FFF7C7FF0020B8
S113201010BDC04694510020002310B5934200D156
S113202010BDCC5CC4540133F8E70300F0B5D433DD
S1132030040018680E00150087B048B310231B1A5B
S11320401F000093934200D917002300C133BAB292
S1132050181831000193FFF7DFFF2200D432136810
S1132060FB1813600F2B1DD9009BAB421AD2200022
S1132070B13003001A78197C4A401A70019A01336E
S11320809A42F7D12200010006F06EFEF619ED1B0C
S11320902000C130102D07D83100AAB2D434FFF784
S11320A0BBFF256007B0F0BD2700B1373B000096A9
S11320B000991A7809784A401A70009A013301325B
S11320C000929842F4D11022390002A8FFF7A4FF2D
S11320D002A90800220006F047FE1022380002A9D7
S11320E0FFF79AFF1036103DD2E70000F0B50C0060
S11320F08BB0082829D16A460123138100239372E7
S113210000220023049205930692079308920993F0
S11321100879042819D80AF037F81A7A18038B00BA
S113212040F2402201214F4B0020995200210832F5
S11321309A181060516040F250229A181060516051
S113214040F258229B18186059600BB0F0BD464D00
S11321502022280002A9FFF75FFF444B0022E81861
S113216040F2842301003026C252414D414B424F7C
S11321700360DB19067142710830AB42F7D1442683
S113218000253E4B3E4A3F483F4F1A60D2191E710C
S11321905D7108338242F7D1012340F278225B4219
S11321A08B5004328B5040F28023384E7E3AFF3AF3
S11321B0CA5030003649F93AFFF736FA06223100A0
S11321C03448FFF731FA0123334AE380137040F6B1
S11321D0B833E36040F2E833236140F2D0736361C3
S11321E041F28833A36141F27073E361631C257289
S11321F0DD772A4B63620823238523002A331D706D
S1132200274BE36200232363264B63639DE71F4848
S113221006221F490400FFF707FA0623A189228832
S1132220013B0A40DBB2A2810234002BF6D18CE7D9
S11322306B460624991D08200C7002F0ABF86B461F
S1132240591D154B20001B785A1E93410B7002F048
S1132250A1F86B46D91D012309200B7002F09AF8EE
S113226073E7C04680560020C0580020C0FDFFFF21
S113227060518B366001C835400D03008058002042
S1132280C0AFD235C0FF9536006A1800E058002070
S1132290F8580020EC58002004400020A0700837B3
S11322A09A9900424000200040F28C23F0B5374C4C
S11322B00025E35840F2B4111A00E4325D5415606D
S11322C040F20C22012032498FB0A150E03A9D54D3
S11322D0643298521A0018009988E8321180991DC6
S11322E0C97F17329172996AFC30016119002C314F
S11322F009785174190015323031C0C9C0C2198F20
S113230001261180DA6B42621A6C82621A0044322E
S1132310117840F228129954E832A554813A9D5418
S11323202D329D546A466946167100951878FFF758
S1132330DDFE40F21123E5547B33E2585F3B11008C
S1132340FF3BD5549E33E554FC31086940F2D0116B
S113235060501100FF31887F40F2DC11605489190C
S11323606554891966542A39515C40F2DF12A1542C
S11323702200E1321B19FF3223CB23C203CB03C259
S113238040F2F2130222E2540FB0F0BDD053002009
S113239000010100F0B595B005930D230C270492BC
S11323A00391C356C7570293837B1A9A9C4643688A
S11323B00400136045780197A5B33A1C002F00DA96
S11323C00022002552B201922089628983426D4124
S11323D08618B342B6410299EDB231405600361820
S11323E00291B3421ED31B1AB3FBF2F042439E1A6E
S11323F0934217D1002F0ADC237833B1012306AAB4
S1132400207C11001371FFF771FE40F2010C237C54
S1132410082B05D10026B74202DD019E013EF6B22B
S113242073B20193039B019A28001A70049B029AC9
S11324301A706246059B1A7015B0F0BDF8B5150008
S11324402022134B1F001C0008372678CEB9013414
S1132450BC42FAD10F4C226802B92360626802B10F
S1132460136000221A606360AAB21871DD71581DEE
S1132470FC34FFF7D1FDE36801335B19E3603000FE
S1132480F8BD013AD2B23B00002ADBD10226F6E7BE
S11324908C52002084520020114BF7B51C68002395
S11324A017001E00009001911CB9019B00201E60C2
S11324B0FEBD009AD11AE27901329142F5D3227914
S11324C05D1CFA54EDB2E279611D7819FFF7A4FDA1
S11324D0E279013655192468EBB29619E4E7C0464F
S11324E084520020F0B504000F0016001D000A20DD
S11324F085B0FBB110220021684609F0CDF96A4687
S1132500A31F13706B460322581C3900FFF784FD88
S11325100322310001A8FFF77FFD6B460222290048
S1132520D81DFFF779FD22000221684608F0B2FFAA
S113253000B10F2005B0F0BD70B50568040002209D
S11325401DB126790B2E01D8012070BD20002B78F7
S113255004226371691C0830FFF7ACF96B790B3EF8
S11325602373AB79E381EA7912021343227BE3817B
S11325701207120F9642E7DD2900200008311030BF
S1132580FFF74AFD237B200000221B071B0F1E00C0
S1132590651C2830EA77027022790836911B043AC8
S11325A0042907DD216809338E5DEE77D51ACB182F
S11325B005706362200021682C3089180422FFF71B
S11325C079F90020C1E700001FB5FDF7E9FFC0B2AB
S11325D00424012812D16B469C1C210001A8FEF79B
S11325E003F823880821019A02A8FEF73AFA0400A6
S11325F020B90822034802A9FFF70EFD200004B009
S113260010BDC046AF51002000B589B001A8082212
S11326100649FFF701FD082201A903A8FEF700FA05
S113262003A8FFF775FA002009B000BDAF510020E0
S11326301FB5FDF7B5FFC0B20424012812D16B46C3
S11326409C1C210001A8FDF7CFFF23880821019AD3
S113265002A8FEF706FA040020B90822034802A9DA
S1132660FFF7DAFC200004B010BDC046B7510020CB
S113267000B589B001A808220649FFF7CDFC08225D
S113268001A903A8FEF7CCF903A8FFF741FA00203B
S113269009B000BDB751002010B586B0FDF780FF2A
S11326A0C0B20424012812D16B469C1C210001A84D
S11326B0FDF79AFF23881021019A02A8FEF7D1F9A9
S11326C0040020B91022034802A9FFF7A5FC20004A
S11326D006B010BD9F510020242330B58BB003AC4D
S11326E02000237006F092FC134B00221B7A082B67
S11326F000D1063261686846D5B25200FFF78CFCFF
S1132700FFF7E0F90D48FFF7D3F90024E3B2AB4239
S113271004D3FFF7F5F900200BB030BD6A4663001F
S11327200421D05AFFF7D0FB052C02D00448FFF750
S1132730BFF90134EAE7C0469451002003CD0000FC
S113274008CE000010B5013A92B2013209F0A4F8A3
S113275010BD0000F0B5C5B006000D001F0002203A
S1132760019200297DD04A9B002B7AD0E1230024DA
S113277002A81B18180010220021FFF7E3FFB02263
S113278021000EA84394FFF7DDFF634B1A78BA4289
S113279061D111216143614B2131C9180EA806F0A2
S11327A02BFB002E5FD106AC2900019A0EA8FFF77F
S11327B03CFC102200212000FFF7C4FF21000EAAD8
S11327C0200006F0D1FA2278230000217F2A50D974
S11327D018785A784000D209024301311A70013343
S11327E00F29F5D17923E27B5B4252005340439A8F
S11327F0DBB2E373102A49D102ABE132D2180023D1
S11328001178E05C0133414011700132102BF7D193
S1132810E123002502AA9B181A78197C01354A4045
S11328201A700133102DF7D1E12302A95B181900A6
S11328302A000AA8FFF7F0FB0EAA0AA902A806F0CC
S113284093FA2A0020000021FFF77CFF029B4A9A9A
S11328500020136005E00134E4B21133142C95D147
S1132860032045B0F0BD102231000EA8FFF7DDFBB8
S113287099E718785A784000D209024301311A7056
S113288001330F29F5D1E37B5B00B0E70021002081
S113289061562300814231DA1D7859786D00C909E7
S11328A029430130197001330F28F5D17923E17BD5
S11328B05B4249004B408021DBB2E3730EAB9B18B3
S11328C0C133561C00251970102E01D80F35AD1ACE
S11328D00EABC232981800212A0008F0DDFFF12265
S11328E002ABD2180023AD1943951178E05C013393
S11328F0414011700132102BF7D189E71D785978C6
S11329006D00C90929430130197001330F28F5D12D
S1132910E37B5B00CFE7C04628590020085900201C
S1132920F0B5AFB006000D0001A814000021B022DC
S11329301F00FFF707FF00230F4811215943425C92
S1132940A2420BD10D4B2131C91801A806F054FA4B
S11329502C00281BC0B23CB9200003E00133142B27
S1132960EBD103202FB0F0BD311801AA3818103C68
S113297006F0FAF9A4B2ECE728590020085900201F
S11329807FB5002311220E00194914005C430D5D2C
S1132990854227D1174B80382134C0B21022E41865
S11329A0092819D840F24923C340DB0714D5002174
S11329B0684608F071FF022536B16B467F2210216C
S11329C03000FFF7ADFF0500102269462000FFF735
S11329D023FB280004B070BD31002000FFF71CFB6E
S11329E00025F6E70133142BCFD10325F1E7C046C8
S11329F0285900200859002030B5050085B051B190
S1132A00FFF7BEFF040030B9012D05D1104B1B6840
S1132A109B78012B03D10F24200005B030BD0100A9
S1132A201022684608F038FF09222900684608F099
S1132A3031FD0028EFD110222100684608F02CFF58
S1132A407F220921684608F025FD0028E4D0E2E74A
S1132A50A053002070B59E4D04002B00FC339B6CEA
S1132A6001208EB09B075AD42078532800D95DE208
S1132A7009F09EFB57005C025B0065006B0072006E
S1132A8078007E00880088005C025C025C025C02C4
S1132A905C025C028D00920097009C00A100A600DD
S1132AA0AB00B000B500BA00BF00C400C900CE003E
S1132AB05C02D300E700F6001E0144013401480122
S1132AC053015A015F0164016B015C0272018301CD
S1132AD0A6019501B701C101CA01D1015C025C02E2
S1132AE05C025C025C025C025C025C025C025C02F2
S1132AF05C025C025C025C025C02D7015C025C0268
S1132B00FE015C020B0254005400120217021A0266
S1132B102B0235023E0248025202570213200EB025
S1132B2070BD2079FEF758FEF9E7616809B9032002
S1132B30F5E710226748FFF76FFA0020EFE76168B6
S1132B400029F4D010226448F5E740F28C23EB58B6
S1132B50E23322791A70F0E740F28C236268EB5872
S1132B609A64EAE740F28C236268EB58DA64E4E79B
S1132B7061680029DBD00120FFF73EFF0028DCD08C
S1132B800E20CCE7616802200029F5D1CFE7616807
S1132B907F200029F0D1CAE7616880200029EBD1A9
S1132BA0C5E7616881200029E6D1C0E76168822019
S1132BB00029E1D1BBE7616883200029DCD1B6E7B5
S1132BC0616884200029D7D1B1E761688520002994
S1132BD0D2D1ACE7616886200029CDD1A7E761682E
S1132BE087200029C8D1A2E7616888200029C3D1C1
S1132BF09DE7616889200029BED198E761688A2031
S1132C000029B9D193E761688B200029B4D18EE7FC
S1132C1040F28C23EB58E1339BE76A46237A6946FA
S1132C20137040F28C23ED5807222878FEF75AFDE2
S1132C30002800D17BE70D35FF35043406CC06C5EA
S1132C407BE76A46237A6946137040F28C23ED5879
S1132C5007222878FEF746FD28350028EDD166E7DF
S1132C606A46237A6946137040F28C23ED582B0090
S1132C70FF339B7F287853700722FEF733FD00282B
S1132C8000D154E72B001533FF33043406CC06C3BC
S1132C903C3B1B78022B00D04FE7B333FF33EB5C94
S1132CA0002B00D149E702F067FDFEF74BFD44E736
S1132CB06A46237A6946137040F28C23ED58072242
S1132CC02878FEF70FFD002800D130E73035B4E74F
S1132CD0D05300200859002018590020636800933D
S1132CE001236A46137140F28C23EB586946187825
S1132CF0FEF7A4FC002800D01FE718E763680093E0
S1132D000023EEE72279531E0E2B00D90FE740F281
S1132D108C23EB58FF335A720FE740F28C23EB58A5
S1132D20F43362681A6008E740F28C23EB58F833F6
S1132D30F7E740F28C23EB58FC33F2E740F28C23A4
S1132D40EB586268FC335A60F7E640F28C23EB5888
S1132D50FC3362689A60F0E604266B46A6570622A6
S1132D601E7040F28C23EC5869462078FEF7BAFCBA
S1132D70002800D1DBE66671DFE604266B46A65721
S1132D8005221E7040F28C23EC5869462078FEF729
S1132D90A9FCE934002800D1C9E62670CDE6042652
S1132DA06B46A6570A221E7040F28C23EC586946E3
S1132DB02078FEF797FC002800D1B8E62671BCE61F
S1132DC004266B46A65709221E7040F28C23EC5849
S1132DD069462078FEF786FC002800D1A7E6E8348F
S1132DE0DBE740F2F41362689A4200D99FE6983315
S1132DF0EB58EC3396E740F28C23EB582279190018
S1132E00F0310A701A7398E640F28C23EB5862682A
S1132E10FC339A6291E640F28C236268EB581A64A0
S1132E208BE640F28C26AB591B78082B08D140491D
S1132E3023790A789A4203D006200B7001F0AAFA8B
S1132E40AB5900201A000021A132FF3210605160FA
S1132E50694603220A71002218780092FFF746F9A6
S1132E602379A9595A1E934140F22D128B5464E6DA
S1132E7040F28C23EB582279180040F22811443098
S1132E8002B1012202705A5457E640F28C23217990
S1132E90EA58CF3BD15450E6264BA2881B689A804F
S1132EA04BE6244B1B6854E722790F2A00D93EE6EF
S1132EB040F28C23E958613BFF3BCA542C3BFF3B57
S1132EC0934040F290128B5237E62279072A00D9B8
S1132ED02DE640F28C23EB58FF339A722DE640F234
S1132EE08C232079ED5809F0ABFEFC35686224E6AA
S1132EF02279012A00D91AE640F28C23EB58FF33D9
S1132F009A771AE62279012A00D910E640F28C2336
S1132F10EB58FF335A7710E6064B62681B681A6158
S1132F200BE6044B62681B68DA6006E60220F6E5ED
S1132F3004400020A053002010B58AB0FDF730FBF8
S1132F40C0B201282CD16B469C1D210002A8FDF7BC
S1132F504BFB0023E15E052922DCC9B20298F9B1DA
S1132F60FDF706FE03004CF25C12F53BFF3B9BB2FF
S1132F70934215D827236A4684B203A81373049492
S1132F80FFF768FD50B928236A46137340F2E8330B
S1132F9003A8E4180494FFF75DFD10B1FEF7C8FD23
S1132FA004200AB010BD000030B58BB0FDF7F8FA6C
S1132FB0C4B2012C1AD16B469D1D290002A8FDF74D
S1132FC013FB0022AB5E012B10D1029B1B785BB27A
S1132FD0302B0ED0312B09D16A46432303A8137337
S1132FE01474FFF737FD30B1FEF7A2FD04200BB0D7
S1132FF030BD0024F0E7024B3B331C70F7E7C046BA
S11330009451002010B58AB0FDF7CAFAC0B2012865
S113301019D16B469C1C210002A8FDF7E5FA238810
S11330200421029A01A8FDF71CFD030060B9522295
S1133030019B03A81BBA43600270FFF70BFD03005A
S113304010B1FEF775FD042318000AB010BD10B5C9
S11330508AB0FDF7A5FAC0B2012819D16B469C1CB1
S1133060210002A8FDF7C0FA23880421029A01A8CE
S1133070FDF7F7FC030060B95322019B03A81BBAB8
S113308043600270FFF7E6FC030010B1FEF750FD49
S1133090042318000AB010BDF0B58BB01E0010ABAD
S11330A00C001F7800900192F1B3009B0A20E3B357
S11330B001251022002106A808F0EEFB10220021B1
S11330C002A808F0E9FB02AB981D31001D705F7186
S11330D005F000FE0A2002AB1199C01805F0FAFDB4
S11330E0EAB21301103BDEB202ABDA7301351021F0
S11330F0019A06AB02A8ADB2FFF712FCB8B9211CC5
S1133100102C00DD10210022009B09B29B1906AF90
S11331101878D65D01327040187001339142F7DCA3
S1133120103C24B2002CDBDC00200BB0F0BD0F20DF
S1133130FBE7000010B5074B04001B68DB7813B1F4
S11331400548FEF7B5FC2000FEF7B2FC0348FEF785
S1133150AFFC10BD0840002000CD0000D9CE000017
S1133160037837B50400022B43D84578002D40D1AD
S1133170037B13B32548FFF7DDFF2548FEF798FCD2
S1133180237BAB4236D82348FEF792FC002203216E
S1133190E078FEF7C9FE1F48FEF78AFC00220121F1
S11331A0607CFEF7C1FE1B48FEF782FC00220A2168
S11331B0206AFEF7B9FEFEF7A3FC174B3F331B78DA
S11331C0012B16D11548FFF7B5FF1148FEF770FC27
S11331D0002203210E23E05EFEF7A6FE0D48FEF753
S11331E067FC1020002203212056FEF79DFEFEF707
S11331F087FC37BDA1680122491901A8FDF710FC1D
S1133200013501A8FEF754FCEDB2B9E70ACE00007F
S113321003CD000008CE00009451002010CE000021
S1133220F8B505780400032D16D0082D38D065B9FB
S11332302748FFF77FFF2748FEF73AFC63782BB94E
S11332402548FEF735FCFEF75BFCF8BD082B01D1E1
S11332502248F6E72248F4E7224B1E78B307F4D558
S11332602148FFF767FF1B48FEF722FC67789FB9E8
S11332703A002900207CFEF757FE1C48FEF718FC94
S11332803A002900607CFEF74FFEFEF739FC02236A
S11332909E43144B1E70D8E71548FEF709FCF4E76B
S11332A0104E3578EB07D0D51248FFF743FF094895
S11332B0FEF7FEFB637843B90F48FEF7F9FBFEF710
S11332C01FFC01239D433570BFE70948F5E7C0465D
S11332D016CE000003CD00001CCE00002ACE000054
S11332E03CCE0000E54E002048CE000008CE000091
S11332F051CE00005DCE0000E7CE000010B5040002
S113330088B00320022C09D86A46002301A813714F
S11333101472FFF79FFB08B9014B5C7208B010BD33
S11333209451002013B5FDF73BF9C0B2012815D123
S11333306B469C1C210001A8FDF756F90022A35EF0
S1133340012B0BD1019B18783038C0B2022805D864
S1133350FFF7D4FF030010B1FEF7EAFB04231800C3
S113336016BD0000042330B589B001AC23700500FC
S1133370200005F04BFE23799D4220D045B904235B
S1133380200023702571FFF765FB60B109B030BDE3
S11333902D2323700B4B20001B782371FFF75AFB5E
S11333A00028ECD0F2E7084B3E331D703DB92D23C5
S11333B02000237005F02AFE2279024B1A700020A7
S11333C0E4E7C046E44E00209451002013B5FDF715
S11333D0E7F8C0B2012816D16B469C1C01A8210055
S11333E0FDF702F90023E05E01280CD1019B1B7854
S11333F05BB2302B0AD0312B05D1FFF7B3FF0300AA
S113340010B1FEF795FB0423180016BD0020F4E765
S113341030B50A4C050023003E331B78002089B0E8
S11334204BB96A462D3301A813711572FFF712FBCD
S113343008B94034257009B030BDC046945100200D
S113344013B5FDF7ADF8C0B2012818D16B469C1C2A
S1133450210001A8FDF7C8F80023E15E02290EDC73
S1133460C9B2019859B1FDF783FB83B20F2B06D87B
S1133470C0B2FFF7CDFF030010B1FEF759FB0423E0
S1133480180016BD70B52423050088B001A80C00EF
S113349003704560FFF7DEFA0600054B2900054876
S11334A062001C70FEF7B8FD300008B070BDC04665
S11334B0D7510020D8510020F0B589B005AE0C22B8
S11334C00021300008F0E8F9FDF76AF8C3B201936F
S11334D0062B2AD900240420164B1B7A082B27D04C
S11334E03CB938B921003000FFF7CCFF10B1FEF72A
S11334F01FFB042009B0F0BD02AB9F1D390004A8D6
S1133500FDF772F83B8803AF02213800049AFDF7F7
S1133510A8FA0028E0D13B886A005BBAB3520135AF
S1133520019BECB2A342E7D8D6E700250420F7E7D5
S11335300624D6E7945100200B6802781B0E5340F2
S113354003700B6842781B0C534043700B688278FD
S11335501B0A534083700B68C2785340C3704B6896
S113356002791B0E534003714B6842791B0C534084
S113357043714B6882791B0A534083714B68C2794B
S11335805340C3718B68027A1B0E534003728B68DD
S1133590427A1B0C534043728B68827A1B0A534055
S11335A083728B68C27A5340C372CB68027B1B0E52
S11335B053400373CB68427B1B0C53404373CB686B
S11335C0827B1B0A53408373CB68C27B5340C37313
S11335D07047000003000449103302788A5C0270CB
S11335E001309842F9D1704744D50000F8B50C0079
S11335F006000878FDF742FB677805003800FDF700
S11336003DFBA378E2787B4053405D4068403070D6
S11336106078FDF733FB27780500A0784740FDF775
S11336202DFBE3785F407D406840707063782778B5
S1133630A0785F40FDF722FB0500E0784740FDF7E6
S11336401DFB7D406840B07027783800FDF716FBFD
S113365063785F40A3785F407840C5B2E078FDF7B7
S11336600DFB4540F570F8BDF0B5437B87B0019381
S11336708378457A0293C379877A03934378C17830
S11336800493C37AC67B05934379847B4370019B7F
S113369082794372029B87708372039BC670C372E4
S11336A0049B457143738471C1718273059BC37319
S11336B007B0F0BD030070B5002504000833DB6FCC
S11336C005609A6818685269904728006560A5608B
S11336D070BD41B1436813B14368022B03D1042385
S11336E04360033B83607047EFF31081012383F34E
S11336F01088074B1A6812B11A68013A1A601A68DE
S11337001AB9044B1A7080321A7081F3108870470A
S11337108052002040030A40F8B50400FF25FEF75C
S113372033F9002220880A4E93B2984202D8FFF758
S1133730DBFFF8BD6168D300C9188F8809683B0AAC
S11337401B012F40DB1989B25B0099530132EBE76F
S113375000020A40436810B5C4681A78FF2143691F
S113376004B1E15C8468520001331153436110BD1C
S1133770F0B585B0FDF79DFA204B8000C45863680E
S11337801D78A3686A009B180122FE3359881142F0
S11337900AD05A81042301A801950371A36A8360A6
S11337A0636A984705B0F0BD5B8A1E009FB216405D
S11337B0134202D06369012B02D92000FDF73EFBBE
S11337C06269E3699A4203D22000FFF7C3FFE9E785
S11337D036B1012388359F43A3686D00EF52E1E7BA
S11337E0636801A81B78019301230371A36A8360B2
S11337F0636A01349847E677D4E7C046C04D002099
S113380040F20A2230B50F4B995C8909814218D0E5
S113381040F20B2401211D5D29431955022805D0CE
S1133820995C8909022901D08021995440F20A2225
S113383040F20B218001C0B2985401205A5C8243AB
S11338405A5430BD00C07E40484A494B70B59A6016
S11338500122484B484C1A7040F6FE03474A0025A3
S1133860E252474B474ADD601A60474A5A6048F2C1
S113387000029A601A61FDF721FC40F600031A2247
S113388040F62401E254635C8BB1404B4048DA6853
S11338900240DA60DA687F263E48C27A3240C27259
S11338A08022D86812040243DA60DB68655440F66B
S11338B00C03E25C0AB10022E2540320FFF7A0FFEC
S11338C0002240F60803E25440F61202A35CDB0730
S11338D0FCD540F623030121E25C8A43E254E25C16
S11338E09207FCD440F621030121E25C8A43E254AE
S11338F0E25C9207FCD440F620020121A35C8B43D6
S1133900A354A35C9B07DB0FDDB2002DF9D1022683
S113391040F61802A6540132A3540132A354FDF711
S1133920CDFB3000FFF76CFF40F6FE031A4A280077
S1133930E252FDF74DFDFDF7C1FB184B184A19483B
S11339401A60FFF7E9FE0120FDF742FD164E174B02
S1133950F61AB610AE4201DC05F0EEFF134AAB00D6
S11339609B181B6898470135F4E7C0460000000027
S113397000ED00E090C07E4000E0014003A5FFFFA1
S1133980804C00200048E80100093D00FC6F044021
S1133990FFFF7FFF002C0A4000A5FFFFA44D00207D
S11339A054524F5068D3000024DE000020DE000093
S11339B001380028FCD1704740F2E8320023484324
S11339C010B5002108F058FC054B1A68054BB3FBF1
S11339D0F2F3B0FBF3F0800808B1FFF7E9FF10BD84
S11339E0BC4D002000CA9A3BF0B585B0019300237A
S11339F08377030008330400D86F83680068DD68A8
S1133A0002AB0733A8470500E0B90600A37F104FB7
S1133A1033B9012101360800FFF7CEFFBE42F5D1CC
S1133A20230058331A7801990A70BE420DD01A78CF
S1133A30022A07D01A78032A04D040F2F4151B781E
S1133A4059342370280005B0F0BD1425FAE7C046A8
S1133A5040420F000223F0B5060085B002AAD371DC
S1133A60C268040015004BF6AD67883633680191CF
S1133A709B180835436163699D421BD2019BB3B116
S1133A8002AB0422290020000733FFF7ADFFA0B9E1
S1133A9002ABDB79022B0DD0A1693368CA68288890
S1133AA00A3252009B1A834209D2212003E0A36EFA
S1133AB09D42F1D10020A566256105B0F0BD032229
S1133AC0EB1D1B1893435A88BA42EED11A884869F1
S1133AD0E1685200691A11521A881D1DE265CAE78D
S1133AE010B50400436E0021C36083691A695869E4
S1133AF00132520007F0D0FE00212000FFF7AAFF98
S1133B0010BDF8B504000325836949005869626E45
S1133B10435A26699B18E3671B88221D0B33AB436A
S1133B20D367E2689B19B71A4752210088310968A4
S1133B3000205218934205D92000FFF7D1FF01233A
S1133B406560A360F8BD10B504008369616F1A69EC
S1133B500131914200D9002161675A694800825AB3
S1133B60002AF3D0236F8B4207D02000FFF7C9FF50
S1133B7010B9200005F068F810BD23692000A36780
S1133B80FDF785F8F8E7F0B584680023250087B0D1
S1133B900093037858352B70A3681BB90133A377BE
S1133BA007B0F0BD2B78012B00D0DCE0A068023810
S1133BB0082800D9B3E008F0E7FA058B359FB8B2BE
S1133BC0B2B2C000236903250433019323612300A7
S1133BD048331B88E76C1A002A40A56002922B42E6
S1133BE00AD1A560220039000832D06F8268556876
S1133BF0019A0068A84739E0032B0FD826008C36B9
S1133C0004220021300007F047FE39003000029AF8
S1133C1008F0FDF837000423A560E3E70422AB4372
S1133C20A260DFE7230048331E8825000327330002
S1133C308C35BB43042200212800A760019307F0C0
S1133C402BFE3200019BE16C3A40C918280008F0B1
S1133C50DEF82269019B29009A1823000833D86FE3
S1133C602261836800685E680423B0470100200075
S1133C70FFF72FFDA368012B00D091E723009033B9
S1133C801A68002A00D18BE76368002B00D084E017
S1133C90A368013B591E8B41DBB204A90B702300BE
S1133CA0943498331B6820684B60002877D00378DD
S1133CB0009343680393030060C960C3904723687B
S1133CC0002B00D16CE7009A1A70039A5A6067E7D8
S1133CD0230048331B8821695A189B0700D00A1D0A
S1133CE00523A360230021000833D86F2261836871
S1133CF050315D6804237CE72300210050331A8887
S1133D002369E265043323614A310888A1695200BA
S1133D1049695052626822B90132A260A366002048
S1133D20A4E72000FFF70FFFA0E7231DDB6F2000AF
S1133D30002BF7D004F088FF98E7230088331A6833
S1133D40E368616E9B18636100232377A36F120AF3
S1133D5023610B23A36023000833D86F83680068B2
S1133D609B68984782E72B7823B9009B6360012303
S1133D70A360D4E763680098022B05D1A3680B2BDA
S1133D8002D02000FFF7ACFE23002A7859331A70C2
S1133D9004236360033BA36068E763687CE708006F
S1133DA08CE70000030070B5002608338677040012
S1133DB0D86F836800689B689847050048B128005D
S1133DC070BD01210800FFF7F7FD0A4B01369E4242
S1133DD00DD0A37F002BF4D0230058331A78002A87
S1133DE0EDD01B78593440F2F4152370E7E714251D
S1133DF0E5E7C04640420F008369F0B51A69050043
S1133E00013258695200002185B007F045FD0023B6
S1133E104FF6FF72AB77EA65EB600193AB690199EA
S1133E205A68914201D300243BE02F008837019A5D
S1133E303E681B685643F61802AB0822310028007E
S1133E400733FFF7D1FD040058BB02ABDB79022B2B
S1133E5014D102AB310028003A680733FFF7C4FDE0
S1133E600400F0B902ABDB79032B43D13A68120AA0
S1133E7031002800FFF796FF040011E04BF6AD6215
S1133E80F3889342F2D1E96899B33A6830680B68D1
S1133E90120A9842ECD92800FFF784FF0400EE6070
S1133EA044B3EB684BBBAB6929001A689B68883143
S1133EB0D2182B0009680833521AEA609CBB2249C5
S1133EC02C64D9872900D86FAC77836840315C684B
S1133ED000680823A047040028BBAB7F33BB012143
S1133EE00800FFF769FD194B01349C42F5D11424F5
S1133EF026E0EE60019B01338FE7212C0ED10126D1
S1133F00002301212800AB83FFF7A4FD040021282E
S1133F1016D0A8B92EB90123AB6011E084B90026EC
S1133F20EEE721240CE0212C0AD1E8E72B005833DA
S1133F301A78012AF3D040F2F4141B7859352B7007
S1133F40200005B0F0BDC046ADBEFFFF40420F00EB
S1133F50F7B502000B6A08321B6881610400D3675D
S1133F600700019248688A688837B2FBF0F23B4840
S1133F703A606064606520000022394D9030256508
S1133F808D69C9692264A264E2648160210094316C
S1133F9005600A609A6803CB1268904706000028FF
S1133FA045D1A0602000FFF727FF0500212844D158
S1133FB002233100A0696360036926669C46436955
S1133FC04A009A5A12B901316145F9D90368E56882
S1133FD03A688068AF181818874200D03B00D2189E
S1133FE06566E36062618C4523D3083323618BB239
S1133FF0200023676367FFF784FD050080B9200074
S113400004F022FE050058B9A368012B1FD001213A
S11340100800FFF7D1FC134B01359D42F4D1142560
S1134020019B2E00DB6F9A68186852699047300034
S1134030FEBD2000FCF72BFEE4E70028F0D1E36886
S11340401B68236400236360074B2360EFE7636806
S1134050042BF4D140F2F415E2E7C0460000ADBEF3
S1134060FFFFADBE404B4C004545565270B5274B43
S113407088B09B7A012B47D10322140004400242EA
S113408042D025001D401C4209D06A464A331371B0
S113409001A804F0BBFF6B461A891D4BDA80022687
S11340A034422FD04C2301AC2370200004F0AEFF27
S11340B0029A174B35439A6016491748FFF748FF91
S11340C0040080B9154E042130700623144A1248A6
S11340D0FDF718F9040001000F48FFF7FAFA14B9C4
S11340E03378002BFCD00C48FFF7E4FA204342421B
S11340F050410323064A404203401D4013682B43AA
S1134100136001E0002DD7D108B070BD9451002098
S1134110E850002094D60000484E0020FC5D0020AA
S1134120EE500020002370B588B001AC200023704D
S113413004F06CFF1E4D237920006B72432323701F
S113414004F064FF2B0022793B331A70042320000F
S1134150237004F05BFF2B0022793E331A701D2379
S11341602000237004F052FF2B00227911494133BF
S113417011481A70FFF7ECFE010078B90F4E502376
S113418030702A000C48FDF7BDF8040001000A480D
S1134190FFF79FFA14B93378002BFCD00648FFF7D9
S11341A089FA0748FFF762FF002008B070BDC046D7
S11341B09451002000D70000F8500020FD5D00203D
S11341C0FFFF030070B58AB0FCF7EAF9C5B2012D10
S11341D01BD16B469C1D210002A801AEFCF704FA1A
S11341E0238802213000029AFCF73BFC040068B9E2
S11341F06A464B23368803A876BA13731682FEF7F1
S113420029FC040028B1FDF793FC042420000AB023
S113421070BD034B2800DE80FFF728FFF6E7C04699
S1134220E850002070B58AB0FCF7BAF9C0B2012892
S11342301FD16B469C1C210002A801AEFCF7D4F9E7
S1134240238803213000029AFCF70BFC040088B990
S1134250737835781B022D041D43B37803A81D43DE
S11342604C2345600370FEF7F5FB040028B1FDF70D
S11342705FFC042420000AB070BD034B02209D6043
S1134280FFF7F4FEF6E7C046E850002010B5FFF74C
S1134290EDFE10BD37B50400082268461B4907F03F
S11342A0B6FD002C2FD11A4D1A492800FFF750FEF5
S11342B0040068B9AB695B691B88E3B1EA689918C3
S11342C09B5A4F2B19D950221348043107F09FFDF4
S11342D00F48FFF7EFF9204320B150220F490E4851
S11342E0FDF79AFE082269460B4807F07FFD30B9B6
S11342F00B4B187137BD2224EAE70324E8E707F0E3
S1134300F9F807F0E3F8FCF7A1FCF3E766CE000048
S1134310F850002000D700009451002044D600003B
S1134320E850002037B5FCF73BF9C4B294B1012C36
S113433019D16B469D1C290001A8FCF755F90022F0
S1134340AB5E012B0FD121000198FCF711FCC4B224
S1134350012C08D82000FFF79DFF04F0DFFF0300C5
S113436010B1FDF7E5FB042318003EBD1F224309ED
S113437010401E3A824002499B005A507047C04682
S113438000E100E010B52120FFF7F0FF1D20FFF74A
S1134390EDFF10BDF7B507000C000025C9B3374E7B
S11343A001A8FDF707FB3278531CDBB233700AB95E
S11343B0FDF705FB019B83F31088092F3CD83800D7
S11343C007F0E2FE050A292D31373F43475422788E
S11343D02B4B1A7001250FE016250422210001A899
S11343E007F015FD019A274B1968914242D0013D0F
S11343F0ADB20833002DF7D101A8FDF7DBFA33780D
S1134400013BDBB233700BB9FFF7BCFF019B83F3B5
S113441010882800FEBD2278194B1A72DAE7227838
S1134420174B5A72D6E723782F2B05D8144AD37228
S1134430D0E723782F2B01D90025DDE7104A137329
S1134440C8E722780E4B5A73C4E722780C4B9A7251
S1134450C0E70B4D2378AF7BAB73062B01D0AF7352
S1134460EAE704F06BFA0028B4D1F8E72278044BA9
S1134470DA73AFE7024B5A60ACE7C046E85D002050
S1134480805D002020D90000F7B507000C0000264D
S113449079B3254D01A8FDF78DFA2A78531CDBB2B8
S11344A02B700AB9FDF78BFA019B83F31088002661
S11344B0092F11D8380007F067FE05091E212427AB
S11344C02A2D3033194B1B78237004E0042220007A
S11344D0174907F09CFC012601A8FDF76BFA2B781D
S11344E0013BDBB22B700BB9FFF74CFF019B83F34D
S11344F010883000FEBD0D4B1B7AE5E70B4B5B7A51
S1134500E2E70A4BDB7ADFE7084B1B7BDCE7074B70
S11345105B7BD9E7054B9B7AD6E7044B9B7BD3E7C0
S1134520024BDB7BD0E7C046E85D0020805D0020C5
S1134530845D002073B5184D060001A80C00FDF73A
S113454039FA2A78531CDBB22B700AB9FDF737FA13
S1134550019B83F31088114B042E14D0052E18D020
S1134560083307CC07C306CC06C301A8FDF722FA1B
S11345702B78013BDBB22B700BB9FFF703FF019BD8
S113458083F3108873BD1C3307CC07C307CC07C360
S1134590EBE722685A60E8E7E85D0020B85B00209A
S11345A073B51C4D060001A80C00FDF703FA2A7828
S11345B0531CDBB22B700AB9FDF701FA019B83F39C
S11345C01088154B042E1AD0052E1FD0032E0FD0A1
S11345D01B78237001A8FDF7EDF92B78013BDBB2C2
S11345E02B700BB9FFF7CEFE019B83F3108873BDCC
S11345F02200083343CB43C203CB03C2EAE72200C1
S11346001C3343CB43C213CB13C2E3E75B68236081
S1134610E0E7C046E85D0020B85B0020F0B5324D0D
S113462085B0070003A80191FDF7C4F92A78531C4B
S1134630DBB22B700AB9FDF7C2F9039B83F3108830
S113464040F28823294CE65C783BE35CDEB913B185
S113465040F24923E7543800FDF762F9244B254A18
S11346601B6863B940F289222023A15C0B43A35445
S113467001F010FB01F080F801F0B4FB22E093425A
S113468016D01B69EDE71BB140F24923019AE254AD
S11346900198FDF745F940F28C23E358E0331B7889
S11346A0022B0FD040F289222023A15C0B43A35498
S11346B040F28C23E358E0331B781BB9002ED9D188
S11346C001F070FBFDF72EF803A8FDF773F92B78C2
S11346D0013BDBB22B700BB9FFF754FE039B83F352
S11346E0108805B0F0BDC046E85D0020D05300201E
S11346F0E45D00206C550020F0B5214C87B001909A
S113470005A81F0003920291FDF754F92278531C67
S1134710DBB223700AB9FDF752F9059B83F31088C5
S1134720184D00212B00A4330020185E04F00CFC6B
S11347300026019B985D04F023FA0136029AB3B275
S11347409A42F6D8039EF719BE4214D1A435002329
S1134750E85E012104F0F8FB05A8FDF72BF92378A6
S1134760013BDBB223700BB9FFF70CFE059B83F30F
S1134770108807B0F0BD307804F002FA0136E3E7A0
S1134780E85D00207C5C0020C02307B501A80380FD
S113479000231A000221FFF7AFFFFCF70DFE07BD4F
S11347A010B50A4B1A78082A0DD840F24113012497
S11347B0D340234207D0FFF7E7FF054B2100002039
S11347C0185E04F0C1FBFCF7F7FD10BD07400020A4
S11347D0545C002037B56B460C001500D871FFF708
S11347E0DFFF68462B00220001210730FFF784FF1A
S11347F06B46DB79842B01D0FCF7DEFD37BD00006E
S113480007B5104B01A9984206D90F4B0B80022221
S11348109820FFF7DFFF07BD0C4B984201D90C4BE2
S1134820F4E70C4B984201D90B4BEFE70B4B984242
S113483001D90B4BEAE70B4B9842E8D946F66B7368
S1134840E4E7C04600E9A435E1E9FFFF80F8A932B6
S1134850D7DBFFFF8044E52DC1C5FFFF000B6B1BB9
S11348607581FFFF40FC541937B5104B104D18608B
S11348702B7804001BB9FFF7C3FF01232B7043F609
S11348800951B4FBF1F20B0041F684605343E31A7F
S11348909B031B18B3FBF1F392039B181BBA04226E
S11348A0862001A90193FFF795FF37BD785D0020AD
S11348B07C5D002013B5064B04005B7B23B10190A3
S11348C001A90520FFF736FE2000FFF7CDFF13BD39
S11348D0805D002007B56B46D91D044B0870187025
S11348E001228A20FFF776FF07BDC0467D5D0020C8
S11348F013B50B4B1B788BB96B460122094CD91DA0
S113490080200A70FFF766FF40F61110E17A00F08C
S113491064F840F61210217B00F05FF813BDC04626
S1134920685C0020805D002007B50C4B04229720B2
S113493001A90193FFF74EFF00236A4607209380E5
S113494001A90222FFF746FF7F236A4689201371DB
S113495001A90122FFF73EFF07BDC0460200028005
S11349600D2373B50D00160001AC2370030A6370A8
S1134970A070FFF715FF33002A0003212000FFF782
S1134980BBFEFCF719FD73BD07B5064B01A91B78E7
S113499040BA088023B9022240F2BC60FFF7E0FF6E
S11349A007BDC0467D5D002007B5064B01A91B78F5
S11349B040BA088023B9022240F2BE60FFF7D0FF5C
S11349C007BDC0467D5D002007B56B46D97107332E
S11349D001221900FFF7C4FF07BD10B5FFF7F4FF6C
S11349E010BD000010B504000B4B1870587000F097
S11349F015F854B1342140F24070FFF7E5FF44212B
S1134A0040F24170FFF7E0FF10BD142140F2407006
S1134A10FFF7DAFF2421F3E7B95D0020012010B588
S1134A20FFF758FF044B18785A78824202D0587026
S1134A30FFF7D8FF10BDC046B95D002010B50128AE
S1134A4006D00020FFF746FF0022034B5A7010BD2A
S1134A50FFF7E4FFFBE7C046B95D0020F0B5254D44
S1134A6087B0019005A81F0003920291FCF7A2FFF2
S1134A702A78531CDBB22B700AB9FCF7A0FF059B04
S1134A8083F310881C4E00213300A4330020185EE9
S1134A9004F05AFA0024019B185D04F071F8013403
S1134AA0029AA3B29A42F6D8002004F069F8039C53
S1134AB0C3B20193E719BC4215D1A4360023F05EBA
S1134AC0012104F041FA05A8FCF774FF2B78013B9F
S1134AD0DBB22B700BB9FFF755FC059B83F31088F1
S1134AE0019807B0F0BD002004F04AF820700134AA
S1134AF0E1E7C046E85D00207C5C002073B56B46AE
S1134B0015000C00DE1DD871FFF74AFE2B002200B1
S1134B1001213000FFF7A2FF0400FCF74DFC200048
S1134B2076BD000013B501AC012221001520FFF76A
S1134B30E5FF064B22781B7852085BB29B1A181CBF
S1134B40803301DA4FF6807000B216BD805D00201C
S1134B501D2373B50D00160001AC2370030A6370A6
S1134B60A070FFF71DFE33002A0003212000FFF789
S1134B7075FFFCF721FC73BD13B56B46DC1D0122E8
S1134B802100FFF7E5FF207816BD000037B52A4B5A
S1134B9004001B780D00012B2CD10F280CD1274BBE
S1134BA00422952001A90193FFF714FE231C5AB295
S1134BB00E2A10DD0E230EE0214B0422952001A9BC
S1134BC00193FFF707FE231C1134F0DA4DF27A2328
S1134BD0C0F200031B7818215CB240F6E700FFF72F
S1134BE0F3FE6B4602225D718E201C7101A9FFF752
S1134BF0F1FD37BD40F6D800FFF7BEFF1E2101438B
S1134C00C9B240F6D800FFF7DFFE0E4B0422952010
S1134C1001A90193FFF7DEFD231C093407DA4DF2E5
S1134C207B23C0F200031B7838215CB2D5E75AB26B
S1134C30162AF9DD1623F7E70540002006000101D6
S1134C400400010104070001F7B5214D01A8FCF798
S1134C50B1FE2A78531CDBB22B700AB9FCF7AFFE05
S1134C60019B83F310881B4B1E681B4B9A88998801
S1134C7097B28A42FAD101A8DC7AFCF79BFE2B7822
S1134C80E4B2013BDBB22B700BB9FFF77BFB019B5A
S1134C9083F3108847F6FE739F4202D8E40700D5D9
S1134CA0103645F65E737B430193019B0B4A30003B
S1134CB0B3FBF2F30193019C40F2E832002300219C
S1134CC007F0DAFA220000238018594103B0F0BD3E
S1134CD0E85D0020F851002000380A40A086010059
S1134CE010B50400FFF7B0FF40F2E832002307F0EC
S1134CF0A3FA2060A280200010BD000010B5FFF7C9
S1134D00A3FF154B40F2E8321860596000230400F9
S1134D1007F092FA40F2E831104B1A689B88121897
S1134D2048431B19181A83B2013900B2884203DDC3
S1134D300B4901325B1818B20A4B1900FC310A64A2
S1134D4040F2401298522023074A11780B43137003
S1134D50FBF7E6FD10BDC04678560020C053002086
S1134D6018FCFFFFD0530020C8530020F8B51500ED
S1134D7007000E001C00FFF767FF084B186059601E
S1134D809F609E81DD811C74112305490A789A4332
S1134D9013430B70FBF7C4FDF8BDC046A8530020B5
S1134DA0C853002010B5FFF74FFF0B000A4902005B
S1134DB08868C968994202D809D1904207D9121A61
S1134DC08B4101204042C1178018594110BD121A6D
S1134DD08B4110001900F9E7C05D0020F0B5644E66
S1134DE087B00191B388B1889AB28B42FAD145F663
S1134DF05E7353430593059B5E4A5F4CB3FBF2F32A
S1134E000593059B277802283ED09AB2039202921A
S1134E10032860D000231D00012F21D12375FFF743
S1134E2013FF019B029A236143F680639B1A019A44
S1134E309BB2A060E160A3830AB900230FE043F6AC
S1134E407F62019991421CD80A008B4219D904232C
S1134E50039923708C466B4662449B88226101252A
S1134E602269002A50D1B37904329343B3710723E2
S1134E702370237D002B00D16FE001232375237061
S1134E8068E002232370D8E7022F0BD1A28B236999
S1134E909B1A01252361394B22699A420ED90023BA
S1134EA023610BE0032F03D12369354A9B18F0E7F4
S1134EB0043F0025022FEED82561013543F67F62B9
S1134EC02369934203D804229BB22270C8E70323C8
S1134ED023700023C4E7052F11D12369039A934259
S1134EE00AD9029A01259B1A40F2D0729BB29342CE
S1134EF0B6D804222270B3E7002323619DE7062F6E
S1134F00FAD000231D00ABE7217804291FD1B27920
S1134F108A43B27140F2D072934204D905232370BC
S1134F2001235B420CE0062121709342F8D06422F5
S1134F30DB03B3FBF2F35A3A0533B3FBF2F39BB250
S1134F4073801B23F372B279173B1343B371237835
S1134F50072B8ED0280007B0F0BDA36903B1984792
S1134F601020FCF769FD2378072BF3D185E7C046B1
S1134F7000380A40A0860100C05D00200000FFFF49
S1134F8080C1FFFF002210B5044B04681A70FBF7C0
S1134F9011FD21000120FFF721FF10BDE05D00207D
S1134FA0F0B587B0040005A8FCF704FD3F490A7872
S1134FB0531CDBB20B700AB9FCF701FD059B83F3AC
S1134FC010883B4E37683D00002D3AD16368257246
S1134FD02360FFB13B7A002B37D0FFF7E3FE2B00B1
S1134FE03A6800920193A94203D1824201D9009008
S1134FF0019500980199121A8B4100920193019B2B
S1135000256813B9009BAB4223D9009B5D1B002389
S11350103D603B7201232000276123723460FFF757
S1135020B1FF05A8FCF7C6FC204A1378013BDBB2AC
S113503013700BB9FFF7A6F9059B83F3108807B02B
S1135040F0BDAC42EDD02D69BEE73B6801950093FD
S1135050D5E73E692EB9009BED1A25603C612661B7
S1135060DFE73268019B0098019912184B410BB994
S1135070954208D2009B009AEB1A236033689B1870
S11350805B1B3360EAE7316921B9AD1A25603461ED
S11350902161C6E7086837000290002003900E00E3
S11350A00298039900920193DFE7C046E85D00206F
S11350B0E45D002070B5124C236843B10022012541
S11350C01A601A720023206858B903B1206070BDB9
S11350D0C1682B00026911B122608847F2E7100011
S11350E0F2E70268002AF3D03BB9037A002BEED131
S11350F001230372FFF746FFE9E72060F5E7C046A6
S1135100E45D0020F7B52E4D040001A8FCF752FC25
S11351102A78531CDBB22B700AB9FCF750FC019BB4
S113512083F31088274E33686BB901A8FCF742FC5F
S11351302B78013BDBB22B700BB9FFF723F9019BF2
S113514083F31088F7BDA3422DD1237A0BB3FFF765
S113515029FE8C460021276821722469ACB13A00EB
S113516034600B003E000F00614502D1824200D939
S11351700600921BBB411100236820005B182360CA
S113518001232372FFF7FEFECFE73460FBF712FC26
S1135190CBE723692BB1216833601A6852181A606F
S11351A0C3E73360C1E71A001B69002BBDD09C42E2
S11351B0F9D1236921681361002BEED1B5E7C0460C
S11351C0E85D0020E45D00200122F0B5304DA1B07F
S11351D0079003916B7B0192002B00D178E116AB11
S11351E09C1C21000220FFF7DBF92378019323B1F3
S11351F003230193019821B0F0BD019B1AAC210057
S113520004201793FFF7CCF9052018A9FFF7C8F974
S11352100023E75E1C9B08931B9B09931D9B0A9329
S11352204FB3012F30D139000898FBF77BFA069071
S1135230184CFBB20399F8B20E93FBF7BBFF2300A3
S11352400B9048331B78144E1293230046331B787B
S1135250063BDBB20F93EB7B1093189B0C9317ABBD
S11352600493002302936B46129A1B7A059393428C
S113527014D36523BDE742F21071099B5A000A9BBF
S11352805B189B180693D3E701235B42FAE7C046F9
S1135290805D0020B85B0020A45B00200F9B012BE5
S11352A007D8109B2BB933682A331B78022B00D103
S11352B0E0E13379002B00D1DCE1059A06990C98E2
S11352C0FBF74CFA049B14901B8809981193012F47
S11352D003D100210898FBF725FA3568D34A2B003F
S11352E02A331B78D149DB009A5C5B1813920022A5
S11352F01593139BD1B2994200D276E104226B69D3
S11353000B998B429B4111995B421B0119430B0082
S1135310149919430A43049B95B21D80002D00D0B3
S1135320A8E1236C002B00D17AE1A31DDB8FC04AD6
S1135330DB00D3581B8D049373B3FFF785FCA66B76
S1135340E76B236C1A009C462B0092197B410226C2
S11353500027B6185F418F4200D95EE102D1864230
S113536000D95AE102267642F717B61A9F41361839
S11353704F41A31DDB8FAE4ADB00D3586046198D25
S1135380FBF70AFA01230FB9B04200D800235B01EE
S11353909BB20493236C8BB3A31DDB8FA44ADB0065
S11353A0D3581B8B53B3FFF74FFCA26BE36B0F0077
S11353B000210600206C8018594102220023121893
S11353C04B41BB4200D92DE102D1B24200D929E1BF
S11353D002225242D317121A8B4192197B411000B8
S11353E01900A31DDB8F924ADB00D3581A8B0123CB
S11353F009B9824200D800239B019DB2049B17AFD8
S11354001D43029B5B000493DD53CDBB029BDE0076
S1135410874B9A5940F2E733D2699A4230D919A995
S11354200120FFF731F816AAD11C2800FFF72CF849
S11354307F4B012099592431FEF7ACFF7C4B711D41
S1135440C9182800FEF7A6FF40F2E831784B0E9801
S11354509A59D369B3FBF1F32021525E9BB20C99A4
S113546000F0FEFC060019A90120FEF793FF16AB1D
S11354702800D91CFEF78EFF16B98023049AD35353
S1135480029B17AA5B009B5A002B00D0E8E0FFF7B1
S1135490DBFB0B9B059A2364A31DDA87029B644AFA
S11354A0A063E163DB00D3581AA91B7C8878897850
S11354B01A1C49B25BB28B4200DD021C0023473444
S11354C0E35650B2834203D002212270FFF75EFB01
S11354D0079B002B00D18DE640F20121554E0800B8
S11354E003F040FB3278544B012A00D0CAE0C733A2
S11354F0039A1AAC1A7003F0CBFA0E232380FFF739
S11355004FF902212000039B079AFFF7F5F80025C5
S1135510FBF752FF0422494B49481A70FFF7F2FD8A
S1135520FFF7E6F90322210083202580A570FFF709
S113553051F9444C444B20001F68FFF7E3FD200061
S113554027606760FFF72CFD0422404B404C3778FE
S11355501E682368134234D03E48FCF7A9FA2A0097
S113556003213800FCF7E0FC3B48FCF7A1FA2A00D1
S11355700321207EFCF7D8FC3748FCF799FA2A006F
S11355800A21E069FCF7D0FC3348FCF791FA2A00C1
S11355900A21206AFCF7C8FC2F48FCF789FA2A0084
S11355A00A213000FCF7C0FC2B48FCF781FA1F20CD
S11355B0631D18562A000321FCF7B6FC2748FCF7A4
S11355C077FA2368DA0709D5079A03992263220038
S11355D03432117022002C32A66217705B0602D599
S11355E0042338342370002303E6159B59680D9176
S11355F00C210D9B51439C468C44595EB94208D101
S1135600634659680A9B8B4203D163469968814279
S113561001D001326DE6002271E600260027A8E6DB
S11356200495B7E600200021DBE6C04660D8000000
S1135630A45B00207D5D00207C5C002007400020EE
S1135640905D0020A45D0020085C0020785D0020AF
S1135650145C00206FCE000008CE000000CD0000D6
S11356606022134201D06623C3E51B0600D400E682
S11356706723BEE5029B083601330293049B023381
S11356800493F0E5C03333E770B540F2E836114BCC
S11356900D005C7B56430323CCB9FFF7E5F82800E3
S11356A00221FFF773FAFFF723F921002200D1202A
S11356B0FFF790F80422084D084B28001A70FFF7F2
S11356C021FD28002E606E60FFF76AFC230018009D
S11356D070BDC046805D0020A45D0020074000200E
S11356E01FB56B46D8711348FFF70CFD1248FFF73E
S11356F009FD6B460122D91D8020FFF76BF86B462C
S1135700DA790E4B9AB9013269461A702023932034
S11357100B7303A9FFF75EF801236A465B4293818A
S1135720022203A91000FFF755F805B000BD0222BC
S11357301A70F1E7A45D0020905D0020074000206E
S1135740002010B5FFF7CCFF034B1B6813B15B6857
S113575003B1984710BDC046BC5D0020002010B5C1
S1135760FFF7BEFF034B1B6813B1DB6803B1984717
S113577010BDC046BC5D002010B50A4B0A4C987A97
S1135780FFF7AEFF23685B060AD5383423783BB1B4
S11357900648FCF78DF90648FCF78AF900232370C4
S11357A010BDC046805D0020145C002074CE000053
S11357B000CD0000F0B591B0079317AB1B8817001C
S11357C0019318AB1B880AAA029319AB1B780391A7
S11357D004931AAB1B78040005931BAB1B78069348
S11357E031239B18DB7F099335239B18DE7F994B6C
S11357F05B7BB3B10AAB0021981D122206F04CF872
S1135800039B0BAD2C800C93079B0D972B73019B73
S11358102900EB81049B03202B74069B6B74FEF719
S113582089FE8D4B1E7073425E41029B764233406B
S11358300293049B0BB9FF330593884B059A1A70A6
S11358406CB1012C6AD0864B1A68920704D0039A73
S11358509F601A71029A9A81002011B0F0BD814DA7
S11358600AAB991C01229F200C70FEF7B3FF2B009A
S1135870E8331C702B00EC331F602B000B22F43335
S113588003981A70FAF7C6FE2B00F53318702B0034
S1135890B8331C70019B0499DA002B00BA331A80C8
S11358A02B0041F60402BC331A802B00BE332A00BD
S11358B01C700123BF32594011702A000599C0326F
S11358C01170069A02B1F1332A00C13213702B0011
S11358D00122C233E8351A70FFF74EFF2878431EC1
S11358E09841C0B2FFF7AAF803F080F803F0D0F8AB
S11358F008225D490BA806F08AFA082240F2C0602B
S11359000BA9FFF72DF803F059F841F64073029AFA
S11359105343B3FBF7F3554A136094E70AABD91C1E
S11359200023504D22009F200B70FEF753FF2B00E5
S1135930E8331C702B00FEB2F833039A1E704C4BF4
S113594039009B5C1000053E0893FAF7B7FE012E60
S113595007D86B46019A9B880C2A00D20C239BB271
S113596001932B00089AF9331A702B00079AFA3323
S11359701A702B00FB3318702B000122B8331A70F5
S11359802B00019AC4331A802B00049AC6331A7070
S11359902B00059AC7331A702B00069AC8331A7065
S11359A02B00099AC9331A70FFF7E6FE2B00E8337F
S11359B01878431E9841C0B2FFF740F803F016F878
S11359C003F066F86B461B7A01936B46019A1B79C8
S11359D0F82A04D94DF27C23C0F200031B7801336A
S11359E0DBB25B10DEB21F2B2DDD0336B6083200AE
S11359F0630001339A400BA90A70A0200122FEF72C
S1135A00E9FE019B33B1F600A11940F20670C9B258
S1135A10FEF7DAFFC9352B78042440F23670012BE7
S1135A2013D1FFF7A9F8A043C1B240F23670FEF7D4
S1135A30CBFF029A534253410E4A5B4213404FF646
S1135A40FF729B1867E70024D1E7FFF795F804433A
S1135A50E1B2EAE7805D0020105C002006400020EF
S1135A60145C00207C5C0020D8D900000C5C002071
S1135A70B8D800000100FFFFF0B58FB0019314AB5C
S1135A8080CB02911B780592069316AB1E8817AB48
S1135A901B780500039318AB1B7804931BAB1B788E
S1135AA00793744B5B7BF3B108AB15220021D81C20
S1135AB005F0F2FE029A08AB9A701D80059B069AC7
S1135AC00993019B0B970A9308AB1A74039A190064
S1135AD01A75049A5E825A750420FEF72BFD664BF4
S1135AE0029A47331A704DB1012D56D040F6890001
S1135AF0FFF742F804210143C9B2A0E05F4C0B2236
S1135B002300E8331D702300EC331F602300019849
S1135B10F4331A70FAF77EFD2300F533187023006E
S1135B20059AF0331A602300B8331D702300F60081
S1135B30BA331E80230041F60402BC331A802300CA
S1135B40BE3322001D7001230399BF3259401170E6
S1135B50049A02B1F1332200C132137023000122EE
S1135B60C233E8341A70FFF707FE2078431E9841C9
S1135B70C0B2FEF763FF02F039FF02F089FF08228A
S1135B803F4908A806F043F9082240F2C06008A97A
S1135B90FEF7E6FE02F012FFA8E7384C019A230054
S1135BA0E8331D702300FDB2F8331D70354B390006
S1135BB09B5C1000053D0593FAF780FD012D04D888
S1135BC0331C0C2E00D20C239EB22500059BF93504
S1135BD02B702300069AFA331A702300FB331870D3
S1135BE023000122B8331A702300C4331E8023001B
S1135BF0039AC6331A702300234AC73312781A70E3
S1135C002300049AC8331A702300079AC933E8346E
S1135C101A70FFF7B1FD2078431E9841C0B2FEF719
S1135C200DFF02F0E3FE02F033FF2B78062B00D0C9
S1135C305CE740F68900FEF79FFFFB21014040F638
S1135C408900FEF7C1FE02210298FEF79FFF0F4B69
S1135C501C9A1A6005220E4B1968114207D0019A4A
S1135C60DF611A761C9A1A62029A0533DA770020E9
S1135C700FB0F0BD805D0020B85B00207C5C00208C
S1135C80D8D90000B8D8000006400020085C0020E5
S1135C90145C002073B51C4E3578082D29D10022E0
S1135CA01A4B01245A701A706B462200D91D9D208C
S1135CB00C70FEF78FFD164B1B78A34201D1FEF743
S1135CC033FE6B460122991D96200C70FEF782FD6F
S1135CD03470104C23685B060AD5082D0FD10E488A
S1135CE0FBF7E6FE0D48FBF7E3FE0123383423708F
S1135CF073BD002DEDD12800FFF7F2FCE9E7002D7C
S1135D00F6D10748ECE7C04607400020B95D002003
S1135D10685C0020145C002083CE000000CD0000ED
S1135D209BCE0000002213B51100041CC020FEF716
S1135D30E5FE60231840202802D00020FFF7D0FCA5
S1135D40134B00210020185E03F0FEF86B46A207F7
S1135D50D91D6307DB0FD20F52009B001343E207E8
S1135D60D20F1343842001220B70FEF733FD04216C
S1135D700B00084A2340214202D00023137013BDB4
S1135D8008211170044A1370044A1360044AF5E7A9
S1135D90545C0020074000207C5D0020785D0020DA
S1135DA07D5D002010B504200B4CFFF7BBFF40F2D3
S1135DB0E8310220FDF700FE23685B060BD538347A
S1135DC02378022B07D00548FBF772FE0448FBF743
S1135DD06FFE0223237010BD145C0020B3CE0000BC
S1135DE000CD000010B500200B4CFFF79BFF40F2E4
