S01200004C6F526153616D706C652E7372656342
S1130000804C002015380000FD1000008B1100000A
S11300108B1100008B1100008B1100008B1100006C
S11300200000000000000000000000008B11000030
S11300308B110000000000008B110000710900000A
S113004000000000000000006D0E00000000000031
S1130050000000006D0E0000000000000000000021
S1130060000000000000000000000000A57900006E
S1130070000000000000000000000000000000007C
S11300800000000000000000250D0000000000003A
S1130090DD0D000000000000000000003D370000FE
S11300A00000000000000000000000008D0D0000B2
S11300B000000000AD0C0000000000000000000083
S10B00C0000000008978000033
S11300C810B5064C1022002120000BF0D3FA044B83
S11300D81B7813B91333E372237310BDA45B002098
S11300E8C85B002030B585B00400092240F29F2087
S11300F801A904F00BFD6B461D79002301A8AB424E
S113010814D1032B10D869465A1C0A716A465B003D
S1130118210A0532D1546A460632D45440F29F204B
S1130128092201A904F0FAFB05B030BD01004278A8
S113013889781202521802309442F5D00133DBB2A6
S1130148DDE7F7B500255F4B5F4C18605F4B40F265
S1130158E8310A205D701D7003F010FC0023E05E96
S1130168290008F0EDFD40F2E831142003F006FC04
S11301780023E05E012108F0E3FD40F2E8310A20A3
S113018803F0FCFB524C534B0122A36040F20533AD
S1130198A380514B02210520E560DA70220000F0AB
S11301A8B5FF04204D4B2360205607F09BFB04F059
S11301B8C9FA280005F064FA494B1B78012B01D1D0
S11301C804F090FB474B01210020185E012508F03C
S11301D8B7FD6B460024D91C2A009D200D7004F03D
S11301E8D7FA414B20001D70404B414F1C70414BC6
S11301F8414E1C70414B1C6005F042FA6B462A00C4
S1130208991C96200D7004F0C3FA6B4602229C8058
S11302188F2001A904F0BCFA2000042104F094FC06
S11302284FF6FF71080008F099FB40F6AC00FFF7A1
S113023859FF40F68900FFF755FFFFF741FF3800E3
S113024804F03EFF300004F03BFF2D4B0222FB601C
S11302582C4B01A9F3602C4B17201C706B469C8017
S11302683C607C603C723C6134607460347234611C
S113027804F022FC6B465A790334511013002940C8
S1130288A9402B400B439110294089000B43D110FE
S11302982940C9000B431111294009010B4351118D
S11302A82940921149012A4092010B4313436A469B
S11302B812792A401202134303B91C0008F022FAE7
S11302C82000FEBD0C5D0020DC5B0020095D0020E1
S11302D8CC5B0020511A00000060004055434900DF
S11302E8C85B0020B45B002007400020DD5C0020D0
S11302F8F45C0020DC5C0020E05C0020D85C00207A
S10F0308E956000005570000085D0020C5
S1070400FFFFFFFFF8
S1070404F7AFC1FF8A
S1130440010000000101FF01804D002000100100A7
S11304508182800184858302878886038A8B89044C
S113046008078D0000000000030000001C6100204C
S113047034400020000000001C6100208461002042
S1130480EC610020000000000000000000000000FB
S11304900000000000000000000000000000000058
S11304A00000000000000000000000000000000048
S11304B00000000000000000000000000000000038
S11304C044F2800044F28003C2F20000C2F200034E
S11304D010B5834205D040F20003C0F2000303B11B
S11304E0984710BD44F2800044F28003C2F2000039
S11304F0C2F200031B1A9A10D90F8918491010B5BB
S113050029B140F20003C0F2000303B1984710BDC3
S113051010B544F69844C2F20004237873B9FFF787
S1130520CFFF40F20003C0F200032BB140F20840B9
S1130530C0F2000000E000BF0123237010BDC046DC
S113054040F20003C0F2000310B54BB144F69C41E5
S113055040F20840C2F20001C0F2000000E000BF17
S1130560FFF7C0FF10BDC0460122014B1A7070474F
S11305704D5D00200122014B1A7070474C5D002034
S1130580064B82B21B68012A03D80022D8701A8055
S1130590704740F200421A80FAE7C0460840002043
S11305A00020044B1B6803B9704701301B6800B27C
S11305B0F9E7C0467C4D002010B570B1094A0A2302
S11305C0D45E002311689C4207DD814206D1118963
S11305D00131118100215268D15410BD01331BB285
S11305E00C31F0E73C5D0020002210B50260013AB6
S11305F00A80074A0300106840B104681460426826
S11306001A600822835E0B80FFF7D6FF10BDC04638
S11306107C4D002002001F205AB1012308490868BC
S1130620824207D98868824204D8054ADB009B18B5
S11306301879704701330831172BF0D11F20F8E7E0
S1130640C0D60000034B00201B78082B01D8024AB7
S1130650D05C704707400020B4D6000070B50D4B45
S113066001005B7B01203BB10B4B0C4A48331D78E6
S11306700023AB4201D1002070BD107930B1146861
S11306806668B14202D3A468A142F5D90133DBB252
S11306900832EEE7A45B0020085B0020A45A002087
S11306A0154B00B5185C0A2823D80BF05FFC1E1606
S11306B01612060D22221A161200002001230B39ED
S11306C08B424041C0B203E00C394B425941C8B29D
S11306D000BD002002230A39F2E700200323093970
S11306E0EEE7002004230839EAE700200523073950
S11306F0E6E70020ECE7C04658D60000014B188816
S11307007047C046A05A00204A425141094A494212
S1130710114042F2107289180300C8430A2B07D80B
S1130720054AD35C054A9B009B58C81803B9C843C3
S11307307047C046F0D8FFFF58D60000D4D500005B
S113074003000D48D200125830B5546802209C4270
S113075011D895689D420ED3D2681B1BB3FBF2F4EB
S113076054431D1BA34206D12800012A03D08A4208
S113077092415242500030BDA45A00200300002090
S113078082B00190D1B142F20F7291420CD840F282
S1130790E73291420AD9013242F210700192019A71
S11307A0401AB0FBF2F0584302B070476422632948
S11307B0F2D80A220929EFD80122EDE70121FBE74B
S11307C0F7B5089C0193052845D10B1C072900DDCA
S11307D00723254F5EB2BC46244DB00063704359D5
S11307E00127634504D0224FDB195F427B415F0040
S11307F0A023A770062906DC1E4B28589E5D1E4BBD
S1130800B340B3FBF0F340F2E835019E101F5843A8
S113081075434019400018B15D1E2818B0FBF3F071
S1130820824200D20200980053430025A2600BB11B
S113083001335D08431B40F2E83001D50F4D5B19CD
S113084093FBF0F3E360062905DC3F2A04D8531C2C
S1130850FE221340A360F7BDF8210B00F72AF9D854
S1130860073213000B40F5E790D00300ACD500002D
S1130870E05EF8FFCCD5000040420F0019FCFFFFFA
S1130880094B1A78012318001A420BD1074A1100A8
S1130890FC31896C31B940F28A23D05C0138431EA3
S11308A09841C0B27047C046C8530020D0530020BE
S11308B00423024A11780B4313707047A453002099
S11308C00123024A11780B4313707047A45300208C
S11308D040F28823044AD35C23B10223034A1178EB
S11308E00B4313707047C046D0530020A45300201C
S11308F040F28C23044AD3581A780023052A01D1E4
S1130900024B1B5CD8B27047D0530020A4D5000022
S1130910044B10B5FC331B6D13B1DB6803B198476E
S113092010BDC046D0530020082310B5034A1178E7
S11309300B431370FFF7ECFF10BDC046C8530020F3
S1130940042310B5034A11780B431370FFF7E0FF3B
S113095010BDC046C8530020022310B5034A1178C5
S11309600B431370FFF7D4FF10BDC046C8530020DB
S1130970704700000379012B01D1014A13707047BD
S1130980FC510020002382B00193054BDB88C01A80
S11309901E2380B243430193019880B202B0704792
S11309A0FE260A4010B5042401210748074B82792A
S11309B01975A243827100220020197000211A6166
S11309C09860D9609A8310BD00380A40105D0020F9
S11309D00200811C002010B51378000184B21800B5
S11309E03038C0B2092805D918006138052806D85E
S11309F0573BD8B2013220439142EDD110BD1800CB
S1130A004138052801D8373BF3E74FF6FF70F5E787
S1130A10F0B500230500CC5CA446260934006746E3
S1130A2030349F2F00D907340F262C70CC5C34400F
S1130A3026003036092C01D93734260001339CB204
S1130A406E7002359442E6D30023520092B283546E
S1130A50F0BDF0B587B003900191029213B9042060
S1130A6007B0F0BD019A54009C42F8DB00252E002B
S1130A70E41A24B205AFD4B9029A6B1C525D1DB2BC
S1130A803A700024029B6A1C5B5715B238007B70D5
S1130A90FFF79EFF4FF6FF739842E0D0039B9855F3
S1130AA00136019B36B2B342E5DC0020D8E730239F
S1130AB0A4B23B70012CE4D0023C302324B2E5E71D
S1130AC00420704713B5FFF76BFDC0B2012801D0B5
S1130AD0042016BD6B469C1C210001A8FFF784FD71
S1130AE00023E25E012AF3D1019B1B785BB2302B19
S1130AF005D10022044B3F3300201A70E9E7312B63
S1130B00E6D1014B3F33F7E79451002004207047AE
S1130B1030B585B0FFF744FDC0B2042401281AD1D2
S1130B206B469D1D290002A8FFF75EFD2B8803ADCF
S1130B3021002800029AFFF78CFF040058B96B7853
S1130B402A781B0412061A43AB781B021343EA7873
S1130B501343024A1360200005B030BD645B0020DB
S1130B60030030B541180A2400208B4200D130BD67
S1130B7000229A566043303AD5B20133092D01D888
S1130B801018F2E701204042F1E7000013B5FFF727
S1130B9007FDC0B2012801D0042016BD6B469C1C81
S1130BA0210001A8FFF720FD0023E15E0129F3D114
S1130BB00198FFF7D5FFC0B208B10128ECD1024B70
S1130BC03C3318700020E8E79451002013B5FFF778
S1130BD0E7FCC0B2012801D0042016BD6B469C1C62
S1130BE0210001A8FFF700FD0023E15E0329F3DCE7
S1130BF0002301981AB2914212DCC9B20029EBD049
S1130C00FFF7AEFF431E9BB2DF2BE5D8C0B2431EF5
S1130C10DBB2DF2B02D8054B3D3318700020DCE734
S1130C20C25C0133303A092AE4D9D5E79451002053
S1130C30704700207047704770470000502210B57D
S1130C40034904480AF0D5FF0322034B1A7110BD6F
S1130C5028D4000094510020E8500020024B18785A
S1130C6043425841C0B27047E451002002001B23A4
S1130C70C0094042184052005040C0B270470A2395
S1130C8070B58360036C010001330364030008330F
S1130C90DC6FC268A36820685D6840310823A847F8
S1130CA070BDEFF30380103840B2704730B585B0A3
S1130CB0FFF7F7FF124B8000C5586A68D36959786B
S1130CC0002304391C00022905D8137C0D495B005C
S1130CD05B5A02349BB2E96879B12D6901A80471A9
S1130CE00195022C07D1127C064C90325200125B03
S1130CF0120401329B188360884705B030BDC0469A
S1130D00C04D002000260A401FB5436A4BB18468D9
S1130D102478029169460A71826A009468460392B3
S1130D2098471FBDF8B5FFF7BCFF174B8000C058AC
S1130D30437CC6685B00F6183500FE356C8A83690F
S1130D40A4B29BB18268D26882B90178426959B170
S1130D50178801315218013B3780426183610BB916
S1130D6001339C436C82F8BD1778F2E7002343619A
S1130D7001331C42F5D16B8899B2002BF2D10222C7
S1130D80FFF7C2FFEEE7C046C04D002010B5FFF7E5
S1130D9088FF114B8000C058437CC2680133DBB22A
S1130DA05B00995A036A89B223B90422C361FFF72D
S1130DB0ABFF10BD0278C36952B119800233016AD6
S1130DC0C361013901620029F3D10122C161EEE757
S1130DD01970C3690133F2E7C04D002070B5FFF705
S1130DE060FF114B8000C0580126437CC468013366
S1130DF0DBB25B00E4182188FE34628889B21300F8
S1130E0095B23340324207D102231D4209D1DB1887
S1130E1010221D4201D170BD20226381FFF774FFAF
S1130E20F9E70822F9E7C046C04D0020436882680C
S1130E301B785B009B5A02699BB20AB181695354C7
S1130E4083690133836170470123C8B28340002062
S1130E509BB20AB918001300034A090A4901891808
S1130E60088100204B81704700000A4007B5FFF756
S1130E7018FF064B8000C3583BB19A682AB15979D0
S1130E80DB68684601910093904707BDC04D002080
S1130E9040F21A23044A0020D35A812213405A1ED6
S1130EA093410B707047C04600C07E4006207047D7
S1130EB006207047062070470620704706207047BA
S1130EC00A0010B5034B11CB11C2034B11CB11C255
S1130ED0002010BD20D3000018D300000620704766
S1130EE0062070470620704706207047062070478A
S1130EF0C36A0D4A10B59A180133C362036B816A41
S1130F00013B0363094B4C1C84621800140CFE3033
S1130F1092B2448242811A000978FC3251638122E0
S1130F20FF335A7510BDC0460000F0BD00C07E40BE
S1130F304143032903D9890801390029FCD17047A9
S1130F40254A03001268254810B5254982420BD86A
S1130F508A4209D02348824206D02348824203D0E1
S1130F6040F2F610DA6010BD2048214C1218B2FB92
S1130F70F1F10800A24202D901200840081840F209
S1130F808352D86006204A43B2FBF0F21A6140F261
S1130F9076324A43B2FBF0F25A6158224A43B2FB1A
S1130FA0F0F29A61134A99604A43B2FBF0F2DA61B3
S1130FB0114A4A43B2FBF0F21A62104A4A43B2FBA6
S1130FC0F0F25A620E4B1A78012A03D001221A70E9
S1130FD0FFF7AEFF0020C6E7BC4D0020FF083D0030
S1130FE040420F0080841E00C0C62D003F420F0007
S1130FF03F8AF701B86A0500C0B0070068ED220017
S113100090C07E4044F6003313B5A522019340F20C
S11310108013F7210F4CE2500F4B9D3A5A705970D0
S11310205A705B78934200D1C04681681020FFF764
S11310307FFF40F21A22094BA352A35A98B203B974
S113104016BD019B1BB1019B013B0193F5E71420E5
S1131050F6E7C04600C07E40FFC07E4000AAFFFF06
S113106013B5104901900B6B5B0612D57F240E4B10
S11310705A7D22405A7500225A7501900B6B5B060B
S1131080D80F002B08DA019B2BB1019B013B019384
S1131090F4E7019B0BB9142016BD019B013B01939E
S11310A0E1E7C046FCC07E40FFC07E4040F623021C
S11310B00F4B995C0F4A890709D540F622015B5C06
S11310C01BB193680C4A136070471369FAE740F642
S11310D02001595C890705D540F61901595C53680C
S11310E0CB40EFE740F61801595C1368F8E7C046B7
S11310F000E00140804C0020BC4D0020044940F237
S113110040100A00FE32538C095A0B405386704734
S113111000600040F7B5FF27019283080A4A0326BE
S11311209B009B183A0040F200350640F600890106
S1131130B2403940B1405C59800094430C435C5147
S1131140019A024B1A50F7BD00E100E0C04D0020A7
S11311501F22430910401E3A8240044920339B0059
S11311605A50BFF34F8FBFF36F8F704700E100E019
S1131170002310B50360436811201856030021337F
S113118001D0FFF7E5FF002010BD00BE704700004E
S113119010B5034B1B689B780BB10AF00FFD10BD13
S11311A008400020F0B50A0085B020B1012839D0EC
S11311B0002005B0F0BD4B490B00EC331C680B005C
S11311C0BA3318880B00BF331B78C1315D1EAB41A5
S11311D00978C00801391B18481E81414900891843
S11311E0DB001833C900591840F2E8334B43621E40
S11311F09B1841F65732B3FBF4F3012094420FD805
S113120040F6B732001894420AD840F2CF72013047
S1131210944205D840F2E7320430944200D90238AF
S1131220C018C6E72F4B00201900F9310978019046
S11312300A2902D82C48415C01911900F8310E7832
S11312401900C43118000F881900FA331B78C6310D
S11312500433C830097804780393731F012B04D82E
S11312603B1C0C2F00D20C239FB2631E9C41D20066
S11312702401A4184A4251411423B50049420B40A9
S1131280641BE418B31E0293062E07D9310001989B
S11312900834FFF705FA08B1B31E9D00E343DB17DA
S11312A01C406419013C94FBF5F5039B6B43DA196C
S11312B013000E33062E00D9023B0C4A0199525CEE
S11312C00A2A0ED80A49920052589B000299013307
S11312D08B4040F2E8305843531EC018B0FBF2F084
S11312E067E7FFDEDC5B002020D6000058D6000054
S11312F02CD60000F7B500921A000B320192032697
S11313000269019DC468AD18B5434669B54214D855
S1131310050050352980010048310B800300141B5F
S11313204A331C8002238360009BC364686B836818
S113133000685C680423A047FEBD02224260026686
S113134002008832156886692A199446B76832689B
S1131350D719BC4500D0624644663469AD18C260F2
S11313604561A14205D8083202618AB20267426728
S1131370C5E7FFF784FCDFE710B5094B012806D168
S1131380084AC7331170197007F082FA10BD1A00A9
S1131390BF321278002AF9D1024AC0331170F2E741
S11313A0DC5B00200640002010B5044B1420185EBE
S11313B007F0BCFC0128F8D010BDC046DC5B00205F
S11313C0010010B580B90948094A121A0AF056F901
S11313D00848094A0949121A0AF00BFC0848094A44
S11313E00949121A0AF005FC10BDC046984C0020A9
S11313F0086300200040002000400020000010404E
S113140000400020804000204004000007B56B46E7
S1131410D87107330121180007F050FC07BD000004
S1131420030070B572B6BFF34F8FBFF36F8F0079AF
S1131430082809D888B3013807282ED80AF096FD61
S1131440706E2D0D2D2D2D0B0300EF22103B13423A
S113145001D0402821D1334B53E09C68324B1B7898
S11314605BB2D3B10623314AD356012B15D00223E4
S1131470D05E0023D15E0425525F431C93FBF2F53A
S11314806A439B1A1BB2E4B28B420CD1082C04D1E0
S113149007F004FB2000FFF77BFE62B6BFF34F8F1B
S11314A0BFF36F8F70BD2300613B192B05D8203C1F
S11314B0E4B2200007F0AEFA29E00A2C06D00D2C85
S11314C018D0082C1FD0202CE7D0F2E7200007F01A
S11314D0A1FA2000164CFFF75BFE2378002BDCD02A
S11314E007F0DCFA07F0DAFA0122124B1A70002333
S11314F02370D2E7200007F08DFA2000FFF748FEA2
S11315000B4B012208E0884204D007F0C7FA200000
S1131510FFF73EFE0022064B1A70BEE7064BF0E7CB
S1131520064BEEE730520020F4510020E851002031
S1131530E5510020E4510020F551002031520020F3
S113154013B5FFF72DF8C0B2012811D16B469C1CCE
S1131550210001A8FFF748F821780423019841B13C
S1131560FFF7FEFAC0B2042318B9053008F09EF85C
S11315700023180016BD000013B5FFF711F8C0B220
S1131580012801D0042016BD6B469C1C210001A833
S1131590FFF72AF80022A35E012BF3D1019A1278F7
S11315A052B2312AEED1064A917A9372012901D1BD
S11315B00020E8E7034A137107F0AEFDF8E7C046E0
S11315C094510020E850002010B586B0FEF7E8FFE3
S11315D0C0B20424012810D16B469C1C210001A830
S11315E0FFF702F823881021019A02A8FFF731FAC5
S11315F0040010B902A807F04DFB200006B010BD8E
S113160010B5044B186820B102681A60FEF7D4FFC5
S1131610F7E710BD7C4D002070B504000D00FFF706
S11316201DF830B1164B174AE318934202D802232F
S11316302B7070BD144B154AE318934201D8002354
S1131640F6E7134B134AE318934201D80123EFE75B
S1131650114B124AE318934201D80523E8E7104BD3
S1131660104AE318934201D80323E1E70E4BE41830
S11316700E4B9C4201D80423DAE70020D9E7C04688
S113168040AA8FCC7F841E00C02571CCC0C62D001B
S1131690FF5E43CCBF270900A0B038CC20A10700CF
S11316A040022ECC90D00300606E29CCE09304005D
S11316B0002300B505280CD1501F05280ED80AF0C8
S11316C055FC0A030A0D0A0A0A78052191425B4176
S11316D0DBB2180000BD0A780721F7E70023F8E71A
S11316E040F28C23054AD358E0331B78022B00D0F8
S11316F0062340F2882153547047C046D05300203B
S1131700F0B585B0FEF79EFF0138C0B201283AD982
S113171040F28C261D4C1E4FA55929002A002B008F
S1131720FF31497EF03228781278EC33009749B2C1
S11317301B680397FFF744F840F2F2170223E355BE
S1131740B333FF33EA5C00253F33E254023BE554F4
S113175004F078FA03F0E4FFA359E133187803F0B6
S113176023F9A3591B78052B0DD1039806F044FFE8
S113177048B1280004F0BEFC40F28823E25DE25444
S113178008B106F00FFF05B0F0BDC046D0530020ED
S1131790B0550020F8B540F28C2334490200CB58F0
S11317A01C00E034207818B102284FD00320F8BD83
S11317B042B91A000D331532FF32FF3303CB03C293
S11317C00020F4E70220012AF1D00130022AEED1F0
S11317D0227008000C00E130CD34FF30FF34E0CC3F
S11317E0E0C060CC60C040F2F2100A541A0000203D
S11317F0503254782CB31478022C22D124221C00A9
S113180042439A18106EFC34A06164321278FF339C
S11318105A7640F211228C5C313A8C54043288504E
S11318209A7F40F2F013CA5403220233CA540022AE
S1131830013BCA5440F210230022CA54FFF760FF50
S1131840BEE7013024320428D3D1F3E73AB9227039
S113185003F066FF04F09EFAFFF742FFB0E7012AA7
S1131860A5D00320022AA2D1AAE7C046D053002063
S1131870002330B50360CD5CDC00A540046801336F
S11318802C430460DCB2A242F5D830BD0300002032
S1131890112B03D80248D840012318407047C04692
S11318A02007020070B50C4CE268137D2BB11500C3
S11318B06368A46810359C4200D170BD1E788E42C6
S11318C005D0AB4201D11300F5E70433F3E701225D
S11318D058709A70F1E7C0469053002070B50B49D8
S11318E0CA684B68147D507564B114000125896879
S11318F01034DE78587006B99D70A34203D11300EA
S11319009942F6D170BD0433FAE7C04690530020E3
S11319100B4A30B553689168D26814001034994268
S113192004D100235A1E9341D8B230BD1D7885429C
S1131930F8D0A34201D00433F1E71300EFE7C04627
S113194090530020EFF31080012383F31088064B9B
S1131950196819B9054A1170403111701A680132B9
S11319601A6080F3108870478052002040030A40B8
S1131970EFF31083036072B6704710B52120FFF7B0
S1131980E7FB1D20FFF7E4FB10BD70B50D0014004C
S11319902800A1B207F092F90028F9D1200070BD07
S11319A0114BF7B518780D0091B2C14000270F4CC8
S11319B00F4E01918020277080023770217859B131
S11319C00199DD61196294B22800A1B207F076F999
S11319D00028F9D12000FEBD31780029EAD1013870
S11319E00028EBD1E6E7C046045200203152002023
S11319F030520020054B012800D118601A68D20724
S1131A0002D51A68104318607047C0467C52002003
S1131A10044B10B51B68DB0702D50220FFF7EAFF71
S1131A2010BDC0467C52002010B572B6BFF34F8F74
S1131A30BFF36F8FFFF7ECFF0122044B1A7062B6FD
S1131A40BFF34F8FBFF36F8F10BDC046085D0020FA
S1131A5010B5FFF7E9FF10BD034B01201B6810B55B
S1131A6003B1984710BDC0460052002010B50400D1
S1131A700020205600B910BDFFF7C8FC0134F7E779
S1131A8010B50A4B1C68E37813B10948FFF7EEFF61
S1131A901422A188074B4A431B689B181869FFF757
S1131AA0E5FF0548FFF7E2FF10BDC04608400020EF
S1131AB0E4CA0000485D0020BDCC000010B5024817
S1131AC0FFF7D4FF10BDC046E4CA000010B50400FF
S1131AD0FFF7D6FF0448FFF7C9FF2000FFF7C6FF52
S1131AE0FFF7ECFF10BDC046E7CA000010B530B1E7
S1131AF0152805D8034B8000C058FFF7E7FF10BD39
S1131B000148FAE708D50000E9CA000010B5074B00
S1131B103C331B7823B10420012B05D1044800E099
S1131B200448FFF7D3FF002010BDC04694510020A5
S1131B300BCB0000F8CA0000062310B588B001AC36
S1131B402000237007F062F9029B04221BBA694645
S1131B5020000093FEF75CFF2000FFF7B7FF002092
S1131B6008B010BD052310B588B001AC2000237067
S1131B7007F04CF96946029B20001A0C0A701A0AF5
S1131B804A7003228B70FEF743FF2000FFF79EFF8D
S1131B90002008B010BD000010B5054B04209B7A4E
S1131BA0012B03D10348FFF791FF002010BDC0466D
S1131BB0945100201CCB000000B589B000236A4674
S1131BC001A8137107F022F96B461B7A2BB9074859
S1131BD0FFF77CFF002009B000BD012B01D10448B0
S1131BE0F6E70420022BF6D10248F1E723CB0000EC
S1131BF02DCB000037CB000010B5054B04201B7A19
S1131C00052B03D10348FFF761FF002010BDC04638
S1131C109451002041CB000000B589B004236A46EA
S1131C2001A8137107F0F2F86B461B7A2BB1044834
S1131C30FFF74CFF002009B000BD0248F8E7C0469A
S1131C4049CB000057CB000010B5074B3F331B783E
S1131C5023B90648FFF73AFF002010BD0420012BEA
S1131C60FBD10348F6E7C0469451002066CB000040
S1131C7076CB000000B589B043236A4601A81371EE
S1131C8007F0C4F86B461B7A012B05D10548FFF712
S1131C901DFF002009B000BD0420002BFAD102482A
S1131CA0F5E7C04685CB000096CB00001FB5074B77
S1131CB004221B6869461BBA01A80093FEF7A8FE1C
S1131CC001A8FFF703FF002005B000BD645B0020FE
S1131CD000B589B06A464B2301A8137107F096F842
S1131CE06B466A461B8969465BBA138001A80222C7
S1131CF0FEF78EFE01A8FFF7E9FE002009B000BD43
S1131D004C2310B588B001AC2000237007F07EF896
S1131D106946029B20001A0C0A701A0A4A700322B0
S1131D208B70FEF775FE2000FFF7D0FE002008B090
S1131D3010BD522310B588B001AC2000237007F009
S1131D4065F8029B04221BBA694620000093FEF743
S1131D505FFE2000FFF7BAFE002008B010BD532339
S1131D6010B588B001AC2000237007F04FF8029B37
S1131D7004221BBA694620000093FEF749FE2000A6
S1131D80FFF7A4FE002008B010BD0000124B10B5F0
S1131D901B88012B08D0114B114A1B6812889A80AA
S1131DA0037813B1012B0ED010BD43781BB90D4835
S1131DB0FFF78CFEF8E7102B03D80B4A9B009858CA
S1131DC0F6E70A48F4E743781BB903790BB10848EE
S1131DD0EEE70848ECE7C046F65000200840002033
S1131DE0F4500020CBCC00009CD40000A8CB000011
S1131DF0C2CB0000CFCB000013B5FEF7D1FBC0B2BD
S1131E00012834D16B469C1C210001A8FEF7ECFB91
S1131E100023E15E01292AD10198FEF7A1FEC4B294
S1131E20012C1CD9072C22D11248FFF71FFEFFF703
S1131E3045FE072C05D109F04FFA09F039FAFEF7EF
S1131E40FDFE72B6BFF34F8FBFF36F8FBFF34F8F9B
S1131E50094B0A4ADA60BFF34F8FC046FDE7002CF6
S1131E60E2D1074B187A07F021FC200016BD0424A8
S1131E70FBE7C046CBCC000000ED00E00400FA050F
S1131E8094510020F8B506000C000F274D1EAD003C
S1131E903000E8403840092808D83030013CE4B22A
S1131EA0FFF7B4FA043D002CF2D1F8BD3730F5E762
S1131EB010B5FFF7E5FD0948FFF7D8FD022104201E
S1131EC0FFF7E0FF0648FFF7D1FD90200221FFF75E
S1131ED0D9FFFFF7F3FD002010BDC046D6CB0000AC
S1131EE03BCF0000F7B505000E000192002803DA8D
S1131EF02D20FFF78BFA6D4201230A221C00B34206
S1131F0004D101260A27002C04DCF7BD0133544315
S1131F10DBB2F4E7012C00D1002695FBF4F292FB2E
S1131F20F7F37B43D31A00936B461878012E0DD137
S1131F3060B9019B13B11800FFF768FAFF22009BF8
S1131F401340634394FBF7F4ED1ADCE7303040B2FE
S1131F50FFF75CFA0026F1E770B50D000400FFF707
S1131F608FFD0548FFF782FD290000222000FFF7BE
S1131F70B9FFFFF7A3FD70BDE7CA0000272310B522
S1131F8088B001AC2000237006F040FF02980521C0
S1131F9080B2FFF7E1FF002008B010BD00B589B0A2
S1131FA06A462D2301A8137106F030FF6B46022107
S1131FB0187AFFF7D1FF002009B000BD10B5044B1B
S1131FC003213D331878FFF7C7FF002010BDC0463A
S1131FD094510020002310B5934200D110BDCC5C75
S1131FE0C4540133F8E70300F0B5D433040018688F
S1131FF00E00150087B048B310231B1A1F0000936E
S1132000934200D917002300C133BAB21818310023
S11320100193FFF7DFFF2200D4321368FB1813602B
S11320200F2B1DD9009BAB421AD22000B130030004
S11320301A78197C4A401A70019A01339A42F7D1EE
S11320402200010006F090FDF619ED1B2000C130BE
S1132050102D07D83100AAB2D434FFF7BBFF256096
S113206007B0F0BD2700B1373B00009600991A78FD
S113207009784A401A70009A01330132009298425A
S1132080F4D11022390002A8FFF7A4FF02A9080026
S1132090220006F069FD1022380002A9FFF79AFF1A
S11320A01036103DD2E70000F0B50C00B3B005289F
S11320B063D102AEC0220021300009F0DFFA0A2108
S11320C040F2E8320A2064236944CA871AA90880C6
S11320D022A9338033840B802AAB1A802079042808
S11320E04BD809F043FF03364A4C5D00384DC022FB
S11320F028003100FFF76EFF40F2821307223549B2
S11321003548C03DEA5206F0FDFA0123334AE38024
S1132110137040F6B832E26040F2E832226140F2D5
S1132120D072626141F28832A26141F2707200237E
S1132130E261621C2372D377294A238562622200FA
S11321402A3213708323DB05E362264B2363264B79
S1132150636340F2801140F28210244B5A5A185A99
S113216002435A52224A1800110070C970C0E0C9D3
S1132170E0C01833183213CA13C333B0F0BD0022C1
S113218000200021124BB45A20329860D9601861A3
S113219059619861D9611C802033C02AF3D1ECE7DE
S11321A06B460024991D08200C7002F0D9F86B4688
S11321B0591D0A4B06201B785A1E93410B7002F0DE
S11321C0CFF86B460920D91D0C7002F0C9F8D4E78A
S11321D040570020025800200058002004400020EE
S11321E008E6D3339A990940400020008056002025
S11321F078D7000040F28C23F0B5374C0025E35823
S113220040F2B4111A00E4325D54156040F20C221D
S1132210012032498FB0A150E03A9D546432985263
S11322201A0018009988E8321180991DC97F173265
S11322309172996AFC30016119002C31097851744A
S1132240190015323031C0C9C0C2198F012611805E
S1132250DA6B42621A6C82621A004432117840F2DC
S113226028129954E832A554813A9D542D329D5434
S11322706A466946167100951878FFF715FF40F213
S11322801123E5547B33E2585F3B1100FF3BD554E7
S11322909E33E554FC31086940F2D01160501100BE
S11322A0FF31887F40F2DC11605489196554891923
S11322B066542A39515C40F2DF12A1542200E13203
S11322C01B19FF3223CB23C203CB03C240F2F21308
S11322D00222E2540FB0F0BDD053002000010100EF
S11322E0F0B595B005930D230C2704920391C356C2
S11322F0C7570293837B1A9A9C4643680400136071
S113230045780197A5B33A1C002F00DA0022002576
S113231052B201922089628983426D418618B34288
S1132320B6410299EDB23140560036180291B342DB
S11323301ED31B1AB3FBF2F042439E1A934217D1E9
S1132340002F0ADC237833B1012306AA207C110074
S11323501371FFF7A9FE40F2010C237C052B05D174
S11323600026B74202DD019E013EF6B273B201932C
S1132370039B019A28001A70049B029A1A70624601
S1132380059B1A7015B0F0BD0022F0B585B002A906
S1132390CA71067903000620022E19D903380F2EBC
S11323A016D81F6801243B7A1A091B071B0F934296
S11323B003D806349442A441644202ABD91D386860
S11323C0FFF72AF901256840C3B21CB10533D8B21E
S11323D005B0F0BD0420002BFAD10C221300734386
S11323E00949B5405B18180039000193FFF7F2FD65
S11323F002ABDB79019A0449537240F280128B5A82
S113240020002B438B52E3E780560020F8B51500DB
S11324102022134B1F001C0008372678CEB9013444
S1132420BC42FAD10F4C226802B92360626802B13F
S1132430136000221A606360AAB21871DD71581D1E
S1132440FC34FFF7C7FDE36801335B19E360300038
S1132450F8BD013AD2B23B00002ADBD10226F6E7EE
S11324608C52002084520020114BF7B51C680023C5
S113247017001E00009001911CB9019B00201E60F2
S1132480FEBD009AD11AE27901329142F5D3227944
S11324905D1CFA54EDB2E279611D7819FFF79AFDDB
S11324A0E279013655192468EBB29619E4E7C0467F
S11324B084520020F0B504000F0016001D000A200D
S11324C085B0FBB110220021684609F0D7F86A46AE
S11324D0A31F13706B460322581C3900FFF77AFDC3
S11324E00322310001A8FFF775FD6B460222290083
S11324F0D81DFFF76FFD22000221684608F0BCFEDC
S113250000B10F2005B0F0BD70B5056804000220CD
S11325101DB126790B2E01D8012070BD20002B7827
S113252004226371691C0830FFF7A2F96B790B3E32
S11325302373AB79E381EA7912021343227BE381AB
S11325401207120F9642E7DD2900200008311030EF
S1132550FFF740FD237B200000221B071B0F1E00FA
S1132560651C2830EA77027022790836911B043AF8
S1132570042907DD216809338E5DEE77D51ACB185F
S113258005706362200021682C3089180422FFF74B
S11325906FF90020C1E700001FB5FEF701F8C0B2D3
S11325A00424012812D16B469C1C210001A8FEF7CB
S11325B01BF823880821019A02A8FEF74AFA0400AE
S11325C020B90822034802A9FFF704FD200004B043
S11325D010BDC046AF51002000B589B001A8082243
S11325E00649FFF7F7FC082201A903A8FEF710FA31
S11325F003A8FFF76BFA002009B000BDAF5100201B
S11326001FB5FDF7CDFFC0B20424012812D16B46DB
S11326109C1C210001A8FDF7E7FF23880821019AEB
S113262002A8FEF716FA040020B90822034802A9FA
S1132630FFF7D0FC200004B010BDC046B751002005
S113264000B589B001A808220649FFF7C3FC082297
S113265001A903A8FEF7DCF903A8FFF737FA002065
S113266009B000BDB751002010B586B0FDF798FF42
S1132670C0B20424012812D16B469C1C210001A87D
S1132680FDF7B2FF23881021019A02A8FEF7E1F9B1
S1132690040020B91022034802A9FFF79BFC200084
S11326A006B010BD9F510020242330B58BB003AC7D
S11326B02000237006F0AAFB0D4B68461D7A04998E
S11326C06A1F53425A415200FFF784FCFFF7D8F9BE
S11326D00848FFF7CBF9052D04D16B46042118886F
S11326E0FFF7D0FBFFF7EAF900200BB030BDC0467E
S11326F094510020E7CA000010B5013A92B20132A9
S113270008F0BCFF10BD0000F0B5C5B006000D0018
S11327101F000220019200297DD04A9B002B7AD011
S1132720E123002402A81B18180010220021FFF73F
S1132730E3FFB02221000EA84394FFF7DDFF634BB3
S11327401A78BA4261D111216143614B2131C91810
S11327500EA806F051FA002E5FD106AC2900019AAA
S11327600EA8FFF740FC102200212000FFF7C4FF51
S113277021000EAA200006F0F7F922782300002198
S11327807F2A50D918785A784000D209024301317F
S11327901A7001330F29F5D17923E27B5B42520091
S11327A05340439ADBB2E373102A49D102ABE132BE
S11327B0D21800231178E05C0133414011700132DA
S11327C0102BF7D1E123002502AA9B181A78197C53
S11327D001354A401A700133102DF7D1E12302A9C3
S11327E05B1819002A000AA8FFF7F4FB0EAA0AA92D
S11327F002A806F0B9F92A0020000021FFF77CFFA7
S1132800029B4A9A0020136005E00134E4B21133BC
S1132810142C95D1032045B0F0BD102231000EA830
S1132820FFF7E1FB99E718785A784000D209024390
S113283001311A7001330F29F5D1E37B5B00B0E756
S11328400021002061562300814231DA1D78597835
S11328506D00C90929430130197001330F28F5D1DE
S11328607923E17B5B4249004B408021DBB2E37377
S11328700EAB9B18C133561C00251970102E01D8BD
S11328800F35AD1A0EABC232981800212A0008F099
S1132890F5FEF12202ABD2180023AD19439511784D
S11328A0E05C0133414011700132102BF7D189E70C
S11328B01D7859786D00C909294301301970013315
S11328C00F28F5D1E37B5B00CFE7C04628580020F2
S11328D008580020F0B5AFB006000D0001A81400A0
S11328E00021B0221F00FFF707FF00230F4811212A
S11328F05943425CA2420BD10D4B2131C91801A8A6
S113290006F07AF92C00281BC0B23CB9200003E081
S11329100133142BEBD103202FB0F0BD311801AAE1
S11329203818103C06F020F9A4B2ECE7285800202F
S1132930085800207FB5002311220E001949140005
S11329405C430D5D854227D1174B80382134C0B2DA
S11329501022E418092819D840F24923C340DB07A0
S113296014D50021684608F089FE022536B16B466D
S11329707F2210213000FFF7ADFF050010226946C9
S11329802000FFF727FB280004B070BD31002000B1
S1132990FFF720FB0025F6E70133142BCFD10325E5
S11329A0F1E7C046285800200858002030B505003B
S11329B085B051B1FFF7BEFF040030B9012D05D138
S11329C0104B1B689B78012B03D10F24200005B00A
S11329D030BD01001022684608F050FE092229008B
S11329E0684608F049FC0028EFD11022210068460F
S11329F008F044FE7F220921684608F03DFC0028C7
S1132A00E4D0E2E7A053002070B59E4D04002B00F3
S1132A10FC339B6C01208EB09B075AD4207853283A
S1132A2000D965E209F0B6FA570064025B0065005C
S1132A306B00720078007E008800880064026402E3
S1132A4064026402640264028D00920097009C0098
S1132A50A100A600AB00B000B500BA00BF00C400DE
S1132A60C900CE006402D300E700F6001E01430152
S1132A70340150015B01620167016C01730164025E
S1132A807A018B01AE019D01BF01C901D201D901B7
S1132A906402640264026402640264026402640202
S1132AA06402640264026402640264026402DF0178
S1132AB064026402060264021302540054001A02FF
S1132AC01F02220233023D02460250025A025F02F2
S1132AD013200EB070BD2079FEF75CFEF9E7616843
S1132AE009B90320F5E710226748FFF773FA0020BD
S1132AF0EFE761680029F4D010226448F5E740F25A
S1132B008C23EB58E23322791A70F0E740F28C23DD
S1132B106268EB589A64EAE740F28C236268EB58E7
S1132B20DA64E4E761680029DBD00120FFF73EFFA7
S1132B300028DCD00E20CCE7616802200029F5D102
S1132B40CFE761687F200029F0D1CAE7616880205F
S1132B500029EBD1C5E7616881200029E6D1C0E7EF
S1132B60616882200029E1D1BBE7616883200029E4
S1132B70DCD1B6E7616884200029D7D1B1E7616868
S1132B8085200029D2D1ACE7616886200029CDD107
S1132B90A7E7616887200029C8D1A2E76168882077
S1132BA00029C3D19DE7616889200029BED198E737
S1132BB061688A200029B9D193E761688B200029D4
S1132BC0B4D18EE740F28C23EB58E1339BE76A469D
S1132BD0237A6946137040F28C23ED580722287833
S1132BE0FEF766FD002800D17BE70D35FF35043480
S1132BF006CC06C57BE76A46237A6946137040F221
S1132C008C23ED5807222878FEF752FD283500283A
S1132C10EDD166E76A46237A6946137040F28C2345
S1132C20ED582B00FF339B7F287853700722FEF763
S1132C303FFD002800D154E72B001533FF33043443
S1132C4006CC06C33C3B1B78022B00D04FE7B333C2
S1132C50FF33EB5C002B00D149E702F061FDFEF786
S1132C604FFD44E76A46237A6946137040F28C2389
S1132C70ED5807222878FEF71BFD002800D130E725
S1132C803035B4E7D05300200858002018580020ED
S1132C9040F28C23EB5861681B78052B00D020E7A9
S1132CA09448002900D122E705F02CFD1FE740F2EB
S1132CB08C23EB5861681B78052B00D011E70029A1
S1132CC000D114E78C48EFE72279531E0E2B00D96C
S1132CD007E740F28C23EB58FF335A7207E740F2C0
S1132CE08C23EB58F43362681A6000E740F28C23BB
S1132CF0EB58F833F7E740F28C23EB58FC33F2E758
S1132D0040F28C23EB586268FC335A60EFE640F2E1
S1132D108C23EB58FC3362689A60E8E604266B4621
S1132D20A65706221E7040F28C23EC586946207880
S1132D30FEF7BEFC002800D1D3E66671D7E6042670
S1132D406B46A65705221E7040F28C23EC58694648
S1132D502078FEF7ADFCE934002800D1C1E62670E6
S1132D60C5E604266B46A6570A221E7040F28C2341
S1132D70EC5869462078FEF79BFC002800D1B0E6A9
S1132D802671B4E604266B46A65709221E7040F24B
S1132D908C23EC5869462078FEF78AFC002800D181
S1132DA09FE6E834DBE740F2F41362689A4200D904
S1132DB097E69833EB58EC3396E740F28C23EB58C4
S1132DC022791900F0310A701A7390E640F28C23CC
S1132DD0EB586268FC339A6289E640F28C2362689D
S1132DE0EB581A6483E640F28C26AB591B78052B0A
S1132DF008D1424923790A789A4203D006200B70FD
S1132E0001F0AEFAAB5900201A000021A132FF32C2
S1132E1010605160694603220A71002218780092FA
S1132E20FFF742F92379A9595A1E934140F22D1212
S1132E308B545CE640F28C23EB582279180040F264
S1132E402811443002B1012202705A544FE640F274
S1132E508C232179EA58CF3BD15448E6284BA288E9
S1132E601B689A8043E6264B1B6854E722790F2A95
S1132E7000D936E640F28C23E958613BFF3BCA5443
S1132E802C3BFF3B934040F290128B522FE6227969
S1132E90072A00D925E640F28C23EB58FF339A72B7
S1132EA025E640F28C232079ED5809F0BBFDFC3572
S1132EB068621CE62279012A00D912E640F28C23CA
S1132EC0EB58FF339A7712E62279012A00D908E6F3
S1132ED040F28C23EB58FF335A7708E6084B6268BC
S1132EE01B681A6103E6064B62681B68DA60FEE53C
S1132EF00220EEE502580020005800200440002083
S1132F00A053002010B58AB0FDF74AFBC0B20128D7
S1132F102CD16B469C1D210002A8FDF765FB002304
S1132F20E15E052922DCC9B20298F9B1FDF718FE69
S1132F3003004CF25C12F53BFF3B9BB2934215D865
S1132F4027236A4684B203A813730494FFF75CFD35
S1132F5050B928236A46137340F2E83303A8E418EF
S1132F600494FFF751FD10B1FEF7C0FD04200AB030
S1132F7010BD000030B58BB0FDF712FBC4B2012CBC
S1132F801AD16B469D1D290002A8FDF72DFB0022D6
S1132F90AB5E012B10D1029B1B785BB2302B0ED0A1
S1132FA0312B09D16A46432303A813731474FFF722
S1132FB02BFD30B1FEF79AFD04200BB030BD002488
S1132FC0F0E7024B3B331C70F7E7C04694510020F6
S1132FD010B58AB0FDF7E4FAC0B2012819D16B46E6
S1132FE09C1C210002A8FDF7FFFA23880421029A01
S1132FF001A8FDF72EFD030060B95222019B03A82E
S11330001BBA43600270FFF7FFFC030010B1FEF728
S11330106DFD042318000AB010BD10B58AB0FDF789
S1133020BFFAC0B2012819D16B469C1C210002A82A
S1133030FDF7DAFA23880421029A01A8FDF709FDB5
S1133040030060B95322019B03A81BBA43600270BA
S1133050FFF7DAFC030010B1FEF748FD0423180063
S11330600AB010BDF0B58BB01E0010AB0C001F7879
S113307000900192F1B3009B0A20E3B301251022D2
S1133080002106A808F0FAFA1022002102A808F08C
S1133090F5FA02AB981D31001D705F7105F01AFD41
S11330A00A2002AB1199C01805F014FDEAB213010D
S11330B0103BDEB202ABDA7301351021019A06AB84
S11330C002A8ADB2FFF706FCB8B9211C102C00DD34
S11330D010210022009B09B29B1906AF1878D65D17
S11330E001327040187001339142F7DC103C24B275
S11330F0002CDBDC00200BB0F0BD0F20FBE7000050
S113310010B5074B04001B68DB7813B10548FEF7C4
S1133110ADFC2000FEF7AAFC0348FEF7A7FC10BD97
S113312008400020E4CA0000BDCC0000037837B595
S11331300400022B43D84578002D40D1037B13B300
S11331402548FFF7DDFF2548FEF790FC237BAB42C3
S113315036D82348FEF78AFC00220321E078FEF7E4
S1133160C1FE1F48FEF782FC00220121607CFEF7AD
S1133170B9FE1B48FEF77AFC00220A21206AFEF7FA
S1133180B1FEFEF79BFC174B3F331B78012B16D186
S11331901548FFF7B5FF1148FEF768FC002203212C
S11331A00E23E05EFEF79EFE0D48FEF75FFC102046
S11331B0002203212056FEF795FEFEF77FFC37BD63
S11331C0A1680122491901A8FDF722FC013501A8D3
S11331D0FEF74CFCEDB2B9E7ECCB0000E7CA000007
S11331E0F2CB000094510020F4CB0000F8B5057830
S11331F00400032D16D0082D38D065B92748FFF7F1
S11332007FFF2748FEF732FC63782BB92548FEF789
S11332102DFCFEF753FCF8BD082B01D12248F6E73C
S11332202248F4E7224B1E78B307F4D52148FFF770
S113323067FF1B48FEF71AFC67789FB93A0029001C
S1133240207CFEF74FFE1C48FEF710FC3A002900D4
S1133250607CFEF747FEFEF731FC02239E43144BCD
S11332601E70D8E71548FEF701FCF4E7104E3578D8
S1133270EB07D0D51248FFF743FF0948FEF7F6FBEA
S1133280637843B90F48FEF7F1FBFEF717FC0123FF
S11332909D433570BFE70948F5E7C046FACB000007
S11332A0E7CA000000CC00000ECC000020CC0000D7
S11332B0E54E00202CCC0000F2CB000035CC000001
S11332C041CC0000CBCC000010B5040088B0032032
S11332D0022C09D86A46002301A813711472FFF75F
S11332E093FB08B9014B5C7208B010BD94510020E7
S11332F013B5FDF755F9C0B2012815D16B469C1CD6
S1133300210001A8FDF770F90022A35E012B0BD167
S1133310019B18783038C0B2022805D8FFF7D4FFD3
S1133320030010B1FEF7E2FB0423180016BD0000F1
S1133330042330B589B001AC23700500200005F0EA
S113334065FD23799D4220D045B9042320002370D4
S11333502571FFF759FB60B109B030BD2D232370EF
S11333600B4B20001B782371FFF74EFB0028ECD099
S1133370F2E7084B3E331D703DB92D232000237026
S113338005F044FD2279024B1A700020E4E7C046A0
S1133390E44E00209451002013B5FDF701F9C0B2AA
S11333A0012816D16B469C1C01A82100FDF71CF9CD
S11333B00023E05E01280CD1019B1B785BB2302B0B
S11333C00AD0312B05D1FFF7B3FF030010B1FEF78C
S11333D08DFB0423180016BD0020F4E730B50A4C19
S11333E0050023003E331B78002089B04BB96A46A0
S11333F02D3301A813711572FFF706FB08B9403489
S1133400257009B030BDC0469451002013B5FDF7B6
S1133410C7F8C0B2012818D16B469C1C210001A832
S1133420FDF7E2F80023E15E02290EDCC9B201983F
S113343059B1FDF795FB83B20F2B06D8C0B2FFF745
S1133440CDFF030010B1FEF751FB0423180016BD95
S113345070B52423050088B001A80C0003704560F2
S1133460FFF7D2FA0600054B2900054862001C70DC
S1133470FEF7B0FD300008B070BDC046D751002043
S1133480D8510020F0B589B005AD0C2200212800E8
S113349008F0F4F8FDF784F8C3B20193062B2CD995
S11334A000260420164B1B7A053B5A425341D9B2DD
S11334B09E4206D830B92800FFF7CAFF10B1FEF7C4
S11334C015FB042009B0F0BD02AB9F1D390004A810
S11334D0FDF78AF83B8803AF02213800049AFDF710
S11334E0B8FA0028DED13B8862005BBAAB520134E3
S11334F0019BE6B2B342E7D8D4E700240420F7E7FF
S1133500945100200B6802781B0E534003700B6823
S113351042781B0C534043700B6882781B0A53405B
S113352083700B68C2785340C3704B6802791B0EDA
S1133530534003714B6842791B0C534043714B68F1
S113354082791B0A534083714B68C2795340C3711B
S11335508B68027A1B0E534003728B68427A1B0CF1
S1133560534043728B68827A1B0A534083728B6880
S1133570C27A5340C372CB68027B1B0E5340037361
S1133580CB68427B1B0C53404373CB68827B1B0A82
S113359053408373CB68C27B5340C37370470000AE
S11335A003000449103302788A5C027001309842A7
S11335B0F9D1704728D30000F8B50C00060008784C
S11335C0FDF754FB677805003800FDF74FFBA3783F
S11335D0E2787B4053405D40684030706078FDF78E
S11335E045FB27780500A0784740FDF73FFBE378CB
S11335F05F407D406840707063782778A0785F40B2
S1133600FDF734FB0500E0784740FDF72FFB7D40D4
S11336106840B07027783800FDF728FB63785F4076
S1133620A3785F407840C5B2E078FDF71FFB4540C2
S1133630F570F8BDF0B5437B87B001938378457A84
S11336400293C379877A03934378C1780493C37A46
S1133650C67B05934379847B4370019B82794372D3
S1133660029B87708372039BC670C372049B45716F
S113367043738471C1718273059BC37307B0F0BD3A
S1133680030070B5002504000833DB6F05609A68F9
S113369018685269904728006560A56070BD41B103
S11336A0436813B14368022B03D104234360033BF3
S11336B083607047EFF31081012383F31088074B75
S11336C01A6812B11A68013A1A601A681AB9044BD6
S11336D01A7080321A7081F310887047805200206B
S11336E040030A40F8B50400FF25FEF72BF9002239
S11336F020880A4E93B2984202D8FFF7DBFFF8BD48
S11337006168D300C9188F8809683B0A1B012F40E0
S1133710DB1989B25B0099530132EBE700020A40DE
S1133720436810B5C4681A78FF21436904B1E15CA9
S11337308468520001331153436110BDF0B585B064
S1133740FDF7AFFA204B8000C45863681D78A36866
S11337506A009B180122FE33598811420AD05A810B
S1133760042301A801950371A36A8360636A9847DF
S113377005B0F0BD5B8A1E009FB21640134202D012
S11337806369012B02D92000FDF750FB6269E369EC
S11337909A4203D22000FFF7C3FFE9E736B10123C1
S11337A088359F43A3686D00EF52E1E7636801A881
S11337B01B78019301230371A36A8360636A013454
S11337C09847E677D4E7C046C04D002040F20A226D
S11337D030B50F4B995C8909814218D040F20B2413
S11337E001211D5D29431955022805D0995C8909D9
S11337F0022901D08021995440F20A2240F20B217F
S11338008001C0B2985401205A5C82435A5430BD9E
S113381000C07E40484A494B70B59A600122484B2B
S1133820484C1A7040F6FE03474A0025E252474BC3
S1133830474ADD601A60474A5A6048F200029A60BB
S11338401A61FDF733FC40F600031A2240F6240106
S1133850E254635C8BB1404B4048DA680240DA6062
S1133860DA687F263E48C27A3240C2728022D86823
S113387012040243DA60DB68655440F60C03E25C30
S11338800AB10022E2540320FFF7A0FF002240F611
S11338900803E25440F61202A35CDB07FCD540F6B1
S11338A023030121E25C8A43E254E25C9207FCD4E4
S11338B040F621030121E25C8A43E254E25C920770
S11338C0FCD440F620020121A35C8B43A354A35CE7
S11338D09B07DB0FDDB2002DF9D1022640F618025A
S11338E0A6540132A3540132A354FDF7DFFB300088
S11338F0FFF76CFF40F6FE031A4A2800E252FDF778
S11339005FFDFDF7D3FB184B184A19481A60FFF7FF
S1133910E9FE0120FDF754FD164E174BF61AB610BA
S1133920AE4201DC05F000FF134AAB009B181B6894
S113393098470135F4E7C0460000000000ED00E0C0
S113394090C07E4000E0014003A5FFFF804C0020B2
S11339500048E80100093D00FC6F0440FFFF7FFFC1
S1133960002C0A4000A5FFFFA44D002054524F50E4
S11339704CD100009CDD000098DD000001380028D7
S1133980FCD1704740F2E8320023484310B50021CF
S113399008F064FB054B1A68054BB3FBF2F3B0FB6C
S11339A0F3F0800808B1FFF7E9FF10BDBC4D00201B
S11339B000CA9A3BF0B585B00193002383770300D6
S11339C008330400D86F83680068DD6802AB0733EE
S11339D0A8470500E0B90600A37F104F33B90121C1
S11339E001360800FFF7CEFFBE42F5D1230058335D
S11339F01A7801990A70BE420DD01A78022A07D0AB
S1133A001A78032A04D040F2F4151B785934237031
S1133A10280005B0F0BD1425FAE7C04640420F0067
S1133A200223F0B5060085B002AAD371C26804006F
S1133A3015004BF6AD678836336801919B1808353D
S1133A40436163699D421BD2019BB3B102AB042263
S1133A50290020000733FFF7ADFFA0B902ABDB79E3
S1133A60022B0DD0A1693368CA6828880A32520033
S1133A709B1A834209D2212003E0A36E9D42F1D117
S1133A800020A566256105B0F0BD0322EB1D1B18BF
S1133A9093435A88BA42EED11A884869E1685200C1
S1133AA0691A11521A881D1DE265CAE710B504008F
S1133AB0436E0021C36083691A6958690132520058
S1133AC007F0DCFD00212000FFF7AAFF10BDF8B5C8
S1133AD004000325836949005869626E435A2669C4
S1133AE09B18E3671B88221D0B33AB43D367E26843
S1133AF09B19B71A475221008831096800205218CF
S1133B00934205D92000FFF7D1FF01236560A3602C
S1133B10F8BD10B504008369616F1A6901319142DF
S1133B2000D9002161675A694800825A002AF3D0FB
S1133B30236F8B4207D02000FFF7C9FF10B9200084
S1133B4004F082FF10BD23692000A367FDF797F8F6
S1133B50F8E7F0B584680023250087B00093037864
S1133B6058352B70A3681BB90133A37707B0F0BD98
S1133B702B78012B00D0DCE0A0680238082800D99B
S1133B80B3E008F0F3F9058B359FB8B2B2B2C000C8
S1133B9023690325043301932361230048331B88DD
S1133BA0E76C1A002A40A56002922B420AD1A56054
S1133BB0220039000832D06F82685568019A006883
S1133BC0A84739E0032B0FD826008C3604220021A5
S1133BD0300007F053FD39003000029A08F009F86C
S1133BE037000423A560E3E70422AB43A260DFE7C8
S1133BF0230048331E882500032733008C35BB433C
S1133C00042200212800A760019307F037FD320049
S1133C10019BE16C3A40C918280007F0EAFF2269C9
S1133C20019B29009A1823000833D86F2261836806
S1133C3000685E680423B04701002000FFF72FFDF1
S1133C40A368012B00D091E7230090331A68002A5F
S1133C5000D18BE76368002B00D084E0A368013BAC
S1133C60591E8B41DBB204A90B70230094349833A2
S1133C701B6820684B60002877D003780093436862
S1133C800393030060C960C390472368002B00D1ED
S1133C906CE7009A1A70039A5A6067E72300483366
S1133CA01B8821695A189B0700D00A1D0523A360AD
S1133CB0230021000833D86F2261836850315D6886
S1133CC004237CE72300210050331A882369E2652A
S1133CD0043323614A310888A1695200496950526A
S1133CE0626822B90132A260A3660020A4E7200022
S1133CF0FFF70FFFA0E7231DDB6F2000002BF7D099
S1133D0004F0A2FE98E7230088331A68E368616E22
S1133D109B18636100232377A36F120A23610B238B
S1133D20A36023000833D86F836800689B689847B2
S1133D3082E72B7823B9009B63600123A360D4E757
S1133D4063680098022B05D1A3680B2B02D02000D6
S1133D50FFF7ACFE23002A7859331A7004236360FA
S1133D60033BA36068E763687CE708008CE7000016
S1133D70030070B50026083386770400D86F836883
S1133D8000689B689847050048B1280070BD012170
S1133D900800FFF7F7FD0A4B01369E420DD0A37FC2
S1133DA0002BF4D0230058331A78002AEDD01B7866
S1133DB0593440F2F4152370E7E71425E5E7C046CB
S1133DC040420F008369F0B51A6905000132586951
S1133DD05200002185B007F051FC00234FF6FF721A
S1133DE0AB77EA65EB600193AB6901995A6891423C
S1133DF001D300243BE02F008837019A3E681B68FA
S1133E005643F61802AB0822310028000733FFF7A7
S1133E10D1FD040058BB02ABDB79022B14D102ABF9
S1133E20310028003A680733FFF7C4FD0400F0B9F5
S1133E3002ABDB79032B43D13A68120A3100280024
S1133E40FFF796FF040011E04BF6AD62F38893424E
S1133E50F2D1E96899B33A6830680B68120A98425B
S1133E60ECD92800FFF784FF0400EE6044B3EB684C
S1133E704BBBAB6929001A689B688831D2182B00A8
S1133E8009680833521AEA609CBB22492C64D9871A
S1133E902900D86FAC77836840315C6800680823D8
S1133EA0A047040028BBAB7F33BB01210800FFF708
S1133EB069FD194B01349C42F5D1142426E0EE60CF
S1133EC0019B01338FE7212C0ED101260023012110
S1133ED02800AB83FFF7A4FD0400212816D0A8B95D
S1133EE02EB90123AB6011E084B90026EEE721244A
S1133EF00CE0212C0AD1E8E72B0058331A78012A68
S1133F00F3D040F2F4141B7859352B70200005B01F
S1133F10F0BDC046ADBEFFFF40420F00F7B5020042
S1133F200B6A08321B6881610400D36707000192A1
S1133F3048688A688837B2FBF0F23B483A606064AC
S1133F40606520000022394D903025658D69C9696E
S1133F502264A264E26481602100943105600A60F5
S1133F609A6803CB126890470600002845D1A060E8
S1133F702000FFF727FF0500212844D10223310048
S1133F80A0696360036926669C4643694A009A5A9D
S1133F9012B901316145F9D90368E5683A68806866
S1133FA0AF181818874200D03B00D2186566E3604A
S1133FB062618C4523D3083323618BB220002367CD
S1133FC06367FFF784FD050080B9200004F03CFD21
S1133FD0050058B9A368012B1FD001210800FFF781
S1133FE0D1FC134B01359D42F4D11425019B2E00C5
S1133FF0DB6F9A681868526990473000FEBD200054
S1134000FCF73DFEE4E70028F0D1E3681B68236475
S113401000236360074B2360EFE76368042BF4D14C
S113402040F2F415E2E7C0460000ADBEFFFFADBEAE
S1134030404B4C004545565270B5274B88B09B7A8F
S1134040012B47D1032214000440024242D0250030
S11340501D401C4209D06A464A33137101A804F07A
S1134060D5FE6B461A891D4BDA80022634422FD0C6
S11340704C2301AC2370200004F0C8FE029A174BB5
S113408035439A6016491748FFF748FF040080B982
S1134090154E042130700623144A1248FDF72AF9FC
S11340A0040001000F48FFF7FAFA14B93378002B23
S11340B0FCD00C48FFF7E4FA20434242504103236A
S11340C0064A404203401D4013682B43136001E03D
S11340D0002DD7D108B070BD94510020E8500020C5
S11340E078D40000484E00204C5D0020EE500020A3
S11340F0002370B588B001AC2000237004F086FE64
S11341001E4D237920006B724323237004F07EFE3E
S11341102B0022793B331A7004232000237004F00F
S113412075FE2B0022793E331A701D232000237064
S113413004F06CFE2B0022791149413311481A70A6
S1134140FFF7ECFE010078B90F4E502330702A00BF
S11341500C48FDF7CFF8040001000A48FFF79FFA66
S113416014B93378002BFCD00648FFF789FA0748C6
S1134170FFF762FF002008B070BDC04694510020D4
S1134180E4D40000F85000204D5D0020FFFF030040
S113419070B58AB0FCF704FAC5B2012D1BD16B4689
S11341A09C1D210002A801AEFCF71EFA23880221FF
S11341B03000029AFCF74DFC040068B96A464B23B0
S11341C0368803A876BA13731682FEF71DFC040022
S11341D028B1FDF78BFC042420000AB070BD034B0A
S11341E02800DE80FFF728FFF6E7C046E8500020ED
S11341F070B58AB0FCF7D4F9C0B201281FD16B4660
S11342009C1C210002A801AEFCF7EEF923880321CF
S11342103000029AFCF71DFC040088B973783578E5
S11342201B022D041D43B37803A81D434C23456092
S11342300370FEF7E9FB040028B1FDF757FC0424E2
S113424020000AB070BD034B02209D60FFF7F4FE0E
S1134250F6E7C046E850002010B5FFF7EDFE10BDAC
S113426037B50400082268461B4907F0C2FC002C3D
S11342702FD11A4D1A492800FFF750FE040068B9DF
S1134280AB695B691B88E3B1EA6899189B5A4F2BA9
S113429019D950221348043107F0ABFC0F48FFF73B
S11342A0EFF9204320B150220F490E48FDF792FE4A
S11342B0082269460B4807F08BFC30B90B4B187188
S11342C037BD2224EAE70324E8E707F005F806F0FF
S11342D0EFFFFCF7B3FCF3E74ACC0000F8500020F2
S11342E0E4D400009451002028D40000E8500020B9
S11342F037B5FCF755F9C4B294B1012C19D16B460A
S11343009D1C290001A8FCF76FF90022AB5E012B6C
S11343100FD121000198FCF723FCC4B2012C08D86A
S11343202000FFF79DFF04F0F7FE030010B1FDF736
S1134330DDFB042318003EBD1F22430910401E3A32
S1134340824002499B005A507047C04600E100E099
S113435010B52120FFF7F0FF1D20FFF7EDFF10BD82
S1134360F7B507000C000025C9B3354E01A8FDF7C9
S1134370FFFA3278531CDBB233700AB9FDF7FDFA49
S1134380019B83F31088092F36D8380007F0EEFD1F
S1134390050A292D31393F4347512278294B1A7098
S11343A001250FE016250422210001A807F021FCB5
S11343B0019A254B196891423FD0013DADB20833B3
S11343C0002DF7D101A8FDF7D3FA3378013BDBB216
S11343D033700BB9FFF7BCFF019B83F310882800EF
S11343E0FEBD2278174B1A72DAE72278154B5A72FF
S11343F0D6E723782F2B01D90025E3E7114AD3729E
S1134400CEE723782F2BF7D80E4A1373C8E7227808
S11344100C4B5A73C4E722780A4B9A72C0E7094DD1
S11344202378AF7BAB7304F071F90028B8D1AF7374
S1134430E2E72278034BDA73B2E7024B5A60AFE744
S1134440385D0020A45B0020C0D60000F7B507004B
S11344500C00002679B3254D01A8FDF789FA2A78C6
S1134460531CDBB22B700AB9FDF787FA019B83F367
S113447010880026092F11D8380007F077FD0509A8
S11344801E2124272A2D3033194B1B78237004E076
S113449004222000174907F0ACFB012601A8FDF710
S11344A067FA2B78013BDBB22B700BB9FFF750FF97
S11344B0019B83F310883000FEBD0D4B1B7AE5E7AA
S11344C00B4B5B7AE2E70A4BDB7ADFE7084B1B7B9B
S11344D0DCE7074B5B7BD9E7054B9B7AD6E7044BBC
S11344E09B7BD3E7024BDB7BD0E7C046385D0020E3
S11344F0A45B0020A85B002073B5184D060001A83A
S11345000C00FDF735FA2A78531CDBB22B700AB97C
S1134510FDF733FA019B83F31088114B042E14D05A
S1134520052E18D0083307CC07C306CC06C301A850
S1134530FDF71EFA2B78013BDBB22B700BB9FFF7AA
S113454007FF019B83F3108873BD1C3307CC07C39B
S113455007CC07C3EBE722685A60E8E7385D002020
S1134560085B002073B51C4D060001A80C00FDF784
S1134570FFF92A78531CDBB22B700AB9FDF7FDF959
S1134580019B83F31088154B042E1AD0052E1FD0DF
S1134590032E0FD01B78237001A8FDF7E9F92B78BF
S11345A0013BDBB22B700BB9FFF7D2FE019B83F307
S11345B0108873BD2200083343CB43C203CB03C22C
S11345C0EAE722001C3343CB43C213CB13C2E3E715
S11345D05B682360E0E7C046385D0020085B00208C
S11345E0F0B5324D85B0070003A80191FDF7C0F97D
S11345F02A78531CDBB22B700AB9FDF7BEF9039B72
S113460083F3108840F28823294CE65C783BE35C12
S1134610DEB913B140F24923E7543800FDF75EF9DF
S1134620244B254A1B6863B940F289222023A15CEC
S11346300B43A35401F006FB01F072F801F0AAFB4E
S113464022E0934216D01B69EDE71BB140F24923E7
S1134650019AE2540198FDF741F940F28C23E358A2
S1134660E0331B78022B0FD040F289222023A15C77
S11346700B43A35440F28C23E358E0331B781BB95B
S1134680002ED9D101F066FBFDF72AF803A8FDF747
S11346906FF92B78013BDBB22B700BB9FFF758FE97
S11346A0039B83F3108805B0F0BDC046385D00203D
S11346B0D0530020345D00206C550020F0B5214C0F
S11346C087B0019005A81F0003920291FDF750F9ED
S11346D02278531CDBB223700AB9FDF74EF9059B0F
S11346E083F31088184D00212B00A4330020185E9A
S11346F004F02AFB0026019B985D04F041F9013681
S1134700029AB3B29A42F6D8039EF719BE4214D164
S1134710A4350023E85E012104F016FB05A8FDF78B
S113472027F92378013BDBB223700BB9FFF710FEA6
S1134730059B83F3108807B0F0BD307804F020F9AE
S11347400136E3E7385D0020DC5B0020C02307B5B9
S113475001A8038000231A000221FFF7AFFFFCF732
S113476023FE07BD10B50A4B1A78082A0DD840F26B
S113477041130124D340234207D0FFF7E7FF054B41
S113478021000020185E04F0DFFAFCF70DFE10BDD6
S113479007400020B45B002037B56B460C001500C1
S11347A0D871FFF7DFFF68462B0022000121073094
S11347B0FFF784FF6B46DB79842B01D0FCF7F4FD13
S11347C037BD000007B5104B01A9984206D90F4B1D
S11347D00B8002229820FFF7DFFF07BD0C4B9842A5
S11347E001D90C4BF4E70C4B984201D90B4BEFE782
S11347F00B4B984201D90B4BEAE70B4B9842E8D993
S113480046F66B73E4E7C04600E9A435E1E9FFFF2F
S113481080F8A932D7DBFFFF8044E52DC1C5FFFF37
S1134820000B6B1B7581FFFF40FC541937B5104B0F
S1134830104D18602B7804001BB9FFF7C3FF012348
S11348402B7043F60951B4FBF1F20B0041F684607E
S11348505343E31A9B031B18B3FBF1F392039B1816
S11348601BBA0422862001A90193FFF795FF37BDE7
S1134870D85C0020DC5C002013B5064B04005B7B95
S113488023B1019001A90520FFF736FE2000FFF7B0
S1134890CDFF13BDA45B002007B56B46D91D044BA7
S11348A00870187001228A20FFF776FF07BDC04602
S11348B0DD5C002013B50B4B1B788BB96B460122D2
S11348C0094CD91D80200A70FFF766FF40F61110CD
S11348D0E17A00F064F840F61210217B00F05FF8F2
S11348E013BDC046C85B0020A45B002007B50C4B79
S11348F00422972001A90193FFF74EFF00236A4683
S11349000720938001A90222FFF746FF7F236A460E
S11349108920137101A90122FFF73EFF07BDC0469C
S1134920020002800D2373B50D00160001AC237044
S1134930030A6370A070FFF715FF33002A000321F8
S11349402000FFF7BBFEFCF72FFD73BD07B5064B38
S113495001A91B7840BA088023B9022240F2BC6046
S1134960FFF7E0FF07BDC046DD5C002007B5064B3E
S113497001A91B7840BA088023B9022240F2BE6024
S1134980FFF7D0FF07BDC046DD5C002007B56B46CE
S1134990D971073301221900FFF7C4FF07BD10B511
S11349A0FFF7F4FF10BD000010B504000B4B1870A6
S11349B0587000F015F854B1342140F24070FFF7FC
S11349C0E5FF442140F24170FFF7E0FF10BD1421E0
S11349D040F24070FFF7DAFF2421F3E7095D00207D
S11349E0012010B5FFF758FF044B18785A7882421B
S11349F002D05870FFF7D8FF10BDC046095D0020F3
S1134A0010B5012806D00020FFF746FF0022034B13
S1134A105A7010BDFFF7E4FFFBE7C046095D0020B4
S1134A20F0B5254D87B0019005A81F0003920291AF
S1134A30FCF79EFF2A78531CDBB22B700AB9FCF7F3
S1134A409CFF059B83F310881C4E00213300A43384
S1134A500020185E04F078F90024019B185D03F02F
S1134A608FFF0134029AA3B29A42F6D8002003F0D1
S1134A7087FF039CC3B20193E719BC4215D1A43646
S1134A800023F05E012104F05FF905A8FCF770FF34
S1134A902B78013BDBB22B700BB9FFF759FC059B5C
S1134AA083F31088019807B0F0BD002003F068FF7D
S1134AB020700134E1E7C046385D0020DC5B002053
S1134AC073B56B4615000C00DE1DD871FFF74AFE66
S1134AD02B00220001213000FFF7A2FF0400FCF7A5
S1134AE063FC200076BD000013B501AC0122210057
S1134AF01520FFF7E5FF064B22781B7852085BB2BE
S1134B009B1A181C803301DA4FF6807000B216BD70
S1134B10A45B00201D2373B50D00160001AC2370A7
S1134B20030A6370A070FFF71DFE33002A000321FF
S1134B302000FFF775FFFCF737FC73BD13B56B4618
S1134B40DC1D01222100FFF7E5FF207816BD0000DF
S1134B5037B52A4B04001B780D00012B2CD10F28EC
S1134B600CD1274B0422952001A90193FFF714FED1
S1134B70231C5AB20E2A10DD0E230EE0214B042210
S1134B80952001A90193FFF707FE231C1134F0DAE5
S1134B904DF25E03C0F200031B7818215CB240F6AC
S1134BA0E700FFF7F3FE6B4602225D718E201C7155
S1134BB001A9FFF7F1FD37BD40F6D800FFF7BEFFAE
S1134BC01E210143C9B240F6D800FFF7DFFE0E4BA9
S1134BD00422952001A90193FFF7DEFD231C09346B
S1134BE007DA4DF25F03C0F200031B7838215CB290
S1134BF0D5E75AB2162AF9DD1623F7E70540002057
S1134C00060001010400010104070001F7B5214D6C
S1134C1001A8FCF7ADFE2A78531CDBB22B700AB94D
S1134C20FCF7ABFE019B83F310881B4B1E681B4BE8
S1134C309A88998897B28A42FAD101A8DC7AFCF75B
S1134C4097FE2B78E4B2013BDBB22B700BB9FFF774
S1134C507FFB019B83F3108847F6FE739F4202D8C3
S1134C60E40700D5103645F65E737B430193019B40
S1134C700B4A3000B3FBF2F30193019C40F2E8329B
S1134C800023002107F0EAF922000023801859418B
S1134C9003B0F0BD385D0020F851002000380A4010
S1134CA0A086010010B50400FFF7B0FF40F2E8321F
S1134CB0002307F0B3F92060A280200010BD00009B
S1134CC010B5FFF7A3FF154B40F2E83218605960A6
S1134CD00023040007F0A2F940F2E831104B1A68EF
S1134CE09B88121848431B19181A83B2013900B261
S1134CF0884203DD0B4901325B1818B20A4B1900D4
S1134D00FC310A6440F2401298522023074A117879
S1134D100B431370FBF7FCFD10BDC0467856002012
S1134D20C053002018FCFFFFD0530020C8530020BC
S1134D30F8B5150007000E001C00FFF767FF084BCD
S1134D40186059609F609E81DD811C7411230549A0
S1134D500A789A4313430B70FBF7DAFDF8BDC0469B
S1134D60A8530020C853002010B5FFF74FFF0B00D5
S1134D700A4902008868C968994202D809D1904258
S1134D8007D9121A8B4101204042C117801859419A
S1134D9010BD121A8B4110001900F9E7105D0020B4
S1134DA0F0B5644E87B00191B388B1889AB28B4252
S1134DB0FAD145F65E7353430593059B5E4A5F4CF7
S1134DC0B3FBF2F30593059B277802283ED09AB2F1
S1134DD003920292032860D000231D00012F21D1E9
S1134DE02375FFF713FF019B029A236143F6806347
S1134DF09B1A019A9BB2A060E160A3830AB90023C5
S1134E000FE043F67F62019991421CD80A008B425D
S1134E1019D90423039923708C466B4662449B88FA
S1134E20226101252269002A50D1B37904329343C7
S1134E30B37107232370237D002B00D16FE001237E
S1134E402375237068E002232370D8E7022F0BD167
S1134E50A28B23699B1A01252361394B22699A424B
S1134E600ED9002323610BE0032F03D12369354AB4
S1134E709B18F0E7043F0025022FEED82561013589
S1134E8043F67F622369934203D804229BB22270C3
S1134E90C8E7032323700023C4E7052F11D1236936
S1134EA0039A93420AD9029A01259B1A40F2D072BE
S1134EB09BB29342B6D804222270B3E70023236145
S1134EC09DE7062FFAD000231D00ABE721780429C3
S1134ED01FD1B2798A43B27140F2D072934204D99D
S1134EE00523237001235B420CE0062121709342C9
S1134EF0F8D06422DB03B3FBF2F35A3A0533B3FB75
S1134F00F2F39BB273801B23F372B279173B134302
S1134F10B3712378072B8ED0280007B0F0BDA369A6
S1134F2003B198471020FCF765FD2378072BF3D1D4
S1134F3085E7C04600380A40A0860100105D0020C5
S1134F400000FFFF80C1FFFF002210B5044B04687E
S1134F501A70FBF727FD21000120FFF721FF10BD88
S1134F60305D0020F0B587B0040005A8FCF700FD13
S1134F703F490A78531CDBB20B700AB9FCF7FDFCFD
S1134F80059B83F310883B4E37683D00002D3AD1D2
S1134F90636825722360FFB13B7A002B37D0FFF79B
S1134FA0E3FE2B003A6800920193A94203D18242A6
S1134FB001D90090019500980199121A8B41009231
S1134FC00193019B256813B9009BAB4223D9009B35
S1134FD05D1B00233D603B72012320002761237287
S1134FE03460FFF7B1FF05A8FCF7C2FC204A137830
S1134FF0013BDBB213700BB9FFF7AAF9059B83F3EE
S1135000108807B0F0BDAC42EDD02D69BEE73B6817
S113501001950093D5E73E692EB9009BED1A2560F2
S11350203C612661DFE73268019B00980199121800
S11350304B410BB9954208D2009B009AEB1A2360AE
S113504033689B185B1B3360EAE7316921B9AD1AF9
S1135050256034612161C6E70868370002900020AA
S113506003900E000298039900920193DFE7C04673
S1135070385D0020345D002070B5124C236843B1C4
S1135080002201251A601A720023206858B903B15E
S1135090206070BDC1682B00026911B1226088478D
S11350A0F2E71000F2E70268002AF3D03BB9037A72
S11350B0002BEED101230372FFF746FFE9E72060DE
S11350C0F5E7C046345D0020F7B52E4D040001A875
S11350D0FCF74EFC2A78531CDBB22B700AB9FCF7A0
S11350E04CFC019B83F31088274E33686BB901A8ED
S11350F0FCF73EFC2B78013BDBB22B700BB9FFF7BE
S113510027F9019B83F31088F7BDA3422DD1237A9D
S11351100BB3FFF729FE8C4600212768217224690E
S1135120ACB13A0034600B003E000F00614502D17F
S1135130824200D90600921BBB4111002368200063
S11351405B18236001232372FFF7FEFECFE7346070
S1135150FBF728FCCBE723692BB1216833601A687D
S113516052181A60C3E73360C1E71A001B69002BA9
S1135170BDD09C42F9D1236921681361002BEED183
S1135180B5E7C046385D0020345D00200122F0B54B
S11351902E4BA5B0079003915B7B0192002B00D1AD
S11351A06AE114AB9C1D21000220FFF7DBF9237890
S11351B0019323B103230193019825B0F0BD182274
S11351C001991EAC18A806F059FA21000420FFF733
S11351D0C9F9052016A9FFF7C5F90023E75E209B4E
S11351E008931F9B0993219B0A9317B3012F29D17D
S11351F039000898FBF788FA0590154CFBB203991F
S1135200F8B20E93FBF7CEFF23000B9048331B78C4
S1135210104E1093169B0C9318AB04930023029327
S11352206B461B7A0693069A109B934214D8652307
S1135230C1E742F21071099B5A000A9B5B189B1844
S11352400593DAE701235B42FAE7C046A45B00203A
S1135250085B0020A45A00203379002B00D1DDE143
S1135260069A05990C98FBF76BFA049B12901B881D
S113527009980F93012F03D100210898FBF744FAF2
S11352803568D44A2B002A331B78D249DB009A5C58
S11352905B18119200221393119BD1B2994200D250
S11352A077E104226B690B998B429B410F995B4216
S11352B01B0119430B00129919430A43049B95B22D
S11352C01D80002D00D0A9E1236C002B00D17BE1CF
S11352D0A31DDB8FC04ADB00D3581B8D049373B32B
S11352E0FFF794FCA66BE76B236C1A009C462B001B
S11352F092197B4102260027B6185F418F4200D9DC
S11353005FE102D1864200D95BE102267642F717BB
S1135310B61A9F4136184F41A31DDB8FAE4ADB00FE
S1135320D3586046198DFBF729FA01230FB9B0420F
S113533000D800235B019BB20493236C8BB3A31DA1
S1135340DB8FA54ADB00D3581B8B53B3FFF75EFCFE
S1135350A26BE36B0F0000210600206C80185941FA
S11353600222002312184B41BB4200D92EE102D184
S1135370B24200D92AE102225242D317121A8B41B7
S113538092197B4110001900A31DDB8F924ADB00A8
S1135390D3581A8B012309B9824200D800239B01F8
S11353A09DB2049B18AF2B431D00029B5B0004932A
S11353B0DD53CDBB029BDE00874B9A5940F2E733A5
S11353C0D2699A4230D917A90120FFF73FF814AAED
S11353D0D11D2800FFF73AF87F4B01209959243159
S11353E0FEF7BEFF7C4B711DC9182800FEF7B8FFFD
S11353F040F2E831784B0E989A59D369B3FBF1F334
S11354002021525E9BB20C9900F002FD060017A900
S11354100120FEF7A5FF14AB2800D91DFEF7A0FF5D
S113542016B98023049AD353029B18AA5B009B5A93
S1135430002B00D0E8E0FFF7E9FB0B9B069A2364FE
S1135440A31DDA87029B644AA063E163DB00D3589F
S11354501EA91B7C887889781A1C49B25BB28B42DE
S113546000DD021C00234734E35650B2834203D0CC
S113547002212270FFF76CFB079B002B00D19BE6F7
S113548040F20121554E080003F06CFA3278544B77
S1135490012A00D0CAE0C733039A1EAC1A7003F085
S11354A0F7F90E232380FFF75DF902212000039B07
S11354B0079AFFF703F90025FBF776FF0422494B0F
S11354C049481A70FFF700FEFFF7F4F903222100A0
S11354D083202580A570FFF75FF9444C444B2000DE
S11354E01F68FFF7F1FD200027606760FFF73AFDB2
S11354F00422404B404C37781E682368134234D052
S11355003E48FCF7B3FA2A0003213800FCF7EAFC12
S11355103B48FCF7ABFA2A000321207EFCF7E2FCAF
S11355203748FCF7A3FA2A000A21E069FCF7DAFC01
S11355303348FCF79BFA2A000A21206AFCF7D2FCC4
S11355402F48FCF793FA2A000A213000FCF7CAFC22
S11355502B48FCF78BFA1F20631D18562A000321E1
S1135560FCF7C0FC2748FCF781FA2368DA0709D561
S1135570079A0399226322003432117022002C32DC
S1135580A66217705B0602D5042338342370002307
S113559011E6139B59680D910C210D9B51439C46B8
S11355A08C44595EB94208D1634659680A9B8B42C0
S11355B003D163469968814201D001326CE600222E
S11355C070E600260027A7E60495B6E60020002131
S11355D0DAE6C04600D60000A45A0020DD5C0020B4
S11355E0DC5B002007400020E05C0020F45C00202D
S11355F0585B0020D85C0020645B002053CC000082
S1135600F2CB0000E4CA00006022134201D06623FA
S1135610D1E51B0600D40AE66723CCE5029B0836D5
S113562001330293049B02330493F9E5C03333E757
S113563070B540F2E836114B0D005C7B56430323F2
S1135640CCB9FFF7F3F828000221FFF781FAFFF73E
S113565031F921002200D120FFF79EF80422084DE1
S1135660084B28001A70FFF72FFD28002E606E608B
S1135670FFF778FC2300180070BDC046A45B00202F
S1135680F45C0020074000201FB56B46D871134816
S1135690FFF71AFD1248FFF717FD6B460122D91DCB
S11356A08020FFF779F86B46DA790E4B9AB901320C
S11356B069461A70202393200B7303A9FFF76CF833
S11356C001236A465B429381022203A91000FFF77B
S11356D063F805B000BD02221A70F1E7F45C002003
S11356E0E05C002007400020002010B5FFF7CCFF4D
S11356F0034B1B6813B15B6803B1984710BDC046E8
S11357000C5D0020002010B5FFF7BEFF034B1B68A3
S113571013B1DB6803B1984710BDC0460C5D00208F
S113572010B50A4B0A4C987AFFF7AEFF23685B0664
S11357300AD5383423783BB10648FCF797F9064874
S1135740FCF794F90023237010BDC046A45B00202D
S1135750645B002058CC0000E4CA0000F0B591B0AE
S1135760079317AB1B881700019318AB1B880AAA71
S1135770029319AB1B78039104931AAB1B780400B2
S113578005931BAB1B78069331239B18DB7F09938E
S113579035239B18DE7F9A4B5B7BB3B10AAB0021A8
S11357A0981D122205F06AFF039B0BAD2C800C930D
S11357B0079B0D972B73019B2900EB81049B03200E
S11357C02B74069B6B74FEF797FE8E4B1E70734210
S11357D05E41029B764233400293049B0BB9FF3334
S11357E00593894B059A1A7074B1012C00D16BE0B2
S11357F0864B1A68920704D0039A9F601A71029A22
S11358009A81002011B0F0BD814D0AAB991C012290
S11358109F200C70FEF7C0FF2B00E8331C702B0098
S1135820EC331F602B000B22F43303981A70FAF741
S1135830F1FE2B00F53318702B00B8331C70019B5C
S11358400499DA002B00BA331A802B0041F60402C3
S1135850BC331A802B00BE332A001C700123BF32D4
S1135860594011702A000599C0321170069A02B18C
S1135870F1332A00C13213702B000122C233E83500
S11358801A70FFF74DFF2878431E9841C0B2FFF706
S1135890B7F802F0ABFF02F0FBFF5E4908222431A7
S11358A00BA806F0A6F9082240F2C0600BA9FFF786
S11358B039F802F083FF41F64073029A5343B3FB75
S11358C0F7F3554A136093E70AABD91C0023504DF4
S11358D022009F200B70FEF75FFF2B00E8331C7043
S11358E02B00FEB2F833039A1E704C4B39009B5CBC
S11358F01000053E0893FAF7D3FE012E07D86B4635
S1135900019A9B880C2A00D20C239BB201932B0092
S1135910089AF9331A702B00079AFA331A702B007D
S1135920FB3318702B000122B8331A702B00019A34
S1135930C4331A802B00049AC6331A702B00059ABC
S1135940C7331A702B00069AC8331A702B00099AB1
S1135950C9331A70FFF7E4FE2B00E8331878431EAE
S11359609841C0B2FFF74CF802F040FF02F090FFFC
S11359706B461B7A01936B46019A1B79F82A04D96A
S11359804DF26003C0F200031B780133DBB25B10FD
S1135990DEB21F2B2DDD0336B6083200630001335F
S11359A09A400BA90A70A0200122FEF7F5FE019B84
S11359B033B1F600A11940F20670C9B2FEF7E6FF52
S11359C0C9352B78042440F23670012B13D1FFF72C
S11359D0B5F8A043C1B240F23670FEF7D7FF029A81
S11359E0534253410E4A5B4213404FF6FF729B18D9
S11359F067E70024D1E7FFF7A1F80443E1B2EAE73F
S1135A00A45B0020605B002006400020645B002053
S1135A10DC5B002078D700005C5B002058D60000D7
S1135A200100FFFFF0B58FB0019314AB80CB02915E
S1135A301B780592069316AB1E8817AB1B780500DE
S1135A40039318AB1B7804931BAB1B780793754B1C
S1135A505B7BF3B108AB15220021D81C05F00EFEC8
S1135A60029A08AB9A701D80059B069A0993019BC4
S1135A700B970A9308AB1A74039A19001A75049ABF
S1135A805E825A750420FEF737FD674B029A47334E
S1135A901A704DB1012D57D040F68900FFF74EF82A
S1135AA004210143C9B2A1E0604C0B222300E83376
S1135AB01D702300EC331F6023000198F4331A7027
S1135AC0FAF7A8FD2300F53318702300059AF03384
S1135AD01A602300B8331D702300F600BA331E8009
S1135AE0230041F60402BC331A802300BE33220093
S1135AF01D7001230399BF3259401170049A02B1F9
S1135B00F1332200C132137023000122C233E8347E
S1135B101A70FFF705FE2078431E9841C0B2FEF7C5
S1135B206FFF02F063FE02F0B3FE41490822243104
S1135B3008A806F05EF8082240F2C06008A9FEF743
S1135B40F1FE02F03BFEA7E7384C019A2300E8334C
S1135B501D702300FDB2F8331D70364B39009B5C79
S1135B601000053D0593FAF79BFD012D04D8331C65
S1135B700C2E00D20C239EB22500059BF9352B7008
S1135B802300069AFA331A702300FB33187023009B
S1135B900122B8331A702300C4331E802300039AF1
S1135BA0C6331A702300244AC73312781A702300AC
S1135BB0049AC8331A702300079AC933E8341A7058
S1135BC0FFF7AEFD2078431E9841C0B2FEF718FFE0
S1135BD002F00CFE02F05CFE2B78062B00D05BE793
S1135BE040F68900FEF7AAFFFB21014040F6890038
S1135BF0FEF7CCFE02210298FEF7AAFF0F4B1C9A77
S1135C001A6005220E4B1968114207D0019ADF6110
S1135C101A761C9A1A62029A0533DA7700200FB0BA
S1135C20F0BDC046A45B0020085B0020DC5B0020C4
S1135C3078D7000058D6000006400020585B0020AA
S1135C40645B002073B51C4E3578082D29D10022E1
S1135C501A4B01245A701A706B462200D91D9D20DC
S1135C600C70FEF799FD164B1B78A34201D1FEF789
S1135C703DFE6B460122991D96200C70FEF78CFDAB
S1135C803470104C23685B060AD5082D0FD10E48DA
S1135C90FBF7ECFE0D48FBF7E9FE012338342370D3
S1135CA073BD002DEDD12800FFF7EEFCE9E7002DD0
S1135CB0F6D10748ECE7C04607400020095D002004
S1135CC0C85B0020645B002067CC0000E4CA0000CD
S1135CD07FCC0000002213B51100041CC020FEF785
S1135CE0EFFE60231840202802D00020FFF7CCFCF0
S1135CF0134B00210020185E03F026F86B46A20720
S1135D00D91D6307DB0FD20F52009B001343E20738
S1135D10D20F1343842001220B70FEF73DFD0421B2
S1135D200B00084A2340214202D00023137013BD04
S1135D3008211170044A1370044A1360044AF5E7F9
S1135D40B45B002007400020DC5C0020D85C00200D
S1135D50DD5C002010B504200B4CFFF7BBFF40F2C4
S1135D60E8310220FDF70EFE23685B060BD53834BC
S1135D702378022B07D00548FBF778FE0448FBF78D
S1135D8075FE0223237010BD645B002097CC0000D5
S1135D90E4CA000010B500200B4CFFF79BFF40F253
S1135DA0E8310220FDF7EEFD23685B060BD538349D
S1135DB02378032B07D00548FBF758FE0448FBF76C
S1135DC055FE0323237010BD645B0020A8CC0000A3
S1135DD0E4CA0000052213B504000B4B0B481A70EB
S1135DE0FFF772F9942140F6AC00FEF7CFFDFEF701
S1135DF061FD01A9230C0B700322230A82204B703E
S1135E008C70FEF7C9FC13BD07400020F45C002031
