S01200004C6F526153616D706C652E7372656342
S1130000884C0020D9B4000075100000AD830000B6
S1130010AD830000AD830000AD830000AD8300001C
S1130020000000000000000000000000AD8300009C
S1130030AD83000000000000AD830000390900001A
S11300400000000000000000350E00000000000069
S113005000000000350E0000000000000000000059
S1130060000000000000000000000000D176000045
S1130070000000000000000000000000000000007C
S11300800000000000000000ED0C00000000000073
S1130090A50D00000000000000000000E53900008C
S11300A0000000000000000000000000550D0000EA
S11300B000000000750C00000000000000000000BB
S10B00C000000000B57500000A
S11300C810B5094C1022002120000BF0B7FC074B97
S11300D81B7813B91333E3722373054B1B780BB9DD
S11300E80233A37310BDC046D45A0020F85A002026
S11300F8D05A002030B585B00400092240F29F2070
S113010801A904F0E9FD6B461D79002301A8AB425F
S113011814D1032B10D869465A1C0A716A465B002D
S1130128210A0532D1546A460632D45440F29F203B
S1130138092201A904F0D8FC05B030BD01004278B9
S113014889781202521802309442F5D00133DBB296
S1130158DDE7F7B500255F4B5F4C18605F4B40F255
S1130168E8310A205D701D7003F0EEFC0023E05EA8
S1130178290008F025FF40F2E831142003F0E4FCDC
S11301880023E05E012108F01BFF40F2E8310A2059
S113019803F0DAFC524C534B0122A36040F20533BE
S11301A8A380514B02210520E560DA70220000F09B
S11301B869FF04204D4B2360205607F029FA04F008
S11301C8A7FB280005F042FB494B1B78012B01D102
S11301D804F06EFC474B01210020185E012508F04D
S11301E8EFFE6B460024D91C2A009D200D7004F0F4
S11301F8B5FB414B20001D70404B414F1C70414BD7
S1130208414E1C70414B1C6005F020FB6B462A00D4
S1130218991C96200D7004F0A1FB6B4602229C8069
S11302288F2001A904F09AFB2000042104F072FD38
S11302384FF6FF71080008F0D1FC40F6AC00FFF758
S113024859FF40F68900FFF755FFFFF739FF3800DB
S113025805F01CF8300005F019F82D4B0222FB605C
S11302682C4B01A9F3602C4B17201C706B469C8007
S11302783C607C603C723C6134607460347234610C
S113028804F000FD6B465A790334511013002940D9
S1130298A9402B400B439110294089000B43D110EE
S11302A82940C9000B431111294009010B4351117D
S11302B82940921149012A4092010B4313436A468B
S11302C812792A401202134303B91C0008F046FBB2
S11302D82000FEBD3C5C00200C5B0020395C002043
S11302E8FC5A0020691B0000006000405543490087
S11302F8F85A0020E45A00200F4000200D5C00202A
S1130308245C00200C5C0020105C0020085C0020A9
S10F0318B5580000D1580000385C0020EB
S1070400FFFFFFFFF8
S1070404F7AFC1FF8A
S1130440382007003C930300010000000101FF0174
S1130450884D002000100100818280018485830280
S1130460878886038A8B890408078D0000000000B2
S113047003000000646000203C40002000000000F5
S113048064600020CC600020346100200000000083
S11304900000000000000000000000000000000058
S11304A00000000000000000000000000000000048
S11304B00000000000000000000000000000000038
S10B04C0000000000000000030
S11304C844F2880044F28803C2F20000C2F2000336
S11304D810B5834205D040F20003C0F2000303B113
S11304E8984710BD44F2880044F28803C2F2000021
S11304F8C2F200031B1A9A10D90F8918491010B5B3
S113050829B140F20003C0F2000303B1984710BDBB
S113051810B544F6A044C2F20004237873B9FFF777
S1130528CFFF40F20003C0F200032BB140F20840B1
S1130538C0F2000000E000BF0123237010BDC046D4
S113054840F20003C0F2000310B54BB144F6A441D5
S113055840F20840C2F20001C0F2000000E000BF0F
S1130568FFF7C0FF10BDC0460122014B1A70704747
S11305787D5C00200122014B1A7070477C5C0020CE
S1130588064B82B21B68012A03D80022D8701A804D
S1130598704740F200421A80FAE7C0461040002033
S11305A80020044B1B6803B9704701301B6800B274
S11305B8F9E7C046844D002010B570B1094A0A23F2
S11305C8D45E002311689C4207DD814206D111895B
S11305D80131118100215268D15410BD01331BB27D
S11305E80C31F0E76C5C0020002210B50260013A7F
S11305F80A80074A0300106840B10468146042681E
S11306081A600822835E0B80FFF7D6FF10BDC04630
S1130618844D002002001F205AB1012308490868AC
S1130628824207D98868824204D8054ADB009B18AD
S11306381879704701330831172BF0D11F20F8E7D8
S1130648ACDA0000034B00201B78082B01D8024ABF
S1130658D05C70470F400020A0DA000070B50D4B45
S113066801005B7B01203BB10B4B0C4A48331D78DE
S11306780023AB4201D1002070BD107930B1146859
S11306886668B14202D3A468A142F5D90133DBB24A
S11306980832EEE7D45A0020385A0020045A0020C1
S11306A8154B00B5185C0A2823D80BF03FFE1E161C
S11306B81612060D22221A161200002001230B39E5
S11306C88B424041C0B203E00C394B425941C8B295
S11306D800BD002002230A39F2E700200323093968
S11306E8EEE7002004230839EAE700200523073948
S11306F8E6E70020ECE7C04644DA0000014B18881E
S11307087047C046005A00204A425141094A4942AA
S1130718114042F2107289180300C8430A2B07D803
S1130728054AD35C054A9B009B58C81803B9C843BB
S11307387047C046F0D8FFFF44DA0000C0D9000073
S113074803000D48D200125830B5546802209C4268
S113075811D895689D420ED3D2681B1BB3FBF2F4E3
S113076854431D1BA34206D12800012A03D08A4200
S113077892415242500030BD045A00200300002028
S113078882B00190D1B142F20F7291420CD840F27A
S1130798E73291420AD9013242F210700192019A69
S11307A8401AB0FBF2F0584302B070476422632940
S11307B8F2D80A220929EFD80122EDE70121FBE743
S11307C8F0B5059C1D00002849D1294B29481B7800
S11307D8C35C1E1C5BB28B4200DD0E1C264F70B23C
S11307E8BC466670254E830099590127614504D09B
S11307F8234FC9194F4279414F00A021A7700728F8
S113080806D02049F3580F5C1F49B940B1FBF3F1F6
S113081840F2E836131F4B4375435B195B001BB169
S11308284D1EEB18B3FBF1F39A4200D21A008B0069
S113083851430025A26009B101314D0840F2E83165
S11308485B1B01D5114D5B1993FBF1F3E36007289A
S113085805D03F2A04D8531CFE221340A360F0BDE0
S1130868F8210B00F72AF9D8073213000B40F5E7F3
S11308787056002080D9000090D0030058D9000099
S1130888E05EF8FF78D9000040420F0019FCFFFF32
S11308980423024A11780B431370704794530020C1
S11308A80123024A11780B431370704794530020B4
S11308B840F28823044AD35C23B10223034A117803
S11308C80B4313707047C046C05300209453002054
S11308D8044B10B5FC331B6D13B1DB6803B19847A7
S11308E810BDC046C0530020082310B5034A117830
S11308F80B431370FFF7ECFF10BDC046B85300203C
S1130908042310B5034A11780B431370FFF7E0FF73
S113091810BDC046B8530020022310B5034A11780D
S11309280B431370FFF7D4FF10BDC046B853002023
S1130938704700000379012B01D1014A13707047F5
S1130948EC510020002382B00193054BDB88C01AC8
S11309581E2380B243430193019880B202B07047CA
S1130968FE260A4010B5042401210748074B827962
S11309781975A243827100220020197000211A619E
S11309889860D9609A8310BD00380A40405C002002
S11309980200811C002010B51378000184B21800ED
S11309A83038C0B2092805D918006138052806D896
S11309B8573BD8B2013220439142EDD110BD180003
S11309C84138052801D8373BF3E74FF6FF70F5E7C0
S11309D8F0B500230500CC5CA4462609340067461C
S11309E830349F2F00D907340F262C70CC5C344048
S11309F826003036092C01D93734260001339CB23D
S1130A086E7002359442E6D30023520092B28354A6
S1130A18F0BDF0B587B003900191029213B9042098
S1130A2807B0F0BD019A54009C42F8DB00252E0063
S1130A38E41A24B205AFD4B9029A6B1C525D1DB2F4
S1130A483A700024029B6A1C5B5715B238007B700D
S1130A58FFF79EFF4FF6FF739842E0D0039B98552B
S1130A680136019B36B2B342E5DC0020D8E73023D7
S1130A78A4B23B70012CE4D0023C302324B2E5E755
S1130A880420704713B5FFF78BFDC0B2012801D0CD
S1130A98042016BD6B469C1C210001A8FFF7A4FD89
S1130AA80023E25E012AF3D1019B1B785BB2302B51
S1130AB805D10022044B3F3300201A70E9E7312B9B
S1130AC8E6D1014B3F33F7E78451002004207047F7
S1130AD830B585B0FFF764FDC0B2042401281AD1EB
S1130AE86B469D1D290002A8FFF77EFD2B8803ADE8
S1130AF821002800029AFFF78CFF040058B96B788C
S1130B082A781B0412061A43AB781B021343EA78AB
S1130B181343024A1360200005B030BD945A0020E4
S1130B28030030B541180A2400208B4200D130BD9F
S1130B3800229A566043303AD5B20133092D01D8C0
S1130B481018F2E701204042F1E7000013B5FFF75F
S1130B5827FDC0B2012801D0042016BD6B469C1C99
S1130B68210001A8FFF740FD0023E15E0129F3D12C
S1130B780198FFF7D5FFC0B208B10128ECD1024BA8
S1130B883C3318700020E8E78451002013B5FFF7C0
S1130B9807FDC0B2012801D0042016BD6B469C1C79
S1130BA8210001A8FFF720FD0023E15E0329F3DCFF
S1130BB8002301981AB2914212DCC9B20029EBD081
S1130BC8FFF7AEFF431E9BB2DF2BE5D8C0B2431E2E
S1130BD8DBB2DF2B02D8054B3D3318700020DCE76D
S1130BE8C25C0133303A092AE4D9D5E7845100209C
S1130BF8704700207047704770470000502210B5B6
S1130C08034904480BF0D5F90322034B1A7110BDAC
S1130C1834D7000084510020D8500020024B1878A3
S1130C2843425841C0B27047D451002002001B23EC
S1130C38C0094042184052005040C0B270470A23CD
S1130C4870B58360036C0100013303640300083347
S1130C58DC6FC268A36820685D6840310823A84730
S1130C6870BDEFF30380103840B2704730B585B0DB
S1130C78FFF7F7FF124B8000C5586A68D3695978A3
S1130C88002304391C00022905D8137C0D495B0094
S1130C985B5A02349BB2E96879B12D6901A80471E1
S1130CA80195022C07D1127C064C90325200125B3B
S1130CB8120401329B188360884705B030BDC046D2
S1130CC8B04D002000260A401FB5436A4BB1846822
S1130CD82478029169460A71826A009468460392EC
S1130CE898471FBDF8B5FFF7BCFF174B8000C058E5
S1130CF8437CC6685B00F6183500FE356C8A836948
S1130D08A4B29BB18268D26882B90178426959B1A8
S1130D18178801315218013B3780426183610BB94E
S1130D2801339C436C82F8BD1778F2E700234361D2
S1130D3801331C42F5D16B8899B2002BF2D10222FF
S1130D48FFF7C2FFEEE7C046B04D002010B5FFF72D
S1130D5888FF114B8000C058437CC2680133DBB262
S1130D685B00995A036A89B223B90422C361FFF765
S1130D78ABFF10BD0278C36952B119800233016A0E
S1130D88C361013901620029F3D10122C161EEE78F
S1130D981970C3690133F2E7B04D002070B5FFF74D
S1130DA860FF114B8000C0580126437CC46801339E
S1130DB8DBB25B00E4182188FE34628889B2130030
S1130DC895B23340324207D102231D4209D1DB18C0
S1130DD810221D4201D170BD20226381FFF774FFE8
S1130DE8F9E70822F9E7C046B04D00204368826855
S1130DF81B785B009B5A02699BB20AB18169535400
S1130E0883690133836170470123C8B2834000209A
S1130E189BB20AB918001300034A090A4901891840
S1130E28088100204B81704700000A4007B5FFF78E
S1130E3818FF064B8000C3583BB19A682AB1597908
S1130E48DB68684601910093904707BDB04D0020C8
S1130E5840F21A23044A0020D35A812213405A1E0E
S1130E6893410B707047C04600C07E40062070470F
S1130E7806207047062070470620704706207047F2
S1130E880A0010B5034B11CB11C2034B11CB11C28D
S1130E98002010BD2CD6000024D600000620704780
S1130EA806207047062070470620704706207047C2
S1130EB8C36A0D4A10B59A180133C362036B816A79
S1130EC8013B0363094B4C1C84621800140CFE306C
S1130ED892B2448242811A000978FC325163812219
S1130EE8FF335A7510BDC0460000F0BD00C07E40F7
S1130EF84143032903D9890801390029FCD17047E2
S1130F08254A03001268254810B5254982420BD8A2
S1130F188A4209D02348824206D02348824203D019
S1130F2840F2F610DA6010BD2048214C1218B2FBCA
S1130F38F1F10800A24202D901200840081840F241
S1130F488352D86006204A43B2FBF0F21A6140F299
S1130F5876324A43B2FBF0F25A6158224A43B2FB52
S1130F68F0F29A61134A99604A43B2FBF0F2DA61EB
S1130F78114A4A43B2FBF0F21A62104A4A43B2FBDE
S1130F88F0F25A620E4B1A78012A03D001221A7021
S1130F98FFF7AEFF0020C6E7AC4D0020FF083D0078
S1130FA840420F0080841E00C0C62D003F420F003F
S1130FB83F8AF701B86A0500C0B0070068ED22004F
S1130FC890C07E4044F6003313B5A522019340F245
S1130FD88013F7210F4CE2500F4B9D3A5A70597009
S1130FE85A705B78934200D1C04681681020FFF79D
S1130FF87FFF40F21A22094BA352A35A98B203B9AD
S113100816BD019B1BB1019B013B0193F5E714201D
S1131018F6E7C04600C07E40FFC07E4000AAFFFF3E
S113102813B5104901900B6B5B0612D57F240E4B48
S11310385A7D22405A7500225A7501900B6B5B0643
S1131048D80F002B08DA019B2BB1019B013B0193BC
S1131058F4E7019B0BB9142016BD019B013B0193D6
S1131068E1E7C046FCC07E40FFC07E40044940F230
S113107840100A00FE32538C095A0B4053867047BD
S113108800600040F7B5FF27019283080A4A032647
S11310989B009B183A0040F200350640F60089018F
S11310A8B2403940B1405C59800094430C435C51D0
S11310B8019A024B1A50F7BD00E100E0B04D002040
S11310C81F22430910401E3A8240044920339B00E2
S11310D85A50BFF34F8FBFF36F8F704700E100E0A2
S11310E8002310B503604368112018560300213308
S11310F801D0FFF7E5FF002010BD000010B5034B39
S11311081B689B780BB10AF039FF10BD1040002012
S1131118F0B50A0085B020B1012839D0002005B007
S1131128F0BD4B490B00EC331C680B00BA3318882C
S11311380B00BF331B78C1315D1EAB410978C00871
S113114801391B18481E814149008918DB001833EE
S1131158C900591840F2E8334B43621E9B1841F604
S11311685732B3FBF4F3012094420FD840F6B73258
S1131178001894420AD840F2CF720130944205D83C
S113118840F2E7320430944200D90238C018C6E766
S11311982F4B00201900F931097801900A2902D847
S11311A82C48415C01911900F8310E781900C431BA
S11311B818000F881900FA331B78C6310433C83075
S11311C8097804780393731F012B04D83B1C0C2F54
S11311D800D20C239FB2631E9C41D2002401A418A0
S11311E84A4251411423B50049420B40641BE41898
S11311F8B31E0293062E07D9310001980834FFF76D
S11312084FFA08B1B31E9D00E343DB171C40641971
S1131218013C94FBF5F5039B6B43DA1913000E3379
S1131228062E00D9023B0C4A0199525C0A2A0ED8B0
S11312380A49920052589B00029901338B4040F2AC
S1131248E8305843531EC018B0FBF2F067E7FFDEDE
S11312580C5B00200CDA000044DA000018DA000005
S1131268F7B500921A000B32019203260269019D18
S1131278C468AD18B5434669B54214D8050050355D
S11312882980010048310B800300141B4A331C8059
S113129802238360009BC364686B836800685C688E
S11312A80423A047FEBD022242600266020088327F
S11312B8156886692A199446B7683268D719BC45EF
S11312C800D0624644663469AD18C2604561A142E3
S11312D805D8083202618AB202674267C5E7FFF798
S11312E8AEFCDFE710B5094B012806D1084AC7331D
S11312F81170197007F008FC10BD1A00BF3212787B
S1131308002AF9D1024AC0331170F2E70C5B0020BD
S11313180E40002010B5044B1420185E07F042FE5E
S11313280128F8D010BDC0460C5B002007B56B46F9
S1131338D87107330121180007F0FCFD07BD000030
S1131348030070B572B6BFF34F8FBFF36F8F007988
S1131358082809D888B3013807282ED80AF0E6FFE8
S1131368706E2D0D2D2D2D0B0300EF22103B134213
S113137801D0402821D1334B53E09C68324B1B7871
S11313885BB2D3B10623314AD356012B15D00223BD
S1131398D05E0023D15E0425525F431C93FBF2F513
S11313A86A439B1A1BB2E4B28B420CD1082C04D1B9
S11313B807F0B0FC2000FFF7A1FE62B6BFF34F8F21
S11313C8BFF36F8F70BD2300613B192B05D8203CF8
S11313D8E4B2200007F05AFC29E00A2C06D00D2CB0
S11313E818D0082C1FD0202CE7D0F2E7200007F0F3
S11313F84DFC2000164CFFF781FE2378002BDCD02F
S113140807F088FC07F086FC0122124B1A700023AF
S11314182370D2E7200007F039FC2000FFF76EFEA6
S11314280B4B012208E0884204D007F073FC20002B
S1131438FFF764FE0022064B1A70BEE7064BF0E77E
S1131448064BEEE720520020E4510020D85100203A
S1131458D5510020D4510020E5510020215200200C
S113146813B5FFF79DF8C0B201281CD16B469C1C2C
S1131478210001A8FFF7B8F821780423019899B14D
S1131488FFF74EFBC0B206280AD0163804230828F2
S11314980AD80AF04BFF0B0D0F1313131313110083
S11314A8002008F03BFA0023180016BD0B20F8E7CB
S11314B80C20F6E70D20F4E70A20F2E70423F3E70B
S11314C813B5FFF76DF8C0B2012801D0042016BD8A
S11314D86B469C1C210001A8FFF786F80022A35E36
S11314E8012BF3D1019A127852B2312AEED1064A6D
S11314F8917A9372012901D10020E8E7034A137114
S113150807F01EFFF8E7C04684510020D850002099
S1131518272310B588B001AC2000237007F07AFDAA
S11315280298052180B206F03FFF002008B010BDE4
S113153800B589B06A462D2301A8137107F06AFD26
S11315486B460221187A06F02FFF002009B000BD6F
S113155810B5044B03213D33187806F025FF00200D
S113156810BDC0468451002010B586B0FFF718F8A6
S1131578C0B20424012810D16B469C1C210001A888
S1131588FFF732F823881021019A02A8FFF741FADD
S1131598040010B902A807F0B9FC200006B010BD79
S11315A810B5044B186820B102681A60FFF704F8F4
S11315B8F7E710BD844D0020002307B520BB009039
S11315C80878212816D8C8B10138202816D80AF076
S11315D8ADFE171D151F151A1515151515152F38D8
S11315E81515151515153B15151553555759151575
S11315F815152100382847D039284AD000980EBD3F
S1131608CB78002BFAD002230093F7E78B78F8E71E
S11316180723F9E701238A78CB561AB92BB1013B82
S1131628DAB202E01A00022BF9D152B20092E5E7CD
S113163801238A78CB5612B9174AD35CE4E7174AD0
S1131648FBE7174B1B78DFE7164A174B11684B4328
S113165843F239015B181360144AB3FBF2F2D10761
S11316688A1A9B1A40F2D17293FBF2F14A439B1AED
S113167840F2E8329B18C7E70D4BC5E70D4BC3E7AB
S11316881023C1E70C4BBFE76A460C4B1B88138039
S1131698B4E70B4B1B68B7E7B8D90000B0D9000012
S11316A80C400020084000206D4EC641FFFFFF7F1C
S11316B8585700205A570020785600205C570020BD
S11316C86057002010B50400FEF7C8FF70B1084B3E
S11316D8084A1B78DB009958002210008C4205D375
S11316E804495B185B68A3425241D0B210BDC0469E
S11316F87056002030D90000030010B50020C3B98B
S1131708501F052840D80AF011FE031E253F3B3B15
S11317181E4A1F4C12788878A45600228A5648B963
S1131728002A04DBD00FE31794425841C0B20123C6
S1131738184010BD012A04DDD30FE11794424B4130
S1131748DBB20120F4E7002005220B789A424041DD
S1131758C0B2EEE7002248788A560C490D4C097845
S1131768615630B9002AE2DBC817D30F91425841B9
S1131778DCE7012AE5DDCB17D00F91424341DFE7CF
S1131788002007220B78E1E70020D2E770560020FA
S113179880D9000080D9000040F28C23054AD35830
S11317A8E0331B78022B00D0062340F288215354DF
S11317B87047C046C0530020094B1A78012318000B
S11317C81A420BD1074A1100FC31896C31B940F235
S11317D88A23D05C0138431E9841C0B27047C04682
S11317E8B8530020C05300201FB540F28C23084A88
S11317F802A9D3581A00FF32527F48708A700D220A
S113180818780A70FFF7D8FEC0B205B000BDC0460C
S1131818C0530020F0B585B0FEF714FF0138C0B2FC
S1131828012839D940F28C261C4C1D4FA559290092
S11318382A002B00FF31497EF03228781278EC33E5
S1131848009749B21B680397FEF7BAFF40F2F217F4
S11318580223E355B333FF33EA5C3F33E2540022F7
S1131868023BE25404F0D0FA04F03CF8A359E13303
S1131878187803F07BF9A3591D786DB9039806F01D
S1131888E3FF48B1280004F017FD40F28823E25D25
S1131898E25408B106F09AFD05B0F0BDC05300202B
S11318A8A0550020F8B540F28C2334490200CB58E7
S11318B81C00E034207818B102284FD00320F8BD6A
S11318C842B91A000D331532FF32FF3303CB03C27A
S11318D80020F4E70220012AF1D00130022AEED1D7
S11318E8227008000C00E130CD34FF30FF34E0CC26
S11318F8E0C060CC60C040F2F2100A541A00002024
S1131908503254782CB31478022C22D124221C008F
S113191842439A18106EFC34A06164321278FF3383
S11319285A7640F211228C5C313A8C540432885035
S11319389A7F40F2F013CA5403220233CA54002295
S1131948013BCA5440F210230022CA54FFF762FF35
S1131958BEE7013024320428D3D1F3E73AB9227020
S113196803F0C0FF04F0F8FAFFF716FFB0E7012A06
S1131978A5D00320022AA2D1AAE7C046C05300205A
S1131988002330B50360CD5CDC00A5400468013356
S11319982C430460DCB2A242F5D830BD0300002019
S11319A8112B03D80248D840012318407047C04679
S11319B82007020070B50C4CE268137D2BB11500AA
S11319C86368A46810359C4200D170BD1E788E42AD
S11319D805D0AB4201D11300F5E70433F3E7012244
S11319E858709A70F1E7C0468053002070B50B49CF
S11319F8CA684B68147D507564B114000125896860
S1131A081034DE78587006B99D70A34203D11300D0
S1131A189942F6D170BD0433FAE7C04680530020DA
S1131A280B4A30B553689168D2681400103499424F
S1131A3804D100235A1E9341D8B230BD1D78854283
S1131A48F8D0A34201D00433F1E71300EFE7C0460E
S1131A5880530020EFF31080012383F31088064B92
S1131A68196819B9054A1170403111701A680132A0
S1131A781A6080F3108870477052002040030A40AF
S1131A88EFF31083036072B6704710B52120FFF797
S1131A9817FB1D20FFF714FB10BD70B50D001400D3
S1131AA82800A1B207F046FA0028F9D1200070BD39
S1131AB8114BF7B518780D0091B2C14000270F4CAF
S1131AC80F4E01918020277080023770217859B118
S1131AD80199DD61196294B22800A1B207F02AFACB
S1131AE80028F9D12000FEBD31780029EAD1013857
S1131AF80028EBD1E6E7C046F4510020215200202B
S1131B0820520020054B012800D118601A68D2071A
S1131B1802D51A68104318607047C0466C520020FA
S1131B28044B10B51B68DB0702D50220FFF7EAFF58
S1131B3810BDC0466C52002010B572B6BFF34F8F6B
S1131B48BFF36F8FFFF7ECFF0122044B1A7062B6E4
S1131B58BFF34F8FBFF36F8F10BDC046385C0020B2
S1131B6810B5FFF7E9FF10BD034B01201B6810B542
S1131B7803B1984710BDC046F051002010B50400C9
S1131B880020205600B910BDFFF7D0FB0134F7E759
S1131B9810B50A4B1C68E37813B10948FFF7EEFF48
S1131BA81422A188074B4A431B689B181869FFF73E
S1131BB8E5FF0548FFF7E2FF10BDC04610400020CE
S1131BC8ACCE0000785C0020CBD0000010B50248F1
S1131BD8FFF7D4FF10BDC046ACCE000010B504001A
S1131BE8FFF7D6FF0448FFF7C9FF2000FFF7C6FF39
S1131BF8FFF7ECFF10BDC046AFCE000010B530B102
S1131C08152805D8034B8000C058FFF7E7FF10BD1F
S1131C180148FAE714D80000B1CE00001F4B73B591
S1131C281A003C333D3214781D78FEF7B9FCC6B26D
S1131C38012E2ED16B4601A8991CFEF7D5FC6B46E4
S1131C4802215B5E019A012B23DD002151562229D2
S1131C581FD13100501C5656222E16D10AB2013B10
S1131C689A4216DB6B46013989B2598089B12B0037
S1131C782200C9B206F0D4FB68B9094B1B689A88DC
S1131C88084B1A80084B188076BD01310EB29E426B
S1131C98E1DB0420F8E7FFF7B1FFFAE784510020FD
S1131CA810400020E4500020E6500020224BF0B5FC
S1131CB81A003D32127887B003923C331B7805A88A
S1131CC8029304AB9C1C2100FEF78EFC0023E55E06
S1131CD8059EABB2012B02D8042007B0F0BD012247
S1131CE82C0014401542F7D1D3404FF6FF770193E7
S1131CF860003018FEF74CFEB842EDD00F4B019A45
S1131D08E31801341870A3B29342F1D3E90F4919C7
S1131D184910029B039A0948C9B206F081FB10B125
S1131D28FFF76CFFD8E7064B1B689A88054B1A80A7
S1131D38054B1880D1E7C04684510020D64E0020B8
S1131D4810400020E4500020E650002010B5074B56
S1131D583C331B7823B10420012B05D1044800E04F
S1131D680448FFF73BFF002010BDC0468451002003
S1131D78D3CE0000C0CE0000062310B588B001AC55
S1131D882000237007F046F9029B04221BBA694617
S1131D9820000093FEF71CFE2000FFF71FFF002021
S1131DA808B010BD052310B588B001AC200023701D
S1131DB807F030F96946029B20001A0C0A701A0AC7
S1131DC84A7003228B70FEF703FE2000FFF706FF1C
S1131DD8002008B010BD000010B5054B04209B7A04
S1131DE8012B03D10348FFF7F9FE002010BDC046BC
S1131DF884510020E4CE000000B589B000236A466F
S1131E0801A8137107F006F96B461B7A2BB907482A
S1131E18FFF7E4FE002009B000BD012B01D10448FE
S1131E28F6E70420022BF6D10248F1E7EBCE0000D6
S1131E38F5CE0000FFCE000010B50E4B187A0D2821
S1131E4815D80AF073FA0714141414141414141477
S1131E58120C0E100848FFF7C1FE002010BD0748F9
S1131E68F9E70748F7E70748F5E70748F3E70420E1
S1131E78F4E7C0468451002009CF000018CF0000C1
S1131E8828CF000038CF000048CF000000B589B043
S1131E9804236A4601A8137107F0BCF86B461B7A41
S1131EA82BB10448FFF79AFE002009B000BD024890
S1131EB8F8E7C04657CF000065CF000010B5074BC0
S1131EC83F331B7823B90648FFF788FE002010BD6E
S1131ED80420012BFBD10348F6E7C04684510020B7
S1131EE874CF000084CF000000B589B043236A464C
S1131EF801A8137107F08EF86B461B7A012B05D1E4
S1131F080548FFF76BFE002009B000BD0420002B34
S1131F18FAD10248F5E7C04693CF0000A4CF0000E9
S1131F281FB5074B04221B6869461BBA01A8009316
S1131F38FEF74EFD01A8FFF751FE002005B000BDD5
S1131F48945A002000B589B06A464B2301A813713E
S1131F5807F060F86B466A461B8969465BBA1380CA
S1131F6801A80222FEF734FD01A8FFF737FE00207E
S1131F7809B000BD4C2310B588B001AC2000237013
S1131F8807F048F86946029B20001A0C0A701A0ADE
S1131F984A7003228B70FEF71BFD2000FFF71EFE1C
S1131FA8002008B010BD522310B588B001AC200041
S1131FB8237007F02FF8029B04221BBA69462000FD
S1131FC80093FEF705FD2000FFF708FE002008B087
S1131FD810BD532310B588B001AC2000237007F05E
S1131FE819F8029B04221BBA694620000093FEF7E5
S1131FF8EFFC2000FFF7F2FD002008B010BD000040
S1132008124B10B51B88012B08D0114B114A1B68C1
S113201812889A80037813B1012B0ED010BD43782F
S11320281BB90D48FFF7DAFDF8E7102B03D80B4A64
S11320389B009858F6E70A48F4E743781BB90379F4
S11320480BB10848EEE70848ECE7C046E650002024
S113205810400020E4500020D9D00000A8D7000088
S1132068B6CF0000D0CF0000DDCF000013B5FEF7D7
S113207897FAC0B2012834D16B469C1C210001A8F0
S1132088FEF7B2FA0023E15E01292AD10198FEF78E
S113209847FDC4B2012C1CD9072C22D11248FFF7E2
S11320A86DFDFFF793FD072C05D109F0F5FA09F04A
S11320B8DFFAFEF7A3FD72B6BFF34F8FBFF36F8F3E
S11320C8BFF34F8F094B0A4ADA60BFF34F8FC046FC
S11320D8FDE7002CE2D1074B187A07F01FFC20001B
S11320E816BD0424FBE7C046D9D0000000ED00E08B
S11320F80400FA0584510020F8B506000C000F27E7
S11321084D1EAD003000E8403840092808D830306A
S1132118013CE4B2FFF70AF9043D002CF2D1F8BD02
S11321283730F5E710B5FFF733FD0948FFF726FD0B
S113213802210420FFF7E0FF0648FFF71FFD902067
S11321480221FFF7D9FFFFF741FD002010BDC0466B
S1132158E4CF000049D30000F7B505000E00019252
S1132168002803DA2D20FFF7E1F86D4201230A2243
S11321781C00B34204D101260A27002C04DCF7BD55
S113218801335443DBB2F4E7012C00D1002695FB5C
S1132198F4F292FBF7F37B43D31A00936B46187857
S11321A8012E0DD160B9019B13B11800FFF7BEF8D9
S11321B8FF22009B1340634394FBF7F4ED1ADCE71A
S11321C8303040B2FFF7B2F80026F1E7002310B52B
S11321D8934200D110BDCC5CC4540133F8E703002A
S11321E8F0B5D433040018680E00150087B048B35E
S11321F810231B1A1F000093934200D917002300D1
S1132208C133BAB2181831000193FFF7DFFF220077
S1132218D4321368FB1813600F2B1DD9009BAB42F3
S11322281AD22000B13003001A78197C4A401A7077
S1132238019A01339A42F7D12200010006F0D0FD39
S1132248F619ED1B2000C130102D07D83100AAB2B1
S1132258D434FFF7BBFF256007B0F0BD2700B137C2
S11322683B00009600991A7809784A401A70009A37
S11322780133013200929842F4D11022390002A8A5
S1132288FFF7A4FF02A90800220006F0A9FD102206
S1132298380002A9FFF79AFF1036103DD2E7000074
S11322A870B50C008AB030BB6A46642390721381FF
S11322B80023002204920593069207930892099337
S11322C80B79042B17D818000AF030F817561503A1
S11322D871004B4B64211A00C03211801A0000208F
S11322E80021C832106051601A00D833D03210600F
S11322F85160186059600AB070BD424D4E79424B26
S11323082022280002A91E70FFF760FF03233F491B
S11323183F486B8406F01EFB55235B42AB843D4A61
S11323285A33AB62043B13700222227240F6B8326D
S1132338E26040F2E832226140F2D072626141F216
S11323488832A26141F270720021E261E218E380EE
S1132358D177314AB600B158304A521A626240F213
S11323680212228522002A3213702D4BF358E3629D
S11323782C4B23632C4B6363214A11001000E0317A
S1132388E2300B88008803430B801100274B31CBC4
S113239831C170CB70C11C4B1F491B789B00595825
S11323A81E4B5B1A1360224B5B1AD360A3E7164AD1
S11323B810780138032820D809F0B8FF021B031D40
S11323C809236A460820911D0B7002F0ABF86B468E
S11323D8591D104B06201B785A1E93410B7002F0AE
S11323E8A1F86B46D91D002309200B7002F09AF856
S11323F881E70323E5E70523E3E70223E1E7C04692
S11324087856002038570020705600205A5700206C
S1132418585700200C4000209CD9000000EA0637D9
S113242888D900009A9909404000200064DB000024
S113243840F7093740F28C23F0B5374C0025E358B0
S113244840F2B4111A00E4325D54156040F20C22D3
S1132458012032498FB0A150E03A9D546432985219
S11324681A0018009988E8321180991DC97F17321B
S11324789172996AFC30016119002C310978517400
S1132488190015323031C0C9C0C2198F0126118014
S1132498DA6B42621A6C82621A004432117840F292
S11324A828129954E832A554813A9D542D329D54EA
S11324B86A466946167100951878FFF7F1FE40F2EE
S11324C81123E5547B33E2585F3B1100FF3BD5549D
S11324D89E33E554FC31086940F2D0116050110074
S11324E8FF31887F40F2DC116054891965548919D9
S11324F866542A39515C40F2DF12A1542200E132B9
S11325081B19FF3223CB23C203CB03C240F2F213BD
S11325180222E2540FB0F0BDC053002000010100B4
S1132528F0B59BB007930C2306920591C3564268F5
S113253801930D23C35604000393837B0493209BC8
S11325481A604578019B0093002D4BD0022308AAFA
S11325581372C37B0AA99372007CFFF72DF843B268
S113256802936B46019A02991B798A4201DA6B46F7
S11325781B7A00255BB20093278963686689BB428E
S11325886D41BA19EDB2934207D30A230AA90B7015
S1132598207CFFF711F843B2039372006368D219E1
S11325A893421FD3DB1BB3FBF6F25643B34219D154
S11325B8019B029A934209DC23782BB10123207CE6
S11325C80CA90B71FFF76CFE0123049321230AA9BC
S11325D80B70009B4B70E37B8B70207CFEF7ECFF49
S11325E843B200932800059B009A1A70069B039A2D
S11325F81A70079B049A1A701BB0F0BDF8B50579D8
S113260803000620012D1BD903380F2D18D81F6885
S113261801243B7A1A091B071B0F934207D8144B52
S113262814491B78CB569A4200DC0024E4B238687B
S1132638FFF748F801235840C3B214B10533D8B2A0
S1132648F8BD0420002BFBD10C2216006E430A4B64
S11326583900F6183000FFF7B9FD0122AA40064BED
S11326687472E033198820000A431A80E8E7C046E8
S11326787056002080D9000078560020F8B515005F
S11326882022134B1F001C0008372678CEB90134CA
S1132698BC42FAD10F4C226802B92360626802B1C5
S11326A8136000221A606360AAB21871DD71581DA4
S11326B8FC34FFF78BFDE36801335B19E3603000FA
S11326C8F8BD013AD2B23B00002ADBD10226F6E774
S11326D87C52002074520020114BF7B51C6800236B
S11326E817001E00009001911CB9019B00201E6078
S11326F8FEBD009AD11AE27901329142F5D32279CA
S11327085D1CFA54EDB2E279611D7819FFF75EFD9C
S1132718E279013655192468EBB29619E4E7C04604
S113272874520020F0B504000F0016001D000A20A2
S113273885B0FBB110220021684609F07FF96A468A
S1132748A31F13706B460322581C3900FFF73EFD84
S11327580322310001A8FFF739FD6B460222290044
S1132768D81DFFF733FD22000221684608F064FFF4
S113277800B10F2005B0F0BD70B505680400022053
S11327881DB126790B2E01D8012070BD20002B78AD
S113279804226371691C0830FFF7F2F86B790B3E69
S11327A82373AB79E381EA7912021343227BE38131
S11327B81207120F9642E7DD290020000831103075
S11327C8FFF704FD237B200000221B071B0F1E00BC
S11327D8651C2830EA77027022790836911B043A7E
S11327E8042907DD216809338E5DEE77D51ACB18E5
S11327F805706362200021682C3089180422FFF7D1
S1132808BFF80020C1E700001FB5FDF7C9FEC0B23C
S11328180424012812D16B469C1C210001A8FDF751
S1132828E3FE23880821019A02A8FEF7F2F80400BF
S113283820B90822034802A9FFF7C8FC200004B005
S113284810BDC0469F51002000B589B001A80822D8
S11328580649FFF7BBFC082201A903A8FEF7B8F84C
S113286803A8FFF7BBF9002009B000BD9F51002061
S11328781FB5FDF795FEC0B20424012812D16B469A
S11328889C1C210001A8FDF7AFFE23880821019AAA
S113289802A8FEF7BEF8040020B90822034802A9DA
S11328A8FFF794FC200004B010BDC046A7510020D7
S11328B800B589B001A808220649FFF787FC082259
S11328C801A903A8FEF784F803A8FFF787F90020F5
S11328D809B000BDA751002010B586B0FDF760FE11
S11328E8C0B20424012812D16B469C1C210001A803
S11328F8FDF77AFE23881021019A02A8FEF789F8C9
S1132908040020B91022034802A9FFF75FFC200045
S113291806B010BD8F510020242330B58BB003AD11
S113292828002B7006F076FB0F4B01241B7A33B179
S1132938002403220A3BDBB29A426441A4B26846EB
S113294869686200FFF742FCFFF722F90748FFF7BE
S113295815F924B16B4604211888FFF7CDFBFFF75E
S113296835F900200BB030BD84510020AFCE0000F3
S113297810B5013A92B2013209F060F810BD0000B6
S1132988F0B5C5B006000D001F0002200192002911
S11329987DD04A9B002B7AD0E123002402A81B187F
S11329A8180010220021FFF7E3FFB02221000EA82F
S11329B84394FFF7DDFF634B1A78BA4261D11121C2
S11329C86143614B2131C9180EA806F051FA002E53
S11329D85FD106AC2900019A0EA8FFF700FC10226B
S11329E800212000FFF7C4FF21000EAA200006F0F2
S11329F8F7F92278230000217F2A50D918785A78C9
S1132A084000D209024301311A7001330F29F5D16C
S1132A187923E27B5B4252005340439ADBB2E3736F
S1132A28102A49D102ABE132D21800231178E05CB4
S1132A380133414011700132102BF7D1E1230025F5
S1132A4802AA9B181A78197C01354A401A70013376
S1132A58102DF7D1E12302A95B1819002A000AA84E
S1132A68FFF7B4FB0EAA0AA902A806F0B9F92A00CE
S1132A7820000021FFF77CFF029B4A9A0020136084
S1132A8805E00134E4B21133142C95D1032045B088
S1132A98F0BD102231000EA8FFF7A1FB99E71878C2
S1132AA85A784000D209024301311A7001330F29C0
S1132AB8F5D1E37B5B00B0E70021002061562300D9
S1132AC8814231DA1D7859786D00C90929430130EA
S1132AD8197001330F28F5D17923E17B5B42490052
S1132AE84B408021DBB2E3730EAB9B18C133561CF9
S1132AF800251970102E01D80F35AD1A0EABC2324D
S1132B08981800212A0008F099FFF12202ABD21884
S1132B180023AD1943951178E05C013341401170ED
S1132B280132102BF7D189E71D7859786D00C9094E
S1132B3829430130197001330F28F5D1E37B5B0079
S1132B48CFE7C0468857002068570020F0B5AFB0DB
S1132B5806000D0001A814000021B0221F00FFF791
S1132B6807FF00230F4811215943425CA2420BD1AD
S1132B780D4B2131C91801A806F07AF92C00281B3D
S1132B88C0B23CB9200003E00133142BEBD103207D
S1132B982FB0F0BD311801AA3818103C06F020F9FE
S1132BA8A4B2ECE788570020685700207FB50023BB
S1132BB811220E00194914005C430D5D854227D18A
S1132BC8174B80382134C0B21022E418092819D8C8
S1132BD840F24923C340DB0714D50021684608F0B6
S1132BE82DFF022536B16B467F2210213000FFF7F6
S1132BF8ADFF0500102269462000FFF7E7FA280018
S1132C0804B070BD31002000FFF7E0FA0025F6E7B4
S1132C180133142BCFD10325F1E7C0468857002090
S1132C286857002030B5050085B051B1FFF7BEFFE5
S1132C38040030B9012D05D1104B1B689B78012B7A
S1132C4803D10F24200005B030BD010010226846CE
S1132C5808F0F4FE09222900684608F0EDFC002873
S1132C68EFD110222100684608F0E8FE7F220921EE
S1132C78684608F0E1FC0028E4D0E2E7905300201D
S1132C8870B5A34D04002B00FC339B6C01208EB05F
S1132C989B075CD42078532800D98DE209F05AFBAD
S1132CA854008C02590063006900700076007C00AF
S1132CB8860086008C028C028C028C028C028C02A8
S1132CC88B00900095009A009F00A400A900AE0014
S1132CD8B300B800BD00C200C700CC008C02D1000C
S1132CE8E900FC0024014D013E015A0165016B0114
S1132CF8700175017C018C0283019401BC01AB0154
S1132D08CD01D801E101E8018C028C028C028C020D
S1132D188C028C028C028C028C028C028C028C0237
S1132D288C028C028C02EE018C028C0214028C023E
S1132D3821027202800228022D02300241024B0253
S1132D4854025E0268026D022079FEF7ABFD0EB0F4
S1132D5870BD616809B90320F9E710226D48FFF7CF
S1132D6835FA0020F3E761680029F4D010226A4894
S1132D78F5E740F28C23EB58E23322791A70F0E736
S1132D8840F28C236268EB589A64EAE740F28C2399
S1132D986268EB58DA64E4E761680029DBD0012053
S1132DA8FFF740FF0028DCD00E20D0E7616802203E
S1132DB80029F5D1CFE761687F200029F0D1CAE75F
S1132DC8616880200029EBD1C5E76168812000296A
S1132DD8E6D1C0E7616882200029E1D1BBE76168D8
S1132DE883200029DCD1B6E7616884200029D7D183
S1132DF8B1E7616885200029D2D1ACE761688620F3
S1132E080029CDD1A7E7616887200029C8D1A2E7A6
S1132E18616888200029C3D19DE761688920002959
S1132E28BED198E761688A200029B9D193E761681F
S1132E388B200029B4D18EE740F28C23EB58E13380
S1132E489BE76A46237A6946137040F28C23ED584F
S1132E582B00FF339B7F287853700722FEF74CFC26
S1132E68002800D177E70D35FF35043406CC06C5B4
S1132E7877E76A46237A6946137040F28C23ED5843
S1132E882B00FF339B7F287853700722FEF734FC0E
S1132E9828350028E9D15EE76A46237A6946137023
S1132EA840F28C23ED582B00FF339B7F2878537016
S1132EB80722FEF721FC002800D14CE72B0015332C
S1132EC8FF33043406CC06C33C3B1B78022B00D0EA
S1132ED847E7B333FF33EB5C002B00D141E702F043
S1132EE801FDFEF797FC3CE76A46237A69461370AE
S1132EF840F28C23ED582B00FF339B7F28785370C6
S1132F080722FEF7F9FB002800D124E73035ACE7A7
S1132F18C0530020685700207857002040F28C23C3
S1132F28EB5861681B78002B00D014E7A3480029EC
S1132F3800D116E705F00EFD13E740F28C23EB5899
S1132F4861681B78002B00D005E7002900D108E749
S1132F589B48EFE72279531E0E2B00D9FBE640F27B
S1132F688C23EB58FF335A72FBE640F28C23EB5860
S1132F78F43362686AE040F28C23EB58F833F8E7DC
S1132F8840F28C23EB58FC33F3E740F28C23EB58E4
S1132F986268FC335A60E4E640F28C23EB58FC3355
S1132FA862689A60DDE604266B46A65706221E7000
S1132FB840F28C23EC5869462078FEF79DFB0028E4
S1132FC800D1C8E66671CCE604266B46A6576A4665
S1132FD81E7040F28C23EC5869462300FF335B7F54
S1132FE8207893700522FEF787FBE934002800D186
S1132FF8B1E62670B5E604266B46A6570A221E706B
S113300840F28C23EC5869462078FEF775FB0028BB
S113301800D1A0E62671A4E604266B46A657092229
S11330281E7040F28C23EC5869462078FEF764FB46
S1133038002800D18FE6E834DBE740F2F413626835
S11330489A4200D987E69833EB58EC331A6088E63D
S113305840F28C23EB5822791900F0310A701A7364
S11330687FE640F28C23EB586268FC339A6278E678
S113307840F28C236268EB581A6472E640F28C269C
S1133088AB591B7843B94F4923790A789A4203D03C
S113309806200B7001F046FAAB5900201A000021F3
S11330A8A132FF3210605160694603220A7100227E
S11330B818780092FFF7F4F82379A9595A1E934116
S11330C840F22D128B544CE640F28C23EB582279B3
S11330D8180040F22811443002B1012202705A54F7
S11330E83FE640F28C232179EA58CF3BD15438E6A5
S11330F8354BA2881B689A8033E6334B1B684FE72D
S113310822790F2A00D926E640F28C23E958613B3C
S1133118FF3BCA542C3BFF3B934040F290128B5226
S11331281FE62279072A00D915E640F28C23EB58CA
S1133138FF339A7215E640F28C232079ED5809F092
S113314851FEFC3568620CE62279012A00D902E6B0
S113315840F28C23EB58FF339A7702E62279012A4E
S113316800D9F8E540F28C23EB58FF335A77F8E599
S1133178154B62681B681A61F3E5134B62681B6898
S1133188DA60EEE540F28C23EB581B781BB90F4B41
S1133198A2881A80E5E51320062B00D0D7E5E0E5E0
S11331A840F28C23EB581B7823B11320062B00D054
S11331B8CDE5D6E5064BDCE60220C8E55A570020E3
S11331C8585700200C400020905300205C570020E2
S11331D86057002010B58AB0FDF7E2F9C0B20128A3
S11331E82CD16B469C1D210002A8FDF7FDF9002394
S11331F8E15E052922DCC9B20298F9B1FDF790FC19
S113320803004CF25C12F53BFF3B9BB2934215D88A
S113321827236A4684B203A813730494FFF730FD86
S113322850B928236A46137340F2E83303A8E41814
S11332380494FFF725FD10B1FEF7E0FC04200AB062
S113324810BD000030B58BB0FDF7AAF9C4B2012C4B
S11332581AD16B469D1D290002A8FDF7C5F9002265
S1133268AB5E012B10D1029B1B785BB2302B0ED0C6
S1133278312B09D16A46432303A813731474FFF747
S1133288FFFC30B1FEF7BAFC04200BB030BD0024BB
S1133298F0E7024B3B331C70F7E7C046845100202B
S11332A810B58AB0FDF77CF9C0B2012819D16B4674
S11332B89C1C210002A8FDF797F923880421029A8F
S11332C801A8FDF7A6FB030060B95222019B03A8DD
S11332D81BBA43600270FFF7D3FC030010B1FEF77A
S11332E88DFC042318000AB010BD10B58AB0FDF790
S11332F857F9C0B2012819D16B469C1C210002A8B9
S1133308FDF772F923880421029A01A8FDF781FBCD
S1133318030060B95322019B03A81BBA43600270DF
S1133328FFF7AEFC030010B1FEF768FC0423180095
S11333380AB010BDF0B58BB01E0010AB0C001F789E
S113334800900192F1B3009B0A20E3B301251022F7
S1133358002106A808F072FB1022002102A808F038
S11333686DFB02AB981D31001D705F7105F0EEFC1A
S11333780A2002AB1199C01805F0E8FCEAB213015F
S1133388103BDEB202ABDA7301351021019A06ABA9
S113339802A8ADB2FFF7DAFBB8B9211C102C00DD86
S11333A810210022009B09B29B1906AF1878D65D3C
S11333B801327040187001339142F7DC103C24B29A
S11333C8002CDBDC00200BB0F0BD0F20FBE7000075
S11333D810B5074B04001B68DB7813B10548FEF7EA
S11333E8CDFB2000FEF7CAFB0348FEF7C7FB10BD60
S11333F810400020ACCE0000CBD00000037837B5D5
S11334080400022B43D84578002D40D1037B13B325
S11334182548FFF7DDFF2548FEF7B0FB237BAB42C9
S113342836D82348FEF7AAFB00220321E078FEF7EA
S113343893FE1F48FEF7A2FB00220121607CFEF7E1
S11334488BFE1B48FEF79AFB00220A21206AFEF72E
S113345883FEFEF7BBFB174B3F331B78012B16D1BA
S11334681548FFF7B5FF1148FEF788FB0022032132
S11334780E23E05EFEF770FE0D48FEF77FFB10207A
S1133488002203212056FEF767FEFEF79FFB37BD97
S1133498A1680122491901A8FDF79AFA013501A882
S11334A8FEF76CFBEDB2B9E7FACF0000AFCE00002F
S11334B800D000008451002002D00000F8B505783F
S11334C80400032D16D0082D38D065B92748FFF716
S11334D87FFF2748FEF752FB63782BB92548FEF790
S11334E84DFBFEF773FBF8BD082B01D12248F6E724
S11334F82248F4E7224B1E78B307F4D52148FFF796
S113350867FF1B48FEF73AFB67789FB93A00290022
S1133518207CFEF721FE1C48FEF730FB3A00290008
S1133528607CFEF719FEFEF751FB02239E43144B01
S11335381E70D8E71548FEF721FBF4E7104E3578DE
S1133548EB07D0D51248FFF743FF0948FEF716FBEF
S1133558637843B90F48FEF711FBFEF737FB0123E5
S11335689D433570BFE70948F5E7C04608D0000019
S1133578AFCE00000ED000001CD000002ED00000FA
S1133588D54E00203AD0000000D0000043D00000FF
S11335984FD00000D9D0000010B5040088B0032033
S11335A8022C09D86A46002301A813711472FFF784
S11335B867FB08B9014B5C7208B010BD8451002048
S11335C813B5FCF7EDFFC0B2012815D16B469C1C5E
S11335D8210001A8FDF708F80022A35E012B0BD1F6
S11335E8019B18783038C0B2022805D8FFF7D4FFF9
S11335F8030010B1FEF702FB0423180016BD0000F7
S1133608042330B589B001AC23700500200005F00F
S113361801FD23799D4220D045B90423200023705D
S11336282571FFF72DFB60B109B030BD2D23237040
S11336380B4B20001B782371FFF722FB0028ECD0EA
S1133648F2E7084B3E331D703DB92D23200023704B
S113365805F0E0FC2279024B1A700020E4E7C0462A
S1133668D44E00208451002013B5FCF799FFC0B252
S1133678012816D16B469C1C01A82100FCF7B4FF55
S11336880023E05E01280CD1019B1B785BB2302B30
S11336980AD0312B05D1FFF7B3FF030010B1FEF7B1
S11336A8ADFA0423180016BD0020F4E730B50A4C1F
S11336B8050023003E331B78002089B04BB96A46C5
S11336C82D3301A813711572FFF7DAFA08B94034DB
S11336D8257009B030BDC0468451002013B5FCF7ED
S11336E85FFFC0B2012818D16B469C1C210001A8B9
S11336F8FCF77AFF0023E15E02290EDCC9B20198C7
S113370859B1FDF70DFA83B20F2B06D8C0B2FFF7F3
S1133718CDFF030010B1FEF771FA0423180016BD9B
S113372870B52423050088B001A80C000370456017
S1133738FFF7A6FA0600054B2900054862001C702D
S1133748FEF744FD300008B070BDC046C7510020E4
S1133758C8510020F0B589B005AD0C22002128001D
S113376808F06CF9FCF71CFFC3B20193062B32D99D
S113377800260420194B1A7A012332B100230321AD
S11337880A3AD2B291425B419BB2D9B29E4206D860
S113379830B92800FFF7C4FF10B1FEF72FFA042050
S11337A809B0F0BD02AB9F1D390004A8FCF71CFF4B
S11337B83B8803AF02213800049AFDF72AF9002850
S11337C8D8D13B8862005BBAAB520134019BE6B2A4
S11337D8B342E7D8CEE700240420F7E78451002059
S11337E80B6802781B0E534003700B6842781B0C5D
S11337F8534043700B6882781B0A534083700B68EC
S1133808C2785340C3704B6802791B0E534003714E
S11338184B6842791B0C534043714B6882791B0AED
S1133828534083714B68C2795340C3718B68027AE1
S11338381B0E534003728B68427A1B0C534043722D
S11338488B68827A1B0A534083728B68C27A53400E
S1133858C372CB68027B1B0E53400373CB68427B55
S11338681B0C53404373CB68827B1B0A53408373FE
S1133878CB68C27B5340C3737047000003000449FC
S1133888103302788A5C027001309842F9D170478B
S113389834D60000F8B50C0006000878FDF7C6F920
S11338A8677805003800FDF7C1F9A378E2787B4012
S11338B853405D40684030706078FDF7B7F9277869
S11338C80500A0784740FDF7B1F9E3785F407D40F3
S11338D86840707063782778A0785F40FDF7A6F990
S11338E80500E0784740FDF7A1F97D406840B070D5
S11338F827783800FDF79AF963785F40A3785F402A
S11339087840C5B2E078FDF791F94540F570F8BD07
S1133918F0B5437B87B001938378457A0293C379E2
S1133928877A03934378C1780493C37AC67B059353
S11339384379847B4370019B82794372029B87702D
S11339488372039BC670C372049B4571437384716D
S1133958C1718273059BC37307B0F0BD030070B5D2
S1133968002504000833DB6F05609A6818685269FB
S1133978904728006560A56070BD41B1436813B1E4
S11339884368022B03D104234360033B83607047DD
S1133998EFF31081012383F31088074B1A6812B1DF
S11339A81A68013A1A601A681AB9044B1A708032F4
S11339B81A7081F3108870477052002040030A403F
S11339C8436810B5C4681A78FF21436904B1E15CFF
S11339D88468520001331153436110BDF0B585B0BA
S11339E8FDF73FF9204B8000C45863681D78A3682D
S11339F86A009B180122FE33598811420AD05A8161
S1133A08042301A801950371A36A8360636A984734
S1133A1805B0F0BD5B8A1E009FB21640134202D067
S1133A286369012B02D92000FDF7E0F96269E369B3
S1133A389A4203D22000FFF7C3FFE9E736B1012316
S1133A4888359F43A3686D00EF52E1E7636801A8D6
S1133A581B78019301230371A36A8360636A0134A9
S1133A689847E677D4E7C046B04D0020F8B504007F
S1133A78FF25FDF7EFFF002220880A4E93B29842F3
S1133A8802D8FFF785FFF8BD6168D300C9188F888D
S1133A9809683B0A1B012F40DB1989B25B00995363
S1133AA80132EBE700020A4040F623020F4B995C0F
S1133AB80F4A890709D540F622015B5C1BB193685C
S1133AC80C4A136070471369FAE740F62001595C01
S1133AD8890705D540F61901595C5368CB40EFE7CF
S1133AE840F61801595C1368F8E7C04600E0014045
S1133AF8884C0020AC4D002040F20A2230B50F4B10
S1133B08995C8909814218D040F20B2401211D5D7A
S1133B1829431955022805D0995C8909022901D03D
S1133B288021995440F20A2240F20B218001C0B24C
S1133B38985401205A5C82435A5430BD00C07E40D8
S1133B4801380028FCD1704740F2E832002348438A
S1133B5810B5002108F062FC054B1A68054BB3FB4D
S1133B68F2F3B0FBF3F0800808B1FFF7E9FF10BDEA
S1133B78AC4D002000CA9A3BF0B585B001930023F0
S1133B888377030008330400D86F83680068DD680E
S1133B9802AB0733A8470500E0B90600A37F104F1E
S1133BA833B9012101360800FFF7CEFFBE42F5D133
S1133BB8230058331A7801990A70BE420DD01A7836
S1133BC8022A07D01A78032A04D040F2F4151B7885
S1133BD859342370280005B0F0BD1425FAE7C0460F
S1133BE840420F000223F0B5060085B002AAD37143
S1133BF8C268040015004BF6AD6788363368019136
S1133C089B180835436163699D421BD2019BB3B17C
S1133C1802AB0422290020000733FFF7ADFFA0B947
S1133C2802ABDB79022B0DD0A1693368CA682888F6
S1133C380A3252009B1A834209D2212003E0A36E60
S1133C489D42F1D10020A566256105B0F0BD03228F
S1133C58EB1D1B1893435A88BA42EED11A88486957
S1133C68E1685200691A11521A881D1DE265CAE7F3
S1133C7810B50400436E0021C36083691A6958694A
S1133C880132520007F0DAFE00212000FFF7AAFFF4
S1133C9810BDF8B504000325836949005869626EAC
S1133CA8435A26699B18E3671B88221D0B33AB43D1
S1133CB8D367E2689B19B71A47522100883109680B
S1133CC800205218934205D92000FFF7D1FF0123A1
S1133CD86560A360F8BD10B504008369616F1A6953
S1133CE80131914200D9002161675A694800825A1A
S1133CF8002AF3D0236F8B4207D02000FFF7C9FFB7
S1133D0810B9200004F0DCFF10BD23692000A3676C
S1133D18FCF795FFF8E7F0B584680023250087B021
S1133D280093037858352B70A3681BB90133A37724
S1133D3807B0F0BD2B78012B00D0DCE0A068023876
S1133D48082800D9B3E008F0F1FA058B359FB8B21A
S1133D58B2B2C0002369032504330193236123000D
S1133D6848331B88E76C1A002A40A56002922B424C
S1133D780AD1A560220039000832D06F82685568DC
S1133D88019A0068A84739E0032B0FD826008C361F
S1133D9804220021300007F051FE39003000029A55
S1133DA808F007F937000423A560E3E70422AB43CE
S1133DB8A260DFE7230048331E8825000327330069
S1133DC88C35BB43042200212800A760019307F027
S1133DD835FE3200019BE16C3A40C918280008F00E
S1133DE8E8F82269019B29009A1823000833D86F40
S1133DF82261836800685E680423B04701002000DC
S1133E08FFF7BBFDA368012B00D091E72300903393
S1133E181A68002A00D18BE76368002B00D084E07D
S1133E28A368013B591E8B41DBB204A90B70230024
S1133E38943498331B6820684B60002877D0037843
S1133E48009343680393030060C960C390472368E1
S1133E58002B00D16CE7009A1A70039A5A6067E73E
S1133E68230048331B8821695A189B0700D00A1D70
S1133E780523A360230021000833D86F22618368D7
S1133E8850315D6804237CE72300210050331A88ED
S1133E982369E265043323614A310888A169520021
S1133EA849695052626822B90132A260A3660020AF
S1133EB8A4E72000FFF70FFFA0E7231DDB6F200016
S1133EC8002BF7D004F0FCFE98E7230088331A6827
S1133ED8E368616E9B18636100232377A36F120A5A
S1133EE823610B23A36023000833D86F8368006819
S1133EF89B68984782E72B7823B9009B636001236A
S1133F08A360D4E763680098022B05D1A3680B2B40
S1133F1802D02000FFF7ACFE23002A7859331A7028
S1133F2804236360033BA36068E763687CE70800D5
S1133F388CE70000030070B5002608338677040078
S1133F48D86F836800689B689847050048B12800C3
S1133F5870BD01210800FFF7F7FD0A4B01369E42A8
S1133F680DD0A37F002BF4D0230058331A78002AED
S1133F78EDD01B78593440F2F4152370E7E7142583
S1133F88E5E7C04640420F008369F0B51A690500A9
S1133F98013258695200002185B007F04FFD002313
S1133FA84FF6FF72AB77EA65EB600193AB69019951
S1133FB85A68914201D300243BE02F008837019AC4
S1133FC83E681B685643F61802AB082231002800E5
S1133FD80733FFF7D1FD040058BB02ABDB79022B92
S1133FE814D102AB310028003A680733FFF7C4FD47
S1133FF80400F0B902ABDB79032B43D13A68120A07
S113400831002800FFF796FF040011E04BF6AD627B
S1134018F3889342F2D1E96899B33A6830680B6837
S1134028120A9842ECD92800FFF784FF0400EE60D6
S113403844B3EB684BBBAB6929001A689B688831A9
S1134048D2182B0009680833521AEA609CBB22492B
S11340582C64D9872900D86FAC77836840315C68B1
S113406800680823A047040028BBAB7F33BB0121A9
S11340780800FFF769FD194B01349C42F5D114245B
S113408826E0EE60019B01338FE7212C0ED1012637
S1134098002301212800AB83FFF7A4FD0400212895
S11340A816D0A8B92EB90123AB6011E084B9002653
S11340B8EEE721240CE0212C0AD1E8E72B00583341
S11340C81A78012AF3D040F2F4141B7859352B706E
S11340D8200005B0F0BDC046ADBEFFFF40420F0052
S11340E8F7B502000B6A08321B6881610400D367C4
S11340F80700019248688A688837B2FBF0F23B48A7
S11341083A606064606520000022394D903025656E
S11341188D69C9692264A264E264816021009431D2
S113412805600A609A6803CB126890470600002865
S113413845D1A0602000FFF727FF0500212844D1BE
S113414802233100A0696360036926669C464369BB
S11341584A009A5A12B901316145F9D90368E568E8
S11341683A688068AF181818874200D03B00D21804
S11341786566E36062618C4523D3083323618BB29F
S1134188200023676367FFF784FD050080B92000DA
S113419804F096FD050058B9A368012B1FD001212E
S11341A80800FFF7D1FC134B01359D42F4D11425C7
S11341B8019B2E00DB6F9A6818685269904730009B
S11341C8FEBD2000FCF73BFDE4E70028F0D1E368DE
S11341D81B68236400236360074B2360EFE763686D
S11341E8042BF4D140F2F415E2E7C0460000ADBE5A
S11341F8FFFFADBE404B4C004545565270B5274BAA
S113420888B09B7A012B47D1032214000440024250
S113421842D025001D401C4209D06A464A33137116
S113422801A804F0F7FE6B461A891D4BDA800226B2
S113423834422FD04C2301AC2370200004F0EAFE52
S1134248029A174B35439A6016491748FFF748FFF7
S1134258040080B9154E042130700623144A12480C
S1134268FCF7FEFF040001000F48FFF786FB14B9B2
S11342783378002BFCD00C48FFF770FB20434242F4
S113428850410323064A404203401D4013682B4310
S1134298136001E0002DD7D108B070BD845100200F
S11342A8D850002084D70000384E00207C5C0020C1
S11342B8DE500020002370B588B001AC20002370C4
S11342C804F0A8FE1E4D237920006B72432323704B
S11342D804F0A0FE2B0022793B331A70042320003B
S11342E8237004F097FE2B0022793E331A701D23A5
S11342F82000237004F08EFE2B00227911494133EB
S113430811481A70FFF7ECFE010078B90F4E5023DC
S113431830702A000C48FCF7A3FF040001000A4887
S1134328FFF72BFB14B93378002BFCD00648FFF7B2
S113433815FB0748FFF762FF002008B070BDC046B0
S113434884510020F0D70000E85000207D5C002054
S1134358FFFF030070B58AB0FCF722F9C5B2012D3E
S11343681BD16B469C1D210002A801AEFCF73CF949
S1134378238802213000029AFCF74BFB040068B939
S11343886A464B23368803A876BA13731682FEF757
S113439877FC040028B1FDF731FC042420000AB09E
S11343A870BD034B2800DE80FFF728FFF6E7C04600
S11343B8D850002070B58AB0FCF7F2F8C0B20128D2
S11343C81FD16B469C1C210002A801AEFCF70CF916
S11343D8238803213000029AFCF71BFB040088B9E8
S11343E8737835781B022D041D43B37803A81D4345
S11343F84C2345600370FEF743FC040028B1FDF725
S1134408FDFB042420000AB070BD034B02209D600C
S1134418FFF7F4FEF6E7C046D850002010B5FFF7C2
S1134428EDFE10BD37B50400082268461B4907F0A5
S1134438C0FD002C2FD11A4D1A492800FFF750FE51
S1134448040068B9AB695B691B88E3B1EA68991829
S11344589B5A4F2B19D950221348043107F0A9FD50
S11344680F48FFF77BFA204320B150220F490E482A
S1134478FDF7ACFE082269460B4807F089FD30B900
S11344880B4B187137BD2224EAE70324E8E707F049
S113449803F907F0EDF8FCF7B1FBF3E758D0000097
S11344A8E8500020F0D700008451002034D70000E1
S11344B8D850002037B5FCF773F8C4B294B1012C76
S11344C819D16B469D1C290001A8FCF78DF8002220
S11344D8AB5E012B0FD121000198FCF721FBC4B27C
S11344E8012C08D82000FFF79DFF04F029FF0300E2
S11344F810B1FDF783FB042318003EBD1F224309B6
S113450810401E3A824002499B005A507047C046E8
S113451800E100E010B52120FFF7F0FF1D20FFF7B0
S1134528EDFF10BDF7B507000C000025C9B3354EE3
S113453801A8FDF7A5FA3278531CDBB233700AB927
S1134548FDF7A3FA019B83F31088092F36D83800A6
S113455807F0ECFE050A292D31393F4347512278EB
S1134568294B1A7001250FE016250422210001A801
S113457807F01FFD019A254B196891423FD0013D70
S1134588ADB20833002DF7D101A8FDF779FA3378D5
S1134598013BDBB233700BB9FFF7BCFF019B83F31C
S11345A810882800FEBD2278174B1A72DAE72278A1
S11345B8154B5A72D6E723782F2B01D90025E3E748
S11345C8114AD372CEE723782F2BF7D80E4A1373E8
S11345D8C8E722780C4B5A73C4E722780A4B9A72BC
S11345E8C0E7094D2378AF7BAB7304F0B7F9002813
S11345F8B8D1AF73E2E72278034BDA73B2E7024B20
S11346085A60AFE7685C0020D45A0020ACDA000096
S1134618F7B507000C00002679B3254D01A8FDF76E
S11346282FFA2A78531CDBB22B700AB9FDF72DFA3E
S1134638019B83F310880026092F11D8380007F04E
S113464875FE05091E2124272A2D3033194B1B78A2
S1134658237004E004222000174907F0AAFC01266D
S113466801A8FDF70DFA2B78013BDBB22B700BB9CF
S1134678FFF750FF019B83F310883000FEBD0D4BFC
S11346881B7AE5E70B4B5B7AE2E70A4BDB7ADFE759
S1134698084B1B7BDCE7074B5B7BD9E7054B9B7A15
S11346A8D6E7044B9B7BD3E7024BDB7BD0E7C046C2
S11346B8685C0020D45A0020D85A002073B5184DDD
S11346C8060001A80C00FDF7DBF92A78531CDBB2BD
S11346D82B700AB9FDF7D9F9019B83F31088114BA4
S11346E8042E14D0052E18D0083307CC07C306CCE3
S11346F806C301A8FDF7C4F92B78013BDBB22B7084
S11347080BB9FFF707FF019B83F3108873BD1C33B4
S113471807CC07C307CC07C3EBE722685A60E8E76E
S1134728685C0020385A002073B51C4D060001A8A7
S11347380C00FDF7A5F92A78531CDBB22B700AB9D3
S1134748FDF7A3F9019B83F31088154B042E1AD0A7
S1134758052E1FD0032E0FD01B78237001A8FDF758
S11347688FF92B78013BDBB22B700BB9FFF7D2FE24
S1134778019B83F3108873BD2200083343CB43C2E3
S113478803CB03C2EAE722001C3343CB43C213CB57
S113479813C2E3E75B682360E0E7C046685C002077
S11347A8385A0020F0B5324D85B0070003A80191AE
S11347B8FDF766F92A78531CDBB22B700AB9FDF7AA
S11347C864F9039B83F3108840F28823294CE65C40
S11347D8783BE35CDEB913B140F24923E75438006F
S11347E8FDF704F9244B254A1B6863B940F2892272
S11347F82023A15C0B43A35401F006FB01F072F8DB
S113480801F0AAFB22E0934216D01B69EDE71BB125
S113481840F24923019AE2540198FDF7E7F840F27F
S11348288C23E358E0331B78022B0FD040F2892203
S11348382023A15C0B43A35440F28C23E358E033B8
S11348481B781BB9002ED9D101F066FBFCF7A4FF35
S113485803A8FDF715F92B78013BDBB22B700BB9D4
S1134868FFF758FE039B83F3108805B0F0BDC046DC
S1134878685C0020C0530020645C00205C55002064
S1134888F0B5214C87B0019005A81F00039202914E
S1134898FDF7F6F82278531CDBB223700AB9FDF74A
S11348A8F4F8059B83F31088184D00212B00A433DA
S11348B80020185E04F084FB0026019B985D04F038
S11348C89BF90136029AB3B29A42F6D8039EF719B5
S11348D8BE4214D1A4350023E85E012104F070FB24
S11348E805A8FDF7CDF82378013BDBB223700BB99B
S11348F8FFF710FE059B83F3108807B0F0BD3078EE
S113490804F07AF90136E3E7685C00200C5B0020C8
S1134918C02307B501A8038000231A000221FFF76A
S1134928AFFFFCF7F7FC07BD10B50A4B1A78082A45
S11349380DD840F241130124D340234207D0FFF796
S1134948E7FF054B21000020185E04F039FBFCF753
S1134958E1FC10BD0F400020E45A002037B56B4637
S11349680C001500D871FFF7DFFF68462B00220002
S113497801210730FFF784FF6B46DB79842B01D0D4
S1134988FCF7C8FC37BD000007B5104B01A99842D5
S113499806D90F4B0B8002229820FFF7DFFF07BDD3
S11349A80C4B984201D90C4BF4E70C4B984201D9B3
S11349B80B4BEFE70B4B984201D90B4BEAE70B4B38
S11349C89842E8D946F66B73E4E7C04600E9A43593
S11349D8E1E9FFFF80F8A932D7DBFFFF8044E52D2A
S11349E8C1C5FFFF000B6B1B7581FFFF40FC541909
S11349F837B5104B104D18602B7804001BB9FFF71E
S1134A08C3FF01232B7043F60951B4FBF1F20B00E9
S1134A1841F684605343E31A9B031B18B3FBF1F379
S1134A2892039B181BBA0422862001A90193FFF75D
S1134A3895FF37BD085C00200C5C002013B5064BBD
S1134A4804005B7B23B1019001A90520FFF736FE22
S1134A582000FFF7CDFF13BDD45A002007B56B46DD
S1134A68D91D044B0870187001228A20FFF776FFBD
S1134A7807BDC0460D5C002013B50B4B1B788BB9E2
S1134A886B460122094CD91D80200A70FFF766FF86
S1134A9840F61110E17A00F064F840F61210217B18
S1134AA800F05FF813BDC046F85A0020D45A00201D
S1134AB807B50C4B0422972001A90193FFF74EFF79
S1134AC800236A460720938001A90222FFF746FFC4
S1134AD87F236A468920137101A90122FFF73EFF4B
S1134AE807BDC046020002800D2373B50D001600F1
S1134AF801AC2370030A6370A070FFF715FF33003D
S1134B082A0003212000FFF7BBFEFCF703FC73BD5A
S1134B1807B5064B01A91B7840BA088023B90222BD
S1134B2840F2BC60FFF7E0FF07BDC0460D5C002003
S1134B3807B5064B01A91B7840BA088023B902229D
S1134B4840F2BE60FFF7D0FF07BDC0460D5C0020F1
S1134B5807B56B46D971073301221900FFF7C4FF63
S1134B6807BD10B5FFF7F4FF10BD000010B5040031
S1134B780B4B1870587000F015F854B1342140F2FA
S1134B884070FFF7E5FF442140F24170FFF7E0FF72
S1134B9810BD142140F24070FFF7DAFF2421F3E737
S1134BA8395C0020012010B5FFF758FF044B187832
S1134BB85A78824202D05870FFF7D8FF10BDC04619
S1134BC8395C002010B5012806D00020FFF746FF05
S1134BD80022034B5A7010BDFFF7E4FFFBE7C04601
S1134BE8395C0020F0B5254D87B0019005A81F0059
S1134BF803920291FCF744FF2A78531CDBB22B7012
S1134C080AB9FCF742FF059B83F310881C4E002168
S1134C183300A4330020185E04F0D2F90024019B69
S1134C28185D03F0E9FF0134029AA3B29A42F6D858
S1134C38002003F0E1FF039CC3B20193E719BC42CF
S1134C4815D1A4360023F05E012104F0B9F905A8B2
S1134C58FCF716FF2B78013BDBB22B700BB9FFF77F
S1134C6859FC059B83F31088019807B0F0BD002018
S1134C7803F0C2FF20700134E1E7C046685C0020FD
S1134C880C5B002073B56B4615000C00DE1DD87153
S1134C98FFF74AFE2B00220001213000FFF7A2FF94
S1134CA80400FCF737FB200076BD000013B501AC07
S1134CB8012221001520FFF7E5FF064B22781B7817
S1134CC852085BB29B1A181C803301DA4FF68070C5
S1134CD800B216BDD45A00201D2373B50D0016006A
S1134CE801AC2370030A6370A070FFF71DFE330044
S1134CF82A0003212000FFF775FFFCF70BFB73BDA7
S1134D0813B56B46DC1D01222100FFF7E5FF20786F
S1134D1816BD000037B52A4B04001B780D00012B83
S1134D282CD10F280CD1274B0422952001A90193DB
S1134D38FFF714FE231C5AB20E2A10DD0E230EE0D0
S1134D48214B0422952001A90193FFF707FE231C98
S1134D581134F0DA4DF26C43C0F200031B781821C9
S1134D685CB240F6E700FFF7F3FE6B4602225D7182
S1134D788E201C7101A9FFF7F1FD37BD40F6D8005C
S1134D88FFF7BEFF1E210143C9B240F6D800FFF762
S1134D98DFFE0E4B0422952001A90193FFF7DEFDE7
S1134DA8231C093407DA4DF26D43C0F200031B7863
S1134DB838215CB2D5E75AB2162AF9DD1623F7E78B
S1134DC80D40002006000101040001010407000150
S1134DD8F7B5214D01A8FCF753FE2A78531CDBB222
S1134DE82B700AB9FCF751FE019B83F310881B4B07
S1134DF81E681B4B9A88998897B28A42FAD101A8EF
S1134E08DC7AFCF73DFE2B78E4B2013BDBB22B7075
S1134E180BB9FFF77FFB019B83F3108847F6FE73FA
S1134E289F4202D8E40700D5103645F65E737B43EB
S1134E380193019B0B4A3000B3FBF2F30193019CED
S1134E4840F2E8320023002107F0E8FA22000023A8
S1134E588018594103B0F0BD685C0020E851002077
S1134E6800380A40A086010010B50400FFF7B0FF1F
S1134E7840F2E832002307F0B1FA2060A280200053
S1134E8810BD000010B5FFF7A3FF154B40F2E83240
S1134E98186059600023040007F0A0FA40F2E831D2
S1134EA8104B1A689B88121848431B19181A83B2A6
S1134EB8013900B2884203DD0B4901325B1818B28C
S1134EC80A4B1900FC310A6440F24012985220231C
S1134ED8074A11780B431370FBF7FAFC10BDC04660
S1134EE868560020B053002018FCFFFFC053002070
S1134EF8B8530020F8B5150007000E001C00FFF792
S1134F0867FF084B186059609F609E81DD811C749F
S1134F18112305490A789A4313430B70FBF7D8FC0D
S1134F28F8BDC04698530020B853002010B5FFF7C9
S1134F384FFF0B000A4902008868C968994202D8E1
S1134F4809D1904207D9121A8B4101204042C11756
S1134F588018594110BD121A8B4110001900F9E745
S1134F68405C0020F0B5644E87B00191B388B188E5
S1134F789AB28B42FAD145F65E7353430593059B67
S1134F885E4A5F4CB3FBF2F30593059B277802282E
S1134F983ED09AB203920292032860D000231D00E7
S1134FA8012F21D12375FFF713FF019B029A236177
S1134FB843F680639B1A019A9BB2A060E160A383C5
S1134FC80AB900230FE043F67F62019991421CD885
S1134FD80A008B4219D90423039923708C466B4623
S1134FE862449B88226101252269002A50D1B37941
S1134FF804329343B37107232370237D002B00D11C
S11350086FE001232375237068E002232370D8E737
S1135018022F0BD1A28B23699B1A01252361394BDB
S113502822699A420ED9002323610BE0032F03D18E
S11350382369354A9B18F0E7043F0025022FEED870
S11350482561013543F67F622369934203D804221C
S11350589BB22270C8E7032323700023C4E7052FFB
S113506811D12369039A93420AD9029A01259B1AFA
S113507840F2D0729BB29342B6D804222270B3E7AE
S1135088002323619DE7062FFAD000231D00ABE718
S1135098217804291FD1B2798A43B27140F2D072BF
S11350A8934204D90523237001235B420CE00621B3
S11350B821709342F8D06422DB03B3FBF2F35A3A2B
S11350C80533B3FBF2F39BB273801B23F372B279FB
S11350D8173B1343B3712378072B8ED0280007B0EE
S11350E8F0BDA36903B198471020FCF70BFD2378A2
S11350F8072BF3D185E7C04600380A40A086010093
S1135108405C00200000FFFF80C1FFFF002210B5B3
S1135118044B04681A70FBF725FC21000120FFF7F3
S113512821FF10BD605C0020F0B587B0040005A81D
S1135138FCF7A6FC3F490A78531CDBB20B700AB98A
S1135148FCF7A3FC059B83F310883B4E37683D00AE
S1135158002D3AD1636825722360FFB13B7A002B96
S113516837D0FFF7E3FE2B003A6800920193A94277
S113517803D1824201D90090019500980199121A2D
S11351888B4100920193019B256813B9009BAB42A4
S113519823D9009B5D1B00233D603B720123200043
S11351A8276123723460FFF7B1FF05A8FCF768FC98
S11351B8204A1378013BDBB213700BB9FFF7AAF945
S11351C8059B83F3108807B0F0BDAC42EDD02D6980
S11351D8BEE73B6801950093D5E73E692EB9009B6D
S11351E8ED1A25603C612661DFE73268019B00986F
S11351F8019912184B410BB9954208D2009B009AA9
S1135208EB1A236033689B185B1B3360EAE7316948
S113521821B9AD1A256034612161C6E708683700F1
S11352280290002003900E000298039900920193C3
S1135238DFE7C046685C0020645C002070B5124C4F
S1135248236843B1002201251A601A7200232068DA
S113525858B903B1206070BDC1682B00026911B14F
S113526822608847F2E71000F2E70268002AF3D0C8
S11352783BB9037A002BEED101230372FFF746FFF3
S1135288E9E72060F5E7C046645C0020F7B52E4DD9
S1135298040001A8FCF7F4FB2A78531CDBB22B703A
S11352A80AB9FCF7F2FB019B83F31088274E336895
S11352B86BB901A8FCF7E4FB2B78013BDBB22B703C
S11352C80BB9FFF727F9019B83F31088F7BDA342B5
S11352D82DD1237A0BB3FFF729FE8C4600212768CA
S11352E821722469ACB13A0034600B003E000F000F
S11352F8614502D1824200D90600921BBB411100CC
S1135308236820005B18236001232372FFF7FEFE45
S1135318CFE73460FBF726FBCBE723692BB1216881
S113532833601A6852181A60C3E73360C1E71A0079
S11353381B69002BBDD09C42F9D1236921681361F4
S1135348002BEED1B5E7C046685C0020645C002001
S11353580122F0B52E4BA1B0079003915B7B01921B
S1135368002B00D16AE114AB9C1C21000220FFF73A
S1135378DBF92378019323B103230193019821B026
S1135388F0BD0C2201991AAC17A806F057FB2100AE
S11353980420FFF7C9F9052015A9FFF7C5F900236B
S11353A8E75E1C9B08931B9B09931D9B0A9317B3E9
S11353B8012F29D139000898FBF7A6F90590154C57
S11353C8FBB20399F8B20E93FBF7A2FE23000B90ED
S11353D848331B78104E1093159B0C9317AB04930A
S11353E8002302936B461B7A0693069A109B9342FA
S11353F814D86523C1E742F21071099B5A000A9B2D
S11354085B189B180593DAE701235B42FAE7C04669
S1135418D45A0020385A0020045A00203379002B2B
S113542800D1DDE1069A05990C98FBF789F9049BEC
S113543812901B8809980F93012F03D10021089813
S1135448FBF762F93568D44A2B002A331B78D24912
S1135458DB009A5C5B18119200221393119BD1B262
S1135468994200D277E104226B690B998B429B41E4
S11354780F995B421B0119430B00129919430A4304
S1135488049B95B21D80002D00D0A9E1236C002B4C
S113549800D17BE1A31DDB8FC04ADB00D3581B8DF1
S11354A8049373B3FFF794FCA66BE76B236C1A00A1
S11354B89C462B0092197B4102260027B6185F41AF
S11354C88F4200D95FE102D1864200D95BE102260E
S11354D87642F717B61A9F4136184F41A31DDB8F42
S11354E8AE4ADB00D3586046198DFBF747F9012310
S11354F80FB9B04200D800235B019BB20493236C1C
S11355088BB3A31DDB8FA54ADB00D3581B8B53B386
S1135518FFF75EFCA26BE36B0F0000210600206C12
S1135528801859410222002312184B41BB4200D96A
S11355382EE102D1B24200D92AE102225242D31703
S1135548121A8B4192197B4110001900A31DDB8F9D
S1135558924ADB00D3581A8B012309B9824200D836
S113556800239B019DB2049B17AF2B431D00029B94
S11355785B000493DD53CDBB029BDE00874B9A5935
S113558840F2E733D2699A4230D916A90120FFF7CD
S11355983FF814AAD11C2800FFF73AF87F4B0120E2
S11355A899592431FEF7BEFF7C4B711DC918280098
S11355B8FEF7B8FF40F2E831784B0E989A59D36950
S11355C8B3FBF1F32021525E9BB20C9900F002FD6B
S11355D8060016A90120FEF7A5FF14AB2800D91C64
S11355E8FEF7A0FF16B98023049AD353029B17AA87
S11355F85B009B5A002B00D0E8E0FFF7E9FB0B9B0C
S1135608069A2364A31DDA87029B644AA063E163B4
S1135618DB00D3581AA91B7C887889781A1C49B2EC
S11356285BB28B4200DD021C00234734E35650B2C0
S1135638834203D002212270FFF76CFB079B002BE7
S113564800D19BE640F20121554E080003F0C6FA4A
S11356583278544B012A00D0CAE0C733039A1AACF3
S11356681A7003F051FA0E232380FFF75DF9022123
S11356782000039B079AFFF703F90025FBF74AFE6E
S11356880422494B49481A70FFF700FEFFF7F4F962
S11356980322210083202580A570FFF75FF9444C7D
S11356A8444B20001F68FFF7F1FD20002760676066
S11356B8FFF73AFD0422404B404C37781E682368B4
S11356C8134234D03E48FCF759FA2A000321380023
S11356D8FCF742FD3B48FCF751FA2A000321207EDF
S11356E8FCF73AFD3748FCF749FA2A000A21E06931
S11356F8FCF732FD3348FCF741FA2A000A21206AF4
S1135708FCF72AFD2F48FCF739FA2A000A21300051
S1135718FCF722FD2B48FCF731FA1F20631D1856AD
S11357282A000321FCF718FD2748FCF727FA236809
S1135738DA0709D5079A03992263220034321170D3
S113574822002C32A66217705B0602D50423383473
S11357582370002311E6139B59680D910C210D9BAE
S113576851439C468C44595EB94208D163465968F2
S11357780A9B8B4203D163469968814201D0013266
S11357886CE6002270E600260027A7E60495B6E634
S113579800200021DAE6C046ECD90000045A0020B3
S11357A80D5C00200C5B00200F400020105C0020E2
S11357B8245C0020885A0020085C0020945A0020A9
S11357C861D0000000D00000ACCE0000602213427B
S11357D801D06623D1E51B0600D40AE66723CCE58D
S11357E8029B083601330293049B02330493F9E5C0
S11357F8C03333E770B540F2E836114B0D005C7BDB
S113580856430323CCB9FFF7F3F828000221FFF726
S113581881FAFFF731F921002200D120FFF79EF821
S11358280422084D084B28001A70FFF72FFD2800A2
S11358382E606E60FFF778FC2300180070BDC04628
S1135848D45A0020245C00200F4000201FB56B466A
S1135858D8711348FFF71AFD1248FFF717FD6B4676
S11358680122D91D8020FFF779F86B46DA790E4BAF
S11358789AB9013269461A70202393200B7303A93D
S1135888FFF76CF801236A465B429381022203A95D
S11358981000FFF763F805B000BD02221A70F1E7A3
S11358A8245C0020105C00200F400020002010B56C
S11358B8FFF7CCFF034B1B6813B15B6803B1984730
S11358C810BDC0463C5C0020002010B5FFF7BEFFA9
S11358D8034B1B6813B1DB6803B1984710BDC0467E
S11358E83C5C002010B50A4B0A4C987AFFF7AEFFCF
S11358F823685B060AD5383423783BB10648FCF79D
S11359083DF90648FCF73AF90023237010BDC04658
S1135918D45A0020945A002066D00000ACCE00006F
S1135928F0B591B0079317AB1B881700019318AB18
S11359381B880AAA029319AB1B78039104931AAB28
S11359481B78040005931BAB1B78069331239B1823
S1135958DB7F099335239B18DE7F9A4B5B7BB3B1BE
S11359680AAB0021981D122206F068F8039B0BADC0
S11359782C800C93079B0D972B73019B2900EB81BB
S1135988049B03202B74069B6B74FEF797FE8E4BC7
S11359981E7073425E41029B764233400293049B1D
S11359A80BB9FF330593894B059A1A7074B1012C0E
S11359B800D16BE0864B1A68920704D0039A9F6063
S11359C81A71029A9A81002011B0F0BD814D0AAB78
S11359D8991C01229F200C70FEF7C0FF2B00E833AE
S11359E81C702B00EC331F602B000B22F43303983C
S11359F81A70FAF70FFE2B00F53318702B00B83322
S1135A081C70019B0499DA002B00BA331A802B000E
S1135A1841F60402BC331A802B00BE332A001C70E2
S1135A280123BF32594011702A000599C032117000
S1135A38069A02B1F1332A00C13213702B000122F5
S1135A48C233E8351A70FFF74DFF2878431E984192
S1135A58C0B2FFF7B7F803F005F803F055F85E494C
S1135A68082218310BA806F0A4FA082240F2C060F4
S1135A780BA9FFF739F802F0DDFF41F64073029AEB
S1135A885343B3FBF7F3554A136093E70AABD91CA6
S1135A980023504D22009F200B70FEF75FFF2B0060
S1135AA8E8331C702B00FEB2F833039A1E704C4B7B
S1135AB839009B5C1000053E0893FAF7F1FD012EAE
S1135AC807D86B46019A9B880C2A00D20C239BB2F8
S1135AD801932B00089AF9331A702B00079AFA33AA
S1135AE81A702B00FB3318702B000122B8331A707C
S1135AF82B00019AC4331A802B00049AC6331A70F7
S1135B082B00059AC7331A702B00069AC8331A70EB
S1135B182B00099AC9331A70FFF7E4FE2B00E83307
S1135B281878431E9841C0B2FFF74CF802F09AFF68
S1135B3802F0EAFF6B461B7A01936B46019A1B79C4
S1135B48F82A04D94DF26E43C0F200031B780133DE
S1135B58DBB25B10DEB21F2B2DDD0336B608320034
S1135B68630001339A400BA90A70A0200122FEF7B2
S1135B78F5FE019B33B1F600A11940F20670C9B2D3
S1135B88FEF7E6FFC9352B78042440F23670012B62
S1135B9813D1FFF7B5F8A043C1B240F23670FEF74F
S1135BA8D7FF029A534253410E4A5B4213404FF6C1
S1135BB8FF729B1867E70024D1E7FFF7A1F80443B5
S1135BC8E1B2EAE7D45A0020905A00200E4000209F
S1135BD8945A00200C5B002064DB00008C5A0020DF
S1135BE844DA00000100FFFFF0B58FB0019314AB55
S1135BF880CB02911B780592069316AB1E8817ABCF
S1135C081B780500039318AB1B7804931BAB1B7814
S1135C180793754B5B7BF3B108AB15220021D81CA5
S1135C2805F00CFF029A08AB9A701D80059B069A32
S1135C380993019B0B970A9308AB1A74039A1900EA
S1135C481A75049A5E825A750420FEF737FD674B6D
S1135C58029A47331A704DB1012D57D040F6890086
S1135C68FFF74EF804210143C9B2A1E0604C0B22AE
S1135C782300E8331D702300EC331F6023000198D0
S1135C88F4331A70FAF7C6FC2300F53318702300AE
S1135C98059AF0331A602300B8331D702300F60008
S1135CA8BA331E80230041F60402BC331A80230051
S1135CB8BE3322001D7001230399BF32594011706D
S1135CC8049A02B1F1332200C13213702300012275
S1135CD8C233E8341A70FFF705FE2078431E984152
S1135CE8C0B2FEF76FFF02F0BDFE02F00DFF41499E
S1135CF80822183108A806F05CF9082240F2C060AE
S1135D0808A9FEF7F1FE02F095FEA7E7384C019AC0
S1135D182300E8331D702300FDB2F8331D70364BA1
S1135D2839009B5C1000053D0593FAF7B9FC012D79
S1135D3804D8331C0C2E00D20C239EB22500059BDC
S1135D48F9352B702300069AFA331A702300FB33B3
S1135D58187023000122B8331A702300C4331E803C
S1135D682300039AC6331A702300244AC7331278CF
S1135D781A702300049AC8331A702300079AC93387
S1135D88E8341A70FFF7AEFD2078431E9841C0B27C
S1135D98FEF718FF02F066FE02F0B6FE2B78062B1B
S1135DA800D05BE740F68900FEF7AAFFFB2101401B
S1135DB840F68900FEF7CCFE02210298FEF7AAFFFE
S1135DC80F4B1C9A1A6005220E4B1968114207D012
S1135DD8019ADF611A761C9A1A62029A0533DA77F5
S1135DE800200FB0F0BDC046D45A0020385A002015
