S01200004C6F526153616D706C652E7372656342
S1130000804C00206D370000FD1000008B110000B3
S11300108B1100008B1100008B1100008B1100006C
S11300200000000000000000000000008B11000030
S11300308B110000000000008B110000710900000A
S113004000000000000000006D0E00000000000031
S1130050000000006D0E0000000000000000000021
S1130060000000000000000000000000757800009F
S1130070000000000000000000000000000000007C
S11300800000000000000000250D0000000000003A
S1130090DD0D0000000000000000000095360000A7
S11300A00000000000000000000000008D0D0000B2
S11300B000000000AD0C0000000000000000000083
S10B00C0000000009171000032
S11300C810B5094C1022002120000BF037FA074B19
S11300D81B7813B91333E3722373054B1B780BB9DD
S11300E80133A37310BDC046AC5A0020D05A002077
S11300F8A85A002030B585B00400092240F29F2098
S113010801A904F0AFFC6B461D79002301A8AB429A
S113011814D1032B10D869465A1C0A716A465B002D
S1130128210A0532D1546A460632D45440F29F203B
S1130138092201A904F09EFB05B030BD01004278F4
S113014889781202521802309442F5D00133DBB296
S1130158DDE7F7B500255F4B5F4C18605F4B40F255
S1130168E8310A205D701D7003F0B4FB0023E05EE3
S1130178290008F041FD40F2E831142003F0AAFBFD
S11301880023E05E012108F037FD40F2E8310A203F
S113019803F0A0FB524C534B0122A36040F20533F9
S11301A8A380514B02210520E560DA70220000F09B
S11301B8ADFF04204D4B2360205607F0FBFA04F0F2
S11301C86DFA280005F0F2FF494B1B78012B01D189
S11301D804F034FB474B01210020185E012508F088
S11301E80BFD6B460024D91C2A009D200D7004F0D9
S11301F87BFA414B20001D70404B414F1C70414B12
S1130208414E1C70414B1C6005F0D0FF6B462A0020
S1130218991C96200D7004F067FA6B4602229C80A4
S11302288F2001A904F060FA2000042104F038FCAE
S11302384FF6FF71080008F0EDFA40F6AC00FFF73E
S113024859FF40F68900FFF755FFFFF739FF3800DB
S113025804F0E2FE300004F0DFFE2D4B0222FB60C6
S11302682C4B01A9F3602C4B17201C706B469C8007
S11302783C607C603C723C6134607460347234610C
S113028804F0C6FB6B465A79033451101300294015
S1130298A9402B400B439110294089000B43D110EE
S11302A82940C9000B431111294009010B4351117D
S11302B82940921149012A4092010B4313436A468B
S11302C812792A401202134303B91C0008F08EF96C
S11302D82000FEBD145C0020E45A0020115C0020BC
S11302E8D45A0020ED19000000600040554349002D
S11302F8D05A0020BC5A002007400020E55B0020AB
S1130308FC5B0020E45B0020E85B0020E05B00204D
S10F03181562000031620000105C00203F
S1070400FFFFFFFFF8
S1070404F7AFC1FF8A
S1130440010000000101FF01804D002000100100A7
S11304508182800184858302878886038A8B89044C
S113046008078D0000000000030000002460002045
S11304703440002000000000246000208C60002034
S1130480F4600020000000000000000000000000F4
S11304900000000000000000000000000000000058
S11304A00000000000000000000000000000000048
S11304B00000000000000000000000000000000038
S11304C044F2800044F28003C2F20000C2F200034E
S11304D010B5834205D040F20003C0F2000303B11B
S11304E0984710BD44F2800044F28003C2F2000039
S11304F0C2F200031B1A9A10D90F8918491010B5BB
S113050029B140F20003C0F2000303B1984710BDC3
S113051010B544F69844C2F20004237873B9FFF787
S1130520CFFF40F20003C0F200032BB140F20840B9
S1130530C0F2000000E000BF0123237010BDC046DC
S113054040F20003C0F2000310B54BB144F69C41E5
S113055040F20840C2F20001C0F2000000E000BF17
S1130560FFF7C0FF10BDC0460122014B1A7070474F
S1130570555C00200122014B1A707047545C002026
S1130580064B82B21B68012A03D80022D8701A8055
S1130590704740F200421A80FAE7C0460840002043
S11305A00020044B1B6803B9704701301B6800B27C
S11305B0F9E7C0467C4D002010B570B1094A0A2302
S11305C0D45E002311689C4207DD814206D1118963
S11305D00131118100215268D15410BD01331BB285
S11305E00C31F0E7445C0020002210B50260013AAF
S11305F00A80074A0300106840B104681460426826
S11306001A600822835E0B80FFF7D6FF10BDC04638
S11306107C4D002002001F205AB1012308490868BC
S1130620824207D98868824204D8054ADB009B18B5
S11306301879704701330831172BF0D11F20F8E7E0
S1130640C8D50000034B00201B78082B01D8024AB0
S1130650D05C704707400020BCD5000070B50D4B3E
S113066001005B7B01203BB10B4B0C4A48331D78E6
S11306700023AB4201D1002070BD107930B1146861
S11306806668B14202D3A468A142F5D90133DBB252
S11306900832EEE7AC5A0020105A0020045A002019
S11306A0154B00B5185C0A2823D80BF0C3FB1E16A3
S11306B01612060D22221A161200002001230B39ED
S11306C08B424041C0B203E00C394B425941C8B29D
S11306D000BD002002230A39F2E700200323093970
S11306E0EEE7002004230839EAE700200523073950
S11306F0E6E70020ECE7C04660D50000014B18880F
S11307007047C046005A00204A425141094A4942B2
S1130710114042F2107289180300C8430A2B07D80B
S1130720054AD35C054A9B009B58C81803B9C843C3
S11307307047C046F0D8FFFF60D50000DCD400004D
S113074003000D48D200125830B5546802209C4270
S113075011D895689D420ED3D2681B1BB3FBF2F4EB
S113076054431D1BA34206D12800012A03D08A4208
S113077092415242500030BD045A00200300002030
S113078082B00190D1B142F20F7291420CD840F282
S1130790E73291420AD9013242F210700192019A71
S11307A0401AB0FBF2F0584302B070476422632948
S11307B0F2D80A220929EFD80122EDE70121FBE74B
S11307C0F7B5089C0193072845D10B1C072900DDC8
S11307D0031C254F5EB2BC46244DB00063704359E0
S11307E00127634504D0224FDB195F427B415F0040
S11307F0A023A770062906DC1E4B28589E5D1E4BBD
S1130800B340B3FBF0F340F2E835019E101F5843A8
S113081075434019400018B15D1E2818B0FBF3F071
S1130820824200D20200980053430025A2600BB11B
S113083001335D08431B40F2E83001D50F4D5B19CD
S113084093FBF0F3E360062905DC3F2A04D8531C2C
S1130850FE221340A360F7BDF8210B00F72AF9D854
S1130860073213000B40F5E790D00300B4D4000026
S1130870E05EF8FFD4D4000040420F0019FCFFFFF3
S1130880094B1A78012318001A420BD1074A1100A8
S1130890FC31896C31B940F28A23D05C0138431EA3
S11308A09841C0B27047C046C8530020D0530020BE
S11308B00423024A11780B4313707047A453002099
S11308C00123024A11780B4313707047A45300208C
S11308D040F28823044AD35C23B10223034A1178EB
S11308E00B4313707047C046D0530020A45300201C
S11308F040F28C23044AD3581A780023072A01D1E2
S1130900024B1B5CD8B27047D0530020ACD400001B
S1130910044B10B5FC331B6D13B1DB6803B198476E
S113092010BDC046D0530020082310B5034A1178E7
S11309300B431370FFF7ECFF10BDC046C8530020F3
S1130940042310B5034A11780B431370FFF7E0FF3B
S113095010BDC046C8530020022310B5034A1178C5
S11309600B431370FFF7D4FF10BDC046C8530020DB
S1130970704700000379012B01D1014A13707047BD
S1130980FC510020002382B00193054BDB88C01A80
S11309901E2380B243430193019880B202B0704792
S11309A0FE260A4010B5042401210748074B82792A
S11309B01975A243827100220020197000211A6166
S11309C09860D9609A8310BD00380A40185C0020F2
S11309D00200811C002010B51378000184B21800B5
S11309E03038C0B2092805D918006138052806D85E
S11309F0573BD8B2013220439142EDD110BD1800CB
S1130A004138052801D8373BF3E74FF6FF70F5E787
S1130A10F0B500230500CC5CA446260934006746E3
S1130A2030349F2F00D907340F262C70CC5C34400F
S1130A3026003036092C01D93734260001339CB204
S1130A406E7002359442E6D30023520092B283546E
S1130A50F0BDF0B587B003900191029213B9042060
S1130A6007B0F0BD019A54009C42F8DB00252E002B
S1130A70E41A24B205AFD4B9029A6B1C525D1DB2BC
S1130A803A700024029B6A1C5B5715B238007B70D5
S1130A90FFF79EFF4FF6FF739842E0D0039B9855F3
S1130AA00136019B36B2B342E5DC0020D8E730239F
S1130AB0A4B23B70012CE4D0023C302324B2E5E71D
S1130AC00420704713B5FFF76BFDC0B2012801D0B5
S1130AD0042016BD6B469C1C210001A8FFF784FD71
S1130AE00023E25E012AF3D1019B1B785BB2302B19
S1130AF005D10022044B3F3300201A70E9E7312B63
S1130B00E6D1014B3F33F7E79451002004207047AE
S1130B1030B585B0FFF744FDC0B2042401281AD1D2
S1130B206B469D1D290002A8FFF75EFD2B8803ADCF
S1130B3021002800029AFFF78CFF040058B96B7853
S1130B402A781B0412061A43AB781B021343EA7873
S1130B501343024A1360200005B030BD6C5A0020D4
S1130B60030030B541180A2400208B4200D130BD67
S1130B7000229A566043303AD5B20133092D01D888
S1130B801018F2E701204042F1E7000013B5FFF727
S1130B9007FDC0B2012801D0042016BD6B469C1C81
S1130BA0210001A8FFF720FD0023E15E0129F3D114
S1130BB00198FFF7D5FFC0B208B10128ECD1024B70
S1130BC03C3318700020E8E79451002013B5FFF778
S1130BD0E7FCC0B2012801D0042016BD6B469C1C62
S1130BE0210001A8FFF700FD0023E15E0329F3DCE7
S1130BF0002301981AB2914212DCC9B20029EBD049
S1130C00FFF7AEFF431E9BB2DF2BE5D8C0B2431EF5
S1130C10DBB2DF2B02D8054B3D3318700020DCE734
S1130C20C25C0133303A092AE4D9D5E79451002053
S1130C30704700207047704770470000502210B57D
S1130C40034904480AF039FF0322034B1A7110BD0B
S1130C50F0D2000094510020E8500020024B187894
S1130C6043425841C0B27047E451002002001B23A4
S1130C70C0094042184052005040C0B270470A2395
S1130C8070B58360036C010001330364030008330F
S1130C90DC6FC268A36820685D6840310823A847F8
S1130CA070BDEFF30380103840B2704730B585B0A3
S1130CB0FFF7F7FF124B8000C5586A68D36959786B
S1130CC0002304391C00022905D8137C0D495B005C
S1130CD05B5A02349BB2E96879B12D6901A80471A9
S1130CE00195022C07D1127C064C90325200125B03
S1130CF0120401329B188360884705B030BDC0469A
S1130D00C04D002000260A401FB5436A4BB18468D9
S1130D102478029169460A71826A009468460392B3
S1130D2098471FBDF8B5FFF7BCFF174B8000C058AC
S1130D30437CC6685B00F6183500FE356C8A83690F
S1130D40A4B29BB18268D26882B90178426959B170
S1130D50178801315218013B3780426183610BB916
S1130D6001339C436C82F8BD1778F2E7002343619A
S1130D7001331C42F5D16B8899B2002BF2D10222C7
S1130D80FFF7C2FFEEE7C046C04D002010B5FFF7E5
S1130D9088FF114B8000C058437CC2680133DBB22A
S1130DA05B00995A036A89B223B90422C361FFF72D
S1130DB0ABFF10BD0278C36952B119800233016AD6
S1130DC0C361013901620029F3D10122C161EEE757
S1130DD01970C3690133F2E7C04D002070B5FFF705
S1130DE060FF114B8000C0580126437CC468013366
S1130DF0DBB25B00E4182188FE34628889B21300F8
S1130E0095B23340324207D102231D4209D1DB1887
S1130E1010221D4201D170BD20226381FFF774FFAF
S1130E20F9E70822F9E7C046C04D0020436882680C
S1130E301B785B009B5A02699BB20AB181695354C7
S1130E4083690133836170470123C8B28340002062
S1130E509BB20AB918001300034A090A4901891808
S1130E60088100204B81704700000A4007B5FFF756
S1130E7018FF064B8000C3583BB19A682AB15979D0
S1130E80DB68684601910093904707BDC04D002080
S1130E9040F21A23044A0020D35A812213405A1ED6
S1130EA093410B707047C04600C07E4006207047D7
S1130EB006207047062070470620704706207047BA
S1130EC00A0010B5034B11CB11C2034B11CB11C255
S1130ED0002010BDE8D10000E0D1000006207047DA
S1130EE0062070470620704706207047062070478A
S1130EF0C36A0D4A10B59A180133C362036B816A41
S1130F00013B0363094B4C1C84621800140CFE3033
S1130F1092B2448242811A000978FC3251638122E0
S1130F20FF335A7510BDC0460000F0BD00C07E40BE
S1130F304143032903D9890801390029FCD17047A9
S1130F40254A03001268254810B5254982420BD86A
S1130F508A4209D02348824206D02348824203D0E1
S1130F6040F2F610DA6010BD2048214C1218B2FB92
S1130F70F1F10800A24202D901200840081840F209
S1130F808352D86006204A43B2FBF0F21A6140F261
S1130F9076324A43B2FBF0F25A6158224A43B2FB1A
S1130FA0F0F29A61134A99604A43B2FBF0F2DA61B3
S1130FB0114A4A43B2FBF0F21A62104A4A43B2FBA6
S1130FC0F0F25A620E4B1A78012A03D001221A70E9
S1130FD0FFF7AEFF0020C6E7BC4D0020FF083D0030
S1130FE040420F0080841E00C0C62D003F420F0007
S1130FF03F8AF701B86A0500C0B0070068ED220017
S113100090C07E4044F6003313B5A522019340F20C
S11310108013F7210F4CE2500F4B9D3A5A705970D0
S11310205A705B78934200D1C04681681020FFF764
S11310307FFF40F21A22094BA352A35A98B203B974
S113104016BD019B1BB1019B013B0193F5E71420E5
S1131050F6E7C04600C07E40FFC07E4000AAFFFF06
S113106013B5104901900B6B5B0612D57F240E4B10
S11310705A7D22405A7500225A7501900B6B5B060B
S1131080D80F002B08DA019B2BB1019B013B019384
S1131090F4E7019B0BB9142016BD019B013B01939E
S11310A0E1E7C046FCC07E40FFC07E4040F623021C
S11310B00F4B995C0F4A890709D540F622015B5C06
S11310C01BB193680C4A136070471369FAE740F642
S11310D02001595C890705D540F61901595C53680C
S11310E0CB40EFE740F61801595C1368F8E7C046B7
S11310F000E00140804C0020BC4D0020044940F237
S113110040100A00FE32538C095A0B405386704734
S113111000600040F7B5FF27019283080A4A0326BE
S11311209B009B183A0040F200350640F600890106
S1131130B2403940B1405C59800094430C435C5147
S1131140019A024B1A50F7BD00E100E0C04D0020A7
S11311501F22430910401E3A8240044920339B0059
S11311605A50BFF34F8FBFF36F8F704700E100E019
S1131170002310B50360436811201856030021337F
S113118001D0FFF7E5FF002010BD00BE704700004E
S113119010B5034B1B689B780BB10AF073FC10BDB0
S11311A008400020F0B50A0085B020B1012839D0EC
S11311B0002005B0F0BD4B490B00EC331C680B005C
S11311C0BA3318880B00BF331B78C1315D1EAB41A5
S11311D00978C00801391B18481E81414900891843
S11311E0DB001833C900591840F2E8334B43621E40
S11311F09B1841F65732B3FBF4F3012094420FD805
S113120040F6B732001894420AD840F2CF72013047
S1131210944205D840F2E7320430944200D90238AF
S1131220C018C6E72F4B00201900F9310978019046
S11312300A2902D82C48415C01911900F8310E7832
S11312401900C43118000F881900FA331B78C6310D
S11312500433C830097804780393731F012B04D82E
S11312603B1C0C2F00D20C239FB2631E9C41D20066
S11312702401A4184A4251411423B50049420B40A9
S1131280641BE418B31E0293062E07D9310001989B
S11312900834FFF705FA08B1B31E9D00E343DB17DA
S11312A01C406419013C94FBF5F5039B6B43DA196C
S11312B013000E33062E00D9023B0C4A0199525CEE
S11312C00A2A0ED80A49920052589B000299013307
S11312D08B4040F2E8305843531EC018B0FBF2F084
S11312E067E7FFDEE45A002028D5000060D500003F
S11312F034D50000F7B500921A000B320192032690
S11313000269019DC468AD18B5434669B54214D855
S1131310050050352980010048310B800300141B5F
S11313204A331C8002238360009BC364686B836818
S113133000685C680423A047FEBD02224260026686
S113134002008832156886692A199446B76832689B
S1131350D719BC4500D0624644663469AD18C260F2
S11313604561A14205D8083202618AB20267426728
S1131370C5E7FFF784FCDFE710B5094B012806D168
S1131380084AC7331170197007F0DEF910BD1A004E
S1131390BF321278002AF9D1024AC0331170F2E741
S11313A0E45A00200640002010B5044B1420185EB7
S11313B007F018FC0128F8D010BDC046E45A0020FC
S11313C0010010B580B90948094A121A0AF0BAF89E
S11313D00848094A0949121A0AF06FFB0848094AE1
S11313E00949121A0AF069FB10BDC046984C002046
S11313F01062002000400020004000200000104047
S113140000400020804000204004000007B56B46E7
S1131410D87107330121180007F0ACFB07BD0000A9
S1131420030070B572B6BFF34F8FBFF36F8F0079AF
S1131430082809D888B3013807282ED80AF0FAFCFE
S1131440706E2D0D2D2D2D0B0300EF22103B13423A
S113145001D0402821D1334B53E09C68324B1B7898
S11314605BB2D3B10623314AD356012B15D00223E4
S1131470D05E0023D15E0425525F431C93FBF2F53A
S11314806A439B1A1BB2E4B28B420CD1082C04D1E0
S113149007F060FA2000FFF77BFE62B6BFF34F8FC0
S11314A0BFF36F8F70BD2300613B192B05D8203C1F
S11314B0E4B2200007F00AFA29E00A2C06D00D2C29
S11314C018D0082C1FD0202CE7D0F2E7200007F01A
S11314D0FDF92000164CFFF75BFE2378002BDCD0CF
S11314E007F038FA07F036FA0122124B1A7000237B
S11314F02370D2E7200007F0E9F92000FFF748FE47
S11315000B4B012208E0884204D007F023FA2000A4
S1131510FFF73EFE0022064B1A70BEE7064BF0E7CB
S1131520064BEEE730520020F4510020E851002031
S1131530E5510020E4510020F551002031520020F3
S113154013B5FFF72DF8C0B2012812D16B469C1CCD
S1131550210001A8FFF748F821780423019849B134
S1131560FFF7FEFAC0B20423082803D1013808F0BB
S113157001F80023180016BD13B5FFF711F8C0B227
S1131580012801D0042016BD6B469C1C210001A833
S1131590FFF72AF80022A35E012BF3D1019A1278F7
S11315A052B2312AEED1064A917A9372012901D1BD
S11315B00020E8E7034A137107F00CFDF8E7C04682
S11315C094510020E850002010B586B0FEF7E8FFE3
S11315D0C0B20424012810D16B469C1C210001A830
S11315E0FFF702F823881021019A02A8FFF731FAC5
S11315F0040010B902A807F0A9FA200006B010BD33
S113160010B5044B186820B102681A60FEF7D4FFC5
S1131610F7E710BD7C4D002010B50400FFF71EF85D
S113162030B10020034BE418034BA3424041C0B245
S113163010BDC046C02571CC80841E00002300B5B7
S113164007280CD1501F052816D80AF0F3FB0A030B
S11316500A1512120A78052191425B41DBB2180087
S113166000BD00228A560023062AF8D00721D2B2F0
S1131670F2E70A780A21EFE70023F0E740F28C232F
S1131680054AD358E0331B78022B00D0062340F2DE
S1131690882153547047C046D0530020F0B585B01C
S11316A0FEF7D0FF0138C0B201283AD940F28C26A7
S11316B01D4C1E4FA55929002A002B00FF31497EDD
S11316C0F03228781278EC33009749B21B680397FC
S11316D0FFF776F840F2F2170223E355B333FF33F2
S11316E0EA5C00253F33E254023BE55405F040F840
S11316F004F0ACFDA359E133187803F001F9A359C0
S11317001B78072B0DD1039806F0EAFE48B1280098
S113171005F086FA40F28823E25DE25408B106F04F
S1131720B5FE05B0F0BDC046D0530020B055002032
S1131730F8B540F28C2334490200CB581C00E03445
S1131740207818B102284FD00320F8BD42B91A00FE
S11317500D331532FF32FF3303CB03C20020F4E70D
S11317600220012AF1D00130022AEED122700800B1
S11317700C00E130CD34FF30FF34E0CCE0C060CC6D
S113178060C040F2F2100A541A000020503254781B
S11317902CB31478022C22D124221C0042439A1820
S11317A0106EFC34A06164321278FF335A7640F232
S11317B011228C5C313A8C54043288509A7F40F266
S11317C0F013CA5403220233CA540022013BCA5400
S11317D040F210230022CA54FFF760FFBEE7013035
S11317E024320428D3D1F3E73AB9227004F02EFD51
S11317F005F066F8FFF742FFB0E7012AA5D0032001
S1131800022AA2D1AAE7C046D0530020002330B553
S11318100360CD5CDC00A540046801332C43046004
S1131820DCB2A242F5D830BD03000020112B03D84E
S11318300248D840012318407047C04620070200E0
S113184070B50C4CE268137D2BB115006368A46875
S113185010359C4200D170BD1E788E4205D0AB423B
S113186001D11300F5E70433F3E7012258709A70AD
S1131870F1E7C0469053002070B50B49CA684B6825
S1131880147D507564B11400012589681034DE7824
S1131890587006B99D70A34203D113009942F6D142
S11318A070BD0433FAE7C046905300200B4A30B5AC
S11318B053689168D26814001034994204D100230B
S11318C05A1E9341D8B230BD1D788542F8D0A34248
S11318D001D00433F1E71300EFE7C0469053002032
S11318E0EFF31080012383F31088064B196819B9AC
S11318F0054A1170403111701A6801321A6080F380
S1131900108870478052002040030A40EFF3108390
S1131910036072B6704710B52120FFF719FC1D2033
S1131920FFF716FC10BD70B50D0014002800A1B21D
S113193007F020F90028F9D1200070BD114BF7B54C
S113194018780D0091B2C14000270F4C0F4E019141
S11319508020277080023770217859B10199DD61A8
S1131960196294B22800A1B207F004F90028F9D151
S11319702000FEBD31780029EAD101380028EBD1DE
S1131980E6E7C046045200203152002030520020C5
S1131990054B012800D118601A68D20702D51A68CD
S11319A0104318607047C0467C520020044B10B5A9
S11319B01B68DB0702D50220FFF7EAFF10BDC04613
S11319C07C52002010B572B6BFF34F8FBFF36F8FF8
S11319D0FFF7ECFF0122044B1A7062B6BFF34F8F7E
S11319E0BFF36F8F10BDC046105C002010B5FFF729
S11319F0E9FF10BD034B01201B6810B503B19847E4
S1131A0010BDC0460052002010B50400002020562E
S1131A1000B910BDFFF7FAFC0134F7E710B50A4B23
S1131A201C68E37813B10948FFF7EEFF1422A1887C
S1131A30074B4A431B689B181869FFF7E5FF0548E5
S1131A40FFF7E2FF10BDC04608400020ACC900000B
S1131A50505C002085CB000010B50248FFF7D4FF8E
S1131A6010BDC046ACC9000010B50400FFF7D6FF96
S1131A700448FFF7C9FF2000FFF7C6FFFFF7ECFF9C
S1131A8010BDC046AFC9000010B530B1152805D847
S1131A90034B8000C058FFF7E7FF10BD0148FAE789
S1131AA0D0D30000B1C9000010B5074B3C331B78FC
S1131AB023B10420012B05D1044800E00448FFF7BA
S1131AC0D3FF002010BDC04694510020D3C90000AC
S1131AD0C0C90000062310B588B001AC20002370F3
S1131AE007F0F0F8029B04221BBA69462000009319
S1131AF0FEF78EFF2000FFF7B7FF002008B010BDEF
S1131B00052310B588B001AC2000237007F0DAF883
S1131B106946029B20001A0C0A701A0A4A700322B2
S1131B208B70FEF775FF2000FFF79EFF002008B0C2
S1131B3010BD000010B5054B04209B7A012B03D186
S1131B400348FFF791FF002010BDC04694510020C8
S1131B50E4C9000000B589B000236A4601A81371E6
S1131B6007F0B0F86B461B7A2BB90748FFF77CFFE8
S1131B70002009B000BD012B01D10448F6E7042080
S1131B80022BF6D10248F1E7EBC90000F5C90000C9
S1131B90FFC9000010B5054B04201B7A072B03D1A5
S1131BA00348FFF761FF002010BDC0469451002098
S1131BB009CA000000B589B004236A4601A813715C
S1131BC007F080F86B461B7A2BB10448FFF74CFFF3
S1131BD0002009B000BD0248F8E7C04611CA000061
S1131BE01FCA000010B5074B3F331B7823B90648C2
S1131BF0FFF73AFF002010BD0420012BFBD103485E
S1131C00F6E7C046945100202ECA00003ECA0000E8
S1131C1000B589B043236A4601A8137107F052F84E
S1131C206B461B7A012B05D10548FFF71DFF0020E9
S1131C3009B000BD0420002BFAD10248F5E7C046E4
S1131C404DCA00005ECA00001FB5074B04221B6882
S1131C5069461BBA01A80093FEF7DAFE01A8FFF754
S1131C6003FF002005B000BD6C5A002000B589B008
S1131C706A464B2301A8137107F024F86B466A46A1
S1131C801B8969465BBA138001A80222FEF7C0FED5
S1131C9001A8FFF7E9FE002009B000BD4C2310B5F0
S1131CA088B001AC2000237007F00CF86946029B51
S1131CB020001A0C0A701A0A4A7003228B70FEF76D
S1131CC0A7FE2000FFF7D0FE002008B010BD52236D
S1131CD010B588B001AC2000237006F0F3FF029B1E
S1131CE004221BBA694620000093FEF791FE2000EF
S1131CF0FFF7BAFE002008B010BD532310B588B01A
S1131D0001AC2000237006F0DDFF029B04221BBA05
S1131D10694620000093FEF77BFE2000FFF7A4FE37
S1131D20002008B010BD0000124B10B51B88012B19
S1131D3008D0114B114A1B6812889A80037813B19A
S1131D40012B0ED010BD43781BB90D48FFF78CFE54
S1131D50F8E7102B03D80B4A9B009858F6E70A487B
S1131D60F4E743781BB903790BB10848EEE7084858
S1131D70ECE7C046F650002008400020F450002054
S1131D8093CB000064D3000070CA00008ACA00002C
S1131D9097CA000013B5FEF703FCC0B2012834D182
S1131DA06B469C1C210001A8FEF71EFC0023E15E8B
S1131DB001292AD10198FEF7D3FEC4B2012C1CD903
S1131DC0072C22D11248FFF71FFEFFF745FE072C10
S1131DD005D109F0E5F909F0CFF9FEF72FFF72B646
S1131DE0BFF34F8FBFF36F8FBFF34F8F094B0A4A77
S1131DF0DA60BFF34F8FC046FDE7002CE2D1074BFA
S1131E00187A07F0B7FB200016BD0424FBE7C04690
S1131E1093CB000000ED00E00400FA05945100208B
S1131E20F8B506000C000F274D1EAD003000E84049
S1131E303840092808D83030013CE4B2FFF7E6FA0C
S1131E40043D002CF2D1F8BD3730F5E710B5FFF7AB
S1131E50E5FD0948FFF7D8FD02210420FFF7E0FF64
S1131E600648FFF7D1FD90200221FFF7D9FFFFF7C5
S1131E70F3FD002010BDC0469ECA000003CE000042
S1131E80F7B505000E000192002803DA2D20FFF7B4
S1131E90BDFA6D4201230A221C00B34204D101267B
S1131EA00A27002C04DCF7BD01335443DBB2F4E70A
S1131EB0012C00D1002695FBF4F292FBF7F37B434F
S1131EC0D31A00936B461878012E0DD160B9019B8B
S1131ED013B11800FFF79AFAFF22009B13406343E3
S1131EE094FBF7F4ED1ADCE7303040B2FFF78EFADA
S1131EF00026F1E770B50D000400FFF78FFD0548DB
S1131F00FFF782FD290000222000FFF7B9FFFFF749
S1131F10A3FD70BDAFC90000272310B588B001AC84
S1131F202000237006F0CEFE0298052180B2FFF750
S1131F30E1FF002008B010BD00B589B06A462D232A
S1131F4001A8137106F0BEFE6B460221187AFFF752
S1131F50D1FF002009B000BD10B5044B03213D336F
S1131F601878FFF7C7FF002010BDC0469451002029
S1131F70002310B5934200D110BDCC5CC45401338E
S1131F80F8E70300F0B5D433040018680E00150018
S1131F9087B048B310231B1A1F000093934200D943
S1131FA017002300C133BAB2181831000193FFF7A8
S1131FB0DFFF2200D4321368FB1813600F2B1DD9E6
S1131FC0009BAB421AD22000B13003001A78197C6E
S1131FD04A401A70019A01339A42F7D12200010053
S1131FE006F01EFDF619ED1B2000C130102D07D898
S1131FF03100AAB2D434FFF7BBFF256007B0F0BDAF
S11320002700B1373B00009600991A7809784A40B6
S11320101A70009A0133013200929842F4D11022CE
S1132020390002A8FFF7A4FF02A90800220006F065
S1132030F7FC1022380002A9FFF79AFF1036103D72
S1132040D2E70000F0B58DB00C000190072855D1FF
S11320500126002702AB00221E819F7200230692F4
S11320600793089209930A920B930D79B54231D0E4
S1132070042D45D0002D41D12D4F2032380004A924
S1132080FFF776FF019B2B492B487B8406F0AEFAC1
S11320902A4BE6801E7040F6B833E36040F2E83322
S11320A0236140F2D073636141F28833A36141F24A
S11320B07073E361A3192572DD77214B63620223F8
S11320C0238523002A331D701E4BE3621E4B2363BA
S11320D01E4B63631E4B19001800E031E2300A887E
S11320E0008802430A801B4A1800110070C970C09E
S11320F0E0C9E0C01833183213CA13C30DB0F0BDE1
S113210002AB991D08200E7002F0D6F802AB591DDF
S11321100A4B06201B785A1E93410B7002F0CCF830
S113212002ABD91D09200F7002F0C6F8E6E7C046DD
S113213040570020625700206057002004400020D0
S1132140F080A6330000F0419A9909404000200035
S11321508056002080D6000040F28C23F0B5374C26
S11321600025E35840F2B4111A00E4325D541560BE
S113217040F20C22012032498FB0A150E03A9D5424
S1132180643298521A0018009988E8321180991D17
S1132190C97F17329172996AFC30016119002C31A0
S11321A009785174190015323031C0C9C0C2198F71
S11321B001261180DA6B42621A6C82621A00443280
S11321C0117840F228129954E832A554813A9D546A
S11321D02D329D546A466946167100951878FFF7AA
S11321E031FF40F21123E5547B33E2585F3B110089
S11321F0FF3BD5549E33E554FC31086940F2D011BD
S113220060501100FF31887F40F2DC11605489195D
S11322106554891966542A39515C40F2DF12A1547D
S11322202200E1321B19FF3223CB23C203CB03C2AA
S113223040F2F2130222E2540FB0F0BDD05300205A
S113224000010100F0B595B005930D230C2704920D
S11322500391C356C7570293837B1A9A9C464368DB
S11322600400136045780197BDB33A1C002F00DACF
S11322700022002552B201922089628983426D4175
S11322808618B342B6410299EDB231405600361871
S11322900291B34221D31B1AB3FBF2F042439E1ABC
S11322A093421AD1002F0ADC237833B1012306AA02
S11322B0207C11001371FFF7C5FE40F2010C237C52
S11322C0072B08D10026B74205DD0536072F02D0BB
S11322D0019E013EF6B273B20193039B019A28005A
S11322E01A70049B029A1A706246059B1A7015B004
S11322F0F0BD0000F8B5057903000620022D17D9BA
S113230003380F2D14D81F6801243B7A1A091B07C0
S11323101B0F934203D806349442A44164423868A4
S1132320FFF77AF901235840C3B214B10533D8B288
S1132330F8BD0420002BFBD10C2216006E43084B81
S11323403900F6183000FFF713FE0122AA40044BAF
S11323507472E033198820000A431A80E8E7C04603
S113236080560020F8B515002022134B1F001C00D6
S113237008372678CEB90134BC42FAD10F4C226812
S113238002B92360626802B1136000221A606360BC
S1132390AAB21871DD71581DFC34FFF7E9FDE3683A
S11323A001335B19E3603000F8BD013AD2B23B005F
S11323B0002ADBD10226F6E78C520020845200204A
S11323C0114BF7B51C68002317001E000090019103
S11323D01CB9019B00201E60FEBD009AD11AE2794F
S11323E001329142F5D322795D1CFA54EDB2E279BF
S11323F0611D7819FFF7BCFDE2790136551924688F
S1132400EBB29619E4E7C04684520020F0B504000C
S11324100F0016001D000A2085B0FBB11022002118
S1132420684609F08FF86A46A31F13706B460322AF
S1132430581C3900FFF79CFD0322310001A8FFF767
S113244097FD6B4602222900D81DFFF791FD22005B
S11324500221684608F074FE00B10F2005B0F0BDFB
S113246070B50568040002201DB126790B2E01D831
S1132470012070BD20002B7804226371691C083090
S1132480FFF7C4F96B790B3E2373AB79E381EA79E7
S113249012021343227BE3811207120F9642E7DDF7
S11324A02900200008311030FFF762FD237B200053
S11324B000221B071B0F1E00651C2830EA770270E0
S11324C022790836911B043A042907DD216809336F
S11324D08E5DEE77D51ACB180570636220002168F3
S11324E02C3089180422FFF791F90020C1E700007D
S11324F01FB5FEF755F8C0B20424012812D16B466B
S11325009C1C210001A8FEF76FF823880821019A7A
S113251002A8FEF79EFA040020B90822034802A983
S1132520FFF726FD200004B010BDC046AF510020C7
S113253000B589B001A808220649FFF719FD082251
S113254001A903A8FEF764FA03A8FFF78DFA002097
S113255009B000BDAF5100201FB5FEF721F8C0B28D
S11325600424012812D16B469C1C210001A8FEF70B
S11325703BF823880821019A02A8FEF76AFA0400AE
S113258020B90822034802A9FFF7F2FC200004B096
S113259010BDC046B751002000B589B001A808227B
S11325A00649FFF7E5FC082201A903A8FEF730FA63
S11325B003A8FFF759FA002009B000BDB751002065
S11325C010B586B0FDF7ECFFC0B20424012812D187
S11325D06B469C1C210001A8FEF706F823881021F5
S11325E0019A02A8FEF735FA040020B91022034824
S11325F002A9FFF7BDFC200006B010BD9F510020CA
S1132600242330B58BB003AC2000237006F05AFBB2
S11326100D4B68461D7A0499EA1F53425A415200F1
S1132620FFF7A6FCFFF7FAF90848FFF7EDF9072DC5
S113263004D16B4604211888FFF7F2FBFFF70CFA6C
S113264000200BB030BDC04694510020AFC900003B
S113265010B5013A92B2013208F074FF10BD0000C7
S1132660F0B5C5B006000D001F000220019200293C
S11326707DD04A9B002B7AD0E123002402A81B18AA
S1132680180010220021FFF7E3FFB02221000EA85A
S11326904394FFF7DDFF634B1A78BA4261D11121ED
S11326A06143614B2131C9180EA806F001FA002ECE
S11326B05FD106AC2900019A0EA8FFF762FC102234
S11326C000212000FFF7C4FF21000EAA200006F01D
S11326D0A7F92278230000217F2A50D918785A7844
S11326E04000D209024301311A7001330F29F5D198
S11326F07923E27B5B4252005340439ADBB2E3739B
S1132700102A49D102ABE132D21800231178E05CDF
S11327100133414011700132102BF7D1E123002520
S113272002AA9B181A78197C01354A401A700133A1
S1132730102DF7D1E12302A95B1819002A000AA879
S1132740FFF716FC0EAA0AA902A806F069F92A00E6
S113275020000021FFF77CFF029B4A9A00201360AF
S113276005E00134E4B21133142C95D1032045B0B3
S1132770F0BD102231000EA8FFF703FC99E718788A
S11327805A784000D209024301311A7001330F29EB
S1132790F5D1E37B5B00B0E7002100206156230004
S11327A0814231DA1D7859786D00C9092943013015
S11327B0197001330F28F5D17923E17B5B4249007D
S11327C04B408021DBB2E3730EAB9B18C133561C24
S11327D000251970102E01D80F35AD1A0EABC23278
S11327E0981800212A0008F0ADFEF12202ABD2189D
S11327F00023AD1943951178E05C01334140117019
S11328000132102BF7D189E71D7859786D00C90979
S113281029430130197001330F28F5D1E37B5B00A4
S1132820CFE7C0468857002068570020F0B5AFB006
S113283006000D0001A814000021B0221F00FFF7BC
S113284007FF00230F4811215943425CA2420BD1D8
S11328500D4B2131C91801A806F02AF92C00281BB8
S1132860C0B23CB9200003E00133142BEBD10320A8
S11328702FB0F0BD311801AA3818103C06F0D0F87A
S1132880A4B2ECE788570020685700207FB50023E6
S113289011220E00194914005C430D5D854227D1B5
S11328A0174B80382134C0B21022E418092819D8F3
S11328B040F24923C340DB0714D50021684608F0E1
S11328C041FE022536B16B467F2210213000FFF70E
S11328D0ADFF0500102269462000FFF749FB2800E0
S11328E004B070BD31002000FFF742FB0025F6E77D
S11328F00133142BCFD10325F1E7C04688570020BC
S11329006857002030B5050085B051B1FFF7BEFF10
S1132910040030B9012D05D1104B1B689B78012BA5
S113292003D10F24200005B030BD010010226846F9
S113293008F008FE09222900684608F001FC002876
S1132940EFD110222100684608F0FCFD7F22092106
S1132950684608F0F5FB0028E4D0E2E7A053002025
S113296070B59E4D04002B00FC339B6C01208EB08F
S11329709B075AD42078532800D965E209F06EFAEF
S1132980570064025B0065006B00720078007E00F3
S113299088008800640264026402640264026402BF
S11329A08D00920097009C00A100A600AB00B0002F
S11329B0B500BA00BF00C400C900CE006402D30051
S11329C0E700F6001E014301340150015B0162017E
S11329D067016C01730164027A018B01AE019D01F0
S11329E0BF01C901D201D901640264026402640214
S11329F064026402640264026402640264026402A3
S1132A00640264026402DF01640264020602640276
S1132A101302540054001A021F02220233023D0220
S1132A20460250025A025F0213200EB070BD207994
S1132A30FEF77EFEF9E7616809B90320F5E7102285
S1132A406748FFF795FA0020EFE761680029F4D0A2
S1132A5010226448F5E740F28C23EB58E2332279E4
S1132A601A70F0E740F28C236268EB589A64EAE744
S1132A7040F28C236268EB58DA64E4E76168002969
S1132A80DBD00120FFF73EFF0028DCD00E20CCE78E
S1132A90616802200029F5D1CFE761687F20002911
S1132AA0F0D1CAE7616880200029EBD1C5E76168ED
S1132AB081200029E6D1C0E7616882200029E1D1A4
S1132AC0BBE7616883200029DCD1B6E76168842014
S1132AD00029D7D1B1E7616885200029D2D1ACE7BC
S1132AE0616886200029CDD1A7E761688720002985
S1132AF0C8D1A2E7616888200029C3D19DE7616835
S1132B0089200029BED198E761688A200029B9D1BB
S1132B1093E761688B200029B4D18EE740F28C23BF
S1132B20EB58E1339BE76A46237A6946137040F217
S1132B308C23ED5807222878FEF780FD002800D169
S1132B407BE70D35FF35043406CC06C57BE76A46C2
S1132B50237A6946137040F28C23ED5807222878B3
S1132B60FEF76CFD28350028EDD166E76A46237A26
S1132B706946137040F28C23ED582B00FF339B7F82
S1132B80287853700722FEF759FD002800D154E736
S1132B902B001533FF33043406CC06C33C3B1B78AF
S1132BA0022B00D04FE7B333FF33EB5C002B00D193
S1132BB049E703F04BFBFEF771FD44E76A46237ACD
S1132BC06946137040F28C23ED5807222878FEF7EB
S1132BD035FD002800D130E73035B4E7D05300206C
S1132BE0685700207857002040F28C23EB58616826
S1132BF01B78072B00D020E79448002900D122E756
S1132C0005F0F4FC1FE740F28C23EB5861681B7855
S1132C10072B00D011E7002900D114E78C48EFE717
S1132C202279531E0E2B00D907E740F28C23EB5870
S1132C30FF335A7207E740F28C23EB58F43362688F
S1132C401A6000E740F28C23EB58F833F7E740F2C0
S1132C508C23EB58FC33F2E740F28C23EB58626888
S1132C60FC335A60EFE640F28C23EB58FC33626885
S1132C709A60E8E604266B46A65706221E7040F2C8
S1132C808C23EC5869462078FEF7D8FC002800D144
S1132C90D3E66671D7E604266B46A65705221E7056
S1132CA040F28C23EC5869462078FEF7C7FCE934DF
S1132CB0002800D1C1E62670C5E604266B46A65757
S1132CC00A221E7040F28C23EC5869462078FEF7E5
S1132CD0B5FC002800D1B0E62671B4E604266B46A4
S1132CE0A65709221E7040F28C23EC5869462078BE
S1132CF0FEF7A4FC002800D19FE6E834DBE740F2AD
S1132D00F41362689A4200D997E69833EB58EC338F
S1132D1096E740F28C23EB5822791900F0310A70BF
S1132D201A7390E640F28C23EB586268FC339A6283
S1132D3089E640F28C236268EB581A6483E640F219
S1132D408C26AB591B78072B08D1424923790A7882
S1132D509A4203D006200B7001F0AEFAAB59002062
S1132D601A000021A132FF3210605160694603222B
S1132D700A71002218780092FFF764F92379A9599F
S1132D805A1E934140F22D128B545CE640F28C2380
S1132D90EB582279180040F22811443002B1012284
S1132DA002705A544FE640F28C232179EA58CF3B03
S1132DB0D15448E6284BA2881B689A8043E6264BE8
S1132DC01B6854E722790F2A00D936E640F28C2397
S1132DD0E958613BFF3BCA542C3BFF3B934040F214
S1132DE090128B522FE62279072A00D925E640F269
S1132DF08C23EB58FF339A7225E640F28C2320791A
S1132E00ED5809F073FDFC3568621CE62279012A4D
S1132E1000D912E640F28C23EB58FF339A7712E67E
S1132E202279012A00D908E640F28C23EB58FF33BB
S1132E305A7708E6084B62681B681A6103E6064B7A
S1132E4062681B68DA60FEE50220EEE56257002046
S1132E506057002004400020A053002010B58AB021
S1132E60FDF79EFBC0B201282CD16B469C1D2100AE
S1132E7002A8FDF7B9FB0023E15E052922DCC9B2F3
S1132E800298F9B1FDF76CFE03004CF25C12F53BBD
S1132E90FF3B9BB2934215D827236A4684B203A80A
S1132EA013730494FFF75CFD50B928236A46137327
S1132EB040F2E83303A8E4180494FFF751FD10B17D
S1132EC0FEF7E2FD04200AB010BD000030B58BB05F
S1132ED0FDF766FBC4B2012C1AD16B469D1D290077
S1132EE002A8FDF781FB0022AB5E012B10D1029BEF
S1132EF01B785BB2302B0ED0312B09D16A464323A9
S1132F0003A813731474FFF72BFD30B1FEF7BCFD57
S1132F1004200BB030BD0024F0E7024B3B331C709F
S1132F20F7E7C0469451002010B58AB0FDF738FB8E
S1132F30C0B2012819D16B469C1C210002A8FDF7E0
S1132F4053FB23880421029A01A8FDF782FD0300A4
S1132F5060B95222019B03A81BBA43600270FFF7B9
S1132F60FFFC030010B1FEF78FFD042318000AB024
S1132F7010BD10B58AB0FDF713FBC0B2012819D1FA
S1132F806B469C1C210002A8FDF72EFB238804211C
S1132F90029A01A8FDF75DFD030060B95322019B6D
S1132FA003A81BBA43600270FFF7DAFC030010B1F8
S1132FB0FEF76AFD042318000AB010BDF0B58BB00B
S1132FC01E0010AB0C001F7800900192F1B3009B1F
S1132FD00A20E3B301251022002106A808F0B2FA62
S1132FE01022002102A808F0ADFA02AB981D3100AE
S1132FF01D705F7105F0CAFC0A2002AB1199C0185C
S113300005F0C4FCEAB21301103BDEB202ABDA7382
S113301001351021019A06AB02A8ADB2FFF706FCF8
S1133020B8B9211C102C00DD10210022009B09B22C
S11330309B1906AF1878D65D0132704018700133C1
S11330409142F7DC103C24B2002CDBDC00200BB0F6
S1133050F0BD0F20FBE7000010B5074B04001B6810
S1133060DB7813B10548FEF7CFFC2000FEF7CCFC5B
S11330700348FEF7C9FC10BD08400020ACC900009D
S113308085CB0000037837B50400022B43D845787C
S1133090002D40D1037B13B32548FFF7DDFF2548FE
S11330A0FEF7B2FC237BAB4236D82348FEF7ACFCD8
S11330B000220321E078FEF7E3FE1F48FEF7A4FC9C
S11330C000220121607CFEF7DBFE1B48FEF79CFC1E
S11330D000220A21206AFEF7D3FEFEF7BDFC174B3F
S11330E03F331B78012B16D11548FFF7B5FF114864
S11330F0FEF78AFC002203210E23E05EFEF7C0FEE9
S11331000D48FEF781FC1020002203212056FEF713
S1133110B7FEFEF7A1FC37BDA1680122491901A839
S1133120FDF776FC013501A8FEF76EFCEDB2B9E7B8
S1133130B4CA0000AFC90000BACA0000945100200C
S1133140BCCA0000F8B505780400032D16D0082D7C
S113315038D065B92748FFF77FFF2748FEF754FCAE
S113316063782BB92548FEF74FFCFEF775FCF8BDD4
S1133170082B01D12248F6E72248F4E7224B1E78B7
S1133180B307F4D52148FFF767FF1B48FEF73CFC63
S113319067789FB93A002900207CFEF771FE1C482D
S11331A0FEF732FC3A002900607CFEF769FEFEF768
S11331B053FC02239E43144B1E70D8E71548FEF7B8
S11331C023FCF4E7104E3578EB07D0D51248FFF70F
S11331D043FF0948FEF718FC637843B90F48FEF72C
S11331E013FCFEF739FC01239D433570BFE7094802
S11331F0F5E7C046C2CA0000AFC90000C8CA000053
S1133200D6CA0000E8CA0000E54E0020F4CA000057
S1133210BACA0000FDCA000009CB000093CB00002D
S113322010B5040088B00320022C09D86A46002394
S113323001A813711472FFF793FB08B9014B5C7278
S113324008B010BD9451002013B5FDF7A9F9C0B220
S1133250012815D16B469C1C210001A8FDF7C4F977
S11332600022A35E012B0BD1019B18783038C0B229
S1133270022805D8FFF7D4FF030010B1FEF704FCC1
S11332800423180016BD0000042330B589B001AC36
S113329023700500200005F015FD23799D4220D000
S11332A045B90423200023702571FFF759FB60B151
S11332B009B030BD2D2323700B4B20001B782371E4
S11332C0FFF74EFB0028ECD0F2E7084B3E331D70AD
S11332D03DB92D232000237005F0F4FC2279024B24
S11332E01A700020E4E7C046E44E00209451002008
S11332F013B5FDF755F9C0B2012816D16B469C1CD5
S113330001A82100FDF770F90023E05E01280CD12B
S1133310019B1B785BB2302B0AD0312B05D1FFF710
S1133320B3FF030010B1FEF7AFFB0423180016BD72
S11333300020F4E730B50A4C050023003E331B7827
S1133340002089B04BB96A462D3301A81371157258
S1133350FFF706FB08B94034257009B030BDC046FC
S11333609451002013B5FDF71BF9C0B2012818D100
S11333706B469C1C210001A8FDF736F90023E15E91
S113338002290EDCC9B2019859B1FDF7E9FB83B2F9
S11333900F2B06D8C0B2FFF7CDFF030010B1FEF724
S11333A073FB0423180016BD70B52423050088B0F0
S11333B001A80C0003704560FFF7D2FA0600054B24
S11333C02900054862001C70FEF7D2FD300008B0E9
S11333D070BDC046D7510020D8510020F0B589B047
S11333E005AD0C220021280008F0ACF8FDF7D8F850
S11333F0C3B20193062B2CD900260420164B1B7A4A
S1133400073B5A425341D9B29E4206D830B92800EC
S1133410FFF7CAFF10B1FEF737FB042009B0F0BD77
S113342002AB9F1D390004A8FDF7DEF83B8803AF0B
S113343002213800049AFDF70CFB0028DED13B88FA
S113344062005BBAAB520134019BE6B2B342E7D8E7
S1133450D4E700240420F7E7945100200B68027895
S11334601B0E534003700B6842781B0C534043708F
S11334700B6882781B0A534083700B68C2785340F0
S1133480C3704B6802791B0E534003714B68427939
S11334901B0C534043714B6882791B0A5340837160
S11334A04B68C2795340C3718B68027A1B0E534038
S11334B003728B68427A1B0C534043728B68827A86
S11334C01B0A534083728B68C27A5340C372CB6821
S11334D0027B1B0E53400373CB68427B1B0C53408F
S11334E04373CB68827B1B0A53408373CB68C27BD4
S11334F05340C3737047000003000449103302783B
S11335008A5C027001309842F9D17047F0D1000012
S1133510F8B50C0006000878FDF7A8FB67780500ED
S11335203800FDF7A3FBA378E2787B4053405D406D
S1133530684030706078FDF799FB27780500A07823
S11335404740FDF793FBE3785F407D40684070702F
S113355063782778A0785F40FDF788FB0500E07862
S11335604740FDF783FB7D406840B0702778380002
S1133570FDF77CFB63785F40A3785F407840C5B279
S1133580E078FDF773FB4540F570F8BDF0B5437B7B
S113359087B001938378457A0293C379877A03933A
S11335A04378C1780493C37AC67B05934379847BBB
S11335B04370019B82794372029B87708372039BE1
S11335C0C670C372049B457143738471C171827365
S11335D0059BC37307B0F0BD030070B5002504005C
S11335E00833DB6F05609A681868526990472800B1
S11335F06560A56070BD41B1436813B14368022B97
S113360003D104234360033B83607047EFF31081CD
S1133610012383F31088074B1A6812B11A68013A20
S11336201A601A681AB9044B1A7080321A7081F33E
S1133630108870478052002040030A40F8B5040007
S1133640FF25FEF74DF9002220880A4E93B29842D6
S113365002D8FFF7DBFFF8BD6168D300C9188F8873
S113366009683B0A1B012F40DB1989B25B0099539F
S11336700132EBE700020A40436810B5C4681A78C7
S1133680FF21436904B1E15C8468520001331153A2
S1133690436110BDF0B585B0FDF703FB204B8000FE
S11336A0C45863681D78A3686A009B180122FE331E
S11336B0598811420AD05A81042301A80195037143
S11336C0A36A8360636A984705B0F0BD5B8A1E00F5
S11336D09FB21640134202D06369012B02D9200025
S11336E0FDF7A4FB6269E3699A4203D22000FFF765
S11336F0C3FFE9E736B1012388359F43A3686D0012
S1133700EF52E1E7636801A81B7801930123037179
S1133710A36A8360636A01349847E677D4E7C046B6
S1133720C04D002040F20A2230B50F4B995C890944
S1133730814218D040F20B2401211D5D2943195503
S1133740022805D0995C8909022901D08021995465
S113375040F20A2240F20B218001C0B298540120A9
S11337605A5C82435A5430BD00C07E40484A494B9B
S113377070B59A600122484B484C1A7040F6FE031B
S1133780474A0025E252474B474ADD601A60474AE0
S11337905A6048F200029A601A61FDF787FC40F60D
S11337A000031A2240F62401E254635C8BB1404BBF
S11337B04048DA680240DA60DA687F263E48C27A16
S11337C03240C2728022D86812040243DA60DB6895
S11337D0655440F60C03E25C0AB10022E254032073
S11337E0FFF7A0FF002240F60803E25440F612025D
S11337F0A35CDB07FCD540F623030121E25C8A438A
S1133800E254E25C9207FCD440F621030121E25C1D
S11338108A43E254E25C9207FCD440F62002012180
S1133820A35C8B43A354A35C9B07DB0FDDB2002D89
S1133830F9D1022640F61802A6540132A3540132EB
S1133840A354FDF733FC3000FFF76CFF40F6FE0392
S11338501A4A2800E252FDF7B3FDFDF727FC184B86
S1133860184A19481A60FFF7E9FE0120FDF7A8FD80
S1133870164E174BF61AB610AE4201DC05F0B8FE30
S1133880134AAB009B181B6898470135F4E7C04600
S11338900000000000ED00E090C07E4000E0014028
S11338A003A5FFFF804C00200048E80100093D000B
S11338B0FC6F0440FFFF7FFF002C0A4000A5FFFFC0
S11338C0A44D002054524F5014D00000C0DA000020
S11338D0BCDA000001380028FCD1704740F2E8321D
S11338E00023484310B5002108F01CFB054B1A685F
S11338F0054BB3FBF2F3B0FBF3F0800808B1FFF71C
S1133900E9FF10BDBC4D002000CA9A3BF0B585B05C
S1133910019300238377030008330400D86F83687E
S11339200068DD6802AB0733A8470500E0B906006C
S1133930A37F104F33B9012101360800FFF7CEFFF2
S1133940BE42F5D1230058331A7801990A70BE4259
S11339500DD01A78022A07D01A78032A04D040F22C
S1133960F4151B7859342370280005B0F0BD1425D4
S1133970FAE7C04640420F000223F0B5060085B0C6
S113398002AAD371C268040015004BF6AD678836ED
S1133990336801919B180835436163699D421BD2CA
S11339A0019BB3B102AB0422290020000733FFF7C7
S11339B0ADFFA0B902ABDB79022B0DD0A16933684E
S11339C0CA6828880A3252009B1A834209D22120ED
S11339D003E0A36E9D42F1D10020A566256105B0E8
S11339E0F0BD0322EB1D1B1893435A88BA42EED153
S11339F01A884869E1685200691A11521A881D1D13
S1133A00E265CAE710B50400436E0021C360836910
S1133A101A6958690132520007F094FD0021200010
S1133A20FFF7AAFF10BDF8B5040003258369490018
S1133A305869626E435A26699B18E3671B88221DE6
S1133A400B33AB43D367E2689B19B71A4752210083
S1133A508831096800205218934205D92000FFF7E5
S1133A60D1FF01236560A360F8BD10B5040083692C
S1133A70616F1A690131914200D9002161675A6965
S1133A804800825A002AF3D0236F8B4207D02000CB
S1133A90FFF7C9FF10B9200004F032FF10BD2369FD
S1133AA02000A367FDF7EBF8F8E7F0B5846800237E
S1133AB0250087B00093037858352B70A3681BB991
S1133AC00133A37707B0F0BD2B78012B00D0DCE0E5
S1133AD0A0680238082800D9B3E008F0ABF9058BD8
S1133AE0359FB8B2B2B2C0002369032504330193F1
S1133AF02361230048331B88E76C1A002A40A56021
S1133B0002922B420AD1A560220039000832D06FFC
S1133B1082685568019A0068A84739E0032B0FD8DA
S1133B2026008C3604220021300007F00BFD3900FA
S1133B303000029A07F0C1FF37000423A560E3E7D1
S1133B400422AB43A260DFE7230048331E8825002C
S1133B50032733008C35BB43042200212800A760CF
S1133B60019307F0EFFC3200019BE16C3A40C91865
S1133B70280007F0A2FF2269019B29009A1823005C
S1133B800833D86F2261836800685E680423B047F5
S1133B9001002000FFF72FFDA368012B00D091E75F
S1133BA0230090331A68002A00D18BE76368002B46
S1133BB000D084E0A368013B591E8B41DBB204A909
S1133BC00B702300943498331B6820684B600028E2
S1133BD077D00378009343680393030060C960C3FC
S1133BE090472368002B00D16CE7009A1A70039A5F
S1133BF05A6067E7230048331B8821695A189B07DA
S1133C0000D00A1D0523A360230021000833D86FC8
S1133C102261836850315D6804237CE7230021001E
S1133C2050331A882369E265043323614A310888D2
S1133C30A169520049695052626822B90132A260F6
S1133C40A3660020A4E72000FFF70FFFA0E7231DD1
S1133C50DB6F2000002BF7D004F052FE98E723001E
S1133C6088331A68E368616E9B18636100232377C5
S1133C70A36F120A23610B23A36023000833D86FB8
S1133C80836800689B68984782E72B7823B9009B78
S1133C9063600123A360D4E763680098022B05D115
S1133CA0A3680B2B02D02000FFF7ACFE23002A7878
S1133CB059331A7004236360033BA36068E76368A5
S1133CC07CE708008CE70000030070B50026083389
S1133CD086770400D86F836800689B68984705005E
S1133CE048B1280070BD01210800FFF7F7FD0A4B19
S1133CF001369E420DD0A37F002BF4D0230058330D
S1133D001A78002AEDD01B78593440F2F415237048
S1133D10E7E71425E5E7C04640420F008369F0B5A4
S1133D201A690500013258695200002185B007F074
S1133D3009FC00234FF6FF72AB77EA65EB60019351
S1133D40AB6901995A68914201D300243BE02F00EA
S1133D508837019A3E681B685643F61802AB08225E
S1133D60310028000733FFF7D1FD040058BB02AB34
S1133D70DB79022B14D102AB310028003A680733F7
S1133D80FFF7C4FD0400F0B902ABDB79032B43D188
S1133D903A68120A31002800FFF796FF040011E088
S1133DA04BF6AD62F3889342F2D1E96899B33A686D
S1133DB030680B68120A9842ECD92800FFF784FF98
S1133DC00400EE6044B3EB684BBBAB6929001A688E
S1133DD09B688831D2182B0009680833521AEA60AC
S1133DE09CBB22492C64D9872900D86FAC7783689F
S1133DF040315C6800680823A047040028BBAB7FFF
S1133E0033BB01210800FFF769FD194B01349C42C3
S1133E10F5D1142426E0EE60019B01338FE7212CB9
S1133E200ED10126002301212800AB83FFF7A4FD56
S1133E300400212816D0A8B92EB90123AB6011E0E3
S1133E4084B90026EEE721240CE0212C0AD1E8E70E
S1133E502B0058331A78012AF3D040F2F4141B785B
S1133E6059352B70200005B0F0BDC046ADBEFFFF34
S1133E7040420F00F7B502000B6A08321B688161EB
S1133E800400D3670700019248688A688837B2FB48
S1133E90F0F23B483A606064606520000022394DCE
S1133EA0903025658D69C9692264A264E2648160E9
S1133EB02100943105600A609A6803CB1268904728
S1133EC00600002845D1A0602000FFF727FF050069
S1133ED0212844D102233100A06963600369266666
S1133EE09C4643694A009A5A12B901316145F9D98D
S1133EF00368E5683A688068AF181818874200D0EC
S1133F003B00D2186566E36062618C4523D30833B5
S1133F1023618BB2200023676367FFF784FD0500EC
S1133F2080B9200004F0ECFC050058B9A368012B0B
S1133F301FD001210800FFF7D1FC134B01359D422E
S1133F40F4D11425019B2E00DB6F9A68186852691E
S1133F5090473000FEBD2000FCF791FEE4E7002806
S1133F60F0D1E3681B68236400236360074B23607C
S1133F70EFE76368042BF4D140F2F415E2E7C0469E
S1133F800000ADBEFFFFADBE404B4C004545565250
S1133F9070B5274B88B09B7A012B47D103221400BC
S1133FA00440024242D025001D401C4209D06A460A
S1133FB04A33137101A804F085FE6B461A891D4B20
S1133FC0DA80022634422FD04C2301AC2370200027
S1133FD004F078FE029A174B35439A601649174845
S1133FE0FFF748FF040080B9154E04213070062302
S1133FF0144A1248FDF77EF9040001000F48FFF748
S1134000FAFA14B93378002BFCD00C48FFF7E4FA21
S11340102043424250410323064A404203401D408C
S113402013682B43136001E0002DD7D108B070BD95
S113403094510020E850002040D30000484E002056
S1134040545C0020EE500020002370B588B001AC11
S11340502000237004F036FE1E4D237920006B727D
S11340604323237004F02EFE2B0022793B331A7075
S113407004232000237004F025FE2B0022793E3314
S11340801A701D232000237004F01CFE2B002279DB
S11340901149413311481A70FFF7ECFE010078B959
S11340A00F4E502330702A000C48FDF723F904000A
S11340B001000A48FFF79FFA14B93378002BFCD0AB
S11340C00648FFF789FA0748FFF762FF002008B0A7
S11340D070BDC04694510020ACD30000F8500020BD
S11340E0555C0020FFFF030070B58AB0FCF758FA56
S11340F0C5B2012D1BD16B469C1D210002A801AE47
S1134100FCF772FA238802213000029AFCF7A1FC22
S1134110040068B96A464B23368803A876BA137339
S11341201682FEF71DFC040028B1FDF7ADFC042443
S113413020000AB070BD034B2800DE80FFF728FF83
S1134140F6E7C046E850002070B58AB0FCF728FABC
S1134150C0B201281FD16B469C1C210002A801AEED
S1134160FCF742FA238803213000029AFCF771FC21
S1134170040088B9737835781B022D041D43B37885
S113418003A81D434C2345600370FEF7E9FB0400BC
S113419028B1FDF779FC042420000AB070BD034B5C
S11341A002209D60FFF7F4FEF6E7C046E8500020C9
S11341B010B5FFF7EDFE10BD37B5040008226846C0
S11341C01B4907F07AFC002C2FD11A4D1A492800FC
S11341D0FFF750FE040068B9AB695B691B88E3B163
S11341E0EA6899189B5A4F2B19D950221348043165
S11341F007F063FC0F48FFF7EFF9204320B150228A
S11342000F490E48FDF7B4FE082269460B4807F033
S113421043FC30B90B4B187137BD2224EAE7032461
S1134220E8E706F0BDFF06F0A7FFFCF707FDF3E79C
S113423012CB0000F8500020ACD3000094510020B1
S1134240F0D20000E850002037B5FCF7A9F9C4B259
S113425094B1012C19D16B469D1C290001A8FCF7CF
S1134260C3F90022AB5E012B0FD121000198FCF7AA
S113427077FCC4B2012C08D82000FFF79DFF04F09E
S1134280A9FE030010B1FDF7FFFB042318003EBD97
S11342901F22430910401E3A824002499B005A5093
S11342A07047C04600E100E010B52120FFF7F0FFA1
S11342B01D20FFF7EDFF10BDF7B507000C0000252A
S11342C0C9B3354E01A8FDF721FB3278531CDBB28C
S11342D033700AB9FDF71FFB019B83F31088092F84
S11342E036D8380007F0A6FD050A292D31393F4399
S11342F047512278294B1A7001250FE01625042214
S1134300210001A807F0D9FB019A254B19689142B5
S11343103FD0013DADB20833002DF7D101A8FDF720
S1134320F5FA3378013BDBB233700BB9FFF7BCFF0E
S1134330019B83F310882800FEBD2278174B1A7264
S1134340DAE72278154B5A72D6E723782F2B01D956
S11343500025E3E7114AD372CEE723782F2BF7D851
S11343600E4A1373C8E722780C4B5A73C4E72278B9
S11343700A4B9A72C0E7094D2378AF7BAB7304F004
S113438039F90028B8D1AF73E2E72278034BDA7326
S1134390B2E7024B5A60AFE7405C0020AC5A002001
S11343A0C8D50000F7B507000C00002679B3254DE9
S11343B001A8FDF7ABFA2A78531CDBB22B700AB9BB
S11343C0FDF7A9FA019B83F310880026092F11D861
S11343D0380007F02FFD05091E2124272A2D30332C
S11343E0194B1B78237004E004222000174907F0BE
S11343F064FB012601A8FDF789FA2B78013BDBB2A7
S11344002B700BB9FFF750FF019B83F3108830002A
S1134410FEBD0D4B1B7AE5E70B4B5B7AE2E70A4BDB
S1134420DB7ADFE7084B1B7BDCE7074B5B7BD9E7D9
S1134430054B9B7AD6E7044B9B7BD3E7024BDB7B94
S1134440D0E7C046405C0020AC5A0020B05A00209F
S113445073B5184D060001A80C00FDF757FA2A7829
S1134460531CDBB22B700AB9FDF755FA019B83F399
S11344701088114B042E14D0052E18D0083307CC05
S113448007C306CC06C301A8FDF740FA2B78013B0D
S1134490DBB22B700BB9FFF707FF019B83F3108886
S11344A073BD1C3307CC07C307CC07C3EBE72268F3
S11344B05A60E8E7405C0020105A002073B51C4D98
S11344C0060001A80C00FDF721FA2A78531CDBB280
S11344D02B700AB9FDF71FFA019B83F31088154B63
S11344E0042E1AD0052E1FD0032E0FD01B78237054
S11344F001A8FDF70BFA2B78013BDBB22B700BB94B
S1134500FFF7D2FE019B83F3108873BD22000833AA
S113451043CB43C203CB03C2EAE722001C3343CBA1
S113452043C213CB13C2E3E75B682360E0E7C046F2
S1134530405C0020105A0020F0B5324D85B00700D1
S113454003A80191FDF7E2F92A78531CDBB22B7022
S11345500AB9FDF7E0F9039B83F3108840F288233E
S1134560294CE65C783BE35CDEB913B140F24923A5
S1134570E7543800FDF780F9244B254A1B6863B9DA
S113458040F289222023A15C0B43A35402F0F0F8EB
S113459001F05CFE02F094F922E0934216D01B690C
S11345A0EDE71BB140F24923019AE2540198FDF76B
S11345B063F940F28C23E358E0331B78022B0FD0CD
S11345C040F289222023A15C0B43A35440F28C23A4
S11345D0E358E0331B781BB9002ED9D102F050F90F
S11345E0FDF74CF803A8FDF791F92B78013BDBB2FA
S11345F02B700BB9FFF758FE039B83F3108805B0AB
S1134600F0BDC046405C0020D05300203C5C00203C
S11346106C550020F0B5214C87B0019005A81F000F
S113462003920291FDF772F92278531CDBB22370D6
S11346300AB9FDF770F9059B83F31088184D002122
S11346402B00A4330020185E04F0DAFA0026019B44
S1134650985D04F0F1F80136029AB3B29A42F6D8A2
S1134660039EF719BE4214D1A4350023E85E01214C
S113467004F0C6FA05A8FDF749F92378013BDBB23B
S113468023700BB9FFF710FE059B83F3108807B066
S1134690F0BD307804F0D0F80136E3E7405C002048
S11346A0E45A0020C02307B501A8038000231A00A0
S11346B00221FFF7AFFFFCF777FE07BD10B50A4BE9
S11346C01A78082A0DD840F241130124D34023421A
S11346D007D0FFF7E7FF054B21000020185E04F028
S11346E08FFAFCF761FE10BD07400020BC5A002081
S11346F037B56B460C001500D871FFF7DFFF68462D
S11347002B00220001210730FFF784FF6B46DB7981
S1134710842B01D0FCF748FE37BD000007B5104BD1
S113472001A9984206D90F4B0B8002229820FFF76B
S1134730DFFF07BD0C4B984201D90C4BF4E70C4B3F
S1134740984201D90B4BEFE70B4B984201D90B4B25
S1134750EAE70B4B9842E8D946F66B73E4E7C046A8
S113476000E9A435E1E9FFFF80F8A932D7DBFFFFB8
S11347708044E52DC1C5FFFF000B6B1B7581FFFF56
S113478040FC541937B5104B104D18602B780400B9
S11347901BB9FFF7C3FF01232B7043F60951B4FB88
S11347A0F1F20B0041F684605343E31A9B031B1898
S11347B0B3FBF1F392039B181BBA0422862001A9D0
S11347C00193FFF795FF37BDE05B0020E45B002019
S11347D013B5064B04005B7B23B1019001A90520AE
S11347E0FFF736FE2000FFF7CDFF13BDAC5A0020C3
S11347F007B56B46D91D044B0870187001228A2036
S1134800FFF776FF07BDC046E55B002013B50B4BF1
S11348101B788BB96B460122094CD91D80200A7084
S1134820FFF766FF40F61110E17A00F064F840F6F5
S11348301210217B00F05FF813BDC046D05A00204F
S1134840AC5A002007B50C4B0422972001A9019310
S1134850FFF74EFF00236A460720938001A9022236
S1134860FFF746FF7F236A468920137101A90122BD
S1134870FFF73EFF07BDC046020002800D2373B55B
S11348800D00160001AC2370030A6370A070FFF7DB
S113489015FF33002A0003212000FFF7BBFEFCF7BD
S11348A083FD73BD07B5064B01A91B7840BA088088
S11348B023B9022240F2BC60FFF7E0FF07BDC04607
S11348C0E55B002007B5064B01A91B7840BA0880B8
S11348D023B9022240F2BE60FFF7D0FF07BDC046F5
S11348E0E55B002007B56B46D97107330122190037
S11348F0FFF7C4FF07BD10B5FFF7F4FF10BD0000BC
S113490010B504000B4B1870587000F015F854B132
S1134910342140F24070FFF7E5FF442140F241703A
S1134920FFF7E0FF10BD142140F24070FFF7DAFFFB
S11349302421F3E7115C0020012010B5FFF758FF94
S1134940044B18785A78824202D05870FFF7D8FF87
S113495010BDC046115C002010B5012806D000200F
S1134960FFF746FF0022034B5A7010BDFFF7E4FF28
S1134970FBE7C046115C0020F0B5254D87B00190DF
S113498005A81F0003920291FCF7C0FF2A78531C6C
S1134990DBB22B700AB9FCF7BEFF059B83F31088CA
S11349A01C4E00213300A4330020185E04F028F9C3
S11349B00024019B185D03F03FFF0134029AA3B267
S11349C09A42F6D8002003F037FF039CC3B2019348
S11349D0E719BC4215D1A4360023F05E012104F08E
S11349E00FF905A8FCF792FF2B78013BDBB22B7083
S11349F00BB9FFF759FC059B83F31088019807B0A6
S1134A00F0BD002003F018FF20700134E1E7C04638
S1134A10405C0020E45A002073B56B4615000C007E
S1134A20DE1DD871FFF74AFE2B0022000121300061
S1134A30FFF7A2FF0400FCF7B7FC200076BD0000DE
S1134A4013B501AC012221001520FFF7E5FF064B49
S1134A5022781B7852085BB29B1A181C803301DA47
S1134A604FF6807000B216BDAC5A00201D2373B5FA
S1134A700D00160001AC2370030A6370A070FFF7E9
S1134A801DFE33002A0003212000FFF775FFFCF709
S1134A908BFC73BD13B56B46DC1D01222100FFF7AF
S1134AA0E5FF207816BD000037B52A4B04001B78BB
S1134AB00D00012B2CD10F280CD1274B042295205B
S1134AC001A90193FFF714FE231C5AB20E2A10DD2C
S1134AD00E230EE0214B0422952001A90193FFF738
S1134AE007FE231C1134F0DA4CF62673C0F20003DF
S1134AF01B7818215CB240F6E700FFF7F3FE6B4623
S1134B0002225D718E201C7101A9FFF7F1FD37BDF2
S1134B1040F6D800FFF7BEFF1E210143C9B240F69C
S1134B20D800FFF7DFFE0E4B0422952001A9019364
S1134B30FFF7DEFD231C093407DA4CF62773C0F2B5
S1134B4000031B7838215CB2D5E75AB2162AF9DD86
S1134B501623F7E7054000200600010104000101C7
S1134B6004070001F7B5214D01A8FCF7CFFE2A7810
S1134B70531CDBB22B700AB9FCF7CDFE019B83F307
S1134B8010881B4B1E681B4B9A88998897B28A42DF
S1134B90FAD101A8DC7AFCF7B9FE2B78E4B2013B28
S1134BA0DBB22B700BB9FFF77FFB019B83F31088FB
S1134BB047F6FE739F4202D8E40700D5103645F647
S1134BC05E737B430193019B0B4A3000B3FBF2F30A
S1134BD00193019C40F2E8320023002107F0A2F97E
S1134BE0220000238018594103B0F0BD405C00202E
S1134BF0F851002000380A40A086010010B50400D6
S1134C00FFF7B0FF40F2E832002307F06BF92060B1
S1134C10A280200010BD000010B5FFF7A3FF154BC4
S1134C2040F2E832186059600023040007F05AF992
S1134C3040F2E831104B1A689B88121848431B193C
S1134C40181A83B2013900B2884203DD0B490132DC
S1134C505B1818B20A4B1900FC310A6440F2401286
S1134C6098522023074A11780B431370FBF750FE28
S1134C7010BDC04678560020C053002018FCFFFF2A
S1134C80D0530020C8530020F8B5150007000E00CB
S1134C901C00FFF767FF084B186059609F609E81F6
S1134CA0DD811C74112305490A789A4313430B7060
S1134CB0FBF72EFEF8BDC046A8530020C8530020C1
S1134CC010B5FFF74FFF0B000A4902008868C96856
S1134CD0994202D809D1904207D9121A8B41012076
S1134CE04042C1178018594110BD121A8B4110005F
S1134CF01900F9E7185C0020F0B5644E87B0019103
S1134D00B388B1889AB28B42FAD145F65E735343A5
S1134D100593059B5E4A5F4CB3FBF2F30593059B39
S1134D20277802283ED09AB203920292032860D0D8
S1134D3000231D00012F21D12375FFF713FF019BD1
S1134D40029A236143F680639B1A019A9BB2A06086
S1134D50E160A3830AB900230FE043F67F6201995F
S1134D6091421CD80A008B4219D904230399237059
S1134D708C466B4662449B88226101252269002A85
S1134D8050D1B37904329343B37107232370237D45
S1134D90002B00D16FE001232375237068E0022308
S1134DA02370D8E7022F0BD1A28B23699B1A01250C
S1134DB02361394B22699A420ED9002323610BE007
S1134DC0032F03D12369354A9B18F0E7043F0025DC
S1134DD0022FEED82561013543F67F6223699342A1
S1134DE003D804229BB22270C8E703232370002354
S1134DF0C4E7052F11D12369039A93420AD9029A71
S1134E0001259B1A40F2D0729BB29342B6D8042279
S1134E102270B3E7002323619DE7062FFAD0002315
S1134E201D00ABE7217804291FD1B2798A43B271FE
S1134E3040F2D072934204D90523237001235B42CC
S1134E400CE0062121709342F8D06422DB03B3FB0B
S1134E50F2F35A3A0533B3FBF2F39BB273801B238C
S1134E60F372B279173B1343B3712378072B8ED0B7
S1134E70280007B0F0BDA36903B198471020FCF7E0
S1134E8087FD2378072BF3D185E7C04600380A4015
S1134E90A0860100185C00200000FFFF80C1FFFF16
S1134EA0002210B5044B04681A70FBF77BFD210047
S1134EB00120FFF721FF10BD385C0020F0B587B05A
S1134EC0040005A8FCF722FD3F490A78531CDBB215
S1134ED00B700AB9FCF71FFD059B83F310883B4E4A
S1134EE037683D00002D3AD1636825722360FFB115
S1134EF03B7A002B37D0FFF7E3FE2B003A68009291
S1134F000193A94203D1824201D9009001950098EE
S1134F100199121A8B4100920193019B256813B9E0
S1134F20009BAB4223D9009B5D1B00233D603B7279
S1134F3001232000276123723460FFF7B1FF05A825
S1134F40FCF7E4FC204A1378013BDBB213700BB985
S1134F50FFF7AAF9059B83F3108807B0F0BDAC42B4
S1134F60EDD02D69BEE73B6801950093D5E73E6916
S1134F702EB9009BED1A25603C612661DFE732689B
S1134F80019B0098019912184B410BB9954208D224
S1134F90009B009AEB1A236033689B185B1B3360F9
S1134FA0EAE7316921B9AD1A256034612161C6E7A8
S1134FB0086837000290002003900E0002980399BD
S1134FC000920193DFE7C046405C00203C5C002077
S1134FD070B5124C236843B1002201251A601A727D
S1134FE00023206858B903B1206070BDC1682B004C
S1134FF0026911B122608847F2E71000F2E7026803
S1135000002AF3D03BB9037A002BEED101230372BB
S1135010FFF746FFE9E72060F5E7C0463C5C002067
S1135020F7B52E4D040001A8FCF770FC2A78531C38
S1135030DBB22B700AB9FCF76EFC019B83F310887A
S1135040274E33686BB901A8FCF760FC2B78013B51
S1135050DBB22B700BB9FFF727F9019B83F31088A0
S1135060F7BDA3422DD1237A0BB3FFF729FE8C465B
S11350700021276821722469ACB13A0034600B0026
S11350803E000F00614502D1824200D90600921B06
S1135090BB411100236820005B18236001232372A5
S11350A0FFF7FEFECFE73460FBF77CFCCBE7236918
S11350B02BB1216833601A6852181A60C3E7336051
S11350C0C1E71A001B69002BBDD09C42F9D12369AA
S11350D021681361002BEED1B5E7C046405C002087
S11350E03C5C0020F0B540F28C2540F22E12A54F16
S11350F09DB07B5915909A5C16AC0E9240F2B41296
S11351009A5C2000119240F22D129B5C0C93FFF7E5
S113511075FD40F2A81340F2AC127D59169EEB586F
S1135120AA5AF61AA3889B1A1BB2DB0FF61A40F28E
S11351301823FB185C681B680A930B9440F28923BC
S1135140FA5C0423110019408C461A4203D0002053
S1135150FCF7ACFB84462B78072B36D100200021CA
S11351600E9A05335343884A9B185B7A874A5B013E
S11351709C18D25A119BA061E161002B00D0F0E091
S113518040F60F6164338E4209D949F6AF2342F2E7
S11351902831B3429B410B4040F2E8315B18111CAB
S11351A09A4200D2191C0C9A8BB20AB9624662B1B7
S11351B0180001225242D3170021801859410A9A3B
S11351C00B9B06F0AFFEA061E16140F29013002159
S11351D0E85A01225242D317801859410A9A0B9B6C
S11351E006F0A0FE2B00A1330E900F91FF330E9911
S11351F00F9A19605A60B73B1B785BB2129340F266
S11352002D13EE5C8733EB5C13932B009933FF3340
S11352105C681B680C930D94E0352B78022B00D14D
S1135220A5E001F0A5FA01F011F840F28C23FB5837
S1135230E1331878FFF764FB40F28C23FB58149396
S11352401B78119309230A93119B072B00D072E159
S11352501022002118A806F075F900224A4B0125F6
S1135260E033198813002800904004000C40A04249
S113527001D10133DBB20132102AF4D123B9424AFD
S113528007330B43E0321380FFF76CFC0B000D99DE
S11352900200994216D802D10C99914212D80C9965
S11352A00D98014371B10C9C0D9D10001900001B59
S11352B0A9410F9C8C4200D96FE103D10E9C84421A
S11352C000D96AE100220023149C1399A134FF340D
S11352D022606360002900D03EE12B4BC8331C6878
S11352E05D68FFF73FFC02000B008D4242D801D1FC
S11352F084423FD8121BAB4114001D00224BD03313
S11353001A685B680A920B93FFF72CFC0B000B994D
S11353100200994232D802D10A9991422ED80A98B1
S11353200B99121A8B410EB9002200239D4202D818
S113533003D1944201D922002B001349D8310C68BF
S11353404D689D4202D823D1944221D9A41A9D418B
S11353500A940B950A9B013324D10B9B01331DD076
S113536020E00C9B002B00D12FE7100021E700F078
S11353706DFF61E701246442E517BFE70122524251
S1135380D317D0E7D0530020805600204057002088
S113539000200021BB4BD83318605960002300243F
S11353A00A930B940022B74B1000E0331B8840F2A1
S11353B0010C0C931300B449B24E0E910C9964463F
S11353C0114121421CD03168D1B1139919B9073167
S11353D01141214214D0317A129D0C07240FAC42A2
S11353E00EDC0909A9420BDB717A0E9C49010919EB
S11353F08C69C9690C43002C00D1C7E00130C0B2EC
S113540001320C36102AD9D1002B00D1ECE09F498F
S11354109F4A0868424343F2390012180A609D49C2
S1135420B2FBF1F1C807411A521A92FBF3F14B4354
S1135430D21A18AB9A5C40F2112300200021FA54CE
S11354407F33FB181860596040F28C23FC5800210C
S113545023002078E933595616339B7A072800D065
S1135460D4E08D4DCA005BB25219D356002B01DB38
S1135470062900D10023D9B22300F0331A78874BD0
S113548049B200932300EC331B68FBF799F9844B72
S113549010251B78012B00D00A3D40F2C413FA58A2
S11354A01121521BFA5023000C92F0331A780F3357
S11354B059567C4B207800932300EC331B68FBF790
S11354C07FF940F2D81340F2B412FE58761BFE5016
S11354D0A35C002B00D19BE040F20C23FD5C002D6B
S11354E000D0B7E0DC3BFB5CE9200A933B00FF33D0
S11354F05B7D1B071B0F0E932056FBF7F9F90E9AE1
S11355000A9B9446032263440A92984202D20823D7
S11355101D000A932300F8331B680C9A9B1840F271
S1135520B012BB502300FC331B6804329B19BB50E0
S1135530002D00D177E03B00FC339B6C9B0708D423
S113554040F28C23FB58E0331B78022B01D001F08E
S1135550B7F90A981DB0F0BD9EB14A4BD0331C6810
S11355605D68FFF7FFFA02000B008D4205D801D1F8
S1135570844202D8121BAB41DFE601225242D31708
S1135580DBE64049D8310A604B6007E730250CACB4
S1135590591C6419E254CBB232E70C9C0D9D0E9851
S11355A00F9924184D41A41A9D410A940B950A9908
S11355B00B9A40F290233E00FB1819605A60159B29
S11355C0FC36B26C002B00D154E22023364D134339
S11355D02800B364FFF724FD0A9B2800B367F36730
S11355E0FFF76CFC00230FE00028E0D107230C9A9E
S11355F000201343234A0021E032138040F2902319
S1135600FB18186059600C230A9394E7C9B233E776
S11356102100FC314B680C981B1840F2B0103B5031
S11356208B689B19BB5040F2B213E35C4BB940F258
S11356300C23FB5C002B4CD140F20E23FB5C012BB2
S113564047D83C00FF34637943B1042B00D112E105
S11356500323D9E7032300250A935BE7134B40F2A6
S1135660A0211A687858938801339BB29380012251
S113567002437A503A00FE32138403F08FF9B8B132
S11356800E23C1E780560020405700200040002030
S11356906D4EC641FFFFFF7F6CD40000885500208B
S11356A0D05A00209C55002044550020A0530020CF
S11356B03900E14BFC31009313220223C968FCF743
S11356C0CFFF0028DCD103F069F90028D8D1637B2F
S11356D03B8040F21123FB5C00220A9340F28C23AE
S11356E0FC580C922378072B00D087E0E925D34B94
S11356F065570A9A5B5711930C235343D04A9B185E
S11357005B7A06335B019B182200E8329B781178A0
S11357101278181C52B25BB2934200DA081C0121C1
S113572043B20C93C74BAA00D358C74A0E91934275
S113573005D0C64A9B185A4253418B400E930C9B8A
S1135740FC34580007F0D2F8011C606A06F0A2FE8F
S1135750A16A06F09FFE041C07F060F86B4648221D
S1135760002612909B180021201C9E5706F0B0FBC7
S113577060B9129807F072F8011C201C06F08AFE2A
S1135780002106F081FB08B9013E76B23B880A9AF3
S113579012930C235343AA4A0024D058FFF718F855
S11357A040F6A0730794089306940594072D00D03F
S11357B032E1012304930433029340F2E833119A53
S11357C0310053432000009346F2A8120E9B039429
S11357D0019400F0BDFE250048226B469B181C78FE
S11357E028002100FBF7C8FD21002800FBF7DAFCA4
S11357F040F218230022FB1818605A6040F2492333
S11358000122FA544333FB5840F25021E9331A7809
S113581040F24A23FA540C9A0133FA540A9A113387
S1135820FA50443B7918FB181A685B680A604B60AD
S113583040F2682179180A604B6040F21023FB5C47
S113584023B940F20C22BB5C0133BB5440F29823D1
S113585000200021FB181860596039787C4800F05A
S113586051FA002800D0FBE03A000223FC32916C8C
S11358700B439364B6E6774B1B68DE6840F20C2357
S1135880FB5C4BB940F20E23FB5C012B04D8731C68
S1135890013600D3F4E61E003B00FC33DA68002A2C
S11358A000D1EDE63B00FF33597D40F23013F85C44
S11358B0090703005C1EA3413C00090F5B18083371
S11358C00430FF341B18617B9BB2994200D2D7E6A7
S11358D03D00A37BFC351370E8686969013003F06F
S11358E055F8627DEB685A713B00FE33198BEA6808
S11358F091711B8BEA681B0AD371627DE8681207F9
S1135900120F55490830FCF733FB637D40F2301227
S11359101B071B0F1C00BA5C083432B140F228127A
S1135920B95CEA68093311551C003D0040F230139C
S1135930FC35E868FA5C0019296BFCF719FB40F2A6
S11359403013FB5CE868E418A4B20019A96B03F0F7
S11359501DF83B000434FF33E4B25C7340F22813B7
S1135960FB5C0BB1082311933A4B1D683B00EA68BA
S1135970FC33D8685B6996423ED83C00EE603D003B
S1135980FC34E368FF350A936B7B0A99043B9C461D
S11359909AB23B00FE335B8A0C936369002900D101
S11359A06EE640F200118A4200D969E6B7391891CF
S11359B0002118A881800C994681C180190C1B0E06
S11359C04372330C0373330E4373002383736346B0
S11359D0C373224B017200930A990723FCF740FE1C
S11359E0002800D04CE66B7BE068043BC018A16B38
S11359F002F0CCFF6B7B6BE640F230117A5C043C26
S1135A00A41A11000022001900920196119AFDF7C0
S1135A10D5FA0028B1D033E6082301250293119B5F
S1135A2022000093310028000E9B049503940195F5
S1135A3000F08EFDD0E6C046F0540020D4D400001F
S1135A4080560020B4D4000090D00300E05EF8FF3C
S1135A50D2530020A0530020E85400200455002015
S1135A600D230A93672800D165E508330A93662855
S1135A7000D060E50B23C7E5D0B5224C20212200DD
S1135A80FC32936C8B43936440F29823E3181E68B2
S1135A905F6833003B43BBB1FFF764F802000B00BF
S1135AA08F420AD801D1864207D8921BBB4111000C
S1135AB01BB941F64073994206D940F28C23002168
S1135AC0E258FD3BD154D0BD0120FFF70BFB03008E
S1135AD00028F8D00120082B00D1093040F28C2393
S1135AE0E358E9331A7840F24A23E2543C3BE25C3F
S1135AF03F33E254043BE054FBF7BEFE03F052FD97
S1135B00E1E7C046D05300200023F0B585B002AAD7
S1135B10138000220023026143610600FAF7B0FEFD
S1135B2020B9564BDB681F7D042F03D901242000C4
S1135B3005B0F0BD40F28C23514D3078EA58D83B83
S1135B40D35C2BB9020004339A430724002AEED114
S1135B5003A902F0A7FC039B002BE7D127B9282255
S1135B6039004848FCF774FD40F261230122EA54ED
S1135B7040F289220423A95C37780B43AB54082FE5
S1135B8074D8380006F056F9057272555F72727255
S1135B906E00FCF7E1FA40F28C23EB583279197865
S1135BA0072900D03A00E9331A700020FBF7C0FD42
S1135BB02B000024FF335C712B00334AFC33DA6082
S1135BC02B00FF22FE33DA81304B31481900F73ABB
S1135BD00193FCF7CDF90199082210392D48FCF7FF
S1135BE0C7F92000FFF77EFA0721040050B140F204
S1135BF08C23EB5832791978072900D03A00072111
S1135C00E9331A7040F29023EB181A685B6832612A
S1135C10736174B3194BDB681B7D002B00D086E7DE
S1135C2040F210220421AB547932AB5C8B43AB5469
S1135C307DE70022022002A9FCF794FB431E984151
S1135C4001210401DEE70C21B2887156B06800F02E
S1135C5085FA2A000223FC32916C00240B439364DE
S1135C600121CFE700220D2002A9E5E7012102244A
S1135C70C8E72200380002F0D5FF58E7905300200F
S1135C80D053002030560020D253002078570020F3
S1135C90DE540020E654002030B58FB0FAF780FCC3
S1135CA0C4B224BB6A4602231377124B07A8089395
S1135CB00325FCF755FE6B461D770F4B07A8089389
S1135CC0FCF74EFE08236A4613770C4B07A808938B
S1135CD0FCF746FE6B4668461C701C71FFF714FF08
S1135CE018B9074B1D800FB030BDFBF7CDFE042063
S1135CF0F9E7C046AF510020B75100209F51002062
S1135D00F65000200122F0B52B4B9DB00790049172
S1135D105B7B0192002B00D123E112AB9C1D21007F
S1135D200220FEF7CBFB2378019323B103230193D5
S1135D3001981DB0F0BD16AC21000420FEF7BEFB97
S1135D40052014A9FEF7BAFB0023E65E189B08930E
S1135D50179B0993199B0A930EB3012E28D1310086
S1135D600898FAF7D1FC0590144CF3B20499F0B2F8
S1135D700D93FBF717FA23000B9048331B78104D53
S1135D800E93149B0C930023039302936B461B7B8B
S1135D900693069A0E9B934214D86523C7E742F2F2
S1135DA01071099B0A9A5B0052189B180593DBE754
S1135DB001235B42FAE7C046AC5A0020105A002087
S1135DC0045A00202B79002B00D1A3E1069A0599EF
S1135DD00C98FAF7B5FC10900998012E03D1002114
S1135DE00898FAF791FC2B68CF4A9C462A331B7813
S1135DF0CD49DB009A5C5B180F92002211930F9B34
