S0140000526164696F4576616C4170702E7372656378
S1130000A04C00205902000091950000499700007F
S1130010499700004997000049970000499700005C
S113002000000000000000000000000049970000EC
S11300304997000000000000499700004D37000078
S113004000000000000000000000000000000000AC
S1130050000000000000000000000000858C00008B
S1130060000000000000000000000000D19100002A
S1130070000000000000000000000000000000007C
S113008000000000000000000986000000000000DD
S1130090000000000000000000000000000000005C
S11300A0000000000000000000000000000000004C
S11300B00000000095830000000000000000000024
S11300C000000000C9420000000000000000000021
S11300D00000000000000000000000008980000013
S10F00E0F17F000035800000718B0000EF
S11300EC010000001C01000002000000FC000000E4
S11300FC00400020004000200000104000000203DB
S113010C004000209C40002040040000000001033B
S113011CB84C0020B86000200000000330B585B056
S113012C0400092240F29F2001A903F0E6FD6B466E
S113013C1D79002301A8AB4214D1032B10D86946B6
S113014C5A1C0A716A465B00210A0532D1546A466C
S113015C0632D45440F29F20092201A903F0B0FDC9
S113016C05B030BD01004278897812025218023071
S113017C9442F5D00133DBB2DDE710B5074C102205
S113018C0021200009F0EAFC03F004FE10B913234B
S113019CE372237302F06AFD10BDC0467C5200204A
S11301AC10B50024214B1860214B22485C701C7044
S11301BC02F0FCFB200002F0D3FB012002F00DF94D
S11301CC2100200002F0D2FA2000042102F0E8F908
S11301DC4FF6FF7123002200080002F074F940F678
S11301ECAC00FFF79BFF40F68900FFF797FFFFF782
S11301FCC4FF114800F0E0FE104800F0DDFE104989
S113020C0D4800F0A9FE0F490C4800F0A5FE0E4B5A
S113021C1C7002F069FB80B2033400B904004FF681
S113022CFF7002F02DFD200010BDC046745200205A
S113023C78520020C9130000645100205051002052
S113024C711200008D1200008C52002010B500F0C9
S113025C2FF807F0EDF8FEE7F8B5060000240C279C
S113026C124D2B68A34204D80024AB68A3420ED8C9
S113027CF8BD3A0062436B689B185A7AB24204D1B7
S113028C05CB0021121A09F069FC0134E8E7EB688C
S113029C22019B185A7BB24205D118685A68996896
S11302AC121A09F0C4FC0134DFE7C046EC0000006C
S11302BC70B50025154B164A00209A6007F0A4F877
S11302CC09F0CCF8012007F09FF80020FFF7C4FFD9
S11302DC09F050F809F026F9022007F095F80120EE
S11302ECFFF7BAFF0B4C0C4BE41AA410A54205DB28
S11302FC09F0BEF9002009F023FA70BD064AAB00E0
S113030C9B181B6898470135F0E7C04600ED00E0E8
S10F031C0000000014C3000010C3000027
S1070400FFFFFFFFF8
S1070404F7AFC1FF8A
S1130440FC4F002034510020FF010100BC57002064
S1130450945A0020345A00204C5A0020D4590020C9
S1130460C859002001000000FFFFFFFF000000004A
S1130470E0BD00000000000000000000208B01002F
S11304800000000003000000CC5E0020504000206B
S113049000000000CC5E0020345F00209C5F002040
S11304A00000000000000000000000000000000048
S11304B00000000000000000000000000000000038
S11304C00000000000000000000000000000000028
S10F04D00000000000000000000000001C
S11304E044F29C0044F29C03C2F20000C2F20003F6
S11304F010B5834205D040F20003C0F2000303B1FB
S1130500984710BD44F29C0044F29C03C2F20000E0
S1130510C2F200031B1A9A10D90F8918491010B59A
S113052029B140F20003C0F2000303B1984710BDA3
S113053010B544F6B844C2F20004237873B9FFF747
S1130540CFFF40F20003C0F200032BB140F2084099
S1130550C0F2000000E000BF0123237010BDC046BC
S113056040F20003C0F2000310B54BB144F6BC41A5
S113057040F20840C2F20001C0F2000000E000BFF7
S1130580FFF7C0FF10BDC046F7B505000E000E48CA
S11305900E49019207F0D6F9040060B90C4F3200FD
S11305A038702900019B084807F015F9040010B9B8
S11305B03B78002BFCD0044806F056FF044363420A
S11305C05C41E0B2FEBDC046B45C00200CBF00003C
S11305D0D44C0020F7B507000E0010481049150050
S11305E007F0B0F9040078B96B4639000B4801AA4A
S11305F006F029FF040038B9009BAB420CD32A0053
S11306003000019909F019FB044806F02DFF04435A
S113061063425C41E0B2FEBD0324F5E7B45C002014
S11306200CBF00000122014B1A707047D44C00200B
S11306300022034B9A560AB901321A707047C04619
S1130640F84F0020034B00201A780AB118700130CB
S11306507047C0462C50002010B5034B1B689B7894
S11306600BB109F079F910BD0040002070B52C4B96
S113067004001B785BB283B12A4800F03BFB60B9ED
S1130680284800F093FB050040B1082C05D125480B
S113069000F057FB2000FFF7DFFF70BD2300613B34
S11306A0192B06D8203CE4B221001E4800F08FFB31
S11306B030E00A2C06D00D2C1AD0082C23D0202C84
S11306C0EBD0F1E72100174800F081FB2000164C25
S11306D0FFF7C2FF2378002BDFD0124800F031FB74
S11306E0104800F02EFB0122104B25701A70D4E73D
S11306F021000C4800F06BFB2000FFF7ADFF012246
S1130700094B1A70C9E7074800F047FB28B90548A8
S113071000F017FB2000FFF79FFF0022024BF0E7D9
S1130720F84F002020500020D54C00202C500020F1
S113073010B50A4C2368DB7813B1094803F071FE45
S113074023689A8814235343064A9B18186903F0B4
S113075068FE054803F065FE10BDC0460040002059
S1130760A3A70000D84C002019B1000010B50E4B0F
S11307701B685C78082C16D0DB7813B10B4803F0A7
S113078050FE230034B10123042C03D00333072C7F
S113079000D1023B064ADB009B18586803F041FE77
S11307A0024803F03EFE10BD00400020A3A7000055
S11307B0A0B1000010B5024803F033FE10BDC046DE
S11307C0A3A700000A0010B5A8B1002913DD010099
S11307D0094800F084FA094B094A00201A602823CA
S11307E00849013B9BB288811431002BF9D1D38095
S11307F0136000F0B9F810BD205000200040002024
S1130800FC4F0020D84C0020F8B507000A480668C1
S11308100320F588272D0ED814246C43074801358E
S11308202150241838006260A36009F00FFAA081F7
S113083000202761F580F8BD00400020D84C00203E
S11308400022024B1B681A807047C04600400020FB
S113085083B270B50400064D012B04D8FFF7F0FFF6
S11308602B68DC7070BD40F200422B681A80F9E7F7
S11308700040002040F20142014B1B681A8070477F
S11308800040002010B5274800F034FA20B10220BF
S1130890254B1B68187010BD224800F076FAFFF74C
S11308A0E9FF204800F079FA040058B91D4800F027
S11308B02BFA1E4BE3181B785BB283420FD1013431
S11308C0042CF3D1FFF752FF164800F062FA1548E2
S11308D000F00CFA0020144B1B681856DBE7E4B256
S11308E0114B022C04D0032C17D1FFF7A9FFE9E721
S11308F02B2807D00B4800F042FA01000C4800F006
S1130900C2F9DFE71B680748DC8800F038FA2100E9
S11309100200084800F0BAF8D4E700221B681A70F5
S1130920D0E7C0462050002000400020D0B1000095
S1130930C0B10000D84C0020014B1B6818707047F0
S113094000400020014B1B681878704700400020CD
S1130950014B1B685870704700400020014B1B6816
S1130960988070470040002010B5054B186800F0CF
S113097046FA14220349044800F0BAFA10BDC046EE
S1130980044000202D5000204450002010B5024B9C
S1130990186800F066FA10BD04400020002370B50A
S11309A00360013B0B80074B050018680C0000F046
S11309B031FA30B143682B600822835E238000F053
S11309C07FFA70BD0440002010B5044B186800F095
S11309D021FA00B910BD00F073FAF6E704400020D4
S11309E0C0B20300303BDBB2092B01D858B27047C8
S11309F00300413B052B02D8373840B2F7E701200A
S1130A004042F4E7002310B5C2560AB918B210BD2B
S1130A105C1C8A42FAD02300F6E70000F7B50022F6
S1130A20040003000191009200269E578EB9009B9A
S1130A309E420CDA20000199FFF7E4FF124F051ED5
S1130A4013DC386800F00DFA08B1FFF7BDFF002091
S1130A50FEBD019A964202D001229A561AB9009A12
S1130A60013252B200920133DEE70023235400F036
S1130A7001FA01360581446001000135386800F04F
S1130A80E1F9641976B2D2E704400020F0B505001C
S1130A9085B0012016000391FFF74EFF0420FFF7F5
S1130AA057FF00230193019B039A934201DB05B096
S1130AB0F0BDAC89002C3DD022003100286909F03A
S1130AC05BF8029038BB6B46002798883419FFF70F
S1130AD045FFE7573D2F07D03F2F31D0002F43D09C
S1130AE00220FFF729FF16E00123E3569BB12C21D6
S1130AF0601CFFF793FF0520FFF71EFF2B6843B12F
S1130B003000984704000298FFF716FF2000FFF713
S1130B101FFFFFF759FFFFF715FF0028C7D0FFF7A6
S1130B2011FF0528C3D0FFF70DFF022802D10138B9
S1130B30FFF702FF019B143501331BB20193B2E7A7
S1130B40647864B2002CE6D10520FFF7F5FE6B68EB
S1130B50002BE0D03000984707002000FFF7ECFEA0
S1130B603800FFF7F5FED6E70520FFF7E5FEAB6892
S1130B70002BD0D03000984704003800FFF7DCFE8B
S1130B802000EEE710B500220400A35610B203B90A
S1130B9010BD8B42FCD0303BDBB20132092BF4D9BF
S1130BA009204042F4E770B50400FFF7EBFF011E93
S1130BB012DB0022431E012510000A26E3188A4294
S1130BC000D170BD00241C570132303C6C4312B27A
S1130BD075430019013BF2E701204042F1E7C3B23B
S1130BE01A00303A0120092A06D900200522413B87
S1130BF0DBB29A424041C0B2704770B505000E00A6
S1130C0000242B5720B203B970BDB342FCD01800A6
S1130C10FFF7E5FF01340028F3D109204042F3E750
S1130C2070B50500FFF7E9FF02280CD10020285613
S1130C30FFF7D6FE040001202856FFF7D1FE240159
S1130C40201800B270BD012804D100202856FFF7F7
S1130C50C7FEF7E7031C002801DB4FF6FF7318B249
S1130C60F0E710B50400FFF7C8FF012804D1002005
S1130C702056FFF7B5FE10BD431C01DA40B2FAE777
S1130C8001204042F7E710B504000023E3564BB1BE
S1130C9000228A569A4206D1481C0021FFF7E1FF40
S1130CA06368984710BD0834EFE7F7B505000F00F7
S1130CB0FFF7A3FF2E0000240190731B019A1BB2BF
S1130CC09A420ADD00203056FFF78AFE00230136DF
S1130CD0F35624010419BB42EFD12000FEBD20B11C
S1130CE0002382800360C3808160704708B10023C1
S1130CF003607047030000202BB10620185601380A
S1130D0043425841C0B2704770B50500C0B10023DA
S1130D10C45E0222835E0020A34211D02800FFF7A4
S1130D20E9FF04216B5E013494FBF3F102004B43B1
S1130D30A968E31AC85CCC181BB202B922702B80D4
S1130D4070BD70B50400C8B10223C55E0022835E85
S1130D500020AB4212D02000FFF7CCFF030000209C
S1130D6063B9A268505D53550222A35E0421625EFA
S1130D70013B93FBF2F14A439B1A638070BD18B1A7
S1130D800022835E8068C018704708B10123837114
S1130D90704708B10023837170470022835E0222EA
S1130DA0805E181A43425841C0B270470222835EE3
S1130DB00421425E013393FBF2F14A439B1A002261
S1130DC0805E1BB2C01A43425841C0B2704770B52E
S1130DD004000D0090B1FFF7E9FF78B92000FFF798
S1130DE089FF58B90222A35E0421625E013393FB9A
S1130DF0F2F14A439B1AA2686380D55470BD002364
S1130E0003607047006820B1030000680028FBD12C
S1130E10180070470300006808B102681A60704740
S1130E2003682BB18B4204D10B68036000230B6071
S1130E3070471A001B68002BFAD09942F9D10B684D
S1130E401360F3E770B505000C00FFF7E9FF00231A
S1130E5028002360FFF7D6FF08B92C6070BD04603A
S1130E60FCE70368002003B9704701301B6800B237
S1130E70F9E70000F0B5104B1B785BB21800B3B172
S1130E8000200E4A0823D15E814210DD55680A23F2
S1130E90D65E2B0010685C1B24B2A64207DD002737
S1130EA0DF575C1C27B90139118101221A70F0BD8A
S1130EB023000C30EFE7C046445100203851002095
S1130EC010B570B1094A0A23D45E002311689C420C
S1130ED007DD814206D11189013111810021526857
S1130EE0D15410BD01331BB20C31F0E7385100204E
S1130EF0002310B5074CE35653B9002A08DD38B176
S1130F0031B1054B186059601A815A81012323704D
S1130F1010BDC046445100203851002010B502F0E5
S1130F202DFD10BD37B506AC2478079D00940195BE
S1130F3002F02AFD37BD10B502F02EFD10BD10B52C
S1130F4002F040FD10BD00000022054B10B5040066
S1130F5000681A7002F07AFF206003F02BF910BDCC
S1130F604C5100200023036043600372C16003619D
S1130F707047000070B5124C236843B1002201256C
S1130F801A601A720023206858B903B1206070BD3A
S1130F90C1682B00026911B122608847F2E7100092
S1130FA0F2E70268002AF3D03BB9037A002BEED1B2
S1130FB001230372FFF7C8FFE9E72060F5E7C046A5
S1130FC048510020F7B52F4D040001A802F0A2FB00
S1130FD02A78531CDBB22B700AB902F0BDFB2A4EEF
S1130FE001A802F09CFB336803B16CB901A802F0BC
S1130FF091FB2B78013BDBB22B700BB902F0BCFBED
S113100001A802F08CFBF7BDA3422ED1237A13B3BF
S113101002F0C8FF2768002433688C4619691C72E3
S1131020A9B13A00316023003E002700644502D193
S1131030824200D90600921BBB4116000B680800CF
S11310409B190B6001230B72FFF77EFFCEE7316023
S113105002F02AFFCAE723692BB1216833601A68BA
S113106052181A60C2E73360C0E71A001B69002BEC
S1131070BCD09C42F9D1236921681361002BEED1C5
S1131080B4E7C046C454002048510020054B1B68F7
S11310900BB918007047834201D01B69F8E701209F
S11310A0F8E7C04648510020F0B587B0040005A811
S11310B002F030FB40490A78531CDBB20B700AB9CA
S11310C002F04AFB05A802F02AFB24B12000FFF736
S11310D0DDFF009078B105A802F01CFB364A1378B6
S11310E0013BDBB213700BB902F046FB05A802F01A
S11310F016FB07B0F0BD6368304D23602968009B80
S1131100237239B921610123200023722C60FFF777
S11311101BFFE0E7087AF0B102F044FF2B68009F60
S11311201E683B003200B94202D1864200D9020057
S1131130B61A9F4100960197019B26682F6813B940
S1131140009BB3420BD927B1009B9E1B00233E603A
S11311503B722761D7E70B6801900093ECE73D6988
S11311602DB9009BF61A26603C612561B3E7286817
S11311700199009A019B8018594109B9864208D205
S1131180009B009AF31A23602B689B189B1B2B600F
S1131190EAE72B6923B9361A26602C6123619AE7A2
S11311A01A682F000292002203921D00029A039BE8
S11311B000900191DFE7C046C4540020485100204C
S11311C070B50D000400FFF7FDFE2560656070BD7D
S11311D010B502F0E3FE10BD10B544781CB901341B
S11311E0447003F097F810BD10B503F09DF810BDDE
S11311F010B503F0B7F810BD154B00B5185C0A28FC
S113120023D808F0A5FA1E161612060D22221A1665
S11312101200002001230B398B424041C0B203E08D
S11312200C394B425941C8B200BD002002230A398F
S1131230F2E7002003230939EEE7002004230839EC
S1131240EAE7002005230739E6E70020ECE7C0467B
S113125090B20000014B18887047C0467A520020B3
S113126010B5024B987A01F081FB10BD7C5200202E
S1131270002010B501F07AFB034B1B6813B15B68C7
S113128003B1984710BDC04674520020002010B529
S113129001F06CFB034B1B6813B1DB6803B1984787
S11312A010BDC04674520020012310B511B102F0E4
S11312B02AFD0023180010BD012310B511B102F05E
S11312C005FD0023180010BD10B502F069FD0D23C3
S11312D0012800D00A3B180010BD000010B500F032
S11312E0E1FF03000020082B01D8014AD05C10BDA7
S11312F0DFB1000010B5054B04005B7B0BB101F0BE
S1131300CFFE200001F018F910BDC0467C52002029
S113131010B502F00CFD10BD10B502F0EBFC10BDD1
S113132010B5044B5A7B012312B101F047FE0300B0
S1131330180010BD7C52002010B5042001F062FB9F
S11313400220FFF7EBFD10BD10B5002001F05AFBA1
S11313500220FFF7E3FD10BD10B501F039FC10BD0C
S113136040F28010002310B51A00010001F0B1F81A
S113137001F048FC10BD000070B540F2E8360E4B99
S113138005005B7B0C00564383B9280001F0D4F8B8
S1131390200002F0F9FC01F043FC31000748FFF79C
S11313A00FFF0648FFF780FE002070BDC0B202F0B8
S11313B0E3F80028E9D0F8E77C52002064510020CB
S11313C010B501F0F3F910BD10B572B6BFF34F8F2D
S11313D0BFF36F8F02F08CFA0122044B1A7062B6CD
S11313E0BFF34F8FBFF36F8F10BDC0468C520020E8
S11313F0F0B585B072B6BFF34F8FBFF36F8F002285
S1131400654E33783270DBB262B6BFF34F8FBFF3F1
S11314106F8F002B00D19FE001F06BF804004FF6B2
S1131420FF7001F09AFA72B6BFF34F8FBFF36F8F5C
S113143002F004FD0500012802D102F059FA3570CA
S113144062B6BFF34F8FBFF36F8F40230125234054
S11314500193019A514B1A802C420BD05048FFF74C
S1131460B1FD280000F024FF4E4B1B6813B11B682C
S113147003B1984702252C4244D04B4B1F78A7B99F
S11314804A48FFF79FFD012000F012FF390040F6A3
S1131490021002F02FFC40F6441002F048FC054311
S11314A0E9B240F6441002F025FC02ABDF1DFF2236
S11314B039003F4801F0B0F93E4801F0C1F9019B01
S11314C013B13D4B1B7A7BB1364B1B6863B19D68EE
S11314D055B1384A39781378002B41D10823D356B3
S11314E00620125E3248A8472F4B1B7853B100F0F8
S11314F0D9FE052806D1304B587A002835D0002073
S113150001F048FB019B2BB1264B1B6813B11B69EF
S113151003B1984723060AD5012000F0C9FE214BE8
S11315201B6823B19B6913B1E005C00F9847A4055C
S11315300FD500F0B7FE04281AD11948FFF742FD71
S1131540012000F0B5FE174B1B6813B15B6803B1B3
S113155098470023114A13803078C0B205B0F0BD1B
S11315601223D3561020125EBCE701F0C1FAC9E77A
S113157000F098FE0528ECD10B4B1B782BB90B48D7
S1131580FFF720FD012000F093FE064B1B68002BA3
S1131590DFD0DB68DBE7C0468C5200207A520020A3
S11315A06451002074520020A853002050510020A0
S11315B08D5200208C5300207C52002070B50F4BBC
S11315C006005B7B0C00150093B9300000F0B4FFFB
S11315D0200002F0D9FB01F031FB40F2E831084869
S11315E06943FFF7EDFD0648FFF75EFD002070BD7F
S11315F0C0B201F0BFFF0028E7D0F8E77C5200201A
S11316006451002010B500F01BFF10BD02001F2024
S11316105AB1012308490868824207D9886882427E
S113162004D8054ADB009B18187970470133083148
S1131630172BF0D11F20F8E79CB2000010B50A4B1D
S1131640012807D1094AC73311700948197001F0FC
S113165041F810BD1A00BF321278002AF9D1034AAA
S1131660C0331170F1E7C0467851002008400020D3
S11316703052002070B5164B05005B7B0C00012036
S11316801BB1280001F0B8FEF8B9F5B1002340F20F
S113169001211A00080000F01CFF00F081FF0D4B2F
S11316A0012813D1C7331C700B4801F013F8002232
S11316B02100280001F014FA084B09481968FFF7C3
S11316C07FFD0748FFF7F0FC002070BDC033EAE758
S11316D07C5200207851002030520020B05300206A
S11316E064510020002340F2422110B504001A0086
S11316F0080000F0EEFE34B10A482100FFF760FD57
S11317000848FFF7D1FC084B1B7833B1402000F0A8
S1131710D7FE002001F03EFA10BD044B186880018A
S1131720F8E7C04650510020A8530020AC530020D5
S113173070B5164D04006B7B33B96A7A4AB1200048
S1131740FFF7D0FF002003E001F006FF0028F4D0EB
S113175070BD40F242211300080000F0BAFE34B11B
S11317600B482100FFF72CFD0948FFF79DFC094BAE
S11317701B7833B1402000F0A3FE002001F0B8F93B
S1131780E0E7054B18688001F8E7C0467C5200206A
S113179050510020A8530020AC530020F7B5070097
S11317A00C000025C9B3364E01A801F0B3FF32780E
S11317B0531CDBB233700AB901F0CEFF01A801F06B
S11317C0AEFF092F36D8380007F0C2FF050A292DCD
S11317D031393F43475322782A4B1A7001250FE0D1
S11317E016250422210001A808F027FA019A264BA5
S11317F01968914241D0013DADB20833002DF7D1B3
S113180001A801F087FF3378013BDBB233700BB9D9
S113181001F0B2FF01A801F082FF2800FEBD22788A
S1131820184B1A72DAE72278164B5A72D6E72378E5
S11318302F2B01D90025E3E7124AD372CEE7237890
S11318402F2BF7D80F4A1373C8E722780D4B5A731E
S1131850C4E722780B4B9A72C0E70A4D23784FF6FF
S1131860FF70AF7BAB7301F011FA0028B6D1AF73F0
S1131870E0E72278034BDA73B0E7024B5A60ADE736
S1131880C45400207C5200209CB20000F7B507002D
S11318900C00002679B3254D01A801F03BFF2A78FE
S11318A0531CDBB22B700AB901F056FF01A801F0FA
S11318B036FF0026092F11D8380007F049FF050923
S11318C01E2124272A2D3033194B1B78237004E062
S11318D004222000174908F0B0F9012601A801F0FC
S11318E019FF2B78013BDBB22B700BB901F044FFDD
S11318F001A801F014FF3000FEBD0D4B1B7AE5E793
S11319000B4B5B7AE2E70A4BDB7ADFE7084B1B7B86
S1131910DCE7074B5B7BD9E7054B9B7AD6E7044BA7
S11319209B7BD3E7024BDB7BD0E7C046C45400204B
S11319307C5200208052002010B500F0B3FC08282F
S113194006D10022054B5A701A7001F085F910BDBA
S11319500028FCD101F00AF8F9E7C04678520020CB
S113196010B504000B4B1870587000F015F854B102
S1131970342140F2407002F0BDF9442140F241703C
S113198002F0B8F910BD142140F2407002F0B2F92F
S11319902421F3E778520020012010B500F0F2FD75
S11319A0044B18785A78824202D05870FFF7D8FF57
S11319B010BDC0467852002010B5012806D0002082
S11319C000F0E0FD0022034B5A7010BDFFF7E4FF66
S11319D0FBE7C04678520020F0B50600492095B0D8
S11319E010931AAB150004CB0C911B8821A90B93FF
S11319F01CAB1F881DAB1B7809780D931EAB1B789D
S1131A000E931FAB1B780F9320AB1B789C4608AB3F
S1131A10C018C07F11904D20C018C47F7B48407B04
S1131A20A8B1119B07910893634606930F9B0092FC
S1131A3005930E9B2A0004930D9B0C9903930B9B17
S1131A4030B201930994109B029701F031FB704B63
S1131A501C7063425C410D9B644227400BB9FF3309
S1131A600E936C4B0E9A1A7026B1012E5ED0002094
S1131A7015B0F0BD684C300000F080FC2300E83362
S1131A801E702300EC331D6023000B22F4330C98EA
S1131A901A70FFF7BBFD2300F53318702300B83329
S1131AA01E700B9B0D99DA002300BA331A802300B1
S1131AB041F60402BC331A802300BE3322001E7098
S1131AC00123BF325940117022005249C0320978B3
S1131AD011700F9A02B1F1332200C1321370230046
S1131AE00122C233E8341A70FFF7BAFB2078431E90
S1131AF09841C0B2FFF760FF200000F0A7FD4748FF
S1131B0000F0E8FD0822464912A808F096F812A849
S1131B1000F0EFFB40F2FF1000F014FC41F64073BC
S1131B207B43B3FBF5F33F4A1360A0E73A4C002034
S1131B3000F024FC2300E8331E702300EEB2F833D7
S1131B400C9A1E70384B29009B5C1000053E0E93C6
S1131B50FFF752FB012E07D86B460B9A9B8D0C2A7C
S1131B6000D20C239BB20B9323000E9AF9331A7004
S1131B702300109AFA331A7023002500FB331870DF
S1131B800123B8352B7023000B9AC4331A80230029
S1131B900D9AC6331A7023001E4AC73312782600E2
S1131BA01A7023000F9AC8331A70119BE834C9368F
S1131BB03370FFF755FB2078431E9841C0B2FFF7FE
S1131BC0FBFE200000F042FD280000F083FDF8B287
S1131BD000F0DDFB3378042440F23670012B10D181
S1131BE002F0A5F8A043C1B240F2367002F082F8C8
S1131BF07B427B410D4A5B4213404FF6FF729B18B8
S1131C0091E702F094F80443E1B2EDE77C5200203E
S1131C10A8530020084000207851002030520020B2
S1131C20E4B30000AC53002090B200000100FFFFB9
S1131C30F0B595B00B931AAB20CB0E911B7821A96C
S1131C4010931CAB1F881DAB1B7809780C931EAB3B
S1131C501B7811916C490F920D93497B1FAB20AAFD
S1131C6006001B78127899B105930D9B2299049371
S1131C700C9B089103931199109B07910692019371
S1131C800F9A0B9B0E9900B20297009501F038FA57
S1131C904EB1012E57D040F6890002F048F80421D5
S1131CA00143C9B2A3E0594C0B222300E8331E7050
S1131CB02300EC331D6023000B98F4331A70FFF7F4
S1131CC0A5FC2300F533187023000F9AF0331A6033
S1131CD02300B8331E702300FF00BA331F80230093
S1131CE041F60402BC331A802300BE3322001E7066
S1131CF001230C99BF32594011700D9A02B1F1338E
S1131D002200C132137023000122C233E8341A7056
S1131D10FFF7A6FA2078431E9841C0B2FFF74CFEA5
S1131D20200000F093FC3A4800F0D4FC0822394922
S1131D3012A807F082FF12A800F0DBFA40F2FF10AD
S1131D4000F000FBA7E7314C0B9A2300E8331E7028
S1131D502300EEB2F8331E702F4B29009B5C100059
S1131D60053E0F93FFF748FA012E04D83B1C0C2FB5
S1131D7000D20C239FB225000F9BF9352B70230052
S1131D80109AFA331A7023002600FB3318700123CB
S1131D90B83633702300C4331F8023000C9AC63333
S1131DA01A7023001D4AC73312781A7023000D9A43
S1131DB0C8331A702300119AC933E8341A70FFF734
S1131DC04FFA2078431E9841C0B2FFF7F5FD20007A
S1131DD000F03CFC300000F07DFC2B78062B00D09A
S1131DE059E740F6890001F0A2FFFB21014040F6CB
S1131DF0890001F07FFF0E9801F0C6FF0020084B18
S1131E00229A1A6015B0F0BD7C520020785100204F
S1131E1030520020E4B3000090B2000008400020DB
S1131E20B053002010B5FFF7B7FD00231A001900C6
S1131E30180000F04EFB00F079FE10BDF0B587B03D
S1131E400025059102920493322B5DD84E4B4F4CE2
S1131E501B782A0003932300F933290028001E78F5
S1131E602B0000F036FB00F09BFB494F019001284A
S1131E7051D17D683DB92B004649DA0052181168EA
S1131E80B14244D155680026FFF7EAF90020FFF774
S1131E9093FD414B28001E70FFF7B8FB2300F53378
S1131EA018703D4800F0D2FB2000B830067000F0F6
S1131EB011FC0598FFF71EFA384800F019FE01F0EE
S1131EC0C7FF0500280001F0C9FF0028FAD000F080
S1131ED06DFC029B98422EDB0025FFF7C1F9019BA4
S1131EE0012B43D1FFF758FD23002000039AF5335B
S1131EF01A70019BE830037000F0A8FB2000019BDE
S1131F00B830037000F0E6FB280007B0F0BD0133E1
S1131F100A2BB1D1B7E7FFF7A3F978680028C8D036
S1131F202600E8363570FFF771FB174B1870300048
S1131F3000F08CFBBDE740F2E835049B5D4301F003
S1131F4087FF060000F032FC029B9842C4DA30009E
S1131F5001F084FFABB29842F4D300F027FC029B5B
S1131F600125834200DC0025EDB2B6E77B68002B37
S1131F70CAD02300039A2000F5331A700023E830F6
S1131F80037000F063FBBFE76D520020785100201E
S1131F907C52002040B2000060520020FFFFFF008E
S1131FA0F0B5514C87B0260005900391F53633788F
S1131FB002932300F9331B780493322900D991E06A
S1131FC000231A001900180000F083FA00F0E8FA60
S1131FD0464F0190012864D17D6845B92B004449DE
S1131FE0DA00521811680498814256D155680026C7
S1131FF0FFF736F90020FFF7DFFC3E4B28001E7088
S1132000FFF704FB2300F53318703A4800F01EFB79
S11320102000B830067000F05DFB0598FFF76AF900
S11320207B7A3548002B4CD000F0B4FD40F2E83602
S1132030039B5E4301F00CFF0500280001F00EFF36
S11320400028FAD001F004FF2C4D039000F0AEFB01
S11320502B1C854200DA031C03981DB201F0FEFE1E
S1132060B3B29842F2D3FFF7FBF8019B012B2BD1BB
S1132070FFF792FC23002000029AF5331A70019BAB
S1132080E830037000F0E2FA2000019BB8300370DE
S113209000F020FB280007B0F0BD01330A2B9ED1CD
S11320A0A5E7FFF7DDF878680028B6D025000023FF
S11320B0E8352B70FFF7AAFA3070280000F0C6FA52
S11320C0ABE700F015FDB1E77B68002BE2D02300FD
S11320D0029A2000F5331A700023E830037000F0F0
S11320E0B5FAD7E7054DD5E7785100207C5200209A
S11320F040B2000060520020FFFFFF000080FFFF9D
S1132100F0B585B015000AAA17880BAA01911178B9
S11321100CAA14780DAA127848B1012814D001250C
S1132120002040190138B0FBF5F005B0F0BD0123E3
S113213040F2E8304B40FB185200DB001219183310
S1132140D2009B185843ECE7043302936B1F012B16
S113215004D83B1C0C2F00D20C239FB21201E400C4
S1132160A4184A4251411423AE0049420B40A41B17
S1132170E418AB1E0393062D07D9290001980834EF
S1132180FFF73AF808B1AB1E9E00E343DB171C408F
S1132190A419013C94FBF6F6029B7343DA1913006D
S11321A00E33062D00D9023B084A0199525C0A2AD3
S11321B00AD803999B0001338B4040F2E83058431E
S11321C0034B9200D558ACE7FFDEC04690B2000046
S11321D0E8B10000030000200A2B01D8014AD05CBA
S11321E07047C046D4B10000F0B504000E0085B0BD
S11321F018B30020012C51D1294D2B00F933187844
S1132200FFF7E8FF01002800C83000782B002A00FF
S1132210471EB841FA33F8321B781278039028002D
S11322200296C6300078C435461EB0410190288815
S113223000902000FFF764FF30E0194B1A00EC32E5
S113224015681A00C13212780296013A511E8A4169
S113225003921A00BF321278BA3351424A410192B2
S11322601B882A00DB08009301000300FFF748FFE6
S113227041F65732012395420FD840F6B732DB18A6
S113228095420AD840F2CF720133954205D840F204
S1132290E7320433954200D9023B181805B0F0BD6B
S11322A078510020014B18787047C046094000203F
S11322B0014B18707047C0460940002010B5084B08
S11322C01A78082A08D840F24113D340DB0703D513
S11322D001F0C8FC01F06AFD01F0BAFC10BDC04673
S11322E00940002010B50A000100002001F028FD7B
S11322F010BD10B5010040F2C060082201F0E6FCF8
S1132300002010BD07B5064B01A91B7840BA088010
S113231023B9022240F2BC6001F0D8FC07BDC046DC
S1132320C153002007B5064B01A91B7840BA0880A9
S113233023B9022240F2BE6001F0C8FC07BDC046CA
S1132340C153002010B50C4B04001B789BB940F21C
S1132350B86001F0ECFC01220100230A9143134010
S1132360C9B240F2B860194301F0C4FC40F2B9604C
S1132370E1B201F0BFFC10BDC153002007B56B46AC
S1132380D91D087001229F2001F078FC07BD73B5A8
S1132390031C0400F82804D94BF2EC33C0F2000308
S11323A01B780133DBB25B100025DEB21F2B02DD8C
S11323B00336B608013532006B0001339A4013002E
S11323C06A46D3716B460122A020D91D01F056FC48
S11323D044B16B46F600A919C9B240F20670D9712E
S11323E001F088FC73BD07B56B46D91D0870012246
S11323F0962001F043FC07BD07B56A46031CD11DB6
S113240058069A06C00FD20F520180011043DA0712
S1132410D20F1043DA06D20F120110431A07D20F5B
S1132420D20010435A07D20F9B079200DB0F1043D0
S11324305B00184308700122892001F01FFC07BDCE
S113244007B5104B01A9984206D90F4B0B80022205
S1132450982001F013FC07BD0C4B984201D90C4B9A
S1132460F4E70C4B984201D90B4BEFE70B4B984226
S113247001D90B4BEAE70B4B9842E8D946F66B734C
S1132480E4E7C04600E9A435E1E9FFFF80F8A9329A
S1132490D7DBFFFF8044E52DC1C5FFFF000B6B1B9D
S11324A07581FFFF40FC541913B501AC20706170B5
S11324B0A270210004229520E37001F0DFFB13BD1C
S11324C007B56B46D91D08700122932001F0D6FB95
S11324D007BD13B56C4652BAA280082240BA49BA65
S11324E0208061805BBA69461000E38001F0C6FB7E
S11324F013BD13B501AC02222100122001F0D3FB5D
S1132500208840BA80B216BD07B56B46D91D087045
S113251001229D2001F0B2FB07BD07B50B00072285
S113252001A910401A0C08704A705BBA0422972063
S11325304B8001F0A3FB07BD37B5104B104D18605D
S11325402B7804001BB9FFF77BFF01232B7043F6A4
S11325500951B4FBF1F20B0041F684605343E31AD2
S11325609B031B18B3FBF1F392039B181BBA0422C1
S1132570862001A9019301F081FB37BDB8530020E7
S1132580B453002007B56B46D91D044B087018706E
S113259001228A2001F072FB07BDC046C15300200E
S11325A0014B18787047C046C153002037B504006A
S11325B00D0001F0EFFB0200012826D103000021E9
S11325C00F2C08D10620FFF76FFF231C5AB20E2AE6
S11325D00CDD0E230AE00420FFF766FF231C1134F0
S11325E0F4DA4BF2ED33C0F200031B7818215CB22D
S11325F040F6E70001F07EFB6B4602228E2001A923
S11326005D711C7101F03AFB37BD40F6D80001F052
S11326108EFB1E210143C9B240F6D80001F06AFBCB
S11326200123002207210420FFF73EFF231C093465
S113263007DA4BF2EE33C0F200031B7838215CB2A8
S1132640D6E75AB2162AF9DD1623F7E713B50400C4
S113265008220021684607F087FA1C4B20781B7873
S1132660834201D0FFF78EFF237813B1012B28D0CA
S113267013BD6268164B6946B3FBF2F343F6095087
S11326801A0C0A701A0A4A708B70237BA268CB70EA
S1132690637B0B71B2FBF0F103004B43D31A41F699
S11326A084629B039B18B3FBF0F389035B186946B0
S11326B01A0C4A7108225BBACB808B2001F0DEFA37
S11326C0D6E72369042269460093F6E7C153002044
S11326D00000093D30B5040085B001AD0922002198
S11326E0280007F041FA224B20781B78834201D05E
S11326F0FFF748FF23781BB1012B2BD005B030BD69
S1132700637AF12B1AD14FF6FF70FFF7FBFD48F205
S11327100500FFF707FE02236288A18852BA2A80C7
S1132720227A6980AA710922E188EB71A980A37ACF
S11327302B7229008C2001F0A1FADFE7F22BEBD1F8
S113274041F60F50FFF7DEFD41F22100FFF7EAFDED
S11327500623E1E7A389074A5BBA2B80A37B1370A6
S1132760AB70E37B0622EB70238AAB80E1E7C046C3
S1132770C1530020C053002007B56B46187159712E
S113278002228F2001A901F079FA07BD002110B5BA
S11327900A00C02001F087FA0721021143100A4001
S11327A00B4012015800104310BD000013B501ACDA
S11327B001222100152001F076FA064B22781B78BD
S11327C052085BB29B1A181C803301DA4FF68070F2
S11327D000B216BD7C52002037B505000C00022261
S11327E0132001A901F05FFA094B1B78012B0CD1CE
S11327F0084B1B78012B08D140F2027001F097FAC4
S11328006B4628705B79237037BD6B461879F7E700
S1132810C1530020C0530020F7B56B460C00DF1DE8
S11328200500390020001600FFF7D6FF22780120AA
S1132830B24204D83878290001F094FA0020FEBD91
S113284037B5040001AD03222900142001F02BFA4E
S1132850254B1B7823704BB1012B24D01B22002164
S1132860601C07F081F90F2323701BE000222B78F2
S113287023711E4B9A566B7892B25B08D31A191CBB
S11328801BB2803301DA4FF680712181AB785B088B
S1132890D31A1A1C1BB2803301DA4FF6807200235C
S11328A0E280E36037BD0022104B9A562B7892B237
S11328B05B08D31A191C1BB2803301DA4FF68071FE
S11328C001232182EB5602339B10A374AB785B087F
S11328D0D31A1A1C1BB2803301DA4FF68072044BF0
S11328E0A2821B68A361DDE7C15300207C52002053
S11328F0BC530020002313B501AC21000222172091
S1132900238001F0D0F9012362785110100019409E
S11329109940184008439110194089000843D11088
S11329201940C90008431111194009010843511104
S11329301940921149011A40084392011043227828
S113294013401B02184316BD002307B5022201A938
S113295007200B8001F092F907BD07B5022201A9F7
S113296040BA0880100001F089F907BD07B56B462D
S1132970D8710E48FEF726FB0D48FEF723FB6B4685
S11329800122D91D802001F079F96B46DA79094BCF
S11329904AB9013220201A70FFF792FD4FF6FF70FA
S11329A0FFF7DBFF07BD02221A70F7E7645100202E
S11329B0505100200940002010B5040001F032F904
S11329C0200001F00FF901F04DF90020FFF7CEFFD0
S11329D001F016F901F0EAF90120FFF795FD012253
S11329E0044B1A700023044A1370044A1370044AF7
S11329F0136010BD09400020C1530020B4530020CF
S1132A00B853002013B5041CFFF7C0FE6023034035
S1132A10202B02D00020FFF7A9FF01F007FA6B4634
S1132A20A207D91D6307DB0FD20F52009B0013438B
S1132A30E207D20F1343842001220B7001F01EF928
S1132A4004210B00074A2340214202D000231370C3
S1132A5013BD08211170044A1370044A1360044A18
S1132A60F5E7C04609400020B4530020B8530020C5
S1132A70C153002037B501F093F988B96B460122A0
S1132A80D91D80300A70074D01F0F8F8064B40F666
S1132A901110E97A5C6CA04740F61210297BA0471C
S1132AA037BDC0467C52002054B3000013B5042245
S1132AB00400094B09481A70FEF784FAFFF7DAFF9D
S1132AC001A9230C0B700322230A83204B708C7002
S1132AD001F0D4F813BDC046094000205051002035
S1132AE010B51400FFF7FEFB2000FFF7DFFF10BD59
S1132AF0052213B504000B4B0B481A70FEF762FA5B
S1132B00942140F6AC0001F0F5F8FFF7B3FF01A9FA
S1132B10230C0B700322230A82204B708C7001F06B
S1132B20ADF813BD0940002064510020F0B540F613
S1132B30E206002785B03000039701F0F8F8FE2183
S1132B4040F6E50501400400300001F0D3F8280008
S1132B5001F0EDF87F2101900140280001F0CAF84E
S1132B600B48FFF7C5FF042203A940F6190001F042
S1132B70CAF83800FFF7FAFE2100300001F0BAF875
S1132B802800019901F0B6F8039805B0F0BDC046DD
S1132B90FFFFFF00052213B504000B4B0B481A700E
S1132BA0FEF710FA962140F6AC0001F0A3F8FFF707
S1132BB061FF01A9230C0B700322230A82204B70AE
S1132BC08C7001F05BF813BD0940002064510020B3
S1132BD037B505000C00FFF74DFF6A462B0C137048
S1132BE02B0A5370230C64BA9570D3709480694691
S1132BF00622942001F042F80622014B1A7037BDD8
S1132C000940002010B5FFF735FF0022C520110050
S1132C1001F034F80722014B1A7010BD094000205E
S1132C2010B5FFF727FF0022D120110001F026F88C
S1132C300422014B1A7010BD0940002010B5FFF7A3
S1132C4019FF0022D220110001F018F80422014BD0
S1132C501A7010BD0940002010B50120FFF754FC84
S1132C6000F0CEFF0120FFF7BEFB0122014B1A70DA
S1132C7010BDC04609400020024B1B780BB9024A24
S1132C80D3817047C25300207C520020F8B500273E
S1132C90274B05009E7B38000A2E47D8254C14226A
S1132CA0390025482770676006F05EFF1822390056
S1132CB0224806F059FF224B1B7823B123004633E8
S1132CC01B78B34231D02300463300221E70002308
S1132CD0A263E3630023A11D2200CB878021473236
S1132CE0117022004832137001271A0040F2013C8F
S1132CF0144923640878B0420DD13D420BD00B2A0D
S1132D0008D81148D30019501B18604698803B001E
S1132D100132D2B26D080D482C318142EAD10BB197
S1132D20483422700123064A13700120F8BDC046BE
S1132D307C520020C8530020D0530020E4530020CC
S1132D40C2530020F0B3000018540020C8B900009A
S1132D504A425141094A4942114042F210728918CB
S1132D600300C8430A2B07D8054AD35C054A9B00D5
S1132D709B58C81803B9C8437047C046F0D8FFFF32
S1132D8090B2000014B2000010B5040008002CB189
S1132D90012C09D12100FFF7DBFF10BD500042F2E6
S1132DA010729B18C018F8E701204042F5E70000B4
S1132DB0F7B51B4ACE00B218127903000120D2B134
S1132DC000229C5EDD68844216D100219868FFF7DA
S1132DD0BFFF134B134A9B5940F20C0C2A331B7848
S1132DE01049DB009A5C5B1801920022019ED1B26B
S1132DF08E4203D80420FEBD5868EAE76146514379
S1132E005F687E18795EA14205D17168A94202D13A
S1132E10B168814201D00132E8E70020EBE7C04607
S1132E2018540020C8B9000003000D48D2001258FD
S1132E3030B5546802209C4211D895689D420ED347
S1132E40D2681B1BB3FBF2F454431D1BA34206D1EF
S1132E502800012A03D08A4292415242500030BDD8
S1132E6018540020044BC900CB585B69834280414D
S1132E70404200017047C04618540020F8B51A4C6F
S1132E800020236C63B3A31DDB8F184DDB005B595B
S1132E90188B28B3FEF79CF90023226C06000F0060
S1132EA0A06BE16B801859410222002312184B4198
S1132EB0BB4216D801D1B24213D802225242D317D0
S1132EC0121A8B4192197B410634E18F0120C9000B
S1132ED06958098B0BB9914200D80020800180B257
S1132EE0F8BD00220023EFE7C85300201854002047
S1132EF00300002082B00190D1B142F20F729142DE
S1132F000CD840F2E73291420AD9013242F21070F1
S1132F100192019A401AB0FBF2F0584302B0704794
S1132F2064226329F2D80A220929EFD80122EDE7A5
S1132F300121FBE7F8B51F4C0020236CABB3A31DA4
S1132F40DB8F1D4DDB005B59188D70B3FEF740F924
S1132F50A66BE76B0B0002001900236C10009C4663
S1132F601A000023B6185F410222002392197B4104
S1132F708B421BD801D1824218D802225242D31765
S1132F80921BBB4112184B4116001F000634E38FFD
S1132F906046DB00EB58198DFFF7AAFF01230FB938
S1132FA0B04200D80023580180B2F8BD00260027A3
S1132FB0ECE7C046C853002018540020124AF0B56C
S1132FC013000400463319784832104B1278DD7B25
S1132FD00F4B0639D200C9B2D218934201D1002056
S1132FE0F0BD012905D825B918682A3000780228CF
S1132FF008D0187930B11E687768A74202D8B6683D
S1133000A642EDD20833E8E7C85300207C520020E2
S11330101854002073B5204D060001A80C0000F0E0
S113302079FB2A78531CDBB22B700AB900F094FBAD
S113303001A800F074FB701E042809D806F088FB70
S113304003161A21280050222100144806F0F5FD29
S113305001A800F05FFB2B78013BDBB22B700BB9AE
S113306000F08AFB01A800F05AFB73BD22780B4BD9
S11330701A70EDE7094B083307CC07C306CC06C327
S1133080E6E7064B1C3307CC07C307CC07C3DFE7CF
S11330902268024B5A60DBE7C4540020C853002066
S11330A007B5019001A90520FFF7B4FF00200EBD6C
S11330B0F0B506000D008BB0019311AB1B88009294
S11330C0029313AB1B781222039315AB1F7804AB46
S11330D00021981D06F048FD009B05AC0793019B59
S11330E021002373029B0320E381039B2680069522
S11330F023746774FFF78EFF00200BB0F0BD00004F
S1133100F0B50C00060015008DB0019312AB04CB92
S113311000211B780292039314AB1B88152204939D
S113312015AB1B78059316AB1F7806ABD81C06F0BD
S11331301BFD06AB1E809C70019B039A0893029BA7
S11331400420099306AB1A74049A19005A82059A4A
S11331505F751A750795FFF75DFF0020024B473333
S11331601C700DB0F0BDC046C853002073B5214D8E
S1133170060001A80C0000F0CDFA2A78531CDBB23B
S11331802B700AB900F0E8FA01A800F0C8FA701E22
S1133190042809D806F0DCFA03161A222A00502261
S11331A02000154906F049FD01A800F0B3FA2B7878
S11331B0013BDBB22B700BB900F0DEFA01A800F082
S11331C0AEFA73BD0C4B1B782370EDE722000A4B5B
S11331D0083343CB43C203CB03C2E5E72200064BCB
S11331E01C3343CB43C213CB13C2DDE7024B5B68F2
S11331F02360D9E7C4540020C8530020F0B59BB025
S113320014AD1822040000210EA806F0ADFC29001C
S11332100420FFF7ABFF05200CA9FFF7A7FF00234D
S1133220EE5EA968EB6830006A68FFF7ADFDF3B2A3
S113323002936D4B08905B6A2100029898476B4B90
S1133240049048331B786A4E0793684B46331B78C7
S1133250063BDBB20593674BDB7B06930C9B039326
S11332600EAB0193002300936B461F78079BBB4270
S113327000D8A2E0059B012B07D8069B2BB9336825
S11332802A331B78022B00D1A0E03379002B00D124
S11332909CE03A0008990398FFF7C6FD019B3900AA
S11332A0099028001C88FFF783FD099B390003431C
S11332B004981C43FFF7D6FDA4B2019B0443A4B2B7
S11332C01C80002C00D081E0FFF734FE0400FFF7DF
S11332D0D5FD009B04435B001800019310230AA949
S11332E0A4B2C9180C52DCBB0099414BCE009A59C8
S11332F040F2E733D2699A4232D93B4A0DA9D56FDD
S11333000120A8470AA903312000A847384B364AB0
S11333109959956F24310120A847354B711DC9185F
S11333202000A84740F2E831314B9A59D369202054
S1133330125EB3FBF1F32C499BB20E690298039918
S1133340B04706000DA90120A8470AA920000331AF
S1133350A8472EB91022802301980AA98A1813526B
S1133360009B0EAA5B009B5A13BBFDF731FF1F4B5A
S1133370049A9863D9631A640633DF87009B1C4A56
S1133380DB00D35814A91B7C887889781A1C49B2AD
S11333905BB28B4200DD021C0021144B50B2473358
S11333A05956814202D01A7000F0EEFC002006E06B
S11333B06022134212D11B0613D4FF276520FF237A
S11333C018403B401B0218431BB0F0BD009B08365D
S11333D001330093019B0233019345E7FF276620E5
S11333E0EDE7FF276720EAE754B30000C853002045
S11333F0185400207C52002037B56B46DD1C022097
S11334000C002900FFF7B2FE2B7803201BB9200023
S1133410FFF7F4FEC0B23EBDF0B599B0182200210A
S11334200DAC12A806F0A0FB21000320FFF79EFEBE
S113343005200CA9FFF79AFE0022A35E019303BBAB
S113344063680393404B00271A00483212784633CE
S113345009921B783D4D063BDBB205933C4BDB7B6D
S113346006930C9B079312AB0293099BBB4210D1AA
S1133470FF276420FF2318403B401B02184319B068
S1133480F0BD002361681A000198FFF77DFC0390EA
S1133490D8E7059B012B0DD8069B5BB92B682A3313
S11334A01B78022B06D1029B01370233FFB2083589
S11334B00293DAE72B79002BF5D03A0003990798A9
S11334C0FFF7B2FC029B1B881843029B84B21C804A
S11334D0002CE8D12B681F4A2A331E78F600B35C0F
S11334E0B118019A04932300012A25D121000E98D2
S11334F0FFF72EFC40F20C0C0F9B0893154BF318AE
S11335000499E2B28A42CED2624662435E68B1183E
S1133510B25E012A06D14A68089E964202D18A68A0
S113352082420ED00134EBE70C2058434A68013341
S1133530825E0198904204D00498DAB29042F3D8A3
S1133540B1E7002096E7C046C85300201854002075
S11335507C520020C8B9000013B56B46DC1C022065
S11335602100FFF703FE2378032013B9FFF754FF6C
S1133570C0B216BD0320704703207047F8B52E4C27
S11335800125230022004633197848322B4B127848
S1133590DE7B2B4B0639D200C9B2D218934205D137
S11335A0002D46D1236C83B90020F8BD012905D82C
S11335B026B918682A300078022804D018794742BE
S11335C07841404205400833E8E7FDF701FE022256
S11335D0002306000F00A06BE16B12184B419F42C1
S11335E002D823D1964221D902225242D317121A69
S11335F08B41B6185F41256C0634E38F104ADB001B
S1133600D4582800218DFFF773FC218B02008142DE
S113361000D90A0000232800002180185941B9422A
S113362002D8C1D1B042BFD9801BBEE70026002713
S1133630E1E701204042B8E7C85300207C52002053
S11336401854002003795A1E9341024ADBB21370C6
S11336507047C04678540020054B10B59B689A68A3
S113366003CB12689047034B03CB04F0DBFA10BD85
S11336702840002054BF0000012310B5064C2370DD
S1133680064B186804F0EEFA002318B92378002BCF
S1133690FCD10133180010BD7854002054BF000041
S11336A07FB50123194D04002B70194B01A91E6825
S11336B0300004F0E2FA50B100231A00190020008F
S11336C02380002362802371617104B070BD2B7864
S11336D0002BFCD102AD2A00300001A904F0D6FA77
S11336E00028E9D10A2102202A5E2B8892FBF1F2FC
S11336F04B439B18AA880620285E4A4390FBF1F1AD
S113370052181BB2012112B2D9E7C04678540020E6
S113371054BF0000EFF31083036072B67047036870
S113372083F310887047000072B6BFF34F8FBFF366
S11337306F8FBFF34F8F034B034ADA60BFF34F8F92
S1133740C046FDE700ED00E00400FA05704710B53F
S1133750FDF73AFE10BD00001220054B10B51856B7
S113376005F074FF1220034B185605F06FFF10BDCF
S1133770BCBE0000E0BE00001220054B10B5185678
S113378005F050FF1220034B185605F04BFF10BDF7
S1133790BCBE0000E0BE000070B50D00140029009E
S11337A00348A2B2FDF720FD0028F8D1200070BD27
S11337B07C540020002337B50C0015000193210030
S11337C00848AAB201ABFDF713FD0028F7D1019A0E
S11337D02100044892B2FDF707FD0028F7D10198B3
S11337E03EBDC0467C54002010B50249024804F096
S11337F09DFF10BD28BE0000085C002037B5EFF324
S11338001080012383F31088254B196819B9254AC0
S11338101170403111701A6801321A6080F31088F7
S1133820002501242049214805F018FD0022042127
S11338301E4805F05BFD40F2E83140F2406005F0BF
S11338407DFE0121194805F05DFD0221174805F0B0
S113385059FD174B64421D86164B1D8000F098F9E4
S113386000F0ACFA290023002200134801940094CC
S113387000F0C0F8114B29001868022240F20043FE
S1133880806806F073F82900230022000C48FDF735
S1133890A3FCFFF7A9FF00F0E9FCFFF7DDFE37BD4D
S11338A0085E002040030A40D4BD0000C45B002031
S11338B000020A4060020A40DC5100204C40002013
S11338C07C54002010B5024804F03CFF10BDC046F3
S11338D0085C0020054B012800D118601A68D20743
S11338E002D51A68104318607047C046CC540020B3
S11338F0044B10B51B68DB0702D50220FFF7EAFF73
S113390010BDC046CC540020034B01201B6810B5E9
S113391003B1984710BDC046C854002070B572B6B4
S1133920BFF34F8FBFF36F8FFFF7EEFFE8B10120B6
S1133930FFF7D0FF10250226FFF7C4FF62B6BFF3DE
S11339404F8FBFF36F8F72B6BFF34F8FBFF36F8F7D
S1133950094C23682B4206D12368334203D1FFF775
S1133960D3FF0028E8D10023236062B6BFF34F8F52
S1133970BFF36F8F002070BDCC54002010B540F20F
S1133980E83105F0DBFD10BD20B10022835E013378
S113399000D00180704700000022835E10B55A1CDD
S11339A00CD04A1E914140F60070CAB21901014080
S11339B00F2003401943024804F03CFF10BDC046E9
S11339C0AC5B00200022835E13B500205A1C0DD08E
S11339D06A46D41D40F60072190111400F221340AB
S11339E003482200194304F017FF207816BDC0468F
S11339F0AC5B002010B50249024804F0EDFC10BD98
S1133A0080BE00003C5C00201FB50A00002369460C
S1133A108B730F2169440A700E220A4C0A482370E2
S1133A20073300936A44063B04F0E6FD80239B02BF
S1133A30227812B9013B002BFAD16B46987B04B073
S1133A4010BDC046D05400203C5C00200379012BFB
S1133A5001D1014A13707047D0540020F0B5214DB4
S1133A6087B0019005A81E0003920291FFF752FE51
S1133A702A78531CDBB22B700AB9FFF76DFE05A838
S1133A80FFF74DFE184F00213800FDF754FA0024CB
S1133A90019B195D154B013418000093FFF7B4FF27
S1133AA0029AA3B29A42F3D8039CA619B44212D143
S1133AB001213800FDF73FFA05A8FFF72BFE2B780C
S1133AC0013BDBB22B700BB9FFF756FE05A8FFF7DD
S1133AD026FE07B0F0BD21780098FFF795FF01346A
S1133AE0E4E7C046C45400201C520020DC510020EE
S1133AF0F0B5244D87B0060005A81F00039202917B
S1133B00FFF708FE2A78531CDBB22B700AB9FFF7C3
S1133B1023FE05A8FFF703FE1B4B002118000193A9
S1133B200024FDF708FA194B315D180000930134A5
S1133B30FFF76AFF029AA3B29A42F4D800210098D0
S1133B40FFF762FF039CC6B2E719BC4213D10121FF
S1133B500198FDF7F0F905A8FFF7DCFD2B78013B90
S1133B60DBB22B700BB9FFF707FE05A8FFF7D7FDF3
S1133B70300007B0F0BD00210098FFF745FF20702A
S1133B800134E2E7C45400201C520020DC51002020
S1133B9013B50024230022000C210E480194009444
S1133BA0FDF7C0F9230022000D210B480194009475
S1133BB0FDF7B8F90748FDF7C2F943425841074BEE
S1133BC018700548FDF7BBF943425841044B0130D6
S1133BD0187013BDD4540020E85400201055002060
S1133BE00A40002010B5044C0449200005F026F8D2
S1133BF0200005F03FF810BDB45B0020BCBD000000
S1133C0010B5074B1B78012B09D1022040F280210B
S1133C10FEF783FCFEF798FE7F20FEF7EDFB10BD58
S1133C201055002010B5094C0A20FDF777F9002142
S1133C302000FDF780F91420FDF770F90121200020
S1133C40FDF779F90A20FDF769F910BD78510020D4
S1133C5010B50348FDF773F90128FAD010BDC0462A
S1133C608C510020C02307B501A8038000231A004B
S1133C700221FFF7F3FEFFF7EBFF07BD37B56B46F5
S1133C800C001500D871FEF719FB68462B002200C2
S1133C9001210730FFF7E2FE6B46DB79842B01D06C
S1133CA0FFF7D6FF37BD73B56B4615000C00DE1D5C
S1133CB0D871FEF703FB2B00220001213000FFF72F
S1133CC017FF0400FFF7C4FF200076BD0D2373B572
S1133CD00D00160001AC2370030A6370A070FEF798
S1133CE0EDFA33002A0003212000FFF7B7FEFFF7A7
S1133CF0AFFF73BD07B56B46D971073301221900B5
S1133D00FFF7E4FF07BD1D2373B50D00160001ACDA
S1133D102370030A6370A070FEF7D0FA33002A0000
S1133D2003212000FFF7E4FEFFF792FF73BD13B5F4
S1133D306B46DC1D01222100FFF7E5FF207816BD4C
S1133D4037B50E230C0015006A4613715071FEF747
S1133D50B5FA2B002200022101A8FFF77FFEFFF72E
S1133D6077FF37BD37B51E230C0015006A46137163
S1133D705071FEF7A3FA2B002200022101A8FFF7DD
S1133D80B7FEFFF765FF37BD10B50221FEF70EFC45
S1133D9010BD0000014B18787047C0460A4000204F
S1133DA0014B18787047C0461055002010B501210A
S1133DB00148FDF7C0F810BDFC54002073B501257F
S1133DC00024164E2A0030000195009500231F217F
S1133DD0FDF7A8F82300220049211148019400941A
S1133DE0FDF7A0F82300220021210E48019400943D
S1133DF0FDF798F830002A0023000F21A43801941D
S1133E000094FDF78FF82A00230016210648019537
S1133E100094FDF787F8FFF7C9FF73BD1C5200201B
S1133E208C510020A0510020FC54002010B500212A
S1133E300148FDF780F810BDFC54002010B502487D
S1133E40FDF77DF810BDC046A0510020704700006A
S1133E50014BD88880B27047FE260A40002382B006
S1133E600193054BDB88C01A1E2380B243430193A0
S1133E70019880B202B07047FE260A4010B50424AF
S1133E8001210748074B82791975A24382710022E8
S1133E900020197000211A619860D9609A8310BDBE
S1133EA000380A401855002010B5FFF7E7FF10BD91
S1133EB00120034B1B789842804140427047C04622
S1133EC01855002010B5064B1C7D2CB99B6903B115
S1133ED098471020FFF7FEFC0120604010BDC0464B
S1133EE01855002045F65E73434382B00193019B4D
S1133EF0034AB3FBF2F30193019802B07047C04642
S1133F00A0860100034A9188938898B28B42FAD123
S1133F107047C04600380A40F7B51D4E01A8FFF7A8
S1133F20F9FB3278531CDBB233700AB9FFF714FC87
S1133F3001A8FFF7F4FB174B1F68FFF7E3FF164BCD
S1133F40040001A8DD7AFFF7E5FB3378EDB2013B0D
S1133F50DBB233700BB9FFF70FFC01A8FFF7DFFBEF
S1133F6047F6FE739C4202D8ED0700D510372000B7
S1133F70FFF7B8FF040040F2E832002338000021C4
S1133F8005F0FAFB220000238018594103B0F0BD6C
S1133F90C45400203855002000380A4010B5FFF7FB
S1133FA0BBFF10BD10B5FFF7B7FF0B000A490200B5
S1133FB08868C968994202D809D1904207D9121A6F
S1133FC08B4101204042C1178018594110BD121A7B
S1133FD08B4110001900F9E718550020F0B585B0A1
S1133FE00E000190FFF78EFFFFF77CFF83B203936F
S1133FF00293019B564C022B3DD0032B63D000232C
S1134000019A1D001F00012A1DD122780192012A64
S113401019D12575FFF780FF43F68063029AA060EB
S1134020E1609B1A9BB2019F2661A3835EB143F6B4
S11340307F6296421AD8B34218D904232370039B93
S1134040B5B2F61826612369002B56D10421414AE2
S113405093798B43937107232370FFF733FF2378FE
S1134060072B72D1063B237523706EE00223237065
S113407000250127E7E72378022B13D1A28B2369BC
S11340809B1A23610127344B22699A4201D90023E8
S1134090236143F67F6325699D4210D80423ADB2A2
S11340A02370D0E7032B03D123692C4A9B18E8E73C
S11340B00022043B1700022BE5D82261E2E7032328
S11340C000252370BFE72378052B11D12569039BB5
S11340D09D420AD9029B0127ED1A40F2D073ADB27A
S11340E09D42B0D804232370ADE700232361BFE7CA
S11340F0062BFAD000252F00A5E72178042921D129
S1134100144B9A798A439A7140F2D072954205D938
S113411005222270012252425A800DE006212170AC
S11341209542F7D06422ED03B5FBF2F55A3A053512
S1134130B5FBF2F5ADB25D801B22DA729979173ABC
S11341400A439A712378072B87D0380005B0F0BD55
S11341501855002000380A400000FFFF80C1FFFF0F
S113416070B504000D0003280FD801281AD811D007
S1134170002100200E4B00229860D96001211A70A2
S11341801A6119759A619A830AE00428F0D1FFF73D
S113419075FE05E0FFF772FE29002000FFF71EFF01
S11341A0002004E00021FFF719FF0028EFD070BDC4
S11341B01855002010B501000120FFF7D1FF10BDF4
S11341C010B50448044B05491860054B196004F008
S11341D083F810BD7C5C002040550020E0BE000048
S11341E03C5500200D4B0E4810B50E4918600E4B7F
S11341F0196003F0A5FF70B944220C4BDA71453AFB
S11342001A801B321A7368329A72997A423A0A43B4
S11342109A721C22DA72FFF7D3FF10BD48550020B2
S1134220685C0020BCBE00004455002000380A40F1
S113423010B5024B186803F0FBFF10BD4055002079
S1134240084B10B5186803F035FF0122064B997925
S11342500A439A71042299790A439A71FFF7E8FF95
S113426010BDC0464855002000380A40054B064A98
S113427010B59A6100221A75FFF7B4FFFFF7E0FF4B
S113428010BDC04618550020750F000010B5024B34
S1134290186803F0C5FF10BD405500200121084BEC
S11342A010B59A798A439A719A7903318A439A713B
S11342B0044B186803F0EAFEFFF7E8FF10BDC046A0
S11342C000380A404855002010B5104CE37A5B07CB
S11342D005D51B2300210320E372FFF741FFE37A96
S11342E0DB0712D51E23E3724FF6F074FFF70AFEC4
S11342F0A042FBD8064A136810331360FFF7D8FDB9
S113430018B100210220FFF72BFF10BD00380A402E
S11343103855002010B50249024803F0DFFD10BDF6
S113432058BE0000105C0020002310B50A480B4C56
S1134330237003700A4803F03FFE012320B9802351
S11343409B02227812B10023180010BD013B002B00
S1134350F7D10123F8E7C0464C5500204E55002004
S1134360105C0020F8B51D0000230C4E0C4F0D48C6
S1134370337014003B7003F087FD012328B98023B8
S11343809B0232781AB100232C801800F8BD3A78C9
S113439012B9013B002BF4D10123F6E74D5500205F
S11343A04C550020105C0020030010B572B6BFF31A
S11343B04F8FBFF36F8F0079082809D8A8B101384F
S11343C0072812D805F0C4F91B17110D1111110B90
S11343D00300EF22103B134201D0402805D1094BC2
S11343E00AE09868C0B2FCF741F962B6BFF34F8F98
S11343F0BFF36F8F10BD044B01221A70F5E7034B16
S1134400FAE7C0464C5500204E5500204D5500207B
S113441007B56B46D91D087001220020FFF784FF01
S113442007BD10B504000020205600B910BDFFF7E9
S1134430EFFF0134F7E770B505000F2601398C0052
S1134440231D00D170BD2800E0403040092804D865
S11344503030FFF7DDFF043CF2E73730F9E7F7B51A
S113446005000E000192002803DA2D20FFF7D0FF8B
S11344706D4201230A221C00B34204D301260A27F9
S1134480002C04DCF7BD01335443DBB2F4E7012C08
S113449000D1002695FBF4F292FBF7F37B43D31A89
S11344A000936B461878012E0DD160B9019B13B1AE
S11344B01800FFF7ADFFFF22009B1340634394FBFA
S11344C0F7F4ED1ADCE7303040B2FFF7A1FF002625
S11344D0F1E7000070B54F48FFF7A3FF4E48FFF720
S11344E0A0FF4E48FFF79DFF4D48FFF79AFF4D4848
S11344F0FFF797FF4C48FFF794FF4C48FFF791FFF5
S11345004B48FFF78EFF4B48FFF78BFF4A48FFF7F6
S113451088FF4A48FFF785FF4948FFF782FF49486B
S1134520FFF77FFF4848FFF77CFF4848FFF779FF14
S11345304748FFF776FF4748FFF773FF4648FFF702
S113454070FF4648FFF76DFF4548FFF76AFF45488F
S1134550FFF767FF4448FFF764FF4448FFF761FF34
S11345604348FFF75EFF4348FFF75BFF4248FFF70E
S113457058FF4248FFF755FF4148FFF752FF4148B3
S1134580FFF74FFF4048FFF74CFF4048404CFFF710
S113459048FF4048FFF745FF3F48FFF742FF200030
S11345A0FFF73FFF3D48FFF73CFF3D48FFF739FF6A
S11345B03C48FFF736FF2000FFF733FF3A48FFF788
S11345C030FF2000394EFFF72CFF3948394DFFF7F3
S11345D028FF3948FFF725FF3000FFF722FF2800A6
S11345E0FFF71FFF3548FFF71CFF3548FFF719FF9A
S11345F02000FFF716FF3348FFF713FF3248FFF799
S113460010FF3000FFF70DFF2800FFF70AFF00201E
S113461070BDC0466CA4000094A40000CDA40000AA
S1134620FCA4000022A5000052A500007EA5000005
S1134630ADA50000D8A50000F9A5000024A600003F
S113464046A6000064A6000085A60000A3A60000FC
S1134650C3A60000EAA600001CA700004CA70000A7
S11346607AA70000A6A70000E0A7000018A8000091
S113467053A8000081A80000ABA80000D6A8000041
S1134680F6A8000031A9000060A9000082A900007A
S1134690A3A70000A0A90000C6A90000F7A9000074
S11346A01BAA00005BAA00007AAA00001DAB000050
S11346B0BDAA00005EAB0000FCAA00007CAB0000B9
S11346C0A8AB0000E9AB00000FAC000010B5FCF78C
S11346D02FF81B4B186802F00BFA17282DD805F099
S11346E037F80C2C2C21212121212110101010101D
S11346F02C2C10102C2C2C2C2C2A1248FFF791FE59
S11347000CE01148FFF78DFE00220A210F4B1B68B5
S113471018685B680130C01AFFF7A1FEFCF74AF87D
S1134720002010BD0A48FFF77CFE0A4B00221B68DC
S11347300A21D868F0E70848E0E70848DEE7C04601
S1134740204000202DAC000032AC000014400020BA
S113475036AC0000184000203AAC00005DA4000014
S113476010B5FBF7E5FF054B00221B680A215868CA
S1134770FFF775FEFCF71EF8002010BD1C4000205A
S113478010B5FBF7D5FF0820054B00221B680A2152
S11347901856FFF764FEFCF70DF8002010BDC04664
S11347A01C40002037B56B46DD1D0A4B2900002054
S11347B0DB6F9847042450B1FBF7BAFF00202100B7
S11347C000222856FFF74BFE0024FBF7F3FF2000DE
S11347D03EBDC04654B3000010B5FBF7A9FF064B1D
S11347E000221B68022147331878FFF738FEFBF7D5
S11347F0E1FF002010BDC0461C40002010B5FBF7AF
S113480097FF054B00221B680A21D868FFF727FE93
S1134810FBF7D0FF002010BD1C40002010B5FBF7B3
S113482087FF064B00221B68022148331878FFF7E4
S113483016FEFBF7BFFF002010BDC0461C40002041
S113484010B5FBF775FF064B00221B6802214933A4
S11348501878FFF704FEFBF7ADFF002010BDC0463B
S11348601C400020064B10B5186802F041F9040002
S113487018B901F07DFF200010BD0724FBE7C046F6
S11348802040002010B5034B0221186802F047F9BC
S1134890082010BD2040002010B50F4C206802F005
S11348A027F9072805D802280DD8431E984180000F
S11348B010BD0F2803D808280BD10438F8E71728AF
S11348C007D00420F4E70821206802F028F9082022
S11348D0EEE71121F8E7C0462040002010B50F4C48
S11348E0FBF726FF2368002218680921FFF7B7FDAC
S11348F02C2005F031F823680022D8680721FFF73F
S1134900AEFD2C2005F028F823680022D87D022172
S1134910FFF7A5FDFBF74EFF002010BD144000205B
S113492010B5154CFBF704FF23680022987D022183
S1134930FFF795FD2C2005F00FF8236800221420C2
S1134940185E0421FFF78BFD2C2005F005F8236881
S1134950002218690421FFF782FD2C2004F0FCFFDB
S1134960064B00221B680A21186CFFF778FDFBF741
S113497021FF002010BDC046144000201C40002030
S113498010B50F4CFBF7D4FE23680022986A0A2165
S1134990FFF765FD2C2004F0DFFF23680022D86AAE
S11349A00A21FFF75CFD2C2004F0D6FF23680022C7
S11349B0186B0A21FFF753FDFBF7FCFE002010BD26
S11349C01C40002010B5104CFBF7B2FE23680022F7
S11349D0988E0721FFF743FD2C2004F0BDFF2368C8
S11349E00022383318780221FFF739FD2C2004F017
S11349F0B3FF23680022393318780221FFF72FFD13
S1134A00FBF7D8FE002010BD1C40002010B5104C50
S1134A10FBF78EFE2368002258690221FFF71FFD71
S1134A202C2004F099FF2368002298690221FFF7E3
S1134A3016FD2C2004F090FF236800220133D87F58
S1134A400221FFF70CFDFBF7B5FE002010BDC046A8
S1134A501C40002010B51A4CFBF76AFE23680022A4
S1134A60988B0621FFF7FBFC2C2004F075FF2368CC
S1134A7000220233D87F0221FFF7F1FC2C2004F03E
S1134A806BFF236800220333D87F0221FFF7E7FC82
S1134A902C2004F061FF236800220433D87F022114
S1134AA0FFF7DDFC2C2004F057FF236800220633B7
S1134AB0D87F0221FFF7D3FCFBF77CFE002010BD5A
S1134AC01C40002010B5194CFBF732FE236800226D
S1134AD0D86C0A21FFF7C3FC2C2004F03DFF2368A7
S1134AE00022186D0A21FFF7BAFC2C2004F034FFD1
S1134AF023680022586D0A21FFF7B1FC2C2004F032
S1134B002BFF236800225A3318880321FFF7A7FCE0
S1134B102C2004F021FF236800225C331878032141
S1134B20FFF79DFCFBF746FE002010BD1C40002053
S1134B3010B5FBF7FDFD002202210420FFF78FFCD6
S1134B402E2004F009FF002202215A20FFF787FCDF
S1134B50202004F001FF0D48FFF763FC202004F03F
S1134B60FBFEFFF717F901280CD10948FFF759FCA0
S1134B70FFF716F940B90748FFF753FCFBF71AFE95
S1134B80002010BD0448F1E70448F5E73DAC0000FF
S1134B9046AC000056AC00004EAC00005BAC00001C
S1134BA0F0B585B00822002102A804F0DDFFFBF770
S1134BB0EDFE0400012802DC042005B0F0BD6B46C4
S1134BC001A8991CFBF7EAFE01980028F4D06B4673
S1134BD002229B5E002BEFDD0021FCF766F84FF606
S1134BE0FF7306009842E7D8092CE5DC00252F0066
S1134BF0013C6B4601A8991CFBF7D0FE019840B319
S1134C006B4602229B5E002B23DD0021FCF708F893
S1134C1000281EDB6B46082201359B182DB2D8559F
S1134C202F00A542E5DB00254FF6FF772B00A819DE
S1134C30B84207D808216A465218D15C064B80B2A4
S1134C405B6C984701352DB22B00A542EFDB0020A9
S1134C50B3E7BC42E7DDAFE754B30000F0B587B07B
S1134C600822002104A804F07FFFFBF78FFE02282E
S1134C7002D0042007B0F0BD02AB03A8991CFBF7D7
S1134C808DFE03980028F4D002AB02229B5E002B19
S1134C90EFDD0021FCF709F84FF6FF770500B84275
S1134CA0E7D802AB03A8991CFBF778FE0398002809
S1134CB0DFD002AB02229B5E002BDADD0021FBF782
S1134CC072FF0300013B0090072BD2D8002426007A
S1134CD0ABB201933B1BAB420AD3019BA6B2F018C3
S1134CE00E4B80B29B6C9847082202AB9B18185558
S1134CF0009B0134A342EDD1FBF71AFD00240822E6
S1134D0002AB9B18185D02210134FFF794FBA3B298
S1134D10B342F4D9FBF74EFD0020ABE754B30000D7
S1134D2010B5FBF705FD40F2D8130A4C01212268A7
S1134D30D05CFFF780FB2C2004F00EFE40F2D4136D
S1134D4020680022C0580421FFF789FBFBF732FDDD
S1134D50002010BD2040002010B50B4CFBF7E8FCF0
S1134D602368022144331878FFF765FB2C2004F0F4
S1134D70F3FD2368022145331878FFF75CFBFBF74A
S1134D8019FD002010BDC0461C40002070B5164C13
S1134D9023681E7A154B1B685D7AFBF7C9FC002259
S1134DA002213000FFF75BFB2C2004F0D5FD280026
S1134DB000220421FFF753FB2C2004F0CDFD032E29
S1134DC008D12468D2346519AC4207D1FBF7F2FC50
S1134DD0002070BD064B1C680634F4E720780221DD
S1134DE0FFF729FB0134EFE7204000201C4000209E
S1134DF00C40002010B5FBF79BFC0024074B02215C
S1134E001B681B19DD33FF3318780134FFF713FBDC
S1134E10082CF3D1FBF7CEFC002010BD204000206D
S1134E2010B5FBF785FC002001F082FC30B104488A
S1134E30FFF7F7FAFBF7BEFC002010BD0148F7E7C7
S1134E4019AE000022AE000010B5FBF771FC002083
S1134E5001F06EFC0F4B02001B68B0B10120002270
S1134E603A331B7858400221FFF7F9FA2C2004F05A
S1134E7073FD094B00221B68022144331878FFF7A5
S1134E80EEFAFBF797FC002010BD01200533DB7F11
S1134E905840E8E71C4000201840002010B50E4C94
S1134EA0FBF746FC2368002218690A21FFF7D7FAAA
S1134EB02C2004F051FD002001F03AFC236840B19D
S1134EC0D88E00220621FFF7CAFAFBF773FC0020F4
S1134ED010BDD88BF5E7C0461C40002010B5C04873
S1134EE0C04CFFF79EFAC048FFF79BFA23680022E4
S1134EF058680A21FFF7B3FABC48FFF792FABC4896
S1134F00FFF78FFA002001F013FC00284AD0B948BB
S1134F10FFF787FAB848FFF784FA236847331B780A
S1134F20002B41D0B548FFF77CFAB548FFF779FA72
S1134F3008202368002218560A21FFF790FAB14886
S1134F40FFF76FFAB048FFF76CFA23680022587A2B
S1134F500621FFF784FAAD48FFF763FAAC48FFF780
S1134F6060FAAC4B1B689B7D03B3AB48FFF759FA5F
S1134F70AA48FFF756FA236848331B78C3B1A648FA
S1134F80FFF74FFAA648FFF74CFA2368493318781D
S1134F900A2843D804F0DCFB0E2E30323436383A7B
S1134FA03C3E40009F48B3E79F48BCE79F48DDE78D
S1134FB09E48E5E79E48FFF734FA9E48FFF731FA2A
S1134FC09D48FFF72EFA2368002258690221FFF753
S1134FD046FA9A48FFF725FA9948FFF722FA236818
S1134FE09869092842D804F0B3FB1B2F31333537B5
S1134FF0393B3D3F9348DEE79348DCE79348DAE7E3
S11350009348D8E79348D6E79348D4E79348D2E740
S11350109348D0E79348CEE79348CCE79348CAE750
S11350209348FFF7FEF99348FFF7FBF99248FFF71F
S1135030F8F923680133D87F0138032800D9C5E083
S113504004F086FB16BEC0C28C48EAE78C48E8E749
S11350508C48E6E78C48E4E78C48E2E78C48E0E7D4
S11350608C48DEE78C48DCE78C48DAE77F48D8E7F1
S11350708B48FFF7D6F97148FFF7D3F98948FFF752
S1135080D0F923680022988B0621FFF7E8F98648B7
S1135090FFF7C7F98548FFF7C4F923680233DB7FBC
S11350A0002B00D194E08248FFF7BBF98148FFF759
S11350B0B8F923680333DB7F002B00D18AE07E48F4
S11350C0FFF7AFF97D48FFF7ACF923680433DB7FC2
S11350D0002B00D180E07A48FFF7A3F97948FFF765
S11350E0A0F923680633DB7F002B00D176E07648F5
S11350F0FFF797F97548FFF794F97548FFF791F9A9
S113510023680022986A0A21FFF7A9F97148FFF77A
S113511088F94B48FFF785F923680022D86A0A21E9
S1135120FFF79DF93148FFF77CF96B48FFF779F9F0
S113513023680022186B0A21FFF791F92B48FFF727
S113514070F95848FFF76DF923680022988E0721FB
S1135150FFF785F92D48FFF764F95448FFF761F923
S1135160236838331B78002B00D1CFE05048FFF779
S113517058F95048FFF755F9236839331B78002B49
S113518000D1C5E04C48FFF74CF95448FFF749F902
S11351905348FFF746F9FEF7FDFD012800D0B9E0BA
S11351A05048FFF73EF95048FFF73BF9FEF7F8FD8A
S11351B0002800D0B0E04D48FFF733F9002010BDBF
S11351C04B4856E74B4854E74B4852E7274850E7CB
S11351D04A4869E74A4873E74A487DE74A4887E707
S11351E060AC00001C4000208AAC00009EAC0000B3
S11351F0A5AC0000B9AC0000C7AC0000DBAC0000FB
S1135200FBAC00000FAD000017AD00002BAD00009B
S113521035AD00001440002049AD00005EAD000033
S113522072AD0000C0AC0000E9AC000053AD00005A
S11352308DAD0000BBAD0000E5AD0000A3A70000EC
S1135240FBAD000070B0000090AD000094AD000014
S113525098AD00009CAD0000A0AD0000A3AD00001F
S1135260A6AD0000A9AD0000ACAD0000B3AD0000D8
S11352700FAE000053AA00002DAE000013AE0000D4
S113528017AE00001BAE00001EAE000021AE0000F1
S113529024AE000027AE00002AAE00004BAE000092
S11352A041AE000051AE000065AE000071AE0000DA
S11352B085AE0000ACAE0000C0AE0000D3AE00006E
S11352C0E7AE000003AF000017AF000033AF0000EB
S11352D05DAF000071AF000079AF00008DAF00003A
S11352E0B7AF0000CBAF0000DDAF0000F1AF0000AE
S11352F045AE000049AE00004DAE000097AE000080
S1135300C9AE0000F5AE000029AF000003482EE747
S1135310034838E7034844E703484DE797AE0000E5
S1135320C9AE0000D4AF0000F8AF000070B50D4D59
S1135330286801F0DDFB040090B92B68187A042377
S113534002009A431300012A04D1074A12689360A9
S113535001F0BEFA0921286801F0E1FB200070BDCC
S11353600724FBE72040002014400020F0B5354B13
S1135370B9B0186801F0BCFB334F04003B6B0293D7
S113538000285AD101F0D4F9002858D0029B98473C
S11353902000BB6898472D4EFB6803933368D86C94
S11353A0039B9847200001F0B7FD01943368019AEC
S11353B05A331B889A4233DB029B9847200039B04A
S11353C0F0BD586DDB6C6843C018039B98477B6B3A
S11353D01F4898470120FBF7A1FD3B6C002098472C
S11353E005AB585501352DB233681A00583212787E
S11353F09542E6DB029B98470025FBF799F9336851
S113540058331B789D420DDBFBF7D4F933685C33CA
S11354101878FBF783FD019B01331BB20193C5E7A9
S11354200025E1E705AB585D1F238010184030309C
S1135430013504F091FA2DB2E1E70724BCE7042416
S1135440BAE7C0462040002054B300001C400020AE
S1135450FFFFFF0010B5074C206801F049FB07234C
S113546030B901F08FF90221206801F058FB0823BC
S1135470180010BD2040002070B50A4B04241B689E
S113548048331B784BB9084D286801F031FB040000
S113549028B90E21286801F042FB200070BD0724C2
S11354A0FBE7C0461C4000202040002070B50A4B9A
S11354B004241B6848331B784BB9084D286801F055
S11354C017FB040028B90F21286801F028FB2000ED
S11354D070BD0724FBE7C0461C400020204000208C
S11354E070B5074D286801F003FB040028B90321B7
S11354F0286801F014FB200070BD0724FBE7C046B8
S113550020400020154B37B5186801F0F1FA04006B
S113551008BBFBF73BFA01281BD16B469D1C01A875
S11355202900FBF73BFA019898B10023ED5E012DA9
S11355300FD12100FBF774FB01280AD8084B28403F
S11355401968084B473108709B6F03209847200067
S11355503EBD0424FBE70724F9E7C04620400020B1
S11355601C40002054B30000234B73B5186801F0AD
S1135570BFFA040000283CD1FBF708FA022836D110
S11355806B4601A8991CFBF709FA019800282ED054
S11355906B4602229B5E002B29DD2100FBF740FBBA
S11355A083B206002F2B22D86B4601A8991CFBF767
S11355B0F5F90198D8B16B4602229B5E002B16DDEB
S11355C02100FBF72DFB83B22F2B10D80B4D2B683A
S11355D01900453344310E701870094B04209E6F36
S11355E0B047296805204531B047200076BD042422
S11355F0FBE70724F9E7C046204000201C400020B8
S113560054B30000174BF7B5186801F071FA0400A1
S113561030BBFBF7BBF9012820D16B469D1C01A8C8
S11356202900FBF7BBF90198C0B10023EE5E012EFF
S113563014D12100FBF7B7FA050001280ED80A4F50
S11356403B6B9847094ABB68126825B9200014705F
S113565098472000FEBD30001670F9E70424F8E7EF
S11356600724F6E72040002054B300001C4000202B
S1135670164B73B5186801F03BFA040018BBFBF72E
S113568085F9012802D00424200076BD6B4601A8C8
S1135690991CFBF783F901980028F4D02100FBF74B
S11356A082FA0B4B0500C2180A4B9A42EBD80A4EF9
S11356B0336A98470028E6D0084B28001B685D60D1
S11356C0F3689847E0E70724DEE7C046204000205F
S11356D080C19BE680E9EB1D54B300001C40002010
S11356E01C4BF7B5186801F003FA040000282FD109
S11356F06B465D1C2870FBF749F90700012825D18A
S11357006B4601A8991CFBF749F9019BF3B10022F0
S11357109A5626002D2A02D13E000133019300211E
S11357200198FBF740FA142810D806B140420A4BFE
S113573040B22870290000209B6F984730B1074B76
S11357402A781B683C331A702000FEBD0424FBE752
S11357500724F9E72040002054B300001C40002037
S1135760F0B5394B85B0186801F0C2F9060000287D
S113577068D1FBF70BF90400012805D0042803D0F5
S11357800426300005B0F0BD6B4602A8991DFBF756
S113579005F902980028F3D00021FBF704FA05006C
S11357A00128EDD801273D40BC4203D1274B1B689B
S11357B09D75E6E76B4602A8991DFBF7EFF8029B7F
S11357C0002BDDD000229A5600242D2A02D13C0061
S11357D00133029300210298FBF7E5F97F28CFD823
S11357E004B140426B4604B2991D02A8FBF7D6F8F7
S11357F002980028C4D00021FBF7D5F9431E070006
S1135800312BBDD86B4602A8991DFBF7C7F8029847
S11358100028B5D00021FBF7C6F90D4B9842AFD84C
S11358200C4B03909B6F012003A998470028A7D035
S1135830064B039A1B689D759C821F61064B1B686F
S11358401A649EE707269CE72040002014400020AD
S11358503820070054B300001C40002073B51A4ED2
S1135860306801F045F9040007204CBBFBF78EF8C3
S1135870022826D16B4601A8991CFBF78FF80198E2
S1135880F8B12100FBF78FF90500012819D86B4600
S113589001A8991CFBF782F8019890B12100FBF74D
S11358A082F940F2E832030090420AD840F2D8125A
S11358B0306814218554043A835001F030F90820EB
S11358C076BD0420FCE7C04620400020114B13B5F0
S11358D0186801F00DF90400C8B9FBF757F801285E
S11358E013D16B4601A8991CFBF758F8019860B1D5
S11358F02100FBF758F94FF6FE73421E9A4204D872
S1135900054B1B68D860200016BD0424FBE7072460
S1135910F9E7C046204000201C400020204B73B50E
S1135920186801F0E5F80400002837D1FBF72EF8D9
S1135930032831D16B4601A8991CFBF72FF8019875
S113594050B32100FBF72FF9164B0600C218164B73
S11359509A4221D86B4601A8991CFBF71FF80198BD
S1135960D0B12100FBF71FF9104B421E05009A42EB
S113597012D86B4601A8991CFBF710F8019858B18E
S11359802100FBF710F9002806DD094B1B689E6215
S1135990DD621863200076BD0424FBE70724F9E7E1
S11359A020400020A8FDFFFF889104003720070055
S11359B01C400020234B73B5186801F099F80400CB
S11359C000283CD1FAF7E2FF032836D16B4601A840
S11359D0991CFAF7E3FF019800282ED02100FBF769
S11359E0E2F841F6FE73421E06009A4225D86B4641
S11359F001A8991CFAF7D2FF0198F0B12100FBF736
S1135A00D2F80500012818D86B4601A8991CFAF7AA
S1135A10C5FF019888B12100FBF7C5F801280CD80F
S1135A20094B01221B68154019009E86383110402D
S1135A3039330D701870200076BD0424FBE7072469
S1135A40F9E7C046204000201C4000201F4B73B5DE
S1135A50186801F04DF80400002835D1FAF796FFD4
S1135A6003282FD16B4601A8991CFAF797FF0198D8
S1135A7040B32100FBF797F8431F0600072B21D8FA
S1135A806B4601A8991CFAF789FF0198D0B121004F
S1135A90FBF789F80500092814D86B4601A8991C5E
S1135AA0FAF77CFF019868B12100FBF77CF8431EEC
S1135AB0032B07D8064B1B685E619D610133D877C1
S1135AC0200076BD0424FBE70724F9E720400020EA
S1135AD01C400020F0B5374B85B0186801F008F879
S1135AE00400002863D1FAF751FF05285DD102AB09
S1135AF003A8991CFAF752FF0398002855D02100F7
S1135B00FBF751F84FF6FE73421E07009A424CD839
S1135B1002AB03A8991CFAF741FF0398002844D06C
S1135B202100FBF740F8060001283ED802AB03A889
S1135B30991CFAF733FF0398002836D02100FBF7AD
S1135B4032F80500012830D802AB03A8991CFAF7F3
S1135B5025FF039848B32100FBF725F8019001289D
S1135B6023D802AB03A8991CFAF718FF0398E0B1F5
S1135B700021FBF718F8012817D801220E4B164014
S1135B801B681540991C9F83CE77D91CCD7701994A
S1135B90104011400A00191D0633CA77D877074B05
S1135BA09B6D9847200005B0F0BD0424FAE7072454
S1135BB0F8E7C046204000201C40002054B30000F9
S1135BC0174B37B5186800F093FF040030BBFAF7A1
S1135BD0DDFE0500012802D0042420003EBD6B46F2
S1135BE001A8991CFAF7DAFE01980028F4D02100E4
S1135BF0FAF7D9FF0128EFD86B466A462840587057
S1135C00084B06209B6F511C98470028E4D06A4635
S1135C10054B52781B6848331A70DEE70724DCE72B
S1135C202040002054B300001C400020294B37B50D
S1135C30186800F05DFF0400002848D1FAF7A6FEBA
S1135C4001282DD16B4601A8991CFAF7A7FE0198EB
S1135C5030B32100FAF7A7FF050040B21F281FD870
S1135C6003F076FD3310211E1E1E2723251E1E1E43
S1135C701E1E1E1E1E1E1E1E1E1E292B2D1E1E1E19
S1135C801E1E2F3106236A465370134B511C0820E5
S1135C909B6F984720B1114B1B6849331D7000E07E
S1135CA0042420003EBD0723EDE70823EBE701238E
S1135CB0E9E70223E7E70323E5E70423E3E7052312
S1135CC0E1E70923DFE70A23DDE70023DBE7072415
S1135CD0E7E7C0462040002054B300001C400020E9
S1135CE0F0B53D4B85B0186800F002FF0723009320
S1135CF0002840D1033B0093FAF748FE05283AD127
S1135D0002AB03A8991CFAF749FE039898B3002143
S1135D10FAF749FF314F324EC3190500B3422AD86E
S1135D2002AB03A8991CFAF739FE039818B30021B3
S1135D30FAF739FFC3190400B3421CD885421AD8B4
S1135D4002AB03A8991CFAF729FE039898B1002125
S1135D50FAF729FF234B0600C218234B9A420AD8AC
S1135D60A5420BD0631B984205D8B3FBF0F3013373
S1135D709FB2C82F03D9009805B0F0BD012702AB2C
S1135D8003A8991CFAF70AFE03980028F3D000210F
S1135D90FAF709FF4FF6FE72431E9342EBD883B223
S1135DA0019302AB03A8991CFAF7F8FD03980028A5
S1135DB0E1D00021FAF7F7FE6428DCD80B4B0199F7
S1135DC01B681A00DD641C655E6558325C3317700D
S1135DD05180187000238EE72040002080C19BE68C
S1135DE080E9EB1D18FCFFFF583E0F001C4000200B
S1135DF0F0B52B4F85B0386800F07AFE0400002817
