S01200004C6F526153616D706C652E7372656342
S214000000904C00205502000035230100ED2401002D
S214000010ED240100ED240100ED240100ED24010093
S214000020000000000000000000000000ED240100B9
S214000030ED24010000000000ED24010041CF000087
S2140000400000000000000000291A01000000000067
S214000050000000000000000000000000291A010057
S214000060000000000000000000000000751F0100F6
S214000070000000000000000000000000000000007B
S2140000800000000000000000411701000000000012
S214000090000000000000000000000000000000005B
S2140000A0000000000000000000000000000000004B
S2140000B000000000CD140100000000000000000059
S2140000C000000000EDDA0000000000000000000064
S2140000D0000000000000000000000000F911010010
S20C0000E061110100A5110100E9
S2140000E8010000001801000002000000F8000000EF
S2140000F800400020004000200000104000000203DE
S214000108004000209040002040040000000001034A
S214000118A84C0020E46B00200000000330B585B032
S2140001280400092240F29F2001A90DF0F8F96B4659
S2140001381D79002301A8AB4214D1032B10D86946B9
S2140001485A1C0A716A465B00210A0532D1546A466F
S2140001580632D45440F29F20092201A90DF0C2F9B4
S21400016805B030BD01004278897812025218023074
S2140001789442F5D00133DBB2DDE710B5074C102208
S2140001880021200013F042F90DF016FA10B91323D7
S214000198E372237302F0EEFE10BDC046584F0020EF
S2140001A810B50024214B1860214B22485C701C7047
S2140001B802F07AFD200002F051FD012002F08BFAD1
S2140001C82100200002F050FC2000042102F066FB0B
S2140001D84FF6FF7123002200080002F0F2FA40F6FC
S2140001E8AC00FFF79BFF40F68900FFF797FFFFF785
S2140001F8C4FF114800F0BCFF104800F0B9FF1049D2
S2140002080D4800F085FF0F490C4800F081FF0E4BA3
S2140002181C7002F0E7FC80B2033400B904004FF605
S214000228FF7002F0BBFE200010BDC046504F0020F5
S214000238544F0020CD150000404E00202C4E0020C4
S2140002486D14000089140000684F002010B500F0F7
S2140002582FF810F03DF9FEE7F8B5060000240C2745
S214000268124D2B68A34204D80024AB68A3420ED8CC
S214000278F8BD3A0062436B689B185A7AB24204D1BA
S21400028805CB0021121A13F0C1F80134E8E7EB6831
S21400029822019B185A7BB24205D118685A68996899
S2140002A8121A13F01CF90134DFE7C046E800000014
S2140002B870B50025154B164A00209A6010F0F4F821
S2140002C811F0A0FF012010F0EFF80020FFF7C4FFA0
S2140002D811F024FF11F0FAFF022010F0E5F80120D3
S2140002E8FFF7BAFF0B4C0C4BE41AA410A54205DB2B
S2140002F812F092F8002012F0F7F870BD064AAB002C
S2140003089B181B6898470135F0E7C04600ED00E0EB
S21000031800000000E0580100DC58010066
S208000400FFFFFFFFF7
S208000404F7AFC1FF89
S214000440D04C0020084E0020FF0101003820070095
S2140004503C9303000101008182800184858302872A
S2140004608886038A8B890408078D01000100000036
S214000470208B01000000000003000000F869002047
S2140004804440002000000000F8690020606A002058
S214000490C86A002000000000000000000000000005
S2140004A00000000000000000000000000000000047
S2140004B00000000000000000000000000000000037
S2140004C00000000000000000000000000000000027
S2140004D044F2900044F29003C2F20000C2F200031D
S2140004E010B5834205D040F20003C0F2000303B10A
S2140004F0984710BD44F2900044F29003C2F2000008
S214000500C2F200031B1A9A10D90F8918491010B5A9
S21400051029B140F20003C0F2000303B1984710BDB2
S21400052010B544F6A844C2F20004237873B9FFF766
S214000530CFFF40F20003C0F200032BB140F20840A8
S214000540C0F2000000E000BF0123237010BDC046CB
S21400055040F20003C0F2000310B54BB144F6AC41C4
S21400056040F20840C2F20001C0F2000000E000BF06
S214000570FFF7C0FF10BDC046F7B505000E000E48D9
S2140005800E49019210F0C8FB040060B90C4F32000F
S21400059038702900019B084810F0F1FA040010B9E1
S2140005A03B78002BFCD0044810F032F90443634239
S2140005B05C41E0B2FEBDC046246700202454010022
S2140005C0C54C0020F7B507000E001048104915006E
S2140005D010F0A2FB040078B96B4639000B4801AA5C
S2140005E010F005F9040038B9009BAB420CD32A0082
S2140005F03000019912F077FF044810F009F904431F
S21400060063425C41E0B2FEBD0324F5E724670020A8
S2140006102454010010B50949094810F07DFB040078
S21400062020B90100064810F061FB0400044810F0F1
S214000630EFF8204343425841C0B210BD2454010095
S214000640246700200122014B1A707047C54C002019
S214000650F7B505000E000E480E49019210F05CFB3F
S214000660040060B90C4F320038702900019B08481E
S21400067010F085FA040010B93B78002BFCD0044833
S21400068010F0C6F8044363425C41E0B2FEBDC046CB
S214000690246800206C540100C44C0020F7B5070005
S2140006A00E0010481049150010F036FB040078B90B
S2140006B06B4639000B4801AA10F099F8040038B9C7
S2140006C0009BAB420CD32A003000019912F00BFFBE
S2140006D0044810F09DF8044363425C41E0B2FEBD5E
S2140006E00324F5E7246800206C54010010B50A497D
S2140006F00A4810F011FB040008B10E2804D10021AE
S214000700064810F0F3FA0400044810F081F820437D
S21400071043425841C0B210BD6C540100246800200A
S2140007200122014B1A707047C44C00200022034B74
S2140007309A560AB901321A707047C046CC4C00204F
S214000740034B00201A780AB1187001307047C04673
S214000750004D0020024B1878431E9841C0B27047E7
S214000760004D002010B5034B1B689B780BB112F0B0
S21400077049FD10BD0040002070B52C4B04001B78CE
S2140007805BB283B12A4800F0C3FA60B9284800F08B
S2140007901BFB050040B1082C05D1254800F0DFFA08
S2140007A02000FFF7DFFF70BD2300613B192B06D842
S2140007B0203CE4B221001E4800F017FB30E00A2C73
S2140007C006D00D2C1AD0082C23D0202CEBD0F1E725
S2140007D02100174800F009FB2000164CFFF7C2FF67
S2140007E02378002BDFD0124800F0B9FA104800F04A
S2140007F0B6FA0122104B25701A70D4E721000C4877
S21400080000F0F3FA2000FFF7ADFF0122094B1A7043
S214000810C9E7074800F0CFFA28B9054800F09FFA64
S2140008202000FFF79FFF0022024BF0E7CC4C002091
S214000830F44C0020C64C0020004D00200320024B44
S2140008401B6818567047C0460040002010B50A4C7A
S2140008502368DB7813B109480DF0F5F914222368F4
S2140008609988074B4A431B689B1818690DF0EBF9EB
S21400087004480DF0E8F910BD00400020F03C0100EF
S214000880C84C0020743D010010B50E4B1B685C7808
S214000890082C16D0DB7813B10B480DF0D4F92300E2
S2140008A034B10123042C03D00333072C00D1023BC0
S2140008B0064ADB009B1858680DF0C5F902480DF093
S2140008C0C2F910BD00400020F03C01005844010071
S2140008D010B502480DF0B7F910BDC046F03C010057
S2140008E010B51C00094B1A6070B100290CDD0A0017
S2140008F00100074800F001FA064A074BD4801A6048
S2140009000023136000F0A6F810BDC046C84C0020B7
S214000910F44C0020D04C0020004000200022024B67
S2140009201B681A807047C0460040002083B270B52E
S2140009300400064D012B04D8FFF7F0FF2B68DC708F
S21400094070BD40F200422B681A80F9E70040002094
S21400095040F20142014B1B681A807047004000209D
S21400096070B5284800F0D4F920B10220264B1B6849
S214000970187070BD234800F016FAFFF7E9FF21480B
S21400098000F019FA040058B91E4800F0CBF91F4BC6
S214000990E3181B785BB283420FD10134042CF3D1E9
S2140009A0FFF772FF174800F002FA164800F0ACF99D
S2140009B00020154B1B681856DBE7E4B2124B022CDE
S2140009C004D0032C19D1FFF7A9FFE9E72B2807D09D
S2140009D00C4800F0E2F901000D4800F07CF9DFE772
S2140009E01B680848DD880B4B1C6800F0D6F9290008
S2140009F00200200000F0C0F8D2E700221B681A7040
S214000A00CEE7C046F44C0020004000208844010099
S214000A1078440100C84C0020014B1B6818707047D2
S214000A2000400020014B1B681878704700400020EB
S214000A30014B1B685870704700400020014B1B6834
S214000A409880704700400020014B1B6898887047CC
S214000A500040002010B5054B186800F0DEF914229F
S214000A600349044800F052FA10BDC0460440002076
S214000A70014D0020184D002010B5024B186800F0FC
S214000A80FEF910BD04400020002370B50360013B52
S214000A900B80074B050018680C0000F0C9F930B150
S214000AA043682B600822835E238000F017FA70BD2F
S214000AB00440002010B5044B186800F0B9F900B9DE
S214000AC010BD00F00BFAF6E704400020C0B20300A9
S214000AD0303BDBB2092B01D858B270470300413BCC
S214000AE0052B02D8373840B2F7E701204042F4E73A
S214000AF0002310B5C2560AB918B210BD5C1C8A4253
S214000B00FAD02300F6E70000F7B500220400030041
S214000B100191009200269E578EB9009B9E420CDAE9
S214000B2020000199FFF7E4FF124F051E13DC38681A
S214000B3000F0A5F908B1FFF7BDFF0020FEBD019A41
S214000B40964202D001229A561AB9009A013252B23F
S214000B5000920133DEE70023235400F099F90136B2
S214000B600581446001000135386800F079F96419A0
S214000B7076B2D2E704400020F0B5050085B001202B
S214000B8016000391FFF748FF0420FFF751FF0023EC
S214000B900193019B039A934201DB05B0F0BDAC893B
S214000BA0002C3DD022003100286912F03BFC029058
S214000BB038BB6B46002798883419FFF73FFFE75786
S214000BC03D2F07D03F2F31D0002F43D00220FFF714
S214000BD023FF16E00123E3569BB12C21601CFFF790
S214000BE093FF0520FFF718FF2B6843B130009847A6
S214000BF004000298FFF710FF2000FFF719FFFFF729
S214000C0059FFFFF70FFF0028C7D0FFF70BFF052897
S214000C10C3D0FFF707FF022802D10138FFF7FCFE1A
S214000C20019B143501331BB20193B2E7647864B2BA
S214000C30002CE6D10520FFF7EFFE6B68002BE0D016
S214000C403000984707002000FFF7E6FE3800FFF761
S214000C50EFFED6E70520FFF7DFFEAB68002BD0D00F
S214000C603000984704003800FFF7D6FE2000EEE775
S214000C70C3B21A00303A0120092A06D900200522FC
S214000C80413BDBB29A424041C0B2704770B50500A6
S214000C900E0000242B5720B203B970BDB342FCD01F
S214000CA01800FFF7E5FF01340028F3D10920404281
S214000CB0F3E710B50400FFF7E9FF012804D1002090
S214000CC02056FFF703FF10BD431C01DA40B2FAE7D7
S214000CD001204042F7E710B504000023E3564BB16D
S214000CE000228A569A4206D1481C0021FFF7E1FFEF
S214000CF06368984710BD0834EFE720B10023828070
S214000D000360C3808160704708B1002303607047AA
S214000D10030000202BB106201856013843425841E4
S214000D20C0B2704770B50500C0B10023C45E022291
S214000D30835E0020A34211D02800FFF7E9FF0421BC
S214000D406B5E013494FBF3F102004B43A968E31A8F
S214000D50C85CCC181BB202B922702B8070BD70B56F
S214000D600400C8B10223C55E0022835E0020AB42A9
S214000D7012D02000FFF7CCFF0300002063B9A26862
S214000D80505D53550222A35E0421625E013B93FB35
S214000D90F2F14A439B1A638070BD18B10022835E4D
S214000DA08068C018704708B101238371704708B186
S214000DB00023837170470022835E0222805E181A29
S214000DC043425841C0B270470222835E0421425E0D
S214000DD0013393FBF2F14A439B1A0022805E1BB25A
S214000DE0C01A43425841C0B2704770B504000D00A7
S214000DF090B1FFF7E9FF78B92000FFF789FF58B9EF
S214000E000222A35E0421625E013393FBF2F14A43A1
S214000E109B1AA2686380D55470BD00230360704798
S214000E20006820B1030000680028FBD11800704756
S214000E300300006808B102681A60704703682BB1A7
S214000E408B4204D10B68036000230B6070471A00C6
S214000E501B68002BFAD09942F9D10B681360F3E7B0
S214000E6070B505000C00FFF7E9FF0023280023609B
S214000E70FFF7D6FF08B92C6070BD0460FCE7036876
S214000E80002003B9704701301B6800B2F9E7000084
S214000E90F0B5104B1B785BB21800B3B100200E4AB9
S214000EA00823D15E814210DD55680A23D65E2B00EA
S214000EB010685C1B24B2A64207DD0027DF575C1CC7
S214000EC027B90139118101221A70F0BD23000C30B8
S214000ED0EFE7C046184E00200C4E002010B570B14B
S214000EE0094A0A23D45E002311689C4207DD81422A
S214000EF006D111890131118100215268D15410BDEB
S214000F0001331BB20C31F0E70C4E0020002310B565
S214000F10074CE35653B9002A08DD38B131B1054B0A
S214000F20186059601A815A810123237010BDC0468B
S214000F30184E00200C4E002010B50CF02FF910BDF6
S214000F4037B506AC2478079D009401950CF02CF973
S214000F5037BD10B50CF030F910BD10B50CF042F9E5
S214000F6010BD000082B013B5C918059305AB9C8868
S214000F70A21840F2E73493B212B2A24203DD054A49
S214000F8001319B181AB20160828016BC08BC02B000
S214000F901847C04618FCFFFF82B013B5C91A059360
S214000FA005AB9B88D21A93B214B2120404D540F251
S214000FB0E8329B1801391CB20160848016BC08BC5C
S214000FC002B018471FB50023009002AC03A8019199
S214000FD00293A3800CF0F6FB009BA288181A6B46BF
S214000FE09B889B1A9AB219B21B0404D540F2E833C8
S214000FF0D218013811B2024B186099801FBDC04646
S2140010001C4E002013B500236A46040001A89380F6
S21400101000930CF0D7FB0A4B40F2E7311A689B8826
S21400102080186A4692889B189AB21BB28B4203DDE0
S214001030044B0130D3181BB22060A380200016BDDD
S2140010401C4E002018FCFFFF37B500236D46040039
S21400105001A80093AB800CF0B5FB2300009006CDF2
S21400106006C320003EBD00000C4B13B51A689B88D3
S214001070801AC91A8BB20CB2090404D540F2E832C1
S2140010809B1801381CB240F2E8320023002111F010
S214001090B3FA2200E317801859411CBD1C4E0020ED
S2140010A070B51500190040F2E8320023040028004D
S2140010B011F082FA40F2E8310A4A414313689288F6
S2140010C01B1840F2E7305219521A91B212B28242FD
S2140010D003DD054A01338A1812B220002360A2807D
S2140010E070BDC0461C4E002018FCFFFF020010B565
S2140010F0014B12CB12C210BD1C4E00200022054B25
S21400110010B5040000681A700CF0B0FA20600CF0FD
S21400111081FC10BD284E002000230360436003724C
S214001120C16003617047000070B5124C236843B17C
S214001130002201251A601A720023206858B903B1EC
S214001140206070BDC1682B00026911B1226088471B
S214001150F2E71000F2E70268002AF3D03BB9037A00
S214001160002BEED101230372FFF7C8FFE9E72060EA
S214001170F5E7C046244E0020F7B52F4D040001A821
S2140011800BF0C2FE2A78531CDBB22B700AB90BF0A8
S214001190DFFE2A4E01A80BF0BCFE336803B16CB923
S2140011A001A80BF0B1FE2B78013BDBB22B700BB91C
S2140011B00BF0DEFE01A80BF0ACFEF7BDA3422ED16D
S2140011C0237A13B30CF01EFB2768002433688C4682
S2140011D019691C72A9B13A00316023003E0027004D
S2140011E0644502D1824200D90600921BBB4116001C
S2140011F00B6808009B190B6001230B72FFF77EFF3C
S214001200CEE731600CF060FACAE723692BB121689B
S21400121033601A6852181A60C2E73360C0E71A00D3
S2140012201B69002BBCD09C42F9D12369216813614D
S214001230002BEED1B4E7C04630620020244E0020DA
S214001240054B1B680BB918007047834201D01B6919
S214001250F8E70120F8E7C046244E0020F0B587B036
S214001260040005A80BF050FE40490A78531CDBB278
S2140012700B700AB90BF06CFE05A80BF04AFE24B101
S2140012802000FFF7DDFF009078B105A80BF03CFECC
S214001290364A1378013BDBB213700BB90BF068FECD
S2140012A005A80BF036FE07B0F0BD6368304D23602E
S2140012B02968009B237239B921610123200023721B
S2140012C02C60FFF71BFFE0E7087AF0B10CF09AFA03
S2140012D02B68009F1E683B003200B94202D186424E
S2140012E000D90200B61A9F4100960197019B266816
S2140012F02F6813B9009BB3420BD927B1009B9E1BE6
S21400130000233E603B722761D7E70B68019000938D
S214001310ECE73D692DB9009BF61A26603C61256115
S214001320B3E728680199009A019B8018594109B9CA
S214001330864208D2009B009AF31A23602B689B18FB
S2140013409B1B2B60EAE72B6923B9361A26602C61B3
S21400135023619AE71A682F000292002203921D006A
S214001360029A039B00900191DFE7C046306200209E
S214001370244E002070B50D000400FFF7FDFE25602A
S214001380656070BD10B50CF019FA10BD10B50CF004
S21400139024FA10BD70470000F7B50D000024019038
S2140013A0CAB10F4F260097FBF2F78C4215D801D131
S2140013B0874212D83A0033002900019811F0FCF851
S2140013C004003A0033002900019811F0F5F81A439A
S2140013D0531E9A41A4182000FEBD0024F1E7C04623
S2140013E040420F0010B544781CB9013444700CF02C
S2140013F0A3FB10BD10B50CF0A9FB10BD10B50CF08A
S214001400C3FB10BD154B00B5185C0A2823D811F095
S2140014107BF81E161612060D22221A16120000203F
S21400142001230B398B424041C0B203E00C394B42DA
S2140014305941C8B200BD002002230A39F2E7002055
S21400144003230939EEE7002004230839EAE70020E1
S21400145005230739E6E70020ECE7C04648450100CB
S214001460014B18887047C046564F0020002010B524
S21400147001F0F8FB034B1B6813B15B6803B1984798
S21400148010BDC046504F0020002010B501F0EAFB0A
S214001490034B1B6813B1DB6803B1984710BDC04609
S2140014A0504F0020012310B511B10CF03CF800237A
S2140014B0180010BD012310B511B10CF017F8002369
S2140014C0180010BD10B50CF07BF80D23012800D0D5
S2140014D00A3B180010BD000010B501F05FF80300CD
S2140014E00020082B01D8014AD05C10BD97440100AB
S2140014F010B5054B04005B7B0BB101F05FFF2000CD
S21400150001F096F910BDC046584F002010B50CF0FB
S2140015101EF810BD10B50BF0FDFF10BD10B5044B46
S2140015205A7B012312B101F0D7FE0300180010BD4C
S214001530584F002010B5042001F0E0FB0220FFF712
S214001540FBFC0BF0AFF910BD10B5034B987A01F019
S21400155089FB0BF0D7F910BD584F002010B501F0ED
S214001560B3FC10BD40F28010002310B51A00010035
S21400157001F02BF901F0C2FC10BD000070B540F27E
S214001580E8360E4B05005B7B0C00564383B92800FB
S21400159001F04EF920000CF007F801F0BDFC310018
S2140015A00748FFF7E7FE0648FFF758FE002070BD25
S2140015B0C0B202F06FF90028E9D0F8E7584F0020D3
S2140015C0404E002010B501F06DFA10BD10B572B691
S2140015D0BFF34F8FBFF36F8F0BF08AFD0122044BD2
S2140015E01A7062B6BFF34F8FBFF36F8F10BDC04641
S2140015F0684F0020F0B585B072B6BFF34F8FBFF3CB
S2140016006F8F0022654E33783270DBB262B6BFF35E
S2140016104F8FBFF36F8F002B00D19FE001F0E5F8EE
S21400162004004FF6FF7001F014FB72B6BFF34F8F45
S214001630BFF36F8F0CF012F80500012802D10BF0F3
S21400164057FD357062B6BFF34F8FBFF36F8F4023E1
S214001650012523400193019A514B1A802C420BD04E
S2140016605048FFF789FD280000F09EFF4E4B1B6890
S21400167013B11B6803B1984702252C4244D04B4B4C
S2140016801F78A7B94A48FFF777FD012000F08CFFC6
S214001690390040F602100BF03DFF40F644100BF008
S2140016A056FF0543E9B240F644100BF033FF02AB99
S2140016B0DF1DFF2239003F4801F02AFA3E4801F0BC
S2140016C03BFA019B13B13D4B1B7A7BB1364B1B6833
S2140016D063B19D6855B1384A39781378002B41D1EB
S2140016E00823D3560620125E3248A8472F4B1B7895
S2140016F053B100F053FF052806D1304B587A002826
S21400170035D0002001F0C2FB019B2BB1264B1B6895
S21400171013B11B6903B1984723060AD5012000F0D0
S21400172043FF214B1B6823B19B6913B1E005C00F33
S2140017309847A4050FD500F031FF04281AD11948A0
S214001740FFF71AFD012000F02FFF174B1B6813B19F
S2140017505B6803B198470023114A13803078C0B203
S21400176005B0F0BD1223D3561020125EBCE701F080
S2140017703BFBC9E700F012FF0528ECD10B4B1B78AA
S2140017802BB90B48FFF7F8FC012000F00DFF064BC5
S2140017901B68002BDFD0DB68DBE7C046684F002005
S2140017A0564F0020404E0020504F0020845000200E
S2140017B02C4E0020694F002068500020584F002013
S2140017C010B5002001F09AFA0220FFF7B5FB0BF0E7
S2140017D081F810BD70B50F4B06005B7B0C00150042
S2140017E093B9300001F024F820000BF0DDFE01F084
S2140017F0A1FB40F2E83108486943FFF7BBFD064805
S214001800FFF72CFD002070BDC0B202F041F80028A2
S214001810E7D0F8E7584F0020404E002010B500F003
S214001820BDFE0400082809D10022074B5A701A7022
S21400183001F08EFB20000BF07DF810BD0028F9D1DA
S21400184001F010FAF6E7C046544F002010B500F03D
S21400185073FF10BD02001F205AB101230849086813
S214001860824207D98868824204D8054ADB009B1862
S2140018701879704701330831172BF0D11F20F8E78D
S2140018805445010010B50A4B012807D1094AC73351
S21400189011700948197001F099F810BD1A00BF328E
S2140018A01278002AF9D1034AC0331170F1E7C04616
S2140018B0544E0020084000200C4F002070B51C4BF2
S2140018C005005B7B0C0001201BB1280001F022FF05
S2140018D050BB4DB3002340F201211A00080000F06F
S2140018E074FF00F0D9FF134B01281ED1C7331C70BC
S2140018F0114801F06BF800222100280001F06CFA74
S2140019000E4B0F481968FFF735FD0D48FFF7A6FC8C
S21400191000F0C2FF060001F02BFB230001002A00A6
S21400192030000AF013FF002070BDC033DFE7C0466A
S214001930584F0020544E00200C4F00208C500020A2
S214001940404E0020002340F2422110B504001A0049
S214001950080000F03AFF34B10A482100FFF70AFDFC
S2140019600848FFF77BFC084B1B7833B1402000F09B
S21400197023FF002001F08AFA10BD044B186880018E
S214001980F8E7C0462C4E00208450002088500020E7
S21400199070B51B4D04006B7B33B96A7A4AB12000E0
S2140019A0FFF7D0FF002003E001F064FF0028F4D02A
S2140019B070BD40F242211300080000F006FF34B16B
S2140019C010482100FFF7D6FC0E48FFF747FC0E4EE6
S2140019D033788BB1402000F0EFFE002001F004FACF
S2140019E000F05AFF050001F0C3FA22000100337828
S2140019F028000AF003FFD5E7044B18688001EDE7DE
S214001A00584F00202C4E0020845000208850002084
S214001A10F7B507000C000025C9B3364E01A80BF039
S214001A2073FA3278531CDBB233700AB90BF090FAB3
S214001A3001A80BF06EFA092F36D8380010F064FDB6
S214001A40050A292D31393F43475322782A4B1A700D
S214001A5001250FE016250422210001A811F043FD00
S214001A60019A264B1968914241D0013DADB2083328
S214001A70002DF7D101A80BF047FA3378013BDBB213
S214001A8033700BB90BF074FA01A80BF042FA280079
S214001A90FEBD2278184B1A72DAE72278164B5A7275
S214001AA0D6E723782F2B01D90025E3E7124AD37215
S214001AB0CEE723782F2BF7D80F4A1373C8E7227880
S214001AC00D4B5A73C4E722780B4B9A72C0E70A4D47
S214001AD023784FF6FF70AF7BAB7301F063FA0028F4
S214001AE0B6D1AF73E0E72278034BDA73B0E7024B68
S214001AF05A60ADE730620020584F00205445010080
S214001B00F7B507000C00002679B3254D01A80BF0A9
S214001B10FBF92A78531CDBB22B700AB90BF018FAC3
S214001B2001A80BF0F6F90026092F11D8380010F09E
S214001B30EBFC05091E2124272A2D3033194B1B7870
S214001B40237004E004222000174911F0CCFC012683
S214001B5001A80BF0D9F92B78013BDBB22B700BB93F
S214001B600BF006FA01A80BF0D4F93000FEBD0D4BC1
S214001B701B7AE5E70B4B5B7AE2E70A4BDB7ADFE79B
S214001B80084B1B7BDCE7074B5B7BD9E7054B9B7A57
S214001B90D6E7044B9B7BD3E7024BDB7BD0E7C04604
S214001BA030620020584F00205C4F002010B5040023
S214001BB00B4B1870587000F015F854B1342140F2F1
S214001BC040700BF0A7FC442140F241700BF0A2FCE1
S214001BD010BD142140F240700BF09CFC2421F3E76A
S214001BE0544F0020012010B500F048FE044B187832
S214001BF05A78824202D05870FFF7D8FF10BDC04610
S214001C00544F002010B5012806D0002000F036FE04
S214001C100022034B5A7010BDFFF7E4FFFBE7C046F7
S214001C20544F0020F0B59BB0119320AB0B9204CB21
S214001C300D911B8814920C9322AB1F8823AB1B7844
S214001C400EAA0E9324AB1B780500129325AB1B78C7
S214001C500F9326AB1B78159327AB1B781693492357
S214001C609B18DB7F13934D239B18DB7F10938B4BC6
S214001C705B7BBBB1109B0B9A0993139B00B2089336
S214001C80169B02970793159B06930F9B0593129B33
S214001C9004930E9B03930C9B0193149B0093119B40
S214001CA001F094FB109A7E4B1A70534253410E9AE1
S214001CB05B421F40FF2302B1129B7A4A1370F5B1B4
S214001CC0012D00D179E0109B28000993139B0B9AF5
S214001CD00893169B0D990793159B029706930F9BE7
S214001CE00593129B04930E9B03930C9B0193149BEA
S214001CF00093119B0AF00CFD00201BB0F0BD6A4C4F
S214001D00280000F0B7FC2300E8331D7023000B9A70
S214001D10EC331A6023000B22F4330D981A70FFF789
S214001D2099FD2300F533187023002200B8331D7088
S214001D300C9BBA32DB001380230041F60402BC334E
S214001D401A802300BE3322001D7001230E99BF3275
S214001D505940117022005349C032097811700F9A09
S214001D6002B1F1332200C132137023000122C233C4
S214001D70E8341A70FFF7E8FB2078431E9841C0B29B
S214001D80FFF740FF200000F0DDFD484800F01EFE93
S214001D900822474918A811F0A6FB18A800F025FC51
S214001DA040F2FF1000F04AFC41F640737B430B9A6A
S214001DB0B3FBF2F33F4A136085E73B4C002000F08C
S214001DC059FC2300E8331D702C226B469B181E78A6
S214001DD02300F8330D9A1E70374B10009B5C0B994E
S214001DE0053E1793FFF70EFB0C9B012E06D86B469D
S214001DF00C9A1B8E0C2A00D20C239BB22200179939
S214001E00F932117022001199FA3211702200FB3259
S214001E1010700122254926000A702200C432138061
S214001E2023000E9AC6331A7023001E4AC733127850
S214001E30C9361A7023000F9AC8331A70139BE834F9
S214001E403370FFF781FB2078431E9841C0B2FFF73E
S214001E50D9FE200000F076FD144800F0B7FDF8B279
S214001E6000F011FC3378042440F23670012B10D1B8
S214001E700BF06DFBA043C1B240F236700BF04AFB8C
S214001E807B427B410D4A5B4213404FF6FF729B1824
S214001E9090E70BF05CFB0443E1B2EDE7584F0020FF
S214001EA08450002008400020544E00200C4F002094
S214001EB09C46010088500020484501000100FFFFB5
S214001EC0F0B599B00B931EAB109204CB0F911B7814
S214001ED00C92119320AB1F8821AB1B7805000D9345
S214001EE022AB1B780E9323AB1B78139324AB1B7883
S214001EF0149325AB1B781293764B5B7BA3B1269B82
S214001F0000920893129B109A0793149B00B20693B4
S214001F10139B029705930E9B04930D9B0393119BB3
S214001F2001930B9B01F07AFA4DB1012D58D040F683
S214001F3089000BF00CFB04210143C9B2A6E0664CF5
S214001F400C9A2300E8331D702300EC331A6023003C
S214001F500B22F4330B981A70FFF77CFC2300F53342
S214001F6018702300109AF0331A6023002200B8334A
S214001F701D70BA32FB001380230041F60402BC3306
S214001F801A802300BE3322001D7001230D99BF3234
S214001F90594011700E9A02B1F1332200C13213700B
S214001FA023000122C233E8341A70FFF7CDFA2078F6
S214001FB0431E9841C0B2FFF725FE200000F0C2FC89
S214001FC0464800F003FD0822454916A811F08BFA92
S214001FD016A800F00AFB40F2FF1000F02FFBA6E761
S214001FE03D4C30222300E8331D706B469B181E784C
S214001FF02300F8330B9A1E703A4B10009B5C0C992A
S214002000053E1593FFF7FEF93B00012E03D80C2F73
S21400201000D20C239BB22600159AF93632702200A5
S2140020201199FA3211702200FB32107001222B49EE
S2140020300A702200C432138023000D9AC6331A7029
S2140020402300294AC73312781A7023000E9AC83321
S2140020501A702300129AC933E8341A70FFF774FA1C
S2140020602078431E9841C0B2FFF7CCFD200000F058
S21400207069FC1A4800F0AAFC3378062B00D056E715
S21400208040F689000BF063FAFB21014040F6890018
S2140020900BF040FA0F980BF087FA269A134B28009D
S2140020A01A60129B08920793149B109A0693139B30
S2140020B00F9905930E9B029704930D9B0393119B18
S2140020C001930C9B00930B9B0AF030FB002019B089
S2140020D0F0BDC046584F0020544E00200C4F002044
S2140020E09C46010048450100084000208C50002016
S2140020F010B5FFF777FD00231A001900180000F04E
S21400210064FB00F08FFE10BDF0B58BB0099106920F
S2140021100593322B00D9B2E05B4C2600F5363378B7
S21400212008932300F9331D7800231A0019001800BD
S21400213000F04BFB00F0B0FB0790012859D1534B41
S2140021405E683EB933005249DA0052181168A94257
S2140021504BD1566827000025FFF7F6F90020FFF759
S21400216051FDE83730003D70FFF774FB2300F53370
S2140021701870380000F0E6FB2000B830057000F05C
S21400218025FC40F2E833059A09985A430592FFF772
S214002190AFF9404800F028FE0BF06AFA0500280068
S2140021A00BF06CFA0028FAD000F07CFC069B0500C9
S2140021B0002798422FDA0BF05BFA070000F072FC5B
S2140021C0069B0500984225DA38000BF057FA6B4656
S2140021D09B8A9842F2D300F065FC069B0500012717
S2140021E0834200DC0027FFB215E001330A2BAAD198
S2140021F0B0E7FFF7A9F9254B586848B1250000233A
S214002200E8352B70FFF726FB3070280000F09AFBAD
S2140022100026B6E70027FFF797F9079B012B1FD18B
S214002220FFF7E0FC23002000089AF5331A70079B9E
S214002230E830037000F086FB2000079BB830037080
S21400224000F0C4FB059B32000193069B0020009320
S21400225009992B0002970AF01BFA38000BB0F0BD64
S2140022600A4B5B68002BEDD02300089A2000F5335C
S2140022701A700023E830037000F064FBE2E70026E3
S21400228035003700DEE7C046544E0020584F002089
S214002290F8440100FFFFFF00F0B5514C87B0260060
S2140022A005900391F536337802932300F9331B78B3
S2140022B00493322900D991E000231A00190018006F
S2140022C000F083FA00F0E8FA464F0190012864D146
S2140022D07D6845B92B004449DA0052181168049805
S2140022E0814256D155680026FFF72EF90020FFF7E9
S2140022F089FC3E4B28001E70FFF7ACFA2300F5332E
S21400230018703A4800F01EFB2000B830067000F047
S2140023105DFB0598FFF7ECF87B7A3548002B4CD030
S21400232000F0B4FD40F2E836039B5E430BF0A0F9E4
S214002330050028000BF0A2F90028FAD00BF098F957
S2140023402C4D039000F0AEFB2B1C854200DA031CDC
S21400235003981DB20BF092F9B3B29842F2D3FFF78E
S214002360F3F8019B012B2BD1FFF73CFC2300200048
S214002370029AF5331A70019BE830037000F0E2FA17
S2140023802000019BB830037000F020FB280007B047
S214002390F0BD01330A2B9ED1A5E7FFF7D5F8786884
S2140023A00028B6D025000023E8352B70FFF752FA38
S2140023B03070280000F0C6FAABE700F015FDB1E774
S2140023C07B68002BE2D02300029A2000F5331A70B7
S2140023D00023E830037000F0B5FAD7E7054DD5E7DF
S2140023E0544E0020584F0020F84401003C4F002077
S2140023F0FFFFFF000080FFFFF0B585B015000AAABA
S21400240017880BAA019111780CAA14780DAA1278D5
S21400241048B1012814D00125002040190138B0FB2E
S214002420F5F005B0F0BD012340F2E8304B40FB1854
S2140024305200DB0012191833D2009B185843ECE701
S214002440043302936B1F012B04D83B1C0C2F00D2C5
S2140024500C239FB21201E400A4184A4251411423EF
S214002460AE0049420B40A41BE418AB1E0393062D96
S21400247007D9290001980834FEF7C4FF08B1AB1E3F
S2140024809E00E343DB171C40A419013C94FBF6F6C0
S214002490029B7343DA1913000E33062D00D9023B54
S2140024A0084A0199525C0A2A0AD803999B0001330C
S2140024B08B4040F2E8305843034B9200D558ACE7C7
S2140024C0FFDEC04648450100A0440100030000208E
S2140024D00A2B01D8014AD05C7047C0468C440100E4
S2140024E0F0B504000E0085B018B30020012C51D1C1
S2140024F0294D2B00F9331878FFF7E8FF0100280074
S214002500C83000782B002A00471EB841FA33F8324C
S2140025101B781278039028000296C6300078C435DF
S214002520461EB0410190288800902000FFF764FF07
S21400253030E0194B1A00EC3215681A00C1321278D6
S2140025400296013A511E8A4103921A00BF3212784F
S214002550BA3351424A4101921B882A00DB08009395
S21400256001000300FFF748FF41F65732012395426A
S2140025700FD840F6B732DB1895420AD840F2CF7231
S2140025800133954205D840F2E7320433954200D92C
S214002590023B181805B0F0BD544E0020014B1878C9
S2140025A07047C04609400020014B18707047C0466F
S2140025B00940002010B5084B1A78082A08D840F2BF
S2140025C04113D340DB0703D50AF05CFF0AF0FEFF99
S2140025D00AF04EFF10BDC0460940002010B50A00A4
S2140025E0010000200AF0BCFF10BD10B5010040F24B
S2140025F0C06008220AF07AFF002010BD07B5064B1F
S21400260001A91B7840BA088023B9022240F2BC60B8
S2140026100AF06CFF07BDC0469D50002007B5064B6C
S21400262001A91B7840BA088023B9022240F2BE6096
S2140026300AF05CFF07BDC0469D50002010B50C4B4D
S21400264004001B789BB940F2B8600AF080FF0122B4
S2140026500100230A91431340C9B240F2B8601943FF
S2140026600AF058FF40F2B960E1B20AF053FF10BD1D
S2140026709D50002007B56B46D91D087001229F208B
S2140026800AF00CFF07BD73B5031C0400F82804D934
S21400269044F2A463C0F201031B780133DBB25B1083
S2140026A00025DEB21F2B02DD0336B60801353200E8
S2140026B06B0001339A4013006A46D3716B460122C1
S2140026C0A020D91D0AF0EAFE44B16B46F600A9190F
S2140026D0C9B240F20670D9710AF01CFF73BD07B587
S2140026E06B46D91D0870012296200AF0D7FE07BD5A
S2140026F007B56A46031CD11D58069A06C00FD20FAE
S214002700520180011043DA07D20F1043DA06D20FC7
S214002710120110431A07D20FD20010435A07D20FE5
S2140027209B079200DB0F10435B00184308700122E2
S21400273089200AF0B3FE07BD07B5104B01A99842E1
S21400274006D90F4B0B80022298200AF0A7FE07BD81
S2140027500C4B984201D90C4BF4E70C4B984201D92C
S2140027600B4BEFE70B4B984201D90B4BEAE70B4BB1
S2140027709842E8D946F66B73E4E7C04600E9A4350C
S214002780E1E9FFFF80F8A932D7DBFFFF8044E52DA3
S214002790C1C5FFFF000B6B1B7581FFFF40FC541982
S2140027A013B501AC20706170A27021000422952040
S2140027B0E3700AF073FE13BD07B56B46D91D0870AB
S2140027C0012293200AF06AFE07BD13B56C4652BA82
S2140027D0A280082240BA49BA208061805BBA694666
S2140027E01000E3800AF05AFE13BD13B501AC0222B6
S2140027F0210012200AF067FE208840BA80B216BD7B
S21400280007B56B46D91D087001229D200AF046FECA
S21400281007BD07B50B00072201A910401A0C087067
S2140028204A705BBA042297204B800AF037FE07BD39
S21400283037B5104B104D18602B7804001BB9FFF706
S2140028407BFF01232B7043F60951B4FBF1F20B001A
S21400285041F684605343E31A9B031B18B3FBF1F362
S21400286092039B181BBA0422862001A901930AF042
S21400287015FE37BD945000209050002007B56B46DB
S214002880D91D044B0870187001228A200AF006FE33
S21400289007BDC0469D500020014B18787047C046C3
S2140028A09D50002037B504000D000AF083FE02009C
S2140028B0012826D1030000210F2C08D10620FFF79F
S2140028C06FFF231C5AB20E2A0CDD0E230AE00420EA
S2140028D0FFF766FF231C1134F4DA44F2A563C0F256
S2140028E001031B7818215CB240F6E7000AF012FEDE
S2140028F06B4602228E2001A95D711C710AF0CEFD86
S21400290037BD40F6D8000AF022FE1E210143C9B2A8
S21400291040F6D8000AF0FEFD01230022072104201D
S214002920FFF73EFF231C093407DA44F2A663C0F221
S21400293001031B7838215CB2D6E75AB2162AF9DDB5
S2140029401623F7E713B5040008220021684610F0A6
S21400295061FD1C4B20781B78834201D0FFF78EFF69
S214002960237813B1012B28D013BD6268164B694635
S214002970B3FBF2F343F609501A0C0A701A0A4A70AF
S2140029808B70237BA268CB70637B0B71B2FBF0F17C
S21400299003004B43D31A41F684629B039B18B3FB98
S2140029A0F0F389035B1869461A0C4A7108225BBA71
S2140029B0CB808B200AF072FDD6E723690422694695
S2140029C00093F6E79D5000200000093D30B5040056
S2140029D085B001AD09220021280010F01BFD224B16
S2140029E020781B78834201D0FFF748FF23781BB17D
S2140029F0012B2BD005B030BD637AF12B1AD14FF6E0
S214002A00FF70FFF7FBFD48F20500FFF707FE022305
S214002A106288A18852BA2A80227A6980AA7109221D
S214002A20E188EB71A980A37A2B7229008C200AF02A
S214002A3035FDDFE7F22BEBD141F60F50FFF7DEFD59
S214002A4041F22100FFF7EAFD0623E1E7A389074AE2
S214002A505BBA2B80A37B1370AB70E37B0622EB7014
S214002A60238AAB80E1E7C0469D5000209C500020A2
S214002A7007B56B461871597102228F2001A90AF01A
S214002A800DFD07BD002110B50A00C0200AF01BFD91
S214002A900721021143100A400B4012015800104350
S214002AA010BD000013B501AC0122210015200AF06C
S214002AB00AFD064B22781B7852085BB29B1A181C3C
S214002AC0803301DA4FF6807000B216BD584F0020F2
S214002AD037B505000C000222132001A90AF0F3FC0A
S214002AE0094B1B78012B0CD1084B1B78012B08D106
S214002AF040F202700AF02BFD6B4628705B7923705B
S214002B0037BD6B461879F7E79D5000209C50002093
S214002B10F7B56B460C00DF1D0500390020001600D7
S214002B20FFF7D6FF22780120B24204D83878290071
S214002B300AF028FD0020FEBD37B5040001AD0322D3
S214002B40290014200AF0BFFC254B1B7823704BB1DC
S214002B50012B24D01B220021601C10F05BFC0F23ED
S214002B6023701BE000222B7823711E4B9A566B783D
S214002B7092B25B08D31A191C1BB2803301DA4FF6E7
S214002B8080712181AB785B08D31A1A1C1BB2803384
S214002B9001DA4FF680720023E280E36037BD002240
S214002BA0104B9A562B7892B25B08D31A191C1BB29C
S214002BB0803301DA4FF6807101232182EB5602330F
S214002BC09B10A374AB785B08D31A1A1C1BB2803315
S214002BD001DA4FF68072044BA2821B68A361DDE720
S214002BE09D500020584F002098500020002313B519
S214002BF001AC21000222172023800AF064FC012386
S214002C0062785110100019409940184008439110FE
S214002C10194089000843D1101940C9000843111112
S214002C2019400901084351111940921149011A40EF
S214002C30084392011043227813401B02184316BD26
S214002C40002307B5022201A907200B800AF026FC04
S214002C5007BD07B5022201A940BA088010000AF095
S214002C601DFC07BD07B56B46D8710E48FEF784FA03
S214002C700D48FEF781FA6B460122D91D80200AF026
S214002C800DFC6B46DA79094B4AB9013220201A70DE
S214002C90FFF792FD4FF6FF70FFF7DBFF07BD02223E
S214002CA01A70F7E7404E00202C4E00200940002006
S214002CB010B504000AF0C6FB20000AF0A3FB0AF0D9
S214002CC0E1FB0020FFF7CEFF0AF0AAFB0AF07EFC2D
S214002CD00120FFF795FD0122044B1A700023044AD9
S214002CE01370044A1370044A136010BD0940002094
S214002CF09D500020905000209450002013B5041CD6
S214002D00FFF7C0FE60230340202B02D00020FFF711
S214002D10A9FF0AF09BFC6B46A207D91D6307DB0FD1
S214002D20D20F52009B001343E207D20F13438420B6
S214002D3001220B700AF0B2FB04210B00074A234065
S214002D40214202D00023137013BD08211170044ADB
S214002D501370044A1360044AF5E7C0460940002091
S214002D6090500020945000209D50002037B50AF067
S214002D7027FC88B96B460122D91D80300A70074DA2
S214002D800AF08CFB064B40F61110E97A5C6CA04703
S214002D9040F61210297BA04737BDC046584F00208A
S214002DA00C46010013B504220400094B09481A70AA
S214002DB0FEF7E2F9FFF7DAFF01A9230C0B700322F6
S214002DC0230A83204B708C700AF068FB13BDC04644
S214002DD0094000202C4E002010B51400FFF7FEFB23
S214002DE02000FFF7DFFF10BD052213B504000B4BD4
S214002DF00B481A70FEF7C0F9942140F6AC000AF0B2
S214002E0089FBFFF7B3FF01A9230C0B700322230AEB
S214002E1082204B708C700AF041FB13BD09400020E5
S214002E20404E0020F0B540F6E206002785B03000A0
S214002E3003970AF08CFBFE2140F6E50501400400EE
S214002E4030000AF067FB28000AF081FB7F21019022
S214002E50014028000AF05EFB0B48FFF7C5FF04227E
S214002E6003A940F619000AF05EFB3800FFF7FAFEE9
S214002E70210030000AF04EFB280001990AF04AFBB8
S214002E80039805B0F0BDC046FFFFFF00052213B54E
S214002E9004000B4B0B481A70FEF76EF9962140F6AD
S214002EA0AC000AF037FBFFF761FF01A9230C0B709B
S214002EB00322230A82204B708C700AF0EFFA13BDAF
S214002EC009400020404E002037B505000C00FFF7F3
S214002ED04DFF6A462B0C13702B0A5370230C64BAF2
S214002EE09570D37094806946062294200AF0D6FA2C
S214002EF00622014B1A7037BD0940002010B5FFF7B7
S214002F0035FF0022C52011000AF0C8FA0722014B3F
S214002F101A7010BD0940002010B5FFF727FF0022E9
S214002F20D12011000AF0BAFA0422014B1A7010BD23
S214002F300940002010B5FFF719FF0022D22011002B
S214002F400AF0ACFA0422014B1A7010BD09400020AA
S214002F5010B50120FFF754FC0AF062FA0120FFF7D3
S214002F60BEFB0122014B1A7010BDC046094000206E
S214002F70014B18687047C04694500020024B1B78DF
S214002F800BB9024AD38170479E500020584F00204C
S214002F90030000200A2B04D840F27D60D8400123AD
S214002FA018407047F7B5294B05009E7B3000FFF7A9
S214002FB0EFFF0190002846D00027254C1422390048
S214002FC024482770676010F025FA18223900224836
S214002FD010F020FA2148037823B1230046331B78EB
S214002FE0B34230D02300463300221E700023A26373
S214002FF0E3630023A11D2200CB8780214732117096
S21400300022004832137040F2013C1A00144923642F
S2140030100F78B7420ED101273D420BD00B2A08D8B5
S214003020104FD300D951DB19674601329F80019BB0
S214003030D2B26D080C4F2C31B942E9D10BB14834ED
S2140030402270012303700198FEBDC046584F002031
S214003050A0500020A8500020BC5000209E50002009
S214003060A8460100F0500020A44B01004A425141FE
S214003070094A4942114042F2107289180300C843B7
S2140030800A2B07D8054AD35C054A9B009B58C818EC
S21400309003B9C8437047C046F0D8FFFF4845010053
S2140030A0CC44010010B5040008002CB1012C09D155
S2140030B02100FFF7DBFF10BD500042F210729B1894
S2140030C0C018F8E701204042F5E70000F7B51B4AB4
S2140030D0CE00B218127903000120D2B100229C5E05
S2140030E0DD68844216D100219868FFF7BFFF134BB6
S2140030F0134A9B5940F20C0C2A331B781049DB000C
S2140031009A5C5B1801920022019ED1B28E4203D8CF
S2140031100420FEBD5868EAE7614651435F687E18A2
S214003120795EA14205D17168A94202D1B168814297
S21400313001D00132E8E70020EBE7C046F05000205F
S214003140A44B010003000D48D200125830B5546855
S21400315002209C4211D895689D420ED3D2681B1B54
S214003160B3FBF2F454431D1BA34206D12800012AE8
S21400317003D08A4292415242500030BDF0500020A7
S214003180044BC900CB585B69834280414042000132
S2140031907047C046F0500020F8B51A4C0020236C4B
S2140031A063B3A31DDB8F184DDB005B59188B28B368
S2140031B0FEF7E8F80023226C06000F00A06BE16B18
S2140031C0801859410222002312184B41BB4216D8E0
S2140031D001D1B24213D802225242D317121A8B419F
S2140031E092197B410634E18F0120C9006958098B8A
S2140031F00BB9914200D80020800180B2F8BD0022B1
S2140032000023EFE7A0500020F0500020030000202D
S21400321082B00190D1B142F20F7291420CD840F2C6
S214003220E73291420AD9013242F210700192019AB5
S214003230401AB0FBF2F0584302B07047642263298C
S214003240F2D80A220929EFD80122EDE70121FBE78F
S214003250F8B51F4C0020236CABB3A31DDB8F1D4DB0
S214003260DB005B59188D70B3FEF78CF8A66BE76B26
S2140032700B0002001900236C10009C461A00002365
S214003280B6185F410222002392197B418B421BD85D
S21400329001D1824218D802225242D317921BBB4158
S2140032A012184B4116001F000634E38F6046DB0001
S2140032B0EB58198DFFF7AAFF01230FB9B04200D8CB
S2140032C00023580180B2F8BD00260027ECE7C04670
S2140032D0A0500020F0500020124AF0B51300040061
S2140032E0463319784832104B1278DD7B0F4B06397F
S2140032F0D200C9B2D218934201D10020F0BD0129F4
S21400330005D825B918682A300078022808D0187918
S21400331030B11E687768A74202D8B668A642EDD2DA
S2140033200833E8E7A0500020584F0020F050002057
S21400333073B5204D060001A80C0009F0E5FD2A78BB
S214003340531CDBB22B700AB909F002FE01A809F083
S214003350E0FD701E042809D80FF0D6F803161A21CF
S214003360280050222100144810F0BDF801A809F0EA
S214003370CBFD2B78013BDBB22B700BB909F0F8FDC7
S21400338001A809F0C6FD73BD22780B4B1A70EDE755
S214003390094B083307CC07C306CC06C3E6E7064B43
S2140033A01C3307CC07C307CC07C3DFE72268024BF2
S2140033B05A60DBE730620020A050002007B501907D
S2140033C001A90520FFF7B4FF00200EBDF0B50600EA
S2140033D00D008BB0019311AB1B880092029313ABC8
S2140033E01B781222039315AB1F7804AB0021981D9F
S2140033F010F010F8009B05AC0793019B2100237387
S214003400029B0320E381039B268006952374677442
S214003410FFF78EFF00200BB0F0BD0000F0B50C00EB
S214003420060015008DB0019312AB04CB00211B786B
S2140034300292039314AB1B881522049315AB1B78DA
S214003440059316AB1F7806ABD81C0FF0E3FF06AB50
S2140034501E809C70019B039A0893029B042009938C
S21400346006AB1A74049A19005A82059A5F751A7583
S2140034700795FFF75DFF0020024B47331C700DB029
S214003480F0BDC046A050002073B5214D060001A82F
S2140034900C0009F039FD2A78531CDBB22B700AB9F0
S2140034A009F056FD01A809F034FD701E042809D85D
S2140034B00FF02AF803161A222A0050222000154977
S2140034C010F011F801A809F01FFD2B78013BDBB2C4
S2140034D02B700BB909F04CFD01A809F01AFD73BD5D
S2140034E00C4B1B782370EDE722000A4B083343CBC6
S2140034F043C203CB03C2E5E72200064B1C3343CB93
S21400350043C213CB13C2DDE7024B5B682360D9E7E7
S21400351030620020A0500020F0B59BB014AD1822F9
S214003520040000210EA80FF075FF29000420FFF705
S214003530ABFF05200CA9FFF7A7FF0023EE5EA968E6
S214003540EB6830006A68FFF7ADFDF3B202936D4B8F
S21400355008905B6A2100029898476B4B04904833AA
S2140035601B786A4E0793684B46331B78063BDBB2E4
S2140035700593674BDB7B06930C9B03930EAB019383
S214003580002300936B461F78079BBB4200D8A2E03F
S214003590059B012B07D8069B2BB933682A331B786B
S2140035A0022B00D1A0E03379002B00D19CE03A003A
S2140035B008990398FFF7C6FD019B3900099028007B
S2140035C01C88FFF783FD099B3900034304981C43BE
S2140035D0FFF7D6FDA4B2019B0443A4B21C80002CC6
S2140035E000D081E0FFF734FE0400FFF7D5FD009B16
S2140035F004435B001800019310230AA9A4B2C9185B
S2140036000C52DCBB0099414BCE009A5940F2E7338E
S214003610D2699A4232D93B4A0DA9D56F0120A847F4
S2140036200AA903312000A847384B364A9959956FA6
S21400363024310120A847354B711DC9182000A84722
S21400364040F2E831314B9A59D3692020125EB3FB21
S214003650F1F32C499BB20E6902980399B047060015
S2140036600DA90120A8470AA920000331A8472EB9B2
S2140036701022802301980AA98A181352009B0EAACA
S2140036805B009B5A13BBFDF77DFE1F4B049A9863A5
S214003690D9631A640633DF87009B1C4ADB00D358C5
S2140036A014A91B7C887889781A1C49B25BB28B42B5
S2140036B000DD021C0021144B50B24733595681429C
S2140036C002D01A7009F070FF002006E06022134254
S2140036D012D11B0613D4FF276520FF2318403B405A
S2140036E01B0218431BB0F0BD009B08360133009345
S2140036F0019B0233019345E7FF276620EDE7FF278E
S2140037006720EAE70C460100A0500020F050002099
S214003710584F002037B56B46DD1C02200C002900F0
S214003720FFF7B2FE2B7803201BB92000FFF7F4FE4C
S214003730C0B23EBDF0B599B0182200210DAC12A85B
S2140037400FF068FE21000320FFF79EFE05200CA95F
S214003750FFF79AFE0022A35E019303BB6368039300
S214003760404B00271A0048321278463309921B78DD
S2140037703D4D063BDBB205933C4BDB7B06930C9B37
S214003780079312AB0293099BBB4210D1FF2764201C
S214003790FF2318403B401B02184319B0F0BD00231E
S2140037A061681A000198FFF77DFC0390D8E7059B37
S2140037B0012B0DD8069B5BB92B682A331B78022B8E
S2140037C006D1029B01370233FFB208350293DAE7CF
S2140037D02B79002BF5D03A0003990798FFF7B2FC37
S2140037E0029B1B881843029B84B21C80002CE8D1E5
S2140037F02B681F4A2A331E78F600B35CB118019A6C
S21400380004932300012A25D121000E98FFF72EFCF1
S21400381040F20C0C0F9B0893154BF3180499E2B278
S2140038208A42CED2624662435E68B118B25E012A10
S21400383006D14A68089E964202D18A6882420ED015
S2140038400134EBE70C2058434A680133825E019846
S214003850904204D00498DAB29042F3D8B1E7002040
S21400386096E7C046A0500020F0500020584F002099
S214003870A44B010013B56B46DC1C02202100FFF7A9
S21400388003FE2378032013B9FFF754FFC0B216BD1A
S2140038900320704703207047F8B52E4C01252300FF
S2140038A022004633197848322B4B1278DE7B2B4B9E
S2140038B00639D200C9B2D218934205D1002D46D19E
S2140038C0236C83B90020F8BD012905D826B91868ED
S2140038D02A300078022804D01879474278414042BE
S2140038E005400833E8E7FDF74DFD022200230600F9
S2140038F00F00A06BE16B12184B419F4202D823D1F8
S214003900964221D902225242D317121A8B41B61878
S2140039105F41256C0634E38F104ADB00D45828003C
S214003920218DFFF773FC218B0200814200D90A002B
S21400393000232800002180185941B94202D8C1D17D
S214003940B042BFD9801BBEE700260027E1E7012072
S2140039504042B8E7A0500020584F0020F05000200A
S21400396010B5040010220021B1300AF003FA23003B
S2140039700021D433B022200019600AF0FBF910BDF4
S21400398010B50CF06FFE10BD0300F0B5D433040084
S21400399018680E00150087B048B310231B1A1F00C6
S2140039A00093934200D917002300C133BAB2181807
S2140039B0310001930AF0C9F92200D4321368FB18CB
S2140039C013600F2B1DD9009BAB421AD22000B130DA
S2140039D003001A78197C4A401A70019A01339A42F9
S2140039E0F7D1220001000CF08FFEF619ED1B200027
S2140039F0C130102D07D83100AAB2D4340AF0A5F988
S214003A00256007B0F0BD2700B1373B00009600994F
S214003A101A7809784A401A70009A013301320092E7
S214003A209842F4D11022390002A80AF08EF902A9B1
S214003A30220008000CF068FE1022380002A90AF0E6
S214003A4084F91036103DD2E7F0B50C008BB010228A
S214003A500021019002A80AF08DF902A922000800B0
S214003A600CF052FE02AB1A7800217F2A3FD9187854
S214003A705A784000D209024301311A7001330F29E7
S214003A80F5D102ABDA7B792352005B425340260025
S214003A90D4363068DBB202AAD373102835D123009F
S214003AA02000C133D1301978157801326940197079
S214003AB001339842F7D121002000B1310B00C1300C
S214003AC01A781D7C6A401A7001338342F8D106A822
S214003AD010220AF03AF9220006A901980CF014FE0A
S214003AE01022002102A80AF045F90BB0F0BD1878A4
S214003AF05A784000D209024301311A7001330F2967
S214003B00F5D102ABDB7B5B00C1E70022002102ABF4
S214003B109A568A4232DA1D785A786D00D2092A43BC
S214003B2001311A7001330F29F5D102ABDA7B792304
S214003B3052005B425340DBB202AAD37380222318A2
S214003B40C133471C00251A70102F01D80F352D1AC7
S214003B50C2302A00002120180FF05CFC2300200051
S214003B60ED193560C13302AAD130197815780132C3
S214003B706940197001338342F7D19CE71D785A7863
S214003B806D00D2092A4301311A7001330F29F5D18D
S214003B9002ABDB7B5B00CEE77047000070B500220F
S214003BA01124084D23005343EE5C864205D10020C5
S214003BB0054A20339B180B6070BD0132142AF1D1E0
S214003BC00320F9E77451002054510020F0B5BFB02F
S214003BD006000D0017000224019309B3449BFBB1B5
S214003BE008A8FFF7BDFE019803A9FFF7D7FF04005A
S214003BF0B0B9039908A80131FFF7C2FE26B110221A
S214003C00310008A8FFF7C0FE3A00290008A8FFF711
S214003C10BBFE08A904A8FFF717FF049B449A13608D
S214003C2020003FB0F0BD00007FB50026334C0500F5
S214003C301022002168460FF0EDFB631CDE772300A0
S214003C40012231331A702300921842331A7023006F
S214003C50053253331A702300013264331A7023007E
S214003C60013275331A702300763286331A702300B9
S214003C70013297331A7023000132A8331A702300DA
S214003C800132B9331A7023000132CA331A70230086
S214003C900132DB331A7023000132EC331A70230032
S214003CA00132FD331A7023000132FF33DA7340F21B
S214003CB01F130132E25411330132E2541133013240
S214003CC0E25411330132E25411330132E2546946B0
S214003CD00B487C3A0AF039F81022310020000AF02E
S214003CE049F81022310007480AF044F805B9064D95
S214003CF00020064B1D6004B070BDC0465451002025
S214003D00B852002064510020993B0000505100201A
S214003D10010010B5022029B1034840F274120AF0DF
S214003D2014F8002010BDC0465451002040F2741311
S214003D30036001487047C0465451002013B5040084
S214003D4003207E2B04D8049800902000FFF73EFF47
S214003D5016BD30B585B01C0008AB05001B780220E8
S214003D6061B10020039003A800902800FFF72EFF03
S214003D7020B90398001B431E9841C0B205B030BD61
S214003D80F0B5B1B00E0015001F0002240190C0B1BE
S214003D90BFB10F23033419401E4212D1B02203A82C
S214003DA009F0E8FF280002A9FFF7F8FE040040B972
S214003DB0029903A801310CF055FC3500701BC0B207
S214003DC015B9200031B0F0BD019B03AA1918103DAB
S214003DD038180CF099FCADB2F0E700007FB5002370
S214003DE011220D001A4914005C430E5D86422AD14A
S214003DF0184B80382134C0B21022174EE418092818
S214003E0019D840F24923C340DB0714D50021684681
S214003E100FF000FB6B467F2210212800FFF7B0FF53
S214003E20102205006946200009F08FFF3368984786
S214003E30280004B070BD2900200009F086FF336812
S214003E4098470025F4E70133142BCCD10325EFE780
S214003E50745100205451002050510020022310B508
S214003E6011B1FFF7BBFF0300180010BD7FB50D00B2
S214003E7016001C000220B1B11022002168460FF087
S214003E80C9FA7F2C04D1022332009A43032052B190
S214003E906B46320010212800FFF772FF18B96946FA
S214003EA02000FFF79BFF04B070BD0000010010B5B6
S214003EB0022039B10448102209F047FF034B1B6863
S214003EC09847002010BDC046545100205051002095
S214003ED00048704754510020010010B5022039B147
S214003EE00448102209F031FF034B1B689847002056
S214003EF010BDC04664510020505100200048704755
S214003F006451002003000020082B04D82230FF3024
S214003F10D840012318407047030007B50800052B5A
S214003F2007D0082B08D053B900F0E0F901900198AB
S214003F300EBD01F07FFAF9E701F0C2FFF6E70023B5
S214003F400193F4E7030010B50800052B05D0082BF5
S214003F5006D00BB900F054FA10BD01F0D1FAFBE719
S214003F6002F01EF8F8E7030010B50800052B05D090
S214003F70082B06D00BB900F067FA10BD01F0D4FA92
S214003F80FBE702F021F8F8E7030010B50800052B60
S214003F9005D0082B06D00BB900F068FA10BD01F06A
S214003FA0D5FAFBE702F022F8F8E7020010B50800A1
S214003FB0052A08D0082A09D0002312B900F02AFBE7
S214003FC00300180010BD01F071FBF9E702F0F4F8E9
S214003FD0F6E710B5040008001100052C08D0082CE0
S214003FE009D0002314B900F01BFB0300180010BD15
S214003FF001F064FBF9E702F0E7F8F6E7030010B516
S2140040000800052B05D0082B06D00BB900F0EAFEF9
S21400401010BD01F0C3FEFBE702F008F9F8E7020066
S21400402010B50800052A08D0082A09D0002312B9BE
S21400403000F038FB0300180010BD01F069FBF9E73B
S21400404002F01CF9F6E710B50400080011001A008B
S214004050029B052C05D0082C06D00CB900F036FBC8
S21400406010BD01F069FBFBE702F03EF9F8E710B57A
S214004070040008001100052C08D0082C09D00023E5
S21400408014B900F073FB0300180010BD01F09CFB90
S214004090F9E702F065F9F6E770B5050008001100CB
S2140040A01A00052D08D0082D09D0002415B900F0F7
S2140040B0C7FB0400200070BD01F0F0FBF9E702F03A
S2140040C097F9F6E773B5079E0500080011001A0079
S2140040D0069B052D09D0082D0BD000241DB900968F
S2140040E000F036FC0400200076BD009601F05EFC71
S2140040F0F8E7009602F002FAF4E7020010B50800AE
S214004100052A08D0082A09D0002312B900F0CAFCF4
S2140041100300180010BD01F0E1FCF9E702F0C6FA52
S214004120F6E7020010B50800052A08D0082A09D0CC
S214004130002312B900F08AFE0300180010BD01F03B
S21400414061FEF9E702F0DBFAF6E7020010B50800B8
S214004150052A08D0082A09D0002312B900F0C4FCAA
S2140041600300180010BD01F0D6FCF9E702F0C9FA0A
S214004170F6E7020010B50800052A08D0082A09D07C
S214004180002312B900F0B2FC0300180010BD01F0C5
S214004190C5FCF9E702F0B8FAF6E710B50400080027
S2140041A01100052C08D0082C09D0002314B900F003
S2140041B0BDFC0300180010BD01F0D2FCF9E702F0C8
S2140041C0A5FAF6E7030010B50800052B05D0082B66
S2140041D006D00BB900F0ACFC10BD01F0C3FCFBE749
S2140041E002F0AAFAF8E770B50500080011001A00F8
S2140041F0049B052D08D0082D09D0092415B900F018
S214004200B5FC0400200070BD01F0CAFCF9E702F01E
S214004210B1FAF6E7020010B50800052A08D0082A09
S21400422009D0032312B900F081FD0300180010BD69
S21400423001F056FDF9E702F0A9FBF6E7020010B51B
S2140042400800052A08D0082A09D0002312B900F071
S214004250ADFD0300180010BD01F084FDF9E702F083
S21400426097FBF6E770B50500080011001A00052D4B
S21400427008D0082D09D0CCB215B900F005FE040010
S214004280200070BD01F0DCFDF9E702F083FBF6E7E5
S214004290030010B508001100052B05D0082B06D02A
S2140042A00BB900F0FFFD10BD01F0D2FDFBE702F0F8
S2140042B081FBF8E70A4B10B51B6A0400984770B1FB
S2140042C0084B094A1B78DB009958002210008C42E4
S2140042D005D305495B185B68A3425241D0B210BDB6
S2140042E00C460100C8520020D44C010007B500223D
S2140042F00300007800920138382834D80EF004F90C
S2140043001D223324331F333333333333353E3333B5
S21400431033333333413333334B4D4F5133333333EE
S21400432026333333333333333333333333335A531E
S214004330583333335A5833626500DB789BB1022317
S214004340009310E09B78F9E70723F9E79A785B7803
S2140043505BB21AB92BB1013BDAB202E01A00022BAB
S214004360F9D152B2009200980EBD01229A569B785F
S21400437013B9174B9B5CE3E7164BFBE7164B1B7812
S214004380DEE740F2E831154809F0D2FC40F2D0737F
S214004390C0180090E7E7124BD2E7124BD0E7102385
S2140043A0CEE7114BCCE740F211136A461380DAE7EA
S2140043B00323C5E70D4B0E4A1B789B009A580D4BFE
S2140043C09B1ABDE70C4B1B88EFE70C4B1B68B7E747
S2140043D0984D0100904D01000A40002018FCFFFF98
S2140043E0B0530020B2530020D0520020C852002004
S2140043F0FC4C010040F70937B4530020B8530020A6
S214004400037810B5382B0ED0392B11D00E2B09D1CE
S2140044100A4903790A789A4204D00B70084B0620A2
S2140044209B6F984710BD074B8288E4331A80F9E7E4
S214004430044B4268E8331A60F4E7C0460A4000209E
S2140044400C460100D05200200C218268C36810B5CB
S214004450047840786143044C0919497A06314901C9
S214004460091900F0B2FD10BDD052002070B58AB018
S2140044706A46642313810023937200230022049269
S2140044800593069207930892099303790400042B78
S21400449017D818000EF038F8175873037B004F4BE8
S2140044A064211A00C03211801A0000200021C83290
S2140044B0106051601A00D833D03210605160186016
S2140044C059600AB070BD464D6379464E20222800DA
S2140044D002A9337009F039FC0323012242494348FC
S2140044E06B8400F066FD552301225B42AB845A3391
S2140044F0AB623F4B00211A700223237240F6B8339A
S214004500E36040F2E833236140F2D073636141F226
S2140045108833A36141F27073E361A318E280D97710
S214004520337834499B0058583349091A616240F27F
S2140045300211218521002A310A70304A9B58E36215
S2140045402F4B23632F4B6363244A11001000E03186
S214004550E2300B88008803430B8011002A4B31CBD6
S21400456031C170CB70C11F4B22491B789B00595834
S214004570214B5B1A1360254B5B1AD360A1E72168B9
S21400458000299ED0F022154809F0DFFB99E7154A6E
S2140045901078013803281FD80DF0B6FF021A031C46
S2140045A009236A4693711A4B911D9C6F0820A047F9
S2140045B06B46591D0E4B06201B785A1E93410B70F6
S2140045C0A0476B46D91D002309200B70A04778E74B
S2140045D00323E6E70523E4E70223E2E7D0520020C0
S2140045E090530020C8520020B2530020B053002041
S2140045F00A400020FC4C010000EA0637B44C0100DB
S2140046009A99094040002000C84D010040F709373C
S2140046100C460100F023036000487047D05200208B
S214004620030010B508000E2931D80DF06DFF0830D4
S2140046303030300C1A1F3029293030302D001868E1
S214004640FFF738FE10BD0020124A1349127818569C
S2140046508A56997891B900F070FC431E9841C0B212
S214004660F0E70020052218560021F4E70020094A4A
S2140046700A49127818568A565978EBE70221EAE773
S214004680002007221856EFE7054B1878E5E70020CC
S214004690D8E7C046C8520020CD4C0100C84C0100E7
S2140046A00A40002010B50279030022B10020012A3A
S2140046B007D1044801E001220348196800F079FC9C
S2140046C0012010BDB2530020B0530020F7B51C00E7
S2140046D0204B16001B78204A0D00D35C191C5BB2D9
S2140046E0834200DD011C1D481D4F84464AB261709E
S2140046F09100CB590120634504D01A481B18584234
S21400470043415800A070072A19D1322000F030FD2E
S21400471022002300A17C0C32083301920093320061
S2140047200023072911D1290000F050FD0123E3568C
S214004730072B03D0A06800F01FFEA060F7BD0A4B51
S2140047407958985C00F00CFDE2E7290000F016FDB1
S214004750ECE7C046C8520020C84C010090D00300C9
S214004760A04D0100E05EF8FFC04D0100F0B5012746
S2140047702E4D8FB06B680D910400C757466898475A
S2140047800B900B9B0020C3BBA37C43B922780C3351
S2140047905343274A9A1856680EB9254A9E58254B01
S2140047A03000DB570C93EB689847AB699C46637CFC
S2140047B0072F24D100200993012308900790069024
S2140047C0059304900390A36840F2E8329BB20293EC
S2140047D005230C990193184B4A4300934CF2503131
S2140047E003006446A047154B0B98D95D6B6D0D31E1
S2140047F0C9B2984701200D9B1F700FB0F0BDA1787D
S21400480001260993002308960793069305930493BD
S2140048100393A268300092B202920822009301929B
S214004820330064460C9AA0470B96DCE70C46010062
S214004830D0520020C04D010085450100984D010072
S214004840F0B591B00D9201220F9182563A4B0400BA
S2140048509B5602250B930C23017865574B4337492B
S2140048605B185B7A06335B015B189B788178181CB3
S2140048705BB2AB4200DA081C012143B20C93304B0A
S2140048809200D3582F4A0A91934205D02E4A9B187D
S2140048905A4253418B400A93A26861680C9800F014
S2140048A0BFFC0C232278294F53432449FA680E9004
S2140048B058589047FB69012200259C4640F6A07395
S2140048C0A2560893079506950595072A25D1012334
S2140048D004930433029340F2E8330B9A664653433C
S2140048E02800009346F2A8120A9B0E99039501959C
S2140048F0B0472E003000217B7B6D98477B6A3000E6
S214004900217B98470D9B0D9A186000230120536069
S2140049100F9B0C9A1A7011B0F0BD08230126029363
S2140049200B9B2A0003950093300065460A9B0E9960
S21400493004960196A847DDE7C04D0100D05200203E
S214004940A04D010090D00300E05EF8FF0C46010089
S214004950F0B5002693B001910292040006220021D1
S21400496008A803930EF056FD04AB5E800725237A55
S214004970B34206D9606808A9801900F085FB0028B4
S2140049804FD1022704AB1F72637A04AA06A893725B
S214004990FFF7ACFC03000AA80571A27A08AD4271C5
S2140049A06A7804A98271AA78C2712A780272E27AB9
S2140049B04272227B8272627B0375C2721022354B72
S2140049C0027304AAD2191B780261334AD35C1222FE
S2140049D04375324B52188361072311218383236862
S2140049E004AC0A9309192B0000F069FB04000728A1
S2140049F009D12B4B3A001F001800002109F0BAF924
S214004A0004AB5B883B8020006B78019A1370AB7810
S214004A10029A13702B78039A1370189B1E7013B0AB
S214004A20F0BD04AB04AA9B8A36185380901CD27C37
S214004A30F6B2062A15D00625002A98D1002B00D1FA
S214004A4095E701206D1919001141014205D0290092
S214004A505143124FC9190968D1B10132102AF2D157
S214004A6084E7002240F2010C15000C2151430B4F45
S214004A70C919096821B16146914065460B439BB24E
S214004A800132102AF1D1002D00D16FE703806DE7C7
S214004A9006256CE7C8520020CD4C0100D0520020FD
S214004AA0B053002070B505004068FFF703FC0630E1
S214004AB0C4B200200A4B0B4A1B780021D256285657
S214004AC000F03BFA08B902239C430120072200218C
S214004AD0285600F032FA08B904239C43200070BD23
S214004AE0C8520020C84C010000207047037810B55B
S214004AF0040000200F2B0CD86068FFF7DBFB0C23AC
S214004B00227802305343084AC0B29A5812B9022398
S214004B10984310BD032804D1034A9B1862685A6064
S214004B20F7E70220F5E7C046D05200200220704783
S214004B3010B588B06A460B4B00930B4B0193437835
S214004B401372037853724388538103AB021D12CA53
S214004B5012C30269436968460692079300F086FB13
S214004B6008B010BDD052002090530020F0B58FB092
S214004B70079104920021102205000AA81C000EF0DE
S214004B8049FC08AB4620D91D02F02AFD614E0122E1
S214004B900021300000F0EFF918B9032332881343E0
S214004BA03380A868E968FCF7F1FBAB68EA680600A2
S214004BB013430F0033B12A686B688B4259D801D172
S214004BC0824256D80022002322606360524C0123A2
S214004BD02200A97C687C00F0FFF9009001916B7CB4
S214004BE0C03C05931023260000240127EB560294B0
S214004BF006930394494BE0331B8823413B421BD06A
S214004C003368CBB1059B1BB9033323413B4213D01A
S214004C10317A06980A090907090F00F08EF958B18B
S214004C20737A3D4A5B019B189A69DB691A43C2B1E5
S214004C30039B0133DBB2039301340C36102CD9D11D
S214004C40029B0BBB039BC3B90322344B0C20E033FF
S214004C5019880A431A800022002304990A604B60D0
S214004C6045E0029B029901330AAADBB25454029330
S214004C70E2E7921BBB4100920193009B019C049AC1
S214004C800B201360546032E0029B591E08ABD879A3
S214004C90002830D0002009F04BF8C6B20AAB9B5D66
S214004CA001360093029B029A96FBF3F353431022BD
S214004CB01B4FAA56F61AF6B2BB6F062A19D0194928
S214004CC001209847154A0098E4320021525E0C21D4
S214004CD04143124B1148E83341583F6901201B6895
S214004CE0B84768B9013CE4B2002CD7D10D300FB0FC
S214004CF0F0BD0D49E4E709F01BF80AAB1B5C009316
S214004D00079B009A04991A700022002300200A606C
S214004D104B60ECE7B053002090530020D0520020A8
S214004D200C460100104000200C400020F8B5067923
S214004D3005000620012E1BD903380F2E18D82A6826
S214004D400124137A19091B071B0F8B4207D8144B33
S214004D5014481B78C356994200DC0024E4B210685D
S214004D60FFF7A8FA01235840C3B214B10533D8B2EE
S214004D70F8BD0420002BFBD10C22170077430A4B0A
S214004D802968FF18380008F0E0FF0122B240064B01
S214004D907C72E033198820000A431A80E8E7C04690
S214004DA0C8520020CD4C0100D052002070B50478C7
S214004DB0012C02D80025280070BD102221000748CB
S214004DC000F0C5F805000028F4D00C225443044B2C
S214004DD00021E0180EF01EFBEDE7C046B0530020A1
S214004DE0D0520020F0B50600022487B06B461C7037
S214004DF001346846E4B2FFF7D9FF102CF6D1337AB7
S214004E00102B21D17368DC7BF4B95023642703ADE3
S214004E102B72032262437368995C9B1829605A7848
S214004E2012020A432A609B781B04134300227B432A
S214004E306A602B602BB101A8A31C01950371FFF7D4
S214004E4075FF0134052CE4D107B0F0BD07B5026844
S214004E500379116839B96A4668461370FFF7A6FFEA
S214004E6080B103200EBD00926A4668461371FFF7B4
S214004E705DFF03000220042BF4D00138052BF1D08F
S214004E80002BEED00020EDE7C90020B9034BC9186F
S214004E908856C0B27047024BF9E7C046504D010035
S214004EA0104D0100030010B50A4A86B001929A68B8
S214004EB001A8426040F211320281002282725A68D2
S214004EC01B880C000382C26000F016FA03232370CE
S214004ED006B010BDC04D0100F7B5019108A90978CC
S214004EE0009049B200209A4224DB8A4222DC0C263B
S214004EF0012719E0019C4100095B73438C46099920
S214004F00CC18002361461941394207D0217A0D0793
S214004F102D0F954202DC090991420CDA01330C345C
S214004F20102BEFD10130C0B203010099DBB29942D9
S214004F30E0D80020FEBD0120FCE7030000208B42E5
S214004F4004DBD80FD1179A424841C0B2704730B53B
S214004F500B090400150900209D420BD3914209D28B
S214004F600F220130114002008A4011005B00E25A15
S214004F708A43E25230BDF7B5019228B14A00831841
S214004F800020019A914200D3FEBD002422001F8813
S214004F900125A5402E003E40B54201D10132D2B2D5
S214004FA00134102CF4D180180131C0B2C9B20233DA
S214004FB0E7E710B520B119B100235200934200D1A3
S214004FC010BDCC5AC4520233F8E70A614B6100B1F7
S214004FD070478A60CB60FBE7F0B5012676420F008B
S214004FE0140035005B0185B0D31803900293029B32
S214004FF0A34209D1731C03D16B1C01D100263500D6
S2140050003000290005B0F0BD039B5BBBA068E168DB
S214005010FCF7BCF90190009120696169FCF7B6F9CC
S21400502002000B000FB9002213001900009B1000AD
S2140050308B4203D804D1019B934201D90198009971
S214005040A269E3698B4202D812D1824210D9121AA1
S2140050508B419D4202D803D1964201D916001D000D
S2140050602034C4E74FB120696169FCF78FF9E7E7A0
S21400507000220023A261E361F2E7002200233E0043
S2140050803D00A261E361EBE710B502780300002063
S214005090032A13D15A780F301400120904408C707A
S2140050A04A709A788A80DC78240222438A801B79A8
S2140050B05A06520F0340CA700B700A3810BDF0B57E
S2140050C00627072687B003910492059343790400C8
S2140050D00579C7578657E3B10823C3560293002DB8
S2140050E03AD00F2F1DD10927E7570F2E2AD10A23B2
S2140050F0E356072D03D1029A0AB90132029228001C
S214005100039A1770049A1370059B029A1A7007B0D8
S214005110F0BD0B2309270A26C3560293C7578657A6
S214005120DDE71423A269E356207B01921522A256DE
S214005130009221693A00FFF7CFFE0028D5D102235E
S2140051409D43D2E71D23E356B342D2DC1C23E3562D
S214005150B34203DA04239D433300D0E73300C8E7A5
S214005160024B8340B3FBF1F07047C04640420F004D
S21400517041F64073B3FBF0F07047000030B540F2E4
S214005180E8350C1F44436A43A21852001AB1441E65
S214005190A218B2FBF0F2914200D21100039A1160FD
S2140051A082004843002108B101304108521A40F2FB
S2140051B0E8314B43D31A01D5034A9B1893FBF1F110
S2140051C0049B196030BDC04619FCFFFF30B51D00BA
S2140051D040F2E8334C1F44435A43A21852001AB117
S2140051E0431E9A18B2FBF0F2914200D21100039BC4
S2140051F00022196005234343484308B101304208A2
S2140052009B1A40F2E83255435B1B01D503495B18F5
S21400521093FBF2F2049B1A6030BDC04619FCFFFFF8
S21400522070B54000141C0D1C0DF0CAFE011C281C95
S2140052300DF09AFC211C0DF097FC051C0DF058FE95
S2140052400021060044B2281C0DF0ACF960B930000D
S2140052500DF06EFE011C281C0DF086FC00210DF0E2
S2140052607DF908B9013C64B2200070BD0C22010033
S214005270F8B5C07A0B6842439B185B7A4A685B01B4
S214005280D05AD41800220023A261E3614B7A8A7AAE
S21400529033BB40F60F66CD686433B54209D949F68C
S2140052A0AF23AB429B4142F228352B4040F2E83513
S2140052B05B190AB90A7A92B1051C984200D21D1CE5
S2140052C0002301267642F717AAB2B6185F418A690C
S2140052D0CB69300039000DF08FF9A061E161F8BDAF
S2140052E0002AFCD002008869C9690023012676429C
S2140052F0F71792197B41EEE770B52F2604008CB0A5
S2140053001C4D6E4431001D2002F06AF92B1DDB6F28
S21400531098472B6B98473078AB6D9847EB6860687A
S21400532098470120217A6B6D9847637A2268002699
S214005330D25CE368A17A584243410120089607965A
S214005340069605960993237A03900493238A00967B
S21400535002930A23AE6901930300B0476B6BE068C3
S214005360984720B101F07CFB642002F097F90CB05E
S21400537070BDC0460C46010003003F2803D8FE203F
S214005380013318407047F8221000F72BFAD807337D
S21400539013401800F6E70000194B70B51B6A0400AE
S2140053A00D00984730B1174B174AE318934202D8BE
S2140053B002232B7070BD154B154AE318934201D893
S2140053C00023F6E7134B144AE318934201D801234F
S2140053D0EFE7124B124AE318934201D80523E8E799
S2140053E0104B114AE318934201D80323E1E70F4B11
S2140053F0E4180F4B9C4201D80423DAE70020D9E7D3
S2140054000C46010040AA8FCC7F841E00C02571CCBC
S214005410C0C62D00FF5E43CCBF270900A0B038CC25
S21400542020A1070040022ECC90D00300606E29CC4D
S214005430E093040007B500220300007800922128BC
S21400544016D80C2804D8072304282AD000980EBDA6
S2140054500D381428FAD80DF04DF82026F9F9F9F988
S214005460F9F929F9F9F933353739F9F9F9F917005E
S2140054702F38C3B2072BE9D80728E7D80DF03AF83B
S214005480282A2FE6E6E6282F5B785BB21A000BB1D7
S214005490013BDAB252B20092D8E75B78114A5BB2AF
S2140054A0D35C0093D2E7104B1B78FAE740F2E83162
S2140054B00E4808F03DFC40F2D073C0180090C5E7D7
S2140054C00B4BEEE70B4BECE71023EAE70A4BE8E75B
S2140054D00A4BE6E740F211136A461380B6E7032349
S2140054E0DFE7C046E04D01001440002018FCFFFF37
S2140054F04055002042550020C053002008E6D33314
S214005500037810B50E2B09D1054903790A789A421B
S21400551004D00B70034B06209B6F984710BDC04607
S214005520144000200C4601000C218268C36810B5A8
S214005530047840786143044C0919497A06314901D8
S2140055400919FFF742FD10BDC0530020F0B5B3B0F7
S21400555002AE0400C022002130000DF05BFF0A21DD
S21400556040F2E8320A2064236944CA871AA90880F0
S21400557022A9338033840B802AAB1A802079042832
S2140055804CD80CF0C1FF03374D5667003D4DC02286
S2140055902800310008F0D9FB40F282130722C03DF4
S2140055A0EA523949063A3948FFF703FD0123384ADB
S2140055B0E380137040F6B832E26040F2E8322261CF
S2140055C040F2D072626141F28832A26141F270729A
S2140055D00023E261621C2372D3772E4A238562621F
S2140055E022002A3213708323DB05E3622A4B2363EF
S2140055F02A4B636340F2801140F28210284B5A5ABD
S214005600185A02435A52274A1800110070C970C02F
S214005610E0C9E0C01833183213CA13C333B0F0BD64
S21400562021680029FAD040F288121D4808F08DFB48
S214005630F4E7002200200021124BB45A2032986072
S214005640D960186159619861D9611C802033C02ADD
S214005650F3D1E3E76B460025991D134B08209C6F9A
S2140056600D70A0476B46591D094B06201B785A1E25
S21400567093410B70A0476B460920D91D0D70A047BB
S214005680CCE7C046805400204255002040550020FC
S2140056901440002008E6D3339A99094040002000C1
S2140056A0C0530020104E01000C46010040F2881343
S2140056B0036001487047C046C0530020030007B58A
S2140056C008000E2920D80CF01FFF081F1F1F1F18E8
S2140056D00E181F18181F1F1F1C006A461868D11DB9
S2140056E0FFF75AFE0EBD0020052218560021FFF7D0
S2140056F024FC431E9841C0B2F4E700200722185647
S214005700F4E7024B1878F4E70020EBE7144000209B
S21400571010B50279030022B10020012A07D10448FF
S21400572001E0012203481968FFF743FC012010BD81
S2140057304255002040550020F0B585B01C000D00F5
S2140057400392031C072800DD07231B4F5EB2BC46EE
S2140057501A49B200637053580127634504D0184FA6
S214005760DB195F427B415F00A77006281ADD3220F6
S214005770FFF7FEFC22002300A17C0C3208330192C6
S2140057800093039A0023072912D12900FFF71EFD74
S2140057900123E356072B03D0A068FFF7EDFDA060BA
S2140057A005B0F0BD074B8958985DFFF7D9FCE1E7D7
S2140057B02900FFF7E3FCEBE790D00300E84D01007B
S2140057C0E05EF8FF084E0100F0B501272E4D8FB0C1
S2140057D06B680D910400C757466898470B900B9B63
S2140057E00020C3BBA37C43B922780C335343274A1B
S2140057F09A1856680EB9254A9E58254B3000DB5736
S2140058000C93EB689847AB699C46637C072F24D1C2
S21400581000200993012308900790069005930490B2
S2140058200390A36840F2E8329BB2029305230C99DA
S2140058300193184B4A4300934CF2503103006446E0
S214005840A047154B0B98D95D6B6D0D31C9B29847C3
S21400585001200D9B1F700FB0F0BDA17801260993A3
S2140058600023089607930693059304930393A26870
S214005870300092B2029208220093019233006446EE
S2140058800C9AA0470B96DCE70C460100C05300209C
S214005890084E010085450100E04D0100F0B591B0CD
S2140058A00D9201220F9182563A4B04009B56022518
S2140058B00B930C23017865574B4337495B185B7A8B
S2140058C006335B015B189B788178181C5BB2AB4291
S2140058D000DA081C012143B20C93304B9200D358D7
S2140058E02F4A0A91934205D02E4A9B185A4253419A
S2140058F08B400A93A26861680C98FFF791FC0C2312
S2140059002278294F53432449FA680E9058589047F6
S214005910FB69012200259C4640F6A073A256089318
S214005920079506950595072A25D101230493043388
S214005930029340F2E8330B9A6646534328000093DE
S21400594046F2A8120A9B0E9903950195B0472E00C1
S2140059503000217B7B6D98477B6A3000217B98471F
S2140059600D9B0D9A18600023012053600F9B0C9A24
S2140059701A7011B0F0BD0823012602930B9B2A0073
S21400598003950093300065460A9B0E99049601968F
S214005990A847DDE7084E0100C0530020E84D01008F
S2140059A090D00300E05EF8FF0C460100F0B500263C
S2140059B091B00191029204000622002106A80393EA
S2140059C00DF028FD04ABDE800725237AB34206D906
