S0190000507269766174654C6F526153616D706C652E7372656360
S1130000784C0020499B00003D7000009582000060
S11300109582000095820000958200009582000080
S113002000000000000000000000000095820000B5
S1130030958200000000000095820000270900005E
S11300400000000000000000656D000000000000DA
S113005000000000656D00000000000000000000CA
S1130060000000000000000000000000397F0000D4
S1130070000000000000000000000000000000007C
S11300800000000000000000416B000000000000C0
S1130090F96B00000000000000000000B16C0000DB
S11300A0000000000000000000000000A96B000038
S11300B000000000C96A0000000000000000000009
S10B00C000000000812A000089
S11300C830B585B00400092240F29F2001A901F04F
S11300D87DFF6B461D79002301A8AB4214D1032B85
S11300E810D869465A1C0A716A465B00210A05320F
S11300F8D1546A460632D45440F29F20092201A9F9
S113010801F0D6FE05B030BD0100427889781202AC
S1130118521802309442F5D00133DBB2DDE710B552
S1130128064C1022002120000AF02AF9044B1B78FF
S113013813B91333E372237310BDC046D456002099
S1130148F8560020F7B500255F4B604C1860604BEB
S113015840F2E8310A205D701D7007F021FA00238F
S1130168E05E290008F0B8FE40F2E831142007F0F8
S113017817FA0023E05E012108F0AEFE40F2E831F0
S11301880A2007F00DFA534C534B0122A36040F2A6
S11301980533A380514B02210520E560DA70220063
S11301A807F040FE04204E4B2360205607F064FEFF
S11301B801F058FE280002F0B1FC4A4B1B78012BD1
S11301C801D102F0E7FD484B01210020185E01250A
S11301D808F082FE6B460024D91C2A009D200D706D
S11301E802F086FC414B20001D70414B414F1C70AE
S11301F8414B424E1C70424B1C6002F08FFC6B4614
S11302082A00991C96200D7002F072FC6B4602229B
S11302189C808F2001A902F06BFC2000042103F0CC
S113022833FB4FF6FF71080008F04AFB40F6AC00B8
S1130238FFF746FF40F68900FFF742FFFFF76FFF1D
S1130248380002F0B7FB300002F0B4FB2D4B022259
S1130258FB602D4B01A9F3602C4B17201C706B46D7
S11302689C803C607C603C723C6134607460347295
S1130278346101F081FE6B465A790334511013003E
S11302882940A9402B400B439110294089000B4376
S1130298D1102940C9000B431111294009010B430E
S11302A851112940921149012A4092010B431343E9
S11302B86A4612792A401202134303B91C0008F053
S11302C8BFF92000FEBDC0463C5800200C57002052
S11302D839580020FC5600208D260000006000409C
S11302E855434900F8560020E456002012400020E7
S11302F80D580020245800200C58002010580020C5
S113030808580020852B0000A12B00003858002035
S1070400FFFFFFFFF8
S1070404F7AFC1FF8A
S1130440FF0000000B00000000000000000000009E
S113045001FF0100884E0020001001FF0000000091
S113046003000000C45B00202C40002000000000BA
S1130470C45B00202C5C0020945C00200000000081
S11304800000000000000000000000000000000068
S11304900000000000000000000000000000000058
S11304A00000000000000000000000000000000048
S10B04B0000000000000000040
S11304B844F2780044F27803C2F20000C2F2000366
S11304C810B5834205D040F20003C0F2000303B123
S11304D8984710BD44F2780044F27803C2F2000051
S11304E8C2F200031B1A9A10D90F8918491010B5C3
S11304F829B140F20003C0F2000303B1984710BDCC
S113050810B544F69044C2F20004237873B9FFF797
S1130518CFFF40F20003C0F200032BB140F20840C1
S1130528C0F2000000E000BF0123237010BDC046E4
S113053840F20003C0F2000310B54BB144F69441F5
S113054840F20840C2F20001C0F2000000E000BF1F
S1130558FFF7C0FF10BDC0460122014B1A70704757
S11305687D5800200122014B1A7070477C580020E6
S1130578064B82B21B68012A03D80022D8701A805D
S1130588704740F200421A80FAE7C046144000203F
S11305980020044B1B6803B9704701301B6800B284
S11305A8F9E7C046AC4C002010B570B1094A0A23DB
S11305B8D45E002311689C4207DD814206D111896B
S11305C80131118100215268D15410BD01331BB28D
S11305D80C31F0E76C580020002210B50260013A93
S11305E80A80074A0300106840B10468146042682E
S11305F81A600822835E0B80FFF7D6FF10BDC04641
S1130608AC4C002002001F205AB101230849086895
S1130618824207D98868824204D8054ADB009B18BD
S11306281879704701330831172BF0D11F20F8E7E8
S1130638C0BC0000034B00201B78082B01D8024AD9
S1130648D05C704712400020B4BC0000154B00B5C4
S1130658185C0A2823D80AF021FB1E161612060D68
S113066822221A161200002001230B398B42404122
S1130678C0B203E00C394B425941C8B200BD002056
S113068802230A39F2E7002003230939EEE70020A0
S113069804230839EAE7002005230739E6E70020A0
S11306A8ECE7C04658BC00004A425141094A494255
S11306B8114042F2107289180300C8430A2B07D864
S11306C8054AD35C054A9B009B58C81803B9C8431C
S11306D87047C046F0D8FFFF58BC0000D4BB0000E8
S11306E803000D48D200125830B5546802209C42C9
S11306F811D895689D420ED3D2681B1BB3FBF2F444
S113070854431D1BA34206D12800012A03D08A4260
S113071892415242500030BD14560020030000207C
S113072882B00190D1B142F20F7291420CD840F2DA
S1130738E73291420AD9013242F210700192019AC9
S1130748401AB0FBF2F0584302B0704764226329A0
S1130758F2D80A220929EFD80122EDE70121FBE7A3
S11307680200405C5118CB78000618434B781B04F0
S113077818438B781B0218437047030E8B5489184F
S1130788030C4B70030A8B70C870704770B51D005A
S11307981B23D841084E059B049C9B19C018236849
S11307A86A40C0180B68134002226B40C0182060CE
S11307B80B68D3410B6070BD9979825A5A400B6813
S11307C830B55A401B23D841064D049B039C5B1942
S11307D8C018236812189B18022223600B68D3419F
S11307E80B6030BDA1EBD96EF0B51B26F0410A4F62
S11307F8069E059CF6190D688019266880192E0036
S1130808164333402A4013430222C01820600B6861
S1130818D3410B60F0BDC046DCBC1B8F5A400B684B
S113082830B55A401B23D841064D049B039C5B19E1
S1130838C018236812189B18022223600B68D3413E
S11308480B6030BDD6C162CA030070B50F2605001F
S1130858C41E083B344033403540A4009B005B5819
S11308686458AD004D195C402B680E385C401F235A
S113087830408000405860401060D841286070BD06
S113088840F2E41201230249885C03438B54704705
S1130898DC52002040F2E41202230249885C03433C
S11308A88B547047DC5200200423024A11780B430E
S11308B813707047505100200223024A11780B43E9
S11308C813707047505100200123024A11780B43DA
S11308D8137070475051002010B5FFF7ABFE052880
S11308E807D0042801D102F071FA02F063F902F08A
S11308F8A9F910BD10B5FFF79DFE50B10438C0B278
S1130908012801D802F062FA02F054F9002002F03A
S113091897FA10BDEFF31083036072B670477047FF
S11309280379012B01D1014A13707047C850002084
S1130938002382B00193054BDB88C01A1E2380B2C2
S113094843430193019880B202B07047FE260A40DF
S113095810B5042401210748074B82791975A2436D
S1130968827100220020197000211A619860D960F0
S11309789A8310BD00380A40405800200200811CA8
S1130988002010B51378000184B218003038C0B2C2
S1130998092805D918006138052806D8573BD8B264
S11309A8013220439142EDD110BD18004138052889
S11309B801D8373BF3E74FF6FF70F5E7F0B50023AE
S11309C80500CC5CA44626093400674630349F2FC2
S11309D800D907340F262C70CC5C344026003036FE
S11309E8092C01D93734260001339CB26E700235C4
S11309F89442E6D30023520092B28354F0BDF0B57A
S1130A0887B003900191029213B9042007B0F0BD96
S1130A18019A54009C42F8DB00252E00E41A24B203
S1130A2805AFD4B9029A6B1C525D1DB23A7000240A
S1130A38029B6A1C5B5715B238007B70FFF79EFF58
S1130A484FF6FF739842E0D0039B98550136019BFB
S1130A5836B2B342E5DC0020D8E73023A4B23B70B9
S1130A68012CE4D0023C302324B2E5E7030030B57E
S1130A7871B141180A24002000229A566043303A82
S1130A88D5B2092D04D8013310188B42F4D130BDE6
S1130A9801204042FBE70000054B00201B78012B96
S1130AA804D1044B187843425841C0B27047C04639
S1130AB8804D0020B050002030B585B0FFF768FDA8
S1130AC8C0B20424012819D16B469D1D290002A82F
S1130AD8FFF782FD21002B88029A03A8FFF78FFFF6
S1130AE8040058B943F20012039B06491BBA1A4082
S1130AF80A60CC2212061340034A5360200005B052
S1130B0830BDC046E84C0020705100200122024B41
S1130B1829331A707047C046F84C002010B5034BAF
S1130B281B689B780BB109F0CBFE10BD1440002064
S1130B38F0B50A0085B020B1012839D0002005B0ED
S1130B48F0BD4B490B00EC331C680B00BA33188812
S1130B580B00BF331B78C1315D1EAB410978C00857
S1130B6801391B18481E814149008918DB001833D4
S1130B78C900591840F2E8334B43621E9B1841F6EA
S1130B885732B3FBF4F3012094420FD840F6B7323E
S1130B98001894420AD840F2CF720130944205D822
S1130BA840F2E7320430944200D90238C018C6E74C
S1130BB82F4B00201900F931097801900A2902D82D
S1130BC82C48415C01911900F8310E781900C431A0
S1130BD818000F881900FA331B78C6310433C8305B
S1130BE8097804780393731F012B04D83B1C0C2F3A
S1130BF800D20C239FB2631E9C41D2002401A41886
S1130C084A4251411423B50049420B40641BE4187D
S1130C18B31E0293062E07D9310001980834FFF752
S1130C2815FD08B1B31E9D00E343DB171C4064198E
S1130C38013C94FBF5F5039B6B43DA1913000E335F
S1130C48062E00D9023B0C4A0199525C0A2A0ED896
S1130C580A49920052589B00029901338B4040F292
S1130C68E8305843531EC018B0FBF2F067E7FFDEC4
S1130C780C57002020BC000058BC00002CBC00000D
S1130C88084B02001978012051B10018042907D82B
S1130C98191DC97F21B908000133DA77024B9A7408
S1130CA87047C046DC520020F84C0020084B020074
S1130CB81978012051B10018042907D8191DC97FD2
S1130CC821B91B180800DA77024BDA747047C0465A
S1130CD8DC520020F84C0020084A03001178012057
S1130CE859B10018042908D814210332D377044AC7
S1130CF85156994200D0137500207047DC520020E9
S1130D08F84C0020084A03001178012051B100185A
S1130D18042907D82C321370044A917D994200D0D3
S1130D28937500207047C046DC520020F84C002020
S1130D38F0B50D00ADB0039000212800FFF710FDB9
S1130D480421070017902800FFF70AFD0821060070
S1130D5818902800FFF704FD0C21040019902800BE
S1130D68FFF7FEFC102107901A902800FFF7F8FC03
S1130D78142108901B902800FFF7F2FC1821099011
S1130D881C902800FFF7ECFC1C210A901D902800F9
S1130D98FFF7E6FC20210B901E902800FFF7E0FCEB
S1130DA824210C901F902800FFF7DAFC28210D90CD
S1130DB820902800FFF7D4FC2C210E9021902800C5
S1130DC8FFF7CEFC30210F9022902800FFF7C8FCD3
S1130DD83421109023902800FFF7C2FC3821119089
S1130DE824902800FFF7BCFC3C2112902590280091
S1130DF8FFF7B6FC039B13909B68269005932793F3
S1130E08039B28A9DB6814932893039B1B69049309
S1130E182993039B5B6906932A93039B049A9B6912
S1130E28059815932B932BAB01970093069BFFF71B
S1130E38ADFC289D2AAB2A002B980196009327A97C
S1130E48049BFFF7A3FC279E019429AC2B003200D6
S1130E582A982BA90094FFF799FC079B2B9D0193D3
S1130E6828AB2A00299800932AA93300FFF78EFC9F
S1130E78089B2A9E019327AB3200210028980093EF
S1130E882B00FFF783FC099B299D01932BAB2A00B8
S1130E982798009328A93300FFF778FC0A9B289E1B
S1130EA801932AAB32002B98009327A92B00FFF754
S1130EB86DFC279D0B9B2A002A9801932BA93300CC
S1130EC80094FFF763FC0C9B2B9E019328AB320024
S1130ED8299800932AA92B00FFF758FC0D9B2A9DFB
S1130EE8019327AB2A002100289800933300FFF7C9
S1130EF84DFC0E9B299E01932BAB3200279800933F
S1130F0828A92B00FFF742FC0F9B289D01932AABCD
S1130F182A002B98009327A93300FFF737FC279E54
S1130F28109B32002A9801932BA92B000094FFF7F9
S1130F382DFC119B2B9D019328AB2A002998009323
S1130F482AA93300FFF722FC129B2A9E019327ABA0
S1130F5832002100289800932B00FFF717FC139BFD
S1130F68299D01932BAB2A002798009328A93300C5
S1130F78FFF70CFC16AA17A910202B9E289FFFF731
S1130F8863FC2AAB3A000190009330002B0027A998
S1130F98FFF7FCFB16AA17A911202A9D279E289F54
S1130FA8FFF752FC3B00320001902BA92800009463
S1130FB8FFF7ECFB16AA17A91220299D2B9E279F41
S1130FC8FFF742FC28AB32000190009328003B0055
S1130FD82AA9FFF7DBFB16AA17A91320289D2A9E26
S1130FE82B9FFFF731FC27AB3200210001900093BF
S1130FF828003B00FFF7CAFB16AA17A91420279D4F
S1131008299E2A9FFFF720FC2BAB32000190009306
S113101828003B0028A9FFF7D1FB16AA17A9152019
S11310282B9D289E299FFFF70FFC2AAB32000190C5
S1131038009328003B0027A9FFF7C0FB16AA17A9AD
S113104816202A9D279E289FFFF7FEFB3B003200AF
S113105801902BA928000094FFF7B0FB16AA17A942
S11310681720299D2B9E279FFFF7EEFB28AB320004
S11310780190009328003B002AA9FFF79FFB16AABA
S113108817A91820289D2A9E2B9FFFF7DDFB27AB65
S1131098320021000190009328003B00FFF78EFBEB
S11310A816AA17A91920279D299E2A9FFFF7CCFB6A
S11310B82BAB32000190009328003B0028A9FFF7CE
S11310C87DFB16AA17A91A202B9D289E299FFFF796
S11310D8BBFB2AAB32000190009328003B0027A9F0
S11310E8FFF76CFB16AA17A91B202A9D279E289F89
S11310F8FFF7AAFB3B00320001902BA928000094BB
S1131108FFF75CFB16AA17A91C20299D2B9E279F75
S1131118FFF79AFB28AB32000190009328003B00AC
S11311282AA9FFF74BFB16AA17A91D20289D2A9E5A
S11311382B9FFFF789FB27AB320021000190009316
S113114828003B00FFF73AFB16AA17A91E20279D83
S1131158299E2A9FFFF778FB2BAB3200019000935E
S113116828003B0028A9FFF729FB16AA17A91F2066
S11311782B9D289E299FFFF767FB2AAB320001901D
S1131188009328003B0027A9FFF718FB16AA17A904
S113119820202A9D279E289FFFF756FB3B003200FC
S11311A801902BA928000094FFF708FB16AA17A999
S11311B82120299D2B9E279FFFF746FB28AB320051
S11311C80190009328003B002AA9FFF7F7FA16AA12
S11311D817A92220289D2A9E2B9FFFF735FB27ABB2
S11311E8320021000190009328003B00FFF7E6FA43
S11311F816AA17A92320279D299E2A9FFFF724FBB7
S11312082BAB32000190009328003B0028A9FFF77C
S1131218D5FA16AA17A924202B9D289E299FFFF7E3
S113122813FB2AAB32000190009328003B0027A946
S1131238FFF7C4FA16AA17A925202A9D279E289FD6
S1131248FFF702FB3B00320001902BA92800009411
S1131258FFF7B4FA16AA17A92620299D2B9E279FC3
S1131268FFF7F2FA28AB32000190009328003B0004
S11312782AA9FFF7A3FA16AA17A92720289D2A9EA8
S11312882B9FFFF7E1FA27AB32002100019000936E
S113129828003B00FFF792FA16AA17A92820279DD1
S11312A8299E2A9FFFF7D0FA2BAB320001900093B6
S11312B828003B0028A9FFF797FA16AA17A929209E
S11312C82B9D289E299FFFF7BFFA2AAB3200019075
S11312D8009328003B0027A9FFF786FA16AA17A946
S11312E82A202A9D279E289FFFF7AEFA3B0032004A
S11312F801902BA928000094FFF776FA16AA17A9DB
S11313082B20299D2B9E279FFFF79EFA28AB32009E
S11313180190009328003B002AA9FFF765FA16AA52
S113132817A92C20289D2A9E2B9FFFF78DFA27ABFF
S1131338320021000190009328003B00FFF754FA83
S113134816AA17A92D20279D299E2A9FFFF77CFA04
S11313582BAB32000190009328003B0028A9FFF72B
S113136843FA16AA17A92E202B9D289E299FFFF71A
S11313786BFA2AAB32000190009328003B0027A99E
S1131388FFF732FA16AA17A92F202A9D279E289F0D
S1131398FFF75AFA3B00320001902BA92800009469
S11313A8FFF722FA16AA17A93020299D2B9E279FFA
S11313B8FFF74AFA28AB32000190009328003B005B
S11313C82AA9FFF711FA16AA17A93120289D2A9EDF
S11313D82B9FFFF739FA27AB3200210001900093C5
S11313E828003B00FFF700FA16AA17A93220279D08
S11313F8299E2A9FFFF728FA2BAB3200019000930D
S113140828003B0028A9FFF7EFF916AA17A93320EB
S11314182B9D289E299FFFF717FA2AAB32000190CB
S1131428009328003B0027A9FFF7DEF916AA17A99D
S113143834202A9D279E289FFFF706FA3B00320096
S113144801902BA928000094FFF7CEF916AA17A932
S11314583520299D2B9E279FFFF7F6F928AB3200EC
S11314680190009328003B002AA9FFF7BDF916AAAA
S113147817A93620289D2A9E2B9FFFF7E5F927AB4D
S1131488320021000190009328003B00FFF7ACF9DB
S113149816AA17A93720279D299E2A9FFFF7D4F952
S11314A82BAB32000190009328003B0028A9FFF7DA
S11314B89BF916AA17A938202B9D289E299FFFF768
S11314C8C3F92AAB32000190009328003B0027A9F6
S11314D8FFF78AF916AA17A939202A9D279E289F5B
S11314E8FFF7B2F93B00320001902BA928000094C1
S11314F8FFF77AF916AA17A93A20299D2B9E279F48
S1131508FFF7A2F928AB32000190009328003B00B2
S11315182AA9FFF769F916AA17A93B20289D2A9E2C
S11315282B9FFFF791F927AB32002100019000931C
S113153828003B00FFF758F916AA17A93C20279D55
S1131548299E2A9FFFF780F92BAB32000190009364
S113155828003B0028A9FFF761F916AA17A93D201E
S11315682B9D289E299FFFF76FF92AAB3200019023
S1131578009328003B0027A9FFF750F916AA17A9DA
S11315883E202A9D279E289FFFF75EF93B003200E4
S113159801902BA928000094FFF740F916AA17A96F
S11315A83F20299D2B9E279FFFF74EF928AB320039
S11315B80190009328003B002AA9FFF72FF916AAE7
S11315C817A94020289D2A9E2B9FFFF73DF927AB9A
S11315D8320021000190009328003B00FFF71EF918
S11315E816AA17A94120279D299E2A9FFFF72CF99F
S11315F82BAB32000190009328003B0028A9FFF789
S11316080DF916AA17A942202B9D289E299FFFF79A
S11316181BF92AAB32000190009328003B0027A94C
S1131628FFF7FCF816AA17A943202A9D279E289F8E
S1131638FFF70AF93B00320001902BA92800009417
S1131648FFF7ECF816AA17A94420299D2B9E279F7B
S1131658FFF7FAF828AB32000190009328003B000A
S11316682AA9FFF7DBF816AA17A94520289D2A9E60
S11316782B9FFFF7E9F827AB320021000190009374
S113168828003B00FFF7CAF816AA17A94620279D89
S1131698299E2A9FFFF7D8F82BAB320001900093BC
S11316A828003B0028A9FFF7B9F816AA17A947206C
S11316B82B9D289E299FFFF7C7F82AAB320001907B
S11316C8009328003B0027A9FFF7A8F816AA17A932
S11316D848202A9D279E289FFFF7B6F83B00320032
S11316E801902BA928000094FFF798F816AA17A9C7
S11316F84920299D2B9E279FFFF7A6F828AB320087
S11317080190009328003B002AA9FFF787F816AA3E
S113171817A94A20289D2A9E2B9FFFF795F827ABE7
S1131728320021000190009328003B00FFF776F86F
S113173816AA17A94B20279D299E2A9FFFF784F8EC
S11317482BAB32000190009328003B0028A9FFF737
S113175865F816AA17A94C202B9D289E299FFFF7E8
S113176873F82AAB32000190009328003B0027A9A4
S1131778FFF754F816AA17A94D202A9D279E289FDB
S1131788FFF762F83B00320001902BA9280000946F
S1131798FFF744F816AA17A94E20299D2B9E279FC8
S11317A8FFF752F828AB32000190009328003B0061
S11317B82AA9FFF733F816AA17A94F20289D2A9EAD
S11317C82B9FFFF741F827AB3200019000932800C4
S11317D83B002100FFF722F80020059A279B9B185D
S11317E8039A9360149A289B9B18039AD360049ACB
S11317F8299B9B18039A1361069A2A9B9B18039AA0
S11318085361159A2B9B9B18039A93612DB0F0BDD5
S113181810B5094B012806D1084AC733117019704D
S113182806F0E4FF10BD1A00BF321278002AF9D17D
S1131838024AC0331170F2E70C570020114000200F
S113184810B5044B1420185E07F038FB0128F8D0B3
S113185810BDC0460C57002070B5074D0C002B78FE
S113186806223BB10232054909F034F8062208B9C8
S113187802002560100070BDCC520020CD5200201B
S1131888002373B5214D04002E780C200193D6B99A
S11318982378012B18D0022B22D007384BB9201DEE
S11318A801A9FFF7D9FF20B9FB22237B0236134095
S11318B82B712B000022F8331A6020B9019BDA68D7
S11318C8E2B9DD602E7076BD201D01A9FFF7C4FFC3
S11318D80028EED1FB22237B032613402B71E8E773
S11318E8201D01A9FFF7B8FF0028E2D10426237BB5
S11318F8DBB2B3432B712369AB60DAE71300F83228
S11319081268002AFAD1F8331D60DBE77851002009
S1131918134B37B51B780400012093B10018042B2E
S11319280FD87CB1200008F039FB200001A9FFF78B
S113193893FF040020B9019DE86808F03FFB2C7070
S113194800203EBD5821074806F072FEFC210648D7
S113195806F06EFE1021054806F06AFEF0E7C04660
S1131968DC5200207452002078510020CC52002010
S113197810B5204C23006A331A78230044331878AE
S113198852070138520F082812D809F087F91C1C8D
S113199805121416181A2B000023012A15D0032A3D
S11319A820D00023443414211348237006F040FE49
S11319B810BD0223F1E70323EFE70523EDE7062330
S11319C8EBE70723E9E70423E7E70C49A26E0A409B
S11319D80B498A42E5D040F270120A48A35463685E
S11319E89847DEE740F26C13E35C002BD9D0054836
S11319F8E368F5E7DC52002048540020FF0080002B
S1131A08110080004C54002010B5212006F004FC7D
S1131A181D2006F001FC10BD10B5212006F020FAA7
S1131A281D2006F01DFA10BDF7B507000C000025AF
S1131A38C9B3354E01A8FEF76DFF3278531CDBB2EB
S1131A4833700AB9FFF7E0FF019B83F31088092F6D
S1131A5836D8380009F022F9050A292D31393F43CF
S1131A6847512278294B1A7001250FE016250422C4
S1131A78210001A808F04DFF019A254B19689142ED
S1131A883FD0013DADB20833002DF7D101A8FEF7D0
S1131A9841FF3378013BDBB233700BB9FFF7BCFF6E
S1131AA8019B83F310882800FEBD2278174B1A7215
S1131AB8DAE72278154B5A72D6E723782F2B01D907
S1131AC80025E3E7114AD372CEE723782F2BF7D802
S1131AD80E4A1373C8E722780C4B5A73C4E722786A
S1131AE80A4B9A72C0E7094D2378AF7BAB7306F0B3
S1131AF8A7FD0028B8D1AF73E2E72278034BDA7365
S1131B08B2E7024B5A60AFE768580020D456002069
S1131B18C0BC0000F7B507000C00002679B3254DBA
S1131B2801A8FEF7F7FE2A78531CDBB22B700AB91A
S1131B38FFF76AFF019B83F310880026092F11D849
S1131B48380009F0ABF805091E2124272A2D303363
S1131B58194B1B78237004E004222000174908F06D
S1131B68D8FE012601A8FEF7D5FE2B78013BDBB28F
S1131B782B700BB9FFF750FF019B83F310883000DB
S1131B88FEBD0D4B1B7AE5E70B4B5B7AE2E70A4B8C
S1131B98DB7ADFE7084B1B7BDCE7074B5B7BD9E78A
S1131BA8054B9B7AD6E7044B9B7BD3E7024BDB7B45
S1131BB8D0E7C04668580020D4560020D8560020E4
S1131BC873B5184D060001A80C00FEF7A3FE2A7889
S1131BD8531CDBB22B700AB9FFF716FF019B83F382
S1131BE81088114B042E14D0052E18D0083307CCB6
S1131BF807C306CC06C301A8FEF78CFE2B78013B6D
S1131C08DBB22B700BB9FFF707FF019B83F3108836
S1131C1873BD1C3307CC07C307CC07C3EBE72268A3
S1131C285A60E8E7685800207856002073B51C4DC0
S1131C38060001A80C00FEF76DFE2A78531CDBB2DF
S1131C482B700AB9FFF7E0FE019B83F31088154B4C
S1131C58042E1AD0052E1FD0032E0FD01B78237004
S1131C6801A8FEF757FE2B78013BDBB22B700BB9AA
S1131C78FFF7D2FE019B83F3108873BD220008335B
S1131C8843CB43C203CB03C2EAE722001C3343CB52
S1131C9843C213CB13C2E3E75B682360E0E7C046A3
S1131CA86858002078560020F7B5214D01A8FEF7A2
S1131CB831FE2A78531CDBB22B700AB9FFF7A4FE55
S1131CC8019B83F310881B4B1E681B4B9A889988C9
S1131CD897B28A42FAD101A8DC7AFEF71BFE2B7868
S1131CE8E4B2013BDBB22B700BB9FFF795FE019B05
S1131CF883F3108847F6FE739F4202D8E40700D5A1
S1131D08103645F65E737B430193019B0B4A300002
S1131D18B3FBF2F30193019C40F2E8320023002163
S1131D2808F0D0FF220000238018594103B0F0BD09
S1131D3868580020C450002000380A40A0860100DA
S1131D4810B5FFF7B1FF1022034B9860D9601978DA
S1131D580A431A7010BDC04650510020F8B515004A
S1131D6807000E001C00FFF79FFF0822054B986030
S1131D78D96019781F610A439E82DD821C761A7025
S1131D88F8BDC0465051002010B5FFF78DFF0B0079
S1131D980A4902008868C968994202D809D1904260
S1131DA807D9121A8B4101204042C11780185941A2
S1131DB810BD121A8B4110001900F9E74058002091
S1131DC807B56B46D87107330121180007F03EF8B0
S1131DD807BD0000F0B5214C87B0019005A81F008D
S1131DE803920291FEF796FD2278531CDBB223700E
S1131DF80AB9FFF709FE059B83F31088184D0021E3
S1131E082B00A4330020185E07F066F80026019B17
S1131E18985D06F063FD0136029AB3B29A42F6D889
S1131E28039EF719BE4214D1A4350023E85E0121AC
S1131E3807F052F805A8FEF76DFD2378013BDBB2E5
S1131E4823700BB9FFF7E8FD059B83F3108807B0EF
S1131E58F0BD307806F042FD0136E3E7685800200B
S1131E680C570020C02307B501A8038000231A00DB
S1131E780221FFF7AFFFFFF7E3FC07BD10B50A4BDC
S1131E881A78082A0DD840F241130124D34023427A
S1131E9807D0FFF7E7FF054B21000020185E07F085
S1131EA81BF8FFF7CDFC10BD12400020E4560020BB
S1131EB80D2373B50D00160001AC2370030A63707B
S1131EC8A070FFF7DBFF33002A0003212000FFF78F
S1131ED881FFFFF7B5FC73BDF0B5254D87B00190C0
S1131EE805A81F0003920291FEF714FD2A78531CDB
S1131EF8DBB22B700AB9FFF787FD059B83F31088C3
S1131F081C4E00213300A4330020185E06F0E4FFC1
S1131F180024019B185D06F0E1FC0134029AA3B287
S1131F289A42F6D8002006F0D9FC039CC3B2019368
S1131F38E719BC4215D1A4360023F05E012106F04E
S1131F48CBFF05A8FEF7E6FC2B78013BDBB22B7030
S1131F580BB9FFF761FD059B83F31088019807B05F
S1131F68F0BD002006F0BAFC20700134E1E7C04659
S1131F78685800200C57002073B56B4615000C00F8
S1131F88DE1DD871FFF77AFF2B00220001213000F3
S1131F98FFF7A2FF0400FFF753FC200076BD000002
S1131FA813B501AC012221001520FFF7E5FF064B0C
S1131FB822781B7852085BB29B1A181C803301DA0A
S1131FC84FF6807000B216BDD45600201D2373B599
S1131FD80D00160001AC2370030A6370A070FFF7AC
S1131FE84DFF33002A0003212000FFF775FFFFF798
S1131FF827FC73BD030070B572B6BFF34F8FBFF3F0
S11320086F8F0079082809D888B3013807282ED893
S113201808F044FE706E2D0D2D2D2D0B0300EF22BC
S1132028103B134201D0402821D1334B53E09C6824
S1132038324B1B785BB2D3B10623314AD356012BFA
S113204815D00223D05E0023D15E0425525F431CC1
S113205893FBF2F56A439B1A1BB2E4B28B420CD190
S1132068082C04D106F09EFC2000FEF757FD62B64A
S1132078BFF34F8FBFF36F8F70BD2300613B192BE4
S113208805D8203CE4B2200006F072FC29E00A2CB2
S113209806D00D2C18D0082C1FD0202CE7D0F2E73E
S11320A8200006F065FC2000164CFEF737FD237867
S11320B8002BDCD006F076FC06F074FC0122124BEF
S11320C81A7000232370D2E7200006F051FC200088
S11320D8FEF724FD0B4B012208E0884204D006F0E9
S11320E861FC2000FEF71AFD0022064B1A70BEE7B9
S11320F8064BF0E7064BEEE7FC500020C0500020EA
S1132108B4500020B1500020B0500020C15000202D
S1132118FD50002007B508220549064808F0F9FBD8
S11321280120002101AA05F095FD00200EBDC0463E
S113213828AD0000F84C002010B5044B186820B1F5
S113214802681A60FEF730FAF7E710BDAC4C0020BD
S113215807B5064B01A91B7840BA088023B90222A7
S113216840F2BC60FFF7A4FE07BDC0460D5800202E
S113217807B5064B01A91B7840BA088023B9022287
S113218840F2BE60FFF794FE07BDC0460D5800201C
S113219803688BB11B78052B0ED143680020074ACE
S11321A818609A60064A5860DA60064A1A61064A54
S11321B85A61064A9A6170470548FCE70123456756
S11321C889ABCDEFFEDCBA9876543210F0E1D2C375
S11321D800AFFFFFF7B5036815000091002B3AD054
S11321E81B78052B37D144689AB33F2623681E40D1
S11321F8D31823609A4202D9636801336360B6B185
S11322084027BF1BBD4212D323001C3300993A0058
S11322189819019308F07DFB20000199FEF788FDC9
S1132228C0B9403DAD190600009BDB1900932F008F
S113223804E02000FEF77CFD60B9403F009B59197B
S1132248C91B3F2FF5D827B11C343A00A01908F050
S113225860FB0020FEBD0148FCE7C04600AFFFFF5D
S1132268F8B503680E00002B59D01B78052B56D1FE
S113227844683F22270023681C371340581C413206
S1132288E3181A77382839D80021483A121A381826
S113229808F076F8256860686B0FC0001843382288
S11322A83900FEF76AFAE8003C223900FEF765FABD
S11322B839002000FEF73CFD0500C0B902003100DA
S11322C8A068FEF75AFA04223100E068FEF755FACE
S11322D8082231002069FEF750FA0C2231006069A7
S11322E8FEF74BFA10223100A069FEF746FA5C2289
S11322F80021200008F044F82800F8BD40220021FD
S1132308121A381808F03CF839002000FEF710FDBE
S113231805000028EBD1010038223800B8E7014D48
S1132328EAE7C04600AFFFFF10B5FEF783F90428BB
S113233807D0052801D100F049FD00F03BFC00F06E
S11323488BFC10BD70B50A4D2B1DDC7F64B1FEF704
S1132358D1FA012006F07CF8040008B1FFF7E4FF85
S1132368042320002B7070BDFFF7DEFF0323F8E77A
S1132378DC5200200A4A10B51478030001200B2C03
S11323880CD0147A03309C4208D91030584353684F
S11323981A181B5C04200BB100200A6010BDC0464B
S11323A8044000200D4B37B514001A7805000123AA
S11323B808000B2A0DD001A9FFF7DCFF030040B980
S11323C8019A117CA94206D9D068916868434018DB
S11323D8206018003EBD0423FBE7C04604400020EB
S11323E873B50E0001A915001C00FFF7C3FF30B92F
S11323F8019B1A7832705A782A705B68236076BD1C
S1132408F0B51B4C85B0A31CDF7F6B469D1DDE1DFC
S11324182A0002AB31003800FFF7E2FF03000D2069
S113242813BB631C3900D87F03AAFFF7BBFFE8B9C5
S11324382300327848331A7023002A7850331A70EC
S1132448029BE21C6365039BE3642300D27F583339
S11324581A70084B1B780B2B06D02300FF22593324
S11324681A7042F21073E36505B0F0BD0E20FBE765
S1132478DC52002004400020F0B51B4C85B0A31C9E
S1132488DE7F6B466A46DF1D3900300002AB063238
S1132498FFF7A6FF0D2510BB631C3100D87F03AAE4
S11324A8FFF780FF0500E8B940F280133A7830005E
S11324B8E2546B469A7940F28813E254029A043340
S11324C8E250039A083BA16AE25006F087FA074BE8
S11324D81B780B2B03D040F2A413FF22E2542800EC
S11324E805B0F0BD0E25FAE7DC52002004400020B8
S11324F8F8B5144E050033780124D3B12419042BFC
S113250817D868B9371DFD773378022B13D9FFF72D
S113251819FF040078B10023FB77FFF713FF08E0E5
S1132528FFF7AAFF040020B9FFF76AFF0400002898
S1132538E8D02000F8BD044B5A7DAA4200D05D754E
S11325480024F6E7DC520020F84C002010B5084BB4
S11325580C001B79062243B10232064908F0BAF985
S1132568062210B9044A22600200100010BDC046B9
S1132578745200207C52002078520020042307B5AE
S113258818B101A9FFF7E2FF030018000EBD00000F
S1132598EFF31080012383F31088064B196819B9E7
S11325A8054A1170403111701A6801321A6080F3BB
S11325B8108870474C51002040030A4070B50D0044
S11325C814002800A1B206F041FC0028F9D120002B
S11325D870BD0000114BF7B518780D0091B2C140D9
S11325E800270F4C0F4E019180202770800237700E
S11325F8217859B10199DD61196294B22800A1B218
S113260806F024FC0028F9D12000FEBD3178002909
S1132618EAD101380028EBD1E6E7C046D0500020C3
S1132628FD500020FC500020054B012800D1186003
S11326381A68D20702D51A68104318607047C04652
S113264848510020044B10B51B68DB0702D5022053
S1132658FFF7EAFF10BDC0464851002010B572B616
S1132668BFF34F8FBFF36F8FFFF7ECFF0122044BCB
S11326781A7062B6BFF34F8FBFF36F8F10BDC04699
S11326883858002010B5FFF7E9FF10BDF0B5644EC7
S113269887B00191B388B1889AB28B42FAD145F6D2
S11326A85E7353430593059B5E4A5F4CB3FBF2F399
S11326B80593059B277802283ED09AB2039202928A
S11326C8032860D000231D00012F21D12375FFF7B3
S11326D8EBFA019B029A236143F680639B1A019AE1
S11326E89BB2A060E160A3830AB900230FE043F61C
S11326F87F62019991421CD80A008B4219D904239C
S1132708039923708C466B4662449B882261012599
S11327182269002A50D1B37904329343B371072351
S11327282370237D002B00D16FE0012323752370D0
S113273868E002232370D8E7022F0BD1A28B236908
S11327489B1A01252361394B22699A420ED9002329
S113275823610BE0032F03D12369354A9B18F0E763
S1132768043F0025022FEED82561013543F67F6228
S11327782369934203D804229BB22270C8E7032337
S113278823700023C4E7052F11D12369039A9342C8
S11327980AD9029A01259B1A40F2D0729BB293423D
S11327A8B6D804222270B3E7002323619DE7062FDD
S11327B8FAD000231D00ABE7217804291FD1B27990
S11327C88A43B27140F2D072934204D9052323702C
S11327D801235B420CE0062121709342F8D0642265
S11327E8DB03B3FBF2F35A3A0533B3FBF2F39BB2C0
S11327F873801B23F372B279173B1343B3712378A5
S1132808072B8ED0280007B0F0BDA36903B1984701
S11328181020FFF709FF2378072BF3D185E7C0467B
S113282800380A40A0860100405800200000FFFF3D
S113283880C1FFFF002210B5044B04681A70FEF72C
S113284887F821000120FFF721FF10BD6058002000
S1132858F0B587B0040005A8FEF75CF83F490A788C
S1132868531CDBB20B700AB9FFF7CEF8059B83F350
S113287810887CB33A4E37683D00002D3AD163681E
S113288825722360FFB13B7A002B37D0FFF77CFA1F
S11328982B003A6800920193A94203D1824201D9DC
S11328A80090019500980199121A8B4100920193A6
S11328B8019B256813B9009BAB4223D9009B5D1B80
S11328C800233D603B72012320002761237234609A
S11328D8FFF7B0FF05A8FEF71DF8204A1378013B5F
S11328E8DBB213700BB9FFF797F8059B83F31088D5
S11328F807B0F0BDAC42EDD02D69BEE73B68019549
S11329080093D5E73E692EB9009BED1A25603C611A
S11329182661DFE73268019B0098019912184B4140
S11329280BB9954208D2009B009AEB1A23603368CE
S11329389B185B1B3360EAE7316921B9AD1A25603E
S113294834612161C6E708683700029000200390CB
S11329580E000298039900920193DFE7685800205B
S11329686458002070B5124C236843B10022012535
S11329781A601A720023206858B903B1206070BD28
S1132988C1682B00026911B122608847F2E7100080
S1132998F2E70268002AF3D03BB9037A002BEED1A0
S11329A801230372FFF746FFE9E72060F5E7C04615
S11329B864580020F7B52E4D040001A8FDF7AAFFBE
S11329C82A78531CDBB22B700AB9FFF71DF8019B58
S11329D883F31088274E336803B16CB901A8FDF757
S11329E899FF2B78013BDBB22B700BB9FFF714F876
S11329F8019B83F31088F7BDA3422DD1237A0BB32F
S1132A08FFF7C2F98C460021276821722469ACB10A
S1132A183A0034600B003E000F00614502D1824247
S1132A2800D90600921BBB411100236820005B18E3
S1132A38236001232372FFF7FDFECFE73460FDF71F
S1132A4887FFCBE723692BB1216833601A685218D2
S1132A581A60C3E73360C1E71A001B69002BBDD0B5
S1132A689C42F9D1236921681361002BEED1B5E7A3
S1132A78685800206458002010B5154CE37A5B07A9
S1132A8808D51B2300210320E372FFF7FFFD08B9D3
S1132A98FDF75EFFE37ADB0719D51E234FF6F072C4
S1132AA8E372A388A08899B28342FAD19142F8D8F4
S1132AB8084A136810331360074B1B78012B06D997
S1132AC800210220FFF7E2FD08B9FDF741FF10BD20
S1132AD800380A40C450002040580020034B01200D
S1132AE81B6810B503B1984710BDC046CC500020F0
S1132AF837B56B460C001500D871FFF7BFF9684667
S1132B082B00220001210730FFF764F96B46DB79BB
S1132B18842B01D0FEF794FE37BD00001FB56B4629
S1132B28D8711348FFF746FF1248FFF743FF6B4677
S1132B380122D91D8020FFF7DBFF6B46DA790E4BA3
S1132B489AB9013269461A70202393200B7303A99A
S1132B58FFF7CEFF01236A465B429381022203A951
S1132B681000FFF7C5FF05B000BD02221A70F1E797
S1132B78245800201058002012400020002010B5CE
S1132B88FFF7CCFF034B1B6813B15B6803B198478D
S1132B9810BDC0463C580020002010B5FFF7BEFF0A
S1132BA8034B1B6813B1DB6803B1984710BDC046DB
S1132BB83C58002010B5024B987AFFF7AFFF10BDC0
S1132BC8D4560020002213B51100041CC020FFF7BE
S1132BD8D3F960231840202802D00020FFF79EFF75
S1132BE8134B00210020185E06F076F96B46A20705
S1132BF8D91D6307DB0FD20F52009B001343E20772
S1132C08D20F1343842001220B70FFF771FF0421B4
S1132C180B00084A2340214202D00023137013BD3D
S1132C2808211170044A1370044A1360044AF5E732
S1132C38E4560020124000200C58002008580020B8
S1132C480D58002010B50420FFF7BCFF40F2E8310E
S1132C58022004F0A5FC10BD10B50020FFF7B2FF58
S1132C6840F2E831022004F09BFC10BD07B5104B7C
S1132C7801A9984206D90F4B0B8002229820FFF72E
S1132C8837FF07BD0C4B984201D90C4BF4E70C4BAA
S1132C98984201D90B4BEFE70B4B984201D90B4BE8
S1132CA8EAE70B4B9842E8D946F66B73E4E7C0466B
S1132CB800E9A435E1E9FFFF80F8A932D7DBFFFF7B
S1132CC88044E52DC1C5FFFF000B6B1B7581FFFF19
S1132CD840FC541937B5104B104D18602B7804007C
S1132CE81BB9FFF7C3FF01232B7043F60951B4FB4B
S1132CF8F1F20B0041F684605343E31A9B031B185B
S1132D08B3FBF1F392039B181BBA0422862001A992
S1132D180193FFF7EDFE37BD085800200C5800203A
S1132D2813B5064B04005B7B23B1019001A9052070
S1132D38FEF746FF2000FFF7CDFF13BDD456002051
S1132D4807B56B46D91D044B0870187001228A20F8
S1132D58FFF7CEFE07BDC0460D58002013B50B4B38
S1132D681B788BB96B460122094CD91D80200A7047
S1132D78FFF7BEFE40F61110E17A00F05CF840F669
S1132D881210217B00F057F813BDC046F8560020F6
S1132D98D456002007B50C4B0422972001A90193AF
S1132DA8FFF7A6FE00236A460720938001A90222A2
S1132DB8FFF79EFE7F236A468920137101A9012229
S1132DC8FFF796FE07BDC0460200028037B5124DD4
S1132DD8287808281AD10022104B01245A701A7036
S1132DE86B462200D91D95300C70FFF781FE0C4B01
S1132DF81B78A34201D1FFF7CDFF6B460122991D31
S1132E0896200C70FFF774FE2C7037BD0028FCD197
S1132E18FFF784FEF9E7C046124000203958002025
S1132E28F856002007B56B46D971073301221900FB
S1132E38FFF73EF807BD10B5FFF7F4FF10BD00001B
S1132E4810B504000B4B1870587000F015F854B105
S1132E58342140F24070FFF7E5FF442140F241700D
S1132E68FFF7E0FF10BD142140F24070FFF7DAFFCE
S1132E782421F3E739580020012010B5FFF760FF3B
S1132E88044B18785A78824202D05870FFF7D8FF5A
S1132E9810BDC0463958002010B5012806D00020BE
S1132EA8FFF74EFF0022034B5A7010BDFFF7E4FFF3
S1132EB8FBE7C04639580020052213B504000B4B24
S1132EC80B481A70FFF776FD942140F6AC00FFF723
S1132ED8A9FFFFF743FF01A9230C0B700322230A60
S1132EE882204B708C70FFF703FE13BD1240002044
S1132EF824580020F0B587B000250591019203936A
S1132F08322B5DD84C4C29002700F5373B78280034
S1132F1802932300F9331B78484E049305F0D0FC40
S1132F28474B1B780093012B51D1756845B92B0089
S1132F384449DA00521811680498814243D155680B
S1132F48FFF738FE0020FFF7A7FF23000027E83328
S1132F5828001F70FDF756FB2300F533187005F0A1
S1132F68F3FB2300B8331F7005F040FC0598364F77
S1132F78FFF7D6FE3548FFF79FFFFD88ADB228005E
S1132F88FDF7D6FC0028FAD0FFF70AF8019B98420F
S1132F982BDB0025FFF70EFE009B012B3FD1FFF72B
S1132FA86BFF2300029AF5331A702300009AE83362
S1132FB81A7005F0C9FB009BB834237005F016FCA1
S1132FC8280007B0F0BD01330A2BB1D1B8E7FFF7E9
S1132FD8F1FD70680028C9D02300E8331D70FDF79F
S1132FE811FB387005F0B0FBC0E740F2E835039BED
S1132FF8FF885D43BFB2FEF7D3FF019B9842C8DA4E
S11330083800FDF795FCABB29842F4D3FEF7C8FF3D
S1133018019B0125834200DC0025EDB2BAE7736801
S1133028002BCDD02300029AF5331A700023E8341C
S1133038237005F089FBC3E70C570020D456002001
S11330480D58002064BC0000FE260A40FFFFFF0064
S1133058052213B504000B4B0B481A70FFF7AAFCA2
S1133068962140F6AC00FFF7DDFEFFF777FE01A9D5
S1133078230C0B700322230A82204B708C70FFF7F9
S113308837FD13BD124000202458002037B540F204
S113309842210400080005F013FC44B10D4D28003A
S11330A8FFF788FC28002C606C60FFF7D1FB0A4B03
S11330B81B785BB16B46D91D4023932001220B700A
S11330C8FFF716FD0020FFF7C3FF37BD034B186851
S11330D88001F8E710580020D0560020CC56002074
S11330E8F0B5664B99B002905B7B4BB9634B5B7A46
S11330F8002B00D19EE00298FFF7C8FF00203BE0B8
S11331080AABDC1D02202100FEF790FD277803207E
S113311897BB182239000DAC12A807F031F9210029
S11331280320FEF783FD05200CA9FEF77FFD00228E
S1133138A35E009313B96368039307E0009B012B14
S11331481CD119006068FDF7AFFA03904C4B4D4D44
S11331581A0048321278463309921B78063BDBB2D0
S11331680593464BDB7B06930C9B079312AB0193A9
S1133178099B9F4205D1642019B0F0BD01235B422D
S1133188DAE7059B012B0CD8069B53B92B682A3325
S11331981B78022B05D1019B0137FFB20835023396
S11331A8E5E72B79002BF6D03A0003990798FDF749
S11331B897FA019B1B881843019B84B21C80002C3E
S11331C8E9D12B68304A2A331E78F600B35CB1186B
S11331D8009A04932300012A27D121000E98FDF7B1
S11331E863FA40F20C0C0F9B0893274BF3180499CD
S11331F8E2B28A42CFD2624662435E68B118B25ED6
S1133208012A07D14A68089E964203D18A689042E7
S113321800D16BE70134EAE70C2058434A680133CC
S1133228825E0098904200D160E70498DAB2824244
S1133238F2D3B0E740F24221080005F041FB029BBB
S11332484BB1124C2000FFF7B5FB029B2000236012
S11332586360FFF7FDFA0E4B1B7853B1402312A9A4
S1133268932001220B70FFF743FC0020FFF724FE94
S113327844E7084B18688001F8E7C046D456002094
S1133288785600201456002000BC00001058002076
S1133298D0560020CC56002013B56B46DC1D012205
S11332A82100FEF793FE207816BD0000F0B585B026
S11332B8FFF7E2FD002140F6E2060027080005F0CA
S11332C8FFFA30000397FFF7E7FFFE2140F6E50514
S11332D8014004003000FFF7A5FD2800FFF7DCFFDC
S11332E87F21019001402800FFF79CFD0B48FFF760
S11332F8E3FD042203A940F61900FEF767FE38002F
S1133308FFF70CFC21003000FFF78CFD2800019921
S1133318FFF788FD039805B0F0BDC046FFFFFF0026
S1133328F0B591B0079317AB1E8818AB1B880192B0
S1133338029319AB1B780AAA04931AAB1B7803915E
S113334805931BAB1B780400069331239B18DB7F82
S1133358099335239B18DF7F914B5B7BB3B10AAB91
S11333680021981D122207F00BF8039B0BAD2C804B
S11333780C93019B29000D93079B03202B73049B3B
S1133388EE812B74069B6B74FEF71AFC854B1F7039
S11333987B425F41029B7F423B400293049B0BB9F3
S11333A8FF330593804B059A1A7024B1012C62D01F
S11333B8002011B0F0BD7D4D0AAB991C01229F205D
S11333C80C70FFF795FB2B00E8331C702B00019A57
S11333D8EC331A602B000B22F43303981A70FDF7B0
S11333E811F92B00F53318702B00B8331C702B001F
S11333F8F600BA331E802B0041F60402BC331A804F
S11334082B00BE332A001C7001230499BF32594093
S113341811702A000599C0321170069A02B1F1336D
S11334282A00C13213702B000122C233E8351A7006
S1133438FFF7C0FB2878431E9841C0B2FFF72CFD64
S113344805F082F905F0D2F9082259490BA807F0CA
S113345860FA082240F2C0600BA9FEF729FD05F0C6
S11334685BF941F64073029A5343019AB3FBF2F3B2
S1133478504A13609CE70AABD91C00234B4D220029
S11334889F200B70FFF734FB2B00E8331C706B464E
S11334981F792B00F833039A1F70474B10009B5C6D
S11334A80199053F0893FDF7D1F8012F04D8331C7F
S11334B80C2E00D20C239EB22B00089AF9331A70F2
S11334C82B00079AFA331A702B00FB3318702B0061
S11334D80122B8331A702B00C4331E802B00049ABF
S11334E8C6331A702B00059AC7331A702B00069A34
S11334F8C8331A702B00099AC9331A70FFF75AFB9C
S11335082B00E8331878431E9841C0B2FFF7C4FC77
S113351805F01AF905F06AF96B461F7A3B1CF82F77
S113352804D94BF2BC33C0F200031B780133DBB27D
S11335385B10DEB21F2B2CDD0336B60832006300A5
S113354801339A400BA90A70A0200122FFF7D0FA90
S113355837B1F600A11940F20670C9B2FFF762FC50
S1133568C9352B78042440F23670012B13D1FFF7A8
S113357893FEA043C1B240F23670FFF753FC029B9E
S11335885A4253410D4A5B4213404FF6FF729B184F
S11335986EE70024D2E7FFF77FFE0443E1B2EAE7CF
S11335A8D4560020D0560020114000200C5700208B
S11335B878BD0000CC56002058BC00000100FFFF75
S11335C8F0B585B072B6BFF34F8FBFF36F8F00228B
S11335D89E490B780A70DBB262B6BFF34F8FBFF314
S11335E86F8F002B00D1F2E003AE310002321220BB
S11335F8FEF7C2FC0123022235885B423100100029
S113360833806DBAFFF774FAADB272B6BFF34F8F59
S1133618BFF36F8F8E4B2820185E05F04FFC040013
S1133628012803D1FFF70EF8884B1C7062B6BFF36C
S11336384F8FBFF36F8F40232A0001241A40854B14
S113364801921A8025420AD08348FFF7B3F9834BC5
S11336581C70834B1B6813B11B6803B19847022481
S1133668254200D18AE07F4B1F78A7B97E48FFF72F
S1133678A1F90122794B390040F602101A70FFF7BC
S1133688D1FB40F64410FFF707FE0443E1B240F6CD
S11336984410FFF7C7FB022231001320FEF76CFC2D
S11336A8724B1F78012F27D1714B1B78012B23D123
S11336B840F20270FFF7F0FD00901E233370FEF70E
S11336C8DDFB6C4C0221009B6B4A3000FEF704FCC6
S11336D8FEF7B6F8032231001420FEF74DFC2770DC
S11336E86FB1012F00D177E01B220021634806F057
S11336F847FE0F2323701FE033780093DDE7337808
S113370823715F4B72781B7852085BB29BB29A1A8A
S1133718111C12B2803201DA4FF68071218103AA9A
S1133728927852089B1A1A1C1BB2803301DA4FF69E
S113373880720023E280E360019B13B1504B1B7A33
S113374873B1474B1B685BB19E684EB12378002B5D
S113375864D108230621625EE35600994648B047BF
S1133768404B1B7853B13D4B1B78052B06D1444B7A
S1133778587A002857D00020FFF76AFC019B2BB128
S1133788374B1B6813B11B6903B198472B060AD53D
S11337980122324B1A70324B1B6823B19B6913B157
S11337A8280A10409847AD050ED52C4C2378042BD5
S11337B83CD12948FFF7FEF801232370284B1B68E6
S11337C813B15B6803B198470023224A13801F4B47
S11337D81878C0B205B0F0BD294B32781B7852086E
S11337E85BB29BB29A1A111C12B2803201DA4FF6FC
S11337F880710122218203A98A5602329210A2748E
S11338088A7852089B1A1A1C1BB2803301DA4FF6C5
S113381880721C4BA2821B68A3618DE712231021BE
S1133828625EE35699E7FFF747FBA7E7052BCBD181
S11338380C4B1B7823B90C48FFF7BCF80123237001
S1133848074B1B68002BBFD0DB68BBE73858002048
S11338580C57002010560020245800201240002045
S11338683C580020D0560020105800200D58002045
S1133878EC540020F454002010550020F554002086
S1133888D4560020F054002037B52A4B04001B7886
S11338980D00012B2CD10F280CD1274B0422952085
S11338A801A90193FFF724F9231C5AB20E2A10DD4B
S11338B80E230EE0214B0422952001A90193FFF762
S11338C817F9231C1134F0DA4BF2BD33C0F20003AC
S11338D81B7818215CB240F6E700FFF7A3FA6B46A1
S11338E802225D718E201C7101A9FFF701F937BD11
S11338F840F6D800FFF7D0FC1E210143C9B240F6B8
S1133908D800FFF78FFA0E4B0422952001A90193E2
S1133918FFF7EEF8231C093407DA4BF2BE33C0F282
S113392800031B7838215CB2D5E75AB2162AF9DDB0
S11339381623F7E7104000200600010104000101E6
S113394804070001F0B58FB0019314AB20CB0291AA
S11339581B780592069316AB1F8817AB1B780600D5
S1133968039318AB1B7804931BAB1B7807936E4B1C
S11339785B7BF3B108AB15220021D81C06F000FDCF
S1133988029A08AB9A701E80059B069A0993019BBC
S11339980B950A9308AB1A74039A19001A75049ABA
S11339A85F825A750420FEF70BF9604B029A47337D
S11339B81A704EB1012E56D040F68900FFF76CFC00
S11339C804210143C9B2A0E0594C0B222300E83377
S11339D81E702300EC331D6023000198F4331A7021
S11339E8FCF710FE2300F53318702300059AF03312
S11339F81A602300B8331E702300FF00BA331F80F7
S1133A08230041F60402BC331A802300BE3322008B
S1133A181E7001230399BF3259401170049A02B1F0
S1133A28F1332200C132137023000122C233E83477
S1133A381A70FFF7BFF82078431E9841C0B2FFF709
S1133A482BFA04F081FE04F0D1FE0822394908A8B3
S1133A5806F05FFF082240F2C06008A9FEF728FAC2
S1133A6804F05AFEA8E7324C019A2300E8331E708A
S1133A782300EEB2F8331E702F4B29009B5C100014
S1133A88053E0593FCF7E2FD012E04D83B1C0C2FE0
S1133A9800D20C239FB22500059BF9352B70230017
S1133AA8069AFA331A702300FB3318702300012294
S1133AB8B8331A702300C4331F802300039AC63313
S1133AC81A7023001D4AC73312781A702300049A07
S1133AD8C8331A702300079AC933E8341A70FFF7F9
S1133AE869F82078431E9841C0B2FFF7D5F904F06D
S1133AF82BFE04F07BFE2B78062B00D05CE740F607
S1133B088900FFF7C9FBFB21014040F68900FFF754
S1133B1889F902980221FFF7B7FE0020084B1C9A86
S1133B281A600FB0F0BDC046D45600207856002065
S1133B380C57002078BD000058BC0000114000203C
S1133B48C85600200122F0B5314DA7B00C9004915D
S1133B586B7B0192002B00D179E116AB9C1D2100EF
S1133B680220FEF763F82378019323B1032301931A
S1133B78019827B0F0BD1822019920AC1AA806F0C4
S1133B88FFFB21000420FEF751F8052018A9FEF7D1
S1133B984DF80023E75E229B0793219B0893239B00
S1133BA809934FB3012F30D139000798FCF77CFDF6
S1133BB80690184CFBB20499F8B20E93FCF7B8FFC0
S1133BC823000A9048331B78134E1293230046337C
S1133BD81B78063BDBB20F93EB7B1093189B0B937C
S1133BE81AAB0393002302936B46129A1B7A05932C
S1133BF8934213D36523BAE742F21071089B5A0023
S1133C08099B5B189B180693D3E701235B42FAE7E9
S1133C18D456002078560020145600200F9B012B00
S1133C2807D8109B2BB933682A331B78022B00D191
S1133C3874E13379002B00D170E1059A06990B9849
S1133C48FCF74EFD039B14901B8808981193012FD1
S1133C5803D100210798FCF727FD3568B44A2B00E7
S1133C682A331B78B249DB009A5C5B181392002252
S1133C781593139BD1B2994200D225E104226B69B2
S1133C880A998B429B4111995B421B0119430B0012
S1133C98149919430A43039B95B21D80002D00D043
S1133CA83CE1236C002B00D129E1A31DDB8FA14A41
S1133CB8DB00D3581B8D039373B3FDF7F5FFA66B95
S1133CC8E76B236C1A009C462B0092197B41022651
S1133CD80027B6185F418F4200D90DE102D1864210
S1133CE800D909E102267642F717B61A9F41361819
S1133CF84F41A31DDB8F8F4ADB00D3586046198DD3
S1133D08FCF70CFD01230FB9B04200D800235B0176
S1133D189BB20393236C8BB3A31DDB8F854ADB0013
S1133D28D3581B8B53B3FDF7BFFFA26BE36B0F0094
S1133D3800210600206C8018594102220023121821
S1133D484B41BB4200D9DCE002D1B24200D9D8E0F1
S1133D5802225242D317121A8B4192197B41100046
S1133D681900A31DDB8F734ADB00D3581A8B012378
S1133D7809B9824200D800239B019DB2039B1AAF64
S1133D881D43029B5B000393DD53CDBB029BDE0006
S1133D98684B9A5940F2E733D2699A4230D919A943
S1133DA80120FDF7B7FE16AAD11D2800FDF7B2FEC3
S1133DB8604B012099592431FDF736FE5D4B711D86
S1133DC8C9182800FDF730FE40F2E831594B0E9827
S1133DD89A59D369B3FBF1F32021525E9BB20B9934
S1133DE8FFF788F8060019A90120FDF71DFE16AB98
S1133DF82800D91DFDF718FE16B98023039AD3535A
S1133E08029B1AAA5B009B5A002B7DD1FDF74CFF3D
S1133E180A9B059A2364A31DDA87029B454AA0637B
S1133E28E163DB00D35820A91B7C887889781A1CA5
S1133E3849B25BB28B4200DD021C00234734E356CF
S1133E4850B2834203D002212270FFF71DFD0C9B60
S1133E58002B00D18CE640F20121080004F030FD6B
S1133E68354B1A78354B012A60D1C733049A20ACF4
S1133E781A7004F0BBFC0E232380FDF7FFFF022118
S1133E882000049B0C9AFDF7A5FF0025FDF7D8FC3C
S1133E9804222B4B2B481A70FEF78CFDFEF75EFFAD
S1133EA82100032283202580A570FEF721FE264CDD
S1133EB8264B20001E68FEF77DFD20002660666004
S1133EC8FEF7C6FC019553E6159B59680D910C2124
S1133ED80D9B51439C468C44595EB94208D16346B4
S1133EE85968099B8B4203D163469968814201D082
S1133EF80132BEE60022C2E600260027F9E6039551
S1133F0808E7002000212CE76022134201D0662331
S1133F182DE61B0600D46DE6672328E6029B0836C7
S1133F2801330293039B023303935DE6C0339DE799
S1133F3800BC0000145600200D5800200C57002027
S1133F48124000201058002024580020C856002091
S1133F5810B504000020205600B910BDFDF730FF4D
S1133F680134F7E710B50A4B1C68E37813B1094824
S1133F78FFF7EEFF1422A188074B4A431B689B18DE
S1133F881869FFF7E5FF0548FFF7E2FF10BDC046D3
S1133F981440002031AD00007858002034AD0000F2
S1133FA810B50248FFF7D4FF10BDC04631AD00007C
S1133FB810B5074B04001B68DB7813B10548FFF7FD
S1133FC8C7FF2000FFF7C4FF0348FFF7C1FF10BD78
S1133FD81440002031AD000034AD000010B50400D9
S1133FE8FFF7C0FF0448FFF7B3FF2000FFF7B0FF57
S1133FF8FFF7D6FF10BDC046D5AF000010B530B1ED
S1134008142805D8034B8000C058FFF7E7FF10BDFC
S11340180148FAE7ACB9000036AD00001FB5FCF75B
S1134028B7FAC0B2012804D00420FFF7E7FF042040
S113403812E06B469C1C210001A8FCF7CDFA08216C
S11340482388019A02A8FCF7DAFC0028ECD102A81C
S113405803F03CFA0028E8D104B010BD13B5FCF70E
S113406897FAC0B2012804D00420FFF7C7FF042040
S113407812E06B469C1C210001A8FCF7ADFA002352
S1134088E15E0229F0DC0198C9B2FCF7EFFCC0B28A
S1134098FCF7F6FD0028E8D116BD0000074B10B563
S11340A81A7832B10133D87F022104F0A1F9002033
S11340B810BD0120FFF7A2FF0420F9E7DC5200201D
S11340C813B5FCF765FAC0B2012804D00420FFF741
S11340D895FF042012E06B469C1C210001A8FCF704
S11340E87BFA0023E15E0229F0DC0198C9B2FCF7EF
S11340F8BDFCC0B2FCF7DAFD0028E8D116BD00000B
S1134108074B10B51A7832B10233D87F022104F074
S11341186FF9002010BD0120FFF770FF0420F9E7B4
S1134128DC520020F7B5FCF733FAC4B2012C04D0F2
S11341380420FFF763FF04202AE06B469D1C290036
S113414801A8FCF749FA0023E95E0429F0DC0023FE
S1134158012720001A00019DC9B27F42DCB2A142A6
S11341680BD9EC56E6B2B4460BB92D2E17D030262F
S11341787642B4446646092E0BD950430300803373
S11341889BB2FF2BD4D840B2FCF7A6FD0028D0D1AF
S1134198FEBD0A267243303CA2180133DEE738001C
S11341A8FBE737B56B46DD1D280003F0B7F90400BB
S11341B830B900200421285604F01AF920003EBD25
S11341C8FFF71CFF0424F9E713B5FCF7E1F9C0B2C3
S11341D8012804D00420FFF711FF042014E06B46E3
S11341E89C1C01A82100FCF7F7F90023E05E0128D4
S11341F8F0D1019B1B785BB2302B06D0312BE9D16F
S1134208FEF776F90028E6D116BD0020F8E713B5C5
S1134218FCF7BEF9C0B2012804D00420FFF7EEFE73
S1134228042014E06B469C1C01A82100FCF7D4F977
S11342380023E05E0128F0D1019B1B785BB2302B90
S113424806D0312BE9D1FCF75DFD0028E6D116BD77
S11342580020F8E707B5FCF79BF9C0B201280BD199
S11342686B4601A8991CFCF7B7F90198FCF786FB83
S11342784FF6FF73984204D10420FFF7BFFE0420D1
S11342880EBD87231840034BDA7D824200D0D875CF
S11342980020F5E7F84C002030B585B0FCF778F934
S11342A8C5B26B1E012B2AD86B469C1C210001A8A1
S11342B8FCF792F9019A0821238802A8FCF79FFBCE
S11342C80200E0B90100022D25D1210001A8FCF764
S11342D883F90022A35E0199012B10DD00228A567E
S11342E8222A0CD1213A885622280DD110B2013B3A
S11342F8984204DB013A92B22280FF2A09D90420A9
S1134308FFF77CFE042012E0013210B29842EADB87
S1134318F5E70131D2B244F2000302A803F096F89B
S11343280028EDD1034B1B689A88034B1A8005B00B
S113433830BDC04614400020EC4C0020F0B587B0D6
S1134348FCF726F9C4B2631E012B48D802AB991CAA
S113435803A8FCF741F902AB039A08215B8804A877
S1134368FCF74DFB0200002839D10600022C28D1A5
S113437802AB991C03A8FCF72FF91B4B1E68039B7F
S1134388009302AB02255D5FABB2012B27D9012252
S11343982C001440154222D1D3404FF6FF770193E5
S11343A8009B60001818FCF7E9FAB84217D030559A
S11343B8019A0134A3B29342F2D3EA0F521952106C
S11343C8D2B248F20003310004A803F03FF838B928
S11343D8064B1B689A88064B5A8007B0F0BD042028
S11343E8FFF70CFE0420F8E7AC4E00201440002030
S11343F8EC4C002013B5FCF7CBF8C0B2012816D159
S11344086B469C1C210001A8FCF7E6F80022A35E79
S1134418012B0CD1019A127852B2302A05D0312AD4
S113442805D10020044A137616BD0023F9E70420B9
S1134438FFF7E4FD0420F7E7F84C002010B5124B11
S1134448187A0A281AD806F029FC06190D0F111330
S11344580B19191517000D48FFF7C0FD002010BDF2
S11344680B48F9E70B48F7E70B48F5E70B48F3E780
S11344780B48F1E70B48EFE70B48EDE70B48FFF76C
S1134488ADFD0420EBE7C046F84C002045AD000024
S11344984AAD00004FAD000055AD00005CAD000012
S11344A863AD00006AAD000070AD00007AAD000095
S11344B800B589B001A804F0A5FC082201A903A845
S11344C8FCF77CFA03A8FFF789FD002009B000BDBA
S11344D837B56B46DD1D280003F036F8040040B9F3
S11344E82B7823B90548FFF779FD20003EBD044821
S11344F8F9E7FFF783FD0424F7E7C0468EAD000013
S1134508A6AD000037B56B46DD1D280003F030F872
S1134518040040B92B7823B90548FFF75FFD200054
S11345283EBD0448F9E7FFF769FD0424F7E7C046F0
S1134538BDAD0000D5AD000007B5032101A804F006
S113454877F86A46064B6946DB7D01A81370012299
S1134558FCF734FA01A8FFF741FD00200EBDC04660
S1134568F84C002010B5054B1B7E23B90448FFF70F
S113457835FD002010BD0348F9E7C046F84C00207B
S1134588ECAD0000FCAD00001FB5094B094A1B68DF
S11345985268694613431BBA042201A80093FCF726
S11345A80DFA01A8FFF71AFD002005B000BDC046AA
S11345B8E84C00207051002043F6FF7210B5438880
S11345C893420BD95A040AD50D4B0E4A1B6812881C
S11345D89A8003785BB90C48FFF700FD10BD1BB245
S11345E8002BF6DA064B074A1B685288F0E7082BBB
S11345F803D8064A9B009858EEE70548ECE7C046FE
S113460814400020EC4C002088B0000070B9000071
S11346180BAE0000F8B506000C000F274D1EAD00C8
S11346283000E8403840092808D83030013CE4B26A
S1134638FDF7C6FB043D002CF2D1F8BD3730F5E791
S113464810B5FFF78FFC0948FFF782FC022104200C
S1134658FFF7E0FF0648FFF77BFC90200221FFF7F5
S1134668D9FFFFF79DFC002010BDC04625AE000011
S11346780EB30000F0B50678040085B0002E00D013
S1134688B5E08388DB071AD5063001A902F0AAFE33
S11346980500A0B1270018351E371022390028005C
S11346A806F018F958B110223900280006F031F93B
S11346B86B46802032001979800503F0CBFAA38871
S11346C89B0710D5A01D01A9256B02F08BFE50B1E4
S11346D8836AAB4207D06B46856280200022197931
S11346E8400503F0B7FAA3885B0710D5A01D01A9FC
S11346F8656B02F077FE50B1C36A9D4207D06B46E2
S1134708C562802000221979000503F0A3FA0A2261
S1134718384901A806F0FDF8374B384A1B68526837
S113472813439B0463D53648FFF712FC3548FFF75B
S11347380FFC26003448FFF70BFCA51D0E3628781D
S113474802210135FFF766FFB542F8D12D48FFF77E
S1134758FFFB26002D48FFF7FBFB1E3628780221B5
S11347680135FFF757FFAE42F8D12648FFF7F0FBB3
S1134778350027482600FFF7EBFB2E362878022160
S11347880135FFF747FFAE42F8D1A388DB0705D50B
S11347982048FFF7DDFB01A8FFF7DAFB1948FFF70C
S11347A8D7FB1D48FFF7D4FB0821206BFFF732FF26
S11347B8A3889B0705D51748FFF7CAFB01A8FFF78D
S11347C8C7FB1048FFF7C4FB1448FFF7C1FB0821D7
S11347D8606BFFF71FFFA3885B0705D50D48FFF73C
S11347E8B7FB01A8FFF7B4FB0648FFF7B1FB05B018
S11347F8F0BDC046B4AE0000E84C00207051002063
S113480842AE000031AD00005BAE00006CAE0000AB
S11348187DAE0000D5AF00008EAE0000A1AE000052
S1134828F7B505000E000192002803DA2D20FDF7E4
S1134838C7FA6D4201230A221C00B34204D101269F
S11348480A27002C04DCF7BD01335443DBB2F4E738
S1134858012C00D1002695FBF4F292FBF7F37B437D
S1134868D31A00936B461878012E0DD160B9019BB9
S113487813B11800FDF7A4FAFF22009B1340634309
S113488894FBF7F4ED1ADCE7303040B2FDF798FA00
S11348980026F1E7F0B5654C8BB0FCF72BF8230044
S11348A868331F780F2567B1FBF7C4FE0D3D06007A
S11348B838B9230048331D78012D05D0022D36D090
S11348C8042528000BB0F0BD626D59492B008A42BB
S11348D804D0584BD21853425A4153000826582141
S11348E8E26D615601200892029600222600079282
S11348F806920592049003920190503636780096F9
S1134908FFF720F8E06CFEF70BFA28003900FCF7F3
S11349187FFF39004848FFF715F9050010B36728E9
S113492800D180E0663D6B1E9D411135C9E75821D1
S1134938E36D61560893012304930433029323001F
S11349480790069005900390019050331A7840F22E
S1134958E8335343009346F2A812636DFEF7F2FF5F
S11349683500CFE7354B5A78002A52D05B685B0193
S11349784FD53348FFF7ECFA3248FFF7E9FA3248E3
S1134988FFF7E6FA230048331B78012B45D12F485B
S1134998FFF7DEFA2B48FFF7DBFA2D48FFF7D8FAC2
S11349A800220A21E06CFFF73BFF2648FFF7D0FA04
S11349B82848FFF7CDFA23005033187800220A213B
S11349C8FFF72EFF1F48FFF7C3FA2348FFF7C0FA83
S11349D800220A21606DFFF723FF1A48FFF7B8FA8F
S11349E81E48FFF7B5FA23005933187800220A2124
S11349F8FFF716FF1348FFF7ABFA1948FFF7A8FAB1
S1134A085820002220560A21FFF70AFF0D48FFF715
S1134A189FFA02234434237053E7022B01D111482F
S1134A28B6E71148B4E710254BE7C046DC5200202E
S1134A3890D00300E05EF8FF465300207051002038
S1134A48BEAE000031AD0000CDAE0000E0AE000007
S1134A58EDAE000000AF000013AF000026AF000069
S1134A6839AF0000E5AE0000E9AE000037B5040038
S1134A782E48FFF79DFA2E48FFF76AFA0025616869
S1134A880122491901A8FBF799FF013501A8FFF78D
S1134A985FFA082DF3D12748FFF75AFA00220121BB
S1134AA8A07CFFF7BDFE2348FFF752FA002201213C
S1134AB8607CFFF7B5FE1F48FFF74AFA002203217E
S1134AC8207BFFF7ADFE237BE3B9FFF769FA1A4BA6
S1134AD81B7EB3B11948FFF76BFA1548FFF738FA8C
S1134AE8002203210E23E05EFFF79AFE1148FFF728
S1134AF82FFA1020002203212056FFF791FEFFF71A
S1134B084FFA37BD0B48FFF723FA0025237BAB4246
S1134B18DBD9A1680122491901A8FBF74FFF013528
S1134B2801A8FFF715FAEDB2F0E7C0464CAF000054
S1134B38D5AF000052AF0000F84C002054AF00007D
S1134B48037870B50400012B17D0022B3CD08BB925
S1134B58254B264A1B68928825489A80FFF728FA2D
S1134B682448FFF7F5F923792BB92348FFF7F0F91F
S1134B78FFF716FA70BD2148F8E71B4B1B4A1B6860
S1134B88D2881F489A80FFF713FA1A48FFF7E0F90A
S1134B982579BDB906202A0003212056FFF740FED7
S1134BA81848FFF7D5F905202A0003212056FFF7F6
S1134BB837FE1448FFF7CCF92A000821A068FFF74C
S1134BC82FFED5E71048D1E7074B084A1B6812891E
S1134BD80E489A80FFF7ECF90648FFF7B9F92379EC
S1134BE8002BEFD10A48C1E714400020EC4C002008
S1134BF85AAF0000D5AF000062AF000071AF0000EB
S1134C087FAF000052AF0000E5B0000088AF00009D
S1134C1888B000000378F7B5040013B1022B16D04E
S1134C28F7BD3148FFF7C4F93048FFF791F9251D5E
S1134C380C342900012201A8FBF7C0FE013501A8A4
S1134C48FFF786F9A542F4D1FFF7AAF9E8E728485F
S1134C58FFF7AEF927002548261DFFF779F9350037
S1134C680C372900012201A8FBF7A8FE013501A889
S1134C78FFF76EF9BD42F4D11E48FFF769F9002227
S1134C880121207CFFF7CCFD1A48FFF761F9E068A1
S1134C9800220621FFF7C4FDFFF782F9164D08220A
S1134CA83100280005F016FEE768002428B1082220
S1134CB83100280005F02DFE0434104EF3699F429C
S1134CC802D00223F7611C432800F16904F084F838
S1134CD824B100222000110002F0BCFF0123283671
S1134CE8337002F097FB9BE791AF0000D5AF00004B
S1134CF899AF000052AF0000184D0020F84C002076
S1134D08002310B5934200D110BDCC5CC4540133C8
S1134D18F8E70000F0B5040085B0170004200191FD
S1134D2803931CB1284B1B7813B9012005B0F0BDBF
S1134D380220042BFAD8254D254E2B793BB10822A5
S1134D482000244905F0C6FD0028EED1224E224B4E
S1134D5854211800029303F06BFC082221001D481B
S1134D68FFF7CEFF10221D480199FFF7C9FF102253
S1134D7839001B4807B90199FFF7C2FF039B2B634E
S1134D880A9B6B6301232B71029B9E4202D02B78F2
S1134D9801332B70134D144E2B784BB1082231007C
S1134DA8200005F097FD18B1200005F0F7F8BCE7DE
S1134DB8082221003000FFF7A3FFE86805F0FEF899
S1134DC8012300202B70B1E7DC520020745200202C
S1134DD8CC5200207C5200207852002084520020BB
S1134DE894520020CC520020CD520020F0B58FB050
S1134DF8FBF7CEFBC4B2631E012B00D997E00A234C
S1134E086B44190003A8FBF7E7FB6B4604AD0821C4
S1134E1828005B89039AFBF7F2FD0600002800D0FE
S1134E2885E00300EA5CFF2A03D10133082BF9D19A
S1134E380025022C00D07FE00A236B44190003A844
S1134E48FBF7CAFB6B46039A10215B8906A8FBF79C
S1134E58D6FD020000286AD1002D68D001235B42E8
S1134E68009306A903002800FFF754FF00285FD128
S1134E780927010010220AA86F4405F081FA3900B5
S1134E88280002F0AFFA040028B9304B1B78002B35
S1134E984AD12F4C3870230030331B78002733B99C
S1134EA8082229002000802705F033FD3F0625004D
S1134EB808351022280006A905F00CFD38B1102287
S1134EC8280006A905F025FD8023DB051F432500DE
S1134ED81835102228000AA905F0FCFC38B1102264
S1134EE828000AA905F015FD80239B051F43A36A22
S1134EF823B10023A36280235B051F43E36A0133C4
S1134F080DD001235B42E36280231B051F43092361
S1134F186B4400223800197802F09CFE01E0002F4F
S1134F28F5D101233034237030000FB0F0BD0420D4
S1134F38FFF764F80426F7E72800FCF7E9FC0028E3
S1134F48F6D1280003F014FFEEE7C0467C4D00209C
S1134F584C4D0020F0B5604E05003378032485B02D
S1134F68022B78D9042B02D9013C0A2B73D13300C4
S1134F7844331B780224002B6DD1FDF741FA040059
S1134F8830BBFDF779FA040010BB33780A2B19D12A
S1134F9808222800514905F09DFC0234C0B92A7B37
S1134FA8297C13001133890700D508330424FF2B07
S1134FB80ED8320059321478DBB29C42A4416442C0
S1134FC8A40005E02800FDF7D9FA04000028E6D07B
S1134FD804272B7C3B424BD13378002C3ED1210053
S1134FE80A2B04D1A833FF33F45CA406E10F782319
S1134FF82A7C287B9A4301AC2A74AB6822700090FF
S11350082A00012004F0F0FE040038BB310032000D
S113501868315932097812783378043491421DD8AA
S1135028320001214432117040F27212E989B152FE
S11350380A2B09D0FFF72EFC040078B933780A2B21
S113504808D00623337005E040F2E4130224F35C2D
S1135058234203D10024200005B0F0BD3300002210
S113506844331A7033780A2BF5D0FDF76BF9F2E75D
S1135078002CF0D1280003A90394FCF7EDFB0400ED
S11350880028E8D1164E347824BB2A7B1548A96831
S1135098FFF736FE33002A7BF2331A703300EA89AD
S11350A8F4331A8032002B7CF632DBB2BB43137024
S11350B83300F8331C60039BDA681AB9DE600123F5
S11350C83370C8E71300F8321268002AFAD1F833AB
S11350D81E60F4E70C24BEE7DC5200208E54002046
S11350E8785100207C51002037B5030015000800D2
S11350F80424012B0DD051B101A9FDF727FA0400AE
S113510828B901990C3110222800FFF7F9FD200075
S11351183EBD0029FBD001A9FDF718FA04000028B8
S1135128F5D101991C31EEE7F0B5BDB01C0042ABD6
S11351381D780192002D4DD00423002C4BD00BAACE
S1135148FFF7D2FF06000300002844D101231520ED
S113515807AF3B7002ABC018019903F05BF91D203F
S113516802AB042243A9C018FFF7CAFD7E73BE73BD
S11351780127232203AE02AB9B18102130001F70B5
S113518803F056FAB0210FA803F052FA0BA90FA89E
S113519803F0A2FD0FAA300007A903F057FD2378F6
S11351A83278013D5340EDB22370631CB5B122003F
S11351B81C001032A24209D023787178013D4B407B
S11351C8EDB2237001360134002DF3D10137FFB25B
S11351D8002DCED1002318003DB0F0BD1C00F5E72A
S11351E80300F0B5D433040018680E00150087B026
S11351F848B310231B1A1F000093934200D91700C9
S11352082300C133BAB2181831000193FFF778FDAF
S11352182200D4321368FB1813600F2B1DD9009B8E
S1135228AB421AD22000B13003001A78197C4A40E4
S11352381A70019A01339A42F7D12200010003F04F
S113524805FDF619ED1B2000C130102D07D83100DB
S1135258AAB2D434FFF754FD256007B0F0BD270087
S1135268B1373B00009600991A7809784A401A70B9
S1135278009A0133013200929842F4D11022390085
S113528802A8FFF73DFD02A90800220003F0DEFC96
S11352981022380002A9FFF733FD1036103DD2E77B
S11352A8F0B506000C0015001F00C3B011B9142096
S11352B8002A67D1E1236B441800102103F0B8F9E0
S11352C80023B0210CA8419303F0B2F939000CA8CB
S11352D803F002FD26B1102231000CA8FFF780FF6D
S11352E82A0021000CA804ACFFF77AFF1021200043
S11352F803F09EF921000CAA200003F0A7FC2278F1
S1135308230000217F2A3FD918785A784000D2090F
S1135318024301311A7001330F29F5D17923E27B55
S11353285B4252005340419ADBB2E373102A38D1EE
S11353380023E1326A441178E05C01334140117082
S11353480132102BF7D1E12300256B441A78197C1C
S113535801354A401A700133102DF7D1E1236B440B
S113536819002A0008A8FFF7CBFC0CAA684608A96C
S113537803F06CFC2000290003F05AF90020009A7D
S1135388489B1A6043B0F0BD18785A784000D20997
S1135398024301311A7001330F29F5D1E37B5B0015
S11353A8C1E70021002061562300814230DA1D78CC
S11353B859786D00C90929430130197001330F2840
S11353C8F5D17923E17B5B4249004B408021DBB274
S11353D8E3730CAB9B18C133561C00251970102EAF
S11353E801D80F35AD1A0CABC232981800212A0027
S11353F804F0C6FFF1220023AD1941956A441178DF
S1135408E05C0133414011700132102BF7D19AE767
S11354181D7859786D00C909294301301970013381
S11354280F28F5D1E37B5B00D0E7F0B58FB0039389
S1135438160014AB0AAA1F78FFF756FE0400F8B941
S11354484923112006AD2B7002ABC018310002F0BD
S1135458E1FF192002ABC018042215A9FFF750FC7C
S113546805AB6C73AC73EF733A000093280003998F
S11354780AABFFF715FF040010B9059A169B1A60CA
S113548820000FB0F0BD30B589B0140004AA1D0087
S1135498FFF72AFE50B903AB00932A00210004AB9E
S11354A8FFF7FEFE10B9039A0C9B1A6009B030BDD1
S11354B8F0B5B34D07002B7803248FB0022B00D826
S11354C897E0FCF79DFF0400002800D091E0FCF76A
S11354D8D3FF0400002800D08BE03C78012C00D1D5
S11354E88AE0022C00D1DFE0002C00D046E12E78BF
S11354F8042E02D902340A2E7BD12B0044331B78A4
S11355080224002B75D13B1D18000293FDF736F8D1
S11355183B7B04005B0700D5BFE0E8BB0A2E04D13F
S113552840F2B113EC5CA406E40F05A802F07BFF7B
S113553802271D2002AB09AEC018102205A9377036
S1135548FFF7DEFB002201AB1A7011232100009340
S113555803203300029A04F047FC0400E0B92E004B
S113556804A968363378874A00910299FFF78BFFBC
S1135578040088B93078824B6A30C018042204A920
S1135588FFF7BEFB3378043333702B780A2B10D023
S1135598FFF780F90400B0B1002340F26C12AB5459
S11355A82A00443213702B780A2B22D0FCF7CAFE47
S11355B81FE040F2E413EB5C3B4200D06BE02B00AD
S11355C8012244331A70029805A904F06DFB40F2D5
S11355D86C130122EA5400220433EA546A4808325C
S11355E804330299EA54FFF78BFB2B780A2B4FD12B
S11355F8002420000FB0F0BD2E78042E02D9022416
S11356080A2EF6D12B0044331B780224002BF0D148
S11356183B1D18000293FCF7B1FF3B7B04005B07BA
S11356283BD40028B8D101000A2E04D140F2B113AA
S1135638EC5CA406E10F0422012609AB1A703A7B3C
S113564801A852083240B2400270029A0320009620
S113565804F0CAFB0227040000289DD12B780A2BEA
S11356680DD0FFF717F90400002895D1012340F263
S11356786C12AB540432AB540432AB54B5E740F269
S1135688E413EB5C3B4206D12B0044331E70EDE778
S113569806232B70ACE73C007EE7002CA9D1380028
S11356A8FCF7EEF80400A4E72B780293042B01D945
S11356B80A2B9ED12B0044331B78002B99D13B1D18
S11356C818000393FCF75AFF060038B93B692BB15D
S11356D82E4E0A3B9E42B6417642B6003B7B5B07A0
S11356E849D4D6BB029B31000A2B04D1A833FF331B
S11356F8EE5CB606F10F06203A6909AB18705A70C9
S1135708100A120CDA703A7B012752083A40BA4060
S1135718987001A80270042203200092039A04F0EE
S113572863FB0600C8B92B780A2B0BD0FFF7B2F835
S1135738060090B940F26C1201230221AB540432E2
S1135748A95499E740F2E4130222EB5C134203D113
S11357582B0044331F70EDE72600002340F26C123F
S1135768AB542A00443213702B780A2B01D0FCF76F
S1135778E9FD34003DE7002EFBD190E7082438E723
S1135788DC5200204653002051540020F5FF01004C
S1135798F0B5A3B014AFFDF713FF3800FBF7BAF860
S11357A895490A78531CDBB20B700AB9FCF72CF93B
S11357B8149B83F31088202238009049FFF7A0FA3D
S11357C80CAD20218D4802F033FF2800FBF7A2F826
S11357D8894A1378013BDBB213700BB9FCF71CF947
S11357E80C9B83F31088202239002800FFF788FADD
S11357F82B78834E002B60D0DB0605D53378062B37
S113580800D1C6E00E23337004222B78134205D04E
S11358183178062900D1E8E00A3232701B0708D52E
S11358283378092B00D109E1042B00D106E10E23BA
S113583833700CAC2578AB0701D504F0CBFBEB0730
S113584801D504F0C7FB6F4A5378B3B353685B00C0
S113585833D595B36C48FEF77BFB2378DB0605D577
S11358686A48FEF775FB6A48FEF772FB23785B0704
S113587805D56848FEF76CFB6548FEF769FB237895
S11358881B0705D56448FEF763FB6148FEF760FB18
S113589823789B0705D56148FEF75AFB5C48FEF759
S11358A857FB2378DB0705D55D48FEF751FB5848BD
S11358B8FEF74EFB5648FEF74BFB14A8FBF72AF8F5
S11358C84D490A78531CDBB20B700AB9FCF79CF8F3
S11358D8149B83F3108840F2E413002214A8F45CA8
S11358E8F254FBF717F8444A1378013BDBB2137000
S11358F80BB9FCF791F8149B83F31088002C01D1A1
S113590800F05DFCE30706D53378082B01D100F0DD
S11359183EFC0E2333703278A40701D400F04FFC08
S11359280E230C2A01D000F048FCFEF7B3FF06232F
S1135938002801D000F037FC337075693DB3337823
S1135948033B012B23D8374C237903B3E688F6B1FC
S1135958462004ABC01808223349FFF7D1F94E207A
S113596804ABC01810223149FFF7CAF95E2004AB12
S1135978C01810222E49FFF7C3F9236B38003B6384
S1135988636BBE807B630023E3803B70A84723B02E
S1135998F0BD3300032244331A70FAF79DFF40F236
S11359A8A01340F2D731234AF35812785C18012A1D
S11359B802D040F2E1329C18FCF776F9AA68EB6849
S11359C8801A9941241AE343DB171C401A4B180028
S11359D80393FCF7EFFF40F2E8130398F450043301
S11359E8F450FCF735FF08230DE707213170310027
S11359F844310A7012E7C04668580020505100200C
S1135A08DC5200207051002033B0000043B0000085
S1135A1831AD00004EB000005CB0000067B000007B
S1135A2873B00000745200207C520020845200207D
S1135A3894520020F8560020C454002040F2A813C1
S1135A480EAAF25040F2AC1240F2B01040F2C41464
S1135A582B690121B350AB8A3354C84B1800049303
S1135A6802F0E6FD2B6940F2CC12335140F2C8151E
S1135A7800231421C2487355B35002F0D9FDFCF732
S1135A8853FC0A233370BF4B1B780B2B00D1BFE0A8
S1135A9840F2B01040F2AC11325C33597158B1384D
S1135AA802F0F2FF0390002800D0B3E0B64A53781E
S1135AB8002B00D187E05368002B00DB83E03359C7
S1135AC80122059304993800755DFFF719F9AF4869
S1135AD8FEF73EFAAE48FEF73BFAAE48FEF738FA50
S1135AE802213878FEF796FDAB48133CFEF730FAEE
S1135AF8AA48FEF72DFA305D01214007400FFEF752
S1135B0889FDA748FEF724FAA648FEF721FA305D76
S1135B180121039AC009FEF783FEA148FEF718FA8B
S1135B28A148FEF715FA305D01218006039AC00FDB
S1135B38FEF776FE9A48FEF70BFA9C48FEF708FA39
S1135B48305D01210007039AC00FFEF769FE9048F3
S1135B58FEF7FEF99648FEF7FBF9039C954B0221E4
S1135B68185D0134FEF756FD082CF7D18848FEF776
S1135B78EFF99148FEF7ECF90024904B0221185DE7
S1135B880134FEF747FD082CF7D18148FEF7E0F908
S1135B988B48FEF7DDF9002203212800FEF740FEBA
S1135BA88848FEF7D5F97A48FEF7D2F98648FEF711
S1135BB8CFF9059C6519A54224D17548FEF7C8F9A3
S1135BC87348FEF7C5F9082280497C4804F082FE30
S1135BD8002800D0B3E040F2B1130722F35C13406D
S1135BE8032B1FD140F2C413F15808780238052852
S1135BF800D9BEE005F05CF8A500EC001C01220108
S1135C084B01640120780221FEF704FD0134D2E738
S1135C180123039340F2B1125F21B35C0B40B354E8
S1135C280B233370330044331A78032A0DD1AF326F
S1135C38FF32B25C7F2A06D832006A3212789206A2
S1135C4801D505221A70FBF793FE039B002B00D0A5
S1135C5867E2B233FF33F35C07221C001440032CC1
S1135C6838D140F2CC117158A1B30D78042D00D16C
S1135C782CE1062D00D172E1022D2BD14D4B3900B8
S1135C8818000493FCF762FC20BB149910224431D9
S1135C9807A8FFF735F8412004ABC018102207A95C
S1135CA83C70FFF72DF801AB1D7011232000009301
S1135CB8049A3B00039904F097F858B90399049897
S1135CC804F080F80120404202F0CAFE33000122A9
S1135CD844331A7040F2B115735D5A07520F012A02
S1135CE800D151E1032A00D174E1330044331B7815
S1135CF8002B00D0E2E1142107A814AD069302F0AA
S1135D0897FC1421280002F093FC2A4B06A91800DA
S1135D180393FBF7A1FD002800D0B3E1069BDC68E0
S1135D280493002C00D1ADE120780138032800D970
S1135D389FE104F0BDFF8801FC0109021B02132343
S1135D4867E733002C331B789BB140F2C813F35C2C
S1135D58102B0ED91022013107A8FEF7D1FF380005
S1135D6802F061FB0022380007A903F0ABFF00280A
S1135D7858D040F2CC13002258E0C0468D5400207D
S1135D88AC5400200440002070510020A5AF00004E
S1135D9831AD0000AFAF0000C3AF0000C7AF0000D3
S1135DA8D4AF0000D7AF0000DCAF0000E0AF0000C4
S1135DB8E5AF00008E540020F7AF00009654002091
S1135DC809B000001BB0000021B00000F45200200C
S1135DD840F2C813F35C102BCBD9013107A8102269
S1135DE8FEF78EFFD94D06A92800FCF7AFFB002863
