:020000021000EC
:1000000000FE0120E902010069050100E50201008E
:10001000E5020100E5020100E5020100E502010040
:10002000000000000000000000000000E5020100E8
:10003000E502010000000000E5020100E502010008
:1000400000000000000000000000000000000000B0
:1000500000000000000000000000000000000000A0
:100060000000000000000000000000000000000090
:100070000000000000000000000000000000000080
:100080000000000000000000000000000000000070
:100090000000000000000000000000000000000060
:1000A0000000000000000000000000000000000050
:1000B0000000000000000000000000000000000040
:1000C0000000000000000000000000000000000030
:1000D0000000000000000000000000000000000020
:1000E0000000000000000000000000000000000010
:1000F0000000000000000000000000000000000000
:1001000000000000000000000000000000000000EF
:1001100000000000000000000000000000000000DF
:1001200000000000000000000000000000000000CF
:1001300000000000000000000000000000000000BF
:1001400000000000000000000000000000000000AF
:10015000000000000000000000000000000000009F
:10016000000000000000000000000000000000008F
:10017000000000000000000000000000000000007F
:10018000000000000000000000000000000000006F
:10019000000000000000000000000000000000005F
:1001A000000000000000000000000000000000004F
:1001B000000000000000000000000000000000003F
:1001C00010B5054C237833B9044B13B1044800E053
:1001D00000BF0123237010BD0806002000000000AE
:1001E000C893010008B5034B1BB10349034800E065
:1001F00000BF08BD000000000C060020C8930100ED
:1002000001211B2004F0F4BE08B501211B2004F0DD
:1002100007FFFA2004F0C2FF1B20002104F000FFBA
:10022000BDE80840FA2004F0B9BF08B504F09EFF0D
:10023000002008BD1C207047034AB2F8CC3043F0C0
:100240008003A2F8CC3070470000094037B5012583
:1002500001211B2004F0CCFE00211B2004F0E0FE55
:1002600068460722032107F0B9FEBDF800301C4C98
:10027000C3F38413684607220521E55407F0AEFE58
:10028000BDF800306846C3F3841307220621E55405
:1002900007F0A4FEBDF800306846C3F384130722BC
:1002A0000921E55407F09AFEBDF800306846C3F313
:1002B000841307220A21E55407F090FEBDF80030B0
:1002C0000722C3F384130B216846E55407F086FE2A
:1002D000BDF80030C3F38413E55403B030BD00BF54
:1002E0004206002000BE704708B500F005F8FFF791
:1002F0009CFFFEE77047FFFF4FF47002224B70B582
:10030000C3F88820214A00209A60FFF7F3FF00F02D
:1003100065F80120FFF7EEFF1D4B83F30A881D48A7
:100320001D4A0021121A08F0FCFC1C481C4A1D49F9
:10033000121A08F0EBFC00251B4E1C4CA41BA41049
:10034000A5421CDB00F036F8032000F0A3F90023DF
:100350004FF6FF70164A03F108010133092B22F80A
:100360001100F8D1032000F06BF90220FFF7C2FF63
:1003700000F016F9BDE87040002000F0C5B856F84E
:10038000253098470135DBE700ED00E00000010073
:1003900000EE012008060020AC150020000000201F
:1003A000E8050020D4930100B0050020D40500200A
:1003B000000D0840064B93F826101A6A054BC2F34D
:1003C000026253F82130D340034A1360704700BFE4
:1003D00000E00140E8050020181300204AF2035213
:1003E0003F4B10B5A3F8FE230122A3F50053A3F859
:1003F0000421B3F8042192B2002AFAD1012039492C
:10040000A3F80001384A394B394CC3E900124FF4C4
:10041000004238491A61C3E90221374AC3E905425B
:10042000FFF7C8FF10232E4C84F81334072384F8F9
:10043000A23094F8803433B984F88004014640F245
:10044000C44000F067F8002384F8813484F88034D5
:1004500084F83230224B184693F83C201207FBD523
:1004600043F6013243F20111A3F84820002283F839
:100470004A20198583F82A2090F83C309B06FBD54A
:1004800001221E4B83F81C21052380F826301C4BCB
:100490000362FFF78FFFF1221A4B1A7300221A72C0
:1004A000F0221A7390F8743043F0400380F87430EF
:1004B0000B4B1A4693F87410C909FBD0062146204D
:1004C00083F86C1083F8740083F8741092F8743019
:1004D000DB09FBD14FF42543A2F8FE3310BD00BF6A
:1004E00000E00140002D310100127A00E8050020F3
:1004F00000C2EB0B0024F400001C4E0E00C00140B3
:1005000021120221002000407047A0F101000028C4
:10051000FBD1704770B4124B4FF47A7641431B689D
:1005200010484FF0FF32B0FBF3F00023A1FB06456B
:10053000AB4208BFA24205D3B4FBF0F0800860B91B
:1005400070BC70478000B1FBF0F0A0FB06018B424D
:1005500008BF8242F3D24FF0FF3070BCFFF7D5BF27
:100560001813002000CA9A3B70B500240A4B0B4EAA
:10057000B3F84051ADB225FA04F3DB07E0B203D57E
:1005800056F8243003B198470134102CF3D1024BB4
:10059000A3F8305170BD00BF006000401C13002064
:1005A0007FB5032000F076F86FF0FF021E4B1F4D61
:1005B0009A644FF0FF332C46CDE9013303930126B3
:1005C000002335F813206AB104A95A0901EB82020D
:1005D00003F01F0106FA01F052F80C1C21EA000199
:1005E00042F80C1C0133602BEBD1019A104B1149DE
:1005F0001A60114B0320C3F88022029A0A60C3F8E4
:100600008422039A4A60C3F8882200F019F8002374
:100610000A4A34F8130003F1C0010133602B42F899
:100620002100F6D104B070BD00800040A692010008
:10063000708000407480004000E100E000600040F5
:1006400010B5EFF31081012383F310880E4B33F8BC
:10065000102092B22AB133F81020013A92B223F856
:10066000102033F810309BB25BB9084A084CB2F83E
:10067000FE3334F8100043F4254323EA0003A2F8C4
:10068000FE3381F3108810BDE014002000E001402B
:100690005C91010030B5EFF31084012383F31088DF
:1006A0000C4B33F8102092B252B90B490B4DB1F8F4
:1006B000FE2335F8105042F425422A43A1F8FE23C8
:1006C00033F81020013292B223F8102084F31088FE
:1006D00030BD00BFE014002000E001405C9101004B
:1006E0000B4A08B51168034609B90A491160106838
:1006F000033323F00303084903448B4206D908F06F
:10070000EFFA0C2303604FF0FF3008BD1360FCE7E5
:1007100024060020B015002000EE01200368828A24
:1007200000201A807047036800201B88C3F3C03381
:100730000B7070470368103133F8113000201380BC
:100740007047FFFF002820DB00F160430901C9B2B8
:1007500003F5614383F800130C4B43F820200C4B46
:1007600000F1C00253F822106FF3104143F8221039
:10077000012300F01F024009800000F16040934017
:1007800000F56140C0F880310360704760130020BD
:10079000006000402DE9F8430546CB684E6969606A
:1007A00083610B690C4603620023C3610B88627985
:1007B0005B0203F1804303F5B813897803601302E9
:1007C00043F0400343EA4133F17800295DD043F41C
:1007D0002073022A08BF2F4A707808BF52F8217090
:1007E0002279E1784FEAC2329BB242EA410218BF55
:1007F0000027AB8242EA401096F800C0EFF3108267
:10080000012181F31088DFF894E0B4F80090DEF85D
:100810000C80C9F1100901FA09F128EA0101CEF8AA
:100820000C10DEF80C1082F3108823F400732A6891
:100830005B045B0C1380BBB2138283B2D38182F85A
:100840000CC0737994F90600591E4B424B4182F853
:10085000D030217A2A46FFF775FF2A46617A94F94B
:100860000700FFF76FFF2A46317A96F90600FFF777
:1008700069FF96F907002A46717AFFF763FF0020A7
:10088000054B2861AB60BDE8F883002AA1D143F491
:1008900000439EE7649101004344415200400840F8
:1008A000002810DB012200F01F018A40430906499D
:1008B000203341F82320BFF34F8FBFF36F8F002207
:1008C000024B43F82020704700E100E06013002055
:1008D00070B5002504464368C0E9025593F9060047
:1008E0005E69FFF7DDFF636893F90700FFF7D8FF44
:1008F00096F90600FFF7D4FF96F90700FFF7D0FF3F
:1009000023681D821D80EFF31082012383F310887A
:10091000606806490088CE68C0F110008340334308
:10092000CB60CB6882F31088284670BD0040084039
:10093000D1F800C043684A68F0B58C685E692CF055
:100940004055036822F040571FFA85FEA3F804E0E3
:1009500024F040541FFA87FEA3F814E04CEA020288
:100960001FFA84FEA3F808E03F0C4FEA154E240C52
:1009700012F0405FA3F806E0DF825C8152D0524B58
:10098000524C1B6A2468C3F30267BC40C3F30213D2
:10099000DC404FF47A73B4FBF3F341F236045C436A
:1009A0004B4BB4FBF3F40134072C38BF072412F08F
:1009B000805322D0EFF31083012787F31088454F2F
:1009C000D7F80CC02CF4800CC7F80CC0FF6883F378
:1009D00010889027404B1F700368E7B283F8DE70E1
:1009E0000B688F6813F0805F0CBF4FF480634FF487
:1009F0008073FF0048BF43F00103920007680FD5E2
:100A00000A68E4B292008A6848BF43F4007387F82A
:100A1000DF4058BF43F40063940048BF43F0020333
:100A20009BB27B82CC680368002C4BD027893A05A7
:100A30001FD56289A3F89070A3F89C20A289A3F81F
:100A40009E2022681FFA82FCA3F894C0C2F30B4CCC
:100A5000120FA3F896C083F8922062681FFA82FCF6
:100A6000A3F898C0C2F30B4C120FA3F89AC083F8F6
:100A70009320BA050CD5A27C94F813C042EA0C026C
:100A800083F8A620E289A3F8A820228AA3F8AA2046
:100A90000A8AA3F89070A3F88020F27862B1B5FAC0
:100AA00085F51A8892B222F01F021F32521B92B2B1
:100AB0001A80838A1A438282084BC3600B680361E1
:100AC0000020F0BD2746E3E700E0014018130020B6
:100AD00040420F000040084000300F404344415264
:100AE00060B10268074B9A420AD1D0E90223013B68
:100AF0009BB21380F12300201372704701207047CE
:100B0000072070475447410070B10268084B9A4271
:100B10000CD181680A7A02F001020B7AC3F3400318
:100B20009A42FAD100207047012070470720704791
:100B30005447410010B50446FFF7E6FF08BBF42216
:100B4000A3681A721873636893F9123013F1210FB6
:100B500015D0002B0DDB01215A0903F01F0301FA08
:100B600003F30849203241F82230BFF34F8FBFF31F
:100B70006F8F636893F91220034B43F822400023E0
:100B8000236010BD00E100E06013002010B50446B2
:100B9000FFF7BAFF70B9D4E901120B78012B07D126
:100BA000E3680C7C044941F82430013B9BB213807C
:100BB000F123137210BD00BF28060020F0B518B352
:100BC00011B3CD6905B3604A0368934200F0AD806C
:100BD0004B6913B90B78012B04D191F91230002B1A
:100BE000C0F2A5804B68013BB3F5803F0CD23F2497
:100BF0000B7CDC40E60740F19C802D78502D40F0C6
:100C00009B80DC0700F18580012081E0032CFBD86C
:100C1000022CF9D003F5800303F568631B02C0E9D9
:100C20000113EFF31086012383F310880C7C474FE8
:100C3000032C474D9ABFC4F103043D46C4F113048D
:100C4000A340DB432F68414C3B402B600D7C404B65
:100C5000032D98BF23461B6886F310880023846801
:100C60002372237AC3F34003002BFAD1CD69A37218
:100C70002E7895F804C0ED7805F00705002E4DD1CB
:100C80000B7A002B4FD083F002031F01334600265E
:100C90003D43EDB2DBB284F80CC0A6736572A3725B
:100CA0004B684568C3602F7C2A4D45F82730013BCF
:100CB0009BB2238091F91230B34221DB4C7C03F1CB
:100CC00060452401E4B205F5614585F80043224CF6
:100CD00003F1C00544F82300204C54F8257066F356
:100CE000104744F82570012403F01F055B099B00A1
:100CF00003F16043AC4003F56143C3F880411C60DD
:100D00004B6903618B69026083610023436118466C
:100D1000F0BD0C7A002C3FF47DAF75E7502E3746BE
:100D2000B5D00B7AB3E71F46B1E70E20F0E70B20F2
:100D3000EEE740F27A50EBE70C7A002D3FF466AF15
:100D4000072C7FF667AF5FE7544741000C4008402F
:100D5000104008402806002060130020006000407A
:100D6000F0B585B0EFF30383103B5BB21D4A03F18E
:100D7000C00152F821006FF3104042F821001A4AD6
:100D800052F823406168A2680978137A012908BFE4
:100D9000F421DBB2276902BF03F0F0031172137272
:100DA000BFB1656901AED5B195E8070086E80700D7
:100DB0009B0644BF00232B71A36928462B60B847CC
:100DC00063691BB196E8070083E80700A3681B7AF4
:100DD000DBB2A26803F00F03137205B0F0BD354615
:100DE000E6E700BF00600040601300201A4B70B5BA
:100DF000C3600B7803F001034370EFF31083012508
:100E000085F31088154AD46824F48014D460D2681D
:100E100083F31088EFF3108685F31088C368447855
:100E20001A79B4B964F386121A7186F310884A6885
:100E3000C468D378DB01DBB263714B78DB01DBB2D2
:100E4000A371537803720B780370054B4360002045
:100E500070BD6FF3C712E7E700101740004008406D
:100E600000434144C3684278002023F812107047C1
:100E700010B5EFF31084012383F31088C368417821
:100E80001A7931B961F386121A7184F3108800203F
:100E900010BD6FF3C712F7E710B50146EFF31084EA
:100EA000012383F31088CB6840781A7958B960F32E
:100EB00086121A711A7A60F386121A7284F31088F5
:100EC0000020486010BD6FF3C7121A711A7A6FF3D1
:100ED000C712F2E7037A70B50446002B4BD0427874
:100EE000C368002033F8125023F81200ADB2EFF3BC
:100EF0001081012383F31088E36866781A7946BB72
:100F000066F386121A711A7F42F040021A771A7A33
:100F100042F040021A721A7942F040021A7181F3CB
:100F2000108801210420FFF7F5FAEFF31080012368
:100F300083F31088E36861781A7FC9B961F3861278
:100F40001A7780F31088E368627823F81250002043
:100F500070BD60F3C7121A711A7F42F080021A77CF
:100F60001A7A42F080021A721A7942F08002D5E7AA
:100F70006FF3C712E4E7EFF31081012383F31088C6
:100F80004278C36832B91A7942F040021A7181F38B
:100F90001088DCE71A7942F08002F7E7094B00F18C
:100FA000C00253F822106FF3104143F822100122BF
:100FB000430900F01F0002FA00F0034A603342F8D0
:100FC000230070470060004000E100E0D0E90232F9
:100FD00000205A607047436830B5DA69536843F0BF
:100FE0000041936843F00045D36843F000448368B0
:100FF00000205D619C6119611169526959629A62B0
:1010000030BDFFFF002810DB012200F01F018A40E5
:1010100043090649203341F82320BFF34F8FBFF324
:101020006F8F0022024B43F82020704700E100E060
:101030006013002038B543680446DD6993F9120057
:10104000FFF7E0FF95F92400FFF7DCFF95F9250095
:10105000FFF7D8FFAB6A1BB193F90100FFF7D2FF8E
:10106000D4E90232002020609A60586338BDFFFF47
:1010700038B5041E12DB0A4D09012B19C9B283F8D9
:101080000013084B43F82420FFF788FF012362096F
:1010900004F01F0403FA04F445F8224038BD00BFF1
:1010A00000E100E06013002030B5856840686C6E98
:1010B0000078032898BF013409B18C421DD813F081
:1010C000010F6B6B0CBF03F01F03C3F30443032832
:1010D00007D91B0983F0010349B9A3B9022353605F
:1010E00030BD03F00C03181F43424341F4E78C4228
:1010F00001D8002BF2D10323F1E7032898BF01F1B7
:10110000FF311160ECE7002CE8D0F4E7F0B583691B
:1011100085B005460F46164601AC93B193E807002B
:1011200084E80700EA691F711A609E6018466A69C0
:101130009047AB691BB194E8070083E8070005B04E
:10114000F0BD2346EEE70B0143EA8113022843F486
:10115000807306D007D8002914BF09200620184341
:1011600070470920FBE70320F9E7FFFF01232DE982
:10117000F74F0A7C0F4603FA02F1C160090718BF56
:1011800000230374734B044613441B0283607B6982
:1011900047604361BB69FD69C36100238361EFF36D
:1011A0001081012282F310886B4897F810C00669FD
:1011B000CCF11F0C02FA0CF226EA0202026102696B
:1011C00081F310884FF42541A26838781160D3620A
:1011D0007968D36393643B7A03284FEAC35301F1E0
:1011E000FF3640F0A18043F48033D3624FF00043D8
:1011F0004FF0000C136153619361AB69C2F824C0D6
:10120000C2F828C0D361EB69D5F82C8013629666CA
:1012100056664FF0FF32CDE9002C002840F089805F
:10122000490811440091009BA268D5F82CB0536581
:101230009365019B97F800A04FEA036949EA0349C7
:10124000BBF1000F0FD12B782BB169785046FFF717
:101250007AFF48EA0008AB782BB1E9785046FFF7EF
:1012600072FF48EA0048AE6A002E6ED0B378F1787B
:101270001B0643EA0173317943EA01439363B36880
:10128000C2F88C30002B5ED1F168003118BF01210B
:10129000BBF1000F06D1337FF07E5B0643EA4023AB
:1012A00048EA0308C2F88810BBF1000F08D195F88E
:1012B000213095F820105B0743EA413348EA0308E0
:1012C0004FF4AA03BAF1010F136402BF0023D364E1
:1012D0001365E36897F91200D36049F00303C2F87D
:1012E0003480136349F001031363797C2246FFF7CE
:1012F000BFFE224695F8221095F92400FFF7B8FEAC
:10130000224695F8231095F92500FFF7B1FE2EB17E
:101310002246317896F90100FFF7AAFE00200F4B14
:10132000236003B0BDE8F08F84BF43EA00430E465C
:101330005BE701287FF677AF63466A46F968204687
:10134000FFF7B2FE6FE70121A2E79663C2F888605B
:10135000AAE700BF901640000040084054504700E4
:1013600010B5EFF303801038114B40B200F1C0020A
:1013700053F822106FF3104143F822100D4B53F82D
:10138000204063681B78012B08D1D4E902329A60AF
:1013900000229A64DA641A65FFF700FE636933B1CC
:1013A00000222046BDE810401146FFF7AFBE10BD39
:1013B0000060004060130020EFF31080012383F3EE
:1013C0001088064B196819B9054AD1704021D170AF
:1013D0001A6801321A6080F3108870475C1300208D
:1013E000000D0840EFF31081012383F31088074BB1
:1013F0001A6812B11A68013A1A601A681AB9044BCD
:10140000DA708022DA7081F3108870475C13002054
:10141000000D08400123C8B283409BB20AB11A46AE
:101420000023090A490101F1804101F5002142EA46
:1014300003428A6000207047020A11F4803F30B5F1
:10144000C0B2094C4FEA02130AD01A1854F82250BD
:101450006FF3104544F8225021F4803544F82250AF
:10146000034444F8231030BD0008084038B5154641
:101470000C46FFF7A1FF20462946FFF7DDFFFFF7E7
:10148000B1FF002038BDEFF30380103840B2704741
:101490000B4B00F1C00253F822106FF3104143F8D8
:1014A0002210012300F01F024009800000F160407B
:1014B000934000F56140C0F880310360704700BF81
:1014C000006000400122430900F01F0002FA00F012
:1014D000044A203342F82300BFF34F8FBFF36F8FCE
:1014E000704700BF00E100E0030A084A1B0153FAFD
:1014F00080F052F8203041F0040123F0011323F46E
:1015000040430B4342F82030704700BF00080840BA
:10151000EFF31080012383F31088064B196819B983
:10152000054AD1704021D1701A6801321A6080F3E7
:10153000108870475C130020000D0840EFF3108105
:10154000012383F31088074B1A6812B11A68013A15
:101550001A601A681AB9044BDA708022DA7081F3C3
:10156000108870475C130020000D084070B50D46D0
:10157000016A04468B7803F07B038B7003786BB1B0
:10158000C0E90352E369186980B9236A9A7842F086
:1015900080029A702078E8B1002070BD837803F053
:1015A0000303D21A2B440261C360EBE72269002ACD
:1015B000EBD0A378816803F00303013B22FA03F325
:1015C00000228E6822619BB2E1680068B047002863
:1015D000DBD0E2E7A27802F00302022A09BF2A88E0
:1015E0002A7842F47E42DA8118BFDA70D5E770B407
:1015F0000C4649680D681360067816B103F10C06B5
:101600001660C069407830B90126E8780B3366F37C
:101610000510E8701360A36820681B6870BC184749
:10162000F0B5846A85B006468C4617466D46B4B15F
:1016300094E80F0085E80F00F36920461B78C4F892
:1016400008C02360F36A2771E360736A9847B46A3D
:101650001CB195E80F0084E80F0005B0F0BD2C46E2
:10166000EAE7FFFF38B500230446026A436093703F
:10167000C36993F90500FFF725FFE36993F90B00B0
:10168000FFF720FFE36993F90700FFF71BFFE3690A
:1016900093F90900FFF716FFE369DB681BB19A684D
:1016A0001868126A9047E3691B691BB19A68186849
:1016B000126A9047EFF31082012383F31088E069E8
:1016C000064900784D68C0F11F0083402B434B60F2
:1016D0004B6882F31088002038BD00BF00400840EE
:1016E0002DE9F84340F219230D4609780446CB4012
:1016F00013F0010318BF102303706B6901F580021A
:101700004362AB6902F58C52C3620023120202628B
:10171000012283628378C56162F3010383706B7871
:1017200023B90222837862F30103837095F90B7069
:10173000AE7A3846FFF7C6FE9D4907F1C00351F85F
:10174000232036016FF3104241F82320F3B2994E63
:10175000DFF86C82F21982F8003395F9059048F8A9
:10176000274048462F79FFF7ADFE09F1C00351F835
:1017700023203F016FF3104241F82320FFB206EB14
:10178000090383F8007348F8294095F90790AF7969
:101790004846FFF797FE09F1C00351F823203F01A7
:1017A0006FF3104241F82320FFB206EB090383F8E0
:1017B000007348F8294095F909902F7A4846FFF7B9
:1017C00081FE09F1C00351F823203F016FF310425D
:1017D000FFB24E4441F8232086F80073E96848F8C8
:1017E0002940002940F09F802969002940F0AD8000
:1017F000EFF31082012383F310886F492E78486835
:10180000C6F11F06B34020EA03034B604B6882F326
:1018100010880022236A9A701A715A729A72DA72C8
:101820005A8340F219222978CA40D20701D54022B2
:10183000DA7406221A772178E069A9B1C268013901
:10184000002A40F09980C269127A0A40120202F41A
:10185000706242F001060A0392B2324342F006017E
:101860009982998A8A42FCD1EA78A978D20042EA20
:1018700001126978032940F08180F22142F0400290
:10188000EE69D2B21A70327BC9B2082A0EBF0A22A0
:10189000520002F0020299715A73B17872784901CC
:1018A000D20101F02001D2B20A4300213578197229
:1018B000A91E012967D8FF21022D08BF42F010029E
:1018C0005970D2B20027DA7190F90500C4E90377A4
:1018D000C4E90577FFF7DCFDE36905F0030593F93B
:1018E0000B00FFF7D5FDE36945F0700593F907009C
:1018F000FFF7CEFDE36993F90900FFF7C9FD4FF645
:10190000FF72236A9D7073899342238107D0FFF78A
:10191000FFFD39462089FFF7E7FDFFF70FFE274B54
:10192000002663600EE04B6820461A684FF40023DF
:1019300042F8043B236A0533FFF759FE06460028A8
:101940003FF452AF3046BDE8F8834B6820461A6832
:101950004FF0006342F8083B236A0333FFF747FE6A
:10196000064600283FF444AFEB68002BEAD09A68A3
:101970001868126A9047E5E701266CE700290CBF5A
:10198000E221F2217CE77168D2B2DA718A784F786D
:101990005A701A7867F301021A70CA789A74DF795C
:1019A0000A7807F0A30102F05C020A438AE700BF4D
:1019B0000060004000E100E000400840554943530A
:1019C0006013002030B5036A044600209A78D2B232
:1019D00002F07B0502F00B029A70E0608A784C7886
:1019E0005A701A7864F301021A70CA789A74DC7912
:1019F0000A7804F0A30102F05C020A43DA719D70D8
:101A000030BDFFFF2DE9F04F1C46FF23A370237864
:101A10004FF000096FF38203237080238BB0E370D3
:101A20004A4B06924A4A1B6A12680091C3F302614C
:101A30008A40C3F30233474D22FA03FBABFB052375
:101A4000CDE904234FEA1B2308900793CDF80C90AF
:101A5000069BAB4201DB00202AE000265FFA89F3F7
:101A600009933D4B9B5DC3F34002C3F38003029394
:101A700013460192029A1343099A9A420DD1374BA9
:101A800033F81680089B03FB08F8BBFBF8F7B7F5A3
:101A9000807F02D807FB08FA6FB901360D2EE0D11E
:101AA000B9F1000F4FD0069BAB42B4BF032000201A
:101AB0000BB0BDE8F08F5246DDE90401D31706F004
:101AC00045FF009BA0F5C330013FA038002B38D064
:101AD000079BBAFBF3F37F2BDFD94FF4807200F53D
:101AE000C330A030584390FBF2F0A0F5C330A038CB
:101AF0000028B8BF4042854216DD174AA770915DA5
:101B00002278C1F3000565F38612019DC1F3C1017E
:101B100065F30412029D039365F3C3020546227028
:101B2000627861F301026270009BAAEB080A002B45
:101B3000B3D0237843F0040323709DF80C30E37096
:101B4000AAE7009BD4E74FF0010981E700E00140DC
:101B500018130020A0860100709101007E91010001
:101B6000F8B5FFF790FC2F4B00F1C00253F822109C
:101B70006FF3104143F822102B4B53F82000C36938
:101B80001B6983B9046974B10778036A002F34D0E4
:101B9000DA8AC2F304229742056900D9B5B91A79E5
:101BA0006FF3C7121A71016900293AD1026A93785A
:101BB00003F07F0343F004039370436AC160002B7A
:101BC0002FD0BDE8F8408022FFF72ABD8478C16895
:101BD00004F00306022E0CBF0E880E7804F00304F6
:101BE00008BF46F47E46A5EB040521440CBFDE8108
:101BF000DE7301320561C160CDE78178C26801F012
:101C00000305022D09BF1588157845F47E45DD8151
:101C100018BFDD7001F00303E41A1A440461C260C6
:101C2000C1E7F8BD006000406013002013B5FFF766
:101C30002AFC3A4B00F1C00253F822106FF3104116
:101C400043F82210364B53F82040E369DB6813B1A8
:101C5000A369002B53D14FF6FF7322899A4205D016
:101C6000FFF756FC01212089FFF73EFC2278236A0A
:101C70003AB3DA8AD20612D01B8AC3F3080301935F
:101C8000A3692BBB636A23B1042201992046FFF7A5
:101C9000C7FC23781BB1236ADB8ADB06E6D12378F5
:101CA00013B1BE22236A1A714FF6FF73208998423E
:101CB00031D00021FFF718FC02B0BDE81040FFF75B
:101CC0003DBCA27802F00302022AD5D05B79D6E7A8
:101CD000A27801A902F00302606907F017F8A17861
:101CE000626901F00303A1691A44C91A6261A16122
:101CF0000029CED1636A002BCBD00122C6E7002198
:101D0000636AC4E9051133B10122204602B0BDE87F
:101D10001040FFF785BC02B010BD00BF006000405E
:101D20006013002010B5FFF7AEFB0C4B044653F8D0
:101D30002000026A937803F07B039370436A1BB11F
:101D400002220021FFF76CFC054BC03453F824201D
:101D50006FF3104243F8242010BD00BF6013002031
:101D60000060004038B5FFF78EFB174B044653F870
:101D700020000278036A22B9827802F00302022A64
:101D80001ED1198AC1F308011D79EDB205F03802A0
:101D9000ED0604D51D7FED0758BF42F040021D79C6
:101DA00005F0C7051D71436A0BB1FFF739FC074BFE
:101DB000C03453F824206FF3104243F8242038BD78
:101DC0005979C9B2E0E700BF60130020006000400D
:101DD000EFF30380103840B27047036870B50446D3
:101DE000586988B194F82D3003F0FF0563B9836812
:101DF0002A469E68A169238C0068B047E369256282
:101E00006362012384F8333070BD73B5856B04467B
:101E10000B466E462DB395E8030086E80300E26B9F
:101E20002B7123682A605B6933B194F82D201AB9AD
:101E30009A6818681269904723689B6933B194F8CF
:101E40002D201AB19A68186812699047636B28466A
:101E50009847A36B1BB196E8030083E8030002B028
:101E600070BD3546DBE7FFFF08B5FFF7B1FF044B58
:101E7000C03053F820206FF3104243F8202008BDF3
:101E80000060004070B5FFF7A3FF5C4BC03053F813
:101E900020206FF3104243F82020FFF799FF584BA2
:101EA00053F820402269137B13F0010340F0858032
:101EB00094F82C1094F82A00884219D094F82D3008
:101EC00023B1022902D15223D37210E02046FFF73A
:101ED00084FF236994F82820DA7094F82B30013BB2
:101EE00084F82B3094F82C30013384F82C3070BDFA
:101EF00094F8331001F0FF0511B184F83330F6E7A0
:101F0000216A002950D094F82D304BB9636AA26938
:101F10000139D25C0133216263622369DA70E6E73A
:101F200094F83130002B34D0236884F8315059694B
:101F300009B39869F8B1E369022B1CD9F4219170B7
:101F40008268023B96689BB2A26929460068B04746
:101F5000236829465869E3698268023B96689BB208
:101F60002A460068B04702232362E369023B6362AA
:101F7000012384F83330236A012B02D9002223691C
:101F80009A72236A012B02BF202223699A72FF22D0
:101F9000C3E75179636AA269D154236A013B236282
:101FA000636A01336362ECE794F82E3083B1522305
:101FB000D372012384F8303099E794F82D3013B1AF
:101FC00094F8313033B100232362012384F82F3099
:101FD000542379E75179636AA269D154236A94F84A
:101FE0002E20013B2362636A01336362236912B1CD
:101FF0005222DA72DDE75422DA7278E7006000409C
:102000006013002010B5FFF7E3FE324B53F8204079
:102010002269D37A6FF3C303D37294F82F1001F0BF
:10202000FF0331B1F0230121D3722046FFF7EDFE0B
:1020300021E094F82A0094F82C10884234D029BB6F
:10204000012802D12046FFF7C8FE94F82A30012B60
:102050000CBF94F8283094F8293000212269D172FD
:10206000D37094F82B30013B84F82B3094F82C304B
:10207000013384F82C30FFF7ABFE174BC03053F818
:1020800020206FF3104243F8202010BD94F82D203B
:1020900002F0FF0032B10229DFD194F8293043F079
:1020A0000103DAE70346D8E7236A002BE3D194F86B
:1020B0002D1094F83000002914BF0221032108B12B
:1020C000D372B2E7F023D372937803F0CF03937007
:1020D000ABE700BF6013002000600040EFF3038017
:1020E000103840B270474369C269934206D2D0E9C2
:1020F000021202B1D25C0133CA70436170477FB5EE
:10210000436A05460E4601ACA3B193E8070084E894
:1021100007006A68184612781E711A60AA6A9A60E7
:102120002A6A90476B6A1BB194E8070083E80700AE
:1021300004B070BD2346ECE710B5FFF7CFFF0E4BA0
:1021400000F1C00253F822106FF3104143F822103F
:102150000A4B53F820402046FFF7C5FF6269E36948
:102160009A4208D1236933B9A268937803F07B03BC
:1021700043F00403937010BD006000406013002022
:1021800010B5FFF7ABFF124B00F1C00253F822105D
:102190006FF3104143F822100E4B53F820402046B5
:1021A000FFF7A1FFD4E90632934205D2A168226964
:1021B0004979581CA061D154D4E906239A4206D12A
:1021C000A268937803F03B0343F00403937010BDBF
:1021D000006000406013002010B5FFF77FFF044649
:1021E000094B012153F82000C0348268937803F032
:1021F00003039370FFF783FF044B53F824206FF31E
:10220000104243F8242010BD6013002000600040FD
:1022100010B5FFF763FF0C4B044653F82000042170
:102220008368C0349A7802F003029A701A79842283
:102230001A71FFF764FF054B53F824206FF3104227
:1022400043F8242010BD00BF601300200060004050
:10225000EFF30380103840B27047FFFF0B4B00F1E3
:10226000C00253F822106FF3104143F822100123EB
:1022700000F01F024009800000F16040934000F52B
:102280006140C0F880310360704700BF00600040CB
:102290000122430900F01F0002FA00F0044A203333
:1022A00042F82300BFF34F8FBFF36F8F704700BF1B
:1022B00000E100E037B5836B04460A466D46A3B1E2
:1022C00093E8030085E80300E16B18461A71196072
:1022D000626B9047A36B1BB195E8030083E8030092
:1022E000002384F82B3003B030BD2B46ECE7FFFF12
:1022F0001F22F8B5036905461A705F221A70DF22A3
:1023000000680C46416A1A700A792C4E42F0E002CD
:102310001A74CA782A4F42F0E0025A748A7812017D
:1023200002F0700242F008029A700A784978012A95
:102330000CBF0522042242EA4102D2B2DA702149DE
:10234000426894F911008A420CBFF72277225A7131
:1023500000229A71B322DA71637B32181B01DBB25F
:1023600082F8003347F82050FFF778FF637B94F939
:102370000F001B013218DBB282F8003347F82050FF
:10238000FFF76CFF637B94F910001B013218DBB27E
:1023900082F8003347F82050FFF760FF637B94F921
:1023A0000E001B01DBB2064486F8003347F82050CC
:1023B000FFF754FF9F222B691A70F8BD00E100E07F
:1023C0006013002040420F00C36910B504462BB9CA
:1023D00090F82C3013B990F82B308BB131B100222A
:1023E00023692168DA712046FFF782FF002394F801
:1023F0002620E36184F82820A26984F82C30226228
:10240000B3222369DA7110BD13B5FFF721FF3F4BEB
:10241000C03053F820206FF3104243F82020FFF71C
:1024200017FF3B4B53F8201091F82D30CC69E3B9DE
:102430008A690B69022A9EBF1A7942F040021A711A
:10244000012C07D11A7942F010021A711A7942F060
:1024500008021A71DB7CDBB28DF807309DF807307B
:10246000012381F82D3002B010BD002CFBD0032CCD
:1024700017D10A69137943F0400313710B694A6954
:10248000D87C0B6AD0540B6A01330B62CB69013BD9
:10249000CB61002BE7D109690A7963F386120A71CF
:1024A000E1E7022C09D10B691A7942F010021A7186
:1024B0001A7942F008021A71E0E7012CDED191F896
:1024C0002A30D3B10B6893F90F00FFF7E1FE0B69D7
:1024D000DA7942F08002DA711A7942F010021A7148
:1024E0001A796FF3C3021A7104225A705A796FF382
:1024F00000025A7181F82C40C0E70B695A7A02F049
:10250000F7025A7208225A70B8E700BF0060004014
:102510006013002010B5FFF79BFE304BC03053F81E
:1025200020206FF3104243F82020FFF791FE2C4B40
:1025300053F8203093F82720AAB193F8260093F897
:102540002810032804D1022902D193F8300048B1A1
:1025500093F8244018690131013A847483F82810F3
:1025600083F8272010BD93F82920002AFAD1DA69D0
:1025700042B1D3E90404196A013A645C01318474FC
:102580001962DA61D8690028ECD11A69D17960F34F
:10259000C711D171C021D079C00901D00139FAD158
:1025A0001B680E4993F9103003F1C00051F8204028
:1025B000002B6FF3104441F8204009DB012059093A
:1025C00003F01F0300FA03F30648603140F821309E
:1025D000D37943F04003D371C4E700BF00600040EB
:1025E0006013002000E100E010B5FFF731FE214B41
:1025F00053F8201091F8293033B191F82730012B8E
:1026000002D191F83030BBB1CC69ACB991F82A3025
:1026100043B30B6893F90F00FFF73AFE0B69DA79C1
:1026200042F08002DA7104225A705A7964F300028F
:102630005A71012381F82C300A69D3796FF386131C
:10264000D371C023D179490601D5013BFAD1FFF7F7
:10265000FFFD094BC03053F820206FF3104243F8C0
:10266000202010BD0B695A7A02F0F7025A72082234
:102670005A70E1E7601300200060004038B5FFF7B2
:10268000E7FDE0212F4B53F8204023695A7A597215
:10269000D2B212F010000CBF0146597802F00305C7
:1026A0001CBFC1F3801181F00101294308D001252D
:1026B000294684F82B502046FFF786FE012139E099
:1026C00018B35978C1F3801049061ED584F82B0041
:1026D0005A7A02F0F7025A7208225A702268526A35
:1026E0001278012A0CBF03220222DA705A7942F0D2
:1026F00001025A71FFF7ACFD134BC03053F8202094
:102700006FF3104243F8202038BD12F0080105D1C4
:1027100094F82C000028EDD05207EBD594F82B202C
:1027200062B994F82920002A4FF0B30214BF0221A5
:102730000321DA712046FFF7BDFDDBE70029BDD09C
:102740000021B8E76013002000600040EFF3038031
:10275000103840B27047F0B5C36A85B005460E46E2
:10276000174601AC93B193E8070084E807002A6B91
:102770005F601A601E721846AA6A9047EB6A1BB126
:1027800094E8070083E8070005B0F0BD2346EEE7B4
:1027900038B502250446826880F8215053796FF3DA
:1027A00000035371C269FFF7D6FFA368DD705A7941
:1027B00042F001025A7138BDA022836810B4DA7168
:1027C000002280F8202080F822205C7962F3000447
:1027D0005C7190F8244054B15A720023C269C361FD
:1027E00002235DF8044B80F82130FFF7B4BFDF22ED
:1027F0001A709F221A70F0E738B50123B3220446FD
:1028000080F8203083680D46DA71FFF7C1FF94F835
:102810002130012B03D1042D06D0082D04D094F8CB
:1028200021308BB9052D0FD194F8233063B994F87A
:102830002120A3681AB95A7A02F0F3025A72BF2211
:10284000DA71012384F8233038BDFFFF13B5FFF799
:102850007DFF364BC03053F820206FF3104243F811
:102860002020FFF773FF324B53F8204094F82230BA
:10287000B3B9012384F82230A368DA7CD2B28DF890
:1028800005209DF8052012F0010F5A7A14BF02F0BE
:10289000F70202F0F3025A72AC22DA7102B010BDF4
:1028A00094F820304BB9A36820461B7A13F0080F28
:1028B00014BF08210421FFF79FFF216999B9A3687C
:1028C000DA7CD2B28DF806209DF806201A7942F003
:1028D00010021A711A7942F008021A711A7961F31A
:1028E00004121A71DAE7A369994217D1062120462A
:1028F000FFF74EFF2169A36831B9DA7CD2B28DF8B7
:1029000007209DF80720E1E7A269E168DB7C501C05
:10291000A0618B54E3690133E361BFE7D4E902129C
:10292000C97C581CA061D154F4E700BF006000408E
:102930006013002038B5FFF709FF224BC03053F871
:1029400020206FF3104243F82020FFF7FFFE1E4BBC
:1029500053F8204094F820301BB905212046FFF79A
:102960004BFF94F8213003F0FF0503BBA3692169F5
:10297000A26899421CD12368124993F90E3003F1E1
:10298000C00051F82040002B65F3104441F820406E
:1029900009DB0120590903F01F0300FA03F30B4878
:1029A000603140F82130D37943F04003D37138BD12
:1029B000E168C95C01339174A361E3690133E361A8
:1029C000F5E700BF006000406013002000E100E078
:1029D00010B5FFF7BBFE174B53F82040A3681B79D7
:1029E000580710D407212046FFF7D2FE94F8213073
:1029F0004BB9D4E90221A369C95C01339174A36185
:102A0000E3690133E361A268D3796FF38613D3716D
:102A1000C023D179490601D5013BFAD1FFF796FED3
:102A2000054BC03053F820206FF3104243F82020AC
:102A300010BD00BF601300200060004007B5FFF725
:102A400085FE1E4B53F820008268537ADBB299074B
:102A500012D00023012180F82430FFF7ADFEFFF7EC
:102A600075FE174BC03053F820206FF3104243F827
:102A7000202003B05DF804FB13F00C0F11D00123EC
:102A800080F8243090F82130012B08D00269836946
:102A90009A4202D9C369013BC3610321DDE70221E8
:102AA000DBE7DB06DBD5D37CDBB28DF807309DF8A6
:102AB0000730D37903F0EF03D371D0E76013002020
:102AC0000060004037B5EFF30384154B103C64B24F
:102AD00053F82430134A5879115C01F0030103299B
:102AE0001BBF04F1C00152F8215001256FF31045BE
:102AF00018BF42F821509A6818BF00252AB1DB6838
:102B0000019002A840F8083D90473DB1054BC03404
:102B100053F824206FF3104243F8242003B030BD53
:102B20006013002000600040EFF30380103840B2D3
:102B30007047FFFF0123420900F01F0003FA00F075
:102B4000014B43F82200704700E100E010B40B4A4B
:102B500000F1C00152F8214000F01F036FF3104450
:102B600042F821400121420901FA03F3044960328D
:102B700041F822305DF8044BFFF7DCBF00600040F5
:102B800000E100E00122430900F01F0002FA00F01A
:102B9000044A203342F82300BFF34F8FBFF36F8FF7
:102BA000704700BF00E100E07FB5836A05460E462E
:102BB00001ACA3B193E8070084E807006A681846EF
:102BC00012781E711A60EA6A9A606A6A9047AB6A64
:102BD0001BB194E8070083E8070004B070BD2346EA
:102BE000ECE7FFFF10B5FFF79FFF194B00F1C002A4
:102BF00053F822106FF3104143F82210154B53F88D
:102C00002030D3E906218A4205D01969986869B94C
:102C1000416801329A61D3E90612914216D1BDE8AA
:102C200010405B6893F90300FFF784BF93F82040DE
:102C30000F2C03D9406841F82200EAE7072C95BF22
:102C400000798088885421F81200E2E710BD00BFA7
:102C5000006000406013002010B5FFF765FF1E4BB9
:102C600000F1C00253F822106FF3104143F8221014
:102C70001A4B53F8204063681A6A5AB15278012AF5
:102C800008D1E2696169013A8A420ED193F90300E1
:102C9000FFF75CFF6369E269934205D0D4E9021251
:102CA0005AB94A600133636110BD1A69002AF1D034
:102CB00093F90300FFF73EFFECE794F820000F289C
:102CC00002D952F82320ECE7072895BFD25C32F8EE
:102CD00013200A718A80E5E700600040601300203D
:102CE00010B5FFF721FF184B00F1C00253F8221076
:102CF0006FF3104143F82210144B53F82040A3689F
:102D0000DB789B0703D563685B7A012B1AD1FFF749
:102D100039FF636893F90200002801DBFFF732FFF7
:102D2000A26813786FF386131370636893F9020037
:102D3000002801DBFFF70AFF2046BDE81040012113
:102D4000FFF732BF10BD00BF0060004060130020DD
:102D500070B5FFF7E9FE1C4B064653F82040636848
:102D600093F90200002801DBFFF70CFFA26813783B
:102D70006FF386131370636893F90200002801DB78
:102D8000FFF7E4FE0022A368DD78DA70EDB22A07CF
:102D900003D505212046FFF707FFEB0703D50421E4
:102DA0002046FFF701FF05F01405142D03D108217B
:102DB0002046FFF7F9FE054BC03653F826206FF387
:102DC000104243F8262070BD6013002000600040D0
:102DD000EFF30380103840B270472DE9F041076AE5
:102DE0008AB080460C469FB16E463D460FCD0FC659
:102DF0000FCD0FC695E8030086E803000FCC3E46D2
:102E00000FC60FCC0FC694E803003C4685E80300CC
:102E10002046D8F81C309847D8F8204044B16D4679
:102E20000FCD0FC40FCD0FC495E8030084E8030055
:102E30000AB0BDE8F081FFFF002809DB0122430949
:102E400000F01F0002FA00F0024A403342F823006B
:102E5000704700BF00E100E030B58BB0FFF7B8FF6E
:102E6000274BC03053F820206FF3104243F8202046
:102E7000FFF7AEFF234B282253F82050002168466D
:102E800005F04FFF00206C6894F84D2884F84D0839
:102E9000D2B2ADF80420B4F84238C3F30013B3B192
:102EA000022342F02002ADF8042094F8532884F85D
:102EB000533894F85238D2B203F01F0384F85328E1
:102EC000E11891F8202860F3820281F820282A680E
:102ED00069461268284600926A6ACDE90332FFF714
:102EE0007CFFB4F84238DB0607D52B681A69127DDF
:102EF0001AB193F91500FFF79FFF0BB030BD00BF6B
:102F00000060004060130020F0B58BB0FFF760FF59
:102F1000354BC03053F820206FF3104243F8202087
:102F2000FFF756FF0022314B054653F82000446856
:102F300094F8533884F8532894F85228DBB202F0FE
:102F40001F0202F12007390184F85338635854F8FE
:102F500001C0C3F380768DF8196006683169097B7A
:102F600041EADC7101F001018DF8181071BBC3F367
:102F70008A4304EB07170593BB8804EB0217C3F3DE
:102F80000303082B88BF08238DF81A3000239DF80F
:102F90001A108B421DD34421A31883F82018002354
:102FA00007934FF48063ADF80430336869460093AB
:102FB000436A03920493FFF710FFB4F84238DB072B
:102FC00002D52846FFF738FF0BB0F0BD23F0604371
:102FD000CFE707EB030C9CF806E20DEB030C8CF833
:102FE00020E00133D5E700BF0060004060130020FF
:102FF00030B58BB0FFF7ECFE1C4BC03053F82020EF
:103000006FF3104243F82020FFF7E2FE184B002137
:1030100053F8205001236C68284694F8532884F80C
:10302000533894F85238D2B203F01F0384F853286F
:103030000393E2184FF40063ADF804302B6882F874
:1030400020181B6882F8201800936B6A6946049365
:10305000FFF7C3FEB4F842389B0704D52B6893F9F9
:103060001700FFF7E9FE0BB030BD00BF0060004065
:1030700060130020F7B5EFF30384154B103C64B2E6
:1030800053F82460F768BFB173686D4693F90D205B
:103090003369121B18BF0122C3B193E8030085E80E
:1030A00003001A70726918465A60B84733691BB139
:1030B00095E8030083E80300064BC03453F824204E
:1030C0006FF3104243F8242003B0F0BD2B46E8E72D
:1030D0006013002000600040EFF303830121103BE8
:1030E000064A5BB252F82320C0331172044A52F8E8
:1030F00023106FF3104142F8231070476013002033
:10310000006000400B7930B5DB010F4CDBB2A371DE
:103110000E4A0B78D35C8A7803F003054B781203D0
:103120001B0102F44052DBB21343CA78120202F4CC
:10313000407213432B4363804B79DB01DBB2237274
:10314000034B0360002030BD00340840989101001B
:10315000544457000020FF22014B18701A7070472A
:10316000003408400122430900F01F0002FA00F079
:10317000044A203342F82300BFF34F8FBFF36F8F11
:10318000704700BF00E100E00B4B00F1C00253F8B4
:1031900022106FF3104143F82210012300F01F02A8
:1031A0004009800000F16040934000F56140C0F8A4
:1031B00080310360704700BF006000404FF49643C9
:1031C00013B50193036804461A7842B193F91100CC
:1031D000FFF7DAFF236893F91300FFF7D5FF4AF6EC
:1031E00080220A4BA3F88420B3F8842092B2802A6C
:1031F00002D1002002B010BD019A1AB1019A013A21
:103200000192F1E74FF4FA70F4E700BF00E07F406D
:1032100000220270C0E9012280F83520012280F8E6
:103220003620DF22827770472DE9F0474FF0000803
:1032300004461F469DF8283080F8008021730375EE
:10324000089B8A460361099B154683610B9BDFF847
:10325000409103620C9BC0E90938FF234377002AA1
:103260003ED184F83520502004F028FF4FF6FF733C
:10327000A0F84230DF23064600F1200880F82050F5
:1032800080F8215080F8225080F82350C0E9095579
:10329000C562C0E90E55C0E90C5580F8443080F88D
:1032A000453080F8405080F84150C0E91255C4F8CC
:1032B00028802022294605F034FD072FA6605AD821
:1032C000314ABAF1020FD35D114642D099F800009D
:1032D000002856D1002B4ED102232777D35548E042
:1032E000012A48D184F83520242004F0E7FE064660
:1032F000837880F8008068F3020383704378C57098
:1033000003F0F80368F30613437080F8048080F834
:10331000058080F80680A0621C224146083005F036
:1033200000FD012F666026D8184BBAF1020FDA5D56
:10333000194602D099F8000028B1012A1BD80223AF
:103340002777CB5515E0B2B902222777DA552570D9
:1033500011E0012BF3D92777384601F03BFC3022EE
:10336000816A404605F0D2FC384601F033FC036B1D
:10337000A361012323700023207889F80030BDE881
:10338000F087012BDAE700BF42060020400600204C
:103390004A06002038B590F8353004468BB980686D
:1033A00008B9002038BD04F10C01FDF7DFFE054629
:1033B000A068FDF710FE0E2D01D0002DF1D10120E7
:1033C000F0E7012BEDD140680028EAD004F10C01B0
:1033D0000830FDF7F3FB054660680830FDF780FB19
:1033E000E9E708B590F835303BB9806820B1FDF7C2
:1033F000EDFDB0FA80F0400908BD012B06D1406810
:103400000028F9D00830FDF7C1FBF2E70020F3E710
:1034100008B590F835303BB9806820B1FDF70AFE59
:10342000B0FA80F0400908BD012B06D140680028A1
:10343000F9D00830FDF77EFBF2E70020F3E7FFFF4D
:1034400038B50446FFF7E4FF606838B10025237FF4
:103450000B4A2421D55404F057FE6560A56875B168
:103460000021237F074AA86CD15410B1202104F019
:103470004BFE5021284604F047FE0023A36038BDD0
:10348000400600204206002010B50446FFF7D8FF92
:10349000204610BD01F10C0303608B6803B120339B
:1034A00043604B6883607047836823B118680030BD
:1034B00018BF0120704740680028FBD08068F6E7FD
:1034C000F0B5044685B00F46014601A81546FFF742
:1034D000E1FF2046FFF7E8FF064610B12046FFF760
:1034E00097FF00F057F82A4601A900F039F9054680
:1034F00050B167772EB12046FFF74CFF2046FFF70B
:1035000070FF284605B0F0BDDF23A377F2E7FFFF89
:103510000028A8BF00F160404FEA0111B8BF054B79
:10352000C9B2ABBF00F5614000F00F0080F8001396
:103530001954704714ED00E00B4B00F1C00253F832
:1035400022106FF3104143F82210012300F01F02F4
:103550004009800000F16040934000F56140C0F8F0
:1035600080310360704700BF0060004001224309C2
:1035700000F01F0002FA00F0044A203342F8230052
:10358000BFF34F8FBFF36F8F704700BF00E100E0C4
:103590007047FFFF38B50A4DD5E88F3F13F001049F
:1035A0000BD1284604F09BFD38B1064B28461C6021
:1035B00004F0A1FD044801F093FD024838BD00BFAE
:1035C0004C06002050060020913501002AB9012246
:1035D0002F4BC03143F821207047012A03D1C0315D
:1035E0002B4B0222F6E7022A03D1C031284B0322DB
:1035F000F0E7032A03D1C031254B0422EAE7042A6D
:1036000003D1C031224B0522E4E7052A03D1C031A2
:103610001F4B0622DEE7062A03D1C0311C4B0722CE
:10362000D8E7072A03D1C031194B0822D2E7082A6C
:1036300003D1C031164B0922CCE7092A03D1C0318E
:10364000134B0A22C6E70A2A03D1C031104B0B22C2
:10365000C0E70B2A03D1C0310D4B0C22BAE70C2A6C
:1036600003D1C0310A4B0D22B4E70D2A03D1C0317A
:10367000074B0E22AEE70E2A03D1C031044B0F22B6
:10368000A8E70F2AA8D1C031014B1022A2E700BF42
:103690000060004032B9C6221A4BC03143F82120E5
:1036A00001207047012A05D1CF20164BC03143F8C5
:1036B0002100F5E7022A03D1C031124BD822EDE7F1
:1036C000032A03D1C0310F4BE122E7E7042A03D1DB
:1036D000C0310C4BEA22E1E7052A03D1C031094B86
:1036E000F322DBE7062A03D1C031064BFC22D5E7E3
:1036F000072A04D1C031034B40F20512CEE7002067
:10370000704700BF0060004032B94022134BC03107
:1037100043F8212001207047012A05D143200F4B97
:10372000C03143F82100F5E7022A03D1C0310B4B29
:103730004622EDE7032A03D1C031084B4922E7E7CF
:10374000042A03D1C031054B4C22E1E7052A03D1FD
:10375000C031024B4F22DBE7002070470060004081
:10376000F8B50E4601681B4B5F29054617469C6855
:103770002CD8336893F91220213201D00120F8BDF2
:103780007268403482B11A7CFFF784FF0028F5D0BC
:103790000823326853742B689374A7B90E4A44F80F
:1037A000232001332B60EAE7B2688AB11A7CFFF765
:1037B000ABFF0028E2D00823326853742B6893745F
:1037C0000FB9064AEBE744F82370EAE70020D6E792
:1037D0001046D4E700ED00E061130100610D010027
:1037E0002AB97422054BC03143F821207047012AC1
:1037F000FCD1C031014B7922F6E700BF00600040E8
:103800002AB97322054BC03143F821207047012AA1
:10381000FCD1C031014B7822F6E700BF00600040C8
:103820002AB97522054BC03143F821207047012A7F
:10383000FCD1C031014B7A22F6E700BF00600040A6
:103840002AB97622054BC03143F821207047012A5E
:10385000FCD1C031014B7B22F6E700BF0060004085
:1038600032B940F28112144BC03143F82120704725
:10387000012A04D1C031104B40F28712F5E7022A29
:1038800004D1C0310C4B40F28D12EEE7032A04D173
:10389000C031094B40F29312E7E7042A04D1C0314A
:1038A000054B40F29912E0E7092AE0D1C031024B02
:1038B00040F2B712D9E700BF0060004032B94FF4C0
:1038C000C072144BC03143F821207047012A04D143
:1038D000C031104B4FF4C372F5E7022A04D1C03156
:1038E0000C4B4FF4C672EEE7032A04D1C031094BEA
:1038F0004FF4C972E7E7042A04D1C031054B4FF4F5
:10390000CC72E0E7092AE0D1C031024B4FF4DB7200
:10391000D9E700BF0060004032B94FF4C172144BC8
:10392000C03143F821207047012A04D1C031104B27
:103930004FF4C472F5E7022A04D1C0310C4B4FF4A6
:10394000C772EEE7032A04D1C031094B4FF4CA72A3
:10395000E7E7042A04D1C031054B4FF4CD72E0E70C
:10396000092AE0D1C031024B4FF4DC72D9E700BF25
:103970000060004032B940F28312144BC03143F86A
:1039800021207047012A04D1C031104B40F2891226
:10399000F5E7022A04D1C0310C4B40F28F12EEE75A
:1039A000032A04D1C031094B40F29512E7E7042AFB
:1039B00004D1C031054B40F29B12E0E7092AE0D167
:1039C000C031024B40F2B912D9E700BF006000409D
:1039D0002DE9F84FB44B04469F68036815465F2BEA
:1039E00003D9002062B6BDE8F88F403772B60129CE
:1039F00040F09080002AF4D09368213340F0888012
:103A0000036812681A445F2AEBD86A68DFF8B48248
:103A100047F823206D22C03348F8232090F9000096
:103A2000FFF7A4FD94F900300C21C03358F823208F
:103A30006FF3104248F8232094F90000FFF768FD67
:103A400094F90000FFF778FD236869685A1CAB60A1
:103A5000226047F822106E22C13348F8232094F9DF
:103A60000000FFF783FD94F900300C21C03358F8B3
:103A700023206FF3104248F8232094F90000FFF749
:103A800047FD94F90000FFF757FD236869685A1C49
:103A9000226047F822106B22C13348F8232094F9A2
:103AA0000000FFF763FD94F900300C21C03358F893
:103AB00023206FF3104248F8232094F90000FFF709
:103AC00027FD94F90000FFF737FD236869685A1C49
:103AD000226047F822106C22C13348F8232094F961
:103AE0000000FFF743FD94F900300C21C03358F873
:103AF00023206FF3104248F8232094F90000FFF7C9
:103B000007FD94F90000FFF717FD236801332360D8
:103B1000012067E702290DD1002A3FF462AF9368C4
:103B20002133F5D10068136818445F288CBF00204A
:103B3000012057E7032911D1002A3FF452AF92F92F
:103B400012302133E4D10E2353740168574B917422
:103B500047F82130127CFFF7D7FDD6E7042949D179
:103B6000002A3FF43EAF92F90730213331D101688A
:103B70000B1D602B3FF635AF0C264D4BD171967166
:103B800047F821301278FFF76BFE0168494B01318D
:103B9000016069722E7247F821302A78FFF7BCFE67
:103BA0000168454B0131016069712E7147F8213080
:103BB0002A78FFF783FE0168404B01310160AE7245
:103BC000E97247F821302A78FFF7D4FE0368013301
:103BD000036095F90700FFF7AFFC95F90900FFF7BF
:103BE000ABFC95F90500FFF7A7FC95F90B00FFF773
:103BF000A3FC8DE7002940F09480002A3FF4F1AE49
:103C0000137A3BBB126892F90D3021331ED10C237D
:103C10005421137303685373294A47F82320294A10
:103C2000C03342F823102B68686893F90D101B7B92
:103C300001F160421B01DBB202F5614282F8003300
:103C4000214B43F821002368013323602B6893F94B
:103C50000D00CCE7012B39D1126892F90F302133D6
:103C60001ED10C23552193730368D373144A47F86C
:103C70002320144AC03342F823102B68686893F954
:103C80000F109B7B01F160421B01DBB202F5614228
:103C900082F800330C4B43F8210023680133236082
:103CA0002B6893F90F00A2E700ED00E0610D010021
:103CB000611B0100251D01002D1C0100651D010077
:103CC000753001000060004060130020022B7FF47B
:103CD00088AE126892F9113021331ED10C2356217F
:103CE000137403685374A84A47F82320A74AC033C3
:103CF00042F823102B68686893F911101B7C01F1BE
:103D000060421B01DBB202F5614282F80033A04B36
:103D100043F821002368013323602B6893F91100D5
:103D200065E7052973D1002A3FF45BAE0C231668C2
:103D3000737396F90F30213348D101680B1D602B46
:103D40003FF64FAEF1733278FFF74AFD4FF0C00AED
:103D500090F90030DFF86C82DFF8349208EB030250
:103D600082F800A3016849F8236001312B680160E3
:103D7000B1731A78FFF744FD90F9003008EB0302A5
:103D800082F800A3016849F8236001312B680160C3
:103D900031741A78FFF744FD90F9003008EB030204
:103DA00082F800A3016849F8236001312B680160A3
:103DB00071741A78FFF744FD90F90030984488F840
:103DC00000A349F8236003680133036096F90F00EC
:103DD000704B714A47F8203096F90E3047F823208F
:103DE00096F910306D4A47F8232096F911306C4A45
:103DF00047F82320FFF7A0FB96F90E00FFF79CFB86
:103E000096F91000FFF798FB96F91100EFE60629E6
:103E100056D1002A3FF4E5AD0C231668737396F96A
:103E20000F30213341D10168CB1C602B3FF6D9AD57
:103E30005C4BF17347F821303278FFF711FD4FF0FA
:103E4000C00A90F90030DFF87C81DFF8449108EB7C
:103E5000030282F800A3016849F82360524B013144
:103E60000160B17347F821302B681A78FFF726FDFF
:103E700090F9003008EB030282F800A3016849F8CA
:103E800023604A4B01310160317447F821302B68BF
:103E90001A78FFF741FD90F90030984488F800A3A4
:103EA00049F8236003680133036096F90F00FFF7B8
:103EB00043FB96F90E00FFF73FFB96F9100096E6DC
:103EC00007294CD1002A3FF48CAD40F60C435568CD
:103ED0002B8295F90D30213320D101680B1D602B09
:103EE0003FF67FAD69732A78FFF77AFC01680131EC
:103EF00001602A782973FFF783FC016801310160B2
:103F00002A78A973FFF78CFC0168013101602A78D7
:103F1000E973FFF795FC03680133036095F90D0021
:103F2000234B244A47F8203095F90C3047F82320DA
:103F300095F90E30204A47F8232095F90F301F4A93
:103F400047F82320FFF7F8FA95F90C00FFF7F4FA89
:103F500095F90E00FFF7F0FA95F90F0047E60829EA
:103F600032D1002A3FF43DAD92F9023021337FF483
:103F7000CFAD0C2353700168114B917047F821307D
:103F80001278FFF723FBC0E5D93001000060004044
:103F9000601300201525010009240100E925010016
:103FA0007D260100851E0100691E0100052001001B
:103FB000352901004D280100D12901003D2A0100C9
:103FC000C52A010000E100E0092940F09980002A9B
:103FD0003FF407AD566896F90230213340F08580F2
:103FE00003681A1D602A3FF6FCAC06222968287A6D
:103FF000B271BB4AB37047F8232028B940F2C51507
:10400000B84AC03342F823504FF0060C96F90250DC
:10401000B37905F160421B01DBB202F5614282F81F
:1040200000332268B04B43F82510551C256086F8F4
:1040300005C0DFF8D8C2757047F825C028B94FF41D
:10404000E27CA84DC13245F822C096F901C07279D0
:104050000CF160451201D2B205F5614585F80023E7
:1040600043F82C104FF0060C2268551C256086F88A
:1040700008C0DFF89CC2357147F825C028B940F266
:10408000C71C984DC13245F822C096F904C0327A57
:104090000CF160451201D2B205F5614585F80023A7
:1040A00043F82C104FF0060C2268551C256086F84A
:1040B00007C0DFF860C2F57047F825C028B94FF493
:1040C000E4758848C13240F8225096F90350F279DD
:1040D00005F160401201D2B200F5614080F8002382
:1040E00043F8251023680133236096F90200FFF797
:1040F00023FA96F90100FFF71FFA96F9040076E516
:104100000A297CD1002A3FF46CAC566896F902303B
:10411000213365D101680B1D602B3FF662AC4FF077
:10412000060B92F808A0714BD2F80090B17086F897
:1041300006B0524647F82130FFF792FBB37996F963
:1041400002206B4D1B01A918DBB281F80033016816
:10415000DFF89481674B013148F8229001605246A4
:10416000717086F805B047F82130FFF7A7FB737927
:1041700096F901201B01A918DBB281F80033016810
:104180005D4B013148F8229001605246317186F84A
:1041900008B047F82130FFF7EDFB337A96F9042099
:1041A0001B01A918DBB281F800330168534B0131C0
:1041B00048F8229001605246F17086F807B047F83F
:1041C0002130FFF7A9FBF37996F903201B01DBB23D
:1041D000154485F80033036848F8229001330360E2
:1041E00096F90200FFF7A8F996F90100FFF7A4F984
:1041F00096F90400FFF7A0F996F90300F7E40B29FC
:104200007FF4EFAB002A3FF4ECABD2E900150C23AE
:104210002B7595F91530213356D10368DA1C602AC5
:104220003FF6DFAB364A6B7547F823202A6822B980
:10423000A1202C4AC03342F8230095F915002B7DAC
:1042400000F160421B01DBB202F5614282F80033EB
:104250002268254B2B4E43F82010501C2060A87577
:1042600047F82060286820B9A4261E48C13240F8CB
:10427000226095F916602A7D06F160401201D2B2E3
:1042800000F5614080F80023226843F826101E4E96
:10429000501C2060E87547F82060286820B9A526E2
:1042A0001048C13240F8226095F917602A7D06F166
:1042B00060401201D2B200F5614080F8002343F85B
:1042C000261023680133236095F91500FFF734F9B0
:1042D00095F91600FFF730F995F9170087E400BF4C
:1042E000592C0100006000406013002039210100BA
:1042F00000E100E08121010011220100D92101002B
:10430000592E0100092F0100F12F0100E52B0100BA
:10431000512D0100E12C010008B53C22002102488A
:1043200004F0FFFC08BD00BF5406002070B5002457
:104330002646064D55F8240020B12C2103F0E4FE5A
:1043400045F8246001340F2CF4D170BD54060020D0
:104350000020704701207047036840F213421B6A37
:10436000184790F83D34002BFBD07047D0F82C3222
:104370002BB1D0F82832184490F8240070474FF041
:10438000FF30704713B5044690F8A8048DF8071065
:10439000002378B184F83C34012284F83D340DF1D7
:1043A000070104F58860FDF7E1F894F83C34002B30
:1043B000FBD0012002B010BD0023C0F82432C0F8A9
:1043C0002832C0F82C32C0F83034C0F83434C0F889
:1043D000383400F58860FDF745B9036813B962B653
:1043E000BFF36F8F704713B5EFF310830093012372
:1043F000019372B6019B5A1E01923BB1D0F82C4238
:104400006846FFF7EAFF204602B010BD6846FFF796
:10441000E4FF4FF0FF34F6E70268224B13B553F880
:1044200022304BB10279042A0CD0802A06D0022A0D
:1044300002D1012283F83D2402B010BD012283F88D
:104440003C24F9E7D3F82C22B2F5007FF4D0007AAF
:10445000EFF3108200920122019272B6019A013AA2
:10446000511C19D0D3F82C12541EB1F5007F11D075
:10447000D3F82412194481F82400D3F8241201310E
:10448000C1F30801C3F82412D3F82C120131C3F888
:104490002C12E4E72246E3E768460192FFF79DFF0E
:1044A000CAE700BF9006002013B5EFF31083009316
:1044B0000123019372B6019B5A1E0192E3B1D0F819
:1044C0002C32B3B1D0F82832034493F82440D0F80A
:1044D00028320133C3F30803C0F82832D0F82C3255
:1044E000013BC0F82C326846FFF777FF204602B048
:1044F00010BD4FF0FF34F6E76846FFF76EFF4FF050
:10450000FF34F3E738B5044600254FF47A70A36111
:10451000C4E90150049B1848C4E90412E361206017
:1045200029464FF4007204F1240004F0FAFBC4F8A9
:1045300024524FF40072C4F828522946C4F82C5271
:1045400004F50C7004F0EDFB0123C4F83054C4F8FA
:104550003454C4F8385484F83C3484F83D34DF23B0
:1045600084F8A85484F8773484F8793484F875345E
:1045700084F87B34204638BDA891010010B50C4664
:10458000FFF708F82246BDE810400421FFF720BAE3
:10459000F0B5036985B0002B044602DA002005B0AF
:1045A000F0BD4269002AF9DB8B42F7DA8A42F5DA7C
:1045B000D9B20022684602AE03F010FD0122217D2F
:1045C000304603F00BFD002200213DF81250AB11E4
:1045D000002D45D036F81200002841D036F81100E1
:1045E00083EA9017FF063BD103F01F0323620028E4
:1045F000D4D0092BD2DC15F4F04F0CBF4FF0806201
:104600004FF0A06210F4F04F0CBF4FF080654FF0F8
:10461000A0652369164E42F4803236F833101548EF
:10462000FCF724FF636945F480352A4636F83310D9
:104630001048FCF71BFFA3695A1C0FD0E269013236
:104640000CD036F833102A460A48FCF70FFFE3690E
:104650002A4636F833100748FCF708FF01209EE78A
:1046600001310329B4D10132032AADD196E700BF4D
:104670007C900100D81200202DE9F04104460E463E
:104680001546FBF7D7FD01462046FFF781FF84F86A
:10469000A804002800F0BD8094F891145E4B6FF3DD
:1046A000010184F891141921A4F89214012184F8CD
:1046B00095140F21226A84F89C1443F8224094F840
:1046C00090344FF6FF7103F0E70343F040036FF3BC
:1046D000820384F890340023A4F89E14A16904F5A1
:1046E0009267013184F8943484F89634C4F898744D
:1046F00084F8A03405D0E16901311CBF082184F899
:10470000A01484F8702404F29442C4F88C2440F27B
:1047100013424FF6FF71954284F8A23484F8A33413
:10472000A4F8A414C4F88834C4F88034C4F87C34E1
:104730003ED02DD840F21142954248D040F212426C
:1047400095424AD0354B04F58E68C4F8843441460E
:104750002046FFF713FF94F8A8340121184084F88D
:10476000A8043B4640F6B8323046FDF74BF994F8C2
:10477000931429B93B4640F6B8323046FDF742F96A
:1047800004F5886541462846FCF7AAFF78B3FEE7A2
:1047900040F23242954225D040F2334295420FD04A
:1047A00040F231439D42CDD1022384F871340AE0B6
:1047B000022284F8723484F8712484F87334C1E7D7
:1047C000022284F8712484F872340123F5E702226E
:1047D00084F8712484F87224EFE7022284F87124AB
:1047E0000322F7E7022384F871340323EBE7394609
:1047F0002846FDF7E7F800B1FEE7C4F82402C4F844
:104800002802C4F82C02C4F83004C4F83404C4F8F4
:104810003804BDE8F08100BF900600201944010073
:104820004FF0FF3307B50022009301210248FFF744
:1048300069FE03B05DF804FBB80600200148FEF7EE
:10484000E7BC00BF640B00200148FEF71DBE00BF9F
:10485000640B0020F8B5054600240126074FAA6C1A
:1048600006FA04F3134205D007EB440261B228466E
:10487000FBF760FF01341D2CF1D1F8BDA80B00201F
:10488000837870B5044683B90E4D2A68AAB10388AF
:104890003BB90D48FFF7DEFF2B682078BDE870407C
:1048A0001847012BF8D10948F4E7012B05D00A2B52
:1048B00004D1074B1B68002BEFD170BD0B2BFCD133
:1048C000044BF7E79C0B0020E40B0020400C002079
:1048D000A00B0020A40B0020F0B5044685B00028F2
:1048E00041D00023012780F83230C1F38415836C56
:1048F00007FA05F21343836400F13001FBF74AFF26
:1049000004F148012046FCF713F804AE2046FBF7FB
:1049100005FF06F8047D9DF80C30012B04D13146CB
:104920002046FBF700FFF6E70DF10E022946204670
:10493000FBF700FF01210D4BBDF80E0093F833305B
:10494000052B96BF0A4A0022D2560A4B01FA02F200
:104950001B6801FA03F300930023194600F084F961
:1049600080B205B0F0BD4FF0FF30FAE7E40B002055
:10497000D49101001805002013B50A220C46C1B2DB
:10498000684603F02BFBBDF800205AB1064B0749DF
:1049900002F4F040B0F5006F0CBF184608462280C4
:1049A00002B010BD1046FAE7400C0020E40B0020D6
:1049B000F0B5012680F825600226C0E90F2300F13A
:1049C0002403002540F60C4780F826604364DF2668
:1049D0004FF4C05380F8245080F8275080F82850B6
:1049E00080F8295080F82A6080F82B60878501863E
:1049F00080F8325080F8335080F8345080F83550C9
:104A000080F8366080F837600787C0E91255C0E942
:104A10001455A0F85850A0F85A30F0BD10B504460F
:104A2000406D10B1142103F06FFB204610BDFFFF55
:104A300037B5044600230D2898BF0E3402A921F88B
:104A4000023D2046FFF798FF0546074B4FF4004113
:104A500033F8340000F08EFBBDF806102846FFF74F
:104A60003BFF03B030BD00BF7C900100042838B587
:104A700098BF104B104C98BF1D5CA36888BF0025E1
:104A800013B12046FBF724FF0C4984F828500C4C46
:104A9000A1F13000FBF77EFEA36813B12046FBF7BF
:104AA00017FF084984F82850A1F13000BDE83840CC
:104AB000FBF770BEDA910100E40B0020140C00201B
:104AC000400C0020700C00202DE9F04D3C4B2DEDEA
:104AD000028B93F82830192B6BD057D8012B62D05A
:104AE000022B63D0374CD4ED007AF5EE407AF1EE2C
:104AF00010FA48D10FF2C00BDBE900AB0020FFF742
:104B0000B5FF052000F046FB0A259FED2F8ADFF850
:104B1000C0801420FFF78CFF07EE900AF8EEE77ACA
:104B200067EE887A17EE900A03F056FC52465B4611
:104B300003F0AAFC06460120D8F800300F46984042
:104B400003F038FC02460B463046394603F0C6FDFA
:104B5000064620680F4603F03FFC02460B463046EF
:104B6000394603F0DBFA03F0A1FE013D07EE900A9F
:104B70002060CED1F2EE046A87EEA67A052084ED9D
:104B8000007AFFF773FF94ED000A08E01D2B04D0B4
:104B90001F2BA7D1B0EE040A01E0B0EE000ABDEC75
:104BA000028BBDE8F08D9FED090AF8E79FED060A3C
:104BB000F5E7B7EE080AF2E7295C8FC2F5A82040B6
:104BC000E40B00209C0C00203D0AB73F0000C07F92
:104BD00018050020002130B5084B53F8144B8C42C7
:104BE00007D053F8042F92F82450A84202D0013184
:104BF000F5E7002202F1080030BD00BFA00C002044
:104C000038B500230D4C194622460D4D0D48FFF7CF
:104C1000CFFE002301210C48FFF7CAFE00242846DE
:104C2000214640F8044B142204F07BF85022214620
:104C300005F1180004F075F838BD00BF8148010087
:104C4000A00C0020E40B0020400C002008B5044814
:104C5000FFF7E4FEBDE808400248FFF7DFBE00BFF3
:104C6000400C0020E40B002010B5029C401AE41A0E
:104C70006043521A90FBF2F0184410BD2DE9F04F3A
:104C8000027D85B0012A05460F4640F0978000213D
:104C90004FF0FF3B04460B465E4694F804C048B212
:104CA000BCF1000F7CD194F805C0BCF1000F77D1A6
:104CB000B6F1FF3F0FBF012301335BB23046934291
:104CC00001DD1A4683460131082904F1020465D149
:104CD0000024A14602EB0B030293CB4502DC029BAE
:104CE0004B4560DC6E7995F804A04FEA26180AF06F
:104CF0000F035FFA88F25FEA2A1A019206F00F06A4
:104D000077D05FFA8AF1BAF1090FCABF5731303153
:104D100049B23846039300F0D3F8039B0444092BAF
:104D20008ABF03F1570103F1300149B238460393BA
:104D300000F0C6F80444BAF1000F04D1039B13B984
:104D4000B8F1000F0DD0019BB8F1090FD4BF03F1EA
:104D5000300803F157084FFA88F1384600F0B0F8F0
:104D60000444092E8ABF573606F1300171B2384625
:104D700000F0A6F8B9F1070F044404D03A213846F0
:104D800000F09EF8044409F10109B9F1080F05F19A
:104D90000205A2D1204605B0BDE8F08F06467CE7AB
:104DA0004FF0FF308FE7CB45EDD1BBF1000FE5D1E0
:104DB0003A21384600F084F80444DFE7002400F18B
:104DC000100600F1130916F8011B0A22384600F0FC
:104DD000A6F82E218046384600F072F8B1454044CE
:104DE0000444F0D10A22E97C384600F098F80444E3
:104DF000D0E7002B93D1A3E710B50446044B01750F
:104E0000036010220021043003F08BFF204610BD08
:104E1000E8910100F8B50F460021044616461D46EC
:104E2000074B017503601022043003F07AFF9DF8F0
:104E3000183027746674A574E3742046F8BD00BF6B
:104E4000E891010007B501210648FFF7D5FF0023CF
:104E5000054800931A461946FFF7DCFF03B05DF8DA
:104E600004FB00BF080D0020200D00202DE9F041BB
:104E700006460D460C4601EB02084445A4EB050727
:104E800007D0336814F8011B1B6830469847002888
:104E9000F3D13846BDE8F081036870B50446084692
:104EA0000D465E6804F042F8294602463346204625
:104EB000BDE87040184709B1FFF7EEBF08467047DC
:104EC0000368C9B21B6818470023012A98BF0A2249
:104ED00070B58AB00E460AA901F8043DB6FBF2F59A
:104EE00002FB1564E3B264B2092CD4BF303337330C
:104EF0005BB22E4601F8013D002DEFD1FFF7DBFF3D
:104F00000AB070BD10B42AB90368C9B21B685DF855
:104F1000044B1847D2B25DF8044BFFF7D5BFFFF73B
:104F2000F1BFFFFF4AF202520E4B0F49A3F8FE23D6
:104F30000E4A11604FF42542A3F8FE2303F5E42343
:104F40001A886FF304121A80BFF34F8F0849094B78
:104F5000CA6802F4E0621343CB60BFF34F8F00BF17
:104F6000FDE700BF00E001403581730700E5014027
:104F700000ED00E00400FA0573B5002504460E4676
:104F800080F830500D22684603F028F8BDF8003054
:104F900084F83860C3F38412636303F4F043B3F519
:104FA000006F2574E5746574A574657522750CD061
:104FB00004F11003A361064BE361064B2362064B29
:104FC0006362064BA362064BE362204602B070BDEB
:104FD000ED0D0100990E0100650E0100D50E0100D6
:104FE000710E01000E210148FFF7C6BF380D0020E9
:104FF000042911D8DFE801F0030C0A030E00002297
:10500000064B33F830100020FCF730BA1022F7E7D7
:105010000422F5E78422F3E7704700BF7C9001008B
:10502000044B0A1C18BF012233F830100020FCF793
:10503000F1B900BF7C900100EFF31080012383F3EE
:105040001088064B196819B9054AD1704021D170F2
:105050001A6801321A6080F3108870475C130020D0
:10506000000D08401FB50320FBF714FB6FF0FF0293
:10507000164BFF219A6401A80C2203F052FE012472
:1050800000235A0904A901EB820203F01F0104FA6C
:1050900001F052F80C1C013321EA0001602B42F8A8
:1050A0000C1CEED1019A0A4B0A491A600A4B0320E4
:1050B000C3F88022029A0A60C3F88422039A4A60E5
:1050C000C3F88822FBF7BCFA04B010BD0080004092
:1050D000708000407480004000E100E0704770473D
:1050E0000020704710B5002484F30A88FFF7BAFF48
:1050F00072B6184B184A19481A6023461958D150ED
:105100000433402BFAD10023154C02F14001185909
:10511000C8500433B3F5C07FF9D1124B9A60BFF386
:105120004F8F62B6FFF788FFFBF790F8FFF7CCFCD4
:1051300002F00EFF4FF4E1310B4802F022FC00F0C8
:105140003BF8FFF7CCFFFBF75BF8FFF7C7FFFBF778
:105150005BF8FCE7740D002000FE01200000010058
:105160004000010000ED00E01812002008B5FFF734
:10517000B9FFFFFF0A4601460148FCF777B900BFB7
:10518000D8120020024A136801331360704700BF31
:10519000B00D00200121FBF7BDB9704770B5064680
:1051A000044C256823685B1BB34202D2FFF7F5FF6E
:1051B000F8E770BDB00D002030B5164B87B0196A06
:1051C000154B0122039303230025CDE90123134B43
:1051D00004951B68C1F302608340C1F30221CB40F8
:1051E0004FF4FA51B3FBF1F30D4C009329462B46D3
:1051F0002046FEF719F82A4608212046FEF760F9F6
:105200002046FEF7C7F8204607B0BDE83040FEF75D
:10521000E8B800BF00E001408551010018130020EC
:10522000780D00200148FDF7F3BF00BF780D002086
:105230000148FEF729B900BF780D002070B500F1D4
:1052400010050446284600F01CFE3F2815D9E178D9
:10525000002001F0A3F880B1284600F012FE3F289C
:10526000E17807D904F50A724023BDE870400020B8
:1052700001F0B0B8002001F09FF8002070BDFFFFE2
:1052800010B5044600F04EFF08B9002010BD00F034
:1052900051FF0028F9D14FF42A72034B02FB04346A
:1052A000207900F00100F1E7B40D002008B54FF4BB
:1052B0002A73034A03FB0020103000F0BAFD08BD3A
:1052C000B40D00204FF42A7370B558434FF6FE76A4
:1052D0004FF6FF73B24288BF1A46064C92B22518A9
:1052E0001030204400F0EEFD04462846FFF7A6FFEC
:1052F000204670BDB40D00204FF42A73024A03FB10
:105300000020103000F0F1BDB40D00202DE9F04177
:10531000054600F007FF10B90020BDE8F08100F05D
:1053200009FF07460028F7D14FF42A746C43174D44
:1053300004F11C062E44304600F07BFD0028EBD023
:1053400005EB040898F80210384601F027F8002809
:10535000E2D004F51A74254429464022304600F074
:10536000B1FD98F80210044658B103462A46384663
:1053700001F030F838B9064B1B68DB07CCD500BE0E
:10538000CBE701F019F82046C7E700BFB40D0020B5
:10539000F0ED00E070B54FF42A740D4B054604FBA8
:1053A00000344FF6FF734FF6FE70824288BF1A46F4
:1053B0001C3492B2204600F0BFFD0646204600F0A5
:1053C00038FD3F2802D92846FFF7A0FF304670BDC0
:1053D000B40D002008B54FF42A73034A03FB0020E4
:1053E0001C3000F04EFD08BDB40D002013B5134C69
:1053F0004FF42A720021204603F093FCFF236371CF
:105400004FF4E1330822A3600023A273A381009329
:1054100004F1280101234FF4807204F1100000F020
:10542000F1FC01234FF48072009304F5947104F1B0
:105430001C0000F0E7FC02B010BD00BFB40D00205E
:1054400010B50A4C00210522204603F06AFC04F145
:1054500010001C3400F076FD204600F073FD20465D
:10546000BDE81040012100F072BD00BFB40D002066
:10547000F7B54B790746022B03D00024204603B032
:10548000F0BD8B79022BF8D11F4EB3787BBB8B78A4
:10549000092433700D780D4403E02B781C44A4B22A
:1054A0001D446B78242B1BD19442F6D96B78042BC6
:1054B00012D16B790A2B0FD1144B2E780193013343
:1054C00000930223A9191A46384600F033FF70B141
:1054D0000E3416FA84F4A4B20B48FFF7AFFECDE702
:1054E000052BE3D12946384600F000FF28B9084BC8
:1054F0001B68DB07C1D500BEBFE7AB7873702B78A4
:105500001C44A4B21D44D1E7B40D0020B60D002008
:10551000F0ED00E038B50B461146127802F060025B
:10552000202A47D1244A8C881578A54242D14C784C
:10553000203C032C3ED8DFE804F002141731012B85
:1055400005D107231D4A01F0DFFA012038BD032BE6
:10555000FBD11B4B002BF8D01849002002F004FBB4
:10556000F3E7012BF1D1ECE7012B02D101F0B2FA04
:10557000EBE7032BE9D14C881248E143147101F0A9
:10558000010100F0E4FC104B002BDED0C4F340021C
:1055900004F00101002002F0D3FAD6E7012BE5D098
:1055A000032BD2D1094B002BCFD04988002000E03B
:1055B00000BFCAE70020C9E7B40D0020BC0D0020E1
:1055C000697B0100D00D0020417B0100000000003C
:1055D0002DE9F0471C46374B8046DA780F468A4261
:1055E0001D4607D09B788B4259D1AB78BB4234D053
:1055F00001245BE003F50A7103F11000A2B200F090
:105600009BFC2D4B2BB92D4BFBB92A48FFF716FEFF
:10561000EBE795F905300133F5D005F2272606EBC7
:105620000409A6F2172A4E45EDD095F9052016F883
:10563000013F9A42F7D1504600F00BFC0028F2D10E
:1056400095F9051000E000BFEDE71D4800F001FCF2
:105650000028DAD100E000BFD7E71A4B13B10020D1
:1056600000E000BF0020FFF751FE0028C0D116481F
:1056700000F0DFFB0028BBD1002CB9D014F03F06AE
:10568000B6D1A978404600F089FE04460028AFD084
:1056900033463246A978404600F09CFE06E00B4BAC
:1056A0001C6814F0010401D000BE00242046BDE8AF
:1056B000F08700BFB40D00200000000000000000D3
:1056C000C40D002000000000D00D0020F0ED00E02F
:1056D000704770478B79012B0AD1CB79012B07D109
:1056E0000B78CA185278212A04D1C85C0930704757
:1056F0000020704709207047012973B506461446FB
:105700002AD1137803F01F05012D11D113F0600386
:1057100008D152780B2A0BD1214601F0DBF928463B
:1057200002B070BD202B03D153781BB1032B07D0DF
:105730000025F4E7114601F0CDF902F0CBF9EEE7D0
:1057400006220021684603F0ECFA06236A46214649
:10575000304601F0D9F9E2E70125E0E78C2200218B
:10576000014803F0DEBA00BF5C1000200020FFF704
:10577000F5BFFFFF2DE9F7430E4673790746032B6C
:10578000114604D00024204603B0BDE8F0833279EE
:10579000C2EBC2041234A4B28C4205D9234B1B685D
:1057A000DA07EFD500BEEDE7214D95F801E0A846F8
:1057B000BEF1000FF2D196F800C006EB0C0191F893
:1057C0000190B9F1210FE9D1C5F8881016F80CC085
:1057D00005F1010E0235CDF804E00095614400F0BA
:1057E000A9FD0028DAD0B37998F80210012B04BF84
:1057F000F37988F80330012388F80430B37888F807
:105800000030D8F88830B3F80730A8F806300029FF
:10581000B9D04023074A384600F0DCFD0028B2D159
:10582000024B1B68DB07AED500BEACE7F0ED00E035
:105830005C100020A410002013782DE9F3411546D8
:1058400003F01F02012A06460C4601D000246DE039
:10585000DFF8C081AA8898F80010D2B2914247467A
:10586000F4D113F060031FD0202BEFD16B78013BF4
:105870000A2BEBD801A252F823F000BFEF58010029
:10588000B7590100C35901004D5801004D5801009E
:105890004D5801004D5801004D5801004959010073
:1058A00093590100CF590100012C01D001243DE0A2
:1058B0006A78062ACAD16A88120A212A0AD1D8F837
:1058C0008820002AC2D02946137802B0BDE8F041F2
:1058D00001F01AB9222AB9D1184602F0A9F90246F4
:1058E000B8F806302946304601F00EF91EE0012CCA
:1058F000DCD1EB886988402B4FEA1122184628BF7B
:10590000402011F0FF0115D0012B13D90138384B7D
:10591000397280B20090002002F05CFB0444A4B213
:105920005CB9344B1B68DB0790D500BE204602B043
:10593000BDE8F0810024304BECE723462E4A29468F
:10594000304601F0E1F8B1E7012C05D1EB88402B9E
:105950003FF67CAF294AC5E7032CA7D1EB886988BD
:10596000402B4FEA1122184628BF402011F0FF01BA
:105970000DD0012B0BD997F848308B4207D1013855
:105980001F4B80B20090002002F026FB8EE71B4BDD
:10599000F8E7012C8AD169881A4B090A79712BB171
:1059A000002000E000BF00283FF450AF29463046F9
:1059B00001F090F87AE7012C7FF478AF2346124A81
:1059C00090E7012C7FF472AF2346104A8AE7012C3E
:1059D000ECD0032C7FF46AAF69880D4BC9B23971E2
:1059E000002B3FF463AF002000E000BF5EE700BF84
:1059F00065100020F0ED00E064100020A4100020ED
:105A0000A5100020000000006110002060100020A0
:105A1000000000005C10002037B51A4C0546A27843
:105A200060788A4213D088420AD1174A12B90120FD
:105A300003B030BD9AB21549002000E000BFF6E780
:105A4000134B1B68DB0700D500BE0020F0E7904237
:105A5000EBD000229BB211461046009304F148039C
:105A600002F0BAFA402304F14802A178284600F077
:105A7000B1FC0028DBD1064B1B68DA07E5D500BE78
:105A8000D6E700BF5C10002000000000641000207A
:105A9000F0ED00E00A4492B291424FEA400001D892
:105AA000824201DB121A92B21046704738B50D4699
:105AB000D41A8188A4B29A423CBF04EB4104A4B238
:105AC000BCB1A14205D2914294BF531A8B189BB22C
:105AD000438199420AD9C2880168C2F30E0202FBCF
